{
  "contractName": "CoreBridge",
  "abi": [
    {
      "inputs": [],
      "stateMutability": "nonpayable",
      "type": "constructor"
    },
    {
      "anonymous": false,
      "inputs": [
        {
          "indexed": true,
          "internalType": "address",
          "name": "previousOwner",
          "type": "address"
        },
        {
          "indexed": true,
          "internalType": "address",
          "name": "newOwner",
          "type": "address"
        }
      ],
      "name": "OwnershipTransferred",
      "type": "event"
    },
    {
      "stateMutability": "payable",
      "type": "fallback"
    },
    {
      "inputs": [],
      "name": "eSpacePoolAddress",
      "outputs": [
        {
          "internalType": "address",
          "name": "",
          "type": "address"
        }
      ],
      "stateMutability": "view",
      "type": "function"
    },
    {
      "inputs": [],
      "name": "owner",
      "outputs": [
        {
          "internalType": "address",
          "name": "",
          "type": "address"
        }
      ],
      "stateMutability": "view",
      "type": "function"
    },
    {
      "inputs": [],
      "name": "poolAddress",
      "outputs": [
        {
          "internalType": "address",
          "name": "",
          "type": "address"
        }
      ],
      "stateMutability": "view",
      "type": "function"
    },
    {
      "inputs": [],
      "name": "renounceOwnership",
      "outputs": [],
      "stateMutability": "nonpayable",
      "type": "function"
    },
    {
      "inputs": [
        {
          "internalType": "address",
          "name": "newOwner",
          "type": "address"
        }
      ],
      "name": "transferOwnership",
      "outputs": [],
      "stateMutability": "nonpayable",
      "type": "function"
    },
    {
      "stateMutability": "payable",
      "type": "receive"
    },
    {
      "inputs": [],
      "name": "initialize",
      "outputs": [],
      "stateMutability": "nonpayable",
      "type": "function"
    },
    {
      "inputs": [
        {
          "internalType": "address",
          "name": "_poolAddress",
          "type": "address"
        }
      ],
      "name": "setPoolAddress",
      "outputs": [],
      "stateMutability": "nonpayable",
      "type": "function"
    },
    {
      "inputs": [
        {
          "internalType": "address",
          "name": "_eSpacePoolAddress",
          "type": "address"
        }
      ],
      "name": "setESpacePoolAddress",
      "outputs": [],
      "stateMutability": "nonpayable",
      "type": "function"
    },
    {
      "inputs": [],
      "name": "ePoolAddrB20",
      "outputs": [
        {
          "internalType": "bytes20",
          "name": "",
          "type": "bytes20"
        }
      ],
      "stateMutability": "view",
      "type": "function"
    },
    {
      "inputs": [],
      "name": "queryCrossingVotes",
      "outputs": [
        {
          "internalType": "uint256",
          "name": "",
          "type": "uint256"
        }
      ],
      "stateMutability": "nonpayable",
      "type": "function"
    },
    {
      "inputs": [],
      "name": "queryUnstakeLen",
      "outputs": [
        {
          "internalType": "uint256",
          "name": "",
          "type": "uint256"
        }
      ],
      "stateMutability": "nonpayable",
      "type": "function"
    },
    {
      "inputs": [],
      "name": "queryInterest",
      "outputs": [
        {
          "internalType": "uint256",
          "name": "",
          "type": "uint256"
        }
      ],
      "stateMutability": "view",
      "type": "function"
    },
    {
      "inputs": [],
      "name": "queryUserSummary",
      "outputs": [
        {
          "components": [
            {
              "internalType": "uint64",
              "name": "votes",
              "type": "uint64"
            },
            {
              "internalType": "uint64",
              "name": "available",
              "type": "uint64"
            },
            {
              "internalType": "uint64",
              "name": "locked",
              "type": "uint64"
            },
            {
              "internalType": "uint64",
              "name": "unlocked",
              "type": "uint64"
            },
            {
              "internalType": "uint256",
              "name": "claimedInterest",
              "type": "uint256"
            },
            {
              "internalType": "uint256",
              "name": "currentInterest",
              "type": "uint256"
            }
          ],
          "internalType": "struct IPoSPool.UserSummary",
          "name": "",
          "type": "tuple"
        }
      ],
      "stateMutability": "view",
      "type": "function"
    },
    {
      "inputs": [],
      "name": "syncAPYandClaimInterest",
      "outputs": [],
      "stateMutability": "nonpayable",
      "type": "function"
    },
    {
      "inputs": [],
      "name": "syncAPY",
      "outputs": [],
      "stateMutability": "nonpayable",
      "type": "function"
    },
    {
      "inputs": [],
      "name": "crossStake",
      "outputs": [],
      "stateMutability": "nonpayable",
      "type": "function"
    },
    {
      "inputs": [],
      "name": "claimInterest",
      "outputs": [],
      "stateMutability": "nonpayable",
      "type": "function"
    },
    {
      "inputs": [],
      "name": "claimAndCrossInterest",
      "outputs": [],
      "stateMutability": "nonpayable",
      "type": "function"
    },
    {
      "inputs": [],
      "name": "handleUnstake",
      "outputs": [],
      "stateMutability": "nonpayable",
      "type": "function"
    },
    {
      "inputs": [],
      "name": "withdrawVotes",
      "outputs": [],
      "stateMutability": "nonpayable",
      "type": "function"
    },
    {
      "inputs": [
        {
          "internalType": "address",
          "name": "addr",
          "type": "address"
        },
        {
          "internalType": "bytes",
          "name": "data",
          "type": "bytes"
        }
      ],
      "name": "callEVM",
      "outputs": [],
      "stateMutability": "nonpayable",
      "type": "function"
    }
  ],
  "bytecode": "0x60806040523480156200001157600080fd5b5062000032620000266200004860201b60201c565b6200005060201b60201c565b620000426200011460201b60201c565b6200016b565b600033905090565b60008060009054906101000a900473ffffffffffffffffffffffffffffffffffffffff169050816000806101000a81548173ffffffffffffffffffffffffffffffffffffffff021916908373ffffffffffffffffffffffffffffffffffffffff1602179055508173ffffffffffffffffffffffffffffffffffffffff168173ffffffffffffffffffffffffffffffffffffffff167f8be0079c531659141344cd1fd0a4f28419497f9722a3daafe3b4186f6b6457e060405160405180910390a35050565b730888000000000000000000000000000000000006600160006101000a81548173ffffffffffffffffffffffffffffffffffffffff021916908373ffffffffffffffffffffffffffffffffffffffff160217905550565b612c08806200017b6000396000f3fe60806040526004361061012e5760003560e01c8063715018a6116100ab5780638da5cb5b1161006f5780638da5cb5b14610340578063da02d1001461036b578063dd22b25414610382578063ddbbce3b14610399578063e9e15b4f146103b0578063f2fde38b146103d957610135565b8063715018a614610291578063746a198d146102a85780638129fc1c146102d35780638a8f6139146102ea5780638aa198f11461031557610135565b806340d5637f116100f257806340d5637f146101e457806347608ec7146101fb578063505f53d414610226578063697c7ff4146102515780636a5bd69d1461026857610135565b806307c19112146101375780631755ff211461014e57806335981fd8146101795780633b282f3a146101905780633f6a1f00146101bb57610135565b3661013557005b005b34801561014357600080fd5b5061014c610402565b005b34801561015a57600080fd5b506101636107d7565b60405161017091906126b5565b60405180910390f35b34801561018557600080fd5b5061018e6107fd565b005b34801561019c57600080fd5b506101a5610a61565b6040516101b291906126d0565b60405180910390f35b3480156101c757600080fd5b506101e260048036038101906101dd91906123f7565b610a8e565b005b3480156101f057600080fd5b506101f9610b4e565b005b34801561020757600080fd5b50610210610e8a565b60405161021d91906126b5565b60405180910390f35b34801561023257600080fd5b5061023b610eb0565b60405161024891906127a8565b60405180910390f35b34801561025d57600080fd5b5061026661100c565b005b34801561027457600080fd5b5061028f600480360381019061028a9190612420565b611208565b005b34801561029d57600080fd5b506102a6611343565b005b3480156102b457600080fd5b506102bd6113cb565b6040516102ca919061278d565b60405180910390f35b3480156102df57600080fd5b506102e861148f565b005b3480156102f657600080fd5b506102ff6114e6565b60405161030c91906127a8565b60405180910390f35b34801561032157600080fd5b5061032a6115a3565b60405161033791906127a8565b60405180910390f35b34801561034c57600080fd5b506103556116ff565b60405161036291906126b5565b60405180910390f35b34801561037757600080fd5b50610380611728565b005b34801561038e57600080fd5b50610397611bfd565b005b3480156103a557600080fd5b506103ae611ee5565b005b3480156103bc57600080fd5b506103d760048036038101906103d291906123f7565b611f73565b005b3480156103e557600080fd5b5061040060048036038101906103fb91906123f7565b612033565b005b61040a61212b565b73ffffffffffffffffffffffffffffffffffffffff166104286116ff565b73ffffffffffffffffffffffffffffffffffffffff161461047e576040517f08c379a00000000000000000000000000000000000000000000000000000000081526004016104759061276d565b60405180910390fd5b60006104886115a3565b90506000600160009054906101000a900473ffffffffffffffffffffffffffffffffffffffff1673ffffffffffffffffffffffffffffffffffffffff1663142b37c7306040518263ffffffff1660e01b81526004016104e791906126b5565b60206040518083038186803b1580156104ff57600080fd5b505afa158015610513573d6000803e3d6000fd5b505050506040513d601f19601f8201168201806040525081019061053791906124e2565b90506000683635c9adc5dea00000836105509190612861565b90506000831180156105625750808210155b156107d257600160009054906101000a900473ffffffffffffffffffffffffffffffffffffffff1673ffffffffffffffffffffffffffffffffffffffff1663c23ef031826040518263ffffffff1660e01b81526004016105c291906127a8565b600060405180830381600087803b1580156105dc57600080fd5b505af11580156105f0573d6000803e3d6000fd5b50505050600160009054906101000a900473ffffffffffffffffffffffffffffffffffffffff1673ffffffffffffffffffffffffffffffffffffffff1663bea05ee361063a610a61565b8560405160240161064b91906127a8565b6040516020818303038152906040527f1bc1e78a000000000000000000000000000000000000000000000000000000007bffffffffffffffffffffffffffffffffffffffffffffffffffffffff19166020820180517bffffffffffffffffffffffffffffffffffffffffffffffffffffffff83818316178352505050506040518363ffffffff1660e01b81526004016106e592919061271d565b600060405180830381600087803b1580156106ff57600080fd5b505af1158015610713573d6000803e3d6000fd5b505050506040513d6000823e3d601f19601f8201168201806040525081019061073c9190612478565b506000600260009054906101000a900473ffffffffffffffffffffffffffffffffffffffff1690508073ffffffffffffffffffffffffffffffffffffffff166309fecf7f83866040518363ffffffff1660e01b815260040161079e91906127c3565b6000604051808303818588803b1580156107b757600080fd5b505af11580156107cb573d6000803e3d6000fd5b5050505050505b505050565b600260009054906101000a900473ffffffffffffffffffffffffffffffffffffffff1681565b61080561212b565b73ffffffffffffffffffffffffffffffffffffffff166108236116ff565b73ffffffffffffffffffffffffffffffffffffffff1614610879576040517f08c379a00000000000000000000000000000000000000000000000000000000081526004016108709061276d565b60405180910390fd5b6000600260009054906101000a900473ffffffffffffffffffffffffffffffffffffffff16905060008173ffffffffffffffffffffffffffffffffffffffff1663d68076c3306040518263ffffffff1660e01b81526004016108db91906126b5565b60206040518083038186803b1580156108f357600080fd5b505afa158015610907573d6000803e3d6000fd5b505050506040513d601f19601f8201168201806040525081019061092b91906124e2565b90506000811115610a5d578173ffffffffffffffffffffffffffffffffffffffff16632eb375ea826040518263ffffffff1660e01b815260040161096f91906127a8565b600060405180830381600087803b15801561098957600080fd5b505af115801561099d573d6000803e3d6000fd5b50505050600160009054906101000a900473ffffffffffffffffffffffffffffffffffffffff1673ffffffffffffffffffffffffffffffffffffffff1663da8d5daf826109e8610a61565b6040518363ffffffff1660e01b8152600401610a0491906126d0565b6000604051808303818588803b158015610a1d57600080fd5b505af1158015610a31573d6000803e3d6000fd5b50505050506040513d6000823e3d601f19601f82011682018060405250810190610a5b9190612478565b505b5050565b6000600360009054906101000a900473ffffffffffffffffffffffffffffffffffffffff1660601b905090565b610a9661212b565b73ffffffffffffffffffffffffffffffffffffffff16610ab46116ff565b73ffffffffffffffffffffffffffffffffffffffff1614610b0a576040517f08c379a0000000000000000000000000000000000000000000000000000000008152600401610b019061276d565b60405180910390fd5b80600360006101000a81548173ffffffffffffffffffffffffffffffffffffffff021916908373ffffffffffffffffffffffffffffffffffffffff16021790555050565b610b5661212b565b73ffffffffffffffffffffffffffffffffffffffff16610b746116ff565b73ffffffffffffffffffffffffffffffffffffffff1614610bca576040517f08c379a0000000000000000000000000000000000000000000000000000000008152600401610bc19061276d565b60405180910390fd5b6000600260009054906101000a900473ffffffffffffffffffffffffffffffffffffffff16905060008173ffffffffffffffffffffffffffffffffffffffff1663e3d5b233306040518263ffffffff1660e01b8152600401610c2c91906126b5565b60c06040518083038186803b158015610c4457600080fd5b505afa158015610c58573d6000803e3d6000fd5b505050506040513d601f19601f82011682018060405250810190610c7c91906124b9565b90506000816060015167ffffffffffffffff161115610e86578173ffffffffffffffffffffffffffffffffffffffff16632ce7777f82606001516040518263ffffffff1660e01b8152600401610cd291906127c3565b600060405180830381600087803b158015610cec57600080fd5b505af1158015610d00573d6000803e3d6000fd5b505050506000683635c9adc5dea00000826060015167ffffffffffffffff16610d2991906128bb565b68ffffffffffffffffff169050600160009054906101000a900473ffffffffffffffffffffffffffffffffffffffff1673ffffffffffffffffffffffffffffffffffffffff1663bea05ee382610d7d610a61565b8560600151604051602401610d9291906127c3565b6040516020818303038152906040527f17f78871000000000000000000000000000000000000000000000000000000007bffffffffffffffffffffffffffffffffffffffffffffffffffffffff19166020820180517bffffffffffffffffffffffffffffffffffffffffffffffffffffffff83818316178352505050506040518463ffffffff1660e01b8152600401610e2c92919061271d565b6000604051808303818588803b158015610e4557600080fd5b505af1158015610e59573d6000803e3d6000fd5b50505050506040513d6000823e3d601f19601f82011682018060405250810190610e839190612478565b50505b5050565b600360009054906101000a900473ffffffffffffffffffffffffffffffffffffffff1681565b600080600160009054906101000a900473ffffffffffffffffffffffffffffffffffffffff1673ffffffffffffffffffffffffffffffffffffffff1663bea05ee3610ef9610a61565b6040516024016040516020818303038152906040527fc7ff5d6e000000000000000000000000000000000000000000000000000000007bffffffffffffffffffffffffffffffffffffffffffffffffffffffff19166020820180517bffffffffffffffffffffffffffffffffffffffffffffffffffffffff83818316178352505050506040518363ffffffff1660e01b8152600401610f9992919061271d565b600060405180830381600087803b158015610fb357600080fd5b505af1158015610fc7573d6000803e3d6000fd5b505050506040513d6000823e3d601f19601f82011682018060405250810190610ff09190612478565b90508080602001905181019061100691906124e2565b91505090565b6000600260009054906101000a900473ffffffffffffffffffffffffffffffffffffffff16905060008173ffffffffffffffffffffffffffffffffffffffff166382df7a3b6040518163ffffffff1660e01b815260040160206040518083038186803b15801561107b57600080fd5b505afa15801561108f573d6000803e3d6000fd5b505050506040513d601f19601f820116820180604052508101906110b3919061250b565b63ffffffff169050600160009054906101000a900473ffffffffffffffffffffffffffffffffffffffff1673ffffffffffffffffffffffffffffffffffffffff1663bea05ee3611101610a61565b8360405160240161111291906127a8565b6040516020818303038152906040527f01cfc7f8000000000000000000000000000000000000000000000000000000007bffffffffffffffffffffffffffffffffffffffffffffffffffffffff19166020820180517bffffffffffffffffffffffffffffffffffffffffffffffffffffffff83818316178352505050506040518363ffffffff1660e01b81526004016111ac92919061271d565b600060405180830381600087803b1580156111c657600080fd5b505af11580156111da573d6000803e3d6000fd5b505050506040513d6000823e3d601f19601f820116820180604052508101906112039190612478565b505050565b61121061212b565b73ffffffffffffffffffffffffffffffffffffffff1661122e6116ff565b73ffffffffffffffffffffffffffffffffffffffff1614611284576040517f08c379a000000000000000000000000000000000000000000000000000000000815260040161127b9061276d565b60405180910390fd5b600160009054906101000a900473ffffffffffffffffffffffffffffffffffffffff1673ffffffffffffffffffffffffffffffffffffffff1663bea05ee38460601b84846040518463ffffffff1660e01b81526004016112e6939291906126eb565b600060405180830381600087803b15801561130057600080fd5b505af1158015611314573d6000803e3d6000fd5b505050506040513d6000823e3d601f19601f8201168201806040525081019061133d9190612478565b50505050565b61134b61212b565b73ffffffffffffffffffffffffffffffffffffffff166113696116ff565b73ffffffffffffffffffffffffffffffffffffffff16146113bf576040517f08c379a00000000000000000000000000000000000000000000000000000000081526004016113b69061276d565b60405180910390fd5b6113c96000612133565b565b6113d36121f7565b6000600260009054906101000a900473ffffffffffffffffffffffffffffffffffffffff16905060008173ffffffffffffffffffffffffffffffffffffffff1663e3d5b233306040518263ffffffff1660e01b815260040161143591906126b5565b60c06040518083038186803b15801561144d57600080fd5b505afa158015611461573d6000803e3d6000fd5b505050506040513d601f19601f8201168201806040525081019061148591906124b9565b9050809250505090565b730888000000000000000000000000000000000006600160006101000a81548173ffffffffffffffffffffffffffffffffffffffff021916908373ffffffffffffffffffffffffffffffffffffffff160217905550565b600080600260009054906101000a900473ffffffffffffffffffffffffffffffffffffffff16905060008173ffffffffffffffffffffffffffffffffffffffff1663d68076c3306040518263ffffffff1660e01b815260040161154991906126b5565b60206040518083038186803b15801561156157600080fd5b505afa158015611575573d6000803e3d6000fd5b505050506040513d601f19601f8201168201806040525081019061159991906124e2565b9050809250505090565b600080600160009054906101000a900473ffffffffffffffffffffffffffffffffffffffff1673ffffffffffffffffffffffffffffffffffffffff1663bea05ee36115ec610a61565b6040516024016040516020818303038152906040527f15cc421d000000000000000000000000000000000000000000000000000000007bffffffffffffffffffffffffffffffffffffffffffffffffffffffff19166020820180517bffffffffffffffffffffffffffffffffffffffffffffffffffffffff83818316178352505050506040518363ffffffff1660e01b815260040161168c92919061271d565b600060405180830381600087803b1580156116a657600080fd5b505af11580156116ba573d6000803e3d6000fd5b505050506040513d6000823e3d601f19601f820116820180604052508101906116e39190612478565b9050808060200190518101906116f991906124e2565b91505090565b60008060009054906101000a900473ffffffffffffffffffffffffffffffffffffffff16905090565b61173061212b565b73ffffffffffffffffffffffffffffffffffffffff1661174e6116ff565b73ffffffffffffffffffffffffffffffffffffffff16146117a4576040517f08c379a000000000000000000000000000000000000000000000000000000000815260040161179b9061276d565b60405180910390fd5b60006117ae610eb0565b905060008114156117bf5750611bfb565b60328111156117cd57603290505b6000600260009054906101000a900473ffffffffffffffffffffffffffffffffffffffff16905060008173ffffffffffffffffffffffffffffffffffffffff1663e3d5b233306040518263ffffffff1660e01b815260040161182f91906126b5565b60c06040518083038186803b15801561184757600080fd5b505afa15801561185b573d6000803e3d6000fd5b505050506040513d601f19601f8201168201806040525081019061187f91906124b9565b90506000816040015167ffffffffffffffff16905060008114156118a65750505050611bfb565b60005b84811015611bf5576000600160009054906101000a900473ffffffffffffffffffffffffffffffffffffffff1673ffffffffffffffffffffffffffffffffffffffff1663bea05ee36118f9610a61565b6040516024016040516020818303038152906040527f09fcd230000000000000000000000000000000000000000000000000000000007bffffffffffffffffffffffffffffffffffffffffffffffffffffffff19166020820180517bffffffffffffffffffffffffffffffffffffffffffffffffffffffff83818316178352505050506040518363ffffffff1660e01b815260040161199992919061271d565b600060405180830381600087803b1580156119b357600080fd5b505af11580156119c7573d6000803e3d6000fd5b505050506040513d6000823e3d601f19601f820116820180604052508101906119f09190612478565b9050600081806020019051810190611a0891906124e2565b90506000811415611a1a575050611bf5565b83811115611a29575050611bf5565b8573ffffffffffffffffffffffffffffffffffffffff1663beb99c1e826040518263ffffffff1660e01b8152600401611a6291906127c3565b600060405180830381600087803b158015611a7c57600080fd5b505af1158015611a90573d6000803e3d6000fd5b50505050600160009054906101000a900473ffffffffffffffffffffffffffffffffffffffff1673ffffffffffffffffffffffffffffffffffffffff1663bea05ee3611ada610a61565b6040516024016040516020818303038152906040527f84981986000000000000000000000000000000000000000000000000000000007bffffffffffffffffffffffffffffffffffffffffffffffffffffffff19166020820180517bffffffffffffffffffffffffffffffffffffffffffffffffffffffff83818316178352505050506040518363ffffffff1660e01b8152600401611b7a92919061271d565b600060405180830381600087803b158015611b9457600080fd5b505af1158015611ba8573d6000803e3d6000fd5b505050506040513d6000823e3d601f19601f82011682018060405250810190611bd19190612478565b508084611bde91906128fe565b935050508080611bed90612a46565b9150506118a9565b50505050505b565b611c0561212b565b73ffffffffffffffffffffffffffffffffffffffff16611c236116ff565b73ffffffffffffffffffffffffffffffffffffffff1614611c79576040517f08c379a0000000000000000000000000000000000000000000000000000000008152600401611c709061276d565b60405180910390fd5b6000600260009054906101000a900473ffffffffffffffffffffffffffffffffffffffff16905060008173ffffffffffffffffffffffffffffffffffffffff1663d68076c3306040518263ffffffff1660e01b8152600401611cdb91906126b5565b60206040518083038186803b158015611cf357600080fd5b505afa158015611d07573d6000803e3d6000fd5b505050506040513d601f19601f82011682018060405250810190611d2b91906124e2565b90506000811115611ee1578173ffffffffffffffffffffffffffffffffffffffff16632eb375ea826040518263ffffffff1660e01b8152600401611d6f91906127a8565b600060405180830381600087803b158015611d8957600080fd5b505af1158015611d9d573d6000803e3d6000fd5b50505050600160009054906101000a900473ffffffffffffffffffffffffffffffffffffffff1673ffffffffffffffffffffffffffffffffffffffff1663bea05ee382611de8610a61565b6040516024016040516020818303038152906040527f4337e4bf000000000000000000000000000000000000000000000000000000007bffffffffffffffffffffffffffffffffffffffffffffffffffffffff19166020820180517bffffffffffffffffffffffffffffffffffffffffffffffffffffffff83818316178352505050506040518463ffffffff1660e01b8152600401611e8892919061271d565b6000604051808303818588803b158015611ea157600080fd5b505af1158015611eb5573d6000803e3d6000fd5b50505050506040513d6000823e3d601f19601f82011682018060405250810190611edf9190612478565b505b5050565b611eed61212b565b73ffffffffffffffffffffffffffffffffffffffff16611f0b6116ff565b73ffffffffffffffffffffffffffffffffffffffff1614611f61576040517f08c379a0000000000000000000000000000000000000000000000000000000008152600401611f589061276d565b60405180910390fd5b611f6961100c565b611f716107fd565b565b611f7b61212b565b73ffffffffffffffffffffffffffffffffffffffff16611f996116ff565b73ffffffffffffffffffffffffffffffffffffffff1614611fef576040517f08c379a0000000000000000000000000000000000000000000000000000000008152600401611fe69061276d565b60405180910390fd5b80600260006101000a81548173ffffffffffffffffffffffffffffffffffffffff021916908373ffffffffffffffffffffffffffffffffffffffff16021790555050565b61203b61212b565b73ffffffffffffffffffffffffffffffffffffffff166120596116ff565b73ffffffffffffffffffffffffffffffffffffffff16146120af576040517f08c379a00000000000000000000000000000000000000000000000000000000081526004016120a69061276d565b60405180910390fd5b600073ffffffffffffffffffffffffffffffffffffffff168173ffffffffffffffffffffffffffffffffffffffff16141561211f576040517f08c379a00000000000000000000000000000000000000000000000000000000081526004016121169061274d565b60405180910390fd5b61212881612133565b50565b600033905090565b60008060009054906101000a900473ffffffffffffffffffffffffffffffffffffffff169050816000806101000a81548173ffffffffffffffffffffffffffffffffffffffff021916908373ffffffffffffffffffffffffffffffffffffffff1602179055508173ffffffffffffffffffffffffffffffffffffffff168173ffffffffffffffffffffffffffffffffffffffff167f8be0079c531659141344cd1fd0a4f28419497f9722a3daafe3b4186f6b6457e060405160405180910390a35050565b6040518060c00160405280600067ffffffffffffffff168152602001600067ffffffffffffffff168152602001600067ffffffffffffffff168152602001600067ffffffffffffffff16815260200160008152602001600081525090565b600061226861226384612803565b6127de565b90508281526020810184848401111561228057600080fd5b61228b8482856129e2565b509392505050565b6000813590506122a281612b76565b92915050565b60008083601f8401126122ba57600080fd5b8235905067ffffffffffffffff8111156122d357600080fd5b6020830191508360018202830111156122eb57600080fd5b9250929050565b600082601f83011261230357600080fd5b8151612313848260208601612255565b91505092915050565b600060c0828403121561232e57600080fd5b61233860c06127de565b90506000612348848285016123e2565b600083015250602061235c848285016123e2565b6020830152506040612370848285016123e2565b6040830152506060612384848285016123e2565b6060830152506080612398848285016123b8565b60808301525060a06123ac848285016123b8565b60a08301525092915050565b6000815190506123c781612b8d565b92915050565b6000815190506123dc81612ba4565b92915050565b6000815190506123f181612bbb565b92915050565b60006020828403121561240957600080fd5b600061241784828501612293565b91505092915050565b60008060006040848603121561243557600080fd5b600061244386828701612293565b935050602084013567ffffffffffffffff81111561246057600080fd5b61246c868287016122a8565b92509250509250925092565b60006020828403121561248a57600080fd5b600082015167ffffffffffffffff8111156124a457600080fd5b6124b0848285016122f2565b91505092915050565b600060c082840312156124cb57600080fd5b60006124d98482850161231c565b91505092915050565b6000602082840312156124f457600080fd5b6000612502848285016123b8565b91505092915050565b60006020828403121561251d57600080fd5b600061252b848285016123cd565b91505092915050565b61253d81612932565b82525050565b61254c81612944565b82525050565b600061255e838561283f565b935061256b8385846129d3565b61257483612aed565b840190509392505050565b600061258a82612834565b612594818561283f565b93506125a48185602086016129e2565b6125ad81612aed565b840191505092915050565b60006125c5602683612850565b91506125d082612afe565b604082019050919050565b60006125e8602083612850565b91506125f382612b4d565b602082019050919050565b60c0820160008201516126146000850182612697565b5060208201516126276020850182612697565b50604082015161263a6040850182612697565b50606082015161264d6060850182612697565b5060808201516126606080850182612679565b5060a082015161267360a0850182612679565b50505050565b61268281612990565b82525050565b61269181612990565b82525050565b6126a0816129aa565b82525050565b6126af816129aa565b82525050565b60006020820190506126ca6000830184612534565b92915050565b60006020820190506126e56000830184612543565b92915050565b60006040820190506127006000830186612543565b8181036020830152612713818486612552565b9050949350505050565b60006040820190506127326000830185612543565b8181036020830152612744818461257f565b90509392505050565b60006020820190508181036000830152612766816125b8565b9050919050565b60006020820190508181036000830152612786816125db565b9050919050565b600060c0820190506127a260008301846125fe565b92915050565b60006020820190506127bd6000830184612688565b92915050565b60006020820190506127d860008301846126a6565b92915050565b60006127e86127f9565b90506127f48282612a15565b919050565b6000604051905090565b600067ffffffffffffffff82111561281e5761281d612abe565b5b61282782612aed565b9050602081019050919050565b600081519050919050565b600082825260208201905092915050565b600082825260208201905092915050565b600061286c82612990565b915061287783612990565b9250817fffffffffffffffffffffffffffffffffffffffffffffffffffffffffffffffff04831182151516156128b0576128af612a8f565b5b828202905092915050565b60006128c6826129be565b91506128d1836129be565b92508168ffffffffffffffffff04831182151516156128f3576128f2612a8f565b5b828202905092915050565b600061290982612990565b915061291483612990565b92508282101561292757612926612a8f565b5b828203905092915050565b600061293d82612970565b9050919050565b60007fffffffffffffffffffffffffffffffffffffffff00000000000000000000000082169050919050565b600073ffffffffffffffffffffffffffffffffffffffff82169050919050565b6000819050919050565b600063ffffffff82169050919050565b600067ffffffffffffffff82169050919050565b600068ffffffffffffffffff82169050919050565b82818337600083830152505050565b60005b83811015612a005780820151818401526020810190506129e5565b83811115612a0f576000848401525b50505050565b612a1e82612aed565b810181811067ffffffffffffffff82111715612a3d57612a3c612abe565b5b80604052505050565b6000612a5182612990565b91507fffffffffffffffffffffffffffffffffffffffffffffffffffffffffffffffff821415612a8457612a83612a8f565b5b600182019050919050565b7f4e487b7100000000000000000000000000000000000000000000000000000000600052601160045260246000fd5b7f4e487b7100000000000000000000000000000000000000000000000000000000600052604160045260246000fd5b6000601f19601f8301169050919050565b7f4f776e61626c653a206e6577206f776e657220697320746865207a65726f206160008201527f6464726573730000000000000000000000000000000000000000000000000000602082015250565b7f4f776e61626c653a2063616c6c6572206973206e6f7420746865206f776e6572600082015250565b612b7f81612932565b8114612b8a57600080fd5b50565b612b9681612990565b8114612ba157600080fd5b50565b612bad8161299a565b8114612bb857600080fd5b50565b612bc4816129aa565b8114612bcf57600080fd5b5056fea2646970667358221220cca278510c31ba7517e8a51acd9653ca04a3b06c1c507639ce1acc3790daef4e64736f6c63430008020033",
  "immutableReferences": {},
  "source": "//SPDX-License-Identifier: Unlicense\npragma solidity ^0.8.0;\n\nimport \"@openzeppelin/contracts/access/Ownable.sol\";\nimport \"../ICrossSpaceCall.sol\";\nimport \"../IPoSPool.sol\";\n\ncontract CoreBridge is Ownable {\n  CrossSpaceCall internal crossSpaceCall;\n\n  address public poolAddress;\n  address public eSpacePoolAddress;\n\n  constructor () {\n    initialize();\n  }\n\n  function initialize() public {\n    crossSpaceCall = CrossSpaceCall(0x0888000000000000000000000000000000000006);\n  }\n\n  function setPoolAddress(address _poolAddress) public onlyOwner {\n    poolAddress = _poolAddress;\n  }\n\n  function setESpacePoolAddress(address _eSpacePoolAddress) public onlyOwner {\n    eSpacePoolAddress = _eSpacePoolAddress;\n  }\n\n  function ePoolAddrB20() public view returns (bytes20) {\n    return bytes20(eSpacePoolAddress);\n  }\n\n  function queryCrossingVotes() public returns (uint256) {\n    bytes memory rawCrossingVotes = crossSpaceCall.callEVM(ePoolAddrB20(), abi.encodeWithSignature(\"crossingVotes()\"));\n    return abi.decode(rawCrossingVotes, (uint256));\n  }\n\n  function queryUnstakeLen() public returns (uint256) {\n    bytes memory rawUnstakeLen = crossSpaceCall.callEVM(ePoolAddrB20(), abi.encodeWithSignature(\"unstakeLen()\"));\n    return abi.decode(rawUnstakeLen, (uint256));\n  }\n\n  function queryInterest() public view returns (uint256) {\n    IPoSPool posPool = IPoSPool(poolAddress);\n    uint256 interest = posPool.userInterest(address(this));\n    return interest;\n  }\n\n  function queryUserSummary() public view returns (IPoSPool.UserSummary memory) {\n    IPoSPool posPool = IPoSPool(poolAddress);\n    IPoSPool.UserSummary memory userSummary = posPool.userSummary(address(this));\n    return userSummary;\n  }\n\n  function syncAPYandClaimInterest() public onlyOwner {\n    syncAPY();\n    claimInterest();\n  }\n\n  function syncAPY() public {\n    IPoSPool posPool = IPoSPool(poolAddress);\n    uint256 apy = posPool.poolAPY();\n    crossSpaceCall.callEVM(ePoolAddrB20(), abi.encodeWithSignature(\"setPoolAPY(uint256)\", apy));\n  }\n\n  function crossStake() public onlyOwner {\n    uint256 crossingVotes = queryCrossingVotes();\n    uint256 mappedBalance = crossSpaceCall.mappedBalance(address(this));\n    uint256 amount = crossingVotes * 1000 ether;\n    if (crossingVotes > 0 && mappedBalance >= amount) {\n      crossSpaceCall.withdrawFromMapped(amount);\n      crossSpaceCall.callEVM(ePoolAddrB20(), abi.encodeWithSignature(\"handleCrossingVotes(uint256)\", crossingVotes));\n      IPoSPool posPool = IPoSPool(poolAddress);\n      posPool.increaseStake{value: amount}(uint64(crossingVotes));\n    }\n  }\n\n  function claimInterest() public onlyOwner {\n    IPoSPool posPool = IPoSPool(poolAddress);\n    uint256 interest = posPool.userInterest(address(this));\n    if (interest > 0) {\n      posPool.claimInterest(interest);\n      crossSpaceCall.transferEVM{value: interest}(ePoolAddrB20());\n    }\n  }\n\n  function claimAndCrossInterest() public onlyOwner {\n    IPoSPool posPool = IPoSPool(poolAddress);\n    uint256 interest = posPool.userInterest(address(this));\n    if (interest > 0) {\n      posPool.claimInterest(interest);\n      crossSpaceCall.callEVM{value: interest}(ePoolAddrB20(), abi.encodeWithSignature(\"receiveInterest()\"));\n    }\n  }\n\n  function handleUnstake() public onlyOwner {\n    uint256 unstakeLen = queryUnstakeLen();\n    if (unstakeLen == 0) return;\n    if (unstakeLen > 50) unstakeLen = 50; // max 50 unstakes per call\n    IPoSPool posPool = IPoSPool(poolAddress);\n    IPoSPool.UserSummary memory userSummary = posPool.userSummary(address(this));\n    uint256 available = userSummary.locked;\n    if (available == 0) return;\n    for(uint256 i = 0; i < unstakeLen; i++) {\n      bytes memory rawFirstUnstakeVotes = crossSpaceCall.callEVM(ePoolAddrB20(), abi.encodeWithSignature(\"firstUnstakeVotes()\"));\n      uint256 firstUnstakeVotes = abi.decode(rawFirstUnstakeVotes, (uint256));\n      if (firstUnstakeVotes == 0) break;\n      if (firstUnstakeVotes > available) break;\n      posPool.decreaseStake(uint64(firstUnstakeVotes));\n      crossSpaceCall.callEVM(ePoolAddrB20(), abi.encodeWithSignature(\"handleUnstakeTask()\"));\n      available -= firstUnstakeVotes;\n    }\n  }\n\n  function withdrawVotes() public onlyOwner {\n    IPoSPool posPool = IPoSPool(poolAddress);\n    IPoSPool.UserSummary memory userSummary = posPool.userSummary(address(this));\n    if (userSummary.unlocked > 0) {\n      posPool.withdrawStake(userSummary.unlocked);\n      // transfer to eSpacePool and call method\n      uint256 transferValue = userSummary.unlocked * 1000 ether;\n      crossSpaceCall.callEVM{value: transferValue}(ePoolAddrB20(), abi.encodeWithSignature(\"handleUnlockedIncrease(uint256)\", userSummary.unlocked));\n    }\n  }\n\n  function callEVM(address addr, bytes calldata data) public onlyOwner {\n    crossSpaceCall.callEVM(bytes20(addr), data);\n  }\n\n  fallback() external payable {}\n  receive() external payable {}\n}",
  "sourcePath": "C:\\Users\\artii\\Black IDE\\espace\\contracts\\eSpace\\CoreBridge.sol",
  "compiler": {
    "name": "solc",
    "version": "0.8.2+commit.661d1103.Emscripten.clang"
  },
  "schemaVersion": "3.4.3",
  "updatedAt": "2022-07-31T08:13:54.499Z",
  "devdoc": {
    "kind": "dev",
    "methods": {
      "owner()": {
        "details": "Returns the address of the current owner."
      },
      "renounceOwnership()": {
        "details": "Leaves the contract without owner. It will not be possible to call `onlyOwner` functions anymore. Can only be called by the current owner. NOTE: Renouncing ownership will leave the contract without an owner, thereby removing any functionality that is only available to the owner."
      },
      "transferOwnership(address)": {
        "details": "Transfers ownership of the contract to a new account (`newOwner`). Can only be called by the current owner."
      }
    },
    "version": 1
  },
  "userdoc": {
    "kind": "user",
    "methods": {},
    "version": 1
  }
}