{
  "contractName": "CoreBridge_multipool",
  "abi": [
    {
      "inputs": [],
      "stateMutability": "nonpayable",
      "type": "constructor"
    },
    {
      "anonymous": false,
      "inputs": [
        {
          "indexed": true,
          "internalType": "address",
          "name": "previousOwner",
          "type": "address"
        },
        {
          "indexed": true,
          "internalType": "address",
          "name": "newOwner",
          "type": "address"
        }
      ],
      "name": "OwnershipTransferred",
      "type": "event"
    },
    {
      "stateMutability": "payable",
      "type": "fallback"
    },
    {
      "inputs": [],
      "name": "CoreExroomAddress",
      "outputs": [
        {
          "internalType": "address",
          "name": "",
          "type": "address"
        }
      ],
      "stateMutability": "view",
      "type": "function"
    },
    {
      "inputs": [],
      "name": "ServicetreasuryAddress",
      "outputs": [
        {
          "internalType": "address",
          "name": "",
          "type": "address"
        }
      ],
      "stateMutability": "view",
      "type": "function"
    },
    {
      "inputs": [],
      "name": "eSpaceExroomAddress",
      "outputs": [
        {
          "internalType": "address",
          "name": "",
          "type": "address"
        }
      ],
      "stateMutability": "view",
      "type": "function"
    },
    {
      "inputs": [],
      "name": "owner",
      "outputs": [
        {
          "internalType": "address",
          "name": "",
          "type": "address"
        }
      ],
      "stateMutability": "view",
      "type": "function"
    },
    {
      "inputs": [
        {
          "internalType": "uint256",
          "name": "",
          "type": "uint256"
        }
      ],
      "name": "poolAddress",
      "outputs": [
        {
          "internalType": "address",
          "name": "",
          "type": "address"
        }
      ],
      "stateMutability": "view",
      "type": "function"
    },
    {
      "inputs": [],
      "name": "poolUserShareRatio",
      "outputs": [
        {
          "internalType": "uint256",
          "name": "",
          "type": "uint256"
        }
      ],
      "stateMutability": "view",
      "type": "function"
    },
    {
      "inputs": [],
      "name": "pos_id_in_use",
      "outputs": [
        {
          "internalType": "uint256",
          "name": "",
          "type": "uint256"
        }
      ],
      "stateMutability": "view",
      "type": "function"
    },
    {
      "inputs": [],
      "name": "renounceOwnership",
      "outputs": [],
      "stateMutability": "nonpayable",
      "type": "function"
    },
    {
      "inputs": [
        {
          "internalType": "address",
          "name": "newOwner",
          "type": "address"
        }
      ],
      "name": "transferOwnership",
      "outputs": [],
      "stateMutability": "nonpayable",
      "type": "function"
    },
    {
      "inputs": [],
      "name": "xCFXAddress",
      "outputs": [
        {
          "internalType": "address",
          "name": "",
          "type": "address"
        }
      ],
      "stateMutability": "view",
      "type": "function"
    },
    {
      "stateMutability": "payable",
      "type": "receive"
    },
    {
      "inputs": [],
      "name": "initialize",
      "outputs": [],
      "stateMutability": "nonpayable",
      "type": "function"
    },
    {
      "inputs": [
        {
          "internalType": "address",
          "name": "_poolAddress",
          "type": "address"
        }
      ],
      "name": "addPoolAddress",
      "outputs": [],
      "stateMutability": "nonpayable",
      "type": "function"
    },
    {
      "inputs": [
        {
          "internalType": "address",
          "name": "_oldpoolAddress",
          "type": "address"
        },
        {
          "internalType": "address",
          "name": "_newpoolAddress",
          "type": "address"
        }
      ],
      "name": "changePoolAddress",
      "outputs": [],
      "stateMutability": "nonpayable",
      "type": "function"
    },
    {
      "inputs": [
        {
          "internalType": "address",
          "name": "_oldpoolAddress",
          "type": "address"
        }
      ],
      "name": "delePoolAddress",
      "outputs": [],
      "stateMutability": "nonpayable",
      "type": "function"
    },
    {
      "inputs": [],
      "name": "getPoolAddress",
      "outputs": [
        {
          "internalType": "address[]",
          "name": "",
          "type": "address[]"
        }
      ],
      "stateMutability": "view",
      "type": "function"
    },
    {
      "inputs": [
        {
          "internalType": "address",
          "name": "_eSpaceExroomAddress",
          "type": "address"
        }
      ],
      "name": "seteSpaceExroomAddress",
      "outputs": [],
      "stateMutability": "nonpayable",
      "type": "function"
    },
    {
      "inputs": [],
      "name": "ePoolAddrB20",
      "outputs": [
        {
          "internalType": "bytes20",
          "name": "",
          "type": "bytes20"
        }
      ],
      "stateMutability": "view",
      "type": "function"
    },
    {
      "inputs": [],
      "name": "queryespacexCFXincrease",
      "outputs": [
        {
          "internalType": "uint256",
          "name": "",
          "type": "uint256"
        }
      ],
      "stateMutability": "nonpayable",
      "type": "function"
    },
    {
      "inputs": [],
      "name": "queryUnstakeLen",
      "outputs": [
        {
          "internalType": "uint256",
          "name": "",
          "type": "uint256"
        }
      ],
      "stateMutability": "nonpayable",
      "type": "function"
    },
    {
      "inputs": [
        {
          "internalType": "uint256",
          "name": "_num",
          "type": "uint256"
        }
      ],
      "name": "queryInterest",
      "outputs": [
        {
          "internalType": "uint256",
          "name": "",
          "type": "uint256"
        }
      ],
      "stateMutability": "view",
      "type": "function"
    },
    {
      "inputs": [],
      "name": "syncALLwork",
      "outputs": [],
      "stateMutability": "nonpayable",
      "type": "function"
    },
    {
      "inputs": [],
      "name": "claimInterests",
      "outputs": [],
      "stateMutability": "nonpayable",
      "type": "function"
    },
    {
      "inputs": [],
      "name": "campounds",
      "outputs": [],
      "stateMutability": "nonpayable",
      "type": "function"
    },
    {
      "inputs": [],
      "name": "SyncValue",
      "outputs": [],
      "stateMutability": "nonpayable",
      "type": "function"
    },
    {
      "inputs": [],
      "name": "handleUnstake",
      "outputs": [],
      "stateMutability": "nonpayable",
      "type": "function"
    },
    {
      "inputs": [],
      "name": "withdrawVotes",
      "outputs": [],
      "stateMutability": "nonpayable",
      "type": "function"
    },
    {
      "inputs": [
        {
          "internalType": "address",
          "name": "addr",
          "type": "address"
        },
        {
          "internalType": "bytes",
          "name": "data",
          "type": "bytes"
        }
      ],
      "name": "callEVM",
      "outputs": [],
      "stateMutability": "nonpayable",
      "type": "function"
    }
  ],
  "bytecode": "0x60806040526123286002556103e8600355683635c9adc5dea000006004553480156200002a57600080fd5b506200004b6200003f6200006160201b60201c565b6200006960201b60201c565b6200005b6200012d60201b60201c565b62000184565b600033905090565b60008060009054906101000a900473ffffffffffffffffffffffffffffffffffffffff169050816000806101000a81548173ffffffffffffffffffffffffffffffffffffffff021916908373ffffffffffffffffffffffffffffffffffffffff1602179055508173ffffffffffffffffffffffffffffffffffffffff168173ffffffffffffffffffffffffffffffffffffffff167f8be0079c531659141344cd1fd0a4f28419497f9722a3daafe3b4186f6b6457e060405160405180910390a35050565b730888000000000000000000000000000000000006600160006101000a81548173ffffffffffffffffffffffffffffffffffffffff021916908373ffffffffffffffffffffffffffffffffffffffff160217905550565b61357180620001946000396000f3fe6080604052600436106101a05760003560e01c806375eea4e2116100ec5780639fa28e481161008a578063da02d10011610064578063da02d10014610502578063da9da52614610519578063f2fde38b14610556578063f586c6d91461057f576101a7565b80639fa28e4814610471578063a0e86fd0146104ae578063bb469110146104d7576101a7565b80638da5cb5b116100c65780638da5cb5b146103ed57806393e48e3814610418578063983bf1bd14610443578063986e08b61461045a576101a7565b806375eea4e214610394578063783b7c97146103ab5780638129fc1c146103d6576101a7565b8063434998441161015957806365473c521161013357806365473c521461031257806367a1aa4f146103295780636a5bd69d14610354578063715018a61461037d576101a7565b806343499844146102935780634e141b4e146102bc578063505f53d4146102e7576101a7565b8063120063b0146101a95780632306092e146101d2578063231da72f146101fb5780633b282f3a146102265780633e7321b51461025157806340d5637f1461027c576101a7565b366101a757005b005b3480156101b557600080fd5b506101d060048036038101906101cb9190612b68565b6105aa565b005b3480156101de57600080fd5b506101f960048036038101906101f49190612b68565b61066a565b005b34801561020757600080fd5b5061021061090c565b60405161021d9190612ebd565b60405180910390f35b34801561023257600080fd5b5061023b610932565b6040516102489190612efa565b60405180910390f35b34801561025d57600080fd5b5061026661095f565b6040516102739190612ebd565b60405180910390f35b34801561028857600080fd5b50610291610985565b005b34801561029f57600080fd5b506102ba60048036038101906102b59190612b68565b610d32565b005b3480156102c857600080fd5b506102d1610e14565b6040516102de9190612ebd565b60405180910390f35b3480156102f357600080fd5b506102fc610e3a565b6040516103099190612ff7565b60405180910390f35b34801561031e57600080fd5b50610327610f96565b005b34801561033557600080fd5b5061033e6113b9565b60405161034b9190612ff7565b60405180910390f35b34801561036057600080fd5b5061037b60048036038101906103769190612bcd565b6113bf565b005b34801561038957600080fd5b506103926114fa565b005b3480156103a057600080fd5b506103a9611582565b005b3480156103b757600080fd5b506103c06118e2565b6040516103cd9190612ff7565b60405180910390f35b3480156103e257600080fd5b506103eb6118e8565b005b3480156103f957600080fd5b5061040261193f565b60405161040f9190612ebd565b60405180910390f35b34801561042457600080fd5b5061042d611968565b60405161043a9190612ff7565b60405180910390f35b34801561044f57600080fd5b50610458611ac4565b005b34801561046657600080fd5b5061046f611da5565b005b34801561047d57600080fd5b5061049860048036038101906104939190612cb8565b611e4b565b6040516104a59190612ff7565b60405180910390f35b3480156104ba57600080fd5b506104d560048036038101906104d09190612b91565b611f41565b005b3480156104e357600080fd5b506104ec612107565b6040516104f99190612ebd565b60405180910390f35b34801561050e57600080fd5b5061051761212d565b005b34801561052557600080fd5b50610540600480360381019061053b9190612cb8565b612643565b60405161054d9190612ebd565b60405180910390f35b34801561056257600080fd5b5061057d60048036038101906105789190612b68565b612682565b005b34801561058b57600080fd5b5061059461277a565b6040516105a19190612ed8565b60405180910390f35b6105b2612808565b73ffffffffffffffffffffffffffffffffffffffff166105d061193f565b73ffffffffffffffffffffffffffffffffffffffff1614610626576040517f08c379a000000000000000000000000000000000000000000000000000000000815260040161061d90612fb7565b60405180910390fd5b80600860006101000a81548173ffffffffffffffffffffffffffffffffffffffff021916908373ffffffffffffffffffffffffffffffffffffffff16021790555050565b610672612808565b73ffffffffffffffffffffffffffffffffffffffff1661069061193f565b73ffffffffffffffffffffffffffffffffffffffff16146106e6576040517f08c379a00000000000000000000000000000000000000000000000000000000081526004016106dd90612fb7565b60405180910390fd5b6000600580549050905060005b81811015610907578273ffffffffffffffffffffffffffffffffffffffff166005828154811061074c577f4e487b7100000000000000000000000000000000000000000000000000000000600052603260045260246000fd5b9060005260206000200160009054906101000a900473ffffffffffffffffffffffffffffffffffffffff1673ffffffffffffffffffffffffffffffffffffffff1614156108f45760056001836107a2919061320d565b815481106107d9577f4e487b7100000000000000000000000000000000000000000000000000000000600052603260045260246000fd5b9060005260206000200160009054906101000a900473ffffffffffffffffffffffffffffffffffffffff166005828154811061083e577f4e487b7100000000000000000000000000000000000000000000000000000000600052603260045260246000fd5b9060005260206000200160006101000a81548173ffffffffffffffffffffffffffffffffffffffff021916908373ffffffffffffffffffffffffffffffffffffffff16021790555060058054806108be577f4e487b7100000000000000000000000000000000000000000000000000000000600052603160045260246000fd5b6001900381819060005260206000200160006101000a81549073ffffffffffffffffffffffffffffffffffffffff021916905590555b80806108ff90613345565b9150506106f3565b505050565b600760009054906101000a900473ffffffffffffffffffffffffffffffffffffffff1681565b6000600860009054906101000a900473ffffffffffffffffffffffffffffffffffffffff1660601b905090565b600860009054906101000a900473ffffffffffffffffffffffffffffffffffffffff1681565b61098d612808565b73ffffffffffffffffffffffffffffffffffffffff166109ab61193f565b73ffffffffffffffffffffffffffffffffffffffff1614610a01576040517f08c379a00000000000000000000000000000000000000000000000000000000081526004016109f890612fb7565b60405180910390fd5b60006005805490509050600080600080600090505b84811015610d2b5760058181548110610a58577f4e487b7100000000000000000000000000000000000000000000000000000000600052603260045260246000fd5b9060005260206000200160009054906101000a900473ffffffffffffffffffffffffffffffffffffffff16935060008473ffffffffffffffffffffffffffffffffffffffff1663e3d5b233306040518263ffffffff1660e01b8152600401610ac09190612ebd565b60c06040518083038186803b158015610ad857600080fd5b505afa158015610aec573d6000803e3d6000fd5b505050506040513d601f19601f82011682018060405250810190610b109190612c8f565b90506000816060015167ffffffffffffffff161115610d17578473ffffffffffffffffffffffffffffffffffffffff16632ce7777f82606001516040518263ffffffff1660e01b8152600401610b669190613012565b600060405180830381600087803b158015610b8057600080fd5b505af1158015610b94573d6000803e3d6000fd5b50505050683635c9adc5dea00000816060015167ffffffffffffffff16610bbb91906131ca565b68ffffffffffffffffff169250600160009054906101000a900473ffffffffffffffffffffffffffffffffffffffff1673ffffffffffffffffffffffffffffffffffffffff1663bea05ee384610c0f610932565b8460600151604051602401610c249190613012565b6040516020818303038152906040527f17f78871000000000000000000000000000000000000000000000000000000007bffffffffffffffffffffffffffffffffffffffffffffffffffffffff19166020820180517bffffffffffffffffffffffffffffffffffffffffffffffffffffffff83818316178352505050506040518463ffffffff1660e01b8152600401610cbe929190612f47565b6000604051808303818588803b158015610cd757600080fd5b505af1158015610ceb573d6000803e3d6000fd5b50505050506040513d6000823e3d601f19601f82011682018060405250810190610d159190612c25565b505b508080610d2390613345565b915050610a16565b5050505050565b610d3a612808565b73ffffffffffffffffffffffffffffffffffffffff16610d5861193f565b73ffffffffffffffffffffffffffffffffffffffff1614610dae576040517f08c379a0000000000000000000000000000000000000000000000000000000008152600401610da590612fb7565b60405180910390fd5b6005819080600181540180825580915050600190039060005260206000200160009091909190916101000a81548173ffffffffffffffffffffffffffffffffffffffff021916908373ffffffffffffffffffffffffffffffffffffffff16021790555050565b600960009054906101000a900473ffffffffffffffffffffffffffffffffffffffff1681565b600080600160009054906101000a900473ffffffffffffffffffffffffffffffffffffffff1673ffffffffffffffffffffffffffffffffffffffff1663bea05ee3610e83610932565b6040516024016040516020818303038152906040527fc7ff5d6e000000000000000000000000000000000000000000000000000000007bffffffffffffffffffffffffffffffffffffffffffffffffffffffff19166020820180517bffffffffffffffffffffffffffffffffffffffffffffffffffffffff83818316178352505050506040518363ffffffff1660e01b8152600401610f23929190612f47565b600060405180830381600087803b158015610f3d57600080fd5b505af1158015610f51573d6000803e3d6000fd5b505050506040513d6000823e3d601f19601f82011682018060405250810190610f7a9190612c25565b905080806020019051810190610f909190612ce1565b91505090565b6000600760009054906101000a900473ffffffffffffffffffffffffffffffffffffffff1673ffffffffffffffffffffffffffffffffffffffff166318160ddd6040518163ffffffff1660e01b815260040160206040518083038186803b15801561100057600080fd5b505afa158015611014573d6000803e3d6000fd5b505050506040513d601f19601f820116820180604052508101906110389190612ce1565b90506000600160009054906101000a900473ffffffffffffffffffffffffffffffffffffffff1673ffffffffffffffffffffffffffffffffffffffff1663142b37c7600860009054906101000a900473ffffffffffffffffffffffffffffffffffffffff166040518263ffffffff1660e01b81526004016110b99190612ebd565b60206040518083038186803b1580156110d157600080fd5b505afa1580156110e5573d6000803e3d6000fd5b505050506040513d601f19601f820116820180604052508101906111099190612ce1565b905060006005805490509050600080600090505b8281101561122b576005818154811061115f577f4e487b7100000000000000000000000000000000000000000000000000000000600052603260045260246000fd5b9060005260206000200160009054906101000a900473ffffffffffffffffffffffffffffffffffffffff1673ffffffffffffffffffffffffffffffffffffffff16637571fcf66040518163ffffffff1660e01b815260040160e06040518083038186803b1580156111cf57600080fd5b505afa1580156111e3573d6000803e3d6000fd5b505050506040513d601f19601f820116820180604052508101906112079190612c66565b600001518261121691906130e9565b9150808061122390613345565b91505061111d565b5060006112678561125961124a6004548661281090919063ffffffff16565b8761282690919063ffffffff16565b61283c90919063ffffffff16565b9050600160009054906101000a900473ffffffffffffffffffffffffffffffffffffffff1673ffffffffffffffffffffffffffffffffffffffff1663bea05ee36112af610932565b836040516024016112c09190612ff7565b6040516020818303038152906040527f21e2f533000000000000000000000000000000000000000000000000000000007bffffffffffffffffffffffffffffffffffffffffffffffffffffffff19166020820180517bffffffffffffffffffffffffffffffffffffffffffffffffffffffff83818316178352505050506040518363ffffffff1660e01b815260040161135a929190612f47565b600060405180830381600087803b15801561137457600080fd5b505af1158015611388573d6000803e3d6000fd5b505050506040513d6000823e3d601f19601f820116820180604052508101906113b19190612c25565b505050505050565b60025481565b6113c7612808565b73ffffffffffffffffffffffffffffffffffffffff166113e561193f565b73ffffffffffffffffffffffffffffffffffffffff161461143b576040517f08c379a000000000000000000000000000000000000000000000000000000000815260040161143290612fb7565b60405180910390fd5b600160009054906101000a900473ffffffffffffffffffffffffffffffffffffffff1673ffffffffffffffffffffffffffffffffffffffff1663bea05ee38460601b84846040518463ffffffff1660e01b815260040161149d93929190612f15565b600060405180830381600087803b1580156114b757600080fd5b505af11580156114cb573d6000803e3d6000fd5b505050506040513d6000823e3d601f19601f820116820180604052508101906114f49190612c25565b50505050565b611502612808565b73ffffffffffffffffffffffffffffffffffffffff1661152061193f565b73ffffffffffffffffffffffffffffffffffffffff1614611576576040517f08c379a000000000000000000000000000000000000000000000000000000000815260040161156d90612fb7565b60405180910390fd5b6115806000612852565b565b6000600b5414156115c8576040517f08c379a00000000000000000000000000000000000000000000000000000000081526004016115bf90612fd7565b60405180910390fd5b6000600b549050600160009054906101000a900473ffffffffffffffffffffffffffffffffffffffff1673ffffffffffffffffffffffffffffffffffffffff1663bea05ee382611616610932565b6040516024016040516020818303038152906040527f68eca7f9000000000000000000000000000000000000000000000000000000007bffffffffffffffffffffffffffffffffffffffffffffffffffffffff19166020820180517bffffffffffffffffffffffffffffffffffffffffffffffffffffffff83818316178352505050506040518463ffffffff1660e01b81526004016116b6929190612f47565b6000604051808303818588803b1580156116cf57600080fd5b505af11580156116e3573d6000803e3d6000fd5b50505050506040513d6000823e3d601f19601f8201168201806040525081019061170d9190612c25565b506000600160009054906101000a900473ffffffffffffffffffffffffffffffffffffffff1673ffffffffffffffffffffffffffffffffffffffff1663142b37c7600860009054906101000a900473ffffffffffffffffffffffffffffffffffffffff166040518263ffffffff1660e01b815260040161178d9190612ebd565b60206040518083038186803b1580156117a557600080fd5b505afa1580156117b9573d6000803e3d6000fd5b505050506040513d601f19601f820116820180604052508101906117dd9190612ce1565b905060006117f66004548361283c90919063ffffffff16565b905060008167ffffffffffffffff1611156118dd57600560065481548110611847577f4e487b7100000000000000000000000000000000000000000000000000000000600052603260045260246000fd5b9060005260206000200160009054906101000a900473ffffffffffffffffffffffffffffffffffffffff1673ffffffffffffffffffffffffffffffffffffffff166309fecf7f826040518263ffffffff1660e01b81526004016118aa9190613012565b600060405180830381600087803b1580156118c457600080fd5b505af11580156118d8573d6000803e3d6000fd5b505050505b505050565b60065481565b730888000000000000000000000000000000000006600160006101000a81548173ffffffffffffffffffffffffffffffffffffffff021916908373ffffffffffffffffffffffffffffffffffffffff160217905550565b60008060009054906101000a900473ffffffffffffffffffffffffffffffffffffffff16905090565b600080600160009054906101000a900473ffffffffffffffffffffffffffffffffffffffff1673ffffffffffffffffffffffffffffffffffffffff1663bea05ee36119b1610932565b6040516024016040516020818303038152906040527f15cc421d000000000000000000000000000000000000000000000000000000007bffffffffffffffffffffffffffffffffffffffffffffffffffffffff19166020820180517bffffffffffffffffffffffffffffffffffffffffffffffffffffffff83818316178352505050506040518363ffffffff1660e01b8152600401611a51929190612f47565b600060405180830381600087803b158015611a6b57600080fd5b505af1158015611a7f573d6000803e3d6000fd5b505050506040513d6000823e3d601f19601f82011682018060405250810190611aa89190612c25565b905080806020019051810190611abe9190612ce1565b91505090565b611acc612808565b73ffffffffffffffffffffffffffffffffffffffff16611aea61193f565b73ffffffffffffffffffffffffffffffffffffffff1614611b40576040517f08c379a0000000000000000000000000000000000000000000000000000000008152600401611b3790612fb7565b60405180910390fd5b6000600b5414611b85576040517f08c379a0000000000000000000000000000000000000000000000000000000008152600401611b7c90612f97565b60405180910390fd5b6000600580549050905060008060005b83811015611d9f5760058181548110611bd7577f4e487b7100000000000000000000000000000000000000000000000000000000600052603260045260246000fd5b9060005260206000200160009054906101000a900473ffffffffffffffffffffffffffffffffffffffff1692506000821115611d8c578273ffffffffffffffffffffffffffffffffffffffff16638270512f6040518163ffffffff1660e01b8152600401602060405180830381600087803b158015611c5557600080fd5b505af1158015611c69573d6000803e3d6000fd5b505050506040513d601f19601f82011682018060405250810190611c8d9190612ce1565b9150611cb8612710611caa6002548561281090919063ffffffff16565b61283c90919063ffffffff16565b600b6000828254611cc991906130e9565b92505081905550600160009054906101000a900473ffffffffffffffffffffffffffffffffffffffff1673ffffffffffffffffffffffffffffffffffffffff1663da8d5daf83611d17610932565b6040518363ffffffff1660e01b8152600401611d339190612efa565b6000604051808303818588803b158015611d4c57600080fd5b505af1158015611d60573d6000803e3d6000fd5b50505050506040513d6000823e3d601f19601f82011682018060405250810190611d8a9190612c25565b505b8080611d9790613345565b915050611b95565b50505050565b611dad612808565b73ffffffffffffffffffffffffffffffffffffffff16611dcb61193f565b73ffffffffffffffffffffffffffffffffffffffff1614611e21576040517f08c379a0000000000000000000000000000000000000000000000000000000008152600401611e1890612fb7565b60405180910390fd5b611e29611ac4565b611e31611582565b611e39610f96565b611e4161212d565b611e49610985565b565b60008060058381548110611e88577f4e487b7100000000000000000000000000000000000000000000000000000000600052603260045260246000fd5b9060005260206000200160009054906101000a900473ffffffffffffffffffffffffffffffffffffffff16905060008173ffffffffffffffffffffffffffffffffffffffff1663e73e183b6040518163ffffffff1660e01b815260040160206040518083038186803b158015611efd57600080fd5b505afa158015611f11573d6000803e3d6000fd5b505050506040513d601f19601f82011682018060405250810190611f359190612ce1565b90508092505050919050565b611f49612808565b73ffffffffffffffffffffffffffffffffffffffff16611f6761193f565b73ffffffffffffffffffffffffffffffffffffffff1614611fbd576040517f08c379a0000000000000000000000000000000000000000000000000000000008152600401611fb490612fb7565b60405180910390fd5b6000600580549050905060005b81811015612101578373ffffffffffffffffffffffffffffffffffffffff1660058281548110612023577f4e487b7100000000000000000000000000000000000000000000000000000000600052603260045260246000fd5b9060005260206000200160009054906101000a900473ffffffffffffffffffffffffffffffffffffffff1673ffffffffffffffffffffffffffffffffffffffff1614156120ee5782600582815481106120a5577f4e487b7100000000000000000000000000000000000000000000000000000000600052603260045260246000fd5b9060005260206000200160006101000a81548173ffffffffffffffffffffffffffffffffffffffff021916908373ffffffffffffffffffffffffffffffffffffffff1602179055505b80806120f990613345565b915050611fca565b50505050565b600a60009054906101000a900473ffffffffffffffffffffffffffffffffffffffff1681565b612135612808565b73ffffffffffffffffffffffffffffffffffffffff1661215361193f565b73ffffffffffffffffffffffffffffffffffffffff16146121a9576040517f08c379a00000000000000000000000000000000000000000000000000000000081526004016121a090612fb7565b60405180910390fd5b60006121b3610e3a565b905060008114156121c45750612641565b60328111156121d257603290505b6000600560065481548110612210577f4e487b7100000000000000000000000000000000000000000000000000000000600052603260045260246000fd5b9060005260206000200160009054906101000a900473ffffffffffffffffffffffffffffffffffffffff16905060008173ffffffffffffffffffffffffffffffffffffffff1663e3d5b233306040518263ffffffff1660e01b81526004016122789190612ebd565b60c06040518083038186803b15801561229057600080fd5b505afa1580156122a4573d6000803e3d6000fd5b505050506040513d601f19601f820116820180604052508101906122c89190612c8f565b90506000816040015167ffffffffffffffff16905060606000808314156122f457505050505050612641565b60005b8681101561263957600160009054906101000a900473ffffffffffffffffffffffffffffffffffffffff1673ffffffffffffffffffffffffffffffffffffffff1663bea05ee3612345610932565b6040516024016040516020818303038152906040527f09fcd230000000000000000000000000000000000000000000000000000000007bffffffffffffffffffffffffffffffffffffffffffffffffffffffff19166020820180517bffffffffffffffffffffffffffffffffffffffffffffffffffffffff83818316178352505050506040518363ffffffff1660e01b81526004016123e5929190612f47565b600060405180830381600087803b1580156123ff57600080fd5b505af1158015612413573d6000803e3d6000fd5b505050506040513d6000823e3d601f19601f8201168201806040525081019061243c9190612c25565b9250828060200190518101906124529190612ce1565b9150600082141561246257612639565b8382111561246f57612639565b8573ffffffffffffffffffffffffffffffffffffffff1663beb99c1e836040518263ffffffff1660e01b81526004016124a89190613012565b600060405180830381600087803b1580156124c257600080fd5b505af11580156124d6573d6000803e3d6000fd5b50505050600160009054906101000a900473ffffffffffffffffffffffffffffffffffffffff1673ffffffffffffffffffffffffffffffffffffffff1663bea05ee3612520610932565b6040516024016040516020818303038152906040527f84981986000000000000000000000000000000000000000000000000000000007bffffffffffffffffffffffffffffffffffffffffffffffffffffffff19166020820180517bffffffffffffffffffffffffffffffffffffffffffffffffffffffff83818316178352505050506040518363ffffffff1660e01b81526004016125c0929190612f47565b600060405180830381600087803b1580156125da57600080fd5b505af11580156125ee573d6000803e3d6000fd5b505050506040513d6000823e3d601f19601f820116820180604052508101906126179190612c25565b508184612624919061320d565b9350808061263190613345565b9150506122f7565b505050505050505b565b6005818154811061265357600080fd5b906000526020600020016000915054906101000a900473ffffffffffffffffffffffffffffffffffffffff1681565b61268a612808565b73ffffffffffffffffffffffffffffffffffffffff166126a861193f565b73ffffffffffffffffffffffffffffffffffffffff16146126fe576040517f08c379a00000000000000000000000000000000000000000000000000000000081526004016126f590612fb7565b60405180910390fd5b600073ffffffffffffffffffffffffffffffffffffffff168173ffffffffffffffffffffffffffffffffffffffff16141561276e576040517f08c379a000000000000000000000000000000000000000000000000000000000815260040161276590612f77565b60405180910390fd5b61277781612852565b50565b606060058054806020026020016040519081016040528092919081815260200182805480156127fe57602002820191906000526020600020905b8160009054906101000a900473ffffffffffffffffffffffffffffffffffffffff1673ffffffffffffffffffffffffffffffffffffffff16815260200190600101908083116127b4575b5050505050905090565b600033905090565b6000818361281e9190613170565b905092915050565b6000818361283491906130e9565b905092915050565b6000818361284a919061313f565b905092915050565b60008060009054906101000a900473ffffffffffffffffffffffffffffffffffffffff169050816000806101000a81548173ffffffffffffffffffffffffffffffffffffffff021916908373ffffffffffffffffffffffffffffffffffffffff1602179055508173ffffffffffffffffffffffffffffffffffffffff168173ffffffffffffffffffffffffffffffffffffffff167f8be0079c531659141344cd1fd0a4f28419497f9722a3daafe3b4186f6b6457e060405160405180910390a35050565b600061292961292484613052565b61302d565b90508281526020810184848401111561294157600080fd5b61294c8482856132e1565b509392505050565b600081359050612963816134f6565b92915050565b60008083601f84011261297b57600080fd5b8235905067ffffffffffffffff81111561299457600080fd5b6020830191508360018202830111156129ac57600080fd5b9250929050565b600082601f8301126129c457600080fd5b81516129d4848260208601612916565b91505092915050565b600060e082840312156129ef57600080fd5b6129f960e061302d565b90506000612a0984828501612b3e565b6000830152506020612a1d84828501612b3e565b6020830152506040612a3184828501612b3e565b6040830152506060612a4584828501612b3e565b6060830152506080612a5984828501612b3e565b60808301525060a0612a6d84828501612b3e565b60a08301525060c0612a8184828501612b3e565b60c08301525092915050565b600060c08284031215612a9f57600080fd5b612aa960c061302d565b90506000612ab984828501612b53565b6000830152506020612acd84828501612b53565b6020830152506040612ae184828501612b53565b6040830152506060612af584828501612b53565b6060830152506080612b0984828501612b3e565b60808301525060a0612b1d84828501612b3e565b60a08301525092915050565b600081359050612b388161350d565b92915050565b600081519050612b4d8161350d565b92915050565b600081519050612b6281613524565b92915050565b600060208284031215612b7a57600080fd5b6000612b8884828501612954565b91505092915050565b60008060408385031215612ba457600080fd5b6000612bb285828601612954565b9250506020612bc385828601612954565b9150509250929050565b600080600060408486031215612be257600080fd5b6000612bf086828701612954565b935050602084013567ffffffffffffffff811115612c0d57600080fd5b612c1986828701612969565b92509250509250925092565b600060208284031215612c3757600080fd5b600082015167ffffffffffffffff811115612c5157600080fd5b612c5d848285016129b3565b91505092915050565b600060e08284031215612c7857600080fd5b6000612c86848285016129dd565b91505092915050565b600060c08284031215612ca157600080fd5b6000612caf84828501612a8d565b91505092915050565b600060208284031215612cca57600080fd5b6000612cd884828501612b29565b91505092915050565b600060208284031215612cf357600080fd5b6000612d0184828501612b3e565b91505092915050565b6000612d168383612d22565b60208301905092915050565b612d2b81613241565b82525050565b612d3a81613241565b82525050565b6000612d4b82613093565b612d5581856130b6565b9350612d6083613083565b8060005b83811015612d91578151612d788882612d0a565b9750612d83836130a9565b925050600181019050612d64565b5085935050505092915050565b612da781613253565b82525050565b6000612db983856130c7565b9350612dc68385846132d2565b612dcf8361341b565b840190509392505050565b6000612de58261309e565b612def81856130c7565b9350612dff8185602086016132e1565b612e088161341b565b840191505092915050565b6000612e206026836130d8565b9150612e2b8261342c565b604082019050919050565b6000612e43601f836130d8565b9150612e4e8261347b565b602082019050919050565b6000612e666020836130d8565b9150612e71826134a4565b602082019050919050565b6000612e89601e836130d8565b9150612e94826134cd565b602082019050919050565b612ea88161329f565b82525050565b612eb7816132a9565b82525050565b6000602082019050612ed26000830184612d31565b92915050565b60006020820190508181036000830152612ef28184612d40565b905092915050565b6000602082019050612f0f6000830184612d9e565b92915050565b6000604082019050612f2a6000830186612d9e565b8181036020830152612f3d818486612dad565b9050949350505050565b6000604082019050612f5c6000830185612d9e565b8181036020830152612f6e8184612dda565b90509392505050565b60006020820190508181036000830152612f9081612e13565b9050919050565b60006020820190508181036000830152612fb081612e36565b9050919050565b60006020820190508181036000830152612fd081612e59565b9050919050565b60006020820190508181036000830152612ff081612e7c565b9050919050565b600060208201905061300c6000830184612e9f565b92915050565b60006020820190506130276000830184612eae565b92915050565b6000613037613048565b90506130438282613314565b919050565b6000604051905090565b600067ffffffffffffffff82111561306d5761306c6133ec565b5b6130768261341b565b9050602081019050919050565b6000819050602082019050919050565b600081519050919050565b600081519050919050565b6000602082019050919050565b600082825260208201905092915050565b600082825260208201905092915050565b600082825260208201905092915050565b60006130f48261329f565b91506130ff8361329f565b9250827fffffffffffffffffffffffffffffffffffffffffffffffffffffffffffffffff038211156131345761313361338e565b5b828201905092915050565b600061314a8261329f565b91506131558361329f565b925082613165576131646133bd565b5b828204905092915050565b600061317b8261329f565b91506131868361329f565b9250817fffffffffffffffffffffffffffffffffffffffffffffffffffffffffffffffff04831182151516156131bf576131be61338e565b5b828202905092915050565b60006131d5826132bd565b91506131e0836132bd565b92508168ffffffffffffffffff04831182151516156132025761320161338e565b5b828202905092915050565b60006132188261329f565b91506132238361329f565b9250828210156132365761323561338e565b5b828203905092915050565b600061324c8261327f565b9050919050565b60007fffffffffffffffffffffffffffffffffffffffff00000000000000000000000082169050919050565b600073ffffffffffffffffffffffffffffffffffffffff82169050919050565b6000819050919050565b600067ffffffffffffffff82169050919050565b600068ffffffffffffffffff82169050919050565b82818337600083830152505050565b60005b838110156132ff5780820151818401526020810190506132e4565b8381111561330e576000848401525b50505050565b61331d8261341b565b810181811067ffffffffffffffff8211171561333c5761333b6133ec565b5b80604052505050565b60006133508261329f565b91507fffffffffffffffffffffffffffffffffffffffffffffffffffffffffffffffff8214156133835761338261338e565b5b600182019050919050565b7f4e487b7100000000000000000000000000000000000000000000000000000000600052601160045260246000fd5b7f4e487b7100000000000000000000000000000000000000000000000000000000600052601260045260246000fd5b7f4e487b7100000000000000000000000000000000000000000000000000000000600052604160045260246000fd5b6000601f19601f8301169050919050565b7f4f776e61626c653a206e6577206f776e657220697320746865207a65726f206160008201527f6464726573730000000000000000000000000000000000000000000000000000602082015250565b7f73797374656d5f636678696e74657265737473206e6f7420636c65616e656400600082015250565b7f4f776e61626c653a2063616c6c6572206973206e6f7420746865206f776e6572600082015250565b7f73797374656d5f636678696e7465726573747320697320636c65616e65640000600082015250565b6134ff81613241565b811461350a57600080fd5b50565b6135168161329f565b811461352157600080fd5b50565b61352d816132a9565b811461353857600080fd5b5056fea264697066735822122071347ed7fac0cb2f1e2c8fe046baac3bcb65159e77991004b09fc8ea353443f564736f6c63430008020033",
  "immutableReferences": {},
  "source": "//SPDX-License-Identifier: BUSL-1.1\npragma solidity ^0.8.0;\nimport \"@openzeppelin/contracts/utils/math/SafeMath.sol\";\nimport \"@openzeppelin/contracts/access/Ownable.sol\";\nimport \"@openzeppelin/contracts/token/ERC20/IERC20.sol\";\nimport \"../ICrossSpaceCall.sol\";\nimport \"../IExchange.sol\";\n\ncontract CoreBridge_multipool is Ownable {\n  using SafeMath for uint256;\n  CrossSpaceCall internal crossSpaceCall;\n\n  uint256 private constant RATIO_BASE = 10000;\n  // ratio shared by user: 1-10000\n  uint256 public poolUserShareRatio = 9000;\n  uint256 CFX_COUNT_OF_ONE_VOTE = 1000;\n  uint256 CFX_VALUE_OF_ONE_VOTE = 1000 ether;\n\n  address[] public poolAddress;\n  uint256   public pos_id_in_use;\n  address   public xCFXAddress;\n  address   public eSpaceExroomAddress;\n  address   public CoreExroomAddress;\n  address   public ServicetreasuryAddress;\n\n  uint256   private system_cfxinterests_temp;\n\n  // ======================== Struct definitions =========================\n  struct PoolSummary {\n    uint256 xCFXSUM;  // xCFX SUM (1 ether xCFX === 1 e18)\n    uint256 totalInterest; // PoS pool interests for all xCFX\n    uint256 CFXbalances;  // CFX balances in bridge\n    uint256 historical_Interest ;// total historical interest of whole pools\n  }\n\n  struct Pool_info {\n    uint256 availableVotes;  //\n    uint256 stakingVotes; // \n    uint256 stakedVotes;  //\n    uint256 unstakingVotes; // \n    uint256 unstakedVotes; \n  }\n\n  constructor () {\n    initialize();\n  }\n  // ======================== Modifiers =========================\n\n  // modifier Only_Multi_sign() {\n  //   for(uint i=0;i<Multi_sign_num;i++){\n  //     require(Multi_signs[i]==1, \"Multi_sign is not ALL Signed!\");\n  //   }\n  //   _;\n  // }\n\n  // ======================== Methods =========================\n\n  function initialize() public {\n    crossSpaceCall = CrossSpaceCall(0x0888000000000000000000000000000000000006);\n  }\n\n  function addPoolAddress(address _poolAddress) public onlyOwner {\n    poolAddress.push(_poolAddress);\n  }\n\n  function changePoolAddress(address _oldpoolAddress,address _newpoolAddress) public onlyOwner {\n    uint256 pool_sum = poolAddress.length;\n    for(uint256 i=0;i<pool_sum;i++)\n    {\n        if(poolAddress[i]==_oldpoolAddress)\n        {\n            poolAddress[i]=_newpoolAddress;\n        }\n    }\n  }\n  function delePoolAddress(address _oldpoolAddress) public onlyOwner {\n    uint256 pool_sum = poolAddress.length;\n    for(uint256 i=0;i<pool_sum;i++)\n    {\n        if(poolAddress[i]==_oldpoolAddress)\n        {\n            poolAddress[i]= poolAddress[pool_sum-1];\n            poolAddress.pop();\n        }\n    }\n  }\n\n  function getPoolAddress() public view returns (address[] memory ) {\n    return poolAddress;\n  }\n\n  function seteSpaceExroomAddress(address _eSpaceExroomAddress) public onlyOwner {\n    eSpaceExroomAddress = _eSpaceExroomAddress;\n  }\n\n  function ePoolAddrB20() public view returns (bytes20) {\n    return bytes20(eSpaceExroomAddress);\n  }\n  //-----------------espace method-------------------------------------------------------------------------------------\n\n  function queryespacexCFXincrease() public returns (uint256) {\n    bytes memory rawCrossingVotes = crossSpaceCall.callEVM(ePoolAddrB20(), abi.encodeWithSignature(\"crossingVotes()\"));\n    return abi.decode(rawCrossingVotes, (uint256));\n  }\n\n  function queryUnstakeLen() public returns (uint256) {\n    bytes memory rawUnstakeLen = crossSpaceCall.callEVM(ePoolAddrB20(), abi.encodeWithSignature(\"unstakeLen()\"));\n    return abi.decode(rawUnstakeLen, (uint256));\n  }\n\n  //-----------------core pool method-------------------------------------------------------------------------------------\n  function queryInterest(uint256 _num) public view returns (uint256) {\n    IExchange posPool = IExchange(poolAddress[_num]);\n    uint256 interest = posPool.temp_Interest();\n    return interest;\n  }\n\n  //-----------------bridge method-------------------------------------------------------------------------------------\n  function syncALLwork() public onlyOwner {\n    claimInterests();\n\n    campounds();\n    SyncValue();\n\n    handleUnstake();\n    withdrawVotes();\n  }\n\n  function claimInterests() public onlyOwner {\n    require(system_cfxinterests_temp==0,'system_cfxinterests not cleaned');\n    uint256 pool_sum = poolAddress.length;\n    IExchange posPool;\n    uint256 interest;\n    for(uint256 i=0;i<pool_sum;i++)\n    {\n      posPool = IExchange(poolAddress[i]);\n      //interest = posPool.userInterest(address(this));\n      if (interest > 0) {\n        interest = posPool.claimAllInterest();\n        system_cfxinterests_temp += interest.mul(poolUserShareRatio).div(RATIO_BASE);\n        crossSpaceCall.transferEVM{value: interest}(ePoolAddrB20());\n      }\n    }\n  }\n  function campounds() public {\n    require(system_cfxinterests_temp!=0,'system_cfxinterests is cleaned');\n    uint256 toxCFX = system_cfxinterests_temp;\n    system_cfxinterests_temp == 0;\n    crossSpaceCall.callEVM{value: toxCFX}(ePoolAddrB20(), abi.encodeWithSignature(\"CFX_exchange_XCFX()\"));\n    uint256 balanceinpool = crossSpaceCall.mappedBalance(eSpaceExroomAddress);\n    uint64 votePower = uint64(balanceinpool.div(CFX_VALUE_OF_ONE_VOTE));\n    if (votePower > 0){\n      IExchange(poolAddress[pos_id_in_use]).increaseStake(votePower);\n    }\n  }\n\n  function SyncValue() public {\n    uint256 sum = IERC20(xCFXAddress).totalSupply() ; \n    uint256 balanceinpool = crossSpaceCall.mappedBalance(eSpaceExroomAddress);\n    uint256 pool_sum = poolAddress.length;\n    uint256 SUMvotes;\n    for(uint256 i=0;i<pool_sum;i++)\n    {\n        SUMvotes += IExchange(poolAddress[i]).poolSummary().totalvotes;\n    }\n    uint256 xCFXvalues =balanceinpool.add(SUMvotes.mul(CFX_VALUE_OF_ONE_VOTE)).div(sum);\n    crossSpaceCall.callEVM(ePoolAddrB20(), abi.encodeWithSignature(\"setxCFXValue(uint256)\", xCFXvalues));\n  }\n\n  function handleUnstake() public onlyOwner {\n    uint256 unstakeLen = queryUnstakeLen();\n    if (unstakeLen == 0) return;\n    if (unstakeLen > 50) unstakeLen = 50; // max 50 unstakes per call\n    IExchange posPool = IExchange(poolAddress[pos_id_in_use]);\n    IExchange.UserSummary memory userSummary = posPool.userSummary(address(this));\n    uint256 available = userSummary.locked;\n    bytes memory rawFirstUnstakeVotes ;\n    uint256 firstUnstakeVotes;\n    if (available == 0) return;\n    for(uint256 i = 0; i < unstakeLen; i++) {\n      rawFirstUnstakeVotes = crossSpaceCall.callEVM(ePoolAddrB20(), abi.encodeWithSignature(\"firstUnstakeVotes()\"));\n      firstUnstakeVotes = abi.decode(rawFirstUnstakeVotes, (uint256));\n      if (firstUnstakeVotes == 0) break;\n      if (firstUnstakeVotes > available) break;\n      posPool.decreaseStake(uint64(firstUnstakeVotes));\n      crossSpaceCall.callEVM(ePoolAddrB20(), abi.encodeWithSignature(\"handleUnstakeTask()\"));\n      available -= firstUnstakeVotes;\n    }\n  }\n\n  function withdrawVotes() public onlyOwner {\n    uint256 pool_sum = poolAddress.length;\n    IExchange posPool;\n    uint256 interest;\n    uint256 transferValue;\n    for(uint256 i=0;i<pool_sum;i++)\n    {\n      posPool = IExchange(poolAddress[i]);\n      IExchange.UserSummary memory userSummary = posPool.userSummary(address(this));\n      if (userSummary.unlocked > 0) \n      {\n        posPool.withdrawStake(userSummary.unlocked);\n        // transfer to eSpacePool and call method\n        transferValue = userSummary.unlocked * 1000 ether;\n        crossSpaceCall.callEVM{value: transferValue}(ePoolAddrB20(), abi.encodeWithSignature(\"handleUnlockedIncrease(uint256)\", userSummary.unlocked));\n      }\n    }\n  }\n\n  function callEVM(address addr, bytes calldata data) public onlyOwner {\n    crossSpaceCall.callEVM(bytes20(addr), data);\n  }\n\n  fallback() external payable {}\n  receive() external payable {}\n}",
  "sourcePath": "C:\\Users\\artii\\Black IDE\\espace\\contracts\\eSpace\\CoreBridge_multipool.sol",
  "compiler": {
    "name": "solc",
    "version": "0.8.2+commit.661d1103.Emscripten.clang"
  },
  "schemaVersion": "3.4.3",
  "updatedAt": "2022-08-14T03:45:25.886Z",
  "devdoc": {
    "kind": "dev",
    "methods": {
      "owner()": {
        "details": "Returns the address of the current owner."
      },
      "renounceOwnership()": {
        "details": "Leaves the contract without owner. It will not be possible to call `onlyOwner` functions anymore. Can only be called by the current owner. NOTE: Renouncing ownership will leave the contract without an owner, thereby removing any functionality that is only available to the owner."
      },
      "transferOwnership(address)": {
        "details": "Transfers ownership of the contract to a new account (`newOwner`). Can only be called by the current owner."
      }
    },
    "version": 1
  },
  "userdoc": {
    "kind": "user",
    "methods": {},
    "version": 1
  }
}