{
  "contractName": "CoreBridge_multipool",
  "abi": [
    {
      "inputs": [],
      "stateMutability": "nonpayable",
      "type": "constructor"
    },
    {
      "anonymous": false,
      "inputs": [
        {
          "indexed": true,
          "internalType": "address",
          "name": "previousOwner",
          "type": "address"
        },
        {
          "indexed": true,
          "internalType": "address",
          "name": "newOwner",
          "type": "address"
        }
      ],
      "name": "OwnershipTransferred",
      "type": "event"
    },
    {
      "stateMutability": "payable",
      "type": "fallback"
    },
    {
      "inputs": [],
      "name": "eSpacePoolAddress",
      "outputs": [
        {
          "internalType": "address",
          "name": "",
          "type": "address"
        }
      ],
      "stateMutability": "view",
      "type": "function"
    },
    {
      "inputs": [],
      "name": "owner",
      "outputs": [
        {
          "internalType": "address",
          "name": "",
          "type": "address"
        }
      ],
      "stateMutability": "view",
      "type": "function"
    },
    {
      "inputs": [
        {
          "internalType": "uint256",
          "name": "",
          "type": "uint256"
        }
      ],
      "name": "poolAddress",
      "outputs": [
        {
          "internalType": "address",
          "name": "",
          "type": "address"
        }
      ],
      "stateMutability": "view",
      "type": "function"
    },
    {
      "inputs": [],
      "name": "renounceOwnership",
      "outputs": [],
      "stateMutability": "nonpayable",
      "type": "function"
    },
    {
      "inputs": [
        {
          "internalType": "address",
          "name": "newOwner",
          "type": "address"
        }
      ],
      "name": "transferOwnership",
      "outputs": [],
      "stateMutability": "nonpayable",
      "type": "function"
    },
    {
      "stateMutability": "payable",
      "type": "receive"
    },
    {
      "inputs": [],
      "name": "initialize",
      "outputs": [],
      "stateMutability": "nonpayable",
      "type": "function"
    },
    {
      "inputs": [
        {
          "internalType": "address",
          "name": "_poolAddress",
          "type": "address"
        }
      ],
      "name": "addPoolAddress",
      "outputs": [],
      "stateMutability": "nonpayable",
      "type": "function"
    },
    {
      "inputs": [
        {
          "internalType": "address",
          "name": "_oldpoolAddress",
          "type": "address"
        },
        {
          "internalType": "address",
          "name": "_newpoolAddress",
          "type": "address"
        }
      ],
      "name": "changePoolAddress",
      "outputs": [],
      "stateMutability": "nonpayable",
      "type": "function"
    },
    {
      "inputs": [
        {
          "internalType": "address",
          "name": "_oldpoolAddress",
          "type": "address"
        }
      ],
      "name": "delePoolAddress",
      "outputs": [],
      "stateMutability": "nonpayable",
      "type": "function"
    },
    {
      "inputs": [],
      "name": "getPoolAddress",
      "outputs": [
        {
          "internalType": "address[]",
          "name": "",
          "type": "address[]"
        }
      ],
      "stateMutability": "nonpayable",
      "type": "function"
    },
    {
      "inputs": [
        {
          "internalType": "address",
          "name": "_eSpacePoolAddress",
          "type": "address"
        }
      ],
      "name": "setESpacePoolAddress",
      "outputs": [],
      "stateMutability": "nonpayable",
      "type": "function"
    },
    {
      "inputs": [],
      "name": "ePoolAddrB20",
      "outputs": [
        {
          "internalType": "bytes20",
          "name": "",
          "type": "bytes20"
        }
      ],
      "stateMutability": "view",
      "type": "function"
    },
    {
      "inputs": [],
      "name": "queryCrossingVotes",
      "outputs": [
        {
          "internalType": "uint256",
          "name": "",
          "type": "uint256"
        }
      ],
      "stateMutability": "nonpayable",
      "type": "function"
    },
    {
      "inputs": [],
      "name": "queryUnstakeLen",
      "outputs": [
        {
          "internalType": "uint256",
          "name": "",
          "type": "uint256"
        }
      ],
      "stateMutability": "nonpayable",
      "type": "function"
    },
    {
      "inputs": [
        {
          "internalType": "uint256",
          "name": "_num",
          "type": "uint256"
        }
      ],
      "name": "queryInterest",
      "outputs": [
        {
          "internalType": "uint256",
          "name": "",
          "type": "uint256"
        }
      ],
      "stateMutability": "view",
      "type": "function"
    },
    {
      "inputs": [
        {
          "internalType": "uint256",
          "name": "_num",
          "type": "uint256"
        }
      ],
      "name": "queryUserSummary",
      "outputs": [
        {
          "components": [
            {
              "internalType": "uint64",
              "name": "votes",
              "type": "uint64"
            },
            {
              "internalType": "uint64",
              "name": "available",
              "type": "uint64"
            },
            {
              "internalType": "uint64",
              "name": "locked",
              "type": "uint64"
            },
            {
              "internalType": "uint64",
              "name": "unlocked",
              "type": "uint64"
            },
            {
              "internalType": "uint256",
              "name": "claimedInterest",
              "type": "uint256"
            },
            {
              "internalType": "uint256",
              "name": "currentInterest",
              "type": "uint256"
            }
          ],
          "internalType": "struct IPoSPool.UserSummary",
          "name": "",
          "type": "tuple"
        }
      ],
      "stateMutability": "view",
      "type": "function"
    },
    {
      "inputs": [],
      "name": "syncAPYandClaimInterest",
      "outputs": [],
      "stateMutability": "nonpayable",
      "type": "function"
    },
    {
      "inputs": [],
      "name": "syncAPY",
      "outputs": [],
      "stateMutability": "nonpayable",
      "type": "function"
    },
    {
      "inputs": [
        {
          "internalType": "uint256",
          "name": "_num",
          "type": "uint256"
        }
      ],
      "name": "crossStake",
      "outputs": [],
      "stateMutability": "nonpayable",
      "type": "function"
    },
    {
      "inputs": [],
      "name": "claimInterest",
      "outputs": [],
      "stateMutability": "nonpayable",
      "type": "function"
    },
    {
      "inputs": [],
      "name": "claimAndCrossInterest",
      "outputs": [],
      "stateMutability": "nonpayable",
      "type": "function"
    },
    {
      "inputs": [
        {
          "internalType": "uint256",
          "name": "_num",
          "type": "uint256"
        }
      ],
      "name": "handleUnstake",
      "outputs": [],
      "stateMutability": "nonpayable",
      "type": "function"
    },
    {
      "inputs": [],
      "name": "withdrawVotes",
      "outputs": [],
      "stateMutability": "nonpayable",
      "type": "function"
    },
    {
      "inputs": [
        {
          "internalType": "address",
          "name": "addr",
          "type": "address"
        },
        {
          "internalType": "bytes",
          "name": "data",
          "type": "bytes"
        }
      ],
      "name": "callEVM",
      "outputs": [],
      "stateMutability": "nonpayable",
      "type": "function"
    }
  ],
  "bytecode": "0x60806040523480156200001157600080fd5b5062000032620000266200004860201b60201c565b6200005060201b60201c565b620000426200011460201b60201c565b6200016b565b600033905090565b60008060009054906101000a900473ffffffffffffffffffffffffffffffffffffffff169050816000806101000a81548173ffffffffffffffffffffffffffffffffffffffff021916908373ffffffffffffffffffffffffffffffffffffffff1602179055508173ffffffffffffffffffffffffffffffffffffffff168173ffffffffffffffffffffffffffffffffffffffff167f8be0079c531659141344cd1fd0a4f28419497f9722a3daafe3b4186f6b6457e060405160405180910390a35050565b730888000000000000000000000000000000000006600160006101000a81548173ffffffffffffffffffffffffffffffffffffffff021916908373ffffffffffffffffffffffffffffffffffffffff160217905550565b6139f6806200017b6000396000f3fe60806040526004361061014f5760003560e01c80638129fc1c116100b6578063da9da5261161006f578063da9da526146103fe578063dd22b2541461043b578063ddbbce3b14610452578063f2fde38b14610469578063f50acf0314610492578063f586c6d9146104cf57610156565b80638129fc1c146103025780638aa198f1146103195780638da5cb5b146103445780639fa28e481461036f578063a0e86fd0146103ac578063aa6abe67146103d557610156565b806347608ec71161010857806347608ec71461022c578063505f53d414610257578063589c944314610282578063697c7ff4146102ab5780636a5bd69d146102c2578063715018a6146102eb57610156565b80632306092e1461015857806335981fd8146101815780633b282f3a146101985780633f6a1f00146101c357806340d5637f146101ec578063434998441461020357610156565b3661015657005b005b34801561016457600080fd5b5061017f600480360381019061017a9190612f7f565b6104fa565b005b34801561018d57600080fd5b5061019661079c565b005b3480156101a457600080fd5b506101ad610a6b565b6040516101ba919061338d565b60405180910390f35b3480156101cf57600080fd5b506101ea60048036038101906101e59190612f7f565b610a98565b005b3480156101f857600080fd5b50610201610b58565b005b34801561020f57600080fd5b5061022a60048036038101906102259190612f7f565b610f05565b005b34801561023857600080fd5b50610241610fe7565b60405161024e9190613350565b60405180910390f35b34801561026357600080fd5b5061026c61100d565b6040516102799190613465565b60405180910390f35b34801561028e57600080fd5b506102a960048036038101906102a491906130cf565b611169565b005b3480156102b757600080fd5b506102c0611581565b005b3480156102ce57600080fd5b506102e960048036038101906102e49190612fe4565b6119ff565b005b3480156102f757600080fd5b50610300611b3a565b005b34801561030e57600080fd5b50610317611bc2565b005b34801561032557600080fd5b5061032e611c19565b60405161033b9190613465565b60405180910390f35b34801561035057600080fd5b50610359611d75565b6040516103669190613350565b60405180910390f35b34801561037b57600080fd5b50610396600480360381019061039191906130cf565b611d9e565b6040516103a39190613465565b60405180910390f35b3480156103b857600080fd5b506103d360048036038101906103ce9190612fa8565b611e9f565b005b3480156103e157600080fd5b506103fc60048036038101906103f791906130cf565b612065565b005b34801561040a57600080fd5b50610425600480360381019061042091906130cf565b61257a565b6040516104329190613350565b60405180910390f35b34801561044757600080fd5b506104506125b9565b005b34801561045e57600080fd5b5061046761290c565b005b34801561047557600080fd5b50610490600480360381019061048b9190612f7f565b61299a565b005b34801561049e57600080fd5b506104b960048036038101906104b491906130cf565b612a92565b6040516104c6919061344a565b60405180910390f35b3480156104db57600080fd5b506104e4612b9a565b6040516104f1919061336b565b60405180910390f35b610502612c28565b73ffffffffffffffffffffffffffffffffffffffff16610520611d75565b73ffffffffffffffffffffffffffffffffffffffff1614610576576040517f08c379a000000000000000000000000000000000000000000000000000000000815260040161056d9061342a565b60405180910390fd5b6000600280549050905060005b81811015610797578273ffffffffffffffffffffffffffffffffffffffff16600282815481106105dc577f4e487b7100000000000000000000000000000000000000000000000000000000600052603260045260246000fd5b9060005260206000200160009054906101000a900473ffffffffffffffffffffffffffffffffffffffff1673ffffffffffffffffffffffffffffffffffffffff16141561078457600260018361063291906136bd565b81548110610669577f4e487b7100000000000000000000000000000000000000000000000000000000600052603260045260246000fd5b9060005260206000200160009054906101000a900473ffffffffffffffffffffffffffffffffffffffff16600282815481106106ce577f4e487b7100000000000000000000000000000000000000000000000000000000600052603260045260246000fd5b9060005260206000200160006101000a81548173ffffffffffffffffffffffffffffffffffffffff021916908373ffffffffffffffffffffffffffffffffffffffff160217905550600280548061074e577f4e487b7100000000000000000000000000000000000000000000000000000000600052603160045260246000fd5b6001900381819060005260206000200160006101000a81549073ffffffffffffffffffffffffffffffffffffffff021916905590555b808061078f90613805565b915050610583565b505050565b6107a4612c28565b73ffffffffffffffffffffffffffffffffffffffff166107c2611d75565b73ffffffffffffffffffffffffffffffffffffffff1614610818576040517f08c379a000000000000000000000000000000000000000000000000000000000815260040161080f9061342a565b60405180910390fd5b6000600280549050905060008060005b83811015610a65576002818154811061086a577f4e487b7100000000000000000000000000000000000000000000000000000000600052603260045260246000fd5b9060005260206000200160009054906101000a900473ffffffffffffffffffffffffffffffffffffffff1692508273ffffffffffffffffffffffffffffffffffffffff1663d68076c3306040518263ffffffff1660e01b81526004016108d09190613350565b60206040518083038186803b1580156108e857600080fd5b505afa1580156108fc573d6000803e3d6000fd5b505050506040513d601f19601f8201168201806040525081019061092091906130f8565b91506000821115610a52578273ffffffffffffffffffffffffffffffffffffffff16632eb375ea836040518263ffffffff1660e01b81526004016109649190613465565b600060405180830381600087803b15801561097e57600080fd5b505af1158015610992573d6000803e3d6000fd5b50505050600160009054906101000a900473ffffffffffffffffffffffffffffffffffffffff1673ffffffffffffffffffffffffffffffffffffffff1663da8d5daf836109dd610a6b565b6040518363ffffffff1660e01b81526004016109f9919061338d565b6000604051808303818588803b158015610a1257600080fd5b505af1158015610a26573d6000803e3d6000fd5b50505050506040513d6000823e3d601f19601f82011682018060405250810190610a50919061303c565b505b8080610a5d90613805565b915050610828565b50505050565b6000600360009054906101000a900473ffffffffffffffffffffffffffffffffffffffff1660601b905090565b610aa0612c28565b73ffffffffffffffffffffffffffffffffffffffff16610abe611d75565b73ffffffffffffffffffffffffffffffffffffffff1614610b14576040517f08c379a0000000000000000000000000000000000000000000000000000000008152600401610b0b9061342a565b60405180910390fd5b80600360006101000a81548173ffffffffffffffffffffffffffffffffffffffff021916908373ffffffffffffffffffffffffffffffffffffffff16021790555050565b610b60612c28565b73ffffffffffffffffffffffffffffffffffffffff16610b7e611d75565b73ffffffffffffffffffffffffffffffffffffffff1614610bd4576040517f08c379a0000000000000000000000000000000000000000000000000000000008152600401610bcb9061342a565b60405180910390fd5b60006002805490509050600080600080600090505b84811015610efe5760028181548110610c2b577f4e487b7100000000000000000000000000000000000000000000000000000000600052603260045260246000fd5b9060005260206000200160009054906101000a900473ffffffffffffffffffffffffffffffffffffffff16935060008473ffffffffffffffffffffffffffffffffffffffff1663e3d5b233306040518263ffffffff1660e01b8152600401610c939190613350565b60c06040518083038186803b158015610cab57600080fd5b505afa158015610cbf573d6000803e3d6000fd5b505050506040513d601f19601f82011682018060405250810190610ce391906130a6565b90506000816060015167ffffffffffffffff161115610eea578473ffffffffffffffffffffffffffffffffffffffff16632ce7777f82606001516040518263ffffffff1660e01b8152600401610d399190613480565b600060405180830381600087803b158015610d5357600080fd5b505af1158015610d67573d6000803e3d6000fd5b50505050683635c9adc5dea00000816060015167ffffffffffffffff16610d8e919061367a565b68ffffffffffffffffff169250600160009054906101000a900473ffffffffffffffffffffffffffffffffffffffff1673ffffffffffffffffffffffffffffffffffffffff1663bea05ee384610de2610a6b565b8460600151604051602401610df79190613480565b6040516020818303038152906040527f17f78871000000000000000000000000000000000000000000000000000000007bffffffffffffffffffffffffffffffffffffffffffffffffffffffff19166020820180517bffffffffffffffffffffffffffffffffffffffffffffffffffffffff83818316178352505050506040518463ffffffff1660e01b8152600401610e919291906133da565b6000604051808303818588803b158015610eaa57600080fd5b505af1158015610ebe573d6000803e3d6000fd5b50505050506040513d6000823e3d601f19601f82011682018060405250810190610ee8919061303c565b505b508080610ef690613805565b915050610be9565b5050505050565b610f0d612c28565b73ffffffffffffffffffffffffffffffffffffffff16610f2b611d75565b73ffffffffffffffffffffffffffffffffffffffff1614610f81576040517f08c379a0000000000000000000000000000000000000000000000000000000008152600401610f789061342a565b60405180910390fd5b6002819080600181540180825580915050600190039060005260206000200160009091909190916101000a81548173ffffffffffffffffffffffffffffffffffffffff021916908373ffffffffffffffffffffffffffffffffffffffff16021790555050565b600360009054906101000a900473ffffffffffffffffffffffffffffffffffffffff1681565b600080600160009054906101000a900473ffffffffffffffffffffffffffffffffffffffff1673ffffffffffffffffffffffffffffffffffffffff1663bea05ee3611056610a6b565b6040516024016040516020818303038152906040527fc7ff5d6e000000000000000000000000000000000000000000000000000000007bffffffffffffffffffffffffffffffffffffffffffffffffffffffff19166020820180517bffffffffffffffffffffffffffffffffffffffffffffffffffffffff83818316178352505050506040518363ffffffff1660e01b81526004016110f69291906133da565b600060405180830381600087803b15801561111057600080fd5b505af1158015611124573d6000803e3d6000fd5b505050506040513d6000823e3d601f19601f8201168201806040525081019061114d919061303c565b90508080602001905181019061116391906130f8565b91505090565b611171612c28565b73ffffffffffffffffffffffffffffffffffffffff1661118f611d75565b73ffffffffffffffffffffffffffffffffffffffff16146111e5576040517f08c379a00000000000000000000000000000000000000000000000000000000081526004016111dc9061342a565b60405180910390fd5b60006111ef611c19565b90506000600160009054906101000a900473ffffffffffffffffffffffffffffffffffffffff1673ffffffffffffffffffffffffffffffffffffffff1663142b37c7306040518263ffffffff1660e01b815260040161124e9190613350565b60206040518083038186803b15801561126657600080fd5b505afa15801561127a573d6000803e3d6000fd5b505050506040513d601f19601f8201168201806040525081019061129e91906130f8565b90506000683635c9adc5dea00000836112b791906135de565b90506000831180156112c95750808210155b1561157b57600160009054906101000a900473ffffffffffffffffffffffffffffffffffffffff1673ffffffffffffffffffffffffffffffffffffffff1663c23ef031826040518263ffffffff1660e01b81526004016113299190613465565b600060405180830381600087803b15801561134357600080fd5b505af1158015611357573d6000803e3d6000fd5b50505050600160009054906101000a900473ffffffffffffffffffffffffffffffffffffffff1673ffffffffffffffffffffffffffffffffffffffff1663bea05ee36113a1610a6b565b856040516024016113b29190613465565b6040516020818303038152906040527f1bc1e78a000000000000000000000000000000000000000000000000000000007bffffffffffffffffffffffffffffffffffffffffffffffffffffffff19166020820180517bffffffffffffffffffffffffffffffffffffffffffffffffffffffff83818316178352505050506040518363ffffffff1660e01b815260040161144c9291906133da565b600060405180830381600087803b15801561146657600080fd5b505af115801561147a573d6000803e3d6000fd5b505050506040513d6000823e3d601f19601f820116820180604052508101906114a3919061303c565b506000600285815481106114e0577f4e487b7100000000000000000000000000000000000000000000000000000000600052603260045260246000fd5b9060005260206000200160009054906101000a900473ffffffffffffffffffffffffffffffffffffffff1690508073ffffffffffffffffffffffffffffffffffffffff166309fecf7f83866040518363ffffffff1660e01b81526004016115479190613480565b6000604051808303818588803b15801561156057600080fd5b505af1158015611574573d6000803e3d6000fd5b5050505050505b50505050565b6000600280549050905060008060005b8381101561189857600281815481106115d3577f4e487b7100000000000000000000000000000000000000000000000000000000600052603260045260246000fd5b9060005260206000200160009054906101000a900473ffffffffffffffffffffffffffffffffffffffff1673ffffffffffffffffffffffffffffffffffffffff16637571fcf66040518163ffffffff1660e01b815260040160606040518083038186803b15801561164357600080fd5b505afa158015611657573d6000803e3d6000fd5b505050506040513d601f19601f8201168201806040525081019061167b919061307d565b6000015167ffffffffffffffff16826116949190613557565b9150600281815481106116d0577f4e487b7100000000000000000000000000000000000000000000000000000000600052603260045260246000fd5b9060005260206000200160009054906101000a900473ffffffffffffffffffffffffffffffffffffffff1673ffffffffffffffffffffffffffffffffffffffff166382df7a3b6040518163ffffffff1660e01b815260040160206040518083038186803b15801561174057600080fd5b505afa158015611754573d6000803e3d6000fd5b505050506040513d601f19601f820116820180604052508101906117789190613121565b63ffffffff16600282815481106117b8577f4e487b7100000000000000000000000000000000000000000000000000000000600052603260045260246000fd5b9060005260206000200160009054906101000a900473ffffffffffffffffffffffffffffffffffffffff1673ffffffffffffffffffffffffffffffffffffffff16637571fcf66040518163ffffffff1660e01b815260040160606040518083038186803b15801561182857600080fd5b505afa15801561183c573d6000803e3d6000fd5b505050506040513d601f19601f82011682018060405250810190611860919061307d565b6000015161186e9190613638565b67ffffffffffffffff16836118839190613557565b9250808061189090613805565b915050611591565b5060006118ae8284612c3090919063ffffffff16565b9050600160009054906101000a900473ffffffffffffffffffffffffffffffffffffffff1673ffffffffffffffffffffffffffffffffffffffff1663bea05ee36118f6610a6b565b836040516024016119079190613465565b6040516020818303038152906040527f01cfc7f8000000000000000000000000000000000000000000000000000000007bffffffffffffffffffffffffffffffffffffffffffffffffffffffff19166020820180517bffffffffffffffffffffffffffffffffffffffffffffffffffffffff83818316178352505050506040518363ffffffff1660e01b81526004016119a19291906133da565b600060405180830381600087803b1580156119bb57600080fd5b505af11580156119cf573d6000803e3d6000fd5b505050506040513d6000823e3d601f19601f820116820180604052508101906119f8919061303c565b5050505050565b611a07612c28565b73ffffffffffffffffffffffffffffffffffffffff16611a25611d75565b73ffffffffffffffffffffffffffffffffffffffff1614611a7b576040517f08c379a0000000000000000000000000000000000000000000000000000000008152600401611a729061342a565b60405180910390fd5b600160009054906101000a900473ffffffffffffffffffffffffffffffffffffffff1673ffffffffffffffffffffffffffffffffffffffff1663bea05ee38460601b84846040518463ffffffff1660e01b8152600401611add939291906133a8565b600060405180830381600087803b158015611af757600080fd5b505af1158015611b0b573d6000803e3d6000fd5b505050506040513d6000823e3d601f19601f82011682018060405250810190611b34919061303c565b50505050565b611b42612c28565b73ffffffffffffffffffffffffffffffffffffffff16611b60611d75565b73ffffffffffffffffffffffffffffffffffffffff1614611bb6576040517f08c379a0000000000000000000000000000000000000000000000000000000008152600401611bad9061342a565b60405180910390fd5b611bc06000612c46565b565b730888000000000000000000000000000000000006600160006101000a81548173ffffffffffffffffffffffffffffffffffffffff021916908373ffffffffffffffffffffffffffffffffffffffff160217905550565b600080600160009054906101000a900473ffffffffffffffffffffffffffffffffffffffff1673ffffffffffffffffffffffffffffffffffffffff1663bea05ee3611c62610a6b565b6040516024016040516020818303038152906040527f15cc421d000000000000000000000000000000000000000000000000000000007bffffffffffffffffffffffffffffffffffffffffffffffffffffffff19166020820180517bffffffffffffffffffffffffffffffffffffffffffffffffffffffff83818316178352505050506040518363ffffffff1660e01b8152600401611d029291906133da565b600060405180830381600087803b158015611d1c57600080fd5b505af1158015611d30573d6000803e3d6000fd5b505050506040513d6000823e3d601f19601f82011682018060405250810190611d59919061303c565b905080806020019051810190611d6f91906130f8565b91505090565b60008060009054906101000a900473ffffffffffffffffffffffffffffffffffffffff16905090565b60008060028381548110611ddb577f4e487b7100000000000000000000000000000000000000000000000000000000600052603260045260246000fd5b9060005260206000200160009054906101000a900473ffffffffffffffffffffffffffffffffffffffff16905060008173ffffffffffffffffffffffffffffffffffffffff1663d68076c3306040518263ffffffff1660e01b8152600401611e439190613350565b60206040518083038186803b158015611e5b57600080fd5b505afa158015611e6f573d6000803e3d6000fd5b505050506040513d601f19601f82011682018060405250810190611e9391906130f8565b90508092505050919050565b611ea7612c28565b73ffffffffffffffffffffffffffffffffffffffff16611ec5611d75565b73ffffffffffffffffffffffffffffffffffffffff1614611f1b576040517f08c379a0000000000000000000000000000000000000000000000000000000008152600401611f129061342a565b60405180910390fd5b6000600280549050905060005b8181101561205f578373ffffffffffffffffffffffffffffffffffffffff1660028281548110611f81577f4e487b7100000000000000000000000000000000000000000000000000000000600052603260045260246000fd5b9060005260206000200160009054906101000a900473ffffffffffffffffffffffffffffffffffffffff1673ffffffffffffffffffffffffffffffffffffffff16141561204c578260028281548110612003577f4e487b7100000000000000000000000000000000000000000000000000000000600052603260045260246000fd5b9060005260206000200160006101000a81548173ffffffffffffffffffffffffffffffffffffffff021916908373ffffffffffffffffffffffffffffffffffffffff1602179055505b808061205790613805565b915050611f28565b50505050565b61206d612c28565b73ffffffffffffffffffffffffffffffffffffffff1661208b611d75565b73ffffffffffffffffffffffffffffffffffffffff16146120e1576040517f08c379a00000000000000000000000000000000000000000000000000000000081526004016120d89061342a565b60405180910390fd5b60006120eb61100d565b905060008114156120fc5750612577565b603281111561210a57603290505b600060028381548110612146577f4e487b7100000000000000000000000000000000000000000000000000000000600052603260045260246000fd5b9060005260206000200160009054906101000a900473ffffffffffffffffffffffffffffffffffffffff16905060008173ffffffffffffffffffffffffffffffffffffffff1663e3d5b233306040518263ffffffff1660e01b81526004016121ae9190613350565b60c06040518083038186803b1580156121c657600080fd5b505afa1580156121da573d6000803e3d6000fd5b505050506040513d601f19601f820116820180604052508101906121fe91906130a6565b90506000816040015167ffffffffffffffff169050606060008083141561222a57505050505050612577565b60005b8681101561256f57600160009054906101000a900473ffffffffffffffffffffffffffffffffffffffff1673ffffffffffffffffffffffffffffffffffffffff1663bea05ee361227b610a6b565b6040516024016040516020818303038152906040527f09fcd230000000000000000000000000000000000000000000000000000000007bffffffffffffffffffffffffffffffffffffffffffffffffffffffff19166020820180517bffffffffffffffffffffffffffffffffffffffffffffffffffffffff83818316178352505050506040518363ffffffff1660e01b815260040161231b9291906133da565b600060405180830381600087803b15801561233557600080fd5b505af1158015612349573d6000803e3d6000fd5b505050506040513d6000823e3d601f19601f82011682018060405250810190612372919061303c565b92508280602001905181019061238891906130f8565b915060008214156123985761256f565b838211156123a55761256f565b8573ffffffffffffffffffffffffffffffffffffffff1663beb99c1e836040518263ffffffff1660e01b81526004016123de9190613480565b600060405180830381600087803b1580156123f857600080fd5b505af115801561240c573d6000803e3d6000fd5b50505050600160009054906101000a900473ffffffffffffffffffffffffffffffffffffffff1673ffffffffffffffffffffffffffffffffffffffff1663bea05ee3612456610a6b565b6040516024016040516020818303038152906040527f84981986000000000000000000000000000000000000000000000000000000007bffffffffffffffffffffffffffffffffffffffffffffffffffffffff19166020820180517bffffffffffffffffffffffffffffffffffffffffffffffffffffffff83818316178352505050506040518363ffffffff1660e01b81526004016124f69291906133da565b600060405180830381600087803b15801561251057600080fd5b505af1158015612524573d6000803e3d6000fd5b505050506040513d6000823e3d601f19601f8201168201806040525081019061254d919061303c565b50818461255a91906136bd565b9350808061256790613805565b91505061222d565b505050505050505b50565b6002818154811061258a57600080fd5b906000526020600020016000915054906101000a900473ffffffffffffffffffffffffffffffffffffffff1681565b6125c1612c28565b73ffffffffffffffffffffffffffffffffffffffff166125df611d75565b73ffffffffffffffffffffffffffffffffffffffff1614612635576040517f08c379a000000000000000000000000000000000000000000000000000000000815260040161262c9061342a565b60405180910390fd5b6000600280549050905060008060005b838110156129065760028181548110612687577f4e487b7100000000000000000000000000000000000000000000000000000000600052603260045260246000fd5b9060005260206000200160009054906101000a900473ffffffffffffffffffffffffffffffffffffffff1692508273ffffffffffffffffffffffffffffffffffffffff1663d68076c3306040518263ffffffff1660e01b81526004016126ed9190613350565b60206040518083038186803b15801561270557600080fd5b505afa158015612719573d6000803e3d6000fd5b505050506040513d601f19601f8201168201806040525081019061273d91906130f8565b915060008211156128f3578273ffffffffffffffffffffffffffffffffffffffff16632eb375ea836040518263ffffffff1660e01b81526004016127819190613465565b600060405180830381600087803b15801561279b57600080fd5b505af11580156127af573d6000803e3d6000fd5b50505050600160009054906101000a900473ffffffffffffffffffffffffffffffffffffffff1673ffffffffffffffffffffffffffffffffffffffff1663bea05ee3836127fa610a6b565b6040516024016040516020818303038152906040527f4337e4bf000000000000000000000000000000000000000000000000000000007bffffffffffffffffffffffffffffffffffffffffffffffffffffffff19166020820180517bffffffffffffffffffffffffffffffffffffffffffffffffffffffff83818316178352505050506040518463ffffffff1660e01b815260040161289a9291906133da565b6000604051808303818588803b1580156128b357600080fd5b505af11580156128c7573d6000803e3d6000fd5b50505050506040513d6000823e3d601f19601f820116820180604052508101906128f1919061303c565b505b80806128fe90613805565b915050612645565b50505050565b612914612c28565b73ffffffffffffffffffffffffffffffffffffffff16612932611d75565b73ffffffffffffffffffffffffffffffffffffffff1614612988576040517f08c379a000000000000000000000000000000000000000000000000000000000815260040161297f9061342a565b60405180910390fd5b612990611581565b61299861079c565b565b6129a2612c28565b73ffffffffffffffffffffffffffffffffffffffff166129c0611d75565b73ffffffffffffffffffffffffffffffffffffffff1614612a16576040517f08c379a0000000000000000000000000000000000000000000000000000000008152600401612a0d9061342a565b60405180910390fd5b600073ffffffffffffffffffffffffffffffffffffffff168173ffffffffffffffffffffffffffffffffffffffff161415612a86576040517f08c379a0000000000000000000000000000000000000000000000000000000008152600401612a7d9061340a565b60405180910390fd5b612a8f81612c46565b50565b612a9a612d0a565b600060028381548110612ad6577f4e487b7100000000000000000000000000000000000000000000000000000000600052603260045260246000fd5b9060005260206000200160009054906101000a900473ffffffffffffffffffffffffffffffffffffffff16905060008173ffffffffffffffffffffffffffffffffffffffff1663e3d5b233306040518263ffffffff1660e01b8152600401612b3e9190613350565b60c06040518083038186803b158015612b5657600080fd5b505afa158015612b6a573d6000803e3d6000fd5b505050506040513d601f19601f82011682018060405250810190612b8e91906130a6565b90508092505050919050565b60606002805480602002602001604051908101604052809291908181526020018280548015612c1e57602002820191906000526020600020905b8160009054906101000a900473ffffffffffffffffffffffffffffffffffffffff1673ffffffffffffffffffffffffffffffffffffffff1681526020019060010190808311612bd4575b5050505050905090565b600033905090565b60008183612c3e91906135ad565b905092915050565b60008060009054906101000a900473ffffffffffffffffffffffffffffffffffffffff169050816000806101000a81548173ffffffffffffffffffffffffffffffffffffffff021916908373ffffffffffffffffffffffffffffffffffffffff1602179055508173ffffffffffffffffffffffffffffffffffffffff168173ffffffffffffffffffffffffffffffffffffffff167f8be0079c531659141344cd1fd0a4f28419497f9722a3daafe3b4186f6b6457e060405160405180910390a35050565b6040518060c00160405280600067ffffffffffffffff168152602001600067ffffffffffffffff168152602001600067ffffffffffffffff168152602001600067ffffffffffffffff16815260200160008152602001600081525090565b6000612d7b612d76846134c0565b61349b565b905082815260208101848484011115612d9357600080fd5b612d9e8482856137a1565b509392505050565b600081359050612db581613964565b92915050565b60008083601f840112612dcd57600080fd5b8235905067ffffffffffffffff811115612de657600080fd5b602083019150836001820283011115612dfe57600080fd5b9250929050565b600082601f830112612e1657600080fd5b8151612e26848260208601612d68565b91505092915050565b600060608284031215612e4157600080fd5b612e4b606061349b565b90506000612e5b84828501612f6a565b6000830152506020612e6f84828501612f40565b6020830152506040612e8384828501612f40565b60408301525092915050565b600060c08284031215612ea157600080fd5b612eab60c061349b565b90506000612ebb84828501612f6a565b6000830152506020612ecf84828501612f6a565b6020830152506040612ee384828501612f6a565b6040830152506060612ef784828501612f6a565b6060830152506080612f0b84828501612f40565b60808301525060a0612f1f84828501612f40565b60a08301525092915050565b600081359050612f3a8161397b565b92915050565b600081519050612f4f8161397b565b92915050565b600081519050612f6481613992565b92915050565b600081519050612f79816139a9565b92915050565b600060208284031215612f9157600080fd5b6000612f9f84828501612da6565b91505092915050565b60008060408385031215612fbb57600080fd5b6000612fc985828601612da6565b9250506020612fda85828601612da6565b9150509250929050565b600080600060408486031215612ff957600080fd5b600061300786828701612da6565b935050602084013567ffffffffffffffff81111561302457600080fd5b61303086828701612dbb565b92509250509250925092565b60006020828403121561304e57600080fd5b600082015167ffffffffffffffff81111561306857600080fd5b61307484828501612e05565b91505092915050565b60006060828403121561308f57600080fd5b600061309d84828501612e2f565b91505092915050565b600060c082840312156130b857600080fd5b60006130c684828501612e8f565b91505092915050565b6000602082840312156130e157600080fd5b60006130ef84828501612f2b565b91505092915050565b60006020828403121561310a57600080fd5b600061311884828501612f40565b91505092915050565b60006020828403121561313357600080fd5b600061314184828501612f55565b91505092915050565b60006131568383613162565b60208301905092915050565b61316b816136f1565b82525050565b61317a816136f1565b82525050565b600061318b82613501565b6131958185613524565b93506131a0836134f1565b8060005b838110156131d15781516131b8888261314a565b97506131c383613517565b9250506001810190506131a4565b5085935050505092915050565b6131e781613703565b82525050565b60006131f98385613535565b9350613206838584613792565b61320f836138db565b840190509392505050565b60006132258261350c565b61322f8185613535565b935061323f8185602086016137a1565b613248816138db565b840191505092915050565b6000613260602683613546565b915061326b826138ec565b604082019050919050565b6000613283602083613546565b915061328e8261393b565b602082019050919050565b60c0820160008201516132af6000850182613332565b5060208201516132c26020850182613332565b5060408201516132d56040850182613332565b5060608201516132e86060850182613332565b5060808201516132fb6080850182613314565b5060a082015161330e60a0850182613314565b50505050565b61331d8161374f565b82525050565b61332c8161374f565b82525050565b61333b81613769565b82525050565b61334a81613769565b82525050565b60006020820190506133656000830184613171565b92915050565b600060208201905081810360008301526133858184613180565b905092915050565b60006020820190506133a260008301846131de565b92915050565b60006040820190506133bd60008301866131de565b81810360208301526133d08184866131ed565b9050949350505050565b60006040820190506133ef60008301856131de565b8181036020830152613401818461321a565b90509392505050565b6000602082019050818103600083015261342381613253565b9050919050565b6000602082019050818103600083015261344381613276565b9050919050565b600060c08201905061345f6000830184613299565b92915050565b600060208201905061347a6000830184613323565b92915050565b60006020820190506134956000830184613341565b92915050565b60006134a56134b6565b90506134b182826137d4565b919050565b6000604051905090565b600067ffffffffffffffff8211156134db576134da6138ac565b5b6134e4826138db565b9050602081019050919050565b6000819050602082019050919050565b600081519050919050565b600081519050919050565b6000602082019050919050565b600082825260208201905092915050565b600082825260208201905092915050565b600082825260208201905092915050565b60006135628261374f565b915061356d8361374f565b9250827fffffffffffffffffffffffffffffffffffffffffffffffffffffffffffffffff038211156135a2576135a161384e565b5b828201905092915050565b60006135b88261374f565b91506135c38361374f565b9250826135d3576135d261387d565b5b828204905092915050565b60006135e98261374f565b91506135f48361374f565b9250817fffffffffffffffffffffffffffffffffffffffffffffffffffffffffffffffff048311821515161561362d5761362c61384e565b5b828202905092915050565b600061364382613769565b915061364e83613769565b92508167ffffffffffffffff048311821515161561366f5761366e61384e565b5b828202905092915050565b60006136858261377d565b91506136908361377d565b92508168ffffffffffffffffff04831182151516156136b2576136b161384e565b5b828202905092915050565b60006136c88261374f565b91506136d38361374f565b9250828210156136e6576136e561384e565b5b828203905092915050565b60006136fc8261372f565b9050919050565b60007fffffffffffffffffffffffffffffffffffffffff00000000000000000000000082169050919050565b600073ffffffffffffffffffffffffffffffffffffffff82169050919050565b6000819050919050565b600063ffffffff82169050919050565b600067ffffffffffffffff82169050919050565b600068ffffffffffffffffff82169050919050565b82818337600083830152505050565b60005b838110156137bf5780820151818401526020810190506137a4565b838111156137ce576000848401525b50505050565b6137dd826138db565b810181811067ffffffffffffffff821117156137fc576137fb6138ac565b5b80604052505050565b60006138108261374f565b91507fffffffffffffffffffffffffffffffffffffffffffffffffffffffffffffffff8214156138435761384261384e565b5b600182019050919050565b7f4e487b7100000000000000000000000000000000000000000000000000000000600052601160045260246000fd5b7f4e487b7100000000000000000000000000000000000000000000000000000000600052601260045260246000fd5b7f4e487b7100000000000000000000000000000000000000000000000000000000600052604160045260246000fd5b6000601f19601f8301169050919050565b7f4f776e61626c653a206e6577206f776e657220697320746865207a65726f206160008201527f6464726573730000000000000000000000000000000000000000000000000000602082015250565b7f4f776e61626c653a2063616c6c6572206973206e6f7420746865206f776e6572600082015250565b61396d816136f1565b811461397857600080fd5b50565b6139848161374f565b811461398f57600080fd5b50565b61399b81613759565b81146139a657600080fd5b50565b6139b281613769565b81146139bd57600080fd5b5056fea2646970667358221220258e9e2fdcf87545bde744ca900a20933d6da2fc4e673259c0d8d29b53f52b7f64736f6c63430008020033",
  "immutableReferences": {},
  "source": "//SPDX-License-Identifier: Unlicense\npragma solidity ^0.8.0;\nimport \"@openzeppelin/contracts/utils/math/SafeMath.sol\";\nimport \"@openzeppelin/contracts/access/Ownable.sol\";\nimport \"../ICrossSpaceCall.sol\";\nimport \"../IPoSPool.sol\";\n\ncontract CoreBridge_multipool is Ownable {\n  using SafeMath for uint256;\n  CrossSpaceCall internal crossSpaceCall;\n\n  address[] public poolAddress;\n  address public eSpacePoolAddress;\n\n  constructor () {\n    initialize();\n  }\n\n  function initialize() public {\n    crossSpaceCall = CrossSpaceCall(0x0888000000000000000000000000000000000006);\n  }\n\n  function addPoolAddress(address _poolAddress) public onlyOwner {\n    poolAddress.push(_poolAddress);\n  }\n\n  function changePoolAddress(address _oldpoolAddress,address _newpoolAddress) public onlyOwner {\n    uint256 pool_sum = poolAddress.length;\n    for(uint256 i=0;i<pool_sum;i++)\n    {\n        if(poolAddress[i]==_oldpoolAddress)\n        {\n            poolAddress[i]=_newpoolAddress;\n        }\n    }\n  }\n  function delePoolAddress(address _oldpoolAddress) public onlyOwner {\n    uint256 pool_sum = poolAddress.length;\n    for(uint256 i=0;i<pool_sum;i++)\n    {\n        if(poolAddress[i]==_oldpoolAddress)\n        {\n            poolAddress[i]= poolAddress[pool_sum-1];\n            poolAddress.pop();\n        }\n    }\n  }\n\n  function getPoolAddress() public returns (address[] memory ) {\n    return poolAddress;\n  }\n\n  function setESpacePoolAddress(address _eSpacePoolAddress) public onlyOwner {\n    eSpacePoolAddress = _eSpacePoolAddress;\n  }\n\n  function ePoolAddrB20() public view returns (bytes20) {\n    return bytes20(eSpacePoolAddress);\n  }\n\n  function queryCrossingVotes() public returns (uint256) {\n    bytes memory rawCrossingVotes = crossSpaceCall.callEVM(ePoolAddrB20(), abi.encodeWithSignature(\"crossingVotes()\"));\n    return abi.decode(rawCrossingVotes, (uint256));\n  }\n\n  function queryUnstakeLen() public returns (uint256) {\n    bytes memory rawUnstakeLen = crossSpaceCall.callEVM(ePoolAddrB20(), abi.encodeWithSignature(\"unstakeLen()\"));\n    return abi.decode(rawUnstakeLen, (uint256));\n  }\n\n  function queryInterest(uint256 _num) public view returns (uint256) {\n    IPoSPool posPool = IPoSPool(poolAddress[_num]);\n    uint256 interest = posPool.userInterest(address(this));\n    return interest;\n  }\n\n  function queryUserSummary(uint256 _num) public view returns (IPoSPool.UserSummary memory) {\n    IPoSPool posPool = IPoSPool(poolAddress[_num]);\n    IPoSPool.UserSummary memory userSummary = posPool.userSummary(address(this));\n    return userSummary;\n  }\n\n  function syncAPYandClaimInterest() public onlyOwner {\n    syncAPY();\n    claimInterest();\n  }\n\n  function syncAPY() public {\n    uint256 pool_sum = poolAddress.length;\n    //IPoSPool.poolSummary memory poolSummary;\n    uint256 APYi;\n    uint256 SUMi;\n    for(uint256 i=0;i<pool_sum;i++)\n    {\n        SUMi = SUMi +  IPoSPool(poolAddress[i]).poolSummary().available;\n        APYi = APYi + IPoSPool(poolAddress[i]).poolSummary().available*IPoSPool(poolAddress[i]).poolAPY();\n    }\n    //IPoSPool posPool = IPoSPool(poolAddress);\n    uint256 apy = APYi.div(SUMi);\n    crossSpaceCall.callEVM(ePoolAddrB20(), abi.encodeWithSignature(\"setPoolAPY(uint256)\", apy));\n  }\n\n  function crossStake(uint256 _num) public onlyOwner {\n    uint256 crossingVotes = queryCrossingVotes();\n    uint256 mappedBalance = crossSpaceCall.mappedBalance(address(this));\n    uint256 amount = crossingVotes * 1000 ether;\n    if (crossingVotes > 0 && mappedBalance >= amount) {\n      crossSpaceCall.withdrawFromMapped(amount);\n      crossSpaceCall.callEVM(ePoolAddrB20(), abi.encodeWithSignature(\"handleCrossingVotes(uint256)\", crossingVotes));\n      IPoSPool posPool = IPoSPool(poolAddress[_num]);\n      posPool.increaseStake{value: amount}(uint64(crossingVotes));\n    }\n  }\n\n  function claimInterest() public onlyOwner {\n    uint256 pool_sum = poolAddress.length;\n    IPoSPool posPool;\n    uint256 interest;\n    for(uint256 i=0;i<pool_sum;i++)\n    {\n      posPool = IPoSPool(poolAddress[i]);\n      interest = posPool.userInterest(address(this));\n      if (interest > 0) {\n        posPool.claimInterest(interest);\n        crossSpaceCall.transferEVM{value: interest}(ePoolAddrB20());\n      }\n    }\n  }\n\n  function claimAndCrossInterest() public onlyOwner {\n    uint256 pool_sum = poolAddress.length;\n    IPoSPool posPool;\n    uint256 interest;\n    for(uint256 i=0;i<pool_sum;i++)\n    {\n      posPool = IPoSPool(poolAddress[i]);\n      interest = posPool.userInterest(address(this));\n      if (interest > 0) {\n        posPool.claimInterest(interest);\n        crossSpaceCall.callEVM{value: interest}(ePoolAddrB20(), abi.encodeWithSignature(\"receiveInterest()\"));\n      }\n    }\n  }\n\n  function handleUnstake(uint256 _num) public onlyOwner {\n    uint256 unstakeLen = queryUnstakeLen();\n    if (unstakeLen == 0) return;\n    if (unstakeLen > 50) unstakeLen = 50; // max 50 unstakes per call\n    IPoSPool posPool = IPoSPool(poolAddress[_num]);\n    IPoSPool.UserSummary memory userSummary = posPool.userSummary(address(this));\n    uint256 available = userSummary.locked;\n    bytes memory rawFirstUnstakeVotes ;\n    uint256 firstUnstakeVotes;\n    if (available == 0) return;\n    for(uint256 i = 0; i < unstakeLen; i++) {\n      rawFirstUnstakeVotes = crossSpaceCall.callEVM(ePoolAddrB20(), abi.encodeWithSignature(\"firstUnstakeVotes()\"));\n      firstUnstakeVotes = abi.decode(rawFirstUnstakeVotes, (uint256));\n      if (firstUnstakeVotes == 0) break;\n      if (firstUnstakeVotes > available) break;\n      posPool.decreaseStake(uint64(firstUnstakeVotes));\n      crossSpaceCall.callEVM(ePoolAddrB20(), abi.encodeWithSignature(\"handleUnstakeTask()\"));\n      available -= firstUnstakeVotes;\n    }\n  }\n\n  function withdrawVotes() public onlyOwner {\n    uint256 pool_sum = poolAddress.length;\n    IPoSPool posPool;\n    uint256 interest;\n    uint256 transferValue;\n    for(uint256 i=0;i<pool_sum;i++)\n    {\n      posPool = IPoSPool(poolAddress[i]);\n      IPoSPool.UserSummary memory userSummary = posPool.userSummary(address(this));\n      if (userSummary.unlocked > 0) \n      {\n        posPool.withdrawStake(userSummary.unlocked);\n        // transfer to eSpacePool and call method\n        transferValue = userSummary.unlocked * 1000 ether;\n        crossSpaceCall.callEVM{value: transferValue}(ePoolAddrB20(), abi.encodeWithSignature(\"handleUnlockedIncrease(uint256)\", userSummary.unlocked));\n      }\n    }\n  }\n\n  function callEVM(address addr, bytes calldata data) public onlyOwner {\n    crossSpaceCall.callEVM(bytes20(addr), data);\n  }\n\n  fallback() external payable {}\n  receive() external payable {}\n}",
  "sourcePath": "C:\\Users\\artii\\Black IDE\\espace\\contracts\\eSpace\\CoreBridge_multipool.sol",
  "compiler": {
    "name": "solc",
    "version": "0.8.2+commit.661d1103.Emscripten.clang"
  },
  "schemaVersion": "3.4.3",
  "updatedAt": "2022-07-14T16:08:11.727Z",
  "devdoc": {
    "kind": "dev",
    "methods": {
      "owner()": {
        "details": "Returns the address of the current owner."
      },
      "renounceOwnership()": {
        "details": "Leaves the contract without owner. It will not be possible to call `onlyOwner` functions anymore. Can only be called by the current owner. NOTE: Renouncing ownership will leave the contract without an owner, thereby removing any functionality that is only available to the owner."
      },
      "transferOwnership(address)": {
        "details": "Transfers ownership of the contract to a new account (`newOwner`). Can only be called by the current owner."
      }
    },
    "version": 1
  },
  "userdoc": {
    "kind": "user",
    "methods": {},
    "version": 1
  }
}