{
  "contractName": "ESpacePoSPool",
  "abi": [
    {
      "anonymous": false,
      "inputs": [
        {
          "indexed": true,
          "internalType": "address",
          "name": "user",
          "type": "address"
        },
        {
          "indexed": false,
          "internalType": "uint256",
          "name": "amount",
          "type": "uint256"
        }
      ],
      "name": "ClaimInterest",
      "type": "event"
    },
    {
      "anonymous": false,
      "inputs": [
        {
          "indexed": true,
          "internalType": "address",
          "name": "user",
          "type": "address"
        },
        {
          "indexed": false,
          "internalType": "uint256",
          "name": "votePower",
          "type": "uint256"
        }
      ],
      "name": "DecreasePoSStake",
      "type": "event"
    },
    {
      "anonymous": false,
      "inputs": [
        {
          "indexed": true,
          "internalType": "address",
          "name": "user",
          "type": "address"
        },
        {
          "indexed": false,
          "internalType": "uint256",
          "name": "votePower",
          "type": "uint256"
        }
      ],
      "name": "IncreasePoSStake",
      "type": "event"
    },
    {
      "anonymous": false,
      "inputs": [
        {
          "indexed": true,
          "internalType": "address",
          "name": "previousOwner",
          "type": "address"
        },
        {
          "indexed": true,
          "internalType": "address",
          "name": "newOwner",
          "type": "address"
        }
      ],
      "name": "OwnershipTransferred",
      "type": "event"
    },
    {
      "anonymous": false,
      "inputs": [
        {
          "indexed": true,
          "internalType": "address",
          "name": "user",
          "type": "address"
        },
        {
          "indexed": false,
          "internalType": "uint256",
          "name": "votePower",
          "type": "uint256"
        }
      ],
      "name": "WithdrawStake",
      "type": "event"
    },
    {
      "stateMutability": "payable",
      "type": "fallback"
    },
    {
      "inputs": [],
      "name": "_poolLockPeriod",
      "outputs": [
        {
          "internalType": "uint256",
          "name": "",
          "type": "uint256"
        }
      ],
      "stateMutability": "view",
      "type": "function"
    },
    {
      "inputs": [],
      "name": "accRewardPerCfx",
      "outputs": [
        {
          "internalType": "uint256",
          "name": "",
          "type": "uint256"
        }
      ],
      "stateMutability": "view",
      "type": "function"
    },
    {
      "inputs": [],
      "name": "admin_addr",
      "outputs": [
        {
          "internalType": "address",
          "name": "",
          "type": "address"
        }
      ],
      "stateMutability": "view",
      "type": "function"
    },
    {
      "inputs": [],
      "name": "birdgeAddrSetted",
      "outputs": [
        {
          "internalType": "bool",
          "name": "",
          "type": "bool"
        }
      ],
      "stateMutability": "view",
      "type": "function"
    },
    {
      "inputs": [],
      "name": "crossingVotes",
      "outputs": [
        {
          "internalType": "uint256",
          "name": "",
          "type": "uint256"
        }
      ],
      "stateMutability": "view",
      "type": "function"
    },
    {
      "inputs": [],
      "name": "owner",
      "outputs": [
        {
          "internalType": "address",
          "name": "",
          "type": "address"
        }
      ],
      "stateMutability": "view",
      "type": "function"
    },
    {
      "inputs": [],
      "name": "owner_addr",
      "outputs": [
        {
          "internalType": "address",
          "name": "",
          "type": "address"
        }
      ],
      "stateMutability": "view",
      "type": "function"
    },
    {
      "inputs": [],
      "name": "poolName",
      "outputs": [
        {
          "internalType": "string",
          "name": "",
          "type": "string"
        }
      ],
      "stateMutability": "view",
      "type": "function"
    },
    {
      "inputs": [],
      "name": "poolUserShareRatio",
      "outputs": [
        {
          "internalType": "uint256",
          "name": "",
          "type": "uint256"
        }
      ],
      "stateMutability": "view",
      "type": "function"
    },
    {
      "inputs": [],
      "name": "renounceOwnership",
      "outputs": [],
      "stateMutability": "nonpayable",
      "type": "function"
    },
    {
      "inputs": [],
      "name": "total_burned",
      "outputs": [
        {
          "internalType": "uint256",
          "name": "",
          "type": "uint256"
        }
      ],
      "stateMutability": "view",
      "type": "function"
    },
    {
      "inputs": [],
      "name": "total_burned_inpool",
      "outputs": [
        {
          "internalType": "uint256",
          "name": "",
          "type": "uint256"
        }
      ],
      "stateMutability": "view",
      "type": "function"
    },
    {
      "inputs": [],
      "name": "total_minted",
      "outputs": [
        {
          "internalType": "uint256",
          "name": "",
          "type": "uint256"
        }
      ],
      "stateMutability": "view",
      "type": "function"
    },
    {
      "inputs": [],
      "name": "total_minted_inpool",
      "outputs": [
        {
          "internalType": "uint256",
          "name": "",
          "type": "uint256"
        }
      ],
      "stateMutability": "view",
      "type": "function"
    },
    {
      "inputs": [
        {
          "internalType": "address",
          "name": "newOwner",
          "type": "address"
        }
      ],
      "name": "transferOwnership",
      "outputs": [],
      "stateMutability": "nonpayable",
      "type": "function"
    },
    {
      "inputs": [],
      "name": "unstakeQueue",
      "outputs": [
        {
          "internalType": "uint256",
          "name": "start",
          "type": "uint256"
        },
        {
          "internalType": "uint256",
          "name": "end",
          "type": "uint256"
        }
      ],
      "stateMutability": "view",
      "type": "function"
    },
    {
      "stateMutability": "payable",
      "type": "receive"
    },
    {
      "inputs": [
        {
          "internalType": "address",
          "name": "_user",
          "type": "address"
        }
      ],
      "name": "_userShareRatio",
      "outputs": [
        {
          "internalType": "uint256",
          "name": "",
          "type": "uint256"
        }
      ],
      "stateMutability": "view",
      "type": "function"
    },
    {
      "inputs": [
        {
          "internalType": "address",
          "name": "_user",
          "type": "address"
        }
      ],
      "name": "_userInputRatio",
      "outputs": [
        {
          "internalType": "uint256",
          "name": "",
          "type": "uint256"
        }
      ],
      "stateMutability": "view",
      "type": "function"
    },
    {
      "inputs": [],
      "name": "initialize",
      "outputs": [],
      "stateMutability": "nonpayable",
      "type": "function"
    },
    {
      "inputs": [
        {
          "internalType": "address",
          "name": "_admin_addr",
          "type": "address"
        }
      ],
      "name": "set_admin",
      "outputs": [],
      "stateMutability": "nonpayable",
      "type": "function"
    },
    {
      "inputs": [],
      "name": "get_admin",
      "outputs": [
        {
          "internalType": "address",
          "name": "",
          "type": "address"
        }
      ],
      "stateMutability": "view",
      "type": "function"
    },
    {
      "inputs": [
        {
          "internalType": "address",
          "name": "_XVIP_addr",
          "type": "address"
        },
        {
          "internalType": "address",
          "name": "_XET_addr",
          "type": "address"
        },
        {
          "internalType": "address",
          "name": "_XCFX_addr",
          "type": "address"
        },
        {
          "internalType": "address",
          "name": "_S_addr",
          "type": "address"
        },
        {
          "internalType": "address",
          "name": "_distr",
          "type": "address"
        }
      ],
      "name": "set_Settings",
      "outputs": [],
      "stateMutability": "nonpayable",
      "type": "function"
    },
    {
      "inputs": [],
      "name": "get_Settings",
      "outputs": [
        {
          "internalType": "address",
          "name": "",
          "type": "address"
        },
        {
          "internalType": "address",
          "name": "",
          "type": "address"
        },
        {
          "internalType": "address",
          "name": "",
          "type": "address"
        },
        {
          "internalType": "address",
          "name": "",
          "type": "address"
        },
        {
          "internalType": "address",
          "name": "",
          "type": "address"
        }
      ],
      "stateMutability": "view",
      "type": "function"
    },
    {
      "inputs": [
        {
          "internalType": "uint256",
          "name": "_amount",
          "type": "uint256"
        },
        {
          "internalType": "address",
          "name": "_addr",
          "type": "address"
        }
      ],
      "name": "CFX_to_XCFX_estim",
      "outputs": [
        {
          "internalType": "uint256",
          "name": "",
          "type": "uint256"
        },
        {
          "internalType": "uint256",
          "name": "",
          "type": "uint256"
        }
      ],
      "stateMutability": "view",
      "type": "function"
    },
    {
      "inputs": [],
      "name": "CFX_to_XCFX",
      "outputs": [],
      "stateMutability": "payable",
      "type": "function"
    },
    {
      "inputs": [
        {
          "internalType": "uint256",
          "name": "_amount",
          "type": "uint256"
        }
      ],
      "name": "XCFX_burn",
      "outputs": [],
      "stateMutability": "nonpayable",
      "type": "function"
    },
    {
      "inputs": [
        {
          "internalType": "uint256",
          "name": "_amount",
          "type": "uint256"
        }
      ],
      "name": "getback_CFX",
      "outputs": [],
      "stateMutability": "nonpayable",
      "type": "function"
    },
    {
      "inputs": [
        {
          "internalType": "address",
          "name": "_from",
          "type": "address"
        },
        {
          "internalType": "address",
          "name": "_to",
          "type": "address"
        }
      ],
      "name": "update_after_trans_by_outer_func",
      "outputs": [],
      "stateMutability": "nonpayable",
      "type": "function"
    },
    {
      "inputs": [
        {
          "internalType": "uint256",
          "name": "_amount",
          "type": "uint256"
        },
        {
          "internalType": "address",
          "name": "_contract",
          "type": "address"
        }
      ],
      "name": "claimContractInterest",
      "outputs": [],
      "stateMutability": "nonpayable",
      "type": "function"
    },
    {
      "inputs": [
        {
          "internalType": "address",
          "name": "_contract",
          "type": "address"
        }
      ],
      "name": "claimAllContractInterest",
      "outputs": [],
      "stateMutability": "nonpayable",
      "type": "function"
    },
    {
      "inputs": [
        {
          "internalType": "uint64",
          "name": "votePower",
          "type": "uint64"
        }
      ],
      "name": "decreaseStake",
      "outputs": [],
      "stateMutability": "nonpayable",
      "type": "function"
    },
    {
      "inputs": [
        {
          "internalType": "uint256",
          "name": "_amount",
          "type": "uint256"
        }
      ],
      "name": "withdrawStake",
      "outputs": [],
      "stateMutability": "nonpayable",
      "type": "function"
    },
    {
      "inputs": [
        {
          "internalType": "address",
          "name": "_address",
          "type": "address"
        }
      ],
      "name": "userInterest",
      "outputs": [
        {
          "internalType": "uint256",
          "name": "",
          "type": "uint256"
        },
        {
          "internalType": "uint256",
          "name": "",
          "type": "uint256"
        }
      ],
      "stateMutability": "view",
      "type": "function"
    },
    {
      "inputs": [
        {
          "internalType": "uint256",
          "name": "amount",
          "type": "uint256"
        }
      ],
      "name": "claimInterest",
      "outputs": [],
      "stateMutability": "nonpayable",
      "type": "function"
    },
    {
      "inputs": [],
      "name": "claimAllInterest",
      "outputs": [],
      "stateMutability": "nonpayable",
      "type": "function"
    },
    {
      "inputs": [
        {
          "internalType": "address",
          "name": "_user",
          "type": "address"
        }
      ],
      "name": "userSummary",
      "outputs": [
        {
          "components": [
            {
              "internalType": "uint256",
              "name": "available",
              "type": "uint256"
            },
            {
              "internalType": "uint256",
              "name": "unlocking",
              "type": "uint256"
            },
            {
              "internalType": "uint256",
              "name": "unlocked",
              "type": "uint256"
            },
            {
              "internalType": "uint256",
              "name": "claimedInterest",
              "type": "uint256"
            },
            {
              "internalType": "uint256",
              "name": "currentInterest",
              "type": "uint256"
            }
          ],
          "internalType": "struct ESpacePoSPool.UserSummary",
          "name": "",
          "type": "tuple"
        }
      ],
      "stateMutability": "view",
      "type": "function"
    },
    {
      "inputs": [],
      "name": "poolSummary",
      "outputs": [
        {
          "components": [
            {
              "internalType": "uint256",
              "name": "available",
              "type": "uint256"
            },
            {
              "internalType": "uint256",
              "name": "interest",
              "type": "uint256"
            },
            {
              "internalType": "uint256",
              "name": "totalInterest",
              "type": "uint256"
            }
          ],
          "internalType": "struct ESpacePoSPool.PoolSummary",
          "name": "",
          "type": "tuple"
        }
      ],
      "stateMutability": "view",
      "type": "function"
    },
    {
      "inputs": [],
      "name": "poolAPY",
      "outputs": [
        {
          "internalType": "uint256",
          "name": "",
          "type": "uint256"
        }
      ],
      "stateMutability": "view",
      "type": "function"
    },
    {
      "inputs": [
        {
          "internalType": "address",
          "name": "account",
          "type": "address"
        }
      ],
      "name": "userOutQueue",
      "outputs": [
        {
          "components": [
            {
              "internalType": "uint256",
              "name": "votePower",
              "type": "uint256"
            },
            {
              "internalType": "uint256",
              "name": "endBlock",
              "type": "uint256"
            }
          ],
          "internalType": "struct VotePowerQueue.QueueNode[]",
          "name": "",
          "type": "tuple[]"
        }
      ],
      "stateMutability": "view",
      "type": "function"
    },
    {
      "inputs": [
        {
          "internalType": "address",
          "name": "account",
          "type": "address"
        },
        {
          "internalType": "uint64",
          "name": "offset",
          "type": "uint64"
        },
        {
          "internalType": "uint64",
          "name": "limit",
          "type": "uint64"
        }
      ],
      "name": "userOutQueueoffset",
      "outputs": [
        {
          "components": [
            {
              "internalType": "uint256",
              "name": "votePower",
              "type": "uint256"
            },
            {
              "internalType": "uint256",
              "name": "endBlock",
              "type": "uint256"
            }
          ],
          "internalType": "struct VotePowerQueue.QueueNode[]",
          "name": "",
          "type": "tuple[]"
        }
      ],
      "stateMutability": "view",
      "type": "function"
    },
    {
      "inputs": [],
      "name": "stakerNumber",
      "outputs": [
        {
          "internalType": "uint256",
          "name": "",
          "type": "uint256"
        }
      ],
      "stateMutability": "view",
      "type": "function"
    },
    {
      "inputs": [
        {
          "internalType": "uint256",
          "name": "i",
          "type": "uint256"
        }
      ],
      "name": "stakerAddress",
      "outputs": [
        {
          "internalType": "address",
          "name": "",
          "type": "address"
        }
      ],
      "stateMutability": "view",
      "type": "function"
    },
    {
      "inputs": [],
      "name": "unstakeLen",
      "outputs": [
        {
          "internalType": "uint256",
          "name": "",
          "type": "uint256"
        }
      ],
      "stateMutability": "view",
      "type": "function"
    },
    {
      "inputs": [],
      "name": "firstUnstakeVotes",
      "outputs": [
        {
          "internalType": "uint256",
          "name": "",
          "type": "uint256"
        }
      ],
      "stateMutability": "view",
      "type": "function"
    },
    {
      "inputs": [
        {
          "internalType": "uint64",
          "name": "ratio",
          "type": "uint64"
        }
      ],
      "name": "setPoolUserShareRatio",
      "outputs": [],
      "stateMutability": "nonpayable",
      "type": "function"
    },
    {
      "inputs": [
        {
          "internalType": "uint64",
          "name": "period",
          "type": "uint64"
        }
      ],
      "name": "setLockPeriod",
      "outputs": [],
      "stateMutability": "nonpayable",
      "type": "function"
    },
    {
      "inputs": [
        {
          "internalType": "uint256",
          "name": "count",
          "type": "uint256"
        }
      ],
      "name": "setCfxCountOfOneVote",
      "outputs": [],
      "stateMutability": "nonpayable",
      "type": "function"
    },
    {
      "inputs": [
        {
          "internalType": "address",
          "name": "bridgeAddress",
          "type": "address"
        }
      ],
      "name": "setBridge",
      "outputs": [],
      "stateMutability": "nonpayable",
      "type": "function"
    },
    {
      "inputs": [],
      "name": "getBridge",
      "outputs": [
        {
          "internalType": "address",
          "name": "",
          "type": "address"
        }
      ],
      "stateMutability": "nonpayable",
      "type": "function"
    },
    {
      "inputs": [
        {
          "internalType": "string",
          "name": "name",
          "type": "string"
        }
      ],
      "name": "setPoolName",
      "outputs": [],
      "stateMutability": "nonpayable",
      "type": "function"
    },
    {
      "inputs": [
        {
          "internalType": "address",
          "name": "_addr",
          "type": "address"
        },
        {
          "internalType": "uint64",
          "name": "endBlockNumber",
          "type": "uint64"
        }
      ],
      "name": "_retireUserStake",
      "outputs": [],
      "stateMutability": "nonpayable",
      "type": "function"
    },
    {
      "inputs": [
        {
          "internalType": "uint256",
          "name": "offset",
          "type": "uint256"
        },
        {
          "internalType": "uint256",
          "name": "limit",
          "type": "uint256"
        },
        {
          "internalType": "uint64",
          "name": "endBlockNumber",
          "type": "uint64"
        }
      ],
      "name": "_retireUserStakes",
      "outputs": [],
      "stateMutability": "nonpayable",
      "type": "function"
    },
    {
      "inputs": [
        {
          "internalType": "uint256",
          "name": "apy",
          "type": "uint256"
        }
      ],
      "name": "setPoolAPY",
      "outputs": [],
      "stateMutability": "nonpayable",
      "type": "function"
    },
    {
      "inputs": [
        {
          "internalType": "uint256",
          "name": "votePower",
          "type": "uint256"
        }
      ],
      "name": "handleUnlockedIncrease",
      "outputs": [],
      "stateMutability": "payable",
      "type": "function"
    },
    {
      "inputs": [
        {
          "internalType": "uint256",
          "name": "votePower",
          "type": "uint256"
        }
      ],
      "name": "handleCrossingVotes",
      "outputs": [],
      "stateMutability": "nonpayable",
      "type": "function"
    },
    {
      "inputs": [],
      "name": "handleUnstakeTask",
      "outputs": [
        {
          "internalType": "uint256",
          "name": "",
          "type": "uint256"
        }
      ],
      "stateMutability": "nonpayable",
      "type": "function"
    },
    {
      "inputs": [],
      "name": "receiveInterest",
      "outputs": [],
      "stateMutability": "payable",
      "type": "function"
    }
  ],
  "bytecode": "0x60806040526103e8600155683635c9adc5dea00000600255612328600455600e620151806200002f919062000179565b60055560006007556000602360006101000a81548173ffffffffffffffffffffffffffffffffffffffff021916908373ffffffffffffffffffffffffffffffffffffffff1602179055503480156200008657600080fd5b50620000a76200009b620000ad60201b60201c565b620000b560201b60201c565b62000213565b600033905090565b60008060009054906101000a900473ffffffffffffffffffffffffffffffffffffffff169050816000806101000a81548173ffffffffffffffffffffffffffffffffffffffff021916908373ffffffffffffffffffffffffffffffffffffffff1602179055508173ffffffffffffffffffffffffffffffffffffffff168173ffffffffffffffffffffffffffffffffffffffff167f8be0079c531659141344cd1fd0a4f28419497f9722a3daafe3b4186f6b6457e060405160405180910390a35050565b60006200018682620001da565b91506200019383620001da565b9250817fffffffffffffffffffffffffffffffffffffffffffffffffffffffffffffffff0483118215151615620001cf57620001ce620001e4565b5b828202905092915050565b6000819050919050565b7f4e487b7100000000000000000000000000000000000000000000000000000000600052601160045260246000fd5b616ab180620002236000396000f3fe6080604052600436106103795760003560e01c80638129fc1c116101d1578063be17be5d11610102578063de5d8c39116100a0578063ed1c2a7b1161006f578063ed1c2a7b14610c4f578063f2fde38b14610c78578063f3466dfa14610ca1578063f660776b14610ccc57610380565b8063de5d8c3914610b97578063e3d5b23314610bc0578063e5e20ccf14610bfd578063e9333fab14610c2657610380565b8063c7ff5d6e116100dc578063c7ff5d6e14610ad4578063c805354214610aff578063d43af51c14610b2e578063d68076c314610b5957610380565b8063be17be5d14610a57578063beb99c1e14610a82578063c3b8eba014610aab57610380565b806396b6b59d1161016f578063ac177df111610149578063ac177df11461099b578063b4064a25146109c6578063bb61be5f146109f1578063bd0b2dad14610a1a57610380565b806396b6b59d1461093d5780639aafd5b8146109665780639b50a8651461099157610380565b806384981986116101ab57806384981986146108815780638da5cb5b146108ac5780638dd14802146108d7578063940670451461090057610380565b80638129fc1c146108285780638270512f1461083f57806382df7a3b1461085657610380565b80634337e4bf116102ab57806366f355db11610249578063715018a611610223578063715018a61461079457806371bbafd5146107ab57806372b65424146107d45780637571fcf6146107fd57610380565b806366f355db1461071757806367a1aa4f1461074057806369617bcb1461076b57610380565b80634a990ba9116102855780634a990ba9146106585780634c2bb0a81461068457806354c7c612146106c15780636283c50b146106ec57610380565b80634337e4bf146105fa57806347108abc1461060457806348edf0261461062d57610380565b806317f788711161031857806324a3bbe2116102f257806324a3bbe21461054057806325d5971f1461057d5780632eb375ea146105a6578063315b4d06146105cf57610380565b806317f78871146104be57806319861492146104da5780631bc1e78a1461051757610380565b80630573ee0e116103545780630573ee0e1461041257806309fcd2301461043d5780630fffbaf31461046857806315cc421d1461049357610380565b8062ff85f01461038257806301cfc7f8146103ab57806302ed1abe146103d457610380565b3661038057005b005b34801561038e57600080fd5b506103a960048036038101906103a491906157cf565b610cf7565b005b3480156103b757600080fd5b506103d260048036038101906103cd91906159a0565b610e3c565b005b3480156103e057600080fd5b506103fb60048036038101906103f691906159f2565b610ed6565b604051610409929190616267565b60405180910390f35b34801561041e57600080fd5b50610427610fbe565b604051610434919061624c565b60405180910390f35b34801561044957600080fd5b50610452610fc4565b60405161045f919061624c565b60405180910390f35b34801561047457600080fd5b5061047d611006565b60405161048a9190615ee0565b60405180910390f35b34801561049f57600080fd5b506104a8611030565b6040516104b5919061624c565b60405180910390f35b6104d860048036038101906104d391906159a0565b611036565b005b3480156104e657600080fd5b5061050160048036038101906104fc91906158e7565b611120565b60405161050e9190615f77565b60405180910390f35b34801561052357600080fd5b5061053e600480360381019061053991906159a0565b61117e565b005b34801561054c57600080fd5b50610567600480360381019061056291906157cf565b61126f565b6040516105749190615f77565b60405180910390f35b34801561058957600080fd5b506105a4600480360381019061059f91906159a0565b6112bf565b005b3480156105b257600080fd5b506105cd60048036038101906105c891906159a0565b61167c565b005b3480156105db57600080fd5b506105e4611ac3565b6040516105f1919061624c565b60405180910390f35b610602611ac9565b005b34801561061057600080fd5b5061062b600480360381019061062691906159a0565b611b5b565b005b34801561063957600080fd5b50610642612062565b60405161064f919061624c565b60405180910390f35b34801561066457600080fd5b5061066d612068565b60405161067b929190616267565b60405180910390f35b34801561069057600080fd5b506106ab60048036038101906106a691906157cf565b61207a565b6040516106b8919061624c565b60405180910390f35b3480156106cd57600080fd5b506106d66120ac565b6040516106e39190615ee0565b60405180910390f35b3480156106f857600080fd5b506107016120d6565b60405161070e9190615f99565b60405180910390f35b34801561072357600080fd5b5061073e600480360381019061073991906159a0565b6120e9565b005b34801561074c57600080fd5b50610755612144565b604051610762919061624c565b60405180910390f35b34801561077757600080fd5b50610792600480360381019061078d9190615834565b61214a565b005b3480156107a057600080fd5b506107a9612312565b005b3480156107b757600080fd5b506107d260048036038101906107cd91906159f2565b61239a565b005b3480156107e057600080fd5b506107fb60048036038101906107f6919061595f565b612718565b005b34801561080957600080fd5b506108126127ae565b60405161081f9190616216565b60405180910390f35b34801561083457600080fd5b5061083d612830565b005b34801561084b57600080fd5b506108546129c6565b005b34801561086257600080fd5b5061086b612a79565b604051610878919061624c565b60405180910390f35b34801561088d57600080fd5b50610896612a83565b6040516108a3919061624c565b60405180910390f35b3480156108b857600080fd5b506108c1612b2e565b6040516108ce9190615ee0565b60405180910390f35b3480156108e357600080fd5b506108fe60048036038101906108f991906157cf565b612b57565b005b34801561090c57600080fd5b50610927600480360381019061092291906159a0565b612c32565b6040516109349190615ee0565b60405180910390f35b34801561094957600080fd5b50610964600480360381019061095f91906159a0565b612c4f565b005b34801561097257600080fd5b5061097b612cef565b604051610988919061624c565b60405180910390f35b610999612d00565b005b3480156109a757600080fd5b506109b0613205565b6040516109bd9190615ee0565b60405180910390f35b3480156109d257600080fd5b506109db61322b565b6040516109e8919061624c565b60405180910390f35b3480156109fd57600080fd5b50610a186004803603810190610a1391906158ab565b613231565b005b348015610a2657600080fd5b50610a416004803603810190610a3c91906157cf565b613436565b604051610a4e919061624c565b60405180910390f35b348015610a6357600080fd5b50610a6c613760565b604051610a79919061624c565b60405180910390f35b348015610a8e57600080fd5b50610aa96004803603810190610aa49190615a7d565b613766565b005b348015610ab757600080fd5b50610ad26004803603810190610acd9190615a7d565b6137e4565b005b348015610ae057600080fd5b50610ae96138d9565b604051610af6919061624c565b60405180910390f35b348015610b0b57600080fd5b50610b146138f6565b604051610b25959493929190615efb565b60405180910390f35b348015610b3a57600080fd5b50610b436139be565b604051610b509190615ee0565b60405180910390f35b348015610b6557600080fd5b50610b806004803603810190610b7b91906157cf565b6139e4565b604051610b8e929190616267565b60405180910390f35b348015610ba357600080fd5b50610bbe6004803603810190610bb991906157f8565b613c42565b005b348015610bcc57600080fd5b50610be76004803603810190610be291906157cf565b614245565b604051610bf49190616231565b60405180910390f35b348015610c0957600080fd5b50610c246004803603810190610c1f9190615a7d565b614354565b005b348015610c3257600080fd5b50610c4d6004803603810190610c4891906157cf565b6143e4565b005b348015610c5b57600080fd5b50610c766004803603810190610c719190615a2e565b6144a4565b005b348015610c8457600080fd5b50610c9f6004803603810190610c9a91906157cf565b6145b0565b005b348015610cad57600080fd5b50610cb66146a8565b604051610cc39190615fb4565b60405180910390f35b348015610cd857600080fd5b50610ce1614736565b604051610cee919061624c565b60405180910390f35b600360009054906101000a900460ff16610d46576040517f08c379a0000000000000000000000000000000000000000000000000000000008152600401610d3d90616076565b60405180910390fd5b601960009054906101000a900473ffffffffffffffffffffffffffffffffffffffff1673ffffffffffffffffffffffffffffffffffffffff163373ffffffffffffffffffffffffffffffffffffffff1614610dd6576040517f08c379a0000000000000000000000000000000000000000000000000000000008152600401610dcd90616036565b60405180910390fd5b600080610de2836139e4565b809250819350505060008211610e2d576040517f08c379a0000000000000000000000000000000000000000000000000000000008152600401610e2490616156565b60405180910390fd5b610e37828461239a565b505050565b600360019054906101000a900473ffffffffffffffffffffffffffffffffffffffff1673ffffffffffffffffffffffffffffffffffffffff163373ffffffffffffffffffffffffffffffffffffffff1614610ecc576040517f08c379a0000000000000000000000000000000000000000000000000000000008152600401610ec390616196565b60405180910390fd5b8060078190555050565b600080610f08612710610efa610eeb8661207a565b8761473c90919063ffffffff16565b61475290919063ffffffff16565b602260009054906101000a900473ffffffffffffffffffffffffffffffffffffffff1673ffffffffffffffffffffffffffffffffffffffff16639dd040cb866040518263ffffffff1660e01b8152600401610f63919061624c565b60206040518083038186803b158015610f7b57600080fd5b505afa158015610f8f573d6000803e3d6000fd5b505050506040513d601f19601f82011682018060405250810190610fb391906159c9565b915091509250929050565b601d5481565b60006014600001546014600101541415610fe15760009050611003565b6014600201600060146000015481526020019081526020016000206000015490505b90565b6000600360019054906101000a900473ffffffffffffffffffffffffffffffffffffffff16905090565b60175481565b600360019054906101000a900473ffffffffffffffffffffffffffffffffffffffff1673ffffffffffffffffffffffffffffffffffffffff163373ffffffffffffffffffffffffffffffffffffffff16146110c6576040517f08c379a00000000000000000000000000000000000000000000000000000000081526004016110bd90616196565b60405180910390fd5b600254816110d49190616400565b3414611115576040517f08c379a000000000000000000000000000000000000000000000000000000000815260040161110c90615ff6565b60405180910390fd5b61111d614768565b50565b60606111758383600d60008873ffffffffffffffffffffffffffffffffffffffff1673ffffffffffffffffffffffffffffffffffffffff16815260200190815260200160002061479b9092919063ffffffff16565b90509392505050565b600360019054906101000a900473ffffffffffffffffffffffffffffffffffffffff1673ffffffffffffffffffffffffffffffffffffffff163373ffffffffffffffffffffffffffffffffffffffff161461120e576040517f08c379a000000000000000000000000000000000000000000000000000000000815260040161120590616196565b60405180910390fd5b806017541015611253576040517f08c379a000000000000000000000000000000000000000000000000000000000815260040161124a906161b6565b60405180910390fd5b8060176000828254611265919061645a565b9250508190555050565b60606112b8600d60008473ffffffffffffffffffffffffffffffffffffffff1673ffffffffffffffffffffffffffffffffffffffff1681526020019081526020016000206149b3565b9050919050565b600360009054906101000a900460ff1661130e576040517f08c379a000000000000000000000000000000000000000000000000000000000815260040161130590616076565b60405180910390fd5b6000611357600d60003373ffffffffffffffffffffffffffffffffffffffff1673ffffffffffffffffffffffffffffffffffffffff168152602001908152602001600020614b00565b905080600c60003373ffffffffffffffffffffffffffffffffffffffff1673ffffffffffffffffffffffffffffffffffffffff16815260200190815260200160002060020160008282546113ab919061633b565b9250508190555080600c60003373ffffffffffffffffffffffffffffffffffffffff1673ffffffffffffffffffffffffffffffffffffffff1681526020019081526020016000206001016000828254611404919061645a565b9250508190555081600c60003373ffffffffffffffffffffffffffffffffffffffff1673ffffffffffffffffffffffffffffffffffffffff168152602001908152602001600020600201541015611490576040517f08c379a0000000000000000000000000000000000000000000000000000000008152600401611487906161f6565b60405180910390fd5b600082905080600c60003373ffffffffffffffffffffffffffffffffffffffff1673ffffffffffffffffffffffffffffffffffffffff16815260200190815260200160002060020154101561151a576040517f08c379a0000000000000000000000000000000000000000000000000000000008152600401611511906160b6565b60405180910390fd5b82600c60003373ffffffffffffffffffffffffffffffffffffffff1673ffffffffffffffffffffffffffffffffffffffff168152602001908152602001600020600201600082825461156c919061645a565b9250508190555060003390508073ffffffffffffffffffffffffffffffffffffffff166108fc839081150290604051600060405180830381858888f193505050501580156115be573d6000803e3d6000fd5b503373ffffffffffffffffffffffffffffffffffffffff167f141ef67c4a6d3ec2adfb2f66d33c2b11de5b4f34344757554d430570b18a92ec85604051611605919061624c565b60405180910390a2611615614768565b6000600c60003373ffffffffffffffffffffffffffffffffffffffff1673ffffffffffffffffffffffffffffffffffffffff16815260200190815260200160002060000154141561167657611674336012614b8f90919063ffffffff16565b505b50505050565b600360009054906101000a900460ff166116cb576040517f08c379a00000000000000000000000000000000000000000000000000000000081526004016116c290616076565b60405180910390fd5b6000806116d7336139e4565b809250819350505082821015611722576040517f08c379a0000000000000000000000000000000000000000000000000000000008152600401611719906161d6565b60405180910390fd5b6000151561172f33614bbf565b151514611771576040517f08c379a000000000000000000000000000000000000000000000000000000000815260040161176890616056565b60405180910390fd5b611779614be2565b61178233614c93565b6117d783600c60003373ffffffffffffffffffffffffffffffffffffffff1673ffffffffffffffffffffffffffffffffffffffff16815260200190815260200160002060030154614e4190919063ffffffff16565b600c60003373ffffffffffffffffffffffffffffffffffffffff1673ffffffffffffffffffffffffffffffffffffffff1681526020019081526020016000206003018190555061187283600c60003373ffffffffffffffffffffffffffffffffffffffff1673ffffffffffffffffffffffffffffffffffffffff16815260200190815260200160002060040154614e5790919063ffffffff16565b600c60003373ffffffffffffffffffffffffffffffffffffffff1673ffffffffffffffffffffffffffffffffffffffff168152602001908152602001600020600401819055506118c133614e6d565b60003390508073ffffffffffffffffffffffffffffffffffffffff166108fc859081150290604051600060405180830381858888f1935050505015801561190c573d6000803e3d6000fd5b503373ffffffffffffffffffffffffffffffffffffffff167fbbf701f67a7d285bbd2b9b2dc7a5fee474e6dc3c059183385da6cc9de2be34a985604051611953919061624c565b60405180910390a2601f60009054906101000a900473ffffffffffffffffffffffffffffffffffffffff1673ffffffffffffffffffffffffffffffffffffffff1663a9059cbb33602260009054906101000a900473ffffffffffffffffffffffffffffffffffffffff1673ffffffffffffffffffffffffffffffffffffffff16630f59a493886040518263ffffffff1660e01b81526004016119f5919061624c565b60206040518083038186803b158015611a0d57600080fd5b505afa158015611a21573d6000803e3d6000fd5b505050506040513d601f19601f82011682018060405250810190611a4591906159c9565b6040518363ffffffff1660e01b8152600401611a62929190615f4e565b602060405180830381600087803b158015611a7c57600080fd5b505af1158015611a90573d6000803e3d6000fd5b505050506040513d601f19601f82011682018060405250810190611ab49190615936565b50611abd614768565b50505050565b601b5481565b600360019054906101000a900473ffffffffffffffffffffffffffffffffffffffff1673ffffffffffffffffffffffffffffffffffffffff163373ffffffffffffffffffffffffffffffffffffffff1614611b59576040517f08c379a0000000000000000000000000000000000000000000000000000000008152600401611b5090616196565b60405180910390fd5b565b600360009054906101000a900460ff16611baa576040517f08c379a0000000000000000000000000000000000000000000000000000000008152600401611ba190616076565b60405180910390fd5b601e60009054906101000a900473ffffffffffffffffffffffffffffffffffffffff1673ffffffffffffffffffffffffffffffffffffffff166370a08231336040518263ffffffff1660e01b8152600401611c059190615ee0565b60206040518083038186803b158015611c1d57600080fd5b505afa158015611c31573d6000803e3d6000fd5b505050506040513d601f19601f82011682018060405250810190611c5591906159c9565b811115611c97576040517f08c379a0000000000000000000000000000000000000000000000000000000008152600401611c8e90616136565b60405180910390fd5b601e60009054906101000a900473ffffffffffffffffffffffffffffffffffffffff1673ffffffffffffffffffffffffffffffffffffffff16630d1118ce33836040518363ffffffff1660e01b8152600401611cf4929190615f4e565b600060405180830381600087803b158015611d0e57600080fd5b505af1158015611d22573d6000803e3d6000fd5b5050505080601c6000828254611d38919061633b565b92505081905550601d54601c541115611e0357611d916001611d82683635c9adc5dea00000611d74601d54601c54614e5790919063ffffffff16565b61475290919063ffffffff16565b611d8c9190616391565b613766565b611dea683635c9adc5dea000006001611dd2683635c9adc5dea00000611dc4601d54601c54614e5790919063ffffffff16565b61475290919063ffffffff16565b611ddc919061633b565b61473c90919063ffffffff16565b601d6000828254611dfb919061633b565b925050819055505b80600c60003373ffffffffffffffffffffffffffffffffffffffff1673ffffffffffffffffffffffffffffffffffffffff1681526020019081526020016000206001016000828254611e55919061633b565b92505081905550611ed56040518060400160405280838152602001600554611e7b614f90565b611e85919061633b565b815250600d60003373ffffffffffffffffffffffffffffffffffffffff1673ffffffffffffffffffffffffffffffffffffffff168152602001908152602001600020614f9890919063ffffffff16565b6000611f1e600d60003373ffffffffffffffffffffffffffffffffffffffff1673ffffffffffffffffffffffffffffffffffffffff168152602001908152602001600020614b00565b905080600c60003373ffffffffffffffffffffffffffffffffffffffff1673ffffffffffffffffffffffffffffffffffffffff1681526020019081526020016000206002016000828254611f72919061633b565b9250508190555080600c60003373ffffffffffffffffffffffffffffffffffffffff1673ffffffffffffffffffffffffffffffffffffffff1681526020019081526020016000206001016000828254611fcb919061645a565b925050819055503373ffffffffffffffffffffffffffffffffffffffff167fd81524ca5b038be9f98b286808a6f46f99c8700bce9ab4793dc12a2dbaa4f2d883604051612018919061624c565b60405180910390a2612028614be2565b61203133614c93565b61203a33614e6d565b816009600001600082825461204f919061645a565b9250508190555061205e614768565b5050565b601c5481565b60148060000154908060010154905082565b6000612098600a61208a84613436565b61475290919063ffffffff16565b6123286120a5919061633b565b9050919050565b6000601960009054906101000a900473ffffffffffffffffffffffffffffffffffffffff16905090565b600360009054906101000a900460ff1681565b600360009054906101000a900460ff16612138576040517f08c379a000000000000000000000000000000000000000000000000000000000815260040161212f90616076565b60405180910390fd5b612141816112bf565b50565b60045481565b612152614fe1565b73ffffffffffffffffffffffffffffffffffffffff16612170612b2e565b73ffffffffffffffffffffffffffffffffffffffff16146121c6576040517f08c379a00000000000000000000000000000000000000000000000000000000081526004016121bd906160f6565b60405180910390fd5b84602060006101000a81548173ffffffffffffffffffffffffffffffffffffffff021916908373ffffffffffffffffffffffffffffffffffffffff16021790555083601f60006101000a81548173ffffffffffffffffffffffffffffffffffffffff021916908373ffffffffffffffffffffffffffffffffffffffff16021790555082601e60006101000a81548173ffffffffffffffffffffffffffffffffffffffff021916908373ffffffffffffffffffffffffffffffffffffffff16021790555081602160006101000a81548173ffffffffffffffffffffffffffffffffffffffff021916908373ffffffffffffffffffffffffffffffffffffffff16021790555080602260006101000a81548173ffffffffffffffffffffffffffffffffffffffff021916908373ffffffffffffffffffffffffffffffffffffffff1602179055505050505050565b61231a614fe1565b73ffffffffffffffffffffffffffffffffffffffff16612338612b2e565b73ffffffffffffffffffffffffffffffffffffffff161461238e576040517f08c379a0000000000000000000000000000000000000000000000000000000008152600401612385906160f6565b60405180910390fd5b6123986000614fe9565b565b600360009054906101000a900460ff166123e9576040517f08c379a00000000000000000000000000000000000000000000000000000000081526004016123e090616076565b60405180910390fd5b601960009054906101000a900473ffffffffffffffffffffffffffffffffffffffff1673ffffffffffffffffffffffffffffffffffffffff163373ffffffffffffffffffffffffffffffffffffffff1614612479576040517f08c379a000000000000000000000000000000000000000000000000000000000815260040161247090616036565b60405180910390fd5b600080612485836139e4565b8092508193505050838210156124d0576040517f08c379a00000000000000000000000000000000000000000000000000000000081526004016124c7906161d6565b60405180910390fd5b600115156124dd84614bbf565b15151461251f576040517f08c379a000000000000000000000000000000000000000000000000000000000815260040161251690616096565b60405180910390fd5b612527614be2565b61253083614c93565b61258584600c60008673ffffffffffffffffffffffffffffffffffffffff1673ffffffffffffffffffffffffffffffffffffffff16815260200190815260200160002060030154614e4190919063ffffffff16565b600c60008573ffffffffffffffffffffffffffffffffffffffff1673ffffffffffffffffffffffffffffffffffffffff1681526020019081526020016000206003018190555061262084600c60008673ffffffffffffffffffffffffffffffffffffffff1673ffffffffffffffffffffffffffffffffffffffff16815260200190815260200160002060040154614e5790919063ffffffff16565b600c60008573ffffffffffffffffffffffffffffffffffffffff1673ffffffffffffffffffffffffffffffffffffffff1681526020019081526020016000206004018190555061266f83614e6d565b60003390508073ffffffffffffffffffffffffffffffffffffffff166108fc869081150290604051600060405180830381858888f193505050501580156126ba573d6000803e3d6000fd5b508373ffffffffffffffffffffffffffffffffffffffff167fbbf701f67a7d285bbd2b9b2dc7a5fee474e6dc3c059183385da6cc9de2be34a986604051612701919061624c565b60405180910390a2612711614768565b5050505050565b612720614fe1565b73ffffffffffffffffffffffffffffffffffffffff1661273e612b2e565b73ffffffffffffffffffffffffffffffffffffffff1614612794576040517f08c379a000000000000000000000000000000000000000000000000000000000815260040161278b906160f6565b60405180910390fd5b80600690805190602001906127aa9291906155de565b5050565b6127b6615664565b60006009604051806060016040529081600082015481526020016001820154815260200160028201548152505090506000612806600e600101546127f86150ad565b614e5790919063ffffffff16565b905061281f818360400151614e4190919063ffffffff16565b826040018181525050819250505090565b600060159054906101000a900460ff16806128585750600060149054906101000a900460ff16155b612897576040517f08c379a000000000000000000000000000000000000000000000000000000000815260040161288e906160d6565b60405180910390fd5b60008060159054906101000a900460ff1615905080156128e8576001600060156101000a81548160ff0219169083151502179055506001600060146101000a81548160ff0219169083151502179055505b6103e8600181905550683635c9adc5dea00000600281905550600e620151806129119190616400565b60058190555061232860048190555033601860006101000a81548173ffffffffffffffffffffffffffffffffffffffff021916908373ffffffffffffffffffffffffffffffffffffffff16021790555033602060006101000a81548173ffffffffffffffffffffffffffffffffffffffff021916908373ffffffffffffffffffffffffffffffffffffffff16021790555080156129c35760008060156101000a81548160ff0219169083151502179055505b50565b600360009054906101000a900460ff16612a15576040517f08c379a0000000000000000000000000000000000000000000000000000000008152600401612a0c90616076565b60405180910390fd5b600080612a21336139e4565b809250819350505060008211612a6c576040517f08c379a0000000000000000000000000000000000000000000000000000000008152600401612a6390616156565b60405180910390fd5b612a758261167c565b5050565b6000600754905090565b6000600360019054906101000a900473ffffffffffffffffffffffffffffffffffffffff1673ffffffffffffffffffffffffffffffffffffffff163373ffffffffffffffffffffffffffffffffffffffff1614612b15576040517f08c379a0000000000000000000000000000000000000000000000000000000008152600401612b0c90616196565b60405180910390fd5b6000612b2160146150b5565b9050806000015191505090565b60008060009054906101000a900473ffffffffffffffffffffffffffffffffffffffff16905090565b612b5f614fe1565b73ffffffffffffffffffffffffffffffffffffffff16612b7d612b2e565b73ffffffffffffffffffffffffffffffffffffffff1614612bd3576040517f08c379a0000000000000000000000000000000000000000000000000000000008152600401612bca906160f6565b60405180910390fd5b80600360016101000a81548173ffffffffffffffffffffffffffffffffffffffff021916908373ffffffffffffffffffffffffffffffffffffffff1602179055506001600360006101000a81548160ff02191690831515021790555050565b6000612c4882601261517a90919063ffffffff16565b9050919050565b612c57614fe1565b73ffffffffffffffffffffffffffffffffffffffff16612c75612b2e565b73ffffffffffffffffffffffffffffffffffffffff1614612ccb576040517f08c379a0000000000000000000000000000000000000000000000000000000008152600401612cc2906160f6565b60405180910390fd5b80600181905550670de0b6b3a764000081612ce69190616400565b60028190555050565b6000612cfb6012615194565b905090565b60003411612d43576040517f08c379a0000000000000000000000000000000000000000000000000000000008152600401612d3a90616176565b60405180910390fd5b6000600360019054906101000a900473ffffffffffffffffffffffffffffffffffffffff1690508073ffffffffffffffffffffffffffffffffffffffff166108fc349081150290604051600060405180830381858888f19350505050158015612db0573d6000803e3d6000fd5b5034601a6000828254612dc3919061633b565b92505081905550601e60009054906101000a900473ffffffffffffffffffffffffffffffffffffffff1673ffffffffffffffffffffffffffffffffffffffff16636039fbdb33612e38612710612e2a612e1b3361207a565b3461473c90919063ffffffff16565b61475290919063ffffffff16565b6040518363ffffffff1660e01b8152600401612e55929190615f4e565b600060405180830381600087803b158015612e6f57600080fd5b505af1158015612e83573d6000803e3d6000fd5b50505050601e60009054906101000a900473ffffffffffffffffffffffffffffffffffffffff1673ffffffffffffffffffffffffffffffffffffffff16636039fbdb602160009054906101000a900473ffffffffffffffffffffffffffffffffffffffff16612f17612710612f09612efa3361207a565b3461473c90919063ffffffff16565b61475290919063ffffffff16565b34612f22919061645a565b6040518363ffffffff1660e01b8152600401612f3f929190615f4e565b600060405180830381600087803b158015612f5957600080fd5b505af1158015612f6d573d6000803e3d6000fd5b50505050683635c9adc5dea00000601b54601a54612f8b919061645a565b10613007576000612fc4683635c9adc5dea00000612fb6601b54601a54614e5790919063ffffffff16565b61475290919063ffffffff16565b90508060176000828254612fd8919061633b565b9250508190555060025481612fed9190616400565b601b6000828254612ffe919061633b565b92505081905550505b601f60009054906101000a900473ffffffffffffffffffffffffffffffffffffffff1673ffffffffffffffffffffffffffffffffffffffff1663a9059cbb33602260009054906101000a900473ffffffffffffffffffffffffffffffffffffffff1673ffffffffffffffffffffffffffffffffffffffff16639dd040cb346040518263ffffffff1660e01b81526004016130a1919061624c565b60206040518083038186803b1580156130b957600080fd5b505afa1580156130cd573d6000803e3d6000fd5b505050506040513d601f19601f820116820180604052508101906130f191906159c9565b6040518363ffffffff1660e01b815260040161310e929190615f4e565b602060405180830381600087803b15801561312857600080fd5b505af115801561313c573d6000803e3d6000fd5b505050506040513d601f19601f820116820180604052508101906131609190615936565b503373ffffffffffffffffffffffffffffffffffffffff167ff5ebfcde71acb15a758233f0c9ab25632209399b90a9209a4f2379ec5fcee89f346040516131a7919061624c565b60405180910390a26131b7614be2565b6131c033614c93565b6131c933614e6d565b34600960000160008282546131de919061633b565b925050819055506131ed614768565b6132013360126151a990919063ffffffff16565b5050565b601960009054906101000a900473ffffffffffffffffffffffffffffffffffffffff1681565b60055481565b613239614fe1565b73ffffffffffffffffffffffffffffffffffffffff16613257612b2e565b73ffffffffffffffffffffffffffffffffffffffff16146132ad576040517f08c379a00000000000000000000000000000000000000000000000000000000081526004016132a4906160f6565b60405180910390fd5b6000600c60008473ffffffffffffffffffffffffffffffffffffffff1673ffffffffffffffffffffffffffffffffffffffff16815260200190815260200160002060000154905060008114156133035750613432565b61330c83614c93565b6000600c60008573ffffffffffffffffffffffffffffffffffffffff1673ffffffffffffffffffffffffffffffffffffffff168152602001908152602001600020600001819055506000600c60008573ffffffffffffffffffffffffffffffffffffffff1673ffffffffffffffffffffffffffffffffffffffff1681526020019081526020016000206001018190555061340b60405180604001604052808381526020018467ffffffffffffffff16815250600d60008673ffffffffffffffffffffffffffffffffffffffff1673ffffffffffffffffffffffffffffffffffffffff168152602001908152602001600020614f9890919063ffffffff16565b61341483614e6d565b8060096000016000828254613429919061645a565b92505081905550505b5050565b6000601860009054906101000a900473ffffffffffffffffffffffffffffffffffffffff1673ffffffffffffffffffffffffffffffffffffffff16602060009054906101000a900473ffffffffffffffffffffffffffffffffffffffff1673ffffffffffffffffffffffffffffffffffffffff1614156134ba57600454905061375b565b6001602060009054906101000a900473ffffffffffffffffffffffffffffffffffffffff1673ffffffffffffffffffffffffffffffffffffffff16637ea0abe7846040518263ffffffff1660e01b81526004016135179190615ee0565b60206040518083038186803b15801561352f57600080fd5b505afa158015613543573d6000803e3d6000fd5b505050506040513d601f19601f8201168201806040525081019061356791906159c9565b14156135a95760646032600454612710613581919061645a565b61358b9190616400565b61359591906163cf565b6127106135a2919061645a565b905061375b565b6002602060009054906101000a900473ffffffffffffffffffffffffffffffffffffffff1673ffffffffffffffffffffffffffffffffffffffff16637ea0abe7846040518263ffffffff1660e01b81526004016136069190615ee0565b60206040518083038186803b15801561361e57600080fd5b505afa158015613632573d6000803e3d6000fd5b505050506040513d601f19601f8201168201806040525081019061365691906159c9565b14156136985760646019600454612710613670919061645a565b61367a9190616400565b61368491906163cf565b612710613691919061645a565b905061375b565b6003602060009054906101000a900473ffffffffffffffffffffffffffffffffffffffff1673ffffffffffffffffffffffffffffffffffffffff16637ea0abe7846040518263ffffffff1660e01b81526004016136f59190615ee0565b60206040518083038186803b15801561370d57600080fd5b505afa158015613721573d6000803e3d6000fd5b505050506040513d601f19601f8201168201806040525081019061374591906159c9565b141561375557612710905061375b565b60045490505b919050565b601a5481565b600360009054906101000a900460ff166137b5576040517f08c379a00000000000000000000000000000000000000000000000000000000081526004016137ac90616076565b60405180910390fd5b6137e160405180602001604052808367ffffffffffffffff1681525060146151d990919063ffffffff16565b50565b6137ec614fe1565b73ffffffffffffffffffffffffffffffffffffffff1661380a612b2e565b73ffffffffffffffffffffffffffffffffffffffff1614613860576040517f08c379a0000000000000000000000000000000000000000000000000000000008152600401613857906160f6565b60405180910390fd5b60008167ffffffffffffffff1611801561388657506127108167ffffffffffffffff1611155b6138c5576040517f08c379a00000000000000000000000000000000000000000000000000000000081526004016138bc90616116565b60405180910390fd5b8067ffffffffffffffff1660048190555050565b60006014600001546014600101546138f1919061645a565b905090565b6000806000806000601e60009054906101000a900473ffffffffffffffffffffffffffffffffffffffff16601f60009054906101000a900473ffffffffffffffffffffffffffffffffffffffff16602160009054906101000a900473ffffffffffffffffffffffffffffffffffffffff16602060009054906101000a900473ffffffffffffffffffffffffffffffffffffffff16602260009054906101000a900473ffffffffffffffffffffffffffffffffffffffff16945094509450945094509091929394565b601860009054906101000a900473ffffffffffffffffffffffffffffffffffffffff1681565b6000806000600c60008573ffffffffffffffffffffffffffffffffffffffff1673ffffffffffffffffffffffffffffffffffffffff168152602001908152602001600020600401549050600060085490506000600e60010154613a456150ad565b613a4f919061645a565b90506000601160008873ffffffffffffffffffffffffffffffffffffffff1673ffffffffffffffffffffffffffffffffffffffff168152602001908152602001600020604051806060016040529081600082015481526020016001820154815260200160028201548152505090506000821115613b12576000613af9600e60000154613aeb662386f26fc100008661473c90919063ffffffff16565b61475290919063ffffffff16565b9050613b0e8185614e4190919063ffffffff16565b9350505b600081600001511115613b89576000613b67662386f26fc10000613b598460000151613b4b866020015189614e5790919063ffffffff16565b61473c90919063ffffffff16565b61475290919063ffffffff16565b9050613b85613b76828a615218565b86614e4190919063ffffffff16565b9450505b83602260009054906101000a900473ffffffffffffffffffffffffffffffffffffffff1673ffffffffffffffffffffffffffffffffffffffff16630f59a493866040518263ffffffff1660e01b8152600401613be5919061624c565b60206040518083038186803b158015613bfd57600080fd5b505afa158015613c11573d6000803e3d6000fd5b505050506040513d601f19601f82011682018060405250810190613c3591906159c9565b9550955050505050915091565b600360009054906101000a900460ff16613c91576040517f08c379a0000000000000000000000000000000000000000000000000000000008152600401613c8890616076565b60405180910390fd5b613c9a81614bbf565b8015613d535750602360009054906101000a900473ffffffffffffffffffffffffffffffffffffffff1673ffffffffffffffffffffffffffffffffffffffff16602460008373ffffffffffffffffffffffffffffffffffffffff1673ffffffffffffffffffffffffffffffffffffffff16815260200190815260200160002060009054906101000a900473ffffffffffffffffffffffffffffffffffffffff1673ffffffffffffffffffffffffffffffffffffffff1614155b15613e2357602460008273ffffffffffffffffffffffffffffffffffffffff1673ffffffffffffffffffffffffffffffffffffffff16815260200190815260200160002060009054906101000a900473ffffffffffffffffffffffffffffffffffffffff1673ffffffffffffffffffffffffffffffffffffffff16633f8d19cd826040518263ffffffff1660e01b8152600401613df09190615ee0565b600060405180830381600087803b158015613e0a57600080fd5b505af1158015613e1e573d6000803e3d6000fd5b505050505b613e2c82614bbf565b8015613ee55750602360009054906101000a900473ffffffffffffffffffffffffffffffffffffffff1673ffffffffffffffffffffffffffffffffffffffff16602460008473ffffffffffffffffffffffffffffffffffffffff1673ffffffffffffffffffffffffffffffffffffffff16815260200190815260200160002060009054906101000a900473ffffffffffffffffffffffffffffffffffffffff1673ffffffffffffffffffffffffffffffffffffffff1614155b15613fb557602460008373ffffffffffffffffffffffffffffffffffffffff1673ffffffffffffffffffffffffffffffffffffffff16815260200190815260200160002060009054906101000a900473ffffffffffffffffffffffffffffffffffffffff1673ffffffffffffffffffffffffffffffffffffffff16633f8d19cd836040518263ffffffff1660e01b8152600401613f829190615ee0565b600060405180830381600087803b158015613f9c57600080fd5b505af1158015613fb0573d6000803e3d6000fd5b505050505b613fbd614be2565b613fc682614c93565b613fcf82614e6d565b613fd881614c93565b613fe181614e6d565b601e60009054906101000a900473ffffffffffffffffffffffffffffffffffffffff1673ffffffffffffffffffffffffffffffffffffffff166370a08231836040518263ffffffff1660e01b815260040161403c9190615ee0565b60206040518083038186803b15801561405457600080fd5b505afa158015614068573d6000803e3d6000fd5b505050506040513d601f19601f8201168201806040525081019061408c91906159c9565b600c60008473ffffffffffffffffffffffffffffffffffffffff1673ffffffffffffffffffffffffffffffffffffffff16815260200190815260200160002060000181905550601e60009054906101000a900473ffffffffffffffffffffffffffffffffffffffff1673ffffffffffffffffffffffffffffffffffffffff166370a08231826040518263ffffffff1660e01b815260040161412d9190615ee0565b60206040518083038186803b15801561414557600080fd5b505afa158015614159573d6000803e3d6000fd5b505050506040513d601f19601f8201168201806040525081019061417d91906159c9565b600c60008373ffffffffffffffffffffffffffffffffffffffff1673ffffffffffffffffffffffffffffffffffffffff168152602001908152602001600020600001819055506141d78160126151a990919063ffffffff16565b506000600c60008473ffffffffffffffffffffffffffffffffffffffff1673ffffffffffffffffffffffffffffffffffffffff16815260200190815260200160002060000154141561423957614237826012614b8f90919063ffffffff16565b505b614241614768565b5050565b61424d615685565b6000600c60008473ffffffffffffffffffffffffffffffffffffffff1673ffffffffffffffffffffffffffffffffffffffff1681526020019081526020016000206040518060a00160405290816000820154815260200160018201548152602001600282015481526020016003820154815260200160048201548152505090506000614316600d60008673ffffffffffffffffffffffffffffffffffffffff1673ffffffffffffffffffffffffffffffffffffffff168152602001908152602001600020615251565b9050808260400181815161432a919061633b565b915081815250508082602001818151614343919061645a565b915081815250508192505050919050565b61435c614fe1565b73ffffffffffffffffffffffffffffffffffffffff1661437a612b2e565b73ffffffffffffffffffffffffffffffffffffffff16146143d0576040517f08c379a00000000000000000000000000000000000000000000000000000000081526004016143c7906160f6565b60405180910390fd5b8067ffffffffffffffff1660058190555050565b6143ec614fe1565b73ffffffffffffffffffffffffffffffffffffffff1661440a612b2e565b73ffffffffffffffffffffffffffffffffffffffff1614614460576040517f08c379a0000000000000000000000000000000000000000000000000000000008152600401614457906160f6565b60405180910390fd5b80601960006101000a81548173ffffffffffffffffffffffffffffffffffffffff021916908373ffffffffffffffffffffffffffffffffffffffff16021790555050565b6144ac614fe1565b73ffffffffffffffffffffffffffffffffffffffff166144ca612b2e565b73ffffffffffffffffffffffffffffffffffffffff1614614520576040517f08c379a0000000000000000000000000000000000000000000000000000000008152600401614517906160f6565b60405180910390fd5b600061452c6012615194565b9050600081141561453d57506145ab565b614545614be2565b60008385614553919061633b565b905081811115614561578190505b60008590505b8181101561459f5761458c61458682601261517a90919063ffffffff16565b85613231565b80806145979061658f565b915050614567565b506145a8614768565b50505b505050565b6145b8614fe1565b73ffffffffffffffffffffffffffffffffffffffff166145d6612b2e565b73ffffffffffffffffffffffffffffffffffffffff161461462c576040517f08c379a0000000000000000000000000000000000000000000000000000000008152600401614623906160f6565b60405180910390fd5b600073ffffffffffffffffffffffffffffffffffffffff168173ffffffffffffffffffffffffffffffffffffffff16141561469c576040517f08c379a000000000000000000000000000000000000000000000000000000000815260040161469390616016565b60405180910390fd5b6146a581614fe9565b50565b600680546146b59061652c565b80601f01602080910402602001604051908101604052809291908181526020018280546146e19061652c565b801561472e5780601f106147035761010080835404028352916020019161472e565b820191906000526020600020905b81548152906001019060200180831161471157829003601f168201915b505050505081565b60085481565b6000818361474a9190616400565b905092915050565b6000818361476091906163cf565b905092915050565b600960000154600e6000018190555061477f6150ad565b600e60010181905550614790614f90565b600e60020181905550565b606060008367ffffffffffffffff1685600001546147b9919061633b565b90508460010154811061484957600067ffffffffffffffff811115614807577f4e487b7100000000000000000000000000000000000000000000000000000000600052604160045260246000fd5b60405190808252806020026020018201604052801561484057816020015b61482d6156b4565b8152602001906001900390816148255790505b509150506149ac565b60008367ffffffffffffffff1682614861919061633b565b9050856001015481111561487757856001015490505b60008282614885919061645a565b67ffffffffffffffff8111156148c4577f4e487b7100000000000000000000000000000000000000000000000000000000600052604160045260246000fd5b6040519080825280602002602001820160405280156148fd57816020015b6148ea6156b4565b8152602001906001900390816148e25790505b50905060008390505b828110156149a4578760020160008281526020019081526020016000206040518060400160405290816000820154815260200160018201548152505082858361494f919061645a565b81518110614986577f4e487b7100000000000000000000000000000000000000000000000000000000600052603260045260246000fd5b6020026020010181905250808061499c9061658f565b915050614906565b508093505050505b9392505050565b60606000826000015483600101546149cb919061645a565b67ffffffffffffffff811115614a0a577f4e487b7100000000000000000000000000000000000000000000000000000000600052604160045260246000fd5b604051908082528060200260200182016040528015614a4357816020015b614a306156b4565b815260200190600190039081614a285790505b5090506000836000015490505b8360010154811015614af6578360020160008281526020019081526020016000206040518060400160405290816000820154815260200160018201548152505082856000015483614aa1919061645a565b81518110614ad8577f4e487b7100000000000000000000000000000000000000000000000000000000600052603260045260246000fd5b60200260200101819052508080614aee9061658f565b915050614a50565b5080915050919050565b600080600090506000836000015490505b8360010154811015614b855743846002016000838152602001908152602001600020600101541115614b4257614b85565b8360020160008281526020019081526020016000206000015482614b66919061633b565b9150614b71846152d6565b508080614b7d9061658f565b915050614b11565b5080915050919050565b6000614bb7836000018373ffffffffffffffffffffffffffffffffffffffff1660001b615363565b905092915050565b6000808273ffffffffffffffffffffffffffffffffffffffff163b119050919050565b6000600e60010154614bf26150ad565b614bfc919061645a565b90506000811480614c1257506000600e60000154145b15614c1d5750614c91565b6000614c3e662386f26fc10000600e6000015461475290919063ffffffff16565b9050614c67614c56828461475290919063ffffffff16565b600854614e4190919063ffffffff16565b600881905550614c8582600960020154614e4190919063ffffffff16565b60096002018190555050505b565b6000601160008373ffffffffffffffffffffffffffffffffffffffff1673ffffffffffffffffffffffffffffffffffffffff16815260200190815260200160002060405180606001604052908160008201548152602001600182015481526020016002820154815250509050600081600001511415614d125750614e3e565b6000614d5c662386f26fc10000614d4e8460000151614d408660200151600854614e5790919063ffffffff16565b61473c90919063ffffffff16565b61475290919063ffffffff16565b90506000614d6a8285615218565b9050614dc181600c60008773ffffffffffffffffffffffffffffffffffffffff1673ffffffffffffffffffffffffffffffffffffffff16815260200190815260200160002060040154614e4190919063ffffffff16565b600c60008673ffffffffffffffffffffffffffffffffffffffff1673ffffffffffffffffffffffffffffffffffffffff16815260200190815260200160002060040181905550614e31614e1d8284614e5790919063ffffffff16565b600960010154614e4190919063ffffffff16565b6009600101819055505050505b50565b60008183614e4f919061633b565b905092915050565b60008183614e65919061645a565b905092915050565b600c60008273ffffffffffffffffffffffffffffffffffffffff1673ffffffffffffffffffffffffffffffffffffffff16815260200190815260200160002060000154601160008373ffffffffffffffffffffffffffffffffffffffff1673ffffffffffffffffffffffffffffffffffffffff16815260200190815260200160002060000181905550600854601160008373ffffffffffffffffffffffffffffffffffffffff1673ffffffffffffffffffffffffffffffffffffffff16815260200190815260200160002060010181905550614f47614f90565b601160008373ffffffffffffffffffffffffffffffffffffffff1673ffffffffffffffffffffffffffffffffffffffff1681526020019081526020016000206002018190555050565b600043905090565b80826002016000846001016000815480929190614fb49061658f565b91905055815260200190815260200160002060008201518160000155602082015181600101559050505050565b600033905090565b60008060009054906101000a900473ffffffffffffffffffffffffffffffffffffffff169050816000806101000a81548173ffffffffffffffffffffffffffffffffffffffff021916908373ffffffffffffffffffffffffffffffffffffffff1602179055508173ffffffffffffffffffffffffffffffffffffffff168173ffffffffffffffffffffffffffffffffffffffff167f8be0079c531659141344cd1fd0a4f28419497f9722a3daafe3b4186f6b6457e060405160405180910390a35050565b600047905090565b6150bd6156ce565b8160010154826000015410615107576040517f08c379a00000000000000000000000000000000000000000000000000000000081526004016150fe90615fd6565b60405180910390fd5b60008260020160008460000154815260200190815260200160002060405180602001604052908160008201548152505090508260020160008460000160008154809291906151549061658f565b919050558152602001908152602001600020600080820160009055505080915050919050565b600061518983600001836154e9565b60001c905092915050565b60006151a28260000161553a565b9050919050565b60006151d1836000018373ffffffffffffffffffffffffffffffffffffffff1660001b61554b565b905092915050565b808260020160008460010160008154809291906151f59061658f565b919050558152602001908152602001600020600082015181600001559050505050565b600061524961271061523b61522c85613436565b8661473c90919063ffffffff16565b61475290919063ffffffff16565b905092915050565b600080600090506000836000015490505b83600101548110156152cc5743846002016000838152602001908152602001600020600101541115615293576152cc565b83600201600082815260200190815260200160002060000154826152b7919061633b565b915080806152c49061658f565b915050615262565b5080915050919050565b6152de6156b4565b6000826002016000846000015481526020019081526020016000206040518060400160405290816000820154815260200160018201548152505090508260020160008460000160008154809291906153359061658f565b9190505581526020019081526020016000206000808201600090556001820160009055505080915050919050565b600080836001016000848152602001908152602001600020549050600081146154dd576000600182615395919061645a565b90506000600186600001805490506153ad919061645a565b90508181146154685760008660000182815481106153f4577f4e487b7100000000000000000000000000000000000000000000000000000000600052603260045260246000fd5b906000526020600020015490508087600001848154811061543e577f4e487b7100000000000000000000000000000000000000000000000000000000600052603260045260246000fd5b90600052602060002001819055508387600101600083815260200190815260200160002081905550505b856000018054806154a2577f4e487b7100000000000000000000000000000000000000000000000000000000600052603160045260246000fd5b6001900381819060005260206000200160009055905585600101600086815260200190815260200160002060009055600193505050506154e3565b60009150505b92915050565b6000826000018281548110615527577f4e487b7100000000000000000000000000000000000000000000000000000000600052603260045260246000fd5b9060005260206000200154905092915050565b600081600001805490509050919050565b600061555783836155bb565b6155b05782600001829080600181540180825580915050600190039060005260206000200160009091909190915055826000018054905083600101600084815260200190815260200160002081905550600190506155b5565b600090505b92915050565b600080836001016000848152602001908152602001600020541415905092915050565b8280546155ea9061652c565b90600052602060002090601f01602090048101928261560c5760008555615653565b82601f1061562557805160ff1916838001178555615653565b82800160010185558215615653579182015b82811115615652578251825591602001919060010190615637565b5b50905061566091906156e1565b5090565b60405180606001604052806000815260200160008152602001600081525090565b6040518060a0016040528060008152602001600081526020016000815260200160008152602001600081525090565b604051806040016040528060008152602001600081525090565b6040518060200160405280600081525090565b5b808211156156fa5760008160009055506001016156e2565b5090565b600061571161570c846162b5565b616290565b90508281526020810184848401111561572957600080fd5b6157348482856164ea565b509392505050565b60008135905061574b81616a1f565b92915050565b60008151905061576081616a36565b92915050565b600082601f83011261577757600080fd5b81356157878482602086016156fe565b91505092915050565b60008135905061579f81616a4d565b92915050565b6000815190506157b481616a4d565b92915050565b6000813590506157c981616a64565b92915050565b6000602082840312156157e157600080fd5b60006157ef8482850161573c565b91505092915050565b6000806040838503121561580b57600080fd5b60006158198582860161573c565b925050602061582a8582860161573c565b9150509250929050565b600080600080600060a0868803121561584c57600080fd5b600061585a8882890161573c565b955050602061586b8882890161573c565b945050604061587c8882890161573c565b935050606061588d8882890161573c565b925050608061589e8882890161573c565b9150509295509295909350565b600080604083850312156158be57600080fd5b60006158cc8582860161573c565b92505060206158dd858286016157ba565b9150509250929050565b6000806000606084860312156158fc57600080fd5b600061590a8682870161573c565b935050602061591b868287016157ba565b925050604061592c868287016157ba565b9150509250925092565b60006020828403121561594857600080fd5b600061595684828501615751565b91505092915050565b60006020828403121561597157600080fd5b600082013567ffffffffffffffff81111561598b57600080fd5b61599784828501615766565b91505092915050565b6000602082840312156159b257600080fd5b60006159c084828501615790565b91505092915050565b6000602082840312156159db57600080fd5b60006159e9848285016157a5565b91505092915050565b60008060408385031215615a0557600080fd5b6000615a1385828601615790565b9250506020615a248582860161573c565b9150509250929050565b600080600060608486031215615a4357600080fd5b6000615a5186828701615790565b9350506020615a6286828701615790565b9250506040615a73868287016157ba565b9150509250925092565b600060208284031215615a8f57600080fd5b6000615a9d848285016157ba565b91505092915050565b6000615ab28383615e2b565b60408301905092915050565b615ac78161648e565b82525050565b6000615ad8826162f6565b615ae28185616319565b9350615aed836162e6565b8060005b83811015615b1e578151615b058882615aa6565b9750615b108361630c565b925050600181019050615af1565b5085935050505092915050565b615b34816164a0565b82525050565b6000615b4582616301565b615b4f818561632a565b9350615b5f8185602086016164f9565b615b6881616694565b840191505092915050565b6000615b80600e8361632a565b9150615b8b826166a5565b602082019050919050565b6000615ba3602a8361632a565b9150615bae826166ce565b604082019050919050565b6000615bc660268361632a565b9150615bd18261671d565b604082019050919050565b6000615be9600a8361632a565b9150615bf48261676c565b602082019050919050565b6000615c0c60108361632a565b9150615c1782616795565b602082019050919050565b6000615c2f60128361632a565b9150615c3a826167be565b602082019050919050565b6000615c5260108361632a565b9150615c5d826167e7565b602082019050919050565b6000615c75601e8361632a565b9150615c8082616810565b602082019050919050565b6000615c98602e8361632a565b9150615ca382616839565b604082019050919050565b6000615cbb60208361632a565b9150615cc682616888565b602082019050919050565b6000615cde60178361632a565b9150615ce9826168b1565b602082019050919050565b6000615d01600e8361632a565b9150615d0c826168da565b602082019050919050565b6000615d2460158361632a565b9150615d2f82616903565b602082019050919050565b6000615d4760088361632a565b9150615d528261692c565b602082019050919050565b6000615d6a60168361632a565b9150615d7582616955565b602082019050919050565b6000615d8d602e8361632a565b9150615d988261697e565b604082019050919050565b6000615db060138361632a565b9150615dbb826169cd565b602082019050919050565b6000615dd360168361632a565b9150615dde826169f6565b602082019050919050565b606082016000820151615dff6000850182615ec2565b506020820151615e126020850182615ec2565b506040820151615e256040850182615ec2565b50505050565b604082016000820151615e416000850182615ec2565b506020820151615e546020850182615ec2565b50505050565b60a082016000820151615e706000850182615ec2565b506020820151615e836020850182615ec2565b506040820151615e966040850182615ec2565b506060820151615ea96060850182615ec2565b506080820151615ebc6080850182615ec2565b50505050565b615ecb816164cc565b82525050565b615eda816164cc565b82525050565b6000602082019050615ef56000830184615abe565b92915050565b600060a082019050615f106000830188615abe565b615f1d6020830187615abe565b615f2a6040830186615abe565b615f376060830185615abe565b615f446080830184615abe565b9695505050505050565b6000604082019050615f636000830185615abe565b615f706020830184615ed1565b9392505050565b60006020820190508181036000830152615f918184615acd565b905092915050565b6000602082019050615fae6000830184615b2b565b92915050565b60006020820190508181036000830152615fce8184615b3a565b905092915050565b60006020820190508181036000830152615fef81615b73565b9050919050565b6000602082019050818103600083015261600f81615b96565b9050919050565b6000602082019050818103600083015261602f81615bb9565b9050919050565b6000602082019050818103600083015261604f81615bdc565b9050919050565b6000602082019050818103600083015261606f81615bff565b9050919050565b6000602082019050818103600083015261608f81615c22565b9050919050565b600060208201905081810360008301526160af81615c45565b9050919050565b600060208201905081810360008301526160cf81615c68565b9050919050565b600060208201905081810360008301526160ef81615c8b565b9050919050565b6000602082019050818103600083015261610f81615cae565b9050919050565b6000602082019050818103600083015261612f81615cd1565b9050919050565b6000602082019050818103600083015261614f81615cf4565b9050919050565b6000602082019050818103600083015261616f81615d17565b9050919050565b6000602082019050818103600083015261618f81615d3a565b9050919050565b600060208201905081810360008301526161af81615d5d565b9050919050565b600060208201905081810360008301526161cf81615d80565b9050919050565b600060208201905081810360008301526161ef81615da3565b9050919050565b6000602082019050818103600083015261620f81615dc6565b9050919050565b600060608201905061622b6000830184615de9565b92915050565b600060a0820190506162466000830184615e5a565b92915050565b60006020820190506162616000830184615ed1565b92915050565b600060408201905061627c6000830185615ed1565b6162896020830184615ed1565b9392505050565b600061629a6162ab565b90506162a6828261655e565b919050565b6000604051905090565b600067ffffffffffffffff8211156162d0576162cf616665565b5b6162d982616694565b9050602081019050919050565b6000819050602082019050919050565b600081519050919050565b600081519050919050565b6000602082019050919050565b600082825260208201905092915050565b600082825260208201905092915050565b6000616346826164cc565b9150616351836164cc565b9250827fffffffffffffffffffffffffffffffffffffffffffffffffffffffffffffffff03821115616386576163856165d8565b5b828201905092915050565b600061639c826164d6565b91506163a7836164d6565b92508267ffffffffffffffff038211156163c4576163c36165d8565b5b828201905092915050565b60006163da826164cc565b91506163e5836164cc565b9250826163f5576163f4616607565b5b828204905092915050565b600061640b826164cc565b9150616416836164cc565b9250817fffffffffffffffffffffffffffffffffffffffffffffffffffffffffffffffff048311821515161561644f5761644e6165d8565b5b828202905092915050565b6000616465826164cc565b9150616470836164cc565b925082821015616483576164826165d8565b5b828203905092915050565b6000616499826164ac565b9050919050565b60008115159050919050565b600073ffffffffffffffffffffffffffffffffffffffff82169050919050565b6000819050919050565b600067ffffffffffffffff82169050919050565b82818337600083830152505050565b60005b838110156165175780820151818401526020810190506164fc565b83811115616526576000848401525b50505050565b6000600282049050600182168061654457607f821691505b6020821081141561655857616557616636565b5b50919050565b61656782616694565b810181811067ffffffffffffffff8211171561658657616585616665565b5b80604052505050565b600061659a826164cc565b91507fffffffffffffffffffffffffffffffffffffffffffffffffffffffffffffffff8214156165cd576165cc6165d8565b5b600182019050919050565b7f4e487b7100000000000000000000000000000000000000000000000000000000600052601160045260246000fd5b7f4e487b7100000000000000000000000000000000000000000000000000000000600052601260045260246000fd5b7f4e487b7100000000000000000000000000000000000000000000000000000000600052602260045260246000fd5b7f4e487b7100000000000000000000000000000000000000000000000000000000600052604160045260246000fd5b6000601f19601f8301169050919050565b7f517565756520697320656d707479000000000000000000000000000000000000600082015250565b7f6d73672e76616c75652073686f756c6420626520766f7465506f776572202a2060008201527f3130303020657468657200000000000000000000000000000000000000000000602082015250565b7f4f776e61626c653a206e6577206f776e657220697320746865207a65726f206160008201527f6464726573730000000000000000000000000000000000000000000000000000602082015250565b7f4d7573742061646d696e00000000000000000000000000000000000000000000600082015250565b7f63616e7420626520436f6e747261637400000000000000000000000000000000600082015250565b7f506f6f6c206973206e6f74207365747465640000000000000000000000000000600082015250565b7f4d75737420626520436f6e747261637400000000000000000000000000000000600082015250565b7f576974686472617761626c6520434658206973206e6f7420656e6f7567680000600082015250565b7f496e697469616c697a61626c653a20636f6e747261637420697320616c72656160008201527f647920696e697469616c697a6564000000000000000000000000000000000000602082015250565b7f4f776e61626c653a2063616c6c6572206973206e6f7420746865206f776e6572600082015250565b7f726174696f2073686f756c6420626520312d3130303030000000000000000000600082015250565b7f4578636565642062616c616e6365000000000000000000000000000000000000600082015250565b7f4e6f20636c61696d61626c6520696e7465726573740000000000000000000000600082015250565b7f6d757374203e2030000000000000000000000000000000000000000000000000600082015250565b7f4f6e6c792062726964676520697320616c6c6f77656400000000000000000000600082015250565b7f63726f7373696e67566f7465732073686f756c6420626520677265617465722060008201527f7468616e20766f7465506f776572000000000000000000000000000000000000602082015250565b7f496e746572657374206e6f7420656e6f75676800000000000000000000000000600082015250565b7f556e6c6f636b6564206973206e6f7420656e6f75676800000000000000000000600082015250565b616a288161648e565b8114616a3357600080fd5b50565b616a3f816164a0565b8114616a4a57600080fd5b50565b616a56816164cc565b8114616a6157600080fd5b50565b616a6d816164d6565b8114616a7857600080fd5b5056fea2646970667358221220b978d3bb2e7c99af4cf9b3c855d79373dc13c074ff8175ecb2b266fa8fd16f9364736f6c63430008020033",
  "immutableReferences": {},
  "source": "//SPDX-License-Identifier: BUSL-1.1\npragma solidity ^0.8.0;\n\nimport \"@openzeppelin/contracts/token/ERC20/ERC20.sol\";\nimport \"@openzeppelin/contracts/access/Ownable.sol\";\nimport \"@openzeppelin/contracts/utils/math/SafeMath.sol\";\nimport \"@openzeppelin/contracts/utils/structs/EnumerableSet.sol\";\nimport \"@openzeppelin/contracts/proxy/utils/Initializable.sol\";\nimport \"../VotePowerQueue.sol\";\nimport \"./iface_espace.sol\";\nimport \"./UnstakeQueue.sol\";\nimport \"./XETdistribute.sol\";\nimport \"./contractpoolerc20.sol\";\n\n// interface XCFXExchange{\n//     function addTokens(address _to, uint256 _value) external;\n//     function burnTokens(address account, uint256 amount) external;\n//     function balanceOf(address account) external view returns(uint256);\n//     function totalSupply() external view returns(uint256);\n// }\n// interface XVIPI{\n//     function tokensOf(address account) external view returns (uint256[] memory _tokens);\n//     function Maxlevelof(address account) external view returns (uint256 level);\n// }\n///\n///  @title eSpace PoSPool\n///\ncontract ESpacePoSPool is Ownable,Initializable {\n  using SafeMath for uint256;\n  using EnumerableSet for EnumerableSet.AddressSet;\n  using VotePowerQueue for VotePowerQueue.InOutQueue;\n  using UnstakeQueue for UnstakeQueue.Queue;\n\n  uint256 private constant RATIO_BASE = 10000;\n  uint256 private constant ONE_DAY_BLOCK_COUNT = 3600 * 24;\n  uint256 private CFX_COUNT_OF_ONE_VOTE = 1000;\n  uint256 private CFX_VALUE_OF_ONE_VOTE = 1000 ether;\n  \n  \n  // ======================== Pool config =========================\n  // wheter this poolContract registed in PoS\n  bool public birdgeAddrSetted;\n  address private _bridgeAddress;\n  // ratio shared by user: 1-10000\n  uint256 public poolUserShareRatio = 9000;\n  // lock period: 7 days + half hour\n  uint256 public _poolLockPeriod = ONE_DAY_BLOCK_COUNT * 14;\n  string public poolName; // = \"eSpacePool\";\n  uint256 private _poolAPY = 0;\n\n  // ======================== Contract states =========================\n  // global pool accumulative reward for each cfx\n  uint256 public accRewardPerCfx;  // start from 0\n\n  PoolSummary private _poolSummary;\n  mapping(address => UserSummary) private userSummaries;\n  //mapping(address => VotePowerQueue.InOutQueue) private userInqueues;\n  mapping(address => VotePowerQueue.InOutQueue) private userOutqueues;\n\n  PoolShot internal lastPoolShot;\n  mapping(address => UserShot) internal lastUserShots;\n  \n  EnumerableSet.AddressSet private stakers;\n  // Unstake votes queue\n  UnstakeQueue.Queue public unstakeQueue;  //private--debug\n\n  // Currently withdrawable CFX\n  //uint256 public withdrawableCfx;\n  // Votes need to cross from eSpace to Core\n  uint256 public crossingVotes;\n\n  // ======================== XCFX use ===================================\n  address public owner_addr;\n  address public admin_addr;\n\n  uint256 public total_minted;\n  uint256 public total_minted_inpool;//total_minted >= total_minted_inpool\n  uint256 public total_burned;\n  uint256 public total_burned_inpool;//total_burned_inpool >= total_burned\n  address XCFX_address;\n  address XET_address;\n  address XVIP_address;\n  address Storage_room_addr;\n  address XET_Distribute_addr;\n  address zero_addr=address(0x0000000000000000000000000000000000000000);\n  mapping(address => address) contract_erc20_addr;\n\n\n  // ======================== Struct definitions =========================\n  struct PoolSummary {\n    uint256 available;  //available is XCFX SUM (1 ether XCFX === 1 e18)\n    uint256 interest; // PoS pool current interest\n    uint256 totalInterest; // total historical interest of whole pools\n  }\n\n  /// @title UserSummary\n  /// @custom:field votes User's total votes\n  /// @custom:field available User's avaliable votes\n  /// @custom:field locked\n  /// @custom:field unlocked\n  /// @custom:field claimedInterest\n  /// @custom:field currentInterest\n  struct UserSummary {\n    //uint256 votes;  // Total votes in PoS system, including locking, locked, unlocking, unlocked\n    uint256 available; // XCFX SUM (1 ether XCFX === 1e18)\n    uint256 unlocking;\n    uint256 unlocked;\n    uint256 claimedInterest; // total historical claimed interest\n    uint256 currentInterest; // current claimable interest\n  }\n\n  struct PoolShot {\n    uint256 available; // XCFX SUM (1 ether XCFX === 1)\n    uint256 balance;\n    uint256 blockNumber;\n  } \n\n  struct UserShot {\n    uint256 available; // XCFX SUM (1 ether XCFX === 1)\n    uint256 accRewardPerCfx;\n    uint256 blockNumber;\n  }\n\n  // ======================== Modifiers =========================\n  modifier onlyRegisted() {\n    require(birdgeAddrSetted, \"Pool is not setted\");\n    _;\n  }\n\n  modifier onlyBridge() {\n    require(msg.sender == _bridgeAddress, \"Only bridge is allowed\");\n    _;\n  }\n\n  // ======================== Helpers =========================\n  function _selfBalance() internal view virtual returns (uint256) {\n    return address(this).balance;\n  }\n\n  function _blockNumber() internal view virtual returns (uint256) {\n    return block.number;\n  }\n\n  function _userShareRatio(address _user) public view returns (uint256) {\n    if (XVIP_address==owner_addr) return poolUserShareRatio;\n    if (XVIPI(XVIP_address).Maxlevelof(_user)==1) return RATIO_BASE-((RATIO_BASE-poolUserShareRatio)*50/100);\n    if (XVIPI(XVIP_address).Maxlevelof(_user)==2) return RATIO_BASE-((RATIO_BASE-poolUserShareRatio)*25/100);\n    if (XVIPI(XVIP_address).Maxlevelof(_user)==3) return RATIO_BASE;\n    return poolUserShareRatio;\n  }\n\n  function _calUserShare(uint256 reward, address _stakerAddress) private view returns (uint256) {\n    return reward.mul(_userShareRatio(_stakerAddress)).div(RATIO_BASE);\n  }\n\n  function _userInputRatio(address _user) public view returns (uint256) {\n    return 9000 + _userShareRatio(_user).div(10);\n  }\n\n  // used to update lastPoolShot after _poolSummary.available changed \n  function _updatePoolShot() private {\n    lastPoolShot.available = _poolSummary.available;\n    lastPoolShot.balance = _selfBalance();\n    lastPoolShot.blockNumber = _blockNumber();\n  }\n\n  // used to update lastUserShot after userSummary.available and accRewardPerCfx changed\n  function _updateUserShot(address _user) private {\n    lastUserShots[_user].available = userSummaries[_user].available;\n    lastUserShots[_user].accRewardPerCfx = accRewardPerCfx;\n    lastUserShots[_user].blockNumber = _blockNumber();\n  }\n\n  // used to update accRewardPerCfx after _poolSummary.available changed or user claimed interest\n  // depend on: lastPoolShot.available and lastPoolShot.balance\n  function _updateAccRewardPerCfx() private {\n    uint256 reward = _selfBalance() - lastPoolShot.balance;\n    if (reward == 0 || lastPoolShot.available == 0) return;\n    // update global accRewardPerCfx\n    uint256 cfxCount = lastPoolShot.available.div(0.01 ether);//.mul(CFX_COUNT_OF_ONE_VOTE);\n    accRewardPerCfx = accRewardPerCfx.add(reward.div(cfxCount));\n    // update pool interest info\n    _poolSummary.totalInterest = _poolSummary.totalInterest.add(reward);\n  }\n\n  // depend on: accRewardPerCfx and lastUserShot\n  function _updateUserInterest(address _user) private {\n    UserShot memory uShot = lastUserShots[_user];\n    if (uShot.available == 0) return;\n    uint256 latestInterest = accRewardPerCfx.sub(uShot.accRewardPerCfx).mul(uShot.available).div(0.01 ether); //.mul(CFX_COUNT_OF_ONE_VOTE)\n    uint256 _userInterest = _calUserShare(latestInterest, _user);\n    userSummaries[_user].currentInterest = userSummaries[_user].currentInterest.add(_userInterest);\n    _poolSummary.interest = _poolSummary.interest.add(latestInterest.sub(_userInterest));\n  }\n\n\n  // ======================== Events =========================\n\n  event IncreasePoSStake(address indexed user, uint256 votePower);\n\n  event DecreasePoSStake(address indexed user, uint256 votePower);\n\n  event WithdrawStake(address indexed user, uint256 votePower);\n\n  event ClaimInterest(address indexed user, uint256 amount);\n\n  //event RatioChanged(uint256 ratio);\n\n  // ======================== Init methods =========================\n\n  // call this method when depoly the 1967 proxy contract\n  function initialize() public initializer {\n    CFX_COUNT_OF_ONE_VOTE = 1000;\n    CFX_VALUE_OF_ONE_VOTE = 1000 ether;\n    _poolLockPeriod = ONE_DAY_BLOCK_COUNT * 14;\n    poolUserShareRatio = 9000;\n    owner_addr = msg.sender;\n    XVIP_address = msg.sender;\n  }\n\n  // ======================== Contract methods =========================\n\n  //--------------------------------------------------------------------all new function for XCFX  \n  // modifier onlyOwner() {\n  //       require(msg.sender == owner_addr, 'Must Owner');\n  //       _;\n  //   }\n  modifier only_admin() {\n        require(msg.sender == admin_addr, 'Must admin');\n        _;\n    }\n  function set_admin(address _admin_addr) external onlyOwner {\n        admin_addr=_admin_addr;\n    } \n  function get_admin() external view returns(address){\n    //require(_address==msg.sender,'1');\n    return(admin_addr);\n    }\n  function set_Settings(address _XVIP_addr,address _XET_addr,address _XCFX_addr,address _S_addr,address _distr) external onlyOwner {\n        XVIP_address = _XVIP_addr;\n        XET_address = _XET_addr;\n        XCFX_address = _XCFX_addr;\n        Storage_room_addr = _S_addr;\n        XET_Distribute_addr = _distr;\n    }  \n\n  function get_Settings() external view returns(address,address,address,address,address){\n    //require(_address==msg.sender,'1');\n    return (XCFX_address,XET_address,Storage_room_addr,XVIP_address,XET_Distribute_addr);\n    }\n  function isContract(address account) internal view returns (bool) {\n        // This method relies on extcodesize/address.code.length, which returns 0\n        // for contracts in construction, since the code is only stored at the end\n        // of the constructor execution.\n\n        return account.code.length > 0;\n    }\n  //\n  // @notice CFX_to_XCFX\n  //\n  function CFX_to_XCFX_estim(uint256 _amount, address _addr) public view returns(uint256,uint256){\n    return (_amount.mul(_userInputRatio(_addr)).div(RATIO_BASE),\n             XETdistribute(XET_Distribute_addr).estimate_in(_amount));//XCFX,XET\n    }\n\n  function CFX_to_XCFX() public payable {\n    require(msg.value>0 , 'must > 0');\n    address payable receiver = payable(_bridgeAddress);\n    receiver.transfer(msg.value);\n    total_minted += msg.value;\n    XCFXExchange(XCFX_address).addTokens(msg.sender, msg.value.mul(_userInputRatio(msg.sender)).div(RATIO_BASE));\n    XCFXExchange(XCFX_address).addTokens(Storage_room_addr, msg.value-msg.value.mul(_userInputRatio(msg.sender)).div(RATIO_BASE));\n    \n    //receiver_storge.transfer(msg.value-msg.value.mul(_userInputRatio(msg.sender)).div(RATIO_BASE));\n    if(total_minted-total_minted_inpool>=1000 ether){\n      uint256 votePower = (total_minted.sub(total_minted_inpool)).div(1000 ether);\n\n      crossingVotes += votePower;\n\n      total_minted_inpool += votePower*CFX_VALUE_OF_ONE_VOTE;\n    }\n    // uint256 temp_XET_num = ERC20(XET_address).balanceOf(address(this));\n    // // if(temp_XET_num>200000 ether){\n    // //   ERC20(XET_address).transfer(Storage_room_addr,temp_XET_num - 200000 ether);\n    // // }\n    // uint256 XET_num_out = msg.value.div(10**((200000 ether - temp_XET_num).div(10000 ether)));\n    // if (temp_XET_num > XET_num_out) {\n    //   ERC20(XET_address).transfer(msg.sender,XET_num_out);\n    // }\n    // else if(temp_XET_num > 0){\n    //   ERC20(XET_address).transfer(msg.sender,temp_XET_num);\n    // }\n    ERC20(XET_address).transfer(msg.sender,XETdistribute(XET_Distribute_addr).estimate_in(msg.value));\n    emit IncreasePoSStake(msg.sender, msg.value);\n    //update user\n    _updateAccRewardPerCfx();\n    _updateUserInterest(msg.sender);\n    _updateUserShot(msg.sender);\n\n    //userSummaries update\n    //userSummaries[msg.sender].available += msg.value;\n\n    //update pool\n    _poolSummary.available += msg.value;\n    _updatePoolShot();\n\n    stakers.add(msg.sender);\n  }\n\n  function XCFX_burn(uint256 _amount) public virtual onlyRegisted {\n    require(_amount<=XCFXExchange(XCFX_address).balanceOf(msg.sender),\"Exceed balance\");\n    XCFXExchange(XCFX_address).burnTokens(msg.sender, _amount);\n    total_burned+=_amount;\n    if(total_burned>total_burned_inpool){\n      decreaseStake(uint64((total_burned.sub(total_burned_inpool)).div(1000 ether))+1);\n      total_burned_inpool+=((total_burned.sub(total_burned_inpool)).div(1000 ether)+1).mul(1000 ether);\n    }\n    //userSummaries[msg.sender].available -= _amount;//XCFXExchange(XCFX_address).balanceOf(msg.sender);\n    userSummaries[msg.sender].unlocking += _amount;\n    userOutqueues[msg.sender].enqueue(VotePowerQueue.QueueNode(_amount, _blockNumber() + _poolLockPeriod));\n    uint256 temp_amount = userOutqueues[msg.sender].collectEndedVotes();\n    userSummaries[msg.sender].unlocked += temp_amount;\n    userSummaries[msg.sender].unlocking -= temp_amount;\n\n    emit DecreasePoSStake(msg.sender, _amount);\n\n    //update user\n    _updateAccRewardPerCfx();\n    _updateUserInterest(msg.sender);\n    _updateUserShot(msg.sender);\n\n    _poolSummary.available -= _amount;\n    _updatePoolShot();\n  }  \n  function getback_CFX(uint256 _amount) public virtual onlyRegisted {\n     withdrawStake(_amount);\n  }  \n\n  function update_after_trans_by_outer_func(address _from,address _to) external virtual onlyRegisted {\n    if(isContract(_to) && (contract_erc20_addr[_to] != zero_addr)){\n      contractpool_erc20(contract_erc20_addr[_to]).start_cal(_to);\n    }\n    if(isContract(_from) && (contract_erc20_addr[_from] != zero_addr)){\n      contractpool_erc20(contract_erc20_addr[_from]).start_cal(_from);\n    }\n    _updateAccRewardPerCfx();\n    //_updateAPY();\n    // update user interest\n    _updateUserInterest(_from);\n    _updateUserShot(_from);\n    _updateUserInterest(_to);\n    _updateUserShot(_to);\n    userSummaries[_from].available = XCFXExchange(XCFX_address).balanceOf(_from);\n    userSummaries[_to  ].available = XCFXExchange(XCFX_address).balanceOf(_to  );\n    stakers.add(_to);\n    if (userSummaries[_from].available == 0) {\n      stakers.remove(_from);\n    }\n    _updatePoolShot();\n  }\n\n  function claimContractInterest(uint _amount,address _contract) public onlyRegisted only_admin{\n    uint claimableInterest;\n    uint temp_useless;\n    (claimableInterest,temp_useless) = userInterest(_contract);\n    require(claimableInterest >= _amount, \"Interest not enough\");\n    require(isContract(_contract)==true,'Must be Contract');\n    _updateAccRewardPerCfx();\n    _updateUserInterest(_contract);\n    //\n    userSummaries[_contract].claimedInterest = userSummaries[_contract].claimedInterest.add(_amount);\n    userSummaries[_contract].currentInterest = userSummaries[_contract].currentInterest.sub(_amount);\n    // update userShot's accRewardPerCfx\n    _updateUserShot(_contract);\n    // send interest to user\n    address payable receiver = payable(msg.sender);\n    receiver.transfer(_amount);\n    emit ClaimInterest(_contract, _amount);\n    // update blockNumber and balance\n    _updatePoolShot();\n  }\n\n  function claimAllContractInterest(address _contract) public onlyRegisted only_admin{\n    uint claimableInterest;\n    uint temp_useless;\n    (claimableInterest,temp_useless) = userInterest(_contract);\n    require(claimableInterest > 0, \"No claimable interest\");\n    claimContractInterest(claimableInterest, _contract);\n  }\n\n  //--------------------------------------------------------------------all new function for XCFX  \n\n  ///\n  /// @notice Increase PoS vote power\n  /// @param votePower The number of vote power to increase\n  ///\n  // function increaseStake(uint64 votePower) public virtual payable onlyRegisted {\n  //   require(votePower > 0, \"Minimal votePower is 1\");\n  //   require(msg.value == votePower * CFX_VALUE_OF_ONE_VOTE, \"msg.value should be votePower * 1000 ether\");\n    \n  //   // transfer to bridge address\n  //   address payable receiver = payable(_bridgeAddress);\n  //   receiver.transfer(msg.value);\n  //   //XCFXExchange(ACFX_address).addTokens(msg.sender, votePower*CFX_VALUE_OF_ONE_VOTE);----------------------------will use\n  //   crossingVotes += votePower;\n  //   // emit IncreasePoSStake(msg.sender, votePower);\n\n    \n  //   // put stake info in queue\n  //   //userInqueues[msg.sender].enqueue(VotePowerQueue.QueueNode(votePower, _blockNumber() + _poolLockPeriod));\n  //   //userSummaries[msg.sender].locked += userInqueues[msg.sender].collectEndedVotes();\n  //   //userSummaries[msg.sender].votes += votePower;\n  //   //userSummaries[msg.sender].available += votePower;\n    \n  // }\n\n  ///\n  /// @notice Decrease PoS vote power\n  /// @param votePower The number of vote power to decrease\n  ///\n  function decreaseStake(uint64 votePower) public virtual onlyRegisted {\n    //userSummaries[msg.sender].locked += userInqueues[msg.sender].collectEndedVotes();\n    //require(userSummaries[msg.sender].locked >= votePower, \"Locked is not enough\");\n    // record the decrease request\n    unstakeQueue.enqueue(UnstakeQueue.Node(votePower));\n    // emit DecreasePoSStake(msg.sender, votePower);\n\n    //_updateAccRewardPerCfx();\n\n    // update user interest\n    //_updateUserInterest(msg.sender);\n    //\n\n    // userOutqueues[msg.sender].enqueue(VotePowerQueue.QueueNode(votePower, _blockNumber() + _poolLockPeriod));\n    // userSummaries[msg.sender].unlocked += userOutqueues[msg.sender].collectEndedVotes();\n    // userSummaries[msg.sender].available -= votePower;\n    // userSummaries[msg.sender].locked -= votePower;\n    //_updateUserShot(msg.sender);\n\n    //\n    // _poolSummary.available -= votePower;\n    // _updatePoolShot();\n  }\n\n  ///\n  /// @notice Withdraw PoS vote power\n  /// @param _amount The amount of CFX to withdraw\n  ///\n  function withdrawStake(uint256 _amount) public onlyRegisted {\n    //userSummaries[msg.sender].unlocked += userOutqueues[msg.sender].collectEndedVotes();\n    uint256 temp_amount = userOutqueues[msg.sender].collectEndedVotes();\n    userSummaries[msg.sender].unlocked += temp_amount;\n    userSummaries[msg.sender].unlocking -= temp_amount;\n\n    require(userSummaries[msg.sender].unlocked >= _amount, \"Unlocked is not enough\");\n    uint256 _withdrawAmount = _amount;\n    require( userSummaries[msg.sender].unlocked >= _withdrawAmount, \"Withdrawable CFX is not enough\");\n    // update amount of withdrawable CFX\n    //withdrawableCfx -= _withdrawAmount;\n    userSummaries[msg.sender].unlocked -= _amount;\n    //userSummaries[msg.sender].votes -= votePower;\n    \n    address payable receiver = payable(msg.sender);\n    receiver.transfer(_withdrawAmount);\n    emit WithdrawStake(msg.sender, _amount);\n\n    _updatePoolShot();\n\n    if (userSummaries[msg.sender].available == 0) {\n      stakers.remove(msg.sender);\n    }\n  }\n\n  ///\n  /// @notice User's interest from participate PoS\n  /// @param _address The address of user to query\n  /// @return CFX interest in Drip\n  ///\n  function userInterest(address _address) public view returns (uint256,uint256) {\n    \n    uint256 _interest = userSummaries[_address].currentInterest;\n\n    uint256 _latestAccRewardPerCfx = accRewardPerCfx;\n    // add latest profit\n    uint256 _latestReward = _selfBalance() - lastPoolShot.balance;\n    UserShot memory uShot = lastUserShots[_address];\n    if (_latestReward > 0) {\n      uint256 _deltaAcc = _latestReward.mul(0.01 ether).div(lastPoolShot.available);\n      _latestAccRewardPerCfx = _latestAccRewardPerCfx.add(_deltaAcc);\n    }\n\n    if (uShot.available > 0) {\n      uint256 _latestInterest = _latestAccRewardPerCfx.sub(uShot.accRewardPerCfx).mul(uShot.available).div(0.01 ether);\n      _interest = _interest.add(_calUserShare(_latestInterest, _address));\n    }\n    // uint256 temp_XET_num = ERC20(XET_address).balanceOf(address(this));\n    // uint256 XET_num_out = _interest.div(100);\n    // if (temp_XET_num < XET_num_out) {\n    //     XET_num_out=temp_XET_num;\n    //   }\n    return (_interest,XETdistribute(XET_Distribute_addr).estimate_out( _interest));\n  }\n\n  ///\n  /// @notice Claim specific amount user interest\n  /// @param amount The amount of interest to claim\n  ///\n  function claimInterest(uint amount) public onlyRegisted {\n    uint claimableInterest;\n    uint temp_useless;\n    (claimableInterest,temp_useless) = userInterest(msg.sender);\n    require(claimableInterest >= amount, \"Interest not enough\");\n    require(isContract(msg.sender)==false,'cant be Contract');\n    _updateAccRewardPerCfx();\n    _updateUserInterest(msg.sender);\n    //\n    userSummaries[msg.sender].claimedInterest = userSummaries[msg.sender].claimedInterest.add(amount);\n    userSummaries[msg.sender].currentInterest = userSummaries[msg.sender].currentInterest.sub(amount);\n    // update userShot's accRewardPerCfx\n    _updateUserShot(msg.sender);\n\n    // send interest to user\n    address payable receiver = payable(msg.sender);\n    receiver.transfer(amount);\n    emit ClaimInterest(msg.sender, amount);\n    // uint256 temp_XET_num = ERC20(XET_address).balanceOf(address(this));\n    // uint256 XET_num_out = amount.div(100);\n    // if (temp_XET_num > XET_num_out) {\n    //   ERC20(XET_address).transfer(msg.sender,XET_num_out);\n    // }\n    // else if(temp_XET_num > 0){\n    //   ERC20(XET_address).transfer(msg.sender,temp_XET_num);\n    // }\n    ERC20(XET_address).transfer(msg.sender,XETdistribute(XET_Distribute_addr).estimate_out( amount));\n\n    // update blockNumber and balance\n    _updatePoolShot();\n  }\n\n  ///\n  /// @notice Claim one user's all interest\n  ///\n  function claimAllInterest() public onlyRegisted {\n    uint claimableInterest;\n    uint temp_useless;\n    (claimableInterest,temp_useless) = userInterest(msg.sender);\n    require(claimableInterest > 0, \"No claimable interest\");\n    claimInterest(claimableInterest);\n  }\n\n  /// \n  /// @notice Get user's pool summary\n  /// @param _user The address of user to query\n  /// @return User's summary\n  ///\n  function userSummary(address _user) public view returns (UserSummary memory) {\n    UserSummary memory summary = userSummaries[_user];\n    uint256 temp_amount =userOutqueues[_user].sumEndedVotes();\n    //summary.locked += userInqueues[_user].sumEndedVotes();\n    summary.unlocked += temp_amount;\n    summary.unlocking -= temp_amount;\n    return summary;\n  }\n\n  function poolSummary() public view returns (PoolSummary memory) {\n    PoolSummary memory summary = _poolSummary;\n    uint256 _latestReward = _selfBalance().sub(lastPoolShot.balance);\n    summary.totalInterest = summary.totalInterest.add(_latestReward);\n    return summary;\n  }\n\n  function poolAPY() public view returns (uint256) {\n    return _poolAPY;\n  }\n\n  // function userInQueue(address account) public view returns (VotePowerQueue.QueueNode[] memory) {\n  //   return userInqueues[account].queueItems();\n  // }\n\n  function userOutQueue(address account) public view returns (VotePowerQueue.QueueNode[] memory) {\n    return userOutqueues[account].queueItems();\n  }\n\n  // function userInQueue(address account, uint64 offset, uint64 limit) public view returns (VotePowerQueue.QueueNode[] memory) {\n  //   return userInqueues[account].queueItems(offset, limit);\n  // }\n\n  function userOutQueueoffset(address account, uint64 offset, uint64 limit) public view returns (VotePowerQueue.QueueNode[] memory) {\n    return userOutqueues[account].queueItems(offset, limit);\n  }\n\n  function stakerNumber() public view returns (uint) {\n    return stakers.length();\n  }\n\n  function stakerAddress(uint256 i) public view returns (address) {\n    return stakers.at(i);\n  }\n\n  function unstakeLen() public view returns (uint256) {\n    return unstakeQueue.end - unstakeQueue.start;\n  }\n\n  function firstUnstakeVotes() public view returns (uint256) {\n    if (unstakeQueue.end == unstakeQueue.start) {\n      return 0;\n    }\n    return unstakeQueue.items[unstakeQueue.start].votes;\n  }\n\n  // ======================== admin methods =====================\n\n  ///\n  /// @notice Enable admin to set the user share ratio\n  /// @dev The ratio base is 10000, only admin can do this\n  /// @param ratio The interest user share ratio (1-10000), default is 9000\n  ///\n  function setPoolUserShareRatio(uint64 ratio) public onlyOwner {\n    require(ratio > 0 && ratio <= RATIO_BASE, \"ratio should be 1-10000\");\n    poolUserShareRatio = ratio;\n    //emit RatioChanged(ratio);\n  }\n\n  /// \n  /// @notice Enable admin to set the lock and unlock period\n  /// @dev Only admin can do this\n  /// @param period The lock period in block number, default is seven day's block count\n  ///\n  function setLockPeriod(uint64 period) public onlyOwner {\n    _poolLockPeriod = period;\n  }\n\n  /// @param count Vote cfx count, unit is cfx\n  function setCfxCountOfOneVote(uint256 count) public onlyOwner {\n    CFX_COUNT_OF_ONE_VOTE = count;\n    CFX_VALUE_OF_ONE_VOTE = count * 1 ether;\n  }\n\n  function setBridge(address bridgeAddress) public onlyOwner {\n    _bridgeAddress = bridgeAddress;\n    birdgeAddrSetted = true;\n  }\n  function getBridge() public  returns(address){\n    return _bridgeAddress;\n  }\n\n  function setPoolName(string memory name) public onlyOwner {\n    poolName = name;\n  }\n\n  function _retireUserStake(address _addr, uint64 endBlockNumber) public onlyOwner {\n    uint256 amount = userSummaries[_addr].available;\n    if (amount == 0) return;\n\n    _updateUserInterest(_addr);\n    userSummaries[_addr].available = 0;\n    userSummaries[_addr].unlocking = 0;\n    // clear user inqueue\n    // userInqueues[_addr].clear();\n    userOutqueues[_addr].enqueue(VotePowerQueue.QueueNode(amount, endBlockNumber));\n    _updateUserShot(_addr);\n\n    _poolSummary.available -= amount;\n  }\n\n  // When pool node is force retired, use this method to make all user's available stake to unlocking\n  function _retireUserStakes(uint256 offset, uint256 limit, uint64 endBlockNumber) public onlyOwner {\n    uint256 len = stakers.length();\n    if (len == 0) return;\n\n    _updateAccRewardPerCfx();\n\n    uint256 end = offset + limit;\n    if (end > len) {\n      end = len;\n    }\n    for (uint256 i = offset; i < end; i++) {\n      _retireUserStake(stakers.at(i), endBlockNumber);\n    }\n\n    _updatePoolShot();\n  }\n\n  // ======================== bridge methods =====================\n\n  function setPoolAPY(uint256 apy) public onlyBridge {\n    _poolAPY = apy;\n  }\n\n  function handleUnlockedIncrease(uint256 votePower) public payable onlyBridge {\n    require(msg.value == votePower * CFX_VALUE_OF_ONE_VOTE, \"msg.value should be votePower * 1000 ether\");\n    //withdrawableCfx += msg.value;\n    _updatePoolShot();\n  }\n\n  function handleCrossingVotes(uint256 votePower) public onlyBridge {\n    require(crossingVotes >= votePower, \"crossingVotes should be greater than votePower\");\n    crossingVotes -= votePower;\n  }\n\n  function handleUnstakeTask() public onlyBridge returns (uint256) {\n    UnstakeQueue.Node memory node = unstakeQueue.dequeue();\n    return node.votes;\n  }\n\n  // receive interest\n  function receiveInterest() public payable onlyBridge {}\n\n  fallback() external payable {}\n  receive() external payable {}\n\n}",
  "sourcePath": "C:\\Users\\artii\\Black IDE\\espace\\contracts\\eSpace\\eSpacePoSPool.sol",
  "compiler": {
    "name": "solc",
    "version": "0.8.2+commit.661d1103.Emscripten.clang"
  },
  "schemaVersion": "3.4.3",
  "updatedAt": "2022-08-14T03:45:26.122Z",
  "devdoc": {
    "kind": "dev",
    "methods": {
      "claimInterest(uint256)": {
        "params": {
          "amount": "The amount of interest to claim"
        }
      },
      "decreaseStake(uint64)": {
        "params": {
          "votePower": "The number of vote power to decrease"
        }
      },
      "owner()": {
        "details": "Returns the address of the current owner."
      },
      "renounceOwnership()": {
        "details": "Leaves the contract without owner. It will not be possible to call `onlyOwner` functions anymore. Can only be called by the current owner. NOTE: Renouncing ownership will leave the contract without an owner, thereby removing any functionality that is only available to the owner."
      },
      "setCfxCountOfOneVote(uint256)": {
        "params": {
          "count": "Vote cfx count, unit is cfx"
        }
      },
      "setLockPeriod(uint64)": {
        "details": "Only admin can do this",
        "params": {
          "period": "The lock period in block number, default is seven day's block count"
        }
      },
      "setPoolUserShareRatio(uint64)": {
        "details": "The ratio base is 10000, only admin can do this",
        "params": {
          "ratio": "The interest user share ratio (1-10000), default is 9000"
        }
      },
      "transferOwnership(address)": {
        "details": "Transfers ownership of the contract to a new account (`newOwner`). Can only be called by the current owner."
      },
      "userInterest(address)": {
        "params": {
          "_address": "The address of user to query"
        },
        "returns": {
          "_0": "CFX interest in Drip"
        }
      },
      "userSummary(address)": {
        "params": {
          "_user": "The address of user to query"
        },
        "returns": {
          "_0": "User's summary"
        }
      },
      "withdrawStake(uint256)": {
        "params": {
          "_amount": "The amount of CFX to withdraw"
        }
      }
    },
    "title": "eSpace PoSPool",
    "version": 1
  },
  "userdoc": {
    "kind": "user",
    "methods": {
      "claimAllInterest()": {
        "notice": "Claim one user's all interest"
      },
      "claimInterest(uint256)": {
        "notice": "Claim specific amount user interest"
      },
      "decreaseStake(uint64)": {
        "notice": "Decrease PoS vote power"
      },
      "setLockPeriod(uint64)": {
        "notice": "Enable admin to set the lock and unlock period"
      },
      "setPoolUserShareRatio(uint64)": {
        "notice": "Enable admin to set the user share ratio"
      },
      "userInterest(address)": {
        "notice": "User's interest from participate PoS"
      },
      "userSummary(address)": {
        "notice": "Get user's pool summary"
      },
      "withdrawStake(uint256)": {
        "notice": "Withdraw PoS vote power"
      }
    },
    "version": 1
  }
}