{
  "contractName": "ESpacePoSPool",
  "abi": [
    {
      "anonymous": false,
      "inputs": [
        {
          "indexed": true,
          "internalType": "address",
          "name": "user",
          "type": "address"
        },
        {
          "indexed": false,
          "internalType": "uint256",
          "name": "amount",
          "type": "uint256"
        }
      ],
      "name": "ClaimInterest",
      "type": "event"
    },
    {
      "anonymous": false,
      "inputs": [
        {
          "indexed": true,
          "internalType": "address",
          "name": "user",
          "type": "address"
        },
        {
          "indexed": false,
          "internalType": "uint256",
          "name": "votePower",
          "type": "uint256"
        }
      ],
      "name": "DecreasePoSStake",
      "type": "event"
    },
    {
      "anonymous": false,
      "inputs": [
        {
          "indexed": true,
          "internalType": "address",
          "name": "user",
          "type": "address"
        },
        {
          "indexed": false,
          "internalType": "uint256",
          "name": "votePower",
          "type": "uint256"
        }
      ],
      "name": "IncreasePoSStake",
      "type": "event"
    },
    {
      "anonymous": false,
      "inputs": [
        {
          "indexed": true,
          "internalType": "address",
          "name": "previousOwner",
          "type": "address"
        },
        {
          "indexed": true,
          "internalType": "address",
          "name": "newOwner",
          "type": "address"
        }
      ],
      "name": "OwnershipTransferred",
      "type": "event"
    },
    {
      "anonymous": false,
      "inputs": [
        {
          "indexed": true,
          "internalType": "address",
          "name": "user",
          "type": "address"
        },
        {
          "indexed": false,
          "internalType": "uint256",
          "name": "votePower",
          "type": "uint256"
        }
      ],
      "name": "WithdrawStake",
      "type": "event"
    },
    {
      "stateMutability": "payable",
      "type": "fallback"
    },
    {
      "inputs": [],
      "name": "_poolLockPeriod",
      "outputs": [
        {
          "internalType": "uint256",
          "name": "",
          "type": "uint256"
        }
      ],
      "stateMutability": "view",
      "type": "function"
    },
    {
      "inputs": [],
      "name": "accRewardPerCfx",
      "outputs": [
        {
          "internalType": "uint256",
          "name": "",
          "type": "uint256"
        }
      ],
      "stateMutability": "view",
      "type": "function"
    },
    {
      "inputs": [],
      "name": "admin_addr",
      "outputs": [
        {
          "internalType": "address",
          "name": "",
          "type": "address"
        }
      ],
      "stateMutability": "view",
      "type": "function"
    },
    {
      "inputs": [],
      "name": "birdgeAddrSetted",
      "outputs": [
        {
          "internalType": "bool",
          "name": "",
          "type": "bool"
        }
      ],
      "stateMutability": "view",
      "type": "function"
    },
    {
      "inputs": [],
      "name": "crossingVotes",
      "outputs": [
        {
          "internalType": "uint256",
          "name": "",
          "type": "uint256"
        }
      ],
      "stateMutability": "view",
      "type": "function"
    },
    {
      "inputs": [],
      "name": "owner",
      "outputs": [
        {
          "internalType": "address",
          "name": "",
          "type": "address"
        }
      ],
      "stateMutability": "view",
      "type": "function"
    },
    {
      "inputs": [],
      "name": "owner_addr",
      "outputs": [
        {
          "internalType": "address",
          "name": "",
          "type": "address"
        }
      ],
      "stateMutability": "view",
      "type": "function"
    },
    {
      "inputs": [],
      "name": "poolName",
      "outputs": [
        {
          "internalType": "string",
          "name": "",
          "type": "string"
        }
      ],
      "stateMutability": "view",
      "type": "function"
    },
    {
      "inputs": [],
      "name": "poolUserShareRatio",
      "outputs": [
        {
          "internalType": "uint256",
          "name": "",
          "type": "uint256"
        }
      ],
      "stateMutability": "view",
      "type": "function"
    },
    {
      "inputs": [],
      "name": "renounceOwnership",
      "outputs": [],
      "stateMutability": "nonpayable",
      "type": "function"
    },
    {
      "inputs": [],
      "name": "total_burned",
      "outputs": [
        {
          "internalType": "uint256",
          "name": "",
          "type": "uint256"
        }
      ],
      "stateMutability": "view",
      "type": "function"
    },
    {
      "inputs": [],
      "name": "total_burned_inpool",
      "outputs": [
        {
          "internalType": "uint256",
          "name": "",
          "type": "uint256"
        }
      ],
      "stateMutability": "view",
      "type": "function"
    },
    {
      "inputs": [],
      "name": "total_minted",
      "outputs": [
        {
          "internalType": "uint256",
          "name": "",
          "type": "uint256"
        }
      ],
      "stateMutability": "view",
      "type": "function"
    },
    {
      "inputs": [],
      "name": "total_minted_inpool",
      "outputs": [
        {
          "internalType": "uint256",
          "name": "",
          "type": "uint256"
        }
      ],
      "stateMutability": "view",
      "type": "function"
    },
    {
      "inputs": [
        {
          "internalType": "address",
          "name": "newOwner",
          "type": "address"
        }
      ],
      "name": "transferOwnership",
      "outputs": [],
      "stateMutability": "nonpayable",
      "type": "function"
    },
    {
      "inputs": [],
      "name": "unstakeQueue",
      "outputs": [
        {
          "internalType": "uint256",
          "name": "start",
          "type": "uint256"
        },
        {
          "internalType": "uint256",
          "name": "end",
          "type": "uint256"
        }
      ],
      "stateMutability": "view",
      "type": "function"
    },
    {
      "inputs": [],
      "name": "withdrawableCfx",
      "outputs": [
        {
          "internalType": "uint256",
          "name": "",
          "type": "uint256"
        }
      ],
      "stateMutability": "view",
      "type": "function"
    },
    {
      "stateMutability": "payable",
      "type": "receive"
    },
    {
      "inputs": [
        {
          "internalType": "address",
          "name": "_user",
          "type": "address"
        }
      ],
      "name": "_userShareRatio",
      "outputs": [
        {
          "internalType": "uint256",
          "name": "",
          "type": "uint256"
        }
      ],
      "stateMutability": "view",
      "type": "function"
    },
    {
      "inputs": [
        {
          "internalType": "address",
          "name": "_user",
          "type": "address"
        }
      ],
      "name": "_userInputRatio",
      "outputs": [
        {
          "internalType": "uint256",
          "name": "",
          "type": "uint256"
        }
      ],
      "stateMutability": "view",
      "type": "function"
    },
    {
      "inputs": [],
      "name": "initialize",
      "outputs": [],
      "stateMutability": "nonpayable",
      "type": "function"
    },
    {
      "inputs": [
        {
          "internalType": "address",
          "name": "_admin_addr",
          "type": "address"
        }
      ],
      "name": "set_admin",
      "outputs": [],
      "stateMutability": "nonpayable",
      "type": "function"
    },
    {
      "inputs": [],
      "name": "get_admin",
      "outputs": [
        {
          "internalType": "address",
          "name": "",
          "type": "address"
        }
      ],
      "stateMutability": "view",
      "type": "function"
    },
    {
      "inputs": [
        {
          "internalType": "address",
          "name": "_address",
          "type": "address"
        }
      ],
      "name": "set_XVIP_addr",
      "outputs": [],
      "stateMutability": "nonpayable",
      "type": "function"
    },
    {
      "inputs": [
        {
          "internalType": "address",
          "name": "_address",
          "type": "address"
        }
      ],
      "name": "set_XET_addr",
      "outputs": [],
      "stateMutability": "nonpayable",
      "type": "function"
    },
    {
      "inputs": [
        {
          "internalType": "address",
          "name": "_address",
          "type": "address"
        }
      ],
      "name": "set_XCFX_addr",
      "outputs": [],
      "stateMutability": "nonpayable",
      "type": "function"
    },
    {
      "inputs": [
        {
          "internalType": "address",
          "name": "_address",
          "type": "address"
        }
      ],
      "name": "set_Storage_room",
      "outputs": [],
      "stateMutability": "nonpayable",
      "type": "function"
    },
    {
      "inputs": [],
      "name": "get_Settings",
      "outputs": [
        {
          "internalType": "address",
          "name": "_XCFX",
          "type": "address"
        },
        {
          "internalType": "address",
          "name": "_XET",
          "type": "address"
        },
        {
          "internalType": "address",
          "name": "_St",
          "type": "address"
        },
        {
          "internalType": "address",
          "name": "_XVIP",
          "type": "address"
        }
      ],
      "stateMutability": "view",
      "type": "function"
    },
    {
      "inputs": [
        {
          "internalType": "uint256",
          "name": "_amount",
          "type": "uint256"
        }
      ],
      "name": "CFX_to_XCFX_estim",
      "outputs": [
        {
          "internalType": "uint256",
          "name": "",
          "type": "uint256"
        },
        {
          "internalType": "uint256",
          "name": "",
          "type": "uint256"
        }
      ],
      "stateMutability": "view",
      "type": "function"
    },
    {
      "inputs": [],
      "name": "CFX_to_XCFX",
      "outputs": [],
      "stateMutability": "payable",
      "type": "function"
    },
    {
      "inputs": [
        {
          "internalType": "uint256",
          "name": "_amount",
          "type": "uint256"
        }
      ],
      "name": "XCFX_burn",
      "outputs": [],
      "stateMutability": "nonpayable",
      "type": "function"
    },
    {
      "inputs": [
        {
          "internalType": "uint256",
          "name": "_amount",
          "type": "uint256"
        }
      ],
      "name": "getback_CFX",
      "outputs": [],
      "stateMutability": "nonpayable",
      "type": "function"
    },
    {
      "inputs": [
        {
          "internalType": "address",
          "name": "_from",
          "type": "address"
        },
        {
          "internalType": "address",
          "name": "_to",
          "type": "address"
        }
      ],
      "name": "update_after_trans_by_outer_func",
      "outputs": [],
      "stateMutability": "nonpayable",
      "type": "function"
    },
    {
      "inputs": [
        {
          "internalType": "uint256",
          "name": "_amount",
          "type": "uint256"
        },
        {
          "internalType": "address",
          "name": "_contract",
          "type": "address"
        }
      ],
      "name": "claimContractInterest",
      "outputs": [],
      "stateMutability": "nonpayable",
      "type": "function"
    },
    {
      "inputs": [
        {
          "internalType": "address",
          "name": "_contract",
          "type": "address"
        }
      ],
      "name": "claimAllContractInterest",
      "outputs": [],
      "stateMutability": "nonpayable",
      "type": "function"
    },
    {
      "inputs": [
        {
          "internalType": "uint64",
          "name": "votePower",
          "type": "uint64"
        }
      ],
      "name": "decreaseStake",
      "outputs": [],
      "stateMutability": "nonpayable",
      "type": "function"
    },
    {
      "inputs": [
        {
          "internalType": "uint256",
          "name": "_amount",
          "type": "uint256"
        }
      ],
      "name": "withdrawStake",
      "outputs": [],
      "stateMutability": "nonpayable",
      "type": "function"
    },
    {
      "inputs": [
        {
          "internalType": "address",
          "name": "_address",
          "type": "address"
        }
      ],
      "name": "userInterest",
      "outputs": [
        {
          "internalType": "uint256",
          "name": "",
          "type": "uint256"
        },
        {
          "internalType": "uint256",
          "name": "",
          "type": "uint256"
        }
      ],
      "stateMutability": "view",
      "type": "function"
    },
    {
      "inputs": [
        {
          "internalType": "uint256",
          "name": "amount",
          "type": "uint256"
        }
      ],
      "name": "claimInterest",
      "outputs": [],
      "stateMutability": "nonpayable",
      "type": "function"
    },
    {
      "inputs": [],
      "name": "claimAllInterest",
      "outputs": [],
      "stateMutability": "nonpayable",
      "type": "function"
    },
    {
      "inputs": [
        {
          "internalType": "address",
          "name": "_user",
          "type": "address"
        }
      ],
      "name": "userSummary",
      "outputs": [
        {
          "components": [
            {
              "internalType": "uint256",
              "name": "available",
              "type": "uint256"
            },
            {
              "internalType": "uint256",
              "name": "unlocking",
              "type": "uint256"
            },
            {
              "internalType": "uint256",
              "name": "unlocked",
              "type": "uint256"
            },
            {
              "internalType": "uint256",
              "name": "claimedInterest",
              "type": "uint256"
            },
            {
              "internalType": "uint256",
              "name": "currentInterest",
              "type": "uint256"
            }
          ],
          "internalType": "struct ESpacePoSPool.UserSummary",
          "name": "",
          "type": "tuple"
        }
      ],
      "stateMutability": "view",
      "type": "function"
    },
    {
      "inputs": [],
      "name": "poolSummary",
      "outputs": [
        {
          "components": [
            {
              "internalType": "uint256",
              "name": "available",
              "type": "uint256"
            },
            {
              "internalType": "uint256",
              "name": "interest",
              "type": "uint256"
            },
            {
              "internalType": "uint256",
              "name": "totalInterest",
              "type": "uint256"
            }
          ],
          "internalType": "struct ESpacePoSPool.PoolSummary",
          "name": "",
          "type": "tuple"
        }
      ],
      "stateMutability": "view",
      "type": "function"
    },
    {
      "inputs": [],
      "name": "poolAPY",
      "outputs": [
        {
          "internalType": "uint256",
          "name": "",
          "type": "uint256"
        }
      ],
      "stateMutability": "view",
      "type": "function"
    },
    {
      "inputs": [
        {
          "internalType": "address",
          "name": "account",
          "type": "address"
        }
      ],
      "name": "userOutQueue",
      "outputs": [
        {
          "components": [
            {
              "internalType": "uint256",
              "name": "votePower",
              "type": "uint256"
            },
            {
              "internalType": "uint256",
              "name": "endBlock",
              "type": "uint256"
            }
          ],
          "internalType": "struct VotePowerQueue.QueueNode[]",
          "name": "",
          "type": "tuple[]"
        }
      ],
      "stateMutability": "view",
      "type": "function"
    },
    {
      "inputs": [
        {
          "internalType": "address",
          "name": "account",
          "type": "address"
        },
        {
          "internalType": "uint64",
          "name": "offset",
          "type": "uint64"
        },
        {
          "internalType": "uint64",
          "name": "limit",
          "type": "uint64"
        }
      ],
      "name": "userOutQueueoffset",
      "outputs": [
        {
          "components": [
            {
              "internalType": "uint256",
              "name": "votePower",
              "type": "uint256"
            },
            {
              "internalType": "uint256",
              "name": "endBlock",
              "type": "uint256"
            }
          ],
          "internalType": "struct VotePowerQueue.QueueNode[]",
          "name": "",
          "type": "tuple[]"
        }
      ],
      "stateMutability": "view",
      "type": "function"
    },
    {
      "inputs": [],
      "name": "stakerNumber",
      "outputs": [
        {
          "internalType": "uint256",
          "name": "",
          "type": "uint256"
        }
      ],
      "stateMutability": "view",
      "type": "function"
    },
    {
      "inputs": [
        {
          "internalType": "uint256",
          "name": "i",
          "type": "uint256"
        }
      ],
      "name": "stakerAddress",
      "outputs": [
        {
          "internalType": "address",
          "name": "",
          "type": "address"
        }
      ],
      "stateMutability": "view",
      "type": "function"
    },
    {
      "inputs": [],
      "name": "unstakeLen",
      "outputs": [
        {
          "internalType": "uint256",
          "name": "",
          "type": "uint256"
        }
      ],
      "stateMutability": "view",
      "type": "function"
    },
    {
      "inputs": [],
      "name": "firstUnstakeVotes",
      "outputs": [
        {
          "internalType": "uint256",
          "name": "",
          "type": "uint256"
        }
      ],
      "stateMutability": "view",
      "type": "function"
    },
    {
      "inputs": [
        {
          "internalType": "uint64",
          "name": "ratio",
          "type": "uint64"
        }
      ],
      "name": "setPoolUserShareRatio",
      "outputs": [],
      "stateMutability": "nonpayable",
      "type": "function"
    },
    {
      "inputs": [
        {
          "internalType": "uint64",
          "name": "period",
          "type": "uint64"
        }
      ],
      "name": "setLockPeriod",
      "outputs": [],
      "stateMutability": "nonpayable",
      "type": "function"
    },
    {
      "inputs": [
        {
          "internalType": "uint256",
          "name": "count",
          "type": "uint256"
        }
      ],
      "name": "setCfxCountOfOneVote",
      "outputs": [],
      "stateMutability": "nonpayable",
      "type": "function"
    },
    {
      "inputs": [
        {
          "internalType": "address",
          "name": "bridgeAddress",
          "type": "address"
        }
      ],
      "name": "setBridge",
      "outputs": [],
      "stateMutability": "nonpayable",
      "type": "function"
    },
    {
      "inputs": [
        {
          "internalType": "string",
          "name": "name",
          "type": "string"
        }
      ],
      "name": "setPoolName",
      "outputs": [],
      "stateMutability": "nonpayable",
      "type": "function"
    },
    {
      "inputs": [
        {
          "internalType": "address",
          "name": "_addr",
          "type": "address"
        },
        {
          "internalType": "uint64",
          "name": "endBlockNumber",
          "type": "uint64"
        }
      ],
      "name": "_retireUserStake",
      "outputs": [],
      "stateMutability": "nonpayable",
      "type": "function"
    },
    {
      "inputs": [
        {
          "internalType": "uint256",
          "name": "offset",
          "type": "uint256"
        },
        {
          "internalType": "uint256",
          "name": "limit",
          "type": "uint256"
        },
        {
          "internalType": "uint64",
          "name": "endBlockNumber",
          "type": "uint64"
        }
      ],
      "name": "_retireUserStakes",
      "outputs": [],
      "stateMutability": "nonpayable",
      "type": "function"
    },
    {
      "inputs": [
        {
          "internalType": "uint256",
          "name": "apy",
          "type": "uint256"
        }
      ],
      "name": "setPoolAPY",
      "outputs": [],
      "stateMutability": "nonpayable",
      "type": "function"
    },
    {
      "inputs": [
        {
          "internalType": "uint256",
          "name": "votePower",
          "type": "uint256"
        }
      ],
      "name": "handleUnlockedIncrease",
      "outputs": [],
      "stateMutability": "payable",
      "type": "function"
    },
    {
      "inputs": [
        {
          "internalType": "uint256",
          "name": "votePower",
          "type": "uint256"
        }
      ],
      "name": "handleCrossingVotes",
      "outputs": [],
      "stateMutability": "nonpayable",
      "type": "function"
    },
    {
      "inputs": [],
      "name": "handleUnstakeTask",
      "outputs": [
        {
          "internalType": "uint256",
          "name": "",
          "type": "uint256"
        }
      ],
      "stateMutability": "nonpayable",
      "type": "function"
    },
    {
      "inputs": [],
      "name": "receiveInterest",
      "outputs": [],
      "stateMutability": "payable",
      "type": "function"
    }
  ],
  "bytecode": "0x60806040526103e8600155683635c9adc5dea00000600255612710600455600e620151806200002f919062000137565b60055560006007553480156200004457600080fd5b5062000065620000596200006b60201b60201c565b6200007360201b60201c565b620001d1565b600033905090565b60008060009054906101000a900473ffffffffffffffffffffffffffffffffffffffff169050816000806101000a81548173ffffffffffffffffffffffffffffffffffffffff021916908373ffffffffffffffffffffffffffffffffffffffff1602179055508173ffffffffffffffffffffffffffffffffffffffff168173ffffffffffffffffffffffffffffffffffffffff167f8be0079c531659141344cd1fd0a4f28419497f9722a3daafe3b4186f6b6457e060405160405180910390a35050565b6000620001448262000198565b9150620001518362000198565b9250817fffffffffffffffffffffffffffffffffffffffffffffffffffffffffffffffff04831182151516156200018d576200018c620001a2565b5b828202905092915050565b6000819050919050565b7f4e487b7100000000000000000000000000000000000000000000000000000000600052601160045260246000fd5b616bc980620001e16000396000f3fe60806040526004361061039a5760003560e01c80638270512f116101dc578063beb99c1e11610102578063de5d8c39116100a0578063ed1c2a7b1161006f578063ed1c2a7b14610cea578063f2fde38b14610d13578063f3466dfa14610d3c578063f660776b14610d67576103a1565b8063de5d8c3914610c32578063e3d5b23314610c5b578063e5e20ccf14610c98578063e9333fab14610cc1576103a1565b8063c8053542116100dc578063c805354214610b72578063d43af51c14610ba0578063d68076c314610bcb578063d7a4f12a14610c09576103a1565b8063beb99c1e14610af5578063c3b8eba014610b1e578063c7ff5d6e14610b47576103a1565b80639aafd5b81161017a578063ba59243511610149578063ba59243514610a3b578063bb61be5f14610a64578063bd0b2dad14610a8d578063be17be5d14610aca576103a1565b80639aafd5b8146109b05780639b50a865146109db578063ac177df1146109e5578063b4064a2514610a10576103a1565b80638da5cb5b116101b65780638da5cb5b146108f65780638dd1480214610921578063940670451461094a57806396b6b59d14610987576103a1565b80638270512f1461088957806382df7a3b146108a057806384981986146108cb576103a1565b80634337e4bf116102c157806366f355db1161025f57806371bbafd51161022e57806371bbafd5146107f557806372b654241461081e5780637571fcf6146108475780638129fc1c14610872576103a1565b806366f355db1461076157806367a1aa4f1461078a5780636e5ca386146107b5578063715018a6146107de576103a1565b80634a990ba91161029b5780634a990ba9146106a25780634c2bb0a8146106ce57806354c7c6121461070b5780636283c50b14610736576103a1565b80634337e4bf1461064457806347108abc1461064e57806348edf02614610677576103a1565b806317f788711161033957806325d5971f1161030857806325d5971f1461059e5780632eb375ea146105c7578063315b4d06146105f057806336178be81461061b576103a1565b806317f78871146104df57806319861492146104fb5780631bc1e78a1461053857806324a3bbe214610561576103a1565b8063075fc13311610375578063075fc1331461042057806309fcd2301461044b578063139fabf91461047657806315cc421d146104b4576103a1565b8062ff85f0146103a357806301cfc7f8146103cc5780630573ee0e146103f5576103a1565b366103a157005b005b3480156103af57600080fd5b506103ca60048036038101906103c591906157ee565b610d92565b005b3480156103d857600080fd5b506103f360048036038101906103ee9190615948565b610ed7565b005b34801561040157600080fd5b5061040a610f71565b60405161041791906161e6565b60405180910390f35b34801561042c57600080fd5b50610435610f77565b60405161044291906161e6565b60405180910390f35b34801561045757600080fd5b50610460610f7d565b60405161046d91906161e6565b60405180910390f35b34801561048257600080fd5b5061049d60048036038101906104989190615948565b610fbf565b6040516104ab929190616201565b60405180910390f35b3480156104c057600080fd5b506104c961110c565b6040516104d691906161e6565b60405180910390f35b6104f960048036038101906104f49190615948565b611112565b005b34801561050757600080fd5b50610522600480360381019061051d919061588f565b611215565b60405161052f9190615f11565b60405180910390f35b34801561054457600080fd5b5061055f600480360381019061055a9190615948565b611273565b005b34801561056d57600080fd5b50610588600480360381019061058391906157ee565b611364565b6040516105959190615f11565b60405180910390f35b3480156105aa57600080fd5b506105c560048036038101906105c09190615948565b6113b4565b005b3480156105d357600080fd5b506105ee60048036038101906105e99190615948565b6116eb565b005b3480156105fc57600080fd5b50610605611c19565b60405161061291906161e6565b60405180910390f35b34801561062757600080fd5b50610642600480360381019061063d91906157ee565b611c1f565b005b61064c611cdf565b005b34801561065a57600080fd5b5061067560048036038101906106709190615948565b611d71565b005b34801561068357600080fd5b5061068c612219565b60405161069991906161e6565b60405180910390f35b3480156106ae57600080fd5b506106b761221f565b6040516106c5929190616201565b60405180910390f35b3480156106da57600080fd5b506106f560048036038101906106f091906157ee565b612231565b60405161070291906161e6565b60405180910390f35b34801561071757600080fd5b50610720612263565b60405161072d9190615e88565b60405180910390f35b34801561074257600080fd5b5061074b61228d565b6040516107589190615f33565b60405180910390f35b34801561076d57600080fd5b5061078860048036038101906107839190615948565b6122a0565b005b34801561079657600080fd5b5061079f6122fb565b6040516107ac91906161e6565b60405180910390f35b3480156107c157600080fd5b506107dc60048036038101906107d791906157ee565b612301565b005b3480156107ea57600080fd5b506107f36123c1565b005b34801561080157600080fd5b5061081c6004803603810190610817919061599a565b612449565b005b34801561082a57600080fd5b5061084560048036038101906108409190615907565b6127c7565b005b34801561085357600080fd5b5061085c61285d565b60405161086991906161b0565b60405180910390f35b34801561087e57600080fd5b506108876128df565b005b34801561089557600080fd5b5061089e612a82565b005b3480156108ac57600080fd5b506108b5612b35565b6040516108c291906161e6565b60405180910390f35b3480156108d757600080fd5b506108e0612b3f565b6040516108ed91906161e6565b60405180910390f35b34801561090257600080fd5b5061090b612bea565b6040516109189190615e88565b60405180910390f35b34801561092d57600080fd5b50610948600480360381019061094391906157ee565b612c13565b005b34801561095657600080fd5b50610971600480360381019061096c9190615948565b612cee565b60405161097e9190615e88565b60405180910390f35b34801561099357600080fd5b506109ae60048036038101906109a99190615948565b612d0b565b005b3480156109bc57600080fd5b506109c5612dab565b6040516109d291906161e6565b60405180910390f35b6109e3612dbc565b005b3480156109f157600080fd5b506109fa6133e4565b604051610a079190615e88565b60405180910390f35b348015610a1c57600080fd5b50610a2561340a565b604051610a3291906161e6565b60405180910390f35b348015610a4757600080fd5b50610a626004803603810190610a5d91906157ee565b613410565b005b348015610a7057600080fd5b50610a8b6004803603810190610a869190615853565b6134d0565b005b348015610a9957600080fd5b50610ab46004803603810190610aaf91906157ee565b6136d5565b604051610ac191906161e6565b60405180910390f35b348015610ad657600080fd5b50610adf6139ff565b604051610aec91906161e6565b60405180910390f35b348015610b0157600080fd5b50610b1c6004803603810190610b179190615a25565b613a05565b005b348015610b2a57600080fd5b50610b456004803603810190610b409190615a25565b613a83565b005b348015610b5357600080fd5b50610b5c613b78565b604051610b6991906161e6565b60405180910390f35b348015610b7e57600080fd5b50610b87613b95565b604051610b979493929190615ea3565b60405180910390f35b348015610bac57600080fd5b50610bb5613c35565b604051610bc29190615e88565b60405180910390f35b348015610bd757600080fd5b50610bf26004803603810190610bed91906157ee565b613c5b565b604051610c00929190616201565b60405180910390f35b348015610c1557600080fd5b50610c306004803603810190610c2b91906157ee565b613ee4565b005b348015610c3e57600080fd5b50610c596004803603810190610c549190615817565b613fa4565b005b348015610c6757600080fd5b50610c826004803603810190610c7d91906157ee565b614283565b604051610c8f91906161cb565b60405180910390f35b348015610ca457600080fd5b50610cbf6004803603810190610cba9190615a25565b614373565b005b348015610ccd57600080fd5b50610ce86004803603810190610ce391906157ee565b614403565b005b348015610cf657600080fd5b50610d116004803603810190610d0c91906159d6565b6144c3565b005b348015610d1f57600080fd5b50610d3a6004803603810190610d3591906157ee565b6145cf565b005b348015610d4857600080fd5b50610d516146c7565b604051610d5e9190615f4e565b60405180910390f35b348015610d7357600080fd5b50610d7c614755565b604051610d8991906161e6565b60405180910390f35b600360009054906101000a900460ff16610de1576040517f08c379a0000000000000000000000000000000000000000000000000000000008152600401610dd890616010565b60405180910390fd5b601a60009054906101000a900473ffffffffffffffffffffffffffffffffffffffff1673ffffffffffffffffffffffffffffffffffffffff163373ffffffffffffffffffffffffffffffffffffffff1614610e71576040517f08c379a0000000000000000000000000000000000000000000000000000000008152600401610e6890615fd0565b60405180910390fd5b600080610e7d83613c5b565b809250819350505060008211610ec8576040517f08c379a0000000000000000000000000000000000000000000000000000000008152600401610ebf906160f0565b60405180910390fd5b610ed28284612449565b505050565b600360019054906101000a900473ffffffffffffffffffffffffffffffffffffffff1673ffffffffffffffffffffffffffffffffffffffff163373ffffffffffffffffffffffffffffffffffffffff1614610f67576040517f08c379a0000000000000000000000000000000000000000000000000000000008152600401610f5e90616130565b60405180910390fd5b8060078190555050565b601e5481565b60175481565b60006014600001546014600101541415610f9a5760009050610fbc565b6014600201600060146000015481526020019081526020016000206000015490505b90565b6000806000602060009054906101000a900473ffffffffffffffffffffffffffffffffffffffff1673ffffffffffffffffffffffffffffffffffffffff166370a08231306040518263ffffffff1660e01b815260040161101f9190615e88565b60206040518083038186803b15801561103757600080fd5b505afa15801561104b573d6000803e3d6000fd5b505050506040513d601f19601f8201168201806040525081019061106f9190615971565b905060006110c36110a869021e19e0c9bab240000084692a5a058fc295ed00000061109a9190616565565b61475b90919063ffffffff16565b600a6110b491906163ed565b8661475b90919063ffffffff16565b9050808210156110d1578190505b6111006127106110f26110e333612231565b8861477190919063ffffffff16565b61475b90919063ffffffff16565b81935093505050915091565b60185481565b600360019054906101000a900473ffffffffffffffffffffffffffffffffffffffff1673ffffffffffffffffffffffffffffffffffffffff163373ffffffffffffffffffffffffffffffffffffffff16146111a2576040517f08c379a000000000000000000000000000000000000000000000000000000000815260040161119990616130565b60405180910390fd5b600254816111b0919061650b565b34146111f1576040517f08c379a00000000000000000000000000000000000000000000000000000000081526004016111e890615f90565b60405180910390fd5b346017600082825461120391906162d5565b92505081905550611212614787565b50565b606061126a8383600d60008873ffffffffffffffffffffffffffffffffffffffff1673ffffffffffffffffffffffffffffffffffffffff1681526020019081526020016000206147ba9092919063ffffffff16565b90509392505050565b600360019054906101000a900473ffffffffffffffffffffffffffffffffffffffff1673ffffffffffffffffffffffffffffffffffffffff163373ffffffffffffffffffffffffffffffffffffffff1614611303576040517f08c379a00000000000000000000000000000000000000000000000000000000081526004016112fa90616130565b60405180910390fd5b806018541015611348576040517f08c379a000000000000000000000000000000000000000000000000000000000815260040161133f90616150565b60405180910390fd5b806018600082825461135a9190616565565b9250508190555050565b60606113ad600d60008473ffffffffffffffffffffffffffffffffffffffff1673ffffffffffffffffffffffffffffffffffffffff1681526020019081526020016000206149d2565b9050919050565b600360009054906101000a900460ff16611403576040517f08c379a00000000000000000000000000000000000000000000000000000000081526004016113fa90616010565b60405180910390fd5b61144a600d60003373ffffffffffffffffffffffffffffffffffffffff1673ffffffffffffffffffffffffffffffffffffffff168152602001908152602001600020614b1f565b600c60003373ffffffffffffffffffffffffffffffffffffffff1673ffffffffffffffffffffffffffffffffffffffff168152602001908152602001600020600201600082825461149b91906162d5565b9250508190555080600c60003373ffffffffffffffffffffffffffffffffffffffff1673ffffffffffffffffffffffffffffffffffffffff168152602001908152602001600020600201541015611527576040517f08c379a000000000000000000000000000000000000000000000000000000000815260040161151e90616190565b60405180910390fd5b6000819050806017541015611571576040517f08c379a000000000000000000000000000000000000000000000000000000000815260040161156890616050565b60405180910390fd5b80601760008282546115839190616565565b9250508190555081600c60003373ffffffffffffffffffffffffffffffffffffffff1673ffffffffffffffffffffffffffffffffffffffff16815260200190815260200160002060020160008282546115dc9190616565565b9250508190555060003390508073ffffffffffffffffffffffffffffffffffffffff166108fc839081150290604051600060405180830381858888f1935050505015801561162e573d6000803e3d6000fd5b503373ffffffffffffffffffffffffffffffffffffffff167f141ef67c4a6d3ec2adfb2f66d33c2b11de5b4f34344757554d430570b18a92ec8460405161167591906161e6565b60405180910390a2611685614787565b6000600c60003373ffffffffffffffffffffffffffffffffffffffff1673ffffffffffffffffffffffffffffffffffffffff1681526020019081526020016000206000015414156116e6576116e4336012614bae90919063ffffffff16565b505b505050565b600360009054906101000a900460ff1661173a576040517f08c379a000000000000000000000000000000000000000000000000000000000815260040161173190616010565b60405180910390fd5b60008061174633613c5b565b809250819350505082821015611791576040517f08c379a000000000000000000000000000000000000000000000000000000000815260040161178890616170565b60405180910390fd5b6000151561179e33614bde565b1515146117e0576040517f08c379a00000000000000000000000000000000000000000000000000000000081526004016117d790615ff0565b60405180910390fd5b6117e8614c01565b6117f133614cb2565b61184683600c60003373ffffffffffffffffffffffffffffffffffffffff1673ffffffffffffffffffffffffffffffffffffffff16815260200190815260200160002060030154614e6090919063ffffffff16565b600c60003373ffffffffffffffffffffffffffffffffffffffff1673ffffffffffffffffffffffffffffffffffffffff168152602001908152602001600020600301819055506118e183600c60003373ffffffffffffffffffffffffffffffffffffffff1673ffffffffffffffffffffffffffffffffffffffff16815260200190815260200160002060040154614e7690919063ffffffff16565b600c60003373ffffffffffffffffffffffffffffffffffffffff1673ffffffffffffffffffffffffffffffffffffffff1681526020019081526020016000206004018190555061193033614e8c565b60003390508073ffffffffffffffffffffffffffffffffffffffff166108fc859081150290604051600060405180830381858888f1935050505015801561197b573d6000803e3d6000fd5b503373ffffffffffffffffffffffffffffffffffffffff167fbbf701f67a7d285bbd2b9b2dc7a5fee474e6dc3c059183385da6cc9de2be34a9856040516119c291906161e6565b60405180910390a26000602060009054906101000a900473ffffffffffffffffffffffffffffffffffffffff1673ffffffffffffffffffffffffffffffffffffffff166370a08231306040518263ffffffff1660e01b8152600401611a279190615e88565b60206040518083038186803b158015611a3f57600080fd5b505afa158015611a53573d6000803e3d6000fd5b505050506040513d601f19601f82011682018060405250810190611a779190615971565b90506000611a8f60648761475b90919063ffffffff16565b905080821115611b4e57602060009054906101000a900473ffffffffffffffffffffffffffffffffffffffff1673ffffffffffffffffffffffffffffffffffffffff1663a9059cbb33836040518363ffffffff1660e01b8152600401611af6929190615ee8565b602060405180830381600087803b158015611b1057600080fd5b505af1158015611b24573d6000803e3d6000fd5b505050506040513d601f19601f82011682018060405250810190611b4891906158de565b50611c09565b6000821115611c0857602060009054906101000a900473ffffffffffffffffffffffffffffffffffffffff1673ffffffffffffffffffffffffffffffffffffffff1663a9059cbb33846040518363ffffffff1660e01b8152600401611bb4929190615ee8565b602060405180830381600087803b158015611bce57600080fd5b505af1158015611be2573d6000803e3d6000fd5b505050506040513d601f19601f82011682018060405250810190611c0691906158de565b505b5b611c11614787565b505050505050565b601c5481565b611c27614faf565b73ffffffffffffffffffffffffffffffffffffffff16611c45612bea565b73ffffffffffffffffffffffffffffffffffffffff1614611c9b576040517f08c379a0000000000000000000000000000000000000000000000000000000008152600401611c9290616090565b60405180910390fd5b80602160006101000a81548173ffffffffffffffffffffffffffffffffffffffff021916908373ffffffffffffffffffffffffffffffffffffffff16021790555050565b600360019054906101000a900473ffffffffffffffffffffffffffffffffffffffff1673ffffffffffffffffffffffffffffffffffffffff163373ffffffffffffffffffffffffffffffffffffffff1614611d6f576040517f08c379a0000000000000000000000000000000000000000000000000000000008152600401611d6690616130565b60405180910390fd5b565b600360009054906101000a900460ff16611dc0576040517f08c379a0000000000000000000000000000000000000000000000000000000008152600401611db790616010565b60405180910390fd5b601f60009054906101000a900473ffffffffffffffffffffffffffffffffffffffff1673ffffffffffffffffffffffffffffffffffffffff166370a08231336040518263ffffffff1660e01b8152600401611e1b9190615e88565b60206040518083038186803b158015611e3357600080fd5b505afa158015611e47573d6000803e3d6000fd5b505050506040513d601f19601f82011682018060405250810190611e6b9190615971565b811115611ead576040517f08c379a0000000000000000000000000000000000000000000000000000000008152600401611ea4906160d0565b60405180910390fd5b601f60009054906101000a900473ffffffffffffffffffffffffffffffffffffffff1673ffffffffffffffffffffffffffffffffffffffff16630d1118ce33836040518363ffffffff1660e01b8152600401611f0a929190615ee8565b600060405180830381600087803b158015611f2457600080fd5b505af1158015611f38573d6000803e3d6000fd5b5050505080601d6000828254611f4e91906162d5565b92505081905550601e54601d54111561201957611fa76001611f98683635c9adc5dea00000611f8a601e54601d54614e7690919063ffffffff16565b61475b90919063ffffffff16565b611fa2919061632b565b613a05565b612000683635c9adc5dea000006001611fe8683635c9adc5dea00000611fda601e54601d54614e7690919063ffffffff16565b61475b90919063ffffffff16565b611ff291906162d5565b61477190919063ffffffff16565b601e600082825461201191906162d5565b925050819055505b80600c60003373ffffffffffffffffffffffffffffffffffffffff1673ffffffffffffffffffffffffffffffffffffffff168152602001908152602001600020600101600082825461206b91906162d5565b925050819055506120eb6040518060400160405280838152602001600554612091614fb7565b61209b91906162d5565b815250600d60003373ffffffffffffffffffffffffffffffffffffffff1673ffffffffffffffffffffffffffffffffffffffff168152602001908152602001600020614fbf90919063ffffffff16565b612132600d60003373ffffffffffffffffffffffffffffffffffffffff1673ffffffffffffffffffffffffffffffffffffffff168152602001908152602001600020614b1f565b600c60003373ffffffffffffffffffffffffffffffffffffffff1673ffffffffffffffffffffffffffffffffffffffff168152602001908152602001600020600201600082825461218391906162d5565b925050819055503373ffffffffffffffffffffffffffffffffffffffff167fd81524ca5b038be9f98b286808a6f46f99c8700bce9ab4793dc12a2dbaa4f2d8826040516121d091906161e6565b60405180910390a26121e0614c01565b6121e933614cb2565b6121f233614e8c565b80600960000160008282546122079190616565565b92505081905550612216614787565b50565b601d5481565b60148060000154908060010154905082565b600061224f600a612241846136d5565b61475b90919063ffffffff16565b61232861225c91906162d5565b9050919050565b6000601a60009054906101000a900473ffffffffffffffffffffffffffffffffffffffff16905090565b600360009054906101000a900460ff1681565b600360009054906101000a900460ff166122ef576040517f08c379a00000000000000000000000000000000000000000000000000000000081526004016122e690616010565b60405180910390fd5b6122f8816113b4565b50565b60045481565b612309614faf565b73ffffffffffffffffffffffffffffffffffffffff16612327612bea565b73ffffffffffffffffffffffffffffffffffffffff161461237d576040517f08c379a000000000000000000000000000000000000000000000000000000000815260040161237490616090565b60405180910390fd5b80602260006101000a81548173ffffffffffffffffffffffffffffffffffffffff021916908373ffffffffffffffffffffffffffffffffffffffff16021790555050565b6123c9614faf565b73ffffffffffffffffffffffffffffffffffffffff166123e7612bea565b73ffffffffffffffffffffffffffffffffffffffff161461243d576040517f08c379a000000000000000000000000000000000000000000000000000000000815260040161243490616090565b60405180910390fd5b6124476000615008565b565b600360009054906101000a900460ff16612498576040517f08c379a000000000000000000000000000000000000000000000000000000000815260040161248f90616010565b60405180910390fd5b601a60009054906101000a900473ffffffffffffffffffffffffffffffffffffffff1673ffffffffffffffffffffffffffffffffffffffff163373ffffffffffffffffffffffffffffffffffffffff1614612528576040517f08c379a000000000000000000000000000000000000000000000000000000000815260040161251f90615fd0565b60405180910390fd5b60008061253483613c5b565b80925081935050508382101561257f576040517f08c379a000000000000000000000000000000000000000000000000000000000815260040161257690616170565b60405180910390fd5b6001151561258c84614bde565b1515146125ce576040517f08c379a00000000000000000000000000000000000000000000000000000000081526004016125c590616030565b60405180910390fd5b6125d6614c01565b6125df83614cb2565b61263484600c60008673ffffffffffffffffffffffffffffffffffffffff1673ffffffffffffffffffffffffffffffffffffffff16815260200190815260200160002060030154614e6090919063ffffffff16565b600c60008573ffffffffffffffffffffffffffffffffffffffff1673ffffffffffffffffffffffffffffffffffffffff168152602001908152602001600020600301819055506126cf84600c60008673ffffffffffffffffffffffffffffffffffffffff1673ffffffffffffffffffffffffffffffffffffffff16815260200190815260200160002060040154614e7690919063ffffffff16565b600c60008573ffffffffffffffffffffffffffffffffffffffff1673ffffffffffffffffffffffffffffffffffffffff1681526020019081526020016000206004018190555061271e83614e8c565b60003390508073ffffffffffffffffffffffffffffffffffffffff166108fc869081150290604051600060405180830381858888f19350505050158015612769573d6000803e3d6000fd5b508373ffffffffffffffffffffffffffffffffffffffff167fbbf701f67a7d285bbd2b9b2dc7a5fee474e6dc3c059183385da6cc9de2be34a9866040516127b091906161e6565b60405180910390a26127c0614787565b5050505050565b6127cf614faf565b73ffffffffffffffffffffffffffffffffffffffff166127ed612bea565b73ffffffffffffffffffffffffffffffffffffffff1614612843576040517f08c379a000000000000000000000000000000000000000000000000000000000815260040161283a90616090565b60405180910390fd5b80600690805190602001906128599291906155fd565b5050565b612865615683565b600060096040518060600160405290816000820154815260200160018201548152602001600282015481525050905060006128b5600e600101546128a76150cc565b614e7690919063ffffffff16565b90506128ce818360400151614e6090919063ffffffff16565b826040018181525050819250505090565b600060159054906101000a900460ff16806129075750600060149054906101000a900460ff16155b612946576040517f08c379a000000000000000000000000000000000000000000000000000000000815260040161293d90616070565b60405180910390fd5b60008060159054906101000a900460ff161590508015612997576001600060156101000a81548160ff0219169083151502179055506001600060146101000a81548160ff0219169083151502179055505b6103e8600181905550683635c9adc5dea00000600281905550610e106007620151806129c3919061650b565b6129cd91906162d5565b60058190555061271060048190555033601960006101000a81548173ffffffffffffffffffffffffffffffffffffffff021916908373ffffffffffffffffffffffffffffffffffffffff16021790555033602160006101000a81548173ffffffffffffffffffffffffffffffffffffffff021916908373ffffffffffffffffffffffffffffffffffffffff1602179055508015612a7f5760008060156101000a81548160ff0219169083151502179055505b50565b600360009054906101000a900460ff16612ad1576040517f08c379a0000000000000000000000000000000000000000000000000000000008152600401612ac890616010565b60405180910390fd5b600080612add33613c5b565b809250819350505060008211612b28576040517f08c379a0000000000000000000000000000000000000000000000000000000008152600401612b1f906160f0565b60405180910390fd5b612b31826116eb565b5050565b6000600754905090565b6000600360019054906101000a900473ffffffffffffffffffffffffffffffffffffffff1673ffffffffffffffffffffffffffffffffffffffff163373ffffffffffffffffffffffffffffffffffffffff1614612bd1576040517f08c379a0000000000000000000000000000000000000000000000000000000008152600401612bc890616130565b60405180910390fd5b6000612bdd60146150d4565b9050806000015191505090565b60008060009054906101000a900473ffffffffffffffffffffffffffffffffffffffff16905090565b612c1b614faf565b73ffffffffffffffffffffffffffffffffffffffff16612c39612bea565b73ffffffffffffffffffffffffffffffffffffffff1614612c8f576040517f08c379a0000000000000000000000000000000000000000000000000000000008152600401612c8690616090565b60405180910390fd5b80600360016101000a81548173ffffffffffffffffffffffffffffffffffffffff021916908373ffffffffffffffffffffffffffffffffffffffff1602179055506001600360006101000a81548160ff02191690831515021790555050565b6000612d0482601261519990919063ffffffff16565b9050919050565b612d13614faf565b73ffffffffffffffffffffffffffffffffffffffff16612d31612bea565b73ffffffffffffffffffffffffffffffffffffffff1614612d87576040517f08c379a0000000000000000000000000000000000000000000000000000000008152600401612d7e90616090565b60405180910390fd5b80600181905550670de0b6b3a764000081612da2919061650b565b60028190555050565b6000612db760126151b3565b905090565b60003411612dff576040517f08c379a0000000000000000000000000000000000000000000000000000000008152600401612df690616110565b60405180910390fd5b6000600360019054906101000a900473ffffffffffffffffffffffffffffffffffffffff1690508073ffffffffffffffffffffffffffffffffffffffff166108fc349081150290604051600060405180830381858888f19350505050158015612e6c573d6000803e3d6000fd5b5034601b6000828254612e7f91906162d5565b92505081905550601f60009054906101000a900473ffffffffffffffffffffffffffffffffffffffff1673ffffffffffffffffffffffffffffffffffffffff16636039fbdb33612ef4612710612ee6612ed733612231565b3461477190919063ffffffff16565b61475b90919063ffffffff16565b6040518363ffffffff1660e01b8152600401612f11929190615ee8565b600060405180830381600087803b158015612f2b57600080fd5b505af1158015612f3f573d6000803e3d6000fd5b50505050601f60009054906101000a900473ffffffffffffffffffffffffffffffffffffffff1673ffffffffffffffffffffffffffffffffffffffff16636039fbdb602260009054906101000a900473ffffffffffffffffffffffffffffffffffffffff16612fd3612710612fc5612fb633612231565b3461477190919063ffffffff16565b61475b90919063ffffffff16565b34612fde9190616565565b6040518363ffffffff1660e01b8152600401612ffb929190615ee8565b600060405180830381600087803b15801561301557600080fd5b505af1158015613029573d6000803e3d6000fd5b50505050683635c9adc5dea00000601c54601b546130479190616565565b106130c3576000613080683635c9adc5dea00000613072601c54601b54614e7690919063ffffffff16565b61475b90919063ffffffff16565b9050806018600082825461309491906162d5565b92505081905550600254816130a9919061650b565b601c60008282546130ba91906162d5565b92505081905550505b6000602060009054906101000a900473ffffffffffffffffffffffffffffffffffffffff1673ffffffffffffffffffffffffffffffffffffffff166370a08231306040518263ffffffff1660e01b81526004016131209190615e88565b60206040518083038186803b15801561313857600080fd5b505afa15801561314c573d6000803e3d6000fd5b505050506040513d601f19601f820116820180604052508101906131709190615971565b905060006131c46131a969021e19e0c9bab240000084692a5a058fc295ed00000061319b9190616565565b61475b90919063ffffffff16565b600a6131b591906163ed565b3461475b90919063ffffffff16565b90508082111561328357602060009054906101000a900473ffffffffffffffffffffffffffffffffffffffff1673ffffffffffffffffffffffffffffffffffffffff1663a9059cbb33836040518363ffffffff1660e01b815260040161322b929190615ee8565b602060405180830381600087803b15801561324557600080fd5b505af1158015613259573d6000803e3d6000fd5b505050506040513d601f19601f8201168201806040525081019061327d91906158de565b5061333e565b600082111561333d57602060009054906101000a900473ffffffffffffffffffffffffffffffffffffffff1673ffffffffffffffffffffffffffffffffffffffff1663a9059cbb33846040518363ffffffff1660e01b81526004016132e9929190615ee8565b602060405180830381600087803b15801561330357600080fd5b505af1158015613317573d6000803e3d6000fd5b505050506040513d601f19601f8201168201806040525081019061333b91906158de565b505b5b3373ffffffffffffffffffffffffffffffffffffffff167ff5ebfcde71acb15a758233f0c9ab25632209399b90a9209a4f2379ec5fcee89f3460405161338491906161e6565b60405180910390a2613394614c01565b61339d33614cb2565b6133a633614e8c565b34600960000160008282546133bb91906162d5565b925050819055506133ca614787565b6133de3360126151c890919063ffffffff16565b50505050565b601a60009054906101000a900473ffffffffffffffffffffffffffffffffffffffff1681565b60055481565b613418614faf565b73ffffffffffffffffffffffffffffffffffffffff16613436612bea565b73ffffffffffffffffffffffffffffffffffffffff161461348c576040517f08c379a000000000000000000000000000000000000000000000000000000000815260040161348390616090565b60405180910390fd5b80601f60006101000a81548173ffffffffffffffffffffffffffffffffffffffff021916908373ffffffffffffffffffffffffffffffffffffffff16021790555050565b6134d8614faf565b73ffffffffffffffffffffffffffffffffffffffff166134f6612bea565b73ffffffffffffffffffffffffffffffffffffffff161461354c576040517f08c379a000000000000000000000000000000000000000000000000000000000815260040161354390616090565b60405180910390fd5b6000600c60008473ffffffffffffffffffffffffffffffffffffffff1673ffffffffffffffffffffffffffffffffffffffff16815260200190815260200160002060000154905060008114156135a257506136d1565b6135ab83614cb2565b6000600c60008573ffffffffffffffffffffffffffffffffffffffff1673ffffffffffffffffffffffffffffffffffffffff168152602001908152602001600020600001819055506000600c60008573ffffffffffffffffffffffffffffffffffffffff1673ffffffffffffffffffffffffffffffffffffffff168152602001908152602001600020600101819055506136aa60405180604001604052808381526020018467ffffffffffffffff16815250600d60008673ffffffffffffffffffffffffffffffffffffffff1673ffffffffffffffffffffffffffffffffffffffff168152602001908152602001600020614fbf90919063ffffffff16565b6136b383614e8c565b80600960000160008282546136c89190616565565b92505081905550505b5050565b6000601960009054906101000a900473ffffffffffffffffffffffffffffffffffffffff1673ffffffffffffffffffffffffffffffffffffffff16602160009054906101000a900473ffffffffffffffffffffffffffffffffffffffff1673ffffffffffffffffffffffffffffffffffffffff1614156137595760045490506139fa565b6001602160009054906101000a900473ffffffffffffffffffffffffffffffffffffffff1673ffffffffffffffffffffffffffffffffffffffff166397dba8a1846040518263ffffffff1660e01b81526004016137b69190615e88565b60206040518083038186803b1580156137ce57600080fd5b505afa1580156137e2573d6000803e3d6000fd5b505050506040513d601f19601f820116820180604052508101906138069190615971565b141561384857606460326004546127106138209190616565565b61382a919061650b565b6138349190616369565b6127106138419190616565565b90506139fa565b6002602160009054906101000a900473ffffffffffffffffffffffffffffffffffffffff1673ffffffffffffffffffffffffffffffffffffffff166397dba8a1846040518263ffffffff1660e01b81526004016138a59190615e88565b60206040518083038186803b1580156138bd57600080fd5b505afa1580156138d1573d6000803e3d6000fd5b505050506040513d601f19601f820116820180604052508101906138f59190615971565b1415613937576064601960045461271061390f9190616565565b613919919061650b565b6139239190616369565b6127106139309190616565565b90506139fa565b6003602160009054906101000a900473ffffffffffffffffffffffffffffffffffffffff1673ffffffffffffffffffffffffffffffffffffffff166397dba8a1846040518263ffffffff1660e01b81526004016139949190615e88565b60206040518083038186803b1580156139ac57600080fd5b505afa1580156139c0573d6000803e3d6000fd5b505050506040513d601f19601f820116820180604052508101906139e49190615971565b14156139f45761271090506139fa565b60045490505b919050565b601b5481565b600360009054906101000a900460ff16613a54576040517f08c379a0000000000000000000000000000000000000000000000000000000008152600401613a4b90616010565b60405180910390fd5b613a8060405180602001604052808367ffffffffffffffff1681525060146151f890919063ffffffff16565b50565b613a8b614faf565b73ffffffffffffffffffffffffffffffffffffffff16613aa9612bea565b73ffffffffffffffffffffffffffffffffffffffff1614613aff576040517f08c379a0000000000000000000000000000000000000000000000000000000008152600401613af690616090565b60405180910390fd5b60008167ffffffffffffffff16118015613b2557506127108167ffffffffffffffff1611155b613b64576040517f08c379a0000000000000000000000000000000000000000000000000000000008152600401613b5b906160b0565b60405180910390fd5b8067ffffffffffffffff1660048190555050565b6000601460000154601460010154613b909190616565565b905090565b600080600080601f60009054906101000a900473ffffffffffffffffffffffffffffffffffffffff16602060009054906101000a900473ffffffffffffffffffffffffffffffffffffffff16602260009054906101000a900473ffffffffffffffffffffffffffffffffffffffff16602160009054906101000a900473ffffffffffffffffffffffffffffffffffffffff16935093509350935090919293565b601960009054906101000a900473ffffffffffffffffffffffffffffffffffffffff1681565b6000806000600c60008573ffffffffffffffffffffffffffffffffffffffff1673ffffffffffffffffffffffffffffffffffffffff168152602001908152602001600020600401549050600060085490506000600e60010154613cbc6150cc565b613cc69190616565565b90506000601160008873ffffffffffffffffffffffffffffffffffffffff1673ffffffffffffffffffffffffffffffffffffffff168152602001908152602001600020604051806060016040529081600082015481526020016001820154815260200160028201548152505090506000821115613d89576000613d70600e60000154613d62662386f26fc100008661477190919063ffffffff16565b61475b90919063ffffffff16565b9050613d858185614e6090919063ffffffff16565b9350505b600081600001511115613e00576000613dde662386f26fc10000613dd08460000151613dc2866020015189614e7690919063ffffffff16565b61477190919063ffffffff16565b61475b90919063ffffffff16565b9050613dfc613ded828a615237565b86614e6090919063ffffffff16565b9450505b6000602060009054906101000a900473ffffffffffffffffffffffffffffffffffffffff1673ffffffffffffffffffffffffffffffffffffffff166370a08231306040518263ffffffff1660e01b8152600401613e5d9190615e88565b60206040518083038186803b158015613e7557600080fd5b505afa158015613e89573d6000803e3d6000fd5b505050506040513d601f19601f82011682018060405250810190613ead9190615971565b90506000613ec560648761475b90919063ffffffff16565b905080821015613ed3578190505b858197509750505050505050915091565b613eec614faf565b73ffffffffffffffffffffffffffffffffffffffff16613f0a612bea565b73ffffffffffffffffffffffffffffffffffffffff1614613f60576040517f08c379a0000000000000000000000000000000000000000000000000000000008152600401613f5790616090565b60405180910390fd5b80602060006101000a81548173ffffffffffffffffffffffffffffffffffffffff021916908373ffffffffffffffffffffffffffffffffffffffff16021790555050565b600360009054906101000a900460ff16613ff3576040517f08c379a0000000000000000000000000000000000000000000000000000000008152600401613fea90616010565b60405180910390fd5b613ffb614c01565b61400482614cb2565b61400d82614e8c565b61401681614cb2565b61401f81614e8c565b601f60009054906101000a900473ffffffffffffffffffffffffffffffffffffffff1673ffffffffffffffffffffffffffffffffffffffff166370a08231836040518263ffffffff1660e01b815260040161407a9190615e88565b60206040518083038186803b15801561409257600080fd5b505afa1580156140a6573d6000803e3d6000fd5b505050506040513d601f19601f820116820180604052508101906140ca9190615971565b600c60008473ffffffffffffffffffffffffffffffffffffffff1673ffffffffffffffffffffffffffffffffffffffff16815260200190815260200160002060000181905550601f60009054906101000a900473ffffffffffffffffffffffffffffffffffffffff1673ffffffffffffffffffffffffffffffffffffffff166370a08231826040518263ffffffff1660e01b815260040161416b9190615e88565b60206040518083038186803b15801561418357600080fd5b505afa158015614197573d6000803e3d6000fd5b505050506040513d601f19601f820116820180604052508101906141bb9190615971565b600c60008373ffffffffffffffffffffffffffffffffffffffff1673ffffffffffffffffffffffffffffffffffffffff168152602001908152602001600020600001819055506142158160126151c890919063ffffffff16565b506000600c60008473ffffffffffffffffffffffffffffffffffffffff1673ffffffffffffffffffffffffffffffffffffffff16815260200190815260200160002060000154141561427757614275826012614bae90919063ffffffff16565b505b61427f614787565b5050565b61428b6156a4565b6000600c60008473ffffffffffffffffffffffffffffffffffffffff1673ffffffffffffffffffffffffffffffffffffffff1681526020019081526020016000206040518060a0016040529081600082015481526020016001820154815260200160028201548152602001600382015481526020016004820154815250509050614352600d60008573ffffffffffffffffffffffffffffffffffffffff1673ffffffffffffffffffffffffffffffffffffffff168152602001908152602001600020615270565b8160400181815161436391906162d5565b9150818152505080915050919050565b61437b614faf565b73ffffffffffffffffffffffffffffffffffffffff16614399612bea565b73ffffffffffffffffffffffffffffffffffffffff16146143ef576040517f08c379a00000000000000000000000000000000000000000000000000000000081526004016143e690616090565b60405180910390fd5b8067ffffffffffffffff1660058190555050565b61440b614faf565b73ffffffffffffffffffffffffffffffffffffffff16614429612bea565b73ffffffffffffffffffffffffffffffffffffffff161461447f576040517f08c379a000000000000000000000000000000000000000000000000000000000815260040161447690616090565b60405180910390fd5b80601a60006101000a81548173ffffffffffffffffffffffffffffffffffffffff021916908373ffffffffffffffffffffffffffffffffffffffff16021790555050565b6144cb614faf565b73ffffffffffffffffffffffffffffffffffffffff166144e9612bea565b73ffffffffffffffffffffffffffffffffffffffff161461453f576040517f08c379a000000000000000000000000000000000000000000000000000000000815260040161453690616090565b60405180910390fd5b600061454b60126151b3565b9050600081141561455c57506145ca565b614564614c01565b6000838561457291906162d5565b905081811115614580578190505b60008590505b818110156145be576145ab6145a582601261519990919063ffffffff16565b856134d0565b80806145b69061669a565b915050614586565b506145c7614787565b50505b505050565b6145d7614faf565b73ffffffffffffffffffffffffffffffffffffffff166145f5612bea565b73ffffffffffffffffffffffffffffffffffffffff161461464b576040517f08c379a000000000000000000000000000000000000000000000000000000000815260040161464290616090565b60405180910390fd5b600073ffffffffffffffffffffffffffffffffffffffff168173ffffffffffffffffffffffffffffffffffffffff1614156146bb576040517f08c379a00000000000000000000000000000000000000000000000000000000081526004016146b290615fb0565b60405180910390fd5b6146c481615008565b50565b600680546146d490616637565b80601f016020809104026020016040519081016040528092919081815260200182805461470090616637565b801561474d5780601f106147225761010080835404028352916020019161474d565b820191906000526020600020905b81548152906001019060200180831161473057829003601f168201915b505050505081565b60085481565b600081836147699190616369565b905092915050565b6000818361477f919061650b565b905092915050565b600960000154600e6000018190555061479e6150cc565b600e600101819055506147af614fb7565b600e60020181905550565b606060008367ffffffffffffffff1685600001546147d891906162d5565b90508460010154811061486857600067ffffffffffffffff811115614826577f4e487b7100000000000000000000000000000000000000000000000000000000600052604160045260246000fd5b60405190808252806020026020018201604052801561485f57816020015b61484c6156d3565b8152602001906001900390816148445790505b509150506149cb565b60008367ffffffffffffffff168261488091906162d5565b9050856001015481111561489657856001015490505b600082826148a49190616565565b67ffffffffffffffff8111156148e3577f4e487b7100000000000000000000000000000000000000000000000000000000600052604160045260246000fd5b60405190808252806020026020018201604052801561491c57816020015b6149096156d3565b8152602001906001900390816149015790505b50905060008390505b828110156149c3578760020160008281526020019081526020016000206040518060400160405290816000820154815260200160018201548152505082858361496e9190616565565b815181106149a5577f4e487b7100000000000000000000000000000000000000000000000000000000600052603260045260246000fd5b602002602001018190525080806149bb9061669a565b915050614925565b508093505050505b9392505050565b60606000826000015483600101546149ea9190616565565b67ffffffffffffffff811115614a29577f4e487b7100000000000000000000000000000000000000000000000000000000600052604160045260246000fd5b604051908082528060200260200182016040528015614a6257816020015b614a4f6156d3565b815260200190600190039081614a475790505b5090506000836000015490505b8360010154811015614b15578360020160008281526020019081526020016000206040518060400160405290816000820154815260200160018201548152505082856000015483614ac09190616565565b81518110614af7577f4e487b7100000000000000000000000000000000000000000000000000000000600052603260045260246000fd5b60200260200101819052508080614b0d9061669a565b915050614a6f565b5080915050919050565b600080600090506000836000015490505b8360010154811015614ba45743846002016000838152602001908152602001600020600101541115614b6157614ba4565b8360020160008281526020019081526020016000206000015482614b8591906162d5565b9150614b90846152f5565b508080614b9c9061669a565b915050614b30565b5080915050919050565b6000614bd6836000018373ffffffffffffffffffffffffffffffffffffffff1660001b615382565b905092915050565b6000808273ffffffffffffffffffffffffffffffffffffffff163b119050919050565b6000600e60010154614c116150cc565b614c1b9190616565565b90506000811480614c3157506000600e60000154145b15614c3c5750614cb0565b6000614c5d662386f26fc10000600e6000015461475b90919063ffffffff16565b9050614c86614c75828461475b90919063ffffffff16565b600854614e6090919063ffffffff16565b600881905550614ca482600960020154614e6090919063ffffffff16565b60096002018190555050505b565b6000601160008373ffffffffffffffffffffffffffffffffffffffff1673ffffffffffffffffffffffffffffffffffffffff16815260200190815260200160002060405180606001604052908160008201548152602001600182015481526020016002820154815250509050600081600001511415614d315750614e5d565b6000614d7b662386f26fc10000614d6d8460000151614d5f8660200151600854614e7690919063ffffffff16565b61477190919063ffffffff16565b61475b90919063ffffffff16565b90506000614d898285615237565b9050614de081600c60008773ffffffffffffffffffffffffffffffffffffffff1673ffffffffffffffffffffffffffffffffffffffff16815260200190815260200160002060040154614e6090919063ffffffff16565b600c60008673ffffffffffffffffffffffffffffffffffffffff1673ffffffffffffffffffffffffffffffffffffffff16815260200190815260200160002060040181905550614e50614e3c8284614e7690919063ffffffff16565b600960010154614e6090919063ffffffff16565b6009600101819055505050505b50565b60008183614e6e91906162d5565b905092915050565b60008183614e849190616565565b905092915050565b600c60008273ffffffffffffffffffffffffffffffffffffffff1673ffffffffffffffffffffffffffffffffffffffff16815260200190815260200160002060000154601160008373ffffffffffffffffffffffffffffffffffffffff1673ffffffffffffffffffffffffffffffffffffffff16815260200190815260200160002060000181905550600854601160008373ffffffffffffffffffffffffffffffffffffffff1673ffffffffffffffffffffffffffffffffffffffff16815260200190815260200160002060010181905550614f66614fb7565b601160008373ffffffffffffffffffffffffffffffffffffffff1673ffffffffffffffffffffffffffffffffffffffff1681526020019081526020016000206002018190555050565b600033905090565b600043905090565b80826002016000846001016000815480929190614fdb9061669a565b91905055815260200190815260200160002060008201518160000155602082015181600101559050505050565b60008060009054906101000a900473ffffffffffffffffffffffffffffffffffffffff169050816000806101000a81548173ffffffffffffffffffffffffffffffffffffffff021916908373ffffffffffffffffffffffffffffffffffffffff1602179055508173ffffffffffffffffffffffffffffffffffffffff168173ffffffffffffffffffffffffffffffffffffffff167f8be0079c531659141344cd1fd0a4f28419497f9722a3daafe3b4186f6b6457e060405160405180910390a35050565b600047905090565b6150dc6156ed565b8160010154826000015410615126576040517f08c379a000000000000000000000000000000000000000000000000000000000815260040161511d90615f70565b60405180910390fd5b60008260020160008460000154815260200190815260200160002060405180602001604052908160008201548152505090508260020160008460000160008154809291906151739061669a565b919050558152602001908152602001600020600080820160009055505080915050919050565b60006151a88360000183615508565b60001c905092915050565b60006151c182600001615559565b9050919050565b60006151f0836000018373ffffffffffffffffffffffffffffffffffffffff1660001b61556a565b905092915050565b808260020160008460010160008154809291906152149061669a565b919050558152602001908152602001600020600082015181600001559050505050565b600061526861271061525a61524b856136d5565b8661477190919063ffffffff16565b61475b90919063ffffffff16565b905092915050565b600080600090506000836000015490505b83600101548110156152eb57438460020160008381526020019081526020016000206001015411156152b2576152eb565b83600201600082815260200190815260200160002060000154826152d691906162d5565b915080806152e39061669a565b915050615281565b5080915050919050565b6152fd6156d3565b6000826002016000846000015481526020019081526020016000206040518060400160405290816000820154815260200160018201548152505090508260020160008460000160008154809291906153549061669a565b9190505581526020019081526020016000206000808201600090556001820160009055505080915050919050565b600080836001016000848152602001908152602001600020549050600081146154fc5760006001826153b49190616565565b90506000600186600001805490506153cc9190616565565b9050818114615487576000866000018281548110615413577f4e487b7100000000000000000000000000000000000000000000000000000000600052603260045260246000fd5b906000526020600020015490508087600001848154811061545d577f4e487b7100000000000000000000000000000000000000000000000000000000600052603260045260246000fd5b90600052602060002001819055508387600101600083815260200190815260200160002081905550505b856000018054806154c1577f4e487b7100000000000000000000000000000000000000000000000000000000600052603160045260246000fd5b600190038181906000526020600020016000905590558560010160008681526020019081526020016000206000905560019350505050615502565b60009150505b92915050565b6000826000018281548110615546577f4e487b7100000000000000000000000000000000000000000000000000000000600052603260045260246000fd5b9060005260206000200154905092915050565b600081600001805490509050919050565b600061557683836155da565b6155cf5782600001829080600181540180825580915050600190039060005260206000200160009091909190915055826000018054905083600101600084815260200190815260200160002081905550600190506155d4565b600090505b92915050565b600080836001016000848152602001908152602001600020541415905092915050565b82805461560990616637565b90600052602060002090601f01602090048101928261562b5760008555615672565b82601f1061564457805160ff1916838001178555615672565b82800160010185558215615672579182015b82811115615671578251825591602001919060010190615656565b5b50905061567f9190615700565b5090565b60405180606001604052806000815260200160008152602001600081525090565b6040518060a0016040528060008152602001600081526020016000815260200160008152602001600081525090565b604051806040016040528060008152602001600081525090565b6040518060200160405280600081525090565b5b80821115615719576000816000905550600101615701565b5090565b600061573061572b8461624f565b61622a565b90508281526020810184848401111561574857600080fd5b6157538482856165f5565b509392505050565b60008135905061576a81616b37565b92915050565b60008151905061577f81616b4e565b92915050565b600082601f83011261579657600080fd5b81356157a684826020860161571d565b91505092915050565b6000813590506157be81616b65565b92915050565b6000815190506157d381616b65565b92915050565b6000813590506157e881616b7c565b92915050565b60006020828403121561580057600080fd5b600061580e8482850161575b565b91505092915050565b6000806040838503121561582a57600080fd5b60006158388582860161575b565b92505060206158498582860161575b565b9150509250929050565b6000806040838503121561586657600080fd5b60006158748582860161575b565b9250506020615885858286016157d9565b9150509250929050565b6000806000606084860312156158a457600080fd5b60006158b28682870161575b565b93505060206158c3868287016157d9565b92505060406158d4868287016157d9565b9150509250925092565b6000602082840312156158f057600080fd5b60006158fe84828501615770565b91505092915050565b60006020828403121561591957600080fd5b600082013567ffffffffffffffff81111561593357600080fd5b61593f84828501615785565b91505092915050565b60006020828403121561595a57600080fd5b6000615968848285016157af565b91505092915050565b60006020828403121561598357600080fd5b6000615991848285016157c4565b91505092915050565b600080604083850312156159ad57600080fd5b60006159bb858286016157af565b92505060206159cc8582860161575b565b9150509250929050565b6000806000606084860312156159eb57600080fd5b60006159f9868287016157af565b9350506020615a0a868287016157af565b9250506040615a1b868287016157d9565b9150509250925092565b600060208284031215615a3757600080fd5b6000615a45848285016157d9565b91505092915050565b6000615a5a8383615dd3565b60408301905092915050565b615a6f81616599565b82525050565b6000615a8082616290565b615a8a81856162b3565b9350615a9583616280565b8060005b83811015615ac6578151615aad8882615a4e565b9750615ab8836162a6565b925050600181019050615a99565b5085935050505092915050565b615adc816165ab565b82525050565b6000615aed8261629b565b615af781856162c4565b9350615b07818560208601616604565b615b108161679f565b840191505092915050565b6000615b28600e836162c4565b9150615b33826167bd565b602082019050919050565b6000615b4b602a836162c4565b9150615b56826167e6565b604082019050919050565b6000615b6e6026836162c4565b9150615b7982616835565b604082019050919050565b6000615b91600a836162c4565b9150615b9c82616884565b602082019050919050565b6000615bb46010836162c4565b9150615bbf826168ad565b602082019050919050565b6000615bd76012836162c4565b9150615be2826168d6565b602082019050919050565b6000615bfa6010836162c4565b9150615c05826168ff565b602082019050919050565b6000615c1d601e836162c4565b9150615c2882616928565b602082019050919050565b6000615c40602e836162c4565b9150615c4b82616951565b604082019050919050565b6000615c636020836162c4565b9150615c6e826169a0565b602082019050919050565b6000615c866017836162c4565b9150615c91826169c9565b602082019050919050565b6000615ca9600e836162c4565b9150615cb4826169f2565b602082019050919050565b6000615ccc6015836162c4565b9150615cd782616a1b565b602082019050919050565b6000615cef6008836162c4565b9150615cfa82616a44565b602082019050919050565b6000615d126016836162c4565b9150615d1d82616a6d565b602082019050919050565b6000615d35602e836162c4565b9150615d4082616a96565b604082019050919050565b6000615d586013836162c4565b9150615d6382616ae5565b602082019050919050565b6000615d7b6016836162c4565b9150615d8682616b0e565b602082019050919050565b606082016000820151615da76000850182615e6a565b506020820151615dba6020850182615e6a565b506040820151615dcd6040850182615e6a565b50505050565b604082016000820151615de96000850182615e6a565b506020820151615dfc6020850182615e6a565b50505050565b60a082016000820151615e186000850182615e6a565b506020820151615e2b6020850182615e6a565b506040820151615e3e6040850182615e6a565b506060820151615e516060850182615e6a565b506080820151615e646080850182615e6a565b50505050565b615e73816165d7565b82525050565b615e82816165d7565b82525050565b6000602082019050615e9d6000830184615a66565b92915050565b6000608082019050615eb86000830187615a66565b615ec56020830186615a66565b615ed26040830185615a66565b615edf6060830184615a66565b95945050505050565b6000604082019050615efd6000830185615a66565b615f0a6020830184615e79565b9392505050565b60006020820190508181036000830152615f2b8184615a75565b905092915050565b6000602082019050615f486000830184615ad3565b92915050565b60006020820190508181036000830152615f688184615ae2565b905092915050565b60006020820190508181036000830152615f8981615b1b565b9050919050565b60006020820190508181036000830152615fa981615b3e565b9050919050565b60006020820190508181036000830152615fc981615b61565b9050919050565b60006020820190508181036000830152615fe981615b84565b9050919050565b6000602082019050818103600083015261600981615ba7565b9050919050565b6000602082019050818103600083015261602981615bca565b9050919050565b6000602082019050818103600083015261604981615bed565b9050919050565b6000602082019050818103600083015261606981615c10565b9050919050565b6000602082019050818103600083015261608981615c33565b9050919050565b600060208201905081810360008301526160a981615c56565b9050919050565b600060208201905081810360008301526160c981615c79565b9050919050565b600060208201905081810360008301526160e981615c9c565b9050919050565b6000602082019050818103600083015261610981615cbf565b9050919050565b6000602082019050818103600083015261612981615ce2565b9050919050565b6000602082019050818103600083015261614981615d05565b9050919050565b6000602082019050818103600083015261616981615d28565b9050919050565b6000602082019050818103600083015261618981615d4b565b9050919050565b600060208201905081810360008301526161a981615d6e565b9050919050565b60006060820190506161c56000830184615d91565b92915050565b600060a0820190506161e06000830184615e02565b92915050565b60006020820190506161fb6000830184615e79565b92915050565b60006040820190506162166000830185615e79565b6162236020830184615e79565b9392505050565b6000616234616245565b90506162408282616669565b919050565b6000604051905090565b600067ffffffffffffffff82111561626a57616269616770565b5b6162738261679f565b9050602081019050919050565b6000819050602082019050919050565b600081519050919050565b600081519050919050565b6000602082019050919050565b600082825260208201905092915050565b600082825260208201905092915050565b60006162e0826165d7565b91506162eb836165d7565b9250827fffffffffffffffffffffffffffffffffffffffffffffffffffffffffffffffff038211156163205761631f6166e3565b5b828201905092915050565b6000616336826165e1565b9150616341836165e1565b92508267ffffffffffffffff0382111561635e5761635d6166e3565b5b828201905092915050565b6000616374826165d7565b915061637f836165d7565b92508261638f5761638e616712565b5b828204905092915050565b6000808291508390505b60018511156163e4578086048111156163c0576163bf6166e3565b5b60018516156163cf5780820291505b80810290506163dd856167b0565b94506163a4565b94509492505050565b60006163f8826165d7565b9150616403836165d7565b92506164307fffffffffffffffffffffffffffffffffffffffffffffffffffffffffffffffff8484616438565b905092915050565b6000826164485760019050616504565b816164565760009050616504565b816001811461646c5760028114616476576164a5565b6001915050616504565b60ff841115616488576164876166e3565b5b8360020a91508482111561649f5761649e6166e3565b5b50616504565b5060208310610133831016604e8410600b84101617156164da5782820a9050838111156164d5576164d46166e3565b5b616504565b6164e7848484600161639a565b925090508184048111156164fe576164fd6166e3565b5b81810290505b9392505050565b6000616516826165d7565b9150616521836165d7565b9250817fffffffffffffffffffffffffffffffffffffffffffffffffffffffffffffffff048311821515161561655a576165596166e3565b5b828202905092915050565b6000616570826165d7565b915061657b836165d7565b92508282101561658e5761658d6166e3565b5b828203905092915050565b60006165a4826165b7565b9050919050565b60008115159050919050565b600073ffffffffffffffffffffffffffffffffffffffff82169050919050565b6000819050919050565b600067ffffffffffffffff82169050919050565b82818337600083830152505050565b60005b83811015616622578082015181840152602081019050616607565b83811115616631576000848401525b50505050565b6000600282049050600182168061664f57607f821691505b6020821081141561666357616662616741565b5b50919050565b6166728261679f565b810181811067ffffffffffffffff8211171561669157616690616770565b5b80604052505050565b60006166a5826165d7565b91507fffffffffffffffffffffffffffffffffffffffffffffffffffffffffffffffff8214156166d8576166d76166e3565b5b600182019050919050565b7f4e487b7100000000000000000000000000000000000000000000000000000000600052601160045260246000fd5b7f4e487b7100000000000000000000000000000000000000000000000000000000600052601260045260246000fd5b7f4e487b7100000000000000000000000000000000000000000000000000000000600052602260045260246000fd5b7f4e487b7100000000000000000000000000000000000000000000000000000000600052604160045260246000fd5b6000601f19601f8301169050919050565b60008160011c9050919050565b7f517565756520697320656d707479000000000000000000000000000000000000600082015250565b7f6d73672e76616c75652073686f756c6420626520766f7465506f776572202a2060008201527f3130303020657468657200000000000000000000000000000000000000000000602082015250565b7f4f776e61626c653a206e6577206f776e657220697320746865207a65726f206160008201527f6464726573730000000000000000000000000000000000000000000000000000602082015250565b7f4d7573742061646d696e00000000000000000000000000000000000000000000600082015250565b7f63616e7420626520436f6e747261637400000000000000000000000000000000600082015250565b7f506f6f6c206973206e6f74207365747465640000000000000000000000000000600082015250565b7f4d75737420626520436f6e747261637400000000000000000000000000000000600082015250565b7f576974686472617761626c6520434658206973206e6f7420656e6f7567680000600082015250565b7f496e697469616c697a61626c653a20636f6e747261637420697320616c72656160008201527f647920696e697469616c697a6564000000000000000000000000000000000000602082015250565b7f4f776e61626c653a2063616c6c6572206973206e6f7420746865206f776e6572600082015250565b7f726174696f2073686f756c6420626520312d3130303030000000000000000000600082015250565b7f4578636565642062616c616e6365000000000000000000000000000000000000600082015250565b7f4e6f20636c61696d61626c6520696e7465726573740000000000000000000000600082015250565b7f6d757374203e2030000000000000000000000000000000000000000000000000600082015250565b7f4f6e6c792062726964676520697320616c6c6f77656400000000000000000000600082015250565b7f63726f7373696e67566f7465732073686f756c6420626520677265617465722060008201527f7468616e20766f7465506f776572000000000000000000000000000000000000602082015250565b7f496e746572657374206e6f7420656e6f75676800000000000000000000000000600082015250565b7f556e6c6f636b6564206973206e6f7420656e6f75676800000000000000000000600082015250565b616b4081616599565b8114616b4b57600080fd5b50565b616b57816165ab565b8114616b6257600080fd5b50565b616b6e816165d7565b8114616b7957600080fd5b50565b616b85816165e1565b8114616b9057600080fd5b5056fea26469706673582212204def4b3ee319934c2075c62cd641cd5987351e57aa7eb2a1d8af18f4fdaad8b264736f6c63430008020033",
  "immutableReferences": {},
  "source": "//SPDX-License-Identifier: BUSL-1.1\npragma solidity ^0.8.0;\n\nimport \"@openzeppelin/contracts/token/ERC20/ERC20.sol\";\nimport \"@openzeppelin/contracts/access/Ownable.sol\";\nimport \"@openzeppelin/contracts/utils/math/SafeMath.sol\";\nimport \"@openzeppelin/contracts/utils/structs/EnumerableSet.sol\";\nimport \"@openzeppelin/contracts/proxy/utils/Initializable.sol\";\nimport \"../VotePowerQueue.sol\";\n//import \"../PoolAPY.sol\";\nimport \"./UnstakeQueue.sol\";\n\n\ninterface XCFXExchange{\n    function addTokens(address _to, uint256 _value) external;\n    function burnTokens(address account, uint256 amount) external;\n    function balanceOf(address account) external view returns(uint256);\n    function totalSupply() external view returns(uint256);\n}\ninterface XVIPI{\n    function tokensOf(address account) external view returns (uint256[] memory _tokens);\n    function Max_level(address account) external view returns (uint256 level);\n}\n///\n///  @title eSpace PoSPool\n///\ncontract ESpacePoSPool is Ownable,Initializable {\n  using SafeMath for uint256;\n  using EnumerableSet for EnumerableSet.AddressSet;\n  using VotePowerQueue for VotePowerQueue.InOutQueue;\n  using UnstakeQueue for UnstakeQueue.Queue;\n\n  uint256 private constant RATIO_BASE = 10000;\n  uint256 private constant ONE_DAY_BLOCK_COUNT = 3600 * 24;\n  uint256 private CFX_COUNT_OF_ONE_VOTE = 1000;\n  uint256 private CFX_VALUE_OF_ONE_VOTE = 1000 ether;\n  \n  \n  // ======================== Pool config =========================\n  // wheter this poolContract registed in PoS\n  bool public birdgeAddrSetted;\n  address private _bridgeAddress;\n  // ratio shared by user: 1-10000\n  uint256 public poolUserShareRatio = 10000;\n  // lock period: 7 days + half hour\n  uint256 public _poolLockPeriod = ONE_DAY_BLOCK_COUNT * 14;\n  string public poolName; // = \"eSpacePool\";\n  uint256 private _poolAPY = 0;\n\n  // ======================== Contract states =========================\n  // global pool accumulative reward for each cfx\n  uint256 public accRewardPerCfx;  // start from 0\n\n  PoolSummary private _poolSummary;\n  mapping(address => UserSummary) private userSummaries;\n  //mapping(address => VotePowerQueue.InOutQueue) private userInqueues;\n  mapping(address => VotePowerQueue.InOutQueue) private userOutqueues;\n\n  PoolShot internal lastPoolShot;\n  mapping(address => UserShot) internal lastUserShots;\n  \n  EnumerableSet.AddressSet private stakers;\n  // Unstake votes queue\n  UnstakeQueue.Queue public unstakeQueue;  //private--debug\n\n  // Currently withdrawable CFX\n  uint256 public withdrawableCfx;\n  // Votes need to cross from eSpace to Core\n  uint256 public crossingVotes;\n\n  // ======================== XCFX use ===================================\n  address public owner_addr;\n  address public admin_addr;\n\n  uint256 public total_minted;\n  uint256 public total_minted_inpool;//total_minted >= total_minted_inpool\n  uint256 public total_burned;\n  uint256 public total_burned_inpool;//total_burned_inpool >= total_burned\n  address XCFX_address;\n  address XET_address;\n  address XVIP_address;\n  address Storage_room_addr;\n\n  // ======================== Struct definitions =========================\n  struct PoolSummary {\n    uint256 available;  //available is XCFX SUM (1 ether XCFX === 1 e18)\n    uint256 interest; // PoS pool current interest\n    uint256 totalInterest; // total historical interest of whole pools\n  }\n\n  /// @title UserSummary\n  /// @custom:field votes User's total votes\n  /// @custom:field available User's avaliable votes\n  /// @custom:field locked\n  /// @custom:field unlocked\n  /// @custom:field claimedInterest\n  /// @custom:field currentInterest\n  struct UserSummary {\n    //uint256 votes;  // Total votes in PoS system, including locking, locked, unlocking, unlocked\n    uint256 available; // XCFX SUM (1 ether XCFX === 1e18)\n    uint256 unlocking;\n    uint256 unlocked;\n    uint256 claimedInterest; // total historical claimed interest\n    uint256 currentInterest; // current claimable interest\n  }\n\n  struct PoolShot {\n    uint256 available; // XCFX SUM (1 ether XCFX === 1)\n    uint256 balance;\n    uint256 blockNumber;\n  } \n\n  struct UserShot {\n    uint256 available; // XCFX SUM (1 ether XCFX === 1)\n    uint256 accRewardPerCfx;\n    uint256 blockNumber;\n  }\n\n  // ======================== Modifiers =========================\n  modifier onlyRegisted() {\n    require(birdgeAddrSetted, \"Pool is not setted\");\n    _;\n  }\n\n  modifier onlyBridge() {\n    require(msg.sender == _bridgeAddress, \"Only bridge is allowed\");\n    _;\n  }\n\n  // ======================== Helpers =========================\n  function _selfBalance() internal view virtual returns (uint256) {\n    return address(this).balance;\n  }\n\n  function _blockNumber() internal view virtual returns (uint256) {\n    return block.number;\n  }\n\n  function _userShareRatio(address _user) public view returns (uint256) {\n    if (XVIP_address==owner_addr) return poolUserShareRatio;\n    if (XVIPI(XVIP_address).Max_level(_user)==1) return RATIO_BASE-((RATIO_BASE-poolUserShareRatio)*50/100);\n    if (XVIPI(XVIP_address).Max_level(_user)==2) return RATIO_BASE-((RATIO_BASE-poolUserShareRatio)*25/100);\n    if (XVIPI(XVIP_address).Max_level(_user)==3) return RATIO_BASE;\n    return poolUserShareRatio;\n  }\n\n  function _calUserShare(uint256 reward, address _stakerAddress) private view returns (uint256) {\n    return reward.mul(_userShareRatio(_stakerAddress)).div(RATIO_BASE);\n  }\n\n  function _userInputRatio(address _user) public view returns (uint256) {\n    return 9000 + _userShareRatio(_user).div(10);\n  }\n\n  // used to update lastPoolShot after _poolSummary.available changed \n  function _updatePoolShot() private {\n    lastPoolShot.available = _poolSummary.available;\n    lastPoolShot.balance = _selfBalance();\n    lastPoolShot.blockNumber = _blockNumber();\n  }\n\n  // used to update lastUserShot after userSummary.available and accRewardPerCfx changed\n  function _updateUserShot(address _user) private {\n    lastUserShots[_user].available = userSummaries[_user].available;\n    lastUserShots[_user].accRewardPerCfx = accRewardPerCfx;\n    lastUserShots[_user].blockNumber = _blockNumber();\n  }\n\n  // used to update accRewardPerCfx after _poolSummary.available changed or user claimed interest\n  // depend on: lastPoolShot.available and lastPoolShot.balance\n  function _updateAccRewardPerCfx() private {\n    uint256 reward = _selfBalance() - lastPoolShot.balance;\n    if (reward == 0 || lastPoolShot.available == 0) return;\n    // update global accRewardPerCfx\n    uint256 cfxCount = lastPoolShot.available.div(0.01 ether);//.mul(CFX_COUNT_OF_ONE_VOTE);\n    accRewardPerCfx = accRewardPerCfx.add(reward.div(cfxCount));\n    // update pool interest info\n    _poolSummary.totalInterest = _poolSummary.totalInterest.add(reward);\n  }\n\n  // depend on: accRewardPerCfx and lastUserShot\n  function _updateUserInterest(address _user) private {\n    UserShot memory uShot = lastUserShots[_user];\n    if (uShot.available == 0) return;\n    uint256 latestInterest = accRewardPerCfx.sub(uShot.accRewardPerCfx).mul(uShot.available).div(0.01 ether); //.mul(CFX_COUNT_OF_ONE_VOTE)\n    uint256 _userInterest = _calUserShare(latestInterest, _user);\n    userSummaries[_user].currentInterest = userSummaries[_user].currentInterest.add(_userInterest);\n    _poolSummary.interest = _poolSummary.interest.add(latestInterest.sub(_userInterest));\n  }\n\n\n  // ======================== Events =========================\n\n  event IncreasePoSStake(address indexed user, uint256 votePower);\n\n  event DecreasePoSStake(address indexed user, uint256 votePower);\n\n  event WithdrawStake(address indexed user, uint256 votePower);\n\n  event ClaimInterest(address indexed user, uint256 amount);\n\n  //event RatioChanged(uint256 ratio);\n\n  // ======================== Init methods =========================\n\n  // call this method when depoly the 1967 proxy contract\n  function initialize() public initializer {\n    CFX_COUNT_OF_ONE_VOTE = 1000;\n    CFX_VALUE_OF_ONE_VOTE = 1000 ether;\n    _poolLockPeriod = ONE_DAY_BLOCK_COUNT * 7 + 3600;\n    poolUserShareRatio = 10000;\n    owner_addr = msg.sender;\n    XVIP_address = msg.sender;\n  }\n\n  // ======================== Contract methods =========================\n\n  //--------------------------------------------------------------------all new function for XCFX  \n  // modifier onlyOwner() {\n  //       require(msg.sender == owner_addr, 'Must Owner');\n  //       _;\n  //   }\n  modifier only_admin() {\n        require(msg.sender == admin_addr, 'Must admin');\n        _;\n    }\n  function set_admin(address _admin_addr) external onlyOwner {\n        admin_addr=_admin_addr;\n    } \n  function get_admin() external view returns(address){\n    //require(_address==msg.sender,'1');\n    return(admin_addr);\n    }\n  function set_XVIP_addr(address _address) external onlyOwner {\n        XVIP_address=_address;\n    }  \n  function set_XET_addr(address _address) external onlyOwner {\n        XET_address=_address;\n    } \n  function set_XCFX_addr(address _address) external onlyOwner {\n        XCFX_address=_address;\n    } \n  function set_Storage_room(address _address) external onlyOwner {\n        Storage_room_addr=_address;\n    } \n\n  function get_Settings() external view returns(address _XCFX,address _XET,address _St,address _XVIP){\n    //require(_address==msg.sender,'1');\n    return (XCFX_address,XET_address,Storage_room_addr,XVIP_address);\n    }\n  function isContract(address account) internal view returns (bool) {\n        // This method relies on extcodesize/address.code.length, which returns 0\n        // for contracts in construction, since the code is only stored at the end\n        // of the constructor execution.\n\n        return account.code.length > 0;\n    }\n  //\n  // @notice CFX_to_XCFX\n  //\n  function CFX_to_XCFX_estim(uint256 _amount) public view returns(uint256,uint256){\n    uint256 temp_XET_num = ERC20(XET_address).balanceOf(address(this));\n    uint256 XET_num_out = _amount.div(10**((200000 ether - temp_XET_num).div(10000 ether)));\n    if (temp_XET_num < XET_num_out) {\n        XET_num_out=temp_XET_num;\n      }\n    return (_amount.mul(_userInputRatio(msg.sender)).div(RATIO_BASE),XET_num_out);//XCFX,XET\n    }\n\n\n\n  function CFX_to_XCFX() public payable {\n    require(msg.value>0 , 'must > 0');\n    address payable receiver = payable(_bridgeAddress);\n    receiver.transfer(msg.value);\n    total_minted += msg.value;\n    XCFXExchange(XCFX_address).addTokens(msg.sender, msg.value.mul(_userInputRatio(msg.sender)).div(RATIO_BASE));\n    XCFXExchange(XCFX_address).addTokens(Storage_room_addr, msg.value-msg.value.mul(_userInputRatio(msg.sender)).div(RATIO_BASE));\n    \n    //receiver_storge.transfer(msg.value-msg.value.mul(_userInputRatio(msg.sender)).div(RATIO_BASE));\n    if(total_minted-total_minted_inpool>=1000 ether){\n      uint256 votePower = (total_minted.sub(total_minted_inpool)).div(1000 ether);\n\n      crossingVotes += votePower;\n\n      total_minted_inpool += votePower*CFX_VALUE_OF_ONE_VOTE;\n    }\n    uint256 temp_XET_num = ERC20(XET_address).balanceOf(address(this));\n    uint256 XET_num_out = msg.value.div(10**((200000 ether - temp_XET_num).div(10000 ether)));\n    if (temp_XET_num > XET_num_out) {\n      ERC20(XET_address).transfer(msg.sender,XET_num_out);\n    }\n    else if(temp_XET_num > 0){\n      ERC20(XET_address).transfer(msg.sender,temp_XET_num);\n    }\n    emit IncreasePoSStake(msg.sender, msg.value);\n    //update user\n    _updateAccRewardPerCfx();\n    _updateUserInterest(msg.sender);\n    _updateUserShot(msg.sender);\n\n    //userSummaries update\n    //userSummaries[msg.sender].available += msg.value;\n\n    //update pool\n    _poolSummary.available += msg.value;\n    _updatePoolShot();\n\n    stakers.add(msg.sender);\n  }\n\n  function XCFX_burn(uint256 _amount) public virtual onlyRegisted {\n    require(_amount<=XCFXExchange(XCFX_address).balanceOf(msg.sender),\"Exceed balance\");\n    XCFXExchange(XCFX_address).burnTokens(msg.sender, _amount);\n    total_burned+=_amount;\n    if(total_burned>total_burned_inpool){\n      decreaseStake(uint64((total_burned.sub(total_burned_inpool)).div(1000 ether))+1);\n      total_burned_inpool+=((total_burned.sub(total_burned_inpool)).div(1000 ether)+1).mul(1000 ether);\n    }\n    //userSummaries[msg.sender].available -= _amount;//XCFXExchange(XCFX_address).balanceOf(msg.sender);\n    userSummaries[msg.sender].unlocking += _amount;\n    userOutqueues[msg.sender].enqueue(VotePowerQueue.QueueNode(_amount, _blockNumber() + _poolLockPeriod));\n    userSummaries[msg.sender].unlocked += userOutqueues[msg.sender].collectEndedVotes();\n\n    emit DecreasePoSStake(msg.sender, _amount);\n\n    //update user\n    _updateAccRewardPerCfx();\n    _updateUserInterest(msg.sender);\n    _updateUserShot(msg.sender);\n\n    _poolSummary.available -= _amount;\n    _updatePoolShot();\n  }  \n  function getback_CFX(uint256 _amount) public virtual onlyRegisted {\n     withdrawStake(_amount);\n  }  \n\n  function update_after_trans_by_outer_func(address _from,address _to) external virtual onlyRegisted {\n    // if(isContract(_to) && userSummaries[_to].votes==0 && userSummaries[_to].ACFX_num==0){\n    //   All_Contracts_addr_in_APool.push(_to);\n    // }\n    _updateAccRewardPerCfx();\n    //_updateAPY();\n    // update user interest\n    _updateUserInterest(_from);\n    _updateUserShot(_from);\n    _updateUserInterest(_to);\n    _updateUserShot(_to);\n    userSummaries[_from].available = XCFXExchange(XCFX_address).balanceOf(_from);\n    userSummaries[_to  ].available = XCFXExchange(XCFX_address).balanceOf(_to  );\n    stakers.add(_to);\n    if (userSummaries[_from].available == 0) {\n      stakers.remove(_from);\n    }\n    _updatePoolShot();\n  }\n\n  function claimContractInterest(uint _amount,address _contract) public onlyRegisted only_admin{\n    uint claimableInterest;\n    uint temp_useless;\n    (claimableInterest,temp_useless) = userInterest(_contract);\n    require(claimableInterest >= _amount, \"Interest not enough\");\n    require(isContract(_contract)==true,'Must be Contract');\n    _updateAccRewardPerCfx();\n    _updateUserInterest(_contract);\n    //\n    userSummaries[_contract].claimedInterest = userSummaries[_contract].claimedInterest.add(_amount);\n    userSummaries[_contract].currentInterest = userSummaries[_contract].currentInterest.sub(_amount);\n    // update userShot's accRewardPerCfx\n    _updateUserShot(_contract);\n    // send interest to user\n    address payable receiver = payable(msg.sender);\n    receiver.transfer(_amount);\n    emit ClaimInterest(_contract, _amount);\n    // update blockNumber and balance\n    _updatePoolShot();\n  }\n\n  function claimAllContractInterest(address _contract) public onlyRegisted only_admin{\n    uint claimableInterest;\n    uint temp_useless;\n    (claimableInterest,temp_useless) = userInterest(_contract);\n    require(claimableInterest > 0, \"No claimable interest\");\n    claimContractInterest(claimableInterest, _contract);\n  }\n\n  //--------------------------------------------------------------------all new function for XCFX  \n\n  ///\n  /// @notice Increase PoS vote power\n  /// @param votePower The number of vote power to increase\n  ///\n  // function increaseStake(uint64 votePower) public virtual payable onlyRegisted {\n  //   require(votePower > 0, \"Minimal votePower is 1\");\n  //   require(msg.value == votePower * CFX_VALUE_OF_ONE_VOTE, \"msg.value should be votePower * 1000 ether\");\n    \n  //   // transfer to bridge address\n  //   address payable receiver = payable(_bridgeAddress);\n  //   receiver.transfer(msg.value);\n  //   //XCFXExchange(ACFX_address).addTokens(msg.sender, votePower*CFX_VALUE_OF_ONE_VOTE);----------------------------will use\n  //   crossingVotes += votePower;\n  //   // emit IncreasePoSStake(msg.sender, votePower);\n\n    \n  //   // put stake info in queue\n  //   //userInqueues[msg.sender].enqueue(VotePowerQueue.QueueNode(votePower, _blockNumber() + _poolLockPeriod));\n  //   //userSummaries[msg.sender].locked += userInqueues[msg.sender].collectEndedVotes();\n  //   //userSummaries[msg.sender].votes += votePower;\n  //   //userSummaries[msg.sender].available += votePower;\n    \n  // }\n\n  ///\n  /// @notice Decrease PoS vote power\n  /// @param votePower The number of vote power to decrease\n  ///\n  function decreaseStake(uint64 votePower) public virtual onlyRegisted {\n    //userSummaries[msg.sender].locked += userInqueues[msg.sender].collectEndedVotes();\n    //require(userSummaries[msg.sender].locked >= votePower, \"Locked is not enough\");\n    // record the decrease request\n    unstakeQueue.enqueue(UnstakeQueue.Node(votePower));\n    // emit DecreasePoSStake(msg.sender, votePower);\n\n    //_updateAccRewardPerCfx();\n\n    // update user interest\n    //_updateUserInterest(msg.sender);\n    //\n    // userOutqueues[msg.sender].enqueue(VotePowerQueue.QueueNode(votePower, _blockNumber() + _poolLockPeriod));\n    // userSummaries[msg.sender].unlocked += userOutqueues[msg.sender].collectEndedVotes();\n    // userSummaries[msg.sender].available -= votePower;\n    // userSummaries[msg.sender].locked -= votePower;\n    //_updateUserShot(msg.sender);\n\n    //\n    // _poolSummary.available -= votePower;\n    // _updatePoolShot();\n  }\n\n  ///\n  /// @notice Withdraw PoS vote power\n  /// @param _amount The amount of CFX to withdraw\n  ///\n  function withdrawStake(uint256 _amount) public onlyRegisted {\n    userSummaries[msg.sender].unlocked += userOutqueues[msg.sender].collectEndedVotes();\n    require(userSummaries[msg.sender].unlocked >= _amount, \"Unlocked is not enough\");\n    uint256 _withdrawAmount = _amount;\n    require(withdrawableCfx >= _withdrawAmount, \"Withdrawable CFX is not enough\");\n    // update amount of withdrawable CFX\n    withdrawableCfx -= _withdrawAmount;\n    //    \n    userSummaries[msg.sender].unlocked -= _amount;\n    //userSummaries[msg.sender].votes -= votePower;\n    \n    address payable receiver = payable(msg.sender);\n    receiver.transfer(_withdrawAmount);\n    emit WithdrawStake(msg.sender, _amount);\n\n    _updatePoolShot();\n\n    if (userSummaries[msg.sender].available == 0) {\n      stakers.remove(msg.sender);\n    }\n  }\n\n  ///\n  /// @notice User's interest from participate PoS\n  /// @param _address The address of user to query\n  /// @return CFX interest in Drip\n  ///\n  function userInterest(address _address) public view returns (uint256,uint256) {\n    \n    uint256 _interest = userSummaries[_address].currentInterest;\n\n    uint256 _latestAccRewardPerCfx = accRewardPerCfx;\n    // add latest profit\n    uint256 _latestReward = _selfBalance() - lastPoolShot.balance;\n    UserShot memory uShot = lastUserShots[_address];\n    if (_latestReward > 0) {\n      uint256 _deltaAcc = _latestReward.mul(0.01 ether).div(lastPoolShot.available);\n      _latestAccRewardPerCfx = _latestAccRewardPerCfx.add(_deltaAcc);\n    }\n\n    if (uShot.available > 0) {\n      uint256 _latestInterest = _latestAccRewardPerCfx.sub(uShot.accRewardPerCfx).mul(uShot.available).div(0.01 ether);\n      _interest = _interest.add(_calUserShare(_latestInterest, _address));\n    }\n    uint256 temp_XET_num = ERC20(XET_address).balanceOf(address(this));\n    uint256 XET_num_out = _interest.div(100);\n    if (temp_XET_num < XET_num_out) {\n        XET_num_out=temp_XET_num;\n      }\n    return (_interest,XET_num_out);\n  }\n\n  ///\n  /// @notice Claim specific amount user interest\n  /// @param amount The amount of interest to claim\n  ///\n  function claimInterest(uint amount) public onlyRegisted {\n    uint claimableInterest;\n    uint temp_useless;\n    (claimableInterest,temp_useless) = userInterest(msg.sender);\n    require(claimableInterest >= amount, \"Interest not enough\");\n    require(isContract(msg.sender)==false,'cant be Contract');\n    _updateAccRewardPerCfx();\n    _updateUserInterest(msg.sender);\n    //\n    userSummaries[msg.sender].claimedInterest = userSummaries[msg.sender].claimedInterest.add(amount);\n    userSummaries[msg.sender].currentInterest = userSummaries[msg.sender].currentInterest.sub(amount);\n    // update userShot's accRewardPerCfx\n    _updateUserShot(msg.sender);\n\n    // send interest to user\n    address payable receiver = payable(msg.sender);\n    receiver.transfer(amount);\n    emit ClaimInterest(msg.sender, amount);\n    uint256 temp_XET_num = ERC20(XET_address).balanceOf(address(this));\n    uint256 XET_num_out = amount.div(100);\n    if (temp_XET_num > XET_num_out) {\n      ERC20(XET_address).transfer(msg.sender,XET_num_out);\n    }\n    else if(temp_XET_num > 0){\n      ERC20(XET_address).transfer(msg.sender,temp_XET_num);\n    }\n\n    // update blockNumber and balance\n    _updatePoolShot();\n  }\n\n  ///\n  /// @notice Claim one user's all interest\n  ///\n  function claimAllInterest() public onlyRegisted {\n    uint claimableInterest;\n    uint temp_useless;\n    (claimableInterest,temp_useless) = userInterest(msg.sender);\n    require(claimableInterest > 0, \"No claimable interest\");\n    claimInterest(claimableInterest);\n  }\n\n  /// \n  /// @notice Get user's pool summary\n  /// @param _user The address of user to query\n  /// @return User's summary\n  ///\n  function userSummary(address _user) public view returns (UserSummary memory) {\n    UserSummary memory summary = userSummaries[_user];\n    //summary.locked += userInqueues[_user].sumEndedVotes();\n    summary.unlocked += userOutqueues[_user].sumEndedVotes();\n    return summary;\n  }\n\n  function poolSummary() public view returns (PoolSummary memory) {\n    PoolSummary memory summary = _poolSummary;\n    uint256 _latestReward = _selfBalance().sub(lastPoolShot.balance);\n    summary.totalInterest = summary.totalInterest.add(_latestReward);\n    return summary;\n  }\n\n  function poolAPY() public view returns (uint256) {\n    return _poolAPY;\n  }\n\n  // function userInQueue(address account) public view returns (VotePowerQueue.QueueNode[] memory) {\n  //   return userInqueues[account].queueItems();\n  // }\n\n  function userOutQueue(address account) public view returns (VotePowerQueue.QueueNode[] memory) {\n    return userOutqueues[account].queueItems();\n  }\n\n  // function userInQueue(address account, uint64 offset, uint64 limit) public view returns (VotePowerQueue.QueueNode[] memory) {\n  //   return userInqueues[account].queueItems(offset, limit);\n  // }\n\n  function userOutQueueoffset(address account, uint64 offset, uint64 limit) public view returns (VotePowerQueue.QueueNode[] memory) {\n    return userOutqueues[account].queueItems(offset, limit);\n  }\n\n  function stakerNumber() public view returns (uint) {\n    return stakers.length();\n  }\n\n  function stakerAddress(uint256 i) public view returns (address) {\n    return stakers.at(i);\n  }\n\n  function unstakeLen() public view returns (uint256) {\n    return unstakeQueue.end - unstakeQueue.start;\n  }\n\n  function firstUnstakeVotes() public view returns (uint256) {\n    if (unstakeQueue.end == unstakeQueue.start) {\n      return 0;\n    }\n    return unstakeQueue.items[unstakeQueue.start].votes;\n  }\n\n  // ======================== admin methods =====================\n\n  ///\n  /// @notice Enable admin to set the user share ratio\n  /// @dev The ratio base is 10000, only admin can do this\n  /// @param ratio The interest user share ratio (1-10000), default is 9000\n  ///\n  function setPoolUserShareRatio(uint64 ratio) public onlyOwner {\n    require(ratio > 0 && ratio <= RATIO_BASE, \"ratio should be 1-10000\");\n    poolUserShareRatio = ratio;\n    //emit RatioChanged(ratio);\n  }\n\n  /// \n  /// @notice Enable admin to set the lock and unlock period\n  /// @dev Only admin can do this\n  /// @param period The lock period in block number, default is seven day's block count\n  ///\n  function setLockPeriod(uint64 period) public onlyOwner {\n    _poolLockPeriod = period;\n  }\n\n  /// @param count Vote cfx count, unit is cfx\n  function setCfxCountOfOneVote(uint256 count) public onlyOwner {\n    CFX_COUNT_OF_ONE_VOTE = count;\n    CFX_VALUE_OF_ONE_VOTE = count * 1 ether;\n  }\n\n  function setBridge(address bridgeAddress) public onlyOwner {\n    _bridgeAddress = bridgeAddress;\n    birdgeAddrSetted = true;\n  }\n\n  function setPoolName(string memory name) public onlyOwner {\n    poolName = name;\n  }\n\n  function _retireUserStake(address _addr, uint64 endBlockNumber) public onlyOwner {\n    uint256 amount = userSummaries[_addr].available;\n    if (amount == 0) return;\n\n    _updateUserInterest(_addr);\n    userSummaries[_addr].available = 0;\n    userSummaries[_addr].unlocking = 0;\n    // clear user inqueue\n    // userInqueues[_addr].clear();\n    userOutqueues[_addr].enqueue(VotePowerQueue.QueueNode(amount, endBlockNumber));\n    _updateUserShot(_addr);\n\n    _poolSummary.available -= amount;\n  }\n\n  // When pool node is force retired, use this method to make all user's available stake to unlocking\n  function _retireUserStakes(uint256 offset, uint256 limit, uint64 endBlockNumber) public onlyOwner {\n    uint256 len = stakers.length();\n    if (len == 0) return;\n\n    _updateAccRewardPerCfx();\n\n    uint256 end = offset + limit;\n    if (end > len) {\n      end = len;\n    }\n    for (uint256 i = offset; i < end; i++) {\n      _retireUserStake(stakers.at(i), endBlockNumber);\n    }\n\n    _updatePoolShot();\n  }\n\n  // ======================== bridge methods =====================\n\n  function setPoolAPY(uint256 apy) public onlyBridge {\n    _poolAPY = apy;\n  }\n\n  function handleUnlockedIncrease(uint256 votePower) public payable onlyBridge {\n    require(msg.value == votePower * CFX_VALUE_OF_ONE_VOTE, \"msg.value should be votePower * 1000 ether\");\n    withdrawableCfx += msg.value;\n    _updatePoolShot();\n  }\n\n  function handleCrossingVotes(uint256 votePower) public onlyBridge {\n    require(crossingVotes >= votePower, \"crossingVotes should be greater than votePower\");\n    crossingVotes -= votePower;\n  }\n\n  function handleUnstakeTask() public onlyBridge returns (uint256) {\n    UnstakeQueue.Node memory node = unstakeQueue.dequeue();\n    return node.votes;\n  }\n\n  // receive interest\n  function receiveInterest() public payable onlyBridge {}\n\n  fallback() external payable {}\n  receive() external payable {}\n\n}",
  "sourcePath": "C:\\Users\\artii\\Black IDE\\espace\\contracts\\eSpace\\eSpacePoSPool.sol",
  "compiler": {
    "name": "solc",
    "version": "0.8.2+commit.661d1103.Emscripten.clang"
  },
  "schemaVersion": "3.4.3",
  "updatedAt": "2022-06-16T16:59:41.728Z",
  "devdoc": {
    "kind": "dev",
    "methods": {
      "claimInterest(uint256)": {
        "params": {
          "amount": "The amount of interest to claim"
        }
      },
      "decreaseStake(uint64)": {
        "params": {
          "votePower": "The number of vote power to decrease"
        }
      },
      "owner()": {
        "details": "Returns the address of the current owner."
      },
      "renounceOwnership()": {
        "details": "Leaves the contract without owner. It will not be possible to call `onlyOwner` functions anymore. Can only be called by the current owner. NOTE: Renouncing ownership will leave the contract without an owner, thereby removing any functionality that is only available to the owner."
      },
      "setCfxCountOfOneVote(uint256)": {
        "params": {
          "count": "Vote cfx count, unit is cfx"
        }
      },
      "setLockPeriod(uint64)": {
        "details": "Only admin can do this",
        "params": {
          "period": "The lock period in block number, default is seven day's block count"
        }
      },
      "setPoolUserShareRatio(uint64)": {
        "details": "The ratio base is 10000, only admin can do this",
        "params": {
          "ratio": "The interest user share ratio (1-10000), default is 9000"
        }
      },
      "transferOwnership(address)": {
        "details": "Transfers ownership of the contract to a new account (`newOwner`). Can only be called by the current owner."
      },
      "userInterest(address)": {
        "params": {
          "_address": "The address of user to query"
        },
        "returns": {
          "_0": "CFX interest in Drip"
        }
      },
      "userSummary(address)": {
        "params": {
          "_user": "The address of user to query"
        },
        "returns": {
          "_0": "User's summary"
        }
      },
      "withdrawStake(uint256)": {
        "params": {
          "_amount": "The amount of CFX to withdraw"
        }
      }
    },
    "title": "eSpace PoSPool",
    "version": 1
  },
  "userdoc": {
    "kind": "user",
    "methods": {
      "claimAllInterest()": {
        "notice": "Claim one user's all interest"
      },
      "claimInterest(uint256)": {
        "notice": "Claim specific amount user interest"
      },
      "decreaseStake(uint64)": {
        "notice": "Decrease PoS vote power"
      },
      "setLockPeriod(uint64)": {
        "notice": "Enable admin to set the lock and unlock period"
      },
      "setPoolUserShareRatio(uint64)": {
        "notice": "Enable admin to set the user share ratio"
      },
      "userInterest(address)": {
        "notice": "User's interest from participate PoS"
      },
      "userSummary(address)": {
        "notice": "Get user's pool summary"
      },
      "withdrawStake(uint256)": {
        "notice": "Withdraw PoS vote power"
      }
    },
    "version": 1
  }
}