{
  "contractName": "ESpacePoSPoolmini",
  "abi": [
    {
      "anonymous": false,
      "inputs": [
        {
          "indexed": true,
          "internalType": "address",
          "name": "user",
          "type": "address"
        },
        {
          "indexed": false,
          "internalType": "uint256",
          "name": "amount",
          "type": "uint256"
        }
      ],
      "name": "ClaimInterest",
      "type": "event"
    },
    {
      "anonymous": false,
      "inputs": [
        {
          "indexed": true,
          "internalType": "address",
          "name": "user",
          "type": "address"
        },
        {
          "indexed": false,
          "internalType": "uint256",
          "name": "votePower",
          "type": "uint256"
        }
      ],
      "name": "DecreasePoSStake",
      "type": "event"
    },
    {
      "anonymous": false,
      "inputs": [
        {
          "indexed": true,
          "internalType": "address",
          "name": "user",
          "type": "address"
        },
        {
          "indexed": false,
          "internalType": "uint256",
          "name": "votePower",
          "type": "uint256"
        }
      ],
      "name": "IncreasePoSStake",
      "type": "event"
    },
    {
      "anonymous": false,
      "inputs": [
        {
          "indexed": true,
          "internalType": "address",
          "name": "previousOwner",
          "type": "address"
        },
        {
          "indexed": true,
          "internalType": "address",
          "name": "newOwner",
          "type": "address"
        }
      ],
      "name": "OwnershipTransferred",
      "type": "event"
    },
    {
      "anonymous": false,
      "inputs": [
        {
          "indexed": true,
          "internalType": "address",
          "name": "user",
          "type": "address"
        },
        {
          "indexed": false,
          "internalType": "uint256",
          "name": "votePower",
          "type": "uint256"
        }
      ],
      "name": "WithdrawStake",
      "type": "event"
    },
    {
      "stateMutability": "payable",
      "type": "fallback"
    },
    {
      "inputs": [],
      "name": "_poolLockPeriod_fast",
      "outputs": [
        {
          "internalType": "uint256",
          "name": "",
          "type": "uint256"
        }
      ],
      "stateMutability": "view",
      "type": "function"
    },
    {
      "inputs": [],
      "name": "_poolLockPeriod_slow",
      "outputs": [
        {
          "internalType": "uint256",
          "name": "",
          "type": "uint256"
        }
      ],
      "stateMutability": "view",
      "type": "function"
    },
    {
      "inputs": [],
      "name": "accRewardPerCfx",
      "outputs": [
        {
          "internalType": "uint256",
          "name": "",
          "type": "uint256"
        }
      ],
      "stateMutability": "view",
      "type": "function"
    },
    {
      "inputs": [],
      "name": "admin_addr",
      "outputs": [
        {
          "internalType": "address",
          "name": "",
          "type": "address"
        }
      ],
      "stateMutability": "view",
      "type": "function"
    },
    {
      "inputs": [],
      "name": "birdgeAddrSetted",
      "outputs": [
        {
          "internalType": "bool",
          "name": "",
          "type": "bool"
        }
      ],
      "stateMutability": "view",
      "type": "function"
    },
    {
      "inputs": [],
      "name": "crossingVotes",
      "outputs": [
        {
          "internalType": "uint256",
          "name": "",
          "type": "uint256"
        }
      ],
      "stateMutability": "view",
      "type": "function"
    },
    {
      "inputs": [],
      "name": "owner",
      "outputs": [
        {
          "internalType": "address",
          "name": "",
          "type": "address"
        }
      ],
      "stateMutability": "view",
      "type": "function"
    },
    {
      "inputs": [],
      "name": "owner_addr",
      "outputs": [
        {
          "internalType": "address",
          "name": "",
          "type": "address"
        }
      ],
      "stateMutability": "view",
      "type": "function"
    },
    {
      "inputs": [],
      "name": "poolName",
      "outputs": [
        {
          "internalType": "string",
          "name": "",
          "type": "string"
        }
      ],
      "stateMutability": "view",
      "type": "function"
    },
    {
      "inputs": [],
      "name": "poolUserShareRatio",
      "outputs": [
        {
          "internalType": "uint256",
          "name": "",
          "type": "uint256"
        }
      ],
      "stateMutability": "view",
      "type": "function"
    },
    {
      "inputs": [],
      "name": "renounceOwnership",
      "outputs": [],
      "stateMutability": "nonpayable",
      "type": "function"
    },
    {
      "inputs": [
        {
          "internalType": "address",
          "name": "newOwner",
          "type": "address"
        }
      ],
      "name": "transferOwnership",
      "outputs": [],
      "stateMutability": "nonpayable",
      "type": "function"
    },
    {
      "inputs": [],
      "name": "unstakeQueue",
      "outputs": [
        {
          "internalType": "uint256",
          "name": "start",
          "type": "uint256"
        },
        {
          "internalType": "uint256",
          "name": "end",
          "type": "uint256"
        }
      ],
      "stateMutability": "view",
      "type": "function"
    },
    {
      "stateMutability": "payable",
      "type": "receive"
    },
    {
      "inputs": [
        {
          "internalType": "address",
          "name": "_user",
          "type": "address"
        }
      ],
      "name": "_userShareRatio",
      "outputs": [
        {
          "internalType": "uint256",
          "name": "",
          "type": "uint256"
        }
      ],
      "stateMutability": "view",
      "type": "function"
    },
    {
      "inputs": [],
      "name": "initialize",
      "outputs": [],
      "stateMutability": "nonpayable",
      "type": "function"
    },
    {
      "inputs": [
        {
          "internalType": "address",
          "name": "_admin_addr",
          "type": "address"
        }
      ],
      "name": "set_admin",
      "outputs": [],
      "stateMutability": "nonpayable",
      "type": "function"
    },
    {
      "inputs": [],
      "name": "get_admin",
      "outputs": [
        {
          "internalType": "address",
          "name": "",
          "type": "address"
        }
      ],
      "stateMutability": "view",
      "type": "function"
    },
    {
      "inputs": [
        {
          "internalType": "address",
          "name": "_XCFX_addr",
          "type": "address"
        },
        {
          "internalType": "address",
          "name": "_S_addr",
          "type": "address"
        }
      ],
      "name": "set_Settings",
      "outputs": [],
      "stateMutability": "nonpayable",
      "type": "function"
    },
    {
      "inputs": [],
      "name": "get_Settings",
      "outputs": [
        {
          "internalType": "address",
          "name": "",
          "type": "address"
        },
        {
          "internalType": "address",
          "name": "",
          "type": "address"
        }
      ],
      "stateMutability": "view",
      "type": "function"
    },
    {
      "inputs": [
        {
          "internalType": "uint256",
          "name": "_amount",
          "type": "uint256"
        }
      ],
      "name": "CFX_exchange_estim",
      "outputs": [
        {
          "internalType": "uint256",
          "name": "",
          "type": "uint256"
        }
      ],
      "stateMutability": "view",
      "type": "function"
    },
    {
      "inputs": [],
      "name": "CFX_exchange_XCFX",
      "outputs": [],
      "stateMutability": "payable",
      "type": "function"
    },
    {
      "inputs": [
        {
          "internalType": "uint256",
          "name": "_amount",
          "type": "uint256"
        }
      ],
      "name": "XCFX_burn_estim",
      "outputs": [
        {
          "internalType": "uint256",
          "name": "",
          "type": "uint256"
        }
      ],
      "stateMutability": "view",
      "type": "function"
    },
    {
      "inputs": [
        {
          "internalType": "uint256",
          "name": "_amount",
          "type": "uint256"
        },
        {
          "internalType": "uint256",
          "name": "_mode",
          "type": "uint256"
        }
      ],
      "name": "XCFX_burn",
      "outputs": [
        {
          "internalType": "uint256",
          "name": "",
          "type": "uint256"
        }
      ],
      "stateMutability": "nonpayable",
      "type": "function"
    },
    {
      "inputs": [
        {
          "internalType": "uint256",
          "name": "_amount",
          "type": "uint256"
        }
      ],
      "name": "getback_CFX",
      "outputs": [],
      "stateMutability": "nonpayable",
      "type": "function"
    },
    {
      "inputs": [
        {
          "internalType": "address",
          "name": "_user",
          "type": "address"
        }
      ],
      "name": "userSummary",
      "outputs": [
        {
          "components": [
            {
              "internalType": "uint256",
              "name": "unlocking",
              "type": "uint256"
            },
            {
              "internalType": "uint256",
              "name": "unlocked",
              "type": "uint256"
            }
          ],
          "internalType": "struct ESpacePoSPoolmini.UserSummary",
          "name": "",
          "type": "tuple"
        }
      ],
      "stateMutability": "view",
      "type": "function"
    },
    {
      "inputs": [],
      "name": "poolSummary",
      "outputs": [
        {
          "components": [
            {
              "internalType": "uint256",
              "name": "totalvotes",
              "type": "uint256"
            },
            {
              "internalType": "uint256",
              "name": "lockingvotes",
              "type": "uint256"
            },
            {
              "internalType": "uint256",
              "name": "lockedvotes",
              "type": "uint256"
            },
            {
              "internalType": "uint256",
              "name": "unlockingvotes",
              "type": "uint256"
            },
            {
              "internalType": "uint256",
              "name": "unlockedvotes",
              "type": "uint256"
            }
          ],
          "internalType": "struct ESpacePoSPoolmini.PoolSummary",
          "name": "",
          "type": "tuple"
        }
      ],
      "stateMutability": "view",
      "type": "function"
    },
    {
      "inputs": [],
      "name": "poolAPY",
      "outputs": [
        {
          "internalType": "uint256",
          "name": "",
          "type": "uint256"
        }
      ],
      "stateMutability": "view",
      "type": "function"
    },
    {
      "inputs": [
        {
          "internalType": "address",
          "name": "account",
          "type": "address"
        }
      ],
      "name": "userOutQueue",
      "outputs": [
        {
          "components": [
            {
              "internalType": "uint256",
              "name": "votePower",
              "type": "uint256"
            },
            {
              "internalType": "uint256",
              "name": "endBlock",
              "type": "uint256"
            }
          ],
          "internalType": "struct VotePowerQueue.QueueNode[]",
          "name": "",
          "type": "tuple[]"
        }
      ],
      "stateMutability": "view",
      "type": "function"
    },
    {
      "inputs": [
        {
          "internalType": "address",
          "name": "account",
          "type": "address"
        },
        {
          "internalType": "uint64",
          "name": "offset",
          "type": "uint64"
        },
        {
          "internalType": "uint64",
          "name": "limit",
          "type": "uint64"
        }
      ],
      "name": "userOutQueueoffset",
      "outputs": [
        {
          "components": [
            {
              "internalType": "uint256",
              "name": "votePower",
              "type": "uint256"
            },
            {
              "internalType": "uint256",
              "name": "endBlock",
              "type": "uint256"
            }
          ],
          "internalType": "struct VotePowerQueue.QueueNode[]",
          "name": "",
          "type": "tuple[]"
        }
      ],
      "stateMutability": "view",
      "type": "function"
    },
    {
      "inputs": [],
      "name": "unstakeLen",
      "outputs": [
        {
          "internalType": "uint256",
          "name": "",
          "type": "uint256"
        }
      ],
      "stateMutability": "view",
      "type": "function"
    },
    {
      "inputs": [],
      "name": "firstUnstakeVotes",
      "outputs": [
        {
          "internalType": "uint256",
          "name": "",
          "type": "uint256"
        }
      ],
      "stateMutability": "view",
      "type": "function"
    },
    {
      "inputs": [
        {
          "internalType": "uint64",
          "name": "ratio",
          "type": "uint64"
        }
      ],
      "name": "setPoolUserShareRatio",
      "outputs": [],
      "stateMutability": "nonpayable",
      "type": "function"
    },
    {
      "inputs": [
        {
          "internalType": "uint64",
          "name": "_a",
          "type": "uint64"
        },
        {
          "internalType": "uint64",
          "name": "_b",
          "type": "uint64"
        }
      ],
      "name": "setLockPeriod",
      "outputs": [],
      "stateMutability": "nonpayable",
      "type": "function"
    },
    {
      "inputs": [
        {
          "internalType": "uint256",
          "name": "count",
          "type": "uint256"
        }
      ],
      "name": "setCfxCountOfOneVote",
      "outputs": [],
      "stateMutability": "nonpayable",
      "type": "function"
    },
    {
      "inputs": [
        {
          "internalType": "address",
          "name": "bridgeAddress",
          "type": "address"
        }
      ],
      "name": "setBridge",
      "outputs": [],
      "stateMutability": "nonpayable",
      "type": "function"
    },
    {
      "inputs": [],
      "name": "getBridge",
      "outputs": [
        {
          "internalType": "address",
          "name": "",
          "type": "address"
        }
      ],
      "stateMutability": "nonpayable",
      "type": "function"
    },
    {
      "inputs": [
        {
          "internalType": "string",
          "name": "name",
          "type": "string"
        }
      ],
      "name": "setPoolName",
      "outputs": [],
      "stateMutability": "nonpayable",
      "type": "function"
    },
    {
      "inputs": [
        {
          "internalType": "uint256",
          "name": "votePower",
          "type": "uint256"
        }
      ],
      "name": "handleCrossingVotes",
      "outputs": [],
      "stateMutability": "nonpayable",
      "type": "function"
    },
    {
      "inputs": [],
      "name": "handleUnstakeTask",
      "outputs": [
        {
          "internalType": "uint256",
          "name": "",
          "type": "uint256"
        }
      ],
      "stateMutability": "nonpayable",
      "type": "function"
    },
    {
      "inputs": [
        {
          "internalType": "uint256",
          "name": "votePower",
          "type": "uint256"
        }
      ],
      "name": "handleUnlockedIncrease",
      "outputs": [],
      "stateMutability": "payable",
      "type": "function"
    },
    {
      "inputs": [],
      "name": "receiveInterest",
      "outputs": [],
      "stateMutability": "payable",
      "type": "function"
    }
  ],
  "bytecode": "0x60806040526103e8600155683635c9adc5dea00000600255612328600455600e620151806200002f919062000189565b60055560076201518062000044919062000189565b6006556000602560006101000a81548173ffffffffffffffffffffffffffffffffffffffff021916908373ffffffffffffffffffffffffffffffffffffffff1602179055503480156200009657600080fd5b50620000b7620000ab620000bd60201b60201c565b620000c560201b60201c565b62000223565b600033905090565b60008060009054906101000a900473ffffffffffffffffffffffffffffffffffffffff169050816000806101000a81548173ffffffffffffffffffffffffffffffffffffffff021916908373ffffffffffffffffffffffffffffffffffffffff1602179055508173ffffffffffffffffffffffffffffffffffffffff168173ffffffffffffffffffffffffffffffffffffffff167f8be0079c531659141344cd1fd0a4f28419497f9722a3daafe3b4186f6b6457e060405160405180910390a35050565b60006200019682620001ea565b9150620001a383620001ea565b9250817fffffffffffffffffffffffffffffffffffffffffffffffffffffffffffffffff0483118215151615620001df57620001de620001f4565b5b828202905092915050565b6000819050919050565b7f4e487b7100000000000000000000000000000000000000000000000000000000600052601160045260246000fd5b613fb680620002336000396000f3fe60806040526004361061024a5760003560e01c806382df7a3b11610139578063c134e965116100b6578063e3d5b2331161007a578063e3d5b23314610807578063e9333fab14610844578063f2fde38b1461086d578063f3466dfa14610896578063f660776b146108c1578063fd38295c146108ec57610251565b8063c134e96514610731578063c3b8eba01461075c578063c7ff5d6e14610785578063c8053542146107b0578063d43af51c146107dc57610251565b80638dd14802116100fd5780638dd148021461064e57806396b6b59d14610677578063ac177df1146106a0578063b295ad2b146106cb578063bd0b2dad146106f457610251565b806382df7a3b14610565578063849819861461059057806384c07b5d146105bb5780638d597859146105f85780638da5cb5b1461062357610251565b806354c7c612116101c7578063715018a61161018b578063715018a6146104ba57806372b65424146104d15780637571fcf6146104fa57806377c9d593146105255780638129fc1c1461054e57610251565b806354c7c612146104065780636283c50b1461043157806366f355db1461045c57806367a1aa4f1461048557806368eca7f9146104b057610251565b8063198614921161020e578063198614921461032d5780631bc1e78a1461036a57806324a3bbe2146103935780634337e4bf146103d05780634a990ba9146103da57610251565b806309fcd230146102535780630ddf0ef11461027e5780630fffbaf3146102bb57806315cc421d146102e657806317f788711461031157610251565b3661025157005b005b34801561025f57600080fd5b50610268610929565b6040516102759190613821565b60405180910390f35b34801561028a57600080fd5b506102a560048036038101906102a0919061308e565b61096b565b6040516102b29190613821565b60405180910390f35b3480156102c757600080fd5b506102d06109b3565b6040516102dd919061353f565b60405180910390f35b3480156102f257600080fd5b506102fb6109dd565b6040516103089190613821565b60405180910390f35b61032b6004803603810190610326919061308e565b6109e3565b005b34801561033957600080fd5b50610354600480360381019061034f9190612ffe565b610ac5565b60405161036191906135ac565b60405180910390f35b34801561037657600080fd5b50610391600480360381019061038c919061308e565b610b23565b005b34801561039f57600080fd5b506103ba60048036038101906103b59190612f99565b610c14565b6040516103c791906135ac565b60405180910390f35b6103d8610c64565b005b3480156103e657600080fd5b506103ef610cf6565b6040516103fd92919061383c565b60405180910390f35b34801561041257600080fd5b5061041b610d08565b604051610428919061353f565b60405180910390f35b34801561043d57600080fd5b50610446610d32565b60405161045391906135ce565b60405180910390f35b34801561046857600080fd5b50610483600480360381019061047e919061308e565b610d45565b005b34801561049157600080fd5b5061049a610da0565b6040516104a79190613821565b60405180910390f35b6104b8610da6565b005b3480156104c657600080fd5b506104cf611080565b005b3480156104dd57600080fd5b506104f860048036038101906104f3919061304d565b611108565b005b34801561050657600080fd5b5061050f61119e565b60405161051c91906137eb565b60405180910390f35b34801561053157600080fd5b5061054c60048036038101906105479190613145565b6111ea565b005b34801561055a57600080fd5b5061056361128c565b005b34801561057157600080fd5b5061057a6113f7565b6040516105879190613821565b60405180910390f35b34801561059c57600080fd5b506105a561141b565b6040516105b29190613821565b60405180910390f35b3480156105c757600080fd5b506105e260048036038101906105dd919061308e565b6114c6565b6040516105ef9190613821565b60405180910390f35b34801561060457600080fd5b5061060d61150e565b60405161061a9190613821565b60405180910390f35b34801561062f57600080fd5b50610638611514565b604051610645919061353f565b60405180910390f35b34801561065a57600080fd5b5061067560048036038101906106709190612f99565b61153d565b005b34801561068357600080fd5b5061069e6004803603810190610699919061308e565b611618565b005b3480156106ac57600080fd5b506106b56116b8565b6040516106c2919061353f565b60405180910390f35b3480156106d757600080fd5b506106f260048036038101906106ed9190612fc2565b6116de565b005b34801561070057600080fd5b5061071b60048036038101906107169190612f99565b6117e0565b6040516107289190613821565b60405180910390f35b34801561073d57600080fd5b506107466117ec565b6040516107539190613821565b60405180910390f35b34801561076857600080fd5b50610783600480360381019061077e919061311c565b6117f2565b005b34801561079157600080fd5b5061079a6118e7565b6040516107a79190613821565b60405180910390f35b3480156107bc57600080fd5b506107c5611904565b6040516107d392919061355a565b60405180910390f35b3480156107e857600080fd5b506107f1611955565b6040516107fe919061353f565b60405180910390f35b34801561081357600080fd5b5061082e60048036038101906108299190612f99565b61197b565b60405161083b9190613806565b60405180910390f35b34801561085057600080fd5b5061086b60048036038101906108669190612f99565b611a6c565b005b34801561087957600080fd5b50610894600480360381019061088f9190612f99565b611b2c565b005b3480156108a257600080fd5b506108ab611c24565b6040516108b891906135e9565b60405180910390f35b3480156108cd57600080fd5b506108d6611cb2565b6040516108e39190613821565b60405180910390f35b3480156108f857600080fd5b50610913600480360381019061090e91906130e0565b611cb8565b6040516109209190613821565b60405180910390f35b6000601c60000154601c6001015414156109465760009050610968565b601c6002016000601c6000015481526020019081526020016000206000015490505b90565b60006109ac600e60010154600e600001546109869190613910565b61099e600e60000154856123c990919063ffffffff16565b6123df90919063ffffffff16565b9050919050565b6000600360019054906101000a900473ffffffffffffffffffffffffffffffffffffffff16905090565b601f5481565b600360019054906101000a900473ffffffffffffffffffffffffffffffffffffffff1673ffffffffffffffffffffffffffffffffffffffff163373ffffffffffffffffffffffffffffffffffffffff1614610a73576040517f08c379a0000000000000000000000000000000000000000000000000000000008152600401610a6a906137ab565b60405180910390fd5b60025481610a819190613997565b3414610ac2576040517f08c379a0000000000000000000000000000000000000000000000000000000008152600401610ab99061362b565b60405180910390fd5b50565b6060610b1a8383601660008873ffffffffffffffffffffffffffffffffffffffff1673ffffffffffffffffffffffffffffffffffffffff1681526020019081526020016000206123f59092919063ffffffff16565b90509392505050565b600360019054906101000a900473ffffffffffffffffffffffffffffffffffffffff1673ffffffffffffffffffffffffffffffffffffffff163373ffffffffffffffffffffffffffffffffffffffff1614610bb3576040517f08c379a0000000000000000000000000000000000000000000000000000000008152600401610baa906137ab565b60405180910390fd5b80601f541015610bf8576040517f08c379a0000000000000000000000000000000000000000000000000000000008152600401610bef906137cb565b60405180910390fd5b80601f6000828254610c0a91906139f1565b9250508190555050565b6060610c5d601660008473ffffffffffffffffffffffffffffffffffffffff1673ffffffffffffffffffffffffffffffffffffffff16815260200190815260200160002061260d565b9050919050565b600360019054906101000a900473ffffffffffffffffffffffffffffffffffffffff1673ffffffffffffffffffffffffffffffffffffffff163373ffffffffffffffffffffffffffffffffffffffff1614610cf4576040517f08c379a0000000000000000000000000000000000000000000000000000000008152600401610ceb906137ab565b60405180910390fd5b565b601c8060000154908060010154905082565b6000602160009054906101000a900473ffffffffffffffffffffffffffffffffffffffff16905090565b600360009054906101000a900460ff1681565b600360009054906101000a900460ff16610d94576040517f08c379a0000000000000000000000000000000000000000000000000000000008152600401610d8b906136ab565b60405180910390fd5b610d9d8161275a565b50565b60045481565b60003411610de9576040517f08c379a0000000000000000000000000000000000000000000000000000000008152600401610de09061376b565b60405180910390fd5b6000600360019054906101000a900473ffffffffffffffffffffffffffffffffffffffff1690508073ffffffffffffffffffffffffffffffffffffffff166108fc349081150290604051600060405180830381858888f19350505050158015610e56573d6000803e3d6000fd5b506000610e623461096b565b9050602260009054906101000a900473ffffffffffffffffffffffffffffffffffffffff1673ffffffffffffffffffffffffffffffffffffffff16636039fbdb33836040518363ffffffff1660e01b8152600401610ec1929190613583565b600060405180830381600087803b158015610edb57600080fd5b505af1158015610eef573d6000803e3d6000fd5b5050505080600e6000016000828254610f089190613910565b92505081905550683635c9adc5dea00000600e6002015482610f2a9190613910565b1061102e576000610f5d683635c9adc5dea00000600e6002015484610f4f9190613910565b6123df90919063ffffffff16565b905080601f6000828254610f719190613910565b92505081905550610f94683635c9adc5dea00000826123c990919063ffffffff16565b82600e60020154610fa59190613910565b610faf91906139f1565b600e60020181905550610ff46040518060400160405280838152602001600554610fd7612a02565b610fe19190613910565b8152506013612a0a90919063ffffffff16565b80600960000160008282546110099190613910565b9250508190555080600960010160008282546110259190613910565b92505081905550505b3373ffffffffffffffffffffffffffffffffffffffff167ff5ebfcde71acb15a758233f0c9ab25632209399b90a9209a4f2379ec5fcee89f346040516110749190613821565b60405180910390a25050565b611088612a53565b73ffffffffffffffffffffffffffffffffffffffff166110a6611514565b73ffffffffffffffffffffffffffffffffffffffff16146110fc576040517f08c379a00000000000000000000000000000000000000000000000000000000081526004016110f3906136eb565b60405180910390fd5b6111066000612a5b565b565b611110612a53565b73ffffffffffffffffffffffffffffffffffffffff1661112e611514565b73ffffffffffffffffffffffffffffffffffffffff1614611184576040517f08c379a000000000000000000000000000000000000000000000000000000000815260040161117b906136eb565b60405180910390fd5b806007908051906020019061119a929190612dc4565b5050565b6111a6612e4a565b60096040518060a001604052908160008201548152602001600182015481526020016002820154815260200160038201548152602001600482015481525050905090565b6111f2612a53565b73ffffffffffffffffffffffffffffffffffffffff16611210611514565b73ffffffffffffffffffffffffffffffffffffffff1614611266576040517f08c379a000000000000000000000000000000000000000000000000000000000815260040161125d906136eb565b60405180910390fd5b8167ffffffffffffffff166005819055508067ffffffffffffffff166006819055505050565b600060159054906101000a900460ff16806112b45750600060149054906101000a900460ff16155b6112f3576040517f08c379a00000000000000000000000000000000000000000000000000000000081526004016112ea906136cb565b60405180910390fd5b60008060159054906101000a900460ff161590508015611344576001600060156101000a81548160ff0219169083151502179055506001600060146101000a81548160ff0219169083151502179055505b6103e8600181905550683635c9adc5dea0000060028190555061232860048190555033602060006101000a81548173ffffffffffffffffffffffffffffffffffffffff021916908373ffffffffffffffffffffffffffffffffffffffff160217905550600e620151806113b79190613997565b6005819055506007620151806113cd9190613997565b60068190555080156113f45760008060156101000a81548160ff0219169083151502179055505b50565b6000611416600e60000154600e600101546123df90919063ffffffff16565b905090565b6000600360019054906101000a900473ffffffffffffffffffffffffffffffffffffffff1673ffffffffffffffffffffffffffffffffffffffff163373ffffffffffffffffffffffffffffffffffffffff16146114ad576040517f08c379a00000000000000000000000000000000000000000000000000000000081526004016114a4906137ab565b60405180910390fd5b60006114b9601c612b1f565b9050806000015191505090565b6000611507600e600001546114f9600e60010154600e600001546114ea9190613910565b856123c990919063ffffffff16565b6123df90919063ffffffff16565b9050919050565b60065481565b60008060009054906101000a900473ffffffffffffffffffffffffffffffffffffffff16905090565b611545612a53565b73ffffffffffffffffffffffffffffffffffffffff16611563611514565b73ffffffffffffffffffffffffffffffffffffffff16146115b9576040517f08c379a00000000000000000000000000000000000000000000000000000000081526004016115b0906136eb565b60405180910390fd5b80600360016101000a81548173ffffffffffffffffffffffffffffffffffffffff021916908373ffffffffffffffffffffffffffffffffffffffff1602179055506001600360006101000a81548160ff02191690831515021790555050565b611620612a53565b73ffffffffffffffffffffffffffffffffffffffff1661163e611514565b73ffffffffffffffffffffffffffffffffffffffff1614611694576040517f08c379a000000000000000000000000000000000000000000000000000000000815260040161168b906136eb565b60405180910390fd5b80600181905550670de0b6b3a7640000816116af9190613997565b60028190555050565b602160009054906101000a900473ffffffffffffffffffffffffffffffffffffffff1681565b6116e6612a53565b73ffffffffffffffffffffffffffffffffffffffff16611704611514565b73ffffffffffffffffffffffffffffffffffffffff161461175a576040517f08c379a0000000000000000000000000000000000000000000000000000000008152600401611751906136eb565b60405180910390fd5b81602260006101000a81548173ffffffffffffffffffffffffffffffffffffffff021916908373ffffffffffffffffffffffffffffffffffffffff16021790555080602360006101000a81548173ffffffffffffffffffffffffffffffffffffffff021916908373ffffffffffffffffffffffffffffffffffffffff1602179055505050565b60006004549050919050565b60055481565b6117fa612a53565b73ffffffffffffffffffffffffffffffffffffffff16611818611514565b73ffffffffffffffffffffffffffffffffffffffff161461186e576040517f08c379a0000000000000000000000000000000000000000000000000000000008152600401611865906136eb565b60405180910390fd5b60008167ffffffffffffffff1611801561189457506127108167ffffffffffffffff1611155b6118d3576040517f08c379a00000000000000000000000000000000000000000000000000000000081526004016118ca9061370b565b60405180910390fd5b8067ffffffffffffffff1660048190555050565b6000601c60000154601c600101546118ff91906139f1565b905090565b600080602260009054906101000a900473ffffffffffffffffffffffffffffffffffffffff16602360009054906101000a900473ffffffffffffffffffffffffffffffffffffffff16915091509091565b602060009054906101000a900473ffffffffffffffffffffffffffffffffffffffff1681565b611983612e79565b6000601260008473ffffffffffffffffffffffffffffffffffffffff1673ffffffffffffffffffffffffffffffffffffffff1681526020019081526020016000206040518060400160405290816000820154815260200160018201548152505090506000611a2e601660008673ffffffffffffffffffffffffffffffffffffffff1673ffffffffffffffffffffffffffffffffffffffff168152602001908152602001600020612be4565b90508082602001818151611a429190613910565b915081815250508082600001818151611a5b91906139f1565b915081815250508192505050919050565b611a74612a53565b73ffffffffffffffffffffffffffffffffffffffff16611a92611514565b73ffffffffffffffffffffffffffffffffffffffff1614611ae8576040517f08c379a0000000000000000000000000000000000000000000000000000000008152600401611adf906136eb565b60405180910390fd5b80602160006101000a81548173ffffffffffffffffffffffffffffffffffffffff021916908373ffffffffffffffffffffffffffffffffffffffff16021790555050565b611b34612a53565b73ffffffffffffffffffffffffffffffffffffffff16611b52611514565b73ffffffffffffffffffffffffffffffffffffffff1614611ba8576040517f08c379a0000000000000000000000000000000000000000000000000000000008152600401611b9f906136eb565b60405180910390fd5b600073ffffffffffffffffffffffffffffffffffffffff168173ffffffffffffffffffffffffffffffffffffffff161415611c18576040517f08c379a0000000000000000000000000000000000000000000000000000000008152600401611c0f9061364b565b60405180910390fd5b611c2181612a5b565b50565b60078054611c3190613ac3565b80601f0160208091040260200160405190810160405280929190818152602001828054611c5d90613ac3565b8015611caa5780601f10611c7f57610100808354040283529160200191611caa565b820191906000526020600020905b815481529060010190602001808311611c8d57829003601f168201915b505050505081565b60085481565b6000600360009054906101000a900460ff16611d09576040517f08c379a0000000000000000000000000000000000000000000000000000000008152600401611d00906136ab565b60405180910390fd5b602260009054906101000a900473ffffffffffffffffffffffffffffffffffffffff1673ffffffffffffffffffffffffffffffffffffffff166370a08231336040518263ffffffff1660e01b8152600401611d64919061353f565b60206040518083038186803b158015611d7c57600080fd5b505afa158015611d90573d6000803e3d6000fd5b505050506040513d601f19601f82011682018060405250810190611db491906130b7565b831115611df6576040517f08c379a0000000000000000000000000000000000000000000000000000000008152600401611ded9061372b565b60405180910390fd5b602260009054906101000a900473ffffffffffffffffffffffffffffffffffffffff1673ffffffffffffffffffffffffffffffffffffffff16630d1118ce33856040518363ffffffff1660e01b8152600401611e53929190613583565b600060405180830381600087803b158015611e6d57600080fd5b505af1158015611e81573d6000803e3d6000fd5b505050506000611e90846114c6565b905083600e6000016000828254611ea791906139f1565b92505081905550611eb86013612c69565b60096002016000828254611ecc9190613910565b925050819055506000831415611f2957600e60030154811115611f24576040517f08c379a0000000000000000000000000000000000000000000000000000000008152600401611f1b9061378b565b60405180910390fd5b612017565b6001831415611f9a57611f53683635c9adc5dea000006009600201546123c990919063ffffffff16565b811115611f95576040517f08c379a0000000000000000000000000000000000000000000000000000000008152600401611f8c9061366b565b60405180910390fd5b612016565b600283141561200b57611fc4683635c9adc5dea000006009600001546123c990919063ffffffff16565b811115612006576040517f08c379a0000000000000000000000000000000000000000000000000000000008152600401611ffd9061374b565b60405180910390fd5b612015565b60009150506123c3565b5b5b6000600e6003015482111561216a576001612054683635c9adc5dea00000600e600301548561204691906139f1565b6123df90919063ffffffff16565b61205e9190613910565b9050612082604051806020016040528083815250601c612cf890919063ffffffff16565b8161209f683635c9adc5dea00000836123c990919063ffffffff16565b600e600301546120af9190613910565b6120b991906139f1565b600e6003018190555080600960000160008282546120d791906139f1565b92505081905550600960020154811161210957806009600201546120fb91906139f1565b60096002018190555061214d565b60096002015481111561214c5760006009600201819055506009600201548161213291906139f1565b60096001015461214291906139f1565b6009600101819055505b5b80600960030160008282546121629190613910565b925050819055505b6121e36040518060400160405280848152602001600654612189612a02565b6121939190613910565b815250601660003373ffffffffffffffffffffffffffffffffffffffff1673ffffffffffffffffffffffffffffffffffffffff168152602001908152602001600020612a0a90919063ffffffff16565b81601260003373ffffffffffffffffffffffffffffffffffffffff1673ffffffffffffffffffffffffffffffffffffffff16815260200190815260200160002060000160008282546122359190613910565b925050819055506000612285601660003373ffffffffffffffffffffffffffffffffffffffff1673ffffffffffffffffffffffffffffffffffffffff168152602001908152602001600020612c69565b905080601260003373ffffffffffffffffffffffffffffffffffffffff1673ffffffffffffffffffffffffffffffffffffffff16815260200190815260200160002060010160008282546122d99190613910565b9250508190555080601260003373ffffffffffffffffffffffffffffffffffffffff1673ffffffffffffffffffffffffffffffffffffffff168152602001908152602001600020600001600082825461233291906139f1565b92505081905550806009600401600082825461234e9190613910565b92505081905550806009600301600082825461236a91906139f1565b925050819055503373ffffffffffffffffffffffffffffffffffffffff167fd81524ca5b038be9f98b286808a6f46f99c8700bce9ab4793dc12a2dbaa4f2d8876040516123b79190613821565b60405180910390a25050505b92915050565b600081836123d79190613997565b905092915050565b600081836123ed9190613966565b905092915050565b606060008367ffffffffffffffff1685600001546124139190613910565b9050846001015481106124a357600067ffffffffffffffff811115612461577f4e487b7100000000000000000000000000000000000000000000000000000000600052604160045260246000fd5b60405190808252806020026020018201604052801561249a57816020015b612487612e93565b81526020019060019003908161247f5790505b50915050612606565b60008367ffffffffffffffff16826124bb9190613910565b905085600101548111156124d157856001015490505b600082826124df91906139f1565b67ffffffffffffffff81111561251e577f4e487b7100000000000000000000000000000000000000000000000000000000600052604160045260246000fd5b60405190808252806020026020018201604052801561255757816020015b612544612e93565b81526020019060019003908161253c5790505b50905060008390505b828110156125fe57876002016000828152602001908152602001600020604051806040016040529081600082015481526020016001820154815250508285836125a991906139f1565b815181106125e0577f4e487b7100000000000000000000000000000000000000000000000000000000600052603260045260246000fd5b602002602001018190525080806125f690613b26565b915050612560565b508093505050505b9392505050565b606060008260000154836001015461262591906139f1565b67ffffffffffffffff811115612664577f4e487b7100000000000000000000000000000000000000000000000000000000600052604160045260246000fd5b60405190808252806020026020018201604052801561269d57816020015b61268a612e93565b8152602001906001900390816126825790505b5090506000836000015490505b83600101548110156127505783600201600082815260200190815260200160002060405180604001604052908160008201548152602001600182015481525050828560000154836126fb91906139f1565b81518110612732577f4e487b7100000000000000000000000000000000000000000000000000000000600052603260045260246000fd5b6020026020010181905250808061274890613b26565b9150506126aa565b5080915050919050565b600360009054906101000a900460ff166127a9576040517f08c379a00000000000000000000000000000000000000000000000000000000081526004016127a0906136ab565b60405180910390fd5b60006127f2601660003373ffffffffffffffffffffffffffffffffffffffff1673ffffffffffffffffffffffffffffffffffffffff168152602001908152602001600020612c69565b905080601260003373ffffffffffffffffffffffffffffffffffffffff1673ffffffffffffffffffffffffffffffffffffffff16815260200190815260200160002060010160008282546128469190613910565b9250508190555080601260003373ffffffffffffffffffffffffffffffffffffffff1673ffffffffffffffffffffffffffffffffffffffff168152602001908152602001600020600001600082825461289f91906139f1565b9250508190555080600960040160008282546128bb9190613910565b9250508190555080600960030160008282546128d791906139f1565b9250508190555081601260003373ffffffffffffffffffffffffffffffffffffffff1673ffffffffffffffffffffffffffffffffffffffff168152602001908152602001600020600101541015612963576040517f08c379a000000000000000000000000000000000000000000000000000000000815260040161295a9061368b565b60405180910390fd5b60003390508073ffffffffffffffffffffffffffffffffffffffff166108fc849081150290604051600060405180830381858888f193505050501580156129ae573d6000803e3d6000fd5b503373ffffffffffffffffffffffffffffffffffffffff167f141ef67c4a6d3ec2adfb2f66d33c2b11de5b4f34344757554d430570b18a92ec846040516129f59190613821565b60405180910390a2505050565b600043905090565b80826002016000846001016000815480929190612a2690613b26565b91905055815260200190815260200160002060008201518160000155602082015181600101559050505050565b600033905090565b60008060009054906101000a900473ffffffffffffffffffffffffffffffffffffffff169050816000806101000a81548173ffffffffffffffffffffffffffffffffffffffff021916908373ffffffffffffffffffffffffffffffffffffffff1602179055508173ffffffffffffffffffffffffffffffffffffffff168173ffffffffffffffffffffffffffffffffffffffff167f8be0079c531659141344cd1fd0a4f28419497f9722a3daafe3b4186f6b6457e060405160405180910390a35050565b612b27612ead565b8160010154826000015410612b71576040517f08c379a0000000000000000000000000000000000000000000000000000000008152600401612b689061360b565b60405180910390fd5b6000826002016000846000015481526020019081526020016000206040518060200160405290816000820154815250509050826002016000846000016000815480929190612bbe90613b26565b919050558152602001908152602001600020600080820160009055505080915050919050565b600080600090506000836000015490505b8360010154811015612c5f5743846002016000838152602001908152602001600020600101541115612c2657612c5f565b8360020160008281526020019081526020016000206000015482612c4a9190613910565b91508080612c5790613b26565b915050612bf5565b5080915050919050565b600080600090506000836000015490505b8360010154811015612cee5743846002016000838152602001908152602001600020600101541115612cab57612cee565b8360020160008281526020019081526020016000206000015482612ccf9190613910565b9150612cda84612d37565b508080612ce690613b26565b915050612c7a565b5080915050919050565b80826002016000846001016000815480929190612d1490613b26565b919050558152602001908152602001600020600082015181600001559050505050565b612d3f612e93565b600082600201600084600001548152602001908152602001600020604051806040016040529081600082015481526020016001820154815250509050826002016000846000016000815480929190612d9690613b26565b9190505581526020019081526020016000206000808201600090556001820160009055505080915050919050565b828054612dd090613ac3565b90600052602060002090601f016020900481019282612df25760008555612e39565b82601f10612e0b57805160ff1916838001178555612e39565b82800160010185558215612e39579182015b82811115612e38578251825591602001919060010190612e1d565b5b509050612e469190612ec0565b5090565b6040518060a0016040528060008152602001600081526020016000815260200160008152602001600081525090565b604051806040016040528060008152602001600081525090565b604051806040016040528060008152602001600081525090565b6040518060200160405280600081525090565b5b80821115612ed9576000816000905550600101612ec1565b5090565b6000612ef0612eeb8461388a565b613865565b905082815260208101848484011115612f0857600080fd5b612f13848285613a81565b509392505050565b600081359050612f2a81613f3b565b92915050565b600082601f830112612f4157600080fd5b8135612f51848260208601612edd565b91505092915050565b600081359050612f6981613f52565b92915050565b600081519050612f7e81613f52565b92915050565b600081359050612f9381613f69565b92915050565b600060208284031215612fab57600080fd5b6000612fb984828501612f1b565b91505092915050565b60008060408385031215612fd557600080fd5b6000612fe385828601612f1b565b9250506020612ff485828601612f1b565b9150509250929050565b60008060006060848603121561301357600080fd5b600061302186828701612f1b565b935050602061303286828701612f84565b925050604061304386828701612f84565b9150509250925092565b60006020828403121561305f57600080fd5b600082013567ffffffffffffffff81111561307957600080fd5b61308584828501612f30565b91505092915050565b6000602082840312156130a057600080fd5b60006130ae84828501612f5a565b91505092915050565b6000602082840312156130c957600080fd5b60006130d784828501612f6f565b91505092915050565b600080604083850312156130f357600080fd5b600061310185828601612f5a565b925050602061311285828601612f5a565b9150509250929050565b60006020828403121561312e57600080fd5b600061313c84828501612f84565b91505092915050565b6000806040838503121561315857600080fd5b600061316685828601612f84565b925050602061317785828601612f84565b9150509250929050565b600061318d83836134c3565b60408301905092915050565b6131a281613a25565b82525050565b60006131b3826138cb565b6131bd81856138ee565b93506131c8836138bb565b8060005b838110156131f95781516131e08882613181565b97506131eb836138e1565b9250506001810190506131cc565b5085935050505092915050565b61320f81613a37565b82525050565b6000613220826138d6565b61322a81856138ff565b935061323a818560208601613a90565b61324381613c2b565b840191505092915050565b600061325b600e836138ff565b915061326682613c3c565b602082019050919050565b600061327e602a836138ff565b915061328982613c65565b604082019050919050565b60006132a16026836138ff565b91506132ac82613cb4565b604082019050919050565b60006132c4601b836138ff565b91506132cf82613d03565b602082019050919050565b60006132e7601a836138ff565b91506132f282613d2c565b602082019050919050565b600061330a6012836138ff565b915061331582613d55565b602082019050919050565b600061332d602e836138ff565b915061333882613d7e565b604082019050919050565b60006133506020836138ff565b915061335b82613dcd565b602082019050919050565b60006133736017836138ff565b915061337e82613df6565b602082019050919050565b6000613396600e836138ff565b91506133a182613e1f565b602082019050919050565b60006133b96015836138ff565b91506133c482613e48565b602082019050919050565b60006133dc6008836138ff565b91506133e782613e71565b602082019050919050565b60006133ff6020836138ff565b915061340a82613e9a565b602082019050919050565b60006134226016836138ff565b915061342d82613ec3565b602082019050919050565b6000613445602e836138ff565b915061345082613eec565b604082019050919050565b60a0820160008201516134716000850182613521565b5060208201516134846020850182613521565b5060408201516134976040850182613521565b5060608201516134aa6060850182613521565b5060808201516134bd6080850182613521565b50505050565b6040820160008201516134d96000850182613521565b5060208201516134ec6020850182613521565b50505050565b6040820160008201516135086000850182613521565b50602082015161351b6020850182613521565b50505050565b61352a81613a63565b82525050565b61353981613a63565b82525050565b60006020820190506135546000830184613199565b92915050565b600060408201905061356f6000830185613199565b61357c6020830184613199565b9392505050565b60006040820190506135986000830185613199565b6135a56020830184613530565b9392505050565b600060208201905081810360008301526135c681846131a8565b905092915050565b60006020820190506135e36000830184613206565b92915050565b600060208201905081810360008301526136038184613215565b905092915050565b600060208201905081810360008301526136248161324e565b9050919050565b6000602082019050818103600083015261364481613271565b9050919050565b6000602082019050818103600083015261366481613294565b9050919050565b60006020820190508181036000830152613684816132b7565b9050919050565b600060208201905081810360008301526136a4816132da565b9050919050565b600060208201905081810360008301526136c4816132fd565b9050919050565b600060208201905081810360008301526136e481613320565b9050919050565b6000602082019050818103600083015261370481613343565b9050919050565b6000602082019050818103600083015261372481613366565b9050919050565b6000602082019050818103600083015261374481613389565b9050919050565b60006020820190508181036000830152613764816133ac565b9050919050565b60006020820190508181036000830152613784816133cf565b9050919050565b600060208201905081810360008301526137a4816133f2565b9050919050565b600060208201905081810360008301526137c481613415565b9050919050565b600060208201905081810360008301526137e481613438565b9050919050565b600060a082019050613800600083018461345b565b92915050565b600060408201905061381b60008301846134f2565b92915050565b60006020820190506138366000830184613530565b92915050565b60006040820190506138516000830185613530565b61385e6020830184613530565b9392505050565b600061386f613880565b905061387b8282613af5565b919050565b6000604051905090565b600067ffffffffffffffff8211156138a5576138a4613bfc565b5b6138ae82613c2b565b9050602081019050919050565b6000819050602082019050919050565b600081519050919050565b600081519050919050565b6000602082019050919050565b600082825260208201905092915050565b600082825260208201905092915050565b600061391b82613a63565b915061392683613a63565b9250827fffffffffffffffffffffffffffffffffffffffffffffffffffffffffffffffff0382111561395b5761395a613b6f565b5b828201905092915050565b600061397182613a63565b915061397c83613a63565b92508261398c5761398b613b9e565b5b828204905092915050565b60006139a282613a63565b91506139ad83613a63565b9250817fffffffffffffffffffffffffffffffffffffffffffffffffffffffffffffffff04831182151516156139e6576139e5613b6f565b5b828202905092915050565b60006139fc82613a63565b9150613a0783613a63565b925082821015613a1a57613a19613b6f565b5b828203905092915050565b6000613a3082613a43565b9050919050565b60008115159050919050565b600073ffffffffffffffffffffffffffffffffffffffff82169050919050565b6000819050919050565b600067ffffffffffffffff82169050919050565b82818337600083830152505050565b60005b83811015613aae578082015181840152602081019050613a93565b83811115613abd576000848401525b50505050565b60006002820490506001821680613adb57607f821691505b60208210811415613aef57613aee613bcd565b5b50919050565b613afe82613c2b565b810181811067ffffffffffffffff82111715613b1d57613b1c613bfc565b5b80604052505050565b6000613b3182613a63565b91507fffffffffffffffffffffffffffffffffffffffffffffffffffffffffffffffff821415613b6457613b63613b6f565b5b600182019050919050565b7f4e487b7100000000000000000000000000000000000000000000000000000000600052601160045260246000fd5b7f4e487b7100000000000000000000000000000000000000000000000000000000600052601260045260246000fd5b7f4e487b7100000000000000000000000000000000000000000000000000000000600052602260045260246000fd5b7f4e487b7100000000000000000000000000000000000000000000000000000000600052604160045260246000fd5b6000601f19601f8301169050919050565b7f517565756520697320656d707479000000000000000000000000000000000000600082015250565b7f6d73672e76616c75652073686f756c6420626520766f7465506f776572202a2060008201527f3130303020657468657200000000000000000000000000000000000000000000602082015250565b7f4f776e61626c653a206e6577206f776e657220697320746865207a65726f206160008201527f6464726573730000000000000000000000000000000000000000000000000000602082015250565b7f45786365656420666173742065786368616e676520616d6f756e740000000000600082015250565b7f556e6c6f636b656420434658206973206e6f7420656e6f756768000000000000600082015250565b7f506f6f6c206973206e6f74207365747465640000000000000000000000000000600082015250565b7f496e697469616c697a61626c653a20636f6e747261637420697320616c72656160008201527f647920696e697469616c697a6564000000000000000000000000000000000000602082015250565b7f4f776e61626c653a2063616c6c6572206973206e6f7420746865206f776e6572600082015250565b7f726174696f2073686f756c6420626520312d3130303030000000000000000000600082015250565b7f4578636565642062616c616e6365000000000000000000000000000000000000600082015250565b7f4578636565642065786368616e6765206c696d69740000000000000000000000600082015250565b7f6d757374203e2030000000000000000000000000000000000000000000000000600082015250565b7f457863656564207a65726f2074696d652065786368616e676520616d6f756e74600082015250565b7f4f6e6c792062726964676520697320616c6c6f77656400000000000000000000600082015250565b7f63726f7373696e67566f7465732073686f756c6420626520677265617465722060008201527f7468616e20766f7465506f776572000000000000000000000000000000000000602082015250565b613f4481613a25565b8114613f4f57600080fd5b50565b613f5b81613a63565b8114613f6657600080fd5b50565b613f7281613a6d565b8114613f7d57600080fd5b5056fea264697066735822122096831afa8b5794682fa3dfea94ddb61746d3c6253e7d5f86074e1519e711ce3064736f6c63430008020033",
  "immutableReferences": {},
  "source": "//SPDX-License-Identifier: BUSL-1.1\n\npragma solidity ^0.8.0;\n\nimport \"@openzeppelin/contracts/token/ERC20/ERC20.sol\";\nimport \"@openzeppelin/contracts/access/Ownable.sol\";\nimport \"@openzeppelin/contracts/utils/math/SafeMath.sol\";\nimport \"@openzeppelin/contracts/utils/structs/EnumerableSet.sol\";\nimport \"@openzeppelin/contracts/proxy/utils/Initializable.sol\";\nimport \"../VotePowerQueue.sol\";\nimport \"./UnstakeQueue.sol\";\n\ninterface XCFXExchange{\n    function addTokens(address _to, uint256 _value) external;\n    function burnTokens(address account, uint256 amount) external;\n    function balanceOf(address account) external view returns(uint256);\n    function totalSupply() external view returns(uint256);\n}\n\n///\n///  @title eSpace PoSPool\n///\ncontract ESpacePoSPoolmini is Ownable,Initializable {\n  using SafeMath for uint256;\n  using EnumerableSet for EnumerableSet.AddressSet;\n  using VotePowerQueue for VotePowerQueue.InOutQueue;\n  using UnstakeQueue for UnstakeQueue.Queue;\n\n  uint256 private constant RATIO_BASE = 10000;\n  uint256 private constant ONE_DAY_BLOCK_COUNT = 3600 * 24;\n  uint256 private CFX_COUNT_OF_ONE_VOTE = 1000;\n  uint256 private CFX_VALUE_OF_ONE_VOTE = 1000 ether;\n  \n  \n  // ======================== Pool config =========================\n  // wheter this poolContract registed in PoS\n  bool public birdgeAddrSetted;\n  address private _bridgeAddress;\n  // ratio shared by user: 1-10000\n  uint256 public poolUserShareRatio = 9000;\n  // lock period: 14 days\n  uint256 public _poolLockPeriod_slow = ONE_DAY_BLOCK_COUNT * 14;\n  uint256 public _poolLockPeriod_fast = ONE_DAY_BLOCK_COUNT * 7;\n  string public poolName; // = \"UNCLEON HUB\";\n \n  // ======================== Contract states =========================\n  // global pool accumulative reward for each cfx\n  uint256 public accRewardPerCfx;  // start from 0\n\n  PoolSummary private _poolSummary;\n  PoolAccounts private _poolAccounts;\n  mapping(address => UserSummary) private userSummaries;\n  \n  VotePowerQueue.InOutQueue private Inqueues;\n  // VotePowerQueue.InOutQueue private Outqueues;\n  mapping(address => VotePowerQueue.InOutQueue) private userOutqueues;\n\n  PoolShot internal lastPoolShot;\n  // mapping(address => UserShot) internal lastUserShots;\n  \n  EnumerableSet.AddressSet private stakers;\n  // Unstake votes queue\n  UnstakeQueue.Queue public unstakeQueue;  //private--debug\n\n  // Currently withdrawable CFX\n  // uint256 public withdrawableCfx;\n  // Votes need to cross from eSpace to Core\n  uint256 public crossingVotes;\n\n  // ======================== XCFX use ===================================\n  address public owner_addr;\n  address public admin_addr;\n\n  address XCFX_address;\n  address Storage_addr;\n  address bridge_storage_interests;\n  //address XET_Distribute_addr;\n  address zero_addr=address(0x0000000000000000000000000000000000000000);\n\n  // ======================== Struct definitions =========================\n  /// @title PoolSummary\n  /// @custom:field totalvotes\n  /// @custom:field lockingvotes\n  /// @custom:field lockedvotes\n  /// @custom:field unlockingvotes\n  /// @custom:field unlockedvotes\n  struct PoolSummary {\n    uint256 totalvotes;\n    uint256 lockingvotes;\n    uint256 lockedvotes;\n    uint256 unlockingvotes;\n    uint256 unlockedvotes;\n  }\n\n  /// @title PoolAccounts\n  /// @custom:field totalxcfxs\n  /// @custom:field totalinterests\n  /// @custom:field cfxstillinstore\n  /// @custom:field remainedcfx\n  struct PoolAccounts {\n    uint256 totalxcfxs;\n    uint256 totalinterests;\n    uint256 cfxstillinstore;\n    uint256 remainedcfx;\n  }\n\n  /// @title UserSummary\n  /// @custom:field unlocking\n  /// @custom:field unlocked\n  struct UserSummary {\n    uint256 unlocking;\n    uint256 unlocked;\n  }\n\n  struct PoolShot {\n    uint256 available; // XCFX SUM (1 ether XCFX === 1)\n    uint256 balance;\n    uint256 blockNumber;\n  } \n\n  // ======================== Modifiers =========================\n  modifier onlyRegisted() {\n    require(birdgeAddrSetted, \"Pool is not setted\");\n    _;\n  }\n\n  modifier onlyBridge() {\n    require(msg.sender == _bridgeAddress, \"Only bridge is allowed\");\n    _;\n  }\n\n  // ======================== Helpers =========================\n  function _selfBalance() internal view virtual returns (uint256) {\n    return address(this).balance;\n  }\n\n  function _blockNumber() internal view virtual returns (uint256) {\n    return block.number;\n  }\n\n  function _userShareRatio(address _user) public view returns (uint256) {\n    return poolUserShareRatio;\n  }\n\n  // ======================== Events =========================\n\n  event IncreasePoSStake(address indexed user, uint256 votePower);\n\n  event DecreasePoSStake(address indexed user, uint256 votePower);\n\n  event WithdrawStake(address indexed user, uint256 votePower);\n\n  event ClaimInterest(address indexed user, uint256 amount);\n\n  //event RatioChanged(uint256 ratio);\n\n  // ======================== Init methods =========================\n\n  // call this method when depoly the 1967 proxy contract\n  function initialize() public initializer {\n    CFX_COUNT_OF_ONE_VOTE = 1000;\n    CFX_VALUE_OF_ONE_VOTE = 1000 ether;\n    poolUserShareRatio = 9000;\n    owner_addr = msg.sender;\n    _poolLockPeriod_slow = ONE_DAY_BLOCK_COUNT * 14;\n    _poolLockPeriod_fast = ONE_DAY_BLOCK_COUNT * 7;\n  }\n\n  // ======================== Contract methods =========================\n\n  //--------------------------------------------------------------------all new function for XCFX  \n\n  modifier only_admin() {\n        require(msg.sender == admin_addr, 'Must admin');\n        _;\n    }\n  function set_admin(address _admin_addr) external onlyOwner {\n        admin_addr=_admin_addr;\n    } \n  function get_admin() external view returns(address){\n    //require(_address==msg.sender,'1');\n    return(admin_addr);\n    }\n  function set_Settings(address _XCFX_addr,address _S_addr) external onlyOwner {\n        XCFX_address = _XCFX_addr;\n        Storage_addr = _S_addr;\n    }  \n\n  function get_Settings() external view returns(address,address){\n    return (XCFX_address,Storage_addr);\n    }\n\n  //\n  // @title CFX_exchange_estim\n  // @dev _amount The amount of CFX to stake\n  //\n  function CFX_exchange_estim(uint256 _amount) public view returns(uint256){\n    return (_amount.mul(_poolAccounts.totalxcfxs).div(_poolAccounts.totalxcfxs+_poolAccounts.totalinterests));\n    }\n\n  function CFX_exchange_XCFX() external payable {\n    require(msg.value>0 , 'must > 0');\n    address payable receiver = payable(_bridgeAddress);\n    receiver.transfer(msg.value);\n    uint256 xcfx_exchange = CFX_exchange_estim(msg.value);\n    XCFXExchange(XCFX_address).addTokens(msg.sender, xcfx_exchange);\n\n    _poolAccounts.totalxcfxs += xcfx_exchange;\n    if(xcfx_exchange+_poolAccounts.cfxstillinstore >= 1000 ether){\n      uint256 votePower = (xcfx_exchange+_poolAccounts.cfxstillinstore).div(1000 ether);\n      crossingVotes += votePower; //IncreaseStake method\n      _poolAccounts.cfxstillinstore = _poolAccounts.cfxstillinstore + xcfx_exchange - votePower.mul(1000 ether);\n      Inqueues.enqueue(VotePowerQueue.QueueNode(votePower, _blockNumber() + _poolLockPeriod_slow));\n      _poolSummary.totalvotes += votePower;\n      _poolSummary.lockingvotes += votePower;\n\n    }\n\n    emit IncreasePoSStake(msg.sender, msg.value);\n\n  }\n\n  function XCFX_burn_estim(uint256 _amount) public view returns(uint256){\n    return (_amount.mul(_poolAccounts.totalxcfxs+_poolAccounts.totalinterests).div(_poolAccounts.totalxcfxs));\n    }\n\n  function XCFX_burn(uint256 _amount, uint256 _mode) public virtual onlyRegisted returns(uint256){\n    require(_amount<=XCFXExchange(XCFX_address).balanceOf(msg.sender),\"Exceed balance\");\n    \n    XCFXExchange(XCFX_address).burnTokens(msg.sender, _amount);\n    uint256 cfx_back = XCFX_burn_estim(_amount);\n    _poolAccounts.totalxcfxs -= _amount;\n    _poolSummary.lockedvotes += Inqueues.collectEndedVotes();\n    if(_mode == 0){\n      require(cfx_back<=_poolAccounts.remainedcfx,\"Exceed zero time exchange amount\");\n    }\n    else if(_mode == 1){\n      require(cfx_back<=_poolSummary.lockedvotes.mul(1000 ether),\"Exceed fast exchange amount\");\n    }\n    else if(_mode == 2){\n      require(cfx_back<=_poolSummary.totalvotes.mul(1000 ether),\"Exceed exchange limit\");\n    }\n    else return 0;\n\n    uint256 unstakeVotePowers;\n\n    if(cfx_back > _poolAccounts.remainedcfx){\n      unstakeVotePowers = (cfx_back - _poolAccounts.remainedcfx).div(1000 ether) + 1;\n      unstakeQueue.enqueue(UnstakeQueue.Node(unstakeVotePowers));  //decreaseStake method\n      _poolAccounts.remainedcfx = _poolAccounts.remainedcfx + unstakeVotePowers.mul(1000 ether) - cfx_back;\n      _poolSummary.totalvotes -= unstakeVotePowers;\n      if(unstakeVotePowers<=_poolSummary.lockedvotes){\n        _poolSummary.lockedvotes = _poolSummary.lockedvotes - unstakeVotePowers;\n      }\n      else if(unstakeVotePowers>_poolSummary.lockedvotes){\n        _poolSummary.lockedvotes = 0;\n        _poolSummary.lockingvotes = _poolSummary.lockingvotes - (unstakeVotePowers-_poolSummary.lockedvotes);\n      }\n      _poolSummary.unlockingvotes += unstakeVotePowers;\n      \n    }\n    userOutqueues[msg.sender].enqueue(VotePowerQueue.QueueNode(cfx_back, _blockNumber() + _poolLockPeriod_fast));\n    \n    userSummaries[msg.sender].unlocking += cfx_back;\n    \n    uint256 temp_amount = userOutqueues[msg.sender].collectEndedVotes();\n    userSummaries[msg.sender].unlocked += temp_amount;\n    userSummaries[msg.sender].unlocking -= temp_amount;\n    _poolSummary.unlockedvotes += temp_amount;\n    _poolSummary.unlockingvotes -= temp_amount;\n\n    emit DecreasePoSStake(msg.sender, _amount);\n\n  }\n\n  function getback_CFX(uint256 _amount) public virtual onlyRegisted {\n     withdraw(_amount);\n  }  \n  //--------------------------------------------------------------------all new function for XCFX  \n\n  \n  ///\n  /// @notice Withdraw PoS vote power\n  /// @param _amount The amount of CFX to withdraw\n  ///\n  function withdraw(uint256 _amount) private onlyRegisted {\n    uint256 temp_amount = userOutqueues[msg.sender].collectEndedVotes();\n    userSummaries[msg.sender].unlocked += temp_amount;\n    userSummaries[msg.sender].unlocking -= temp_amount;\n    _poolSummary.unlockedvotes += temp_amount;\n    _poolSummary.unlockingvotes -= temp_amount;\n\n    require(userSummaries[msg.sender].unlocked >= _amount, \"Unlocked CFX is not enough\");\n    \n    address payable receiver = payable(msg.sender);\n    receiver.transfer(_amount);\n    emit WithdrawStake(msg.sender, _amount);\n\n  }\n\n  // ///\n  // /// @notice User's interest from participate PoS\n  // /// @return CFX interest in Drip\n  // ///\n  // function Interestdistribute() public returns (uint256) {\n    \n  //   uint256 _interestnew = address(bridge_storage_interests).balance;\n  //   if(_interestnew==0){ return 0;}\n\n  //   uint256 _interest_tostakerVault = (_interestnew * poolUserShareRatio)/RATIO_BASE ;\n  //   uint256 _interest_toServiceVault = _interestnew - _interest_tostakerVault;\n\n  //   address payable receiver_this = payable(this);\n  //   address payable receiver = payable(_bridgeAddress);\n  //   uint256 xcfx_exchange = CFX_exchange_estim(_interest_toServiceVault);\n  //   XCFXExchange(XCFX_address).addTokens(msg.sender, xcfx_exchange);\n\n  //   //transferFrom(bridge_storage_interests, receiver_this, _interestnew);  //-------err,need add a bridge_storage_interests contract to do is work\n  //   receiver.transfer(_interest_tostakerVault);\n    \n  //   if(xcfx_exchange+_poolAccounts.cfxstillinstore >= 1000 ether){\n  //     uint256 votePower = (xcfx_exchange+_poolAccounts.cfxstillinstore).div(1000 ether);\n  //     crossingVotes += votePower; //IncreaseStake method\n  //     _poolAccounts.cfxstillinstore = _poolAccounts.cfxstillinstore + xcfx_exchange - votePower.mul(1000 ether);\n  //     Inqueues.enqueue(VotePowerQueue.QueueNode(votePower, _blockNumber() + _poolLockPeriod_slow));\n  //     _poolSummary.totalvotes += votePower;\n  //     _poolSummary.lockingvotes += votePower;\n\n  //   }\n    \n  //   CFX_exchange_XCFX{value: _interest_toServiceVault}();\n\n  //   return (_interestnew);\n  // }\n\n  /// \n  /// @notice Get user's pool summary\n  /// @param _user The address of user to query\n  /// @return User's summary\n  ///\n  function userSummary(address _user) public view returns (UserSummary memory) {\n    UserSummary memory summary = userSummaries[_user];\n    uint256 temp_amount =userOutqueues[_user].sumEndedVotes();\n    //summary.locked += userInqueues[_user].sumEndedVotes();\n    summary.unlocked += temp_amount;\n    summary.unlocking -= temp_amount;\n    return summary;\n  }\n\n  function poolSummary() public view returns (PoolSummary memory) {\n    return _poolSummary;\n  }\n\n  function poolAPY() public view returns (uint256) {\n    return  _poolAccounts.totalinterests.div( _poolAccounts.totalxcfxs) ;\n  }\n\n  function userOutQueue(address account) public view returns (VotePowerQueue.QueueNode[] memory) {\n    return userOutqueues[account].queueItems();\n  }\n\n  function userOutQueueoffset(address account, uint64 offset, uint64 limit) public view returns (VotePowerQueue.QueueNode[] memory) {\n    return userOutqueues[account].queueItems(offset, limit);\n  }\n\n  function unstakeLen() public view returns (uint256) {\n    return unstakeQueue.end - unstakeQueue.start;\n  }\n\n  function firstUnstakeVotes() public view returns (uint256) {\n    if (unstakeQueue.end == unstakeQueue.start) {\n      return 0;\n    }\n    return unstakeQueue.items[unstakeQueue.start].votes;\n  }\n\n  // ======================== admin methods =====================\n\n  ///\n  /// @notice Enable admin to set the user share ratio\n  /// @dev The ratio base is 10000, only admin can do this\n  /// @param ratio The interest user share ratio (1-10000), default is 9000\n  ///\n  function setPoolUserShareRatio(uint64 ratio) public onlyOwner {\n    require(ratio > 0 && ratio <= RATIO_BASE, \"ratio should be 1-10000\");\n    poolUserShareRatio = ratio;\n    //emit RatioChanged(ratio);\n  }\n\n  /// \n  /// @notice Enable admin to set the lock and unlock period\n  /// @dev Only admin can do this\n  ///\n  function setLockPeriod(uint64 _a,uint64 _b) public onlyOwner {\n    _poolLockPeriod_slow = _a;\n    _poolLockPeriod_fast = _b;\n  }\n\n  /// @param count Vote cfx count, unit is cfx\n  function setCfxCountOfOneVote(uint256 count) public onlyOwner {\n    CFX_COUNT_OF_ONE_VOTE = count;\n    CFX_VALUE_OF_ONE_VOTE = count * 1 ether;\n  }\n\n  function setBridge(address bridgeAddress) public onlyOwner {\n    _bridgeAddress = bridgeAddress;\n    birdgeAddrSetted = true;\n  }\n  function getBridge() public  returns(address){\n    return _bridgeAddress;\n  }\n\n  function setPoolName(string memory name) public onlyOwner {\n    poolName = name;\n  }\n  \n  function handleCrossingVotes(uint256 votePower) public onlyBridge {\n    require(crossingVotes >= votePower, \"crossingVotes should be greater than votePower\");\n    crossingVotes -= votePower;\n  }\n\n  function handleUnstakeTask() public onlyBridge returns (uint256) {\n    UnstakeQueue.Node memory node = unstakeQueue.dequeue();\n    return node.votes;\n  }\n\n  function handleUnlockedIncrease(uint256 votePower) public payable onlyBridge {\n    require(msg.value == votePower * CFX_VALUE_OF_ONE_VOTE, \"msg.value should be votePower * 1000 ether\");\n    //withdrawableCfx += msg.value;\n    //_updatePoolShot();\n  }\n\n  // receive interest\n  function receiveInterest() public payable onlyBridge {}\n\n  fallback() external payable {}\n  receive() external payable {}\n\n}",
  "sourcePath": "C:\\Users\\artii\\Black IDE\\espace\\contracts\\eSpace\\eSpacePoSPoolmini.sol",
  "compiler": {
    "name": "solc",
    "version": "0.8.2+commit.661d1103.Emscripten.clang"
  },
  "schemaVersion": "3.4.3",
  "updatedAt": "2022-07-30T03:09:00.922Z",
  "devdoc": {
    "kind": "dev",
    "methods": {
      "owner()": {
        "details": "Returns the address of the current owner."
      },
      "renounceOwnership()": {
        "details": "Leaves the contract without owner. It will not be possible to call `onlyOwner` functions anymore. Can only be called by the current owner. NOTE: Renouncing ownership will leave the contract without an owner, thereby removing any functionality that is only available to the owner."
      },
      "setCfxCountOfOneVote(uint256)": {
        "params": {
          "count": "Vote cfx count, unit is cfx"
        }
      },
      "setLockPeriod(uint64,uint64)": {
        "details": "Only admin can do this"
      },
      "setPoolUserShareRatio(uint64)": {
        "details": "The ratio base is 10000, only admin can do this",
        "params": {
          "ratio": "The interest user share ratio (1-10000), default is 9000"
        }
      },
      "transferOwnership(address)": {
        "details": "Transfers ownership of the contract to a new account (`newOwner`). Can only be called by the current owner."
      },
      "userSummary(address)": {
        "params": {
          "_user": "The address of user to query"
        },
        "returns": {
          "_0": "User's summary"
        }
      }
    },
    "title": "eSpace PoSPool",
    "version": 1
  },
  "userdoc": {
    "kind": "user",
    "methods": {
      "setLockPeriod(uint64,uint64)": {
        "notice": "Enable admin to set the lock and unlock period"
      },
      "setPoolUserShareRatio(uint64)": {
        "notice": "Enable admin to set the user share ratio"
      },
      "userSummary(address)": {
        "notice": "Get user's pool summary"
      }
    },
    "version": 1
  }
}