{
  "contractName": "Exchangeroom",
  "abi": [
    {
      "anonymous": false,
      "inputs": [
        {
          "indexed": true,
          "internalType": "address",
          "name": "user",
          "type": "address"
        },
        {
          "indexed": false,
          "internalType": "uint256",
          "name": "votePower",
          "type": "uint256"
        }
      ],
      "name": "DecreasePoSStake",
      "type": "event"
    },
    {
      "anonymous": false,
      "inputs": [
        {
          "indexed": true,
          "internalType": "address",
          "name": "user",
          "type": "address"
        },
        {
          "indexed": false,
          "internalType": "uint256",
          "name": "votePower",
          "type": "uint256"
        }
      ],
      "name": "IncreasePoSStake",
      "type": "event"
    },
    {
      "anonymous": false,
      "inputs": [
        {
          "indexed": true,
          "internalType": "address",
          "name": "previousOwner",
          "type": "address"
        },
        {
          "indexed": true,
          "internalType": "address",
          "name": "newOwner",
          "type": "address"
        }
      ],
      "name": "OwnershipTransferred",
      "type": "event"
    },
    {
      "anonymous": false,
      "inputs": [
        {
          "indexed": true,
          "internalType": "address",
          "name": "user",
          "type": "address"
        },
        {
          "indexed": false,
          "internalType": "uint256",
          "name": "votePower",
          "type": "uint256"
        }
      ],
      "name": "WithdrawStake",
      "type": "event"
    },
    {
      "stateMutability": "payable",
      "type": "fallback"
    },
    {
      "inputs": [],
      "name": "_poolLockPeriod_fast",
      "outputs": [
        {
          "internalType": "uint256",
          "name": "",
          "type": "uint256"
        }
      ],
      "stateMutability": "view",
      "type": "function"
    },
    {
      "inputs": [],
      "name": "_poolLockPeriod_slow",
      "outputs": [
        {
          "internalType": "uint256",
          "name": "",
          "type": "uint256"
        }
      ],
      "stateMutability": "view",
      "type": "function"
    },
    {
      "inputs": [],
      "name": "birdgeAddrSetted",
      "outputs": [
        {
          "internalType": "bool",
          "name": "",
          "type": "bool"
        }
      ],
      "stateMutability": "view",
      "type": "function"
    },
    {
      "inputs": [],
      "name": "owner",
      "outputs": [
        {
          "internalType": "address",
          "name": "",
          "type": "address"
        }
      ],
      "stateMutability": "view",
      "type": "function"
    },
    {
      "inputs": [],
      "name": "renounceOwnership",
      "outputs": [],
      "stateMutability": "nonpayable",
      "type": "function"
    },
    {
      "inputs": [
        {
          "internalType": "address",
          "name": "newOwner",
          "type": "address"
        }
      ],
      "name": "transferOwnership",
      "outputs": [],
      "stateMutability": "nonpayable",
      "type": "function"
    },
    {
      "inputs": [],
      "name": "unstakeQueue",
      "outputs": [
        {
          "internalType": "uint256",
          "name": "start",
          "type": "uint256"
        },
        {
          "internalType": "uint256",
          "name": "end",
          "type": "uint256"
        }
      ],
      "stateMutability": "view",
      "type": "function"
    },
    {
      "stateMutability": "payable",
      "type": "receive"
    },
    {
      "inputs": [
        {
          "internalType": "address",
          "name": "_XCFXaddress",
          "type": "address"
        },
        {
          "internalType": "uint256",
          "name": "xCFXamountInit",
          "type": "uint256"
        }
      ],
      "name": "initialize",
      "outputs": [],
      "stateMutability": "payable",
      "type": "function"
    },
    {
      "inputs": [
        {
          "internalType": "uint256",
          "name": "_amount",
          "type": "uint256"
        }
      ],
      "name": "CFX_exchange_estim",
      "outputs": [
        {
          "internalType": "uint256",
          "name": "",
          "type": "uint256"
        }
      ],
      "stateMutability": "view",
      "type": "function"
    },
    {
      "inputs": [],
      "name": "CFX_exchange_XCFX",
      "outputs": [
        {
          "internalType": "uint256",
          "name": "",
          "type": "uint256"
        }
      ],
      "stateMutability": "payable",
      "type": "function"
    },
    {
      "inputs": [
        {
          "internalType": "uint256",
          "name": "_amount",
          "type": "uint256"
        }
      ],
      "name": "XCFX_burn_estim",
      "outputs": [
        {
          "internalType": "uint256",
          "name": "",
          "type": "uint256"
        }
      ],
      "stateMutability": "view",
      "type": "function"
    },
    {
      "inputs": [
        {
          "internalType": "uint256",
          "name": "_amount",
          "type": "uint256"
        }
      ],
      "name": "XCFX_burn",
      "outputs": [
        {
          "internalType": "uint256",
          "name": "",
          "type": "uint256"
        },
        {
          "internalType": "uint256",
          "name": "",
          "type": "uint256"
        }
      ],
      "stateMutability": "nonpayable",
      "type": "function"
    },
    {
      "inputs": [
        {
          "internalType": "uint256",
          "name": "_amount",
          "type": "uint256"
        }
      ],
      "name": "getback_CFX",
      "outputs": [],
      "stateMutability": "nonpayable",
      "type": "function"
    },
    {
      "inputs": [
        {
          "internalType": "address",
          "name": "_user",
          "type": "address"
        }
      ],
      "name": "userSummary",
      "outputs": [
        {
          "components": [
            {
              "internalType": "uint256",
              "name": "unlocking",
              "type": "uint256"
            },
            {
              "internalType": "uint256",
              "name": "unlocked",
              "type": "uint256"
            }
          ],
          "internalType": "struct Exchangeroom.UserSummary",
          "name": "",
          "type": "tuple"
        }
      ],
      "stateMutability": "view",
      "type": "function"
    },
    {
      "inputs": [],
      "name": "Summary",
      "outputs": [
        {
          "components": [
            {
              "internalType": "uint256",
              "name": "totalxcfxs",
              "type": "uint256"
            },
            {
              "internalType": "uint256",
              "name": "xcfxvalues",
              "type": "uint256"
            },
            {
              "internalType": "uint256",
              "name": "alloflockedvotes",
              "type": "uint256"
            },
            {
              "internalType": "uint256",
              "name": "xCFXincrease",
              "type": "uint256"
            },
            {
              "internalType": "uint256",
              "name": "unlockingCFX",
              "type": "uint256"
            }
          ],
          "internalType": "struct Exchangeroom.ExchangeSummary",
          "name": "",
          "type": "tuple"
        }
      ],
      "stateMutability": "view",
      "type": "function"
    },
    {
      "inputs": [
        {
          "internalType": "address",
          "name": "account",
          "type": "address"
        }
      ],
      "name": "userOutQueue",
      "outputs": [
        {
          "components": [
            {
              "internalType": "uint256",
              "name": "votePower",
              "type": "uint256"
            },
            {
              "internalType": "uint256",
              "name": "endBlock",
              "type": "uint256"
            }
          ],
          "internalType": "struct VotePowerQueue.QueueNode[]",
          "name": "",
          "type": "tuple[]"
        }
      ],
      "stateMutability": "view",
      "type": "function"
    },
    {
      "inputs": [],
      "name": "getBridge",
      "outputs": [
        {
          "internalType": "address",
          "name": "",
          "type": "address"
        }
      ],
      "stateMutability": "view",
      "type": "function"
    },
    {
      "inputs": [
        {
          "internalType": "uint64",
          "name": "_slow",
          "type": "uint64"
        },
        {
          "internalType": "uint64",
          "name": "_fast",
          "type": "uint64"
        }
      ],
      "name": "_setLockPeriod",
      "outputs": [],
      "stateMutability": "nonpayable",
      "type": "function"
    },
    {
      "inputs": [
        {
          "internalType": "uint256",
          "name": "_min",
          "type": "uint256"
        }
      ],
      "name": "_setminexchangelimits",
      "outputs": [],
      "stateMutability": "nonpayable",
      "type": "function"
    },
    {
      "inputs": [
        {
          "internalType": "string",
          "name": "name",
          "type": "string"
        }
      ],
      "name": "_setPoolName",
      "outputs": [],
      "stateMutability": "nonpayable",
      "type": "function"
    },
    {
      "inputs": [
        {
          "internalType": "address",
          "name": "bridgeAddress",
          "type": "address"
        }
      ],
      "name": "_setBridge",
      "outputs": [],
      "stateMutability": "nonpayable",
      "type": "function"
    },
    {
      "inputs": [
        {
          "internalType": "address",
          "name": "_addr",
          "type": "address"
        }
      ],
      "name": "_setCoreExchange",
      "outputs": [],
      "stateMutability": "nonpayable",
      "type": "function"
    },
    {
      "inputs": [
        {
          "internalType": "address",
          "name": "_S_addr",
          "type": "address"
        }
      ],
      "name": "_setStorageaddr",
      "outputs": [],
      "stateMutability": "nonpayable",
      "type": "function"
    },
    {
      "inputs": [
        {
          "internalType": "address",
          "name": "_XCFX_addr",
          "type": "address"
        }
      ],
      "name": "_setXCFXaddr",
      "outputs": [],
      "stateMutability": "nonpayable",
      "type": "function"
    },
    {
      "inputs": [],
      "name": "getSettings",
      "outputs": [
        {
          "internalType": "string",
          "name": "name",
          "type": "string"
        },
        {
          "internalType": "address",
          "name": "",
          "type": "address"
        },
        {
          "internalType": "address",
          "name": "",
          "type": "address"
        },
        {
          "internalType": "address",
          "name": "",
          "type": "address"
        },
        {
          "internalType": "address",
          "name": "",
          "type": "address"
        }
      ],
      "stateMutability": "view",
      "type": "function"
    },
    {
      "inputs": [],
      "name": "handleCFXexchangeXCFX",
      "outputs": [
        {
          "internalType": "uint256",
          "name": "",
          "type": "uint256"
        }
      ],
      "stateMutability": "payable",
      "type": "function"
    },
    {
      "inputs": [],
      "name": "handlexCFXadd",
      "outputs": [
        {
          "internalType": "uint256",
          "name": "",
          "type": "uint256"
        }
      ],
      "stateMutability": "nonpayable",
      "type": "function"
    },
    {
      "inputs": [],
      "name": "handleUnstake",
      "outputs": [
        {
          "internalType": "uint256",
          "name": "",
          "type": "uint256"
        }
      ],
      "stateMutability": "nonpayable",
      "type": "function"
    },
    {
      "inputs": [],
      "name": "handleAllUnstakeTask",
      "outputs": [],
      "stateMutability": "nonpayable",
      "type": "function"
    },
    {
      "inputs": [],
      "name": "unstakeLen",
      "outputs": [
        {
          "internalType": "uint256",
          "name": "",
          "type": "uint256"
        }
      ],
      "stateMutability": "view",
      "type": "function"
    },
    {
      "inputs": [
        {
          "internalType": "uint256",
          "name": "_cfxvalue",
          "type": "uint256"
        }
      ],
      "name": "setxCFXValue",
      "outputs": [
        {
          "internalType": "uint256",
          "name": "",
          "type": "uint256"
        }
      ],
      "stateMutability": "nonpayable",
      "type": "function"
    },
    {
      "inputs": [
        {
          "internalType": "uint256",
          "name": "_lockedvotes",
          "type": "uint256"
        }
      ],
      "name": "setlockedvotes",
      "outputs": [
        {
          "internalType": "uint256",
          "name": "",
          "type": "uint256"
        }
      ],
      "stateMutability": "nonpayable",
      "type": "function"
    },
    {
      "inputs": [
        {
          "internalType": "address",
          "name": "_addr",
          "type": "address"
        }
      ],
      "name": "espacebalanceof",
      "outputs": [
        {
          "internalType": "uint256",
          "name": "",
          "type": "uint256"
        }
      ],
      "stateMutability": "view",
      "type": "function"
    }
  ],
  "bytecode": "0x6080604052600f6201518062000016919062000170565b6006556002620151806200002b919062000170565b6007556000600a60006101000a81548173ffffffffffffffffffffffffffffffffffffffff021916908373ffffffffffffffffffffffffffffffffffffffff1602179055503480156200007d57600080fd5b506200009e62000092620000a460201b60201c565b620000ac60201b60201c565b6200020a565b600033905090565b60008060009054906101000a900473ffffffffffffffffffffffffffffffffffffffff169050816000806101000a81548173ffffffffffffffffffffffffffffffffffffffff021916908373ffffffffffffffffffffffffffffffffffffffff1602179055508173ffffffffffffffffffffffffffffffffffffffff168173ffffffffffffffffffffffffffffffffffffffff167f8be0079c531659141344cd1fd0a4f28419497f9722a3daafe3b4186f6b6457e060405160405180910390a35050565b60006200017d82620001d1565b91506200018a83620001d1565b9250817fffffffffffffffffffffffffffffffffffffffffffffffffffffffffffffffff0483118215151615620001c657620001c5620001db565b5b828202905092915050565b6000819050919050565b7f4e487b7100000000000000000000000000000000000000000000000000000000600052601160045260246000fd5b6140cf806200021a6000396000f3fe6080604052600436106101f25760003560e01c806384c07b5d1161010d578063c134e965116100a0578063da02d1001161006f578063da02d100146106e8578063db51ffe414610713578063e3d5b2331461073c578063ea8503d714610779578063f2fde38b14610790576101f9565b8063c134e96514610658578063c7ff5d6e14610683578063c9d1e7f6146106ae578063cd6dc687146106cc576101f9565b80638d597859116100dc5780638d597859146105b05780638da5cb5b146105db578063934553b514610606578063bdb543ae1461062f576101f9565b806384c07b5d146104f057806385b4bb531461052d578063883ce8ed1461055c5780638d29422514610585576101f9565b806336c52949116101855780636283c50b116101545780636283c50b1461046757806366f355db1461049257806368eca7f9146104bb578063715018a6146104d9576101f9565b806336c52949146103ab57806347108abc146103d45780634a990ba9146104125780634d147dbe1461043e576101f9565b80630fffbaf3116101c15780630fffbaf3146102c95780631864ec44146102f457806321e2f5331461033157806324a3bbe21461036e576101f9565b8063048e1dcc146101fb5780630ddf0ef1146102385780630e08e702146102755780630fc855a3146102a0576101f9565b366101f957005b005b34801561020757600080fd5b50610222600480360381019061021d91906131c3565b6107b9565b60405161022f9190613963565b60405180910390f35b34801561024457600080fd5b5061025f600480360381019061025a9190613269565b6107da565b60405161026c9190613963565b60405180910390f35b34801561028157600080fd5b5061028a610815565b6040516102979190613963565b60405180910390f35b3480156102ac57600080fd5b506102c760048036038101906102c291906131c3565b61092f565b005b3480156102d557600080fd5b506102de6109ef565b6040516102eb9190613692565b60405180910390f35b34801561030057600080fd5b5061031b60048036038101906103169190613269565b610a19565b6040516103289190613963565b60405180910390f35b34801561033d57600080fd5b5061035860048036038101906103539190613269565b610b1a565b6040516103659190613963565b60405180910390f35b34801561037a57600080fd5b50610395600480360381019061039091906131c3565b610c1b565b6040516103a291906136d6565b60405180910390f35b3480156103b757600080fd5b506103d260048036038101906103cd9190613228565b610c6b565b005b3480156103e057600080fd5b506103fb60048036038101906103f69190613269565b610d01565b60405161040992919061397e565b60405180910390f35b34801561041e57600080fd5b5061042761137a565b60405161043592919061397e565b60405180910390f35b34801561044a57600080fd5b50610465600480360381019061046091906131c3565b61138c565b005b34801561047357600080fd5b5061047c61144c565b60405161048991906136f8565b60405180910390f35b34801561049e57600080fd5b506104b960048036038101906104b49190613269565b61145f565b005b6104c36114ba565b6040516104d09190613963565b60405180910390f35b3480156104e557600080fd5b506104ee611742565b005b3480156104fc57600080fd5b5061051760048036038101906105129190613269565b6117ca565b6040516105249190613963565b60405180910390f35b34801561053957600080fd5b50610542611805565b604051610553959493929190613713565b60405180910390f35b34801561056857600080fd5b50610583600480360381019061057e9190613269565b611938565b005b34801561059157600080fd5b5061059a6119be565b6040516105a7919061392d565b60405180910390f35b3480156105bc57600080fd5b506105c5611a0a565b6040516105d29190613963565b60405180910390f35b3480156105e757600080fd5b506105f0611a10565b6040516105fd9190613692565b60405180910390f35b34801561061257600080fd5b5061062d600480360381019061062891906131c3565b611a39565b005b34801561063b57600080fd5b50610656600480360381019061065191906131c3565b611af9565b005b34801561066457600080fd5b5061066d611bd4565b60405161067a9190613963565b60405180910390f35b34801561068f57600080fd5b50610698611bda565b6040516106a59190613963565b60405180910390f35b6106b6611bf7565b6040516106c39190613963565b60405180910390f35b6106e660048036038101906106e191906131ec565b611fa9565b005b3480156106f457600080fd5b506106fd612288565b60405161070a9190613963565b60405180910390f35b34801561071f57600080fd5b5061073a600480360381019061073591906132bb565b61239c565b005b34801561074857600080fd5b50610763600480360381019061075e91906131c3565b61243e565b6040516107709190613948565b60405180910390f35b34801561078557600080fd5b5061078e61252f565b005b34801561079c57600080fd5b506107b760048036038101906107b291906131c3565b61264a565b005b60008173ffffffffffffffffffffffffffffffffffffffff16319050919050565b600061080e600b60010154610800670de0b6b3a76400008561274290919063ffffffff16565b61275890919063ffffffff16565b9050919050565b6000600260019054906101000a900473ffffffffffffffffffffffffffffffffffffffff1673ffffffffffffffffffffffffffffffffffffffff163373ffffffffffffffffffffffffffffffffffffffff1614806108c05750600360009054906101000a900473ffffffffffffffffffffffffffffffffffffffff1673ffffffffffffffffffffffffffffffffffffffff163373ffffffffffffffffffffffffffffffffffffffff16145b6108ff576040517f08c379a00000000000000000000000000000000000000000000000000000000081526004016108f6906138ed565b60405180910390fd5b6000600b600301549050600081141561091c57600091505061092c565b6000600b60030181905550809150505b90565b61093761276e565b73ffffffffffffffffffffffffffffffffffffffff16610955611a10565b73ffffffffffffffffffffffffffffffffffffffff16146109ab576040517f08c379a00000000000000000000000000000000000000000000000000000000081526004016109a29061388d565b60405180910390fd5b80600860006101000a81548173ffffffffffffffffffffffffffffffffffffffff021916908373ffffffffffffffffffffffffffffffffffffffff16021790555050565b6000600260019054906101000a900473ffffffffffffffffffffffffffffffffffffffff16905090565b6000600260019054906101000a900473ffffffffffffffffffffffffffffffffffffffff1673ffffffffffffffffffffffffffffffffffffffff163373ffffffffffffffffffffffffffffffffffffffff161480610ac45750600360009054906101000a900473ffffffffffffffffffffffffffffffffffffffff1673ffffffffffffffffffffffffffffffffffffffff163373ffffffffffffffffffffffffffffffffffffffff16145b610b03576040517f08c379a0000000000000000000000000000000000000000000000000000000008152600401610afa906138ed565b60405180910390fd5b81600b60020181905550600b600201549050919050565b6000600260019054906101000a900473ffffffffffffffffffffffffffffffffffffffff1673ffffffffffffffffffffffffffffffffffffffff163373ffffffffffffffffffffffffffffffffffffffff161480610bc55750600360009054906101000a900473ffffffffffffffffffffffffffffffffffffffff1673ffffffffffffffffffffffffffffffffffffffff163373ffffffffffffffffffffffffffffffffffffffff16145b610c04576040517f08c379a0000000000000000000000000000000000000000000000000000000008152600401610bfb906138ed565b60405180910390fd5b81600b60010181905550600b600101549050919050565b6060610c64601760008473ffffffffffffffffffffffffffffffffffffffff1673ffffffffffffffffffffffffffffffffffffffff168152602001908152602001600020612776565b9050919050565b610c7361276e565b73ffffffffffffffffffffffffffffffffffffffff16610c91611a10565b73ffffffffffffffffffffffffffffffffffffffff1614610ce7576040517f08c379a0000000000000000000000000000000000000000000000000000000008152600401610cde9061388d565b60405180910390fd5b8060019080519060200190610cfd929190612fee565b5050565b600080600260009054906101000a900460ff16610d53576040517f08c379a0000000000000000000000000000000000000000000000000000000008152600401610d4a9061382d565b60405180910390fd5b600454831015610d98576040517f08c379a0000000000000000000000000000000000000000000000000000000008152600401610d8f9061390d565b60405180910390fd5b600860009054906101000a900473ffffffffffffffffffffffffffffffffffffffff1673ffffffffffffffffffffffffffffffffffffffff166370a08231336040518263ffffffff1660e01b8152600401610df39190613692565b60206040518083038186803b158015610e0b57600080fd5b505afa158015610e1f573d6000803e3d6000fd5b505050506040513d601f19601f82011682018060405250810190610e439190613292565b831115610e85576040517f08c379a0000000000000000000000000000000000000000000000000000000008152600401610e7c9061380d565b60405180910390fd5b600860009054906101000a900473ffffffffffffffffffffffffffffffffffffffff1673ffffffffffffffffffffffffffffffffffffffff166318160ddd6040518163ffffffff1660e01b815260040160206040518083038186803b158015610eed57600080fd5b505afa158015610f01573d6000803e3d6000fd5b505050506040513d601f19601f82011682018060405250810190610f259190613292565b600b60000181905550600080610f3a856117ca565b9050610f5d683635c9adc5dea00000600b6002015461274290919063ffffffff16565b8111610f6c5760019150610fb9565b600b60000154851115610fb4576040517f08c379a0000000000000000000000000000000000000000000000000000000008152600401610fab906138ad565b60405180910390fd5b600091505b84600b6000016000828254610fce9190613b33565b9250508190555080600b6004016000828254610fea9190613a52565b9250508190555061101360405180602001604052808381525060146128c390919063ffffffff16565b600860009054906101000a900473ffffffffffffffffffffffffffffffffffffffff1673ffffffffffffffffffffffffffffffffffffffff16630d1118ce33876040518363ffffffff1660e01b81526004016110709291906136ad565b600060405180830381600087803b15801561108a57600080fd5b505af115801561109e573d6000803e3d6000fd5b505050503373ffffffffffffffffffffffffffffffffffffffff167fd81524ca5b038be9f98b286808a6f46f99c8700bce9ab4793dc12a2dbaa4f2d8866040516110e89190613963565b60405180910390a2600182141561117d576111726040518060400160405280838152602001600754611118612902565b6111229190613a52565b815250601760003373ffffffffffffffffffffffffffffffffffffffff1673ffffffffffffffffffffffffffffffffffffffff16815260200190815260200160002061290a90919063ffffffff16565b62018af594506111fd565b6111f6604051806040016040528083815260200160065461119c612902565b6111a69190613a52565b815250601760003373ffffffffffffffffffffffffffffffffffffffff1673ffffffffffffffffffffffffffffffffffffffff16815260200190815260200160002061290a90919063ffffffff16565b620186a194505b80601060003373ffffffffffffffffffffffffffffffffffffffff1673ffffffffffffffffffffffffffffffffffffffff168152602001908152602001600020600001600082825461124f9190613a52565b92505081905550600061129f601760003373ffffffffffffffffffffffffffffffffffffffff1673ffffffffffffffffffffffffffffffffffffffff168152602001908152602001600020612953565b905080601060003373ffffffffffffffffffffffffffffffffffffffff1673ffffffffffffffffffffffffffffffffffffffff16815260200190815260200160002060010160008282546112f39190613a52565b9250508190555080601060003373ffffffffffffffffffffffffffffffffffffffff1673ffffffffffffffffffffffffffffffffffffffff168152602001908152602001600020600001600082825461134c9190613b33565b9250508190555081600560008282546113659190613a52565b92505081905550818694509450505050915091565b60148060000154908060010154905082565b61139461276e565b73ffffffffffffffffffffffffffffffffffffffff166113b2611a10565b73ffffffffffffffffffffffffffffffffffffffff1614611408576040517f08c379a00000000000000000000000000000000000000000000000000000000081526004016113ff9061388d565b60405180910390fd5b80600960006101000a81548173ffffffffffffffffffffffffffffffffffffffff021916908373ffffffffffffffffffffffffffffffffffffffff16021790555050565b600260009054906101000a900460ff1681565b600260009054906101000a900460ff166114ae576040517f08c379a00000000000000000000000000000000000000000000000000000000081526004016114a59061382d565b60405180910390fd5b6114b7816129e4565b50565b6000600454341015611501576040517f08c379a00000000000000000000000000000000000000000000000000000000081526004016114f8906137ad565b60405180910390fd5b600860009054906101000a900473ffffffffffffffffffffffffffffffffffffffff1673ffffffffffffffffffffffffffffffffffffffff166318160ddd6040518163ffffffff1660e01b815260040160206040518083038186803b15801561156957600080fd5b505afa15801561157d573d6000803e3d6000fd5b505050506040513d601f19601f820116820180604052508101906115a19190613292565b600b600001819055506000600260019054906101000a900473ffffffffffffffffffffffffffffffffffffffff1690508073ffffffffffffffffffffffffffffffffffffffff166108fc349081150290604051600060405180830381858888f19350505050158015611617573d6000803e3d6000fd5b506000611623346107da565b9050600860009054906101000a900473ffffffffffffffffffffffffffffffffffffffff1673ffffffffffffffffffffffffffffffffffffffff16636039fbdb33836040518363ffffffff1660e01b81526004016116829291906136ad565b600060405180830381600087803b15801561169c57600080fd5b505af11580156116b0573d6000803e3d6000fd5b5050505080600b60000160008282546116c99190613a52565b9250508190555080600b60030160008282546116e59190613a52565b925050819055503373ffffffffffffffffffffffffffffffffffffffff167ff5ebfcde71acb15a758233f0c9ab25632209399b90a9209a4f2379ec5fcee89f346040516117329190613963565b60405180910390a2809250505090565b61174a61276e565b73ffffffffffffffffffffffffffffffffffffffff16611768611a10565b73ffffffffffffffffffffffffffffffffffffffff16146117be576040517f08c379a00000000000000000000000000000000000000000000000000000000081526004016117b59061388d565b60405180910390fd5b6117c86000612d0c565b565b60006117fe670de0b6b3a76400006117f0600b600101548561274290919063ffffffff16565b61275890919063ffffffff16565b9050919050565b60606000806000806001600260019054906101000a900473ffffffffffffffffffffffffffffffffffffffff16600360009054906101000a900473ffffffffffffffffffffffffffffffffffffffff16600960009054906101000a900473ffffffffffffffffffffffffffffffffffffffff16600860009054906101000a900473ffffffffffffffffffffffffffffffffffffffff168480546118a790613c05565b80601f01602080910402602001604051908101604052809291908181526020018280546118d390613c05565b80156119205780601f106118f557610100808354040283529160200191611920565b820191906000526020600020905b81548152906001019060200180831161190357829003601f168201915b50505050509450945094509450945094509091929394565b61194061276e565b73ffffffffffffffffffffffffffffffffffffffff1661195e611a10565b73ffffffffffffffffffffffffffffffffffffffff16146119b4576040517f08c379a00000000000000000000000000000000000000000000000000000000081526004016119ab9061388d565b60405180910390fd5b8060048190555050565b6119c6613074565b600b6040518060a001604052908160008201548152602001600182015481526020016002820154815260200160038201548152602001600482015481525050905090565b60075481565b60008060009054906101000a900473ffffffffffffffffffffffffffffffffffffffff16905090565b611a4161276e565b73ffffffffffffffffffffffffffffffffffffffff16611a5f611a10565b73ffffffffffffffffffffffffffffffffffffffff1614611ab5576040517f08c379a0000000000000000000000000000000000000000000000000000000008152600401611aac9061388d565b60405180910390fd5b80600360006101000a81548173ffffffffffffffffffffffffffffffffffffffff021916908373ffffffffffffffffffffffffffffffffffffffff16021790555050565b611b0161276e565b73ffffffffffffffffffffffffffffffffffffffff16611b1f611a10565b73ffffffffffffffffffffffffffffffffffffffff1614611b75576040517f08c379a0000000000000000000000000000000000000000000000000000000008152600401611b6c9061388d565b60405180910390fd5b80600260016101000a81548173ffffffffffffffffffffffffffffffffffffffff021916908373ffffffffffffffffffffffffffffffffffffffff1602179055506001600260006101000a81548160ff02191690831515021790555050565b60065481565b6000601460000154601460010154611bf29190613b33565b905090565b6000600260019054906101000a900473ffffffffffffffffffffffffffffffffffffffff1673ffffffffffffffffffffffffffffffffffffffff163373ffffffffffffffffffffffffffffffffffffffff161480611ca25750600360009054906101000a900473ffffffffffffffffffffffffffffffffffffffff1673ffffffffffffffffffffffffffffffffffffffff163373ffffffffffffffffffffffffffffffffffffffff16145b611ce1576040517f08c379a0000000000000000000000000000000000000000000000000000000008152600401611cd8906138ed565b60405180910390fd5b60003411611d24576040517f08c379a0000000000000000000000000000000000000000000000000000000008152600401611d1b906138cd565b60405180910390fd5b600860009054906101000a900473ffffffffffffffffffffffffffffffffffffffff1673ffffffffffffffffffffffffffffffffffffffff166318160ddd6040518163ffffffff1660e01b815260040160206040518083038186803b158015611d8c57600080fd5b505afa158015611da0573d6000803e3d6000fd5b505050506040513d601f19601f82011682018060405250810190611dc49190613292565b600b600001819055506000600260019054906101000a900473ffffffffffffffffffffffffffffffffffffffff1690508073ffffffffffffffffffffffffffffffffffffffff166108fc349081150290604051600060405180830381858888f19350505050158015611e3a573d6000803e3d6000fd5b506000611e46346107da565b9050600860009054906101000a900473ffffffffffffffffffffffffffffffffffffffff1673ffffffffffffffffffffffffffffffffffffffff16636039fbdb600960009054906101000a900473ffffffffffffffffffffffffffffffffffffffff16836040518363ffffffff1660e01b8152600401611ec79291906136ad565b600060405180830381600087803b158015611ee157600080fd5b505af1158015611ef5573d6000803e3d6000fd5b5050505080600b6000016000828254611f0e9190613a52565b9250508190555080600b6003016000828254611f2a9190613a52565b92505081905550600960009054906101000a900473ffffffffffffffffffffffffffffffffffffffff1673ffffffffffffffffffffffffffffffffffffffff167ff5ebfcde71acb15a758233f0c9ab25632209399b90a9209a4f2379ec5fcee89f34604051611f999190613963565b60405180910390a2809250505090565b600060159054906101000a900460ff1680611fd15750600060149054906101000a900460ff16155b612010576040517f08c379a00000000000000000000000000000000000000000000000000000000081526004016120079061386d565b60405180910390fd5b60008060159054906101000a900460ff161590508015612061576001600060156101000a81548160ff0219169083151502179055506001600060146101000a81548160ff0219169083151502179055505b3482146120a3576040517f08c379a000000000000000000000000000000000000000000000000000000000815260040161209a9061384d565b60405180910390fd5b6000600a60006101000a81548173ffffffffffffffffffffffffffffffffffffffff021916908373ffffffffffffffffffffffffffffffffffffffff1602179055506040518060400160405280601281526020017f554e434c454f4e2048554220655370616365000000000000000000000000000081525060019080519060200190612130929190612fee565b50670de0b6b3a7640000600481905550670de0b6b3a7640000600b60010181905550600f620151806121629190613ad9565b6006819055506002620151806121789190613ad9565b60078190555082600860006101000a81548173ffffffffffffffffffffffffffffffffffffffff021916908373ffffffffffffffffffffffffffffffffffffffff160217905550600860009054906101000a900473ffffffffffffffffffffffffffffffffffffffff1673ffffffffffffffffffffffffffffffffffffffff16636039fbdb33846040518363ffffffff1660e01b815260040161221c9291906136ad565b600060405180830381600087803b15801561223657600080fd5b505af115801561224a573d6000803e3d6000fd5b5050505081600b6000018190555081600b6003018190555080156122835760008060156101000a81548160ff0219169083151502179055505b505050565b6000600260019054906101000a900473ffffffffffffffffffffffffffffffffffffffff1673ffffffffffffffffffffffffffffffffffffffff163373ffffffffffffffffffffffffffffffffffffffff1614806123335750600360009054906101000a900473ffffffffffffffffffffffffffffffffffffffff1673ffffffffffffffffffffffffffffffffffffffff163373ffffffffffffffffffffffffffffffffffffffff16145b612372576040517f08c379a0000000000000000000000000000000000000000000000000000000008152600401612369906138ed565b60405180910390fd5b60006005549050600081141561238c576000915050612399565b6000600581905550809150505b90565b6123a461276e565b73ffffffffffffffffffffffffffffffffffffffff166123c2611a10565b73ffffffffffffffffffffffffffffffffffffffff1614612418576040517f08c379a000000000000000000000000000000000000000000000000000000000815260040161240f9061388d565b60405180910390fd5b8167ffffffffffffffff166006819055508067ffffffffffffffff166007819055505050565b6124466130a3565b6000601060008473ffffffffffffffffffffffffffffffffffffffff1673ffffffffffffffffffffffffffffffffffffffff16815260200190815260200160002060405180604001604052908160008201548152602001600182015481525050905060006124f1601760008673ffffffffffffffffffffffffffffffffffffffff1673ffffffffffffffffffffffffffffffffffffffff168152602001908152602001600020612dd0565b905080826020018181516125059190613a52565b91508181525050808260000181815161251e9190613b33565b915081815250508192505050919050565b600260019054906101000a900473ffffffffffffffffffffffffffffffffffffffff1673ffffffffffffffffffffffffffffffffffffffff163373ffffffffffffffffffffffffffffffffffffffff1614806125d85750600360009054906101000a900473ffffffffffffffffffffffffffffffffffffffff1673ffffffffffffffffffffffffffffffffffffffff163373ffffffffffffffffffffffffffffffffffffffff16145b612617576040517f08c379a000000000000000000000000000000000000000000000000000000000815260040161260e906138ed565b60405180910390fd5b60005b612622611bda565b811015612647576126336014612e56565b50808061263f90613c68565b91505061261a565b50565b61265261276e565b73ffffffffffffffffffffffffffffffffffffffff16612670611a10565b73ffffffffffffffffffffffffffffffffffffffff16146126c6576040517f08c379a00000000000000000000000000000000000000000000000000000000081526004016126bd9061388d565b60405180910390fd5b600073ffffffffffffffffffffffffffffffffffffffff168173ffffffffffffffffffffffffffffffffffffffff161415612736576040517f08c379a000000000000000000000000000000000000000000000000000000000815260040161272d906137cd565b60405180910390fd5b61273f81612d0c565b50565b600081836127509190613ad9565b905092915050565b600081836127669190613aa8565b905092915050565b600033905090565b606060008260000154836001015461278e9190613b33565b67ffffffffffffffff8111156127cd577f4e487b7100000000000000000000000000000000000000000000000000000000600052604160045260246000fd5b60405190808252806020026020018201604052801561280657816020015b6127f36130bd565b8152602001906001900390816127eb5790505b5090506000836000015490505b83600101548110156128b95783600201600082815260200190815260200160002060405180604001604052908160008201548152602001600182015481525050828560000154836128649190613b33565b8151811061289b577f4e487b7100000000000000000000000000000000000000000000000000000000600052603260045260246000fd5b602002602001018190525080806128b190613c68565b915050612813565b5080915050919050565b808260020160008460010160008154809291906128df90613c68565b919050558152602001908152602001600020600082015181600001559050505050565b600043905090565b8082600201600084600101600081548092919061292690613c68565b91905055815260200190815260200160002060008201518160000155602082015181600101559050505050565b600080600090506000836000015490505b83600101548110156129da5743846002016000838152602001908152602001600020600101541115612995576129c7565b83600201600082815260200190815260200160002060000154826129b99190613a52565b91506129c58482612f1b565b505b80806129d290613c68565b915050612964565b5080915050919050565b600260009054906101000a900460ff16612a33576040517f08c379a0000000000000000000000000000000000000000000000000000000008152600401612a2a9061382d565b60405180910390fd5b80471015612a76576040517f08c379a0000000000000000000000000000000000000000000000000000000008152600401612a6d906137ed565b60405180910390fd5b6000612abf601760003373ffffffffffffffffffffffffffffffffffffffff1673ffffffffffffffffffffffffffffffffffffffff168152602001908152602001600020612953565b905080601060003373ffffffffffffffffffffffffffffffffffffffff1673ffffffffffffffffffffffffffffffffffffffff1681526020019081526020016000206001016000828254612b139190613a52565b9250508190555080601060003373ffffffffffffffffffffffffffffffffffffffff1673ffffffffffffffffffffffffffffffffffffffff1681526020019081526020016000206000016000828254612b6c9190613b33565b9250508190555081600b6004016000828254612b889190613b33565b9250508190555081601060003373ffffffffffffffffffffffffffffffffffffffff1673ffffffffffffffffffffffffffffffffffffffff168152602001908152602001600020600101541015612c14576040517f08c379a0000000000000000000000000000000000000000000000000000000008152600401612c0b9061378d565b60405180910390fd5b81601060003373ffffffffffffffffffffffffffffffffffffffff1673ffffffffffffffffffffffffffffffffffffffff1681526020019081526020016000206001016000828254612c669190613b33565b9250508190555060003390508073ffffffffffffffffffffffffffffffffffffffff166108fc849081150290604051600060405180830381858888f19350505050158015612cb8573d6000803e3d6000fd5b503373ffffffffffffffffffffffffffffffffffffffff167f141ef67c4a6d3ec2adfb2f66d33c2b11de5b4f34344757554d430570b18a92ec84604051612cff9190613963565b60405180910390a2505050565b60008060009054906101000a900473ffffffffffffffffffffffffffffffffffffffff169050816000806101000a81548173ffffffffffffffffffffffffffffffffffffffff021916908373ffffffffffffffffffffffffffffffffffffffff1602179055508173ffffffffffffffffffffffffffffffffffffffff168173ffffffffffffffffffffffffffffffffffffffff167f8be0079c531659141344cd1fd0a4f28419497f9722a3daafe3b4186f6b6457e060405160405180910390a35050565b600080600090506000836000015490505b8360010154811015612e4c5743846002016000838152602001908152602001600020600101541115612e1257612e39565b8360020160008281526020019081526020016000206000015482612e369190613a52565b91505b8080612e4490613c68565b915050612de1565b5080915050919050565b612e5e6130d7565b8160010154826000015410612ea8576040517f08c379a0000000000000000000000000000000000000000000000000000000008152600401612e9f9061376d565b60405180910390fd5b6000826002016000846000015481526020019081526020016000206040518060200160405290816000820154815250509050826002016000846000016000815480929190612ef590613c68565b919050558152602001908152602001600020600080820160009055505080915050919050565b612f236130bd565b600083600201600085600001548152602001908152602001600020604051806040016040529081600082015481526020016001820154815250509050836002016000856000015481526020019081526020016000208460020160008581526020019081526020016000206000820154816000015560018201548160010155905050836002016000856000016000815480929190612fbf90613c68565b919050558152602001908152602001600020600080820160009055600182016000905550508091505092915050565b828054612ffa90613c05565b90600052602060002090601f01602090048101928261301c5760008555613063565b82601f1061303557805160ff1916838001178555613063565b82800160010185558215613063579182015b82811115613062578251825591602001919060010190613047565b5b50905061307091906130ea565b5090565b6040518060a0016040528060008152602001600081526020016000815260200160008152602001600081525090565b604051806040016040528060008152602001600081525090565b604051806040016040528060008152602001600081525090565b6040518060200160405280600081525090565b5b808211156131035760008160009055506001016130eb565b5090565b600061311a613115846139cc565b6139a7565b90508281526020810184848401111561313257600080fd5b61313d848285613bc3565b509392505050565b60008135905061315481614054565b92915050565b600082601f83011261316b57600080fd5b813561317b848260208601613107565b91505092915050565b6000813590506131938161406b565b92915050565b6000815190506131a88161406b565b92915050565b6000813590506131bd81614082565b92915050565b6000602082840312156131d557600080fd5b60006131e384828501613145565b91505092915050565b600080604083850312156131ff57600080fd5b600061320d85828601613145565b925050602061321e85828601613184565b9150509250929050565b60006020828403121561323a57600080fd5b600082013567ffffffffffffffff81111561325457600080fd5b6132608482850161315a565b91505092915050565b60006020828403121561327b57600080fd5b600061328984828501613184565b91505092915050565b6000602082840312156132a457600080fd5b60006132b284828501613199565b91505092915050565b600080604083850312156132ce57600080fd5b60006132dc858286016131ae565b92505060206132ed858286016131ae565b9150509250929050565b60006133038383613616565b60408301905092915050565b61331881613b67565b82525050565b600061332982613a0d565b6133338185613a30565b935061333e836139fd565b8060005b8381101561336f57815161335688826132f7565b975061336183613a23565b925050600181019050613342565b5085935050505092915050565b61338581613b79565b82525050565b600061339682613a18565b6133a08185613a41565b93506133b0818560208601613bd2565b6133b981613d6d565b840191505092915050565b60006133d1600e83613a41565b91506133dc82613d7e565b602082019050919050565b60006133f4601f83613a41565b91506133ff82613da7565b602082019050919050565b6000613417602283613a41565b915061342282613dd0565b604082019050919050565b600061343a602683613a41565b915061344582613e1f565b604082019050919050565b600061345d601f83613a41565b915061346882613e6e565b602082019050919050565b6000613480601883613a41565b915061348b82613e97565b602082019050919050565b60006134a3601283613a41565b91506134ae82613ec0565b602082019050919050565b60006134c6602b83613a41565b91506134d182613ee9565b604082019050919050565b60006134e9602e83613a41565b91506134f482613f38565b604082019050919050565b600061350c602083613a41565b915061351782613f87565b602082019050919050565b600061352f601583613a41565b915061353a82613fb0565b602082019050919050565b6000613552600883613a41565b915061355d82613fd9565b602082019050919050565b6000613575601683613a41565b915061358082614002565b602082019050919050565b6000613598601f83613a41565b91506135a38261402b565b602082019050919050565b60a0820160008201516135c46000850182613674565b5060208201516135d76020850182613674565b5060408201516135ea6040850182613674565b5060608201516135fd6060850182613674565b5060808201516136106080850182613674565b50505050565b60408201600082015161362c6000850182613674565b50602082015161363f6020850182613674565b50505050565b60408201600082015161365b6000850182613674565b50602082015161366e6020850182613674565b50505050565b61367d81613ba5565b82525050565b61368c81613ba5565b82525050565b60006020820190506136a7600083018461330f565b92915050565b60006040820190506136c2600083018561330f565b6136cf6020830184613683565b9392505050565b600060208201905081810360008301526136f0818461331e565b905092915050565b600060208201905061370d600083018461337c565b92915050565b600060a082019050818103600083015261372d818861338b565b905061373c602083018761330f565b613749604083018661330f565b613756606083018561330f565b613763608083018461330f565b9695505050505050565b60006020820190508181036000830152613786816133c4565b9050919050565b600060208201905081810360008301526137a6816133e7565b9050919050565b600060208201905081810360008301526137c68161340a565b9050919050565b600060208201905081810360008301526137e68161342d565b9050919050565b6000602082019050818103600083015261380681613450565b9050919050565b6000602082019050818103600083015261382681613473565b9050919050565b6000602082019050818103600083015261384681613496565b9050919050565b60006020820190508181036000830152613866816134b9565b9050919050565b60006020820190508181036000830152613886816134dc565b9050919050565b600060208201905081810360008301526138a6816134ff565b9050919050565b600060208201905081810360008301526138c681613522565b9050919050565b600060208201905081810360008301526138e681613545565b9050919050565b6000602082019050818103600083015261390681613568565b9050919050565b600060208201905081810360008301526139268161358b565b9050919050565b600060a08201905061394260008301846135ae565b92915050565b600060408201905061395d6000830184613645565b92915050565b60006020820190506139786000830184613683565b92915050565b60006040820190506139936000830185613683565b6139a06020830184613683565b9392505050565b60006139b16139c2565b90506139bd8282613c37565b919050565b6000604051905090565b600067ffffffffffffffff8211156139e7576139e6613d3e565b5b6139f082613d6d565b9050602081019050919050565b6000819050602082019050919050565b600081519050919050565b600081519050919050565b6000602082019050919050565b600082825260208201905092915050565b600082825260208201905092915050565b6000613a5d82613ba5565b9150613a6883613ba5565b9250827fffffffffffffffffffffffffffffffffffffffffffffffffffffffffffffffff03821115613a9d57613a9c613cb1565b5b828201905092915050565b6000613ab382613ba5565b9150613abe83613ba5565b925082613ace57613acd613ce0565b5b828204905092915050565b6000613ae482613ba5565b9150613aef83613ba5565b9250817fffffffffffffffffffffffffffffffffffffffffffffffffffffffffffffffff0483118215151615613b2857613b27613cb1565b5b828202905092915050565b6000613b3e82613ba5565b9150613b4983613ba5565b925082821015613b5c57613b5b613cb1565b5b828203905092915050565b6000613b7282613b85565b9050919050565b60008115159050919050565b600073ffffffffffffffffffffffffffffffffffffffff82169050919050565b6000819050919050565b600067ffffffffffffffff82169050919050565b82818337600083830152505050565b60005b83811015613bf0578082015181840152602081019050613bd5565b83811115613bff576000848401525b50505050565b60006002820490506001821680613c1d57607f821691505b60208210811415613c3157613c30613d0f565b5b50919050565b613c4082613d6d565b810181811067ffffffffffffffff82111715613c5f57613c5e613d3e565b5b80604052505050565b6000613c7382613ba5565b91507fffffffffffffffffffffffffffffffffffffffffffffffffffffffffffffffff821415613ca657613ca5613cb1565b5b600182019050919050565b7f4e487b7100000000000000000000000000000000000000000000000000000000600052601160045260246000fd5b7f4e487b7100000000000000000000000000000000000000000000000000000000600052601260045260246000fd5b7f4e487b7100000000000000000000000000000000000000000000000000000000600052602260045260246000fd5b7f4e487b7100000000000000000000000000000000000000000000000000000000600052604160045260246000fd5b6000601f19601f8301169050919050565b7f517565756520697320656d707479000000000000000000000000000000000000600082015250565b7f796f757220556e6c6f636b656420434658206973206e6f7420656e6f75676800600082015250565b7f4d696e206d73672e76616c7565206973206d696e65786368616e67656c696d6960008201527f7473000000000000000000000000000000000000000000000000000000000000602082015250565b7f4f776e61626c653a206e6577206f776e657220697320746865207a65726f206160008201527f6464726573730000000000000000000000000000000000000000000000000000602082015250565b7f706f6f6c20556e6c6f636b656420434658206973206e6f7420656e6f75676800600082015250565b7f45786365656420796f757220784346582062616c616e63650000000000000000600082015250565b7f506f6f6c206973206e6f74207365747465640000000000000000000000000000600082015250565b7f78434658616d6f756e74496e69742073686f756c6420626520657175616c207460008201527f6f206d73672e76616c7565000000000000000000000000000000000000000000602082015250565b7f496e697469616c697a61626c653a20636f6e747261637420697320616c72656160008201527f647920696e697469616c697a6564000000000000000000000000000000000000602082015250565b7f4f776e61626c653a2063616c6c6572206973206e6f7420746865206f776e6572600082015250565b7f4578636565642065786368616e6765206c696d69740000000000000000000000600082015250565b7f6d757374203e2030000000000000000000000000000000000000000000000000600082015250565b7f4f6e6c792062726964676520697320616c6c6f77656400000000000000000000600082015250565b7f4d696e20616d6f756e74206973206d696e65786368616e67656c696d69747300600082015250565b61405d81613b67565b811461406857600080fd5b50565b61407481613ba5565b811461407f57600080fd5b50565b61408b81613baf565b811461409657600080fd5b5056fea2646970667358221220981b44e71764a30e600bdf5bdfa1bb7aae0cad37c0209d1f22be0a8e3009b24964736f6c63430008020033",
  "immutableReferences": {},
  "source": "//SPDX-License-Identifier: BUSL-1.1\r\n// Licensor:            X-Dao.\r\n// Licensed Work:       NUCLEON 1.0\r\n\r\npragma solidity ^0.8.0;\r\n\r\nimport \"@openzeppelin/contracts/token/ERC20/ERC20.sol\";\r\nimport \"@openzeppelin/contracts/access/Ownable.sol\";\r\nimport \"@openzeppelin/contracts/utils/math/SafeMath.sol\";\r\nimport \"@openzeppelin/contracts/utils/structs/EnumerableSet.sol\";\r\nimport \"@openzeppelin/contracts/proxy/utils/Initializable.sol\";\r\nimport \"../VotePowerQueue.sol\";\r\nimport \"./UnstakeQueueCFX.sol\";\r\ninterface IXCFX{\r\n    function addTokens(address _account, uint256 _value) external;\r\n    function burnTokens(address _account, uint256 _value) external;\r\n    function balanceOf(address _account) external view returns(uint256);\r\n    function totalSupply() external view returns(uint256);\r\n}\r\n\r\n///\r\n///  @title Exchange room\r\n///  @notice Users use this contract to participate Conflux PoS stake.\r\n///\r\ncontract Exchangeroom is Ownable,Initializable {\r\n  using SafeMath for uint256;\r\n  using EnumerableSet for EnumerableSet.AddressSet;\r\n  using VotePowerQueue for VotePowerQueue.InOutQueue;\r\n  using UnstakeQueueCFX for UnstakeQueueCFX.Queue;\r\n\r\n  uint256 private constant RATIO_BASE = 10000;\r\n  uint256 private constant ONE_DAY_BLOCK_COUNT = 3600 * 24;\r\n  \r\n  // ======================== Pool config ===============================\r\n  // wheter this poolContract registed in PoS\r\n  string private poolName; // = \"UNCLEON HUB\";\r\n  bool public birdgeAddrSetted;\r\n  address private _bridgeAddress;\r\n  address private _CoreExchange;\r\n  uint256 private _minexchangelimits;\r\n  uint256 private _unstakeVotes;\r\n  // lock period: 14 days\r\n  uint256 public _poolLockPeriod_slow = ONE_DAY_BLOCK_COUNT * 15;\r\n  uint256 public _poolLockPeriod_fast = ONE_DAY_BLOCK_COUNT * 2;\r\n  \r\n   // ======================== xCFX use ==================================\r\n  address XCFX_address;\r\n  address Storage_addr;\r\n  address zero_addr=address(0x0000000000000000000000000000000000000000);\r\n  // ======================== Struct definitions =========================\r\n  /// @title ExchangeSummary\r\n  /// @custom:field totalxcfxs\r\n  /// @custom:field totalinterests\r\n  /// @custom:field cfxstillinstore\r\n  /// @custom:field remainedcfx\r\n  struct ExchangeSummary {\r\n    uint256 totalxcfxs;\r\n    uint256 xcfxvalues;\r\n    uint256 alloflockedvotes;\r\n    uint256 xCFXincrease;\r\n    uint256 unlockingCFX;\r\n  }\r\n  /// @title UserSummary\r\n  /// @custom:field unlocking\r\n  /// @custom:field unlocked\r\n  struct UserSummary {\r\n    uint256 unlocking;\r\n    uint256 unlocked;\r\n  }\r\n  // ======================== Contract states ===========================\r\n  ExchangeSummary private _exchangeSummary;\r\n  mapping(address => UserSummary) private userSummaries;\r\n  VotePowerQueue.InOutQueue private Inqueues;\r\n  // Unstake votes queue\r\n  UnstakeQueueCFX.Queue public unstakeQueue;  //private--debug\r\n  mapping(address => VotePowerQueue.InOutQueue) private userOutqueues;\r\n  // ======================== Modifiers =================================\r\n  modifier onlyRegisted() {\r\n    require(birdgeAddrSetted, \"Pool is not setted\");\r\n    _;\r\n  }\r\n  modifier onlyBridge() {\r\n    //require(isContract(msg.sender),\"bridge is contracts\");\r\n    require(msg.sender == _bridgeAddress||msg.sender == _CoreExchange, \"Only bridge is allowed\");\r\n    _;\r\n  }\r\n  // ======================== Helpers ===================================\r\n  function _selfBalance() internal view virtual returns (uint256) {\r\n    return address(this).balance;\r\n  }\r\n  function _blockNumber() internal view virtual returns (uint256) {\r\n    return block.number;\r\n  }\r\n  // ======================== Events ====================================\r\n\r\n  event IncreasePoSStake(address indexed user, uint256 votePower);\r\n\r\n  event DecreasePoSStake(address indexed user, uint256 votePower);\r\n\r\n  event WithdrawStake(address indexed user, uint256 votePower);\r\n\r\n  // ======================== Init methods ==============================\r\n\r\n  // call this method when depoly the 1967 proxy contract\r\n  function initialize(address _XCFXaddress,uint256 xCFXamountInit) public payable initializer {\r\n    require(xCFXamountInit==msg.value,'xCFXamountInit should be equal to msg.value');\r\n    zero_addr=address(0x0000000000000000000000000000000000000000);\r\n    poolName = \"UNCLEON HUB eSpace\";\r\n    _minexchangelimits = 1 ether;\r\n    _exchangeSummary.xcfxvalues = 1 ether;\r\n    _poolLockPeriod_slow = ONE_DAY_BLOCK_COUNT * 15;\r\n    _poolLockPeriod_fast = ONE_DAY_BLOCK_COUNT * 2;\r\n    XCFX_address = _XCFXaddress;\r\n    IXCFX(XCFX_address).addTokens(msg.sender, xCFXamountInit);\r\n    _exchangeSummary.totalxcfxs = xCFXamountInit;\r\n    _exchangeSummary.xCFXincrease = xCFXamountInit;\r\n  }\r\n  // ======================== Contract methods =========================\r\n  // @title CFX_exchange_estim\r\n  // @dev _amount The amount of CFX to stake\r\n  // return xCFX numbers can get\r\n  //\r\n  function CFX_exchange_estim(uint256 _amount) public view returns(uint256){\r\n    return _amount.mul(1 ether).div(_exchangeSummary.xcfxvalues);\r\n    }\r\n  //\r\n  // @title CFX_exchange_XCFX\r\n  // @dev msg.value The amount of CFX to stake\r\n  // emit IncreasePoSStake(msg.sender, msg.value);\r\n  //\r\n  function CFX_exchange_XCFX() external payable returns(uint256){\r\n    require(msg.value >= _minexchangelimits, \"Min msg.value is minexchangelimits\");\r\n    _exchangeSummary.totalxcfxs = IXCFX(XCFX_address).totalSupply();\r\n\r\n    address payable receiver = payable(_bridgeAddress);\r\n    receiver.transfer(msg.value);\r\n    uint256 xcfx_exchange = CFX_exchange_estim(msg.value);\r\n    IXCFX(XCFX_address).addTokens(msg.sender, xcfx_exchange);\r\n\r\n    _exchangeSummary.totalxcfxs += xcfx_exchange;\r\n    _exchangeSummary.xCFXincrease += xcfx_exchange;\r\n    emit IncreasePoSStake(msg.sender, msg.value);\r\n    return xcfx_exchange;\r\n  }\r\n  //\r\n  // @title XCFX_burn_estim\r\n  // @dev estimate The amount of CFX to user when user burn a _amount xCFX\r\n  // return CFX amounts user can get\r\n  //\r\n  function XCFX_burn_estim(uint256 _amount) public view returns(uint256){\r\n    return _amount.mul(_exchangeSummary.xcfxvalues).div(1 ether);\r\n    }\r\n  //\r\n  // @title XCFX_burn\r\n  // @dev burn  _amount  XCFX to get CFXstake\r\n  // emit DecreasePoSStake(msg.sender, _amount);\r\n  //\r\n  function XCFX_burn(uint256 _amount) public virtual onlyRegisted returns(uint256, uint256){\r\n    require(_amount >= _minexchangelimits,\"Min amount is minexchangelimits\");\r\n    require(_amount <= IXCFX(XCFX_address).balanceOf(msg.sender),\"Exceed your xCFX balance\");\r\n    _exchangeSummary.totalxcfxs = IXCFX(XCFX_address).totalSupply();\r\n    uint256 _mode = 0;\r\n    uint256 cfx_back = XCFX_burn_estim(_amount);\r\n    if(cfx_back<=_exchangeSummary.alloflockedvotes.mul(1000 ether)){\r\n      _mode=1;\r\n    }\r\n    else {\r\n      require(_amount<=_exchangeSummary.totalxcfxs,\"Exceed exchange limit\");\r\n      _mode=0;\r\n    }\r\n    _exchangeSummary.totalxcfxs -= _amount;\r\n    _exchangeSummary.unlockingCFX += cfx_back;\r\n    unstakeQueue.enqueue(UnstakeQueueCFX.Node(cfx_back));\r\n    IXCFX(XCFX_address).burnTokens(msg.sender, _amount);\r\n    emit DecreasePoSStake(msg.sender, _amount);\r\n    if(_mode == 1){\r\n      userOutqueues[msg.sender].enqueue(VotePowerQueue.QueueNode(cfx_back, _blockNumber() + _poolLockPeriod_fast));\r\n      _amount = 101109; //fast code\r\n      }\r\n    else{\r\n      userOutqueues[msg.sender].enqueue(VotePowerQueue.QueueNode(cfx_back, _blockNumber() + _poolLockPeriod_slow));\r\n      _amount = 100001; //slow code\r\n    }\r\n    \r\n    userSummaries[msg.sender].unlocking += cfx_back;\r\n    \r\n    uint256 temp_amount = userOutqueues[msg.sender].collectEndedVotes();\r\n    userSummaries[msg.sender].unlocked += temp_amount;\r\n    userSummaries[msg.sender].unlocking -= temp_amount;\r\n    _unstakeVotes += cfx_back;\r\n    return (cfx_back, _amount);\r\n  }\r\n  //\r\n  // @title getback_CFX\r\n  // @dev after cooldown time is over, user get his CFX \r\n  //  _amount is the CFX amount\r\n  //\r\n  function getback_CFX(uint256 _amount) public virtual onlyRegisted {\r\n     withdraw(_amount);\r\n  }\r\n\r\n  //\r\n  // @notice Withdraw CFX\r\n  // @param _amount The amount of CFX to withdraw\r\n  //\r\n  function withdraw(uint256 _amount) private onlyRegisted {\r\n    require(address(this).balance>=_amount,\"pool Unlocked CFX is not enough\");\r\n    uint256 temp_amount = userOutqueues[msg.sender].collectEndedVotes();\r\n    userSummaries[msg.sender].unlocked += temp_amount;\r\n    userSummaries[msg.sender].unlocking -= temp_amount;\r\n    _exchangeSummary.unlockingCFX -= _amount;\r\n\r\n    require(userSummaries[msg.sender].unlocked >= _amount, \"your Unlocked CFX is not enough\");\r\n    userSummaries[msg.sender].unlocked -= _amount;\r\n    address payable receiver = payable(msg.sender);\r\n    receiver.transfer(_amount);\r\n    emit WithdrawStake(msg.sender, _amount);\r\n  }\r\n\r\n  // \r\n  // @notice Get user's pool summary\r\n  // @param _user The address of user to query\r\n  // @return User's summary\r\n  //\r\n  function userSummary(address _user) public view returns (UserSummary memory) {\r\n    UserSummary memory summary = userSummaries[_user];\r\n    uint256 temp_amount =userOutqueues[_user].sumEndedVotes();\r\n    summary.unlocked += temp_amount;\r\n    summary.unlocking -= temp_amount;\r\n    return summary;\r\n  }\r\n  // @title Summary() \r\n  // @dev get the pos pool Summary\r\n  function Summary() public view returns (ExchangeSummary memory) {\r\n    return _exchangeSummary;\r\n  }\r\n  // @title userOutQueue(address account)\r\n  // @dev get the user's OutQueue\r\n  function userOutQueue(address account) public view returns (VotePowerQueue.QueueNode[] memory) {\r\n    return userOutqueues[account].queueItems();\r\n  }\r\n  // @title getBridge() \r\n  // @dev get the bridgeAddress;\r\n  function getBridge() public view returns(address){\r\n    return _bridgeAddress;\r\n  }\r\n  // ======================== admin methods =============================\r\n  // Set the exchange paramters by admin\r\n  // 1 LockPeriod\r\n  // 2 _minexchangelimits\r\n  // 3 PoolName\r\n  // 4 _bridgeAddress\r\n  // 5 _CoreExchange\r\n  // 6 Storage_addr\r\n  // 7 XCFX_address\r\n  //\r\n  function _setLockPeriod(uint64 _slow,uint64 _fast) public onlyOwner {\r\n    _poolLockPeriod_slow = _slow;\r\n    _poolLockPeriod_fast = _fast;\r\n  }\r\n  function _setminexchangelimits(uint256 _min) external onlyOwner {\r\n    _minexchangelimits = _min;\r\n  }\r\n  function _setPoolName(string memory name) public onlyOwner {\r\n    poolName = name;\r\n  }\r\n  function _setBridge(address bridgeAddress) public onlyOwner {\r\n    _bridgeAddress = bridgeAddress;\r\n    birdgeAddrSetted = true;\r\n  }\r\n  function _setCoreExchange(address _addr) external onlyOwner {\r\n    _CoreExchange = _addr;\r\n  }\r\n  function _setStorageaddr(address _S_addr) external onlyOwner {\r\n    Storage_addr = _S_addr;\r\n  }  \r\n  function _setXCFXaddr(address _XCFX_addr) external onlyOwner {\r\n    XCFX_address = _XCFX_addr;\r\n  } \r\n  // Get Settings \r\n  function getSettings() external view returns(string memory name,address,address,address,address){\r\n    return (poolName,_bridgeAddress,_CoreExchange,Storage_addr,XCFX_address);\r\n  }\r\n  // ==================== cross space bridge methods ====================\r\n  // methods that the core bridge use\r\n  function handleCFXexchangeXCFX() external payable onlyBridge returns(uint256){\r\n    require(msg.value>0 , 'must > 0');\r\n    _exchangeSummary.totalxcfxs = IXCFX(XCFX_address).totalSupply();\r\n\r\n    address payable receiver = payable(_bridgeAddress);\r\n    receiver.transfer(msg.value);\r\n    uint256 xcfx_exchange = CFX_exchange_estim(msg.value);\r\n    IXCFX(XCFX_address).addTokens(Storage_addr, xcfx_exchange);\r\n\r\n    _exchangeSummary.totalxcfxs += xcfx_exchange;\r\n    _exchangeSummary.xCFXincrease += xcfx_exchange;\r\n    emit IncreasePoSStake(Storage_addr, msg.value);\r\n    return xcfx_exchange;\r\n  }\r\n  //let bridge know the xCFX increased in this exchangeroom , and set the para::xCFXincrease to 0 \r\n  function handlexCFXadd() public onlyBridge returns(uint256 ){\r\n    uint256 temp_stake = _exchangeSummary.xCFXincrease ;\r\n    if( temp_stake == 0 ){return 0;}\r\n     _exchangeSummary.xCFXincrease = 0;\r\n     return temp_stake;\r\n  }\r\n  //let bridge know the  CFX need to get back, and set the para::unlockingCFX to 0 \r\n  function handleUnstake() public onlyBridge returns (uint256) {\r\n    uint256 temp_unstake = _unstakeVotes;\r\n    if( temp_unstake == 0 ){return 0;}\r\n     _unstakeVotes = 0;\r\n     return temp_unstake;\r\n  }\r\n  // function handleUnstakeTask() public onlyBridge {\r\n  //   unstakeQueue.dequeue();\r\n  // }\r\n  function handleAllUnstakeTask() public onlyBridge {\r\n    for(uint256 i=0;i<unstakeLen();i++){\r\n      unstakeQueue.dequeue();\r\n    }\r\n  }\r\n\r\n  function unstakeLen() public view returns (uint256) {\r\n    return unstakeQueue.end - unstakeQueue.start;\r\n  }\r\n\r\n  // function firstUnstakeVotes() public view returns (uint256) {\r\n  //   if (unstakeQueue.end == unstakeQueue.start) {\r\n  //     return 0;\r\n  //   }\r\n  //   return unstakeQueue.items[unstakeQueue.start].CFXs;\r\n  // }\r\n\r\n  function setxCFXValue(uint256 _cfxvalue) public onlyBridge returns (uint256){\r\n    _exchangeSummary.xcfxvalues = _cfxvalue;\r\n    // struct ExchangeSummary {\r\n    // uint256 totalxcfxs;\r\n    // uint256 xcfxvalues;\r\n    // uint256 alloflockedvotes;\r\n    // uint256 xCFXincrease;\r\n    // uint256 unlockingCFX;\r\n    // }\r\n    return  _exchangeSummary.xcfxvalues;\r\n  }\r\n\r\n  function setlockedvotes(uint256 _lockedvotes) public onlyBridge returns (uint256){\r\n    _exchangeSummary.alloflockedvotes = _lockedvotes;\r\n    return  _exchangeSummary.alloflockedvotes;\r\n  }\r\n\r\n  function espacebalanceof(address _addr) public view returns(uint256) {\r\n        return _addr.balance;\r\n  }\r\n\r\n  function isContract(address account) internal view returns (bool) {\r\n        // This method relies on extcodesize/address.code.length, which returns 0\r\n        // for contracts in construction, since the code is only stored at the end\r\n        // of the constructor execution.\r\n        return account.code.length > 0;\r\n  }\r\n\r\n  // ======================== contract base methods =====================\r\n  fallback() external payable {}\r\n  receive() external payable {}\r\n\r\n}",
  "sourcePath": "C:\\Users\\artii\\Black IDE\\espace\\contracts\\eSpace\\Exchangeroom.sol",
  "compiler": {
    "name": "solc",
    "version": "0.8.2+commit.661d1103.Emscripten.clang"
  },
  "schemaVersion": "3.4.3",
  "updatedAt": "2022-09-21T14:34:09.128Z",
  "devdoc": {
    "kind": "dev",
    "methods": {
      "owner()": {
        "details": "Returns the address of the current owner."
      },
      "renounceOwnership()": {
        "details": "Leaves the contract without owner. It will not be possible to call `onlyOwner` functions anymore. Can only be called by the current owner. NOTE: Renouncing ownership will leave the contract without an owner, thereby removing any functionality that is only available to the owner."
      },
      "transferOwnership(address)": {
        "details": "Transfers ownership of the contract to a new account (`newOwner`). Can only be called by the current owner."
      }
    },
    "title": "Exchange room",
    "version": 1
  },
  "userdoc": {
    "kind": "user",
    "methods": {},
    "notice": "Users use this contract to participate Conflux PoS stake.",
    "version": 1
  }
}