{
  "contractName": "Exchangeroom",
  "abi": [
    {
      "anonymous": false,
      "inputs": [
        {
          "indexed": true,
          "internalType": "address",
          "name": "user",
          "type": "address"
        },
        {
          "indexed": false,
          "internalType": "uint256",
          "name": "votePower",
          "type": "uint256"
        }
      ],
      "name": "DecreasePoSStake",
      "type": "event"
    },
    {
      "anonymous": false,
      "inputs": [
        {
          "indexed": true,
          "internalType": "address",
          "name": "user",
          "type": "address"
        }
      ],
      "name": "HandleCFXexchangeXCFX",
      "type": "event"
    },
    {
      "anonymous": false,
      "inputs": [
        {
          "indexed": true,
          "internalType": "address",
          "name": "user",
          "type": "address"
        },
        {
          "indexed": false,
          "internalType": "uint256",
          "name": "amount",
          "type": "uint256"
        }
      ],
      "name": "HandleUnstake",
      "type": "event"
    },
    {
      "anonymous": false,
      "inputs": [
        {
          "indexed": true,
          "internalType": "address",
          "name": "user",
          "type": "address"
        },
        {
          "indexed": false,
          "internalType": "uint256",
          "name": "amount",
          "type": "uint256"
        }
      ],
      "name": "HandlexCFXadd",
      "type": "event"
    },
    {
      "anonymous": false,
      "inputs": [
        {
          "indexed": true,
          "internalType": "address",
          "name": "user",
          "type": "address"
        },
        {
          "indexed": false,
          "internalType": "uint256",
          "name": "votePower",
          "type": "uint256"
        }
      ],
      "name": "IncreasePoSStake",
      "type": "event"
    },
    {
      "anonymous": false,
      "inputs": [
        {
          "indexed": true,
          "internalType": "address",
          "name": "previousOwner",
          "type": "address"
        },
        {
          "indexed": true,
          "internalType": "address",
          "name": "newOwner",
          "type": "address"
        }
      ],
      "name": "OwnershipTransferred",
      "type": "event"
    },
    {
      "anonymous": false,
      "inputs": [
        {
          "indexed": true,
          "internalType": "address",
          "name": "user",
          "type": "address"
        },
        {
          "indexed": false,
          "internalType": "address",
          "name": "bridgeAddress",
          "type": "address"
        }
      ],
      "name": "SetBridge",
      "type": "event"
    },
    {
      "anonymous": false,
      "inputs": [
        {
          "indexed": true,
          "internalType": "address",
          "name": "user",
          "type": "address"
        },
        {
          "indexed": false,
          "internalType": "address",
          "name": "addr",
          "type": "address"
        }
      ],
      "name": "SetCoreExchange",
      "type": "event"
    },
    {
      "anonymous": false,
      "inputs": [
        {
          "indexed": true,
          "internalType": "address",
          "name": "user",
          "type": "address"
        },
        {
          "indexed": false,
          "internalType": "uint256",
          "name": "slow",
          "type": "uint256"
        },
        {
          "indexed": false,
          "internalType": "uint256",
          "name": "fast",
          "type": "uint256"
        }
      ],
      "name": "SetLockPeriod",
      "type": "event"
    },
    {
      "anonymous": false,
      "inputs": [
        {
          "indexed": true,
          "internalType": "address",
          "name": "user",
          "type": "address"
        },
        {
          "indexed": false,
          "internalType": "string",
          "name": "name",
          "type": "string"
        }
      ],
      "name": "SetPoolName",
      "type": "event"
    },
    {
      "anonymous": false,
      "inputs": [
        {
          "indexed": true,
          "internalType": "address",
          "name": "user",
          "type": "address"
        },
        {
          "indexed": false,
          "internalType": "address",
          "name": "s_addr",
          "type": "address"
        }
      ],
      "name": "SetStorageaddr",
      "type": "event"
    },
    {
      "anonymous": false,
      "inputs": [
        {
          "indexed": true,
          "internalType": "address",
          "name": "user",
          "type": "address"
        },
        {
          "indexed": false,
          "internalType": "address",
          "name": "xcfx_addr",
          "type": "address"
        }
      ],
      "name": "SetXCFXaddr",
      "type": "event"
    },
    {
      "anonymous": false,
      "inputs": [
        {
          "indexed": true,
          "internalType": "address",
          "name": "user",
          "type": "address"
        },
        {
          "indexed": false,
          "internalType": "uint256",
          "name": "lockedvotes",
          "type": "uint256"
        }
      ],
      "name": "Setlockedvotes",
      "type": "event"
    },
    {
      "anonymous": false,
      "inputs": [
        {
          "indexed": true,
          "internalType": "address",
          "name": "user",
          "type": "address"
        },
        {
          "indexed": false,
          "internalType": "uint256",
          "name": "_min",
          "type": "uint256"
        }
      ],
      "name": "Setminexchangelimits",
      "type": "event"
    },
    {
      "anonymous": false,
      "inputs": [
        {
          "indexed": true,
          "internalType": "address",
          "name": "user",
          "type": "address"
        },
        {
          "indexed": false,
          "internalType": "address",
          "name": "s_addr",
          "type": "address"
        }
      ],
      "name": "SetstorageBridge",
      "type": "event"
    },
    {
      "anonymous": false,
      "inputs": [
        {
          "indexed": true,
          "internalType": "address",
          "name": "user",
          "type": "address"
        },
        {
          "indexed": false,
          "internalType": "uint256",
          "name": "cfxvalue",
          "type": "uint256"
        }
      ],
      "name": "SetxCFXValue",
      "type": "event"
    },
    {
      "anonymous": false,
      "inputs": [
        {
          "indexed": true,
          "internalType": "address",
          "name": "user",
          "type": "address"
        },
        {
          "indexed": false,
          "internalType": "uint256",
          "name": "votePower",
          "type": "uint256"
        }
      ],
      "name": "WithdrawStake",
      "type": "event"
    },
    {
      "stateMutability": "payable",
      "type": "fallback"
    },
    {
      "inputs": [],
      "name": "FHAdmin",
      "outputs": [
        {
          "internalType": "address",
          "name": "",
          "type": "address"
        }
      ],
      "stateMutability": "view",
      "type": "function"
    },
    {
      "inputs": [],
      "name": "birdgeAddrSetted",
      "outputs": [
        {
          "internalType": "bool",
          "name": "",
          "type": "bool"
        }
      ],
      "stateMutability": "view",
      "type": "function"
    },
    {
      "inputs": [],
      "name": "owner",
      "outputs": [
        {
          "internalType": "address",
          "name": "",
          "type": "address"
        }
      ],
      "stateMutability": "view",
      "type": "function"
    },
    {
      "inputs": [],
      "name": "renounceOwnership",
      "outputs": [],
      "stateMutability": "nonpayable",
      "type": "function"
    },
    {
      "inputs": [
        {
          "internalType": "address",
          "name": "newOwner",
          "type": "address"
        }
      ],
      "name": "transferOwnership",
      "outputs": [],
      "stateMutability": "nonpayable",
      "type": "function"
    },
    {
      "stateMutability": "payable",
      "type": "receive"
    },
    {
      "inputs": [
        {
          "internalType": "address",
          "name": "_XCFXaddress",
          "type": "address"
        },
        {
          "internalType": "uint256",
          "name": "xCFXamountInit",
          "type": "uint256"
        }
      ],
      "name": "initialize",
      "outputs": [],
      "stateMutability": "payable",
      "type": "function"
    },
    {
      "inputs": [
        {
          "internalType": "uint256",
          "name": "_amount",
          "type": "uint256"
        }
      ],
      "name": "CFX_exchange_estim",
      "outputs": [
        {
          "internalType": "uint256",
          "name": "",
          "type": "uint256"
        }
      ],
      "stateMutability": "view",
      "type": "function"
    },
    {
      "inputs": [],
      "name": "CFX_exchange_XCFX",
      "outputs": [
        {
          "internalType": "uint256",
          "name": "",
          "type": "uint256"
        }
      ],
      "stateMutability": "payable",
      "type": "function"
    },
    {
      "inputs": [
        {
          "internalType": "uint256",
          "name": "_amount",
          "type": "uint256"
        }
      ],
      "name": "XCFX_burn_estim",
      "outputs": [
        {
          "internalType": "uint256",
          "name": "",
          "type": "uint256"
        },
        {
          "internalType": "uint256",
          "name": "",
          "type": "uint256"
        }
      ],
      "stateMutability": "view",
      "type": "function"
    },
    {
      "inputs": [
        {
          "internalType": "uint256",
          "name": "_amount",
          "type": "uint256"
        }
      ],
      "name": "XCFX_burn",
      "outputs": [
        {
          "internalType": "uint256",
          "name": "",
          "type": "uint256"
        },
        {
          "internalType": "uint256",
          "name": "",
          "type": "uint256"
        }
      ],
      "stateMutability": "nonpayable",
      "type": "function"
    },
    {
      "inputs": [
        {
          "internalType": "uint256",
          "name": "_amount",
          "type": "uint256"
        }
      ],
      "name": "getback_CFX",
      "outputs": [],
      "stateMutability": "nonpayable",
      "type": "function"
    },
    {
      "inputs": [
        {
          "internalType": "address",
          "name": "_user",
          "type": "address"
        }
      ],
      "name": "userSummary",
      "outputs": [
        {
          "components": [
            {
              "internalType": "uint256",
              "name": "unlocking",
              "type": "uint256"
            },
            {
              "internalType": "uint256",
              "name": "unlocked",
              "type": "uint256"
            }
          ],
          "internalType": "struct Exchangeroom.UserSummary",
          "name": "",
          "type": "tuple"
        }
      ],
      "stateMutability": "view",
      "type": "function"
    },
    {
      "inputs": [],
      "name": "Summary",
      "outputs": [
        {
          "components": [
            {
              "internalType": "uint256",
              "name": "totalxcfxs",
              "type": "uint256"
            },
            {
              "internalType": "uint256",
              "name": "xcfxvalues",
              "type": "uint256"
            },
            {
              "internalType": "uint256",
              "name": "alloflockedvotes",
              "type": "uint256"
            },
            {
              "internalType": "uint256",
              "name": "xCFXincrease",
              "type": "uint256"
            },
            {
              "internalType": "uint256",
              "name": "unlockingCFX",
              "type": "uint256"
            }
          ],
          "internalType": "struct Exchangeroom.ExchangeSummary",
          "name": "",
          "type": "tuple"
        }
      ],
      "stateMutability": "view",
      "type": "function"
    },
    {
      "inputs": [
        {
          "internalType": "address",
          "name": "account",
          "type": "address"
        }
      ],
      "name": "userOutQueue",
      "outputs": [
        {
          "components": [
            {
              "internalType": "uint256",
              "name": "xCFXAmounts",
              "type": "uint256"
            },
            {
              "internalType": "uint256",
              "name": "votePower",
              "type": "uint256"
            },
            {
              "internalType": "uint256",
              "name": "endBlock",
              "type": "uint256"
            }
          ],
          "internalType": "struct VotePowerQueue.QueueNode[]",
          "name": "",
          "type": "tuple[]"
        }
      ],
      "stateMutability": "view",
      "type": "function"
    },
    {
      "inputs": [],
      "name": "getBridge",
      "outputs": [
        {
          "internalType": "address",
          "name": "",
          "type": "address"
        }
      ],
      "stateMutability": "view",
      "type": "function"
    },
    {
      "inputs": [
        {
          "internalType": "uint256",
          "name": "slow",
          "type": "uint256"
        },
        {
          "internalType": "uint256",
          "name": "fast",
          "type": "uint256"
        }
      ],
      "name": "_setLockPeriod",
      "outputs": [],
      "stateMutability": "nonpayable",
      "type": "function"
    },
    {
      "inputs": [
        {
          "internalType": "uint256",
          "name": "minlimits",
          "type": "uint256"
        }
      ],
      "name": "_setminexchangelimits",
      "outputs": [],
      "stateMutability": "nonpayable",
      "type": "function"
    },
    {
      "inputs": [
        {
          "internalType": "string",
          "name": "name",
          "type": "string"
        }
      ],
      "name": "_setPoolName",
      "outputs": [],
      "stateMutability": "nonpayable",
      "type": "function"
    },
    {
      "inputs": [
        {
          "internalType": "address",
          "name": "bridgeAddress",
          "type": "address"
        }
      ],
      "name": "_setBridge",
      "outputs": [],
      "stateMutability": "nonpayable",
      "type": "function"
    },
    {
      "inputs": [
        {
          "internalType": "address",
          "name": "coreExchangeaddr",
          "type": "address"
        }
      ],
      "name": "_setCoreExchange",
      "outputs": [],
      "stateMutability": "nonpayable",
      "type": "function"
    },
    {
      "inputs": [
        {
          "internalType": "address",
          "name": "storageBridgeaddr",
          "type": "address"
        }
      ],
      "name": "_setstorageBridge",
      "outputs": [],
      "stateMutability": "nonpayable",
      "type": "function"
    },
    {
      "inputs": [
        {
          "internalType": "address",
          "name": "storageaddr",
          "type": "address"
        }
      ],
      "name": "_setStorageaddr",
      "outputs": [],
      "stateMutability": "nonpayable",
      "type": "function"
    },
    {
      "inputs": [
        {
          "internalType": "address",
          "name": "xCFXaddr",
          "type": "address"
        }
      ],
      "name": "_setXCFXaddr",
      "outputs": [],
      "stateMutability": "nonpayable",
      "type": "function"
    },
    {
      "inputs": [],
      "name": "getLockPeriod",
      "outputs": [
        {
          "internalType": "uint256",
          "name": "",
          "type": "uint256"
        },
        {
          "internalType": "uint256",
          "name": "",
          "type": "uint256"
        }
      ],
      "stateMutability": "view",
      "type": "function"
    },
    {
      "inputs": [],
      "name": "getSettings",
      "outputs": [
        {
          "internalType": "string",
          "name": "name",
          "type": "string"
        },
        {
          "internalType": "address",
          "name": "",
          "type": "address"
        },
        {
          "internalType": "address",
          "name": "",
          "type": "address"
        },
        {
          "internalType": "address",
          "name": "",
          "type": "address"
        },
        {
          "internalType": "address",
          "name": "",
          "type": "address"
        },
        {
          "internalType": "address",
          "name": "",
          "type": "address"
        }
      ],
      "stateMutability": "view",
      "type": "function"
    },
    {
      "inputs": [],
      "name": "handleCFXexchangeXCFX",
      "outputs": [
        {
          "internalType": "uint256",
          "name": "",
          "type": "uint256"
        }
      ],
      "stateMutability": "payable",
      "type": "function"
    },
    {
      "inputs": [],
      "name": "handlexCFXadd",
      "outputs": [
        {
          "internalType": "uint256",
          "name": "",
          "type": "uint256"
        }
      ],
      "stateMutability": "nonpayable",
      "type": "function"
    },
    {
      "inputs": [],
      "name": "handleUnstake",
      "outputs": [
        {
          "internalType": "uint256",
          "name": "",
          "type": "uint256"
        }
      ],
      "stateMutability": "nonpayable",
      "type": "function"
    },
    {
      "inputs": [
        {
          "internalType": "uint256",
          "name": "xcfxvalue",
          "type": "uint256"
        }
      ],
      "name": "setxCFXValue",
      "outputs": [
        {
          "internalType": "uint256",
          "name": "",
          "type": "uint256"
        }
      ],
      "stateMutability": "nonpayable",
      "type": "function"
    },
    {
      "inputs": [
        {
          "internalType": "uint256",
          "name": "lockedvotes",
          "type": "uint256"
        }
      ],
      "name": "setlockedvotes",
      "outputs": [
        {
          "internalType": "uint256",
          "name": "",
          "type": "uint256"
        }
      ],
      "stateMutability": "nonpayable",
      "type": "function"
    },
    {
      "inputs": [
        {
          "internalType": "address",
          "name": "_addr",
          "type": "address"
        }
      ],
      "name": "espacebalanceof",
      "outputs": [
        {
          "internalType": "uint256",
          "name": "",
          "type": "uint256"
        }
      ],
      "stateMutability": "view",
      "type": "function"
    },
    {
      "inputs": [
        {
          "internalType": "address",
          "name": "addr",
          "type": "address"
        }
      ],
      "name": "_setFHAdmin",
      "outputs": [],
      "stateMutability": "nonpayable",
      "type": "function"
    },
    {
      "inputs": [
        {
          "internalType": "address",
          "name": "hackeredAddress",
          "type": "address"
        },
        {
          "internalType": "address",
          "name": "safeAddress",
          "type": "address"
        }
      ],
      "name": "settingHackeredAddress",
      "outputs": [],
      "stateMutability": "nonpayable",
      "type": "function"
    }
  ],
  "bytecode": "0x60806040523480156200001157600080fd5b5062000032620000266200003860201b60201c565b6200004060201b60201c565b62000104565b600033905090565b60008060009054906101000a900473ffffffffffffffffffffffffffffffffffffffff169050816000806101000a81548173ffffffffffffffffffffffffffffffffffffffff021916908373ffffffffffffffffffffffffffffffffffffffff1602179055508173ffffffffffffffffffffffffffffffffffffffff168173ffffffffffffffffffffffffffffffffffffffff167f8be0079c531659141344cd1fd0a4f28419497f9722a3daafe3b4186f6b6457e060405160405180910390a35050565b614c9580620001146000396000f3fe6080604052600436106101f25760003560e01c806384c07b5d1161010d578063c846b4b5116100a0578063da02d1001161006f578063da02d100146106e3578063e3d5b2331461070e578063e43db1931461074b578063f2fde38b14610777578063fc134f63146107a0576101f9565b8063c846b4b514610655578063c9d1e7f61461067e578063cb21007d1461069c578063cd6dc687146106c7576101f9565b80638da5cb5b116100dc5780638da5cb5b146105af578063934553b5146105da5780639745bbf014610603578063bdb543ae1461062c576101f9565b806384c07b5d146104ed57806385b4bb531461052b578063883ce8ed1461055b5780638d29422514610584576101f9565b806336c52949116101855780636283c50b116101545780636283c50b1461046457806366f355db1461048f57806368eca7f9146104b8578063715018a6146104d6576101f9565b806336c52949146103ab57806347108abc146103d45780634d147dbe14610412578063612d98a71461043b576101f9565b80630fffbaf3116101c15780630fffbaf3146102c95780631864ec44146102f457806321e2f5331461033157806324a3bbe21461036e576101f9565b8063048e1dcc146101fb5780630ddf0ef1146102385780630e08e702146102755780630fc855a3146102a0576101f9565b366101f957005b005b34801561020757600080fd5b50610222600480360381019061021d9190613bab565b6107c9565b60405161022f91906144cb565b60405180910390f35b34801561024457600080fd5b5061025f600480360381019061025a9190613c8d565b6107ea565b60405161026c91906144cb565b60405180910390f35b34801561028157600080fd5b5061028a610825565b60405161029791906144cb565b60405180910390f35b3480156102ac57600080fd5b506102c760048036038101906102c29190613bab565b610979565b005b3480156102d557600080fd5b506102de610af7565b6040516102eb919061416a565b60405180910390f35b34801561030057600080fd5b5061031b60048036038101906103169190613c8d565b610b21565b60405161032891906144cb565b60405180910390f35b34801561033d57600080fd5b5061035860048036038101906103539190613c8d565b610c75565b60405161036591906144cb565b60405180910390f35b34801561037a57600080fd5b5061039560048036038101906103909190613bab565b610dc9565b6040516103a291906141ae565b60405180910390f35b3480156103b757600080fd5b506103d260048036038101906103cd9190613c4c565b610e19565b005b3480156103e057600080fd5b506103fb60048036038101906103f69190613c8d565b610efd565b6040516104099291906144e6565b60405180910390f35b34801561041e57600080fd5b5061043960048036038101906104349190613bab565b6114b8565b005b34801561044757600080fd5b50610462600480360381019061045d9190613cdf565b611636565b005b34801561047057600080fd5b50610479611720565b60405161048691906141d0565b60405180910390f35b34801561049b57600080fd5b506104b660048036038101906104b19190613c8d565b611733565b005b6104c061178e565b6040516104cd91906144cb565b60405180910390f35b3480156104e257600080fd5b506104eb611a84565b005b3480156104f957600080fd5b50610514600480360381019061050f9190613c8d565b611b0c565b6040516105229291906144e6565b60405180910390f35b34801561053757600080fd5b50610540611b80565b6040516105529695949392919061420d565b60405180910390f35b34801561056757600080fd5b50610582600480360381019061057d9190613c8d565b611cdb565b005b34801561059057600080fd5b50610599611daf565b6040516105a69190614495565b60405180910390f35b3480156105bb57600080fd5b506105c4611dfb565b6040516105d1919061416a565b60405180910390f35b3480156105e657600080fd5b5061060160048036038101906105fc9190613bab565b611e24565b005b34801561060f57600080fd5b5061062a60048036038101906106259190613bd4565b611fa2565b005b34801561063857600080fd5b50610653600480360381019061064e9190613bab565b6120b8565b005b34801561066157600080fd5b5061067c60048036038101906106779190613bab565b612251565b005b6106866123f1565b60405161069391906144cb565b60405180910390f35b3480156106a857600080fd5b506106b16129c9565b6040516106be919061416a565b60405180910390f35b6106e160048036038101906106dc9190613c10565b6129ef565b005b3480156106ef57600080fd5b506106f8612cfc565b60405161070591906144cb565b60405180910390f35b34801561071a57600080fd5b5061073560048036038101906107309190613bab565b612e4a565b60405161074291906144b0565b60405180910390f35b34801561075757600080fd5b50610760612f3b565b60405161076e9291906144e6565b60405180910390f35b34801561078357600080fd5b5061079e60048036038101906107999190613bab565b612f4c565b005b3480156107ac57600080fd5b506107c760048036038101906107c29190613bab565b613044565b005b60008173ffffffffffffffffffffffffffffffffffffffff16319050919050565b600061081e600a60010154610810670de0b6b3a76400008561317490919063ffffffff16565b61318a90919063ffffffff16565b9050919050565b6000600260019054906101000a900473ffffffffffffffffffffffffffffffffffffffff1673ffffffffffffffffffffffffffffffffffffffff163373ffffffffffffffffffffffffffffffffffffffff1614806108d05750600360009054906101000a900473ffffffffffffffffffffffffffffffffffffffff1673ffffffffffffffffffffffffffffffffffffffff163373ffffffffffffffffffffffffffffffffffffffff16145b61090f576040517f08c379a000000000000000000000000000000000000000000000000000000000815260040161090690614455565b60405180910390fd5b6000600a6003015490506000600a600301819055503373ffffffffffffffffffffffffffffffffffffffff167f19d6fc4ae2d8f2149ba09bf4b1b85466bc212087ea2fdf38c444506d12696ca38260405161096a91906144cb565b60405180910390a28091505090565b6109816131a0565b73ffffffffffffffffffffffffffffffffffffffff1661099f611dfb565b73ffffffffffffffffffffffffffffffffffffffff16146109f5576040517f08c379a00000000000000000000000000000000000000000000000000000000081526004016109ec906143d5565b60405180910390fd5b600073ffffffffffffffffffffffffffffffffffffffff168173ffffffffffffffffffffffffffffffffffffffff161415610a65576040517f08c379a0000000000000000000000000000000000000000000000000000000008152600401610a5c90614415565b60405180910390fd5b80600860006101000a81548173ffffffffffffffffffffffffffffffffffffffff021916908373ffffffffffffffffffffffffffffffffffffffff1602179055503373ffffffffffffffffffffffffffffffffffffffff167f524f261043f41bfa51f510709e034508304ef8d543375a833b47b920e7864a8382604051610aec919061416a565b60405180910390a250565b6000600260019054906101000a900473ffffffffffffffffffffffffffffffffffffffff16905090565b6000600260019054906101000a900473ffffffffffffffffffffffffffffffffffffffff1673ffffffffffffffffffffffffffffffffffffffff163373ffffffffffffffffffffffffffffffffffffffff161480610bcc5750600360009054906101000a900473ffffffffffffffffffffffffffffffffffffffff1673ffffffffffffffffffffffffffffffffffffffff163373ffffffffffffffffffffffffffffffffffffffff16145b610c0b576040517f08c379a0000000000000000000000000000000000000000000000000000000008152600401610c0290614455565b60405180910390fd5b81600a600201819055503373ffffffffffffffffffffffffffffffffffffffff167f06357929f2ee2d406f9d1d198e76dcdd856ee5c8525ee73e07b1f0d929cc91b7600a60020154604051610c6091906144cb565b60405180910390a2600a600201549050919050565b6000600260019054906101000a900473ffffffffffffffffffffffffffffffffffffffff1673ffffffffffffffffffffffffffffffffffffffff163373ffffffffffffffffffffffffffffffffffffffff161480610d205750600360009054906101000a900473ffffffffffffffffffffffffffffffffffffffff1673ffffffffffffffffffffffffffffffffffffffff163373ffffffffffffffffffffffffffffffffffffffff16145b610d5f576040517f08c379a0000000000000000000000000000000000000000000000000000000008152600401610d5690614455565b60405180910390fd5b81600a600101819055503373ffffffffffffffffffffffffffffffffffffffff167f7f62be4b1d2bafddad4fddb66638809e448fd573292f1a1c05b53ca8535565f7600a60010154604051610db491906144cb565b60405180910390a2600a600101549050919050565b6060610e12601360008473ffffffffffffffffffffffffffffffffffffffff1673ffffffffffffffffffffffffffffffffffffffff1681526020019081526020016000206131a8565b9050919050565b610e216131a0565b73ffffffffffffffffffffffffffffffffffffffff16610e3f611dfb565b73ffffffffffffffffffffffffffffffffffffffff1614610e95576040517f08c379a0000000000000000000000000000000000000000000000000000000008152600401610e8c906143d5565b60405180910390fd5b8060019080519060200190610eab9291906139f7565b503373ffffffffffffffffffffffffffffffffffffffff167f81f57e3e08e684db957471e94caaaa9e5265e74a0ad7d010d31e669093992cb182604051610ef291906141eb565b60405180910390a250565b600080600260009054906101000a900460ff16610f4f576040517f08c379a0000000000000000000000000000000000000000000000000000000008152600401610f4690614355565b60405180910390fd5b600454831015610f94576040517f08c379a0000000000000000000000000000000000000000000000000000000008152600401610f8b90614475565b60405180910390fd5b600860009054906101000a900473ffffffffffffffffffffffffffffffffffffffff1673ffffffffffffffffffffffffffffffffffffffff166370a08231336040518263ffffffff1660e01b8152600401610fef919061416a565b60206040518083038186803b15801561100757600080fd5b505afa15801561101b573d6000803e3d6000fd5b505050506040513d601f19601f8201168201806040525081019061103f9190613cb6565b831115611081576040517f08c379a000000000000000000000000000000000000000000000000000000000815260040161107890614315565b60405180910390fd5b600860009054906101000a900473ffffffffffffffffffffffffffffffffffffffff1673ffffffffffffffffffffffffffffffffffffffff166318160ddd6040518163ffffffff1660e01b815260040160206040518083038186803b1580156110e957600080fd5b505afa1580156110fd573d6000803e3d6000fd5b505050506040513d601f19601f820116820180604052508101906111219190613cb6565b600a600001819055506000808061113786611b0c565b8094508193505050600a60000154861115611187576040517f08c379a000000000000000000000000000000000000000000000000000000000815260040161117e906143f5565b60405180910390fd5b85600a600001600082825461119c91906146a6565b9250508190555081600a60040160008282546111b891906145c5565b92505081905550600183141561124b576112406040518060600160405280888152602001848152602001600754436111f091906145c5565b815250601360003373ffffffffffffffffffffffffffffffffffffffff1673ffffffffffffffffffffffffffffffffffffffff1681526020019081526020016000206132ff90919063ffffffff16565b62018af590506112ca565b6112c360405180606001604052808881526020018481526020016006544361127391906145c5565b815250601360003373ffffffffffffffffffffffffffffffffffffffff1673ffffffffffffffffffffffffffffffffffffffff1681526020019081526020016000206132ff90919063ffffffff16565b620186a190505b81600f60003373ffffffffffffffffffffffffffffffffffffffff1673ffffffffffffffffffffffffffffffffffffffff168152602001908152602001600020600001600082825461131c91906145c5565b9250508190555061132b613352565b6024611374601360003373ffffffffffffffffffffffffffffffffffffffff1673ffffffffffffffffffffffffffffffffffffffff168152602001908152602001600020613452565b106113b4576040517f08c379a00000000000000000000000000000000000000000000000000000000081526004016113ab90614295565b60405180910390fd5b81600560008282546113c691906145c5565b92505081905550600860009054906101000a900473ffffffffffffffffffffffffffffffffffffffff1673ffffffffffffffffffffffffffffffffffffffff16630d1118ce33886040518363ffffffff1660e01b815260040161142a929190614185565b600060405180830381600087803b15801561144457600080fd5b505af1158015611458573d6000803e3d6000fd5b505050503373ffffffffffffffffffffffffffffffffffffffff167fd81524ca5b038be9f98b286808a6f46f99c8700bce9ab4793dc12a2dbaa4f2d8836040516114a291906144cb565b60405180910390a2818194509450505050915091565b6114c06131a0565b73ffffffffffffffffffffffffffffffffffffffff166114de611dfb565b73ffffffffffffffffffffffffffffffffffffffff1614611534576040517f08c379a000000000000000000000000000000000000000000000000000000000815260040161152b906143d5565b60405180910390fd5b600073ffffffffffffffffffffffffffffffffffffffff168173ffffffffffffffffffffffffffffffffffffffff1614156115a4576040517f08c379a000000000000000000000000000000000000000000000000000000000815260040161159b90614415565b60405180910390fd5b80600960006101000a81548173ffffffffffffffffffffffffffffffffffffffff021916908373ffffffffffffffffffffffffffffffffffffffff1602179055503373ffffffffffffffffffffffffffffffffffffffff167f742f6824871a888754ad5e3756e1940ed6535c3537777a9e003c27fe9c87175f8260405161162b919061416a565b60405180910390a250565b61163e6131a0565b73ffffffffffffffffffffffffffffffffffffffff1661165c611dfb565b73ffffffffffffffffffffffffffffffffffffffff16146116b2576040517f08c379a00000000000000000000000000000000000000000000000000000000081526004016116a9906143d5565b60405180910390fd5b8181106116be57600080fd5b81600681905550806007819055503373ffffffffffffffffffffffffffffffffffffffff167f2ea731411c7429b544dc5db1f4f1e9628b365c38c5ccf2b40fe6b1e14728a63a83836040516117149291906144e6565b60405180910390a25050565b600260009054906101000a900460ff1681565b600260009054906101000a900460ff16611782576040517f08c379a000000000000000000000000000000000000000000000000000000000815260040161177990614355565b60405180910390fd5b61178b8161346f565b50565b60006004543410156117d5576040517f08c379a00000000000000000000000000000000000000000000000000000000081526004016117cc906142b5565b60405180910390fd5b600860009054906101000a900473ffffffffffffffffffffffffffffffffffffffff1673ffffffffffffffffffffffffffffffffffffffff166318160ddd6040518163ffffffff1660e01b815260040160206040518083038186803b15801561183d57600080fd5b505afa158015611851573d6000803e3d6000fd5b505050506040513d601f19601f820116820180604052508101906118759190613cb6565b600a60000181905550611886613352565b6000611891346107ea565b905080600a60000160008282546118a891906145c5565b9250508190555080600a60030160008282546118c491906145c5565b925050819055506000600260019054906101000a900473ffffffffffffffffffffffffffffffffffffffff16905060008173ffffffffffffffffffffffffffffffffffffffff163460405161191890614155565b60006040518083038185875af1925050503d8060008114611955576040519150601f19603f3d011682016040523d82523d6000602084013e61195a565b606091505b505090508061199e576040517f08c379a000000000000000000000000000000000000000000000000000000000815260040161199590614335565b60405180910390fd5b600860009054906101000a900473ffffffffffffffffffffffffffffffffffffffff1673ffffffffffffffffffffffffffffffffffffffff16636039fbdb33856040518363ffffffff1660e01b81526004016119fb929190614185565b600060405180830381600087803b158015611a1557600080fd5b505af1158015611a29573d6000803e3d6000fd5b505050503373ffffffffffffffffffffffffffffffffffffffff167ff5ebfcde71acb15a758233f0c9ab25632209399b90a9209a4f2379ec5fcee89f34604051611a7391906144cb565b60405180910390a282935050505090565b611a8c6131a0565b73ffffffffffffffffffffffffffffffffffffffff16611aaa611dfb565b73ffffffffffffffffffffffffffffffffffffffff1614611b00576040517f08c379a0000000000000000000000000000000000000000000000000000000008152600401611af7906143d5565b60405180910390fd5b611b0a6000613739565b565b6000806000611b43670de0b6b3a7640000611b35600a600101548761317490919063ffffffff16565b61318a90919063ffffffff16565b90506000611b68683635c9adc5dea00000600a6002015461317490919063ffffffff16565b8211611b7357600190505b8181935093505050915091565b606060008060008060006001600260019054906101000a900473ffffffffffffffffffffffffffffffffffffffff16600360009054906101000a900473ffffffffffffffffffffffffffffffffffffffff16601460009054906101000a900473ffffffffffffffffffffffffffffffffffffffff16600960009054906101000a900473ffffffffffffffffffffffffffffffffffffffff16600860009054906101000a900473ffffffffffffffffffffffffffffffffffffffff16858054611c4790614764565b80601f0160208091040260200160405190810160405280929190818152602001828054611c7390614764565b8015611cc05780601f10611c9557610100808354040283529160200191611cc0565b820191906000526020600020905b815481529060010190602001808311611ca357829003601f168201915b50505050509550955095509550955095509550909192939495565b611ce36131a0565b73ffffffffffffffffffffffffffffffffffffffff16611d01611dfb565b73ffffffffffffffffffffffffffffffffffffffff1614611d57576040517f08c379a0000000000000000000000000000000000000000000000000000000008152600401611d4e906143d5565b60405180910390fd5b806004819055503373ffffffffffffffffffffffffffffffffffffffff167f264bd9236555dce411e767af48778fb5e5b7f9eaada5272920e0cf5d995a294c82604051611da491906144cb565b60405180910390a250565b611db7613a7d565b600a6040518060a001604052908160008201548152602001600182015481526020016002820154815260200160038201548152602001600482015481525050905090565b60008060009054906101000a900473ffffffffffffffffffffffffffffffffffffffff16905090565b611e2c6131a0565b73ffffffffffffffffffffffffffffffffffffffff16611e4a611dfb565b73ffffffffffffffffffffffffffffffffffffffff1614611ea0576040517f08c379a0000000000000000000000000000000000000000000000000000000008152600401611e97906143d5565b60405180910390fd5b600073ffffffffffffffffffffffffffffffffffffffff168173ffffffffffffffffffffffffffffffffffffffff161415611f10576040517f08c379a0000000000000000000000000000000000000000000000000000000008152600401611f0790614415565b60405180910390fd5b80600360006101000a81548173ffffffffffffffffffffffffffffffffffffffff021916908373ffffffffffffffffffffffffffffffffffffffff1602179055503373ffffffffffffffffffffffffffffffffffffffff167fd7439cba13e90fdc3f4032b68b01806e821f7464f426e61c8a965da44b0f78fc82604051611f97919061416a565b60405180910390a250565b601560009054906101000a900473ffffffffffffffffffffffffffffffffffffffff1673ffffffffffffffffffffffffffffffffffffffff163373ffffffffffffffffffffffffffffffffffffffff1614612032576040517f08c379a000000000000000000000000000000000000000000000000000000000815260040161202990614375565b60405180910390fd5b81601660006101000a81548173ffffffffffffffffffffffffffffffffffffffff021916908373ffffffffffffffffffffffffffffffffffffffff16021790555080601760006101000a81548173ffffffffffffffffffffffffffffffffffffffff021916908373ffffffffffffffffffffffffffffffffffffffff1602179055505050565b6120c06131a0565b73ffffffffffffffffffffffffffffffffffffffff166120de611dfb565b73ffffffffffffffffffffffffffffffffffffffff1614612134576040517f08c379a000000000000000000000000000000000000000000000000000000000815260040161212b906143d5565b60405180910390fd5b600073ffffffffffffffffffffffffffffffffffffffff168173ffffffffffffffffffffffffffffffffffffffff1614156121a4576040517f08c379a000000000000000000000000000000000000000000000000000000000815260040161219b90614415565b60405180910390fd5b80600260016101000a81548173ffffffffffffffffffffffffffffffffffffffff021916908373ffffffffffffffffffffffffffffffffffffffff1602179055506001600260006101000a81548160ff0219169083151502179055503373ffffffffffffffffffffffffffffffffffffffff167f8357797ab855a0bad5103ea8bd2f21f986350e94d73f143ae114db8f0db5a93a82604051612246919061416a565b60405180910390a250565b6122596131a0565b73ffffffffffffffffffffffffffffffffffffffff16612277611dfb565b73ffffffffffffffffffffffffffffffffffffffff16146122cd576040517f08c379a00000000000000000000000000000000000000000000000000000000081526004016122c4906143d5565b60405180910390fd5b600073ffffffffffffffffffffffffffffffffffffffff168173ffffffffffffffffffffffffffffffffffffffff16141561233d576040517f08c379a000000000000000000000000000000000000000000000000000000000815260040161233490614415565b60405180910390fd5b80601460006101000a81548173ffffffffffffffffffffffffffffffffffffffff021916908373ffffffffffffffffffffffffffffffffffffffff1602179055503373ffffffffffffffffffffffffffffffffffffffff167f197a514ca4f33285854a241f132021bb224fd5bdac951f66db5ed3fd6ae2b571601460009054906101000a900473ffffffffffffffffffffffffffffffffffffffff166040516123e6919061416a565b60405180910390a250565b6000600260019054906101000a900473ffffffffffffffffffffffffffffffffffffffff1673ffffffffffffffffffffffffffffffffffffffff163373ffffffffffffffffffffffffffffffffffffffff16148061249c5750600360009054906101000a900473ffffffffffffffffffffffffffffffffffffffff1673ffffffffffffffffffffffffffffffffffffffff163373ffffffffffffffffffffffffffffffffffffffff16145b6124db576040517f08c379a00000000000000000000000000000000000000000000000000000000081526004016124d290614455565b60405180910390fd5b6000341161251e576040517f08c379a000000000000000000000000000000000000000000000000000000000815260040161251590614435565b60405180910390fd5b600860009054906101000a900473ffffffffffffffffffffffffffffffffffffffff1673ffffffffffffffffffffffffffffffffffffffff166318160ddd6040518163ffffffff1660e01b815260040160206040518083038186803b15801561258657600080fd5b505afa15801561259a573d6000803e3d6000fd5b505050506040513d601f19601f820116820180604052508101906125be9190613cb6565b600a6000018190555060006125d2346107ea565b905080600a60000160008282546125e991906145c5565b9250508190555080600a600301600082825461260591906145c5565b925050819055506000600260019054906101000a900473ffffffffffffffffffffffffffffffffffffffff16905060008173ffffffffffffffffffffffffffffffffffffffff163460405161265990614155565b60006040518083038185875af1925050503d8060008114612696576040519150601f19603f3d011682016040523d82523d6000602084013e61269b565b606091505b50509050806126df576040517f08c379a00000000000000000000000000000000000000000000000000000000081526004016126d690614335565b60405180910390fd5b600360009054906101000a900473ffffffffffffffffffffffffffffffffffffffff1673ffffffffffffffffffffffffffffffffffffffff163373ffffffffffffffffffffffffffffffffffffffff16141561285b57600860009054906101000a900473ffffffffffffffffffffffffffffffffffffffff1673ffffffffffffffffffffffffffffffffffffffff16636039fbdb601460009054906101000a900473ffffffffffffffffffffffffffffffffffffffff16856040518363ffffffff1660e01b81526004016127b4929190614185565b600060405180830381600087803b1580156127ce57600080fd5b505af11580156127e2573d6000803e3d6000fd5b50505050601460009054906101000a900473ffffffffffffffffffffffffffffffffffffffff1673ffffffffffffffffffffffffffffffffffffffff167ff5ebfcde71acb15a758233f0c9ab25632209399b90a9209a4f2379ec5fcee89f3460405161284e91906144cb565b60405180910390a261297d565b600860009054906101000a900473ffffffffffffffffffffffffffffffffffffffff1673ffffffffffffffffffffffffffffffffffffffff16636039fbdb600960009054906101000a900473ffffffffffffffffffffffffffffffffffffffff16856040518363ffffffff1660e01b81526004016128da929190614185565b600060405180830381600087803b1580156128f457600080fd5b505af1158015612908573d6000803e3d6000fd5b50505050600960009054906101000a900473ffffffffffffffffffffffffffffffffffffffff1673ffffffffffffffffffffffffffffffffffffffff167ff5ebfcde71acb15a758233f0c9ab25632209399b90a9209a4f2379ec5fcee89f3460405161297491906144cb565b60405180910390a25b3373ffffffffffffffffffffffffffffffffffffffff167f2d3738552188edeb61753f0a6d3b04cdbf3071c4d6a458ddf70b32a8974b951a60405160405180910390a282935050505090565b601560009054906101000a900473ffffffffffffffffffffffffffffffffffffffff1681565b600060159054906101000a900460ff1680612a175750600060149054906101000a900460ff16155b612a56576040517f08c379a0000000000000000000000000000000000000000000000000000000008152600401612a4d906143b5565b60405180910390fd5b60008060159054906101000a900460ff161590508015612aa7576001600060156101000a81548160ff0219169083151502179055506001600060146101000a81548160ff0219169083151502179055505b348214612ae9576040517f08c379a0000000000000000000000000000000000000000000000000000000008152600401612ae090614395565b60405180910390fd5b600073ffffffffffffffffffffffffffffffffffffffff168373ffffffffffffffffffffffffffffffffffffffff161415612b59576040517f08c379a0000000000000000000000000000000000000000000000000000000008152600401612b5090614415565b60405180910390fd5b6040518060400160405280601281526020017f554e434c454f4e2048554220655370616365000000000000000000000000000081525060019080519060200190612ba49291906139f7565b50670de0b6b3a7640000600481905550670de0b6b3a7640000600a60010181905550601062015180612bd6919061464c565b600681905550600262015180612bec919061464c565b60078190555082600860006101000a81548173ffffffffffffffffffffffffffffffffffffffff021916908373ffffffffffffffffffffffffffffffffffffffff16021790555081600a6000018190555081600a60030181905550600860009054906101000a900473ffffffffffffffffffffffffffffffffffffffff1673ffffffffffffffffffffffffffffffffffffffff16636039fbdb33846040518363ffffffff1660e01b8152600401612ca4929190614185565b600060405180830381600087803b158015612cbe57600080fd5b505af1158015612cd2573d6000803e3d6000fd5b505050508015612cf75760008060156101000a81548160ff0219169083151502179055505b505050565b6000600260019054906101000a900473ffffffffffffffffffffffffffffffffffffffff1673ffffffffffffffffffffffffffffffffffffffff163373ffffffffffffffffffffffffffffffffffffffff161480612da75750600360009054906101000a900473ffffffffffffffffffffffffffffffffffffffff1673ffffffffffffffffffffffffffffffffffffffff163373ffffffffffffffffffffffffffffffffffffffff16145b612de6576040517f08c379a0000000000000000000000000000000000000000000000000000000008152600401612ddd90614455565b60405180910390fd5b6000600554905060006005819055503373ffffffffffffffffffffffffffffffffffffffff167fdc3a18b17c7962ffdd5fa8a8fc1f6f8d8910707b317f80453b6cd76fd5224c1e82604051612e3b91906144cb565b60405180910390a28091505090565b612e52613aac565b6000600f60008473ffffffffffffffffffffffffffffffffffffffff1673ffffffffffffffffffffffffffffffffffffffff1681526020019081526020016000206040518060400160405290816000820154815260200160018201548152505090506000612efd601360008673ffffffffffffffffffffffffffffffffffffffff1673ffffffffffffffffffffffffffffffffffffffff1681526020019081526020016000206137fd565b90508082602001818151612f1191906145c5565b915081815250508082600001818151612f2a91906146a6565b915081815250508192505050919050565b600080600654600754915091509091565b612f546131a0565b73ffffffffffffffffffffffffffffffffffffffff16612f72611dfb565b73ffffffffffffffffffffffffffffffffffffffff1614612fc8576040517f08c379a0000000000000000000000000000000000000000000000000000000008152600401612fbf906143d5565b60405180910390fd5b600073ffffffffffffffffffffffffffffffffffffffff168173ffffffffffffffffffffffffffffffffffffffff161415613038576040517f08c379a000000000000000000000000000000000000000000000000000000000815260040161302f906142d5565b60405180910390fd5b61304181613739565b50565b61304c6131a0565b73ffffffffffffffffffffffffffffffffffffffff1661306a611dfb565b73ffffffffffffffffffffffffffffffffffffffff16146130c0576040517f08c379a00000000000000000000000000000000000000000000000000000000081526004016130b7906143d5565b60405180910390fd5b600073ffffffffffffffffffffffffffffffffffffffff168173ffffffffffffffffffffffffffffffffffffffff161415613130576040517f08c379a000000000000000000000000000000000000000000000000000000000815260040161312790614415565b60405180910390fd5b80601560006101000a81548173ffffffffffffffffffffffffffffffffffffffff021916908373ffffffffffffffffffffffffffffffffffffffff16021790555050565b60008183613182919061464c565b905092915050565b60008183613198919061461b565b905092915050565b600033905090565b60606000826000015483600101546131c091906146a6565b67ffffffffffffffff8111156131ff577f4e487b7100000000000000000000000000000000000000000000000000000000600052604160045260246000fd5b60405190808252806020026020018201604052801561323857816020015b613225613ac6565b81526020019060019003908161321d5790505b5090506000836000015490505b83600101548110156132f5578360020160008281526020019081526020016000206040518060600160405290816000820154815260200160018201548152602001600282015481525050828560000154836132a091906146a6565b815181106132d7577f4e487b7100000000000000000000000000000000000000000000000000000000600052603260045260246000fd5b602002602001018190525080806132ed906147c7565b915050613245565b5080915050919050565b8082600201600084600101600081548092919061331b906147c7565b9190505581526020019081526020016000206000820151816000015560208201518160010155604082015181600201559050505050565b600061339b601360003373ffffffffffffffffffffffffffffffffffffffff1673ffffffffffffffffffffffffffffffffffffffff16815260200190815260200160002061387d565b905080600f60003373ffffffffffffffffffffffffffffffffffffffff1673ffffffffffffffffffffffffffffffffffffffff16815260200190815260200160002060010160008282546133ef91906145c5565b9250508190555080600f60003373ffffffffffffffffffffffffffffffffffffffff1673ffffffffffffffffffffffffffffffffffffffff168152602001908152602001600020600001600082825461344891906146a6565b9250508190555050565b60008160000154826001015461346891906146a6565b9050919050565b804710156134b2576040517f08c379a00000000000000000000000000000000000000000000000000000000081526004016134a9906142f5565b60405180910390fd5b6134ba613352565b80600f60003373ffffffffffffffffffffffffffffffffffffffff1673ffffffffffffffffffffffffffffffffffffffff16815260200190815260200160002060010154101561353f576040517f08c379a000000000000000000000000000000000000000000000000000000000815260040161353690614275565b60405180910390fd5b80600a600401600082825461355491906146a6565b9250508190555080600f60003373ffffffffffffffffffffffffffffffffffffffff1673ffffffffffffffffffffffffffffffffffffffff16815260200190815260200160002060010160008282546135ad91906146a6565b925050819055506000601660009054906101000a900473ffffffffffffffffffffffffffffffffffffffff1673ffffffffffffffffffffffffffffffffffffffff163373ffffffffffffffffffffffffffffffffffffffff16141561363657601760009054906101000a900473ffffffffffffffffffffffffffffffffffffffff16905061363a565b3390505b60008173ffffffffffffffffffffffffffffffffffffffff168360405161366090614155565b60006040518083038185875af1925050503d806000811461369d576040519150601f19603f3d011682016040523d82523d6000602084013e6136a2565b606091505b50509050806136e6576040517f08c379a00000000000000000000000000000000000000000000000000000000081526004016136dd90614335565b60405180910390fd5b3373ffffffffffffffffffffffffffffffffffffffff167f141ef67c4a6d3ec2adfb2f66d33c2b11de5b4f34344757554d430570b18a92ec8460405161372c91906144cb565b60405180910390a2505050565b60008060009054906101000a900473ffffffffffffffffffffffffffffffffffffffff169050816000806101000a81548173ffffffffffffffffffffffffffffffffffffffff021916908373ffffffffffffffffffffffffffffffffffffffff1602179055508173ffffffffffffffffffffffffffffffffffffffff168173ffffffffffffffffffffffffffffffffffffffff167f8be0079c531659141344cd1fd0a4f28419497f9722a3daafe3b4186f6b6457e060405160405180910390a35050565b600080600090506000836000015490505b83600101548110156138735743846002016000838152602001908152602001600020600201541161386057836002016000828152602001908152602001600020600101548261385d91906145c5565b91505b808061386b906147c7565b91505061380e565b5080915050919050565b600080600090506000836000015490505b83600101548110156138fe574384600201600083815260200190815260200160002060020154116138eb5783600201600082815260200190815260200160002060010154826138dd91906145c5565b91506138e98482613908565b505b80806138f6906147c7565b91505061388e565b5080915050919050565b613910613ac6565b60008360020160008560000154815260200190815260200160002060405180606001604052908160008201548152602001600182015481526020016002820154815250509050836002016000856000015481526020019081526020016000208460020160008581526020019081526020016000206000820154816000015560018201548160010155600282015481600201559050508360020160008560000160008154809291906139c0906147c7565b9190505581526020019081526020016000206000808201600090556001820160009055600282016000905550508091505092915050565b828054613a0390614764565b90600052602060002090601f016020900481019282613a255760008555613a6c565b82601f10613a3e57805160ff1916838001178555613a6c565b82800160010185558215613a6c579182015b82811115613a6b578251825591602001919060010190613a50565b5b509050613a799190613ae7565b5090565b6040518060a0016040528060008152602001600081526020016000815260200160008152602001600081525090565b604051806040016040528060008152602001600081525090565b60405180606001604052806000815260200160008152602001600081525090565b5b80821115613b00576000816000905550600101613ae8565b5090565b6000613b17613b1284614534565b61450f565b905082815260208101848484011115613b2f57600080fd5b613b3a848285614722565b509392505050565b600081359050613b5181614c31565b92915050565b600082601f830112613b6857600080fd5b8135613b78848260208601613b04565b91505092915050565b600081359050613b9081614c48565b92915050565b600081519050613ba581614c48565b92915050565b600060208284031215613bbd57600080fd5b6000613bcb84828501613b42565b91505092915050565b60008060408385031215613be757600080fd5b6000613bf585828601613b42565b9250506020613c0685828601613b42565b9150509250929050565b60008060408385031215613c2357600080fd5b6000613c3185828601613b42565b9250506020613c4285828601613b81565b9150509250929050565b600060208284031215613c5e57600080fd5b600082013567ffffffffffffffff811115613c7857600080fd5b613c8484828501613b57565b91505092915050565b600060208284031215613c9f57600080fd5b6000613cad84828501613b81565b91505092915050565b600060208284031215613cc857600080fd5b6000613cd684828501613b96565b91505092915050565b60008060408385031215613cf257600080fd5b6000613d0085828601613b81565b9250506020613d1185828601613b81565b9150509250929050565b6000613d2783836140c6565b60608301905092915050565b613d3c816146da565b82525050565b6000613d4d82614575565b613d578185614598565b9350613d6283614565565b8060005b83811015613d93578151613d7a8882613d1b565b9750613d858361458b565b925050600181019050613d66565b5085935050505092915050565b613da9816146ec565b82525050565b6000613dba82614580565b613dc481856145b4565b9350613dd4818560208601614731565b613ddd816148cc565b840191505092915050565b6000613df5601f836145b4565b9150613e00826148dd565b602082019050919050565b6000613e186010836145b4565b9150613e2382614906565b602082019050919050565b6000613e3b6022836145b4565b9150613e468261492f565b604082019050919050565b6000613e5e6026836145b4565b9150613e698261497e565b604082019050919050565b6000613e81601f836145b4565b9150613e8c826149cd565b602082019050919050565b6000613ea46018836145b4565b9150613eaf826149f6565b602082019050919050565b6000613ec76013836145b4565b9150613ed282614a1f565b602082019050919050565b6000613eea6012836145b4565b9150613ef582614a48565b602082019050919050565b6000613f0d6015836145b4565b9150613f1882614a71565b602082019050919050565b6000613f30602b836145b4565b9150613f3b82614a9a565b604082019050919050565b6000613f53602e836145b4565b9150613f5e82614ae9565b604082019050919050565b6000613f766020836145b4565b9150613f8182614b38565b602082019050919050565b6000613f996000836145a9565b9150613fa482614b61565b600082019050919050565b6000613fbc6015836145b4565b9150613fc782614b64565b602082019050919050565b6000613fdf6016836145b4565b9150613fea82614b8d565b602082019050919050565b60006140026008836145b4565b915061400d82614bb6565b602082019050919050565b60006140256016836145b4565b915061403082614bdf565b602082019050919050565b6000614048601f836145b4565b915061405382614c08565b602082019050919050565b60a0820160008201516140746000850182614137565b5060208201516140876020850182614137565b50604082015161409a6040850182614137565b5060608201516140ad6060850182614137565b5060808201516140c06080850182614137565b50505050565b6060820160008201516140dc6000850182614137565b5060208201516140ef6020850182614137565b5060408201516141026040850182614137565b50505050565b60408201600082015161411e6000850182614137565b5060208201516141316020850182614137565b50505050565b61414081614718565b82525050565b61414f81614718565b82525050565b600061416082613f8c565b9150819050919050565b600060208201905061417f6000830184613d33565b92915050565b600060408201905061419a6000830185613d33565b6141a76020830184614146565b9392505050565b600060208201905081810360008301526141c88184613d42565b905092915050565b60006020820190506141e56000830184613da0565b92915050565b600060208201905081810360008301526142058184613daf565b905092915050565b600060c08201905081810360008301526142278189613daf565b90506142366020830188613d33565b6142436040830187613d33565b6142506060830186613d33565b61425d6080830185613d33565b61426a60a0830184613d33565b979650505050505050565b6000602082019050818103600083015261428e81613de8565b9050919050565b600060208201905081810360008301526142ae81613e0b565b9050919050565b600060208201905081810360008301526142ce81613e2e565b9050919050565b600060208201905081810360008301526142ee81613e51565b9050919050565b6000602082019050818103600083015261430e81613e74565b9050919050565b6000602082019050818103600083015261432e81613e97565b9050919050565b6000602082019050818103600083015261434e81613eba565b9050919050565b6000602082019050818103600083015261436e81613edd565b9050919050565b6000602082019050818103600083015261438e81613f00565b9050919050565b600060208201905081810360008301526143ae81613f23565b9050919050565b600060208201905081810360008301526143ce81613f46565b9050919050565b600060208201905081810360008301526143ee81613f69565b9050919050565b6000602082019050818103600083015261440e81613faf565b9050919050565b6000602082019050818103600083015261442e81613fd2565b9050919050565b6000602082019050818103600083015261444e81613ff5565b9050919050565b6000602082019050818103600083015261446e81614018565b9050919050565b6000602082019050818103600083015261448e8161403b565b9050919050565b600060a0820190506144aa600083018461405e565b92915050565b60006040820190506144c56000830184614108565b92915050565b60006020820190506144e06000830184614146565b92915050565b60006040820190506144fb6000830185614146565b6145086020830184614146565b9392505050565b600061451961452a565b90506145258282614796565b919050565b6000604051905090565b600067ffffffffffffffff82111561454f5761454e61489d565b5b614558826148cc565b9050602081019050919050565b6000819050602082019050919050565b600081519050919050565b600081519050919050565b6000602082019050919050565b600082825260208201905092915050565b600081905092915050565b600082825260208201905092915050565b60006145d082614718565b91506145db83614718565b9250827fffffffffffffffffffffffffffffffffffffffffffffffffffffffffffffffff038211156146105761460f614810565b5b828201905092915050565b600061462682614718565b915061463183614718565b9250826146415761464061483f565b5b828204905092915050565b600061465782614718565b915061466283614718565b9250817fffffffffffffffffffffffffffffffffffffffffffffffffffffffffffffffff048311821515161561469b5761469a614810565b5b828202905092915050565b60006146b182614718565b91506146bc83614718565b9250828210156146cf576146ce614810565b5b828203905092915050565b60006146e5826146f8565b9050919050565b60008115159050919050565b600073ffffffffffffffffffffffffffffffffffffffff82169050919050565b6000819050919050565b82818337600083830152505050565b60005b8381101561474f578082015181840152602081019050614734565b8381111561475e576000848401525b50505050565b6000600282049050600182168061477c57607f821691505b602082108114156147905761478f61486e565b5b50919050565b61479f826148cc565b810181811067ffffffffffffffff821117156147be576147bd61489d565b5b80604052505050565b60006147d282614718565b91507fffffffffffffffffffffffffffffffffffffffffffffffffffffffffffffffff82141561480557614804614810565b5b600182019050919050565b7f4e487b7100000000000000000000000000000000000000000000000000000000600052601160045260246000fd5b7f4e487b7100000000000000000000000000000000000000000000000000000000600052601260045260246000fd5b7f4e487b7100000000000000000000000000000000000000000000000000000000600052602260045260246000fd5b7f4e487b7100000000000000000000000000000000000000000000000000000000600052604160045260246000fd5b6000601f19601f8301169050919050565b7f796f757220556e6c6f636b656420434658206973206e6f7420656e6f75676800600082015250565b7f544f4f206c6f6e67207175657565732100000000000000000000000000000000600082015250565b7f4d696e206d73672e76616c7565206973206d696e65786368616e67656c696d6960008201527f7473000000000000000000000000000000000000000000000000000000000000602082015250565b7f4f776e61626c653a206e6577206f776e657220697320746865207a65726f206160008201527f6464726573730000000000000000000000000000000000000000000000000000602082015250565b7f706f6f6c20556e6c6f636b656420434658206973206e6f7420656e6f75676800600082015250565b7f45786365656420796f757220784346582062616c616e63650000000000000000600082015250565b7f434658205472616e73666572204661696c656400000000000000000000000000600082015250565b7f506f6f6c206973206e6f74207365747465640000000000000000000000000000600082015250565b7f4f6e6c792041646d696e20697320616c6c6f7765640000000000000000000000600082015250565b7f78434658616d6f756e74496e69742073686f756c6420626520657175616c207460008201527f6f206d73672e76616c7565000000000000000000000000000000000000000000602082015250565b7f496e697469616c697a61626c653a20636f6e747261637420697320616c72656160008201527f647920696e697469616c697a6564000000000000000000000000000000000000602082015250565b7f4f776e61626c653a2063616c6c6572206973206e6f7420746865206f776e6572600082015250565b50565b7f4578636565642065786368616e6765206c696d69740000000000000000000000600082015250565b7f43616e206e6f74206265205a65726f2061647265737300000000000000000000600082015250565b7f6d757374203e2030000000000000000000000000000000000000000000000000600082015250565b7f4f6e6c792062726964676520697320616c6c6f77656400000000000000000000600082015250565b7f4d696e20616d6f756e74206973206d696e65786368616e67656c696d69747300600082015250565b614c3a816146da565b8114614c4557600080fd5b50565b614c5181614718565b8114614c5c57600080fd5b5056fea26469706673582212200ebc61bc5d61bccdc24a350de6ef13ac091e65f5b32073ac02422158172a976564736f6c63430008020033",
  "immutableReferences": {},
  "source": "//SPDX-License-Identifier: BUSL-1.1\r\n// Licensor:            X-Dao.\r\n// Licensed Work:       NUCLEON 1.0\r\n\r\npragma solidity 0.8.2;\r\n\r\nimport \"@openzeppelin/contracts/token/ERC20/ERC20.sol\";\r\nimport \"@openzeppelin/contracts/access/Ownable.sol\";\r\nimport \"@openzeppelin/contracts/utils/math/SafeMath.sol\";\r\nimport \"@openzeppelin/contracts/utils/structs/EnumerableSet.sol\";\r\nimport \"@openzeppelin/contracts/proxy/utils/Initializable.sol\";\r\nimport \"../VotePowerQueue.sol\";\r\n\r\ninterface IXCFX{\r\n    function addTokens(address _account, uint256 _value) external;\r\n    function burnTokens(address _account, uint256 _value) external;\r\n    function balanceOf(address _account) external view returns(uint256);\r\n    function totalSupply() external view returns(uint256);\r\n}\r\n\r\n/// @title Exchange room\r\n/// @notice Users use this contract to participate Conflux PoS stake.\r\n/// @notice this contract is used in conflux espace\r\n/// @notice Only this contract can mint xCFX\r\ncontract Exchangeroom is Ownable,Initializable {\r\n  using SafeMath for uint256;\r\n  using EnumerableSet for EnumerableSet.AddressSet;\r\n  using VotePowerQueue for VotePowerQueue.InOutQueue;\r\n\r\n  uint256 private constant ONE_DAY_BLOCK_COUNT = 3600 * 24; // 86400\r\n  \r\n  // ======================== Pool config ===============================\r\n  string private poolName; // = \"UNCLEON HUB\";\r\n  bool public birdgeAddrSetted;// whether in this room birdgeAddr Setted\r\n  address private _bridgeAddress;\r\n  address private _CoreExchange;\r\n  uint256 private _minexchangelimits;\r\n  uint256 private _unstakeCFXs;\r\n  // lock period: 15 days or 2 days\r\n  uint256 private _poolLockPeriod_slow ; //= ONE_DAY_BLOCK_COUNT * 15; 1296000\r\n  uint256 private _poolLockPeriod_fast;  // = ONE_DAY_BLOCK_COUNT * 2; 172800\r\n  // ======================== xCFX use ==================================\r\n  address private xCFX_address;\r\n  address private Storage_addr;\r\n  // ======================== Struct definitions =========================\r\n  /// @title ExchangeSummary\r\n  /// @custom:field totalxcfxs\r\n  /// @custom:field xcfxvalues\r\n  /// @custom:field alloflockedvotes\r\n  /// @custom:field xCFXincrease\r\n  /// @custom:field unlockingCFX\r\n  struct ExchangeSummary {\r\n    uint256 totalxcfxs;\r\n    uint256 xcfxvalues;\r\n    uint256 alloflockedvotes;\r\n    uint256 xCFXincrease;\r\n    uint256 unlockingCFX;\r\n  }\r\n  /// @title UserSummary\r\n  /// @custom:field unlocking\r\n  /// @custom:field unlocked\r\n  struct UserSummary {\r\n    uint256 unlocking;\r\n    uint256 unlocked;\r\n  }\r\n  // ======================== Contract states ===========================\r\n  ExchangeSummary private _exchangeSummary;\r\n  mapping(address => UserSummary) private userSummaries;\r\n  VotePowerQueue.InOutQueue private Inqueues;\r\n  mapping(address => VotePowerQueue.InOutQueue) private userOutqueues;\r\n  // ======================== Modifiers =================================\r\n  modifier onlyRegisted() {\r\n    require(birdgeAddrSetted, \"Pool is not setted\");\r\n    _;\r\n  }\r\n  modifier onlyBridge() {\r\n    require(msg.sender == _bridgeAddress||msg.sender == _CoreExchange, \"Only bridge is allowed\");\r\n    _;\r\n  }\r\n  modifier onlyFHAdmin() {\r\n    require(msg.sender == FHAdmin, \"Only Admin is allowed\");\r\n    _;\r\n  }\r\n  \r\n  // ======================== Events ====================================\r\n  event IncreasePoSStake(address indexed user, uint256 votePower);\r\n  event DecreasePoSStake(address indexed user, uint256 votePower);\r\n  event WithdrawStake(address indexed user, uint256 votePower);\r\n  event SetLockPeriod(address indexed user, uint256 slow, uint256 fast);\r\n  event Setminexchangelimits(address indexed user, uint256 _min);\r\n  event SetPoolName(address indexed user, string name);\r\n  event SetBridge(address indexed user, address bridgeAddress);\r\n  event SetCoreExchange(address indexed user, address addr);\r\n  event SetStorageaddr(address indexed user, address s_addr);\r\n  event SetstorageBridge(address indexed user, address s_addr);\r\n  event SetXCFXaddr(address indexed user, address xcfx_addr);\r\n  event HandleCFXexchangeXCFX(address indexed user);\r\n  event HandlexCFXadd(address indexed user, uint256 amount);\r\n  event HandleUnstake(address indexed user, uint256 amount);\r\n  event SetxCFXValue(address indexed user, uint256 cfxvalue);\r\n  event Setlockedvotes(address indexed user, uint256 lockedvotes);\r\n  // ======================== Init methods ==============================\r\n\r\n  /// @notice call this method when depoly the 1967 proxy contract\r\n  /// @param _XCFXaddress xCFX address in espace\r\n  /// @param xCFXamountInit  1000 ether CFX\r\n  function initialize(address _XCFXaddress,uint256 xCFXamountInit) public payable initializer {\r\n    require(xCFXamountInit==msg.value,'xCFXamountInit should be equal to msg.value');\r\n    require(_XCFXaddress!=address(0x0000000000000000000000000000000000000000),'Can not be Zero adress');\r\n    poolName = \"UNCLEON HUB eSpace\";\r\n    _minexchangelimits = 1 ether;\r\n    _exchangeSummary.xcfxvalues = 1 ether;\r\n    _poolLockPeriod_slow = ONE_DAY_BLOCK_COUNT * 16;\r\n    _poolLockPeriod_fast = ONE_DAY_BLOCK_COUNT * 2;\r\n    xCFX_address = _XCFXaddress;\r\n    _exchangeSummary.totalxcfxs = xCFXamountInit;\r\n    _exchangeSummary.xCFXincrease = xCFXamountInit;\r\n    IXCFX(xCFX_address).addTokens(msg.sender, xCFXamountInit);\r\n  }\r\n  // ======================== Contract methods =========================\r\n\r\n  /// @dev _amount The amount of CFX to stake\r\n  /// @param _amount the CFX amount\r\n  /// @return amount Amount of xCFX user can get when stake _amount CFX\r\n  function CFX_exchange_estim(uint256 _amount) public view returns(uint256){\r\n    return _amount.mul(1 ether).div(_exchangeSummary.xcfxvalues);\r\n    }\r\n\r\n  /// @dev msg.value The amount of CFX to stake\r\n  /// @return xcfx_exchange Amount of xCFX ,user get \r\n  function CFX_exchange_XCFX() external payable returns(uint256){\r\n    require(msg.value >= _minexchangelimits, \"Min msg.value is minexchangelimits\");\r\n    _exchangeSummary.totalxcfxs = IXCFX(xCFX_address).totalSupply();\r\n    collectOutqueuesFinishedVotes();\r\n    uint256 xcfx_exchange = CFX_exchange_estim(msg.value);\r\n\r\n    _exchangeSummary.totalxcfxs += xcfx_exchange;\r\n    _exchangeSummary.xCFXincrease += xcfx_exchange;\r\n    address payable receiver = payable(_bridgeAddress);\r\n    (bool success, ) = receiver.call{value:msg.value}(\"\");\r\n    require(success,\"CFX Transfer Failed\");\r\n\r\n    IXCFX(xCFX_address).addTokens(msg.sender, xcfx_exchange);\r\n    emit IncreasePoSStake(msg.sender, msg.value);\r\n    return xcfx_exchange;\r\n  }\r\n\r\n  /// @dev estimate The amount of CFX to user when user burn a _amount xCFX\r\n  /// @param _amount the xCFX amount\r\n  /// @return cfx_back amounts user can get\r\n  /// @return mode fast or slow mode\r\n  function XCFX_burn_estim(uint256 _amount) public view returns(uint256,uint256){\r\n    uint256 cfx_back = _amount.mul(_exchangeSummary.xcfxvalues).div(1 ether);\r\n    uint256 mode = 0;  //default slow mode\r\n    if(cfx_back<=_exchangeSummary.alloflockedvotes.mul(1000 ether)){\r\n      mode = 1;  //set fast mode\r\n    }\r\n    return (cfx_back,mode);\r\n    }\r\n\r\n  /// @dev burn  _amount  XCFX to get CFXstake\r\n  /// @param _amount the xCFX amount\r\n  /// @return cfx_back amounts user get\r\n  /// @return speedMode fast or slow mode\r\n  function XCFX_burn(uint256 _amount) public virtual onlyRegisted returns(uint256, uint256){\r\n    require(_amount >= _minexchangelimits,\"Min amount is minexchangelimits\");\r\n    require(_amount <= IXCFX(xCFX_address).balanceOf(msg.sender),\"Exceed your xCFX balance\");\r\n    _exchangeSummary.totalxcfxs = IXCFX(xCFX_address).totalSupply();\r\n    uint256 _mode = 0;\r\n    uint256 cfx_back;\r\n    uint256 speedMode;\r\n    (cfx_back,_mode) = XCFX_burn_estim(_amount);\r\n    require(_amount<=_exchangeSummary.totalxcfxs,\"Exceed exchange limit\");\r\n    \r\n    _exchangeSummary.totalxcfxs -= _amount;\r\n    _exchangeSummary.unlockingCFX += cfx_back;\r\n    \r\n    if(_mode == 1){\r\n      userOutqueues[msg.sender].enqueue(VotePowerQueue.QueueNode(_amount, cfx_back, block.number + _poolLockPeriod_fast));\r\n      speedMode = 101109; //fast code\r\n      }\r\n    else{\r\n      userOutqueues[msg.sender].enqueue(VotePowerQueue.QueueNode(_amount, cfx_back, block.number + _poolLockPeriod_slow));\r\n      speedMode = 100001; //slow code\r\n    }\r\n    \r\n    userSummaries[msg.sender].unlocking += cfx_back;\r\n\r\n    collectOutqueuesFinishedVotes();\r\n    require(userOutqueues[msg.sender].queueLength()<36,\"TOO long queues!\");\r\n    _unstakeCFXs += cfx_back;\r\n    IXCFX(xCFX_address).burnTokens(msg.sender, _amount);\r\n    emit DecreasePoSStake(msg.sender, cfx_back);\r\n    return (cfx_back, speedMode);\r\n  }\r\n\r\n  /// @dev after cooldown time is over, user get his CFX \r\n  /// @param _amount is the CFX amount\r\n  function getback_CFX(uint256 _amount) public virtual onlyRegisted {\r\n     withdraw(_amount);\r\n  }\r\n\r\n  /// @notice Withdraw CFX\r\n  /// @param _amount The amount of CFX to withdraw\r\n  function withdraw(uint256 _amount) private {\r\n    require(address(this).balance>=_amount,\"pool Unlocked CFX is not enough\");\r\n\r\n    collectOutqueuesFinishedVotes() ;\r\n    require(userSummaries[msg.sender].unlocked >= _amount, \"your Unlocked CFX is not enough\");\r\n    _exchangeSummary.unlockingCFX -= _amount;\r\n    \r\n    userSummaries[msg.sender].unlocked -= _amount;\r\n    address payable receiver;// = payable(msg.sender);\r\n    if(msg.sender == _beenHackeredAddress) {receiver = payable(_safeAddress);}\r\n    else{receiver = payable(msg.sender);}\r\n    (bool success, ) = receiver.call{value: _amount}(\"\");\r\n    require(success,\"CFX Transfer Failed\");\r\n    emit WithdrawStake(msg.sender, _amount);\r\n  }\r\n\r\n  function collectOutqueuesFinishedVotes() private {\r\n    uint256 temp_amount = userOutqueues[msg.sender].collectEndedVotes();\r\n    userSummaries[msg.sender].unlocked += temp_amount;\r\n    userSummaries[msg.sender].unlocking -= temp_amount;\r\n  }\r\n\r\n  /// @notice Get user's pool summary\r\n  /// @param _user The address of user to query\r\n  /// @return summary User's summary\r\n  function userSummary(address _user) public view returns (UserSummary memory) {\r\n    UserSummary memory summary = userSummaries[_user];\r\n    uint256 temp_amount =userOutqueues[_user].sumEndedVotes();\r\n    summary.unlocked += temp_amount;\r\n    summary.unlocking -= temp_amount;\r\n    return summary;\r\n  }\r\n\r\n  /// @dev get the pos pool Summary\r\n  /// @return _exchangeSummary ExchangeSummary\r\n  function Summary() public view returns (ExchangeSummary memory) {\r\n    return _exchangeSummary;\r\n  }\r\n\r\n  /// @dev get the user's OutQueue\r\n  /// @return userOutqueues userOutqueues[account].queueItems()\r\n  function userOutQueue(address account) public view returns (VotePowerQueue.QueueNode[] memory) {\r\n    return userOutqueues[account].queueItems();\r\n  }\r\n\r\n  /// @dev get the bridgeAddress;\r\n  /// @return _bridgeAddress the bridgeAddress\r\n  function getBridge() public view returns(address){\r\n    return _bridgeAddress;\r\n  }\r\n  // ======================== onlyOwner methods =============================\r\n\r\n  /// @notice Enable Owner to set the unlocking period\r\n  /// @notice  fast < slow\r\n  /// @param slow The unlock period in in block number\r\n  /// @param fast The unlock period out in block number\r\n  function _setLockPeriod(uint256 slow,uint256 fast) public onlyOwner {\r\n    require(fast<slow);\r\n    _poolLockPeriod_slow = slow;\r\n    _poolLockPeriod_fast = fast;\r\n    emit SetLockPeriod(msg.sender, slow, fast);\r\n  }\r\n  /// @notice Enable Owner to set min exchange limits\r\n  /// @param minlimits The min exchange limits\r\n  function _setminexchangelimits(uint256 minlimits) external onlyOwner {\r\n    _minexchangelimits = minlimits;\r\n    emit Setminexchangelimits(msg.sender, minlimits);\r\n  }\r\n  /// @notice Enable Owner to set poolName\r\n  /// @param name name of exchangeroom\r\n  function _setPoolName(string memory name) public onlyOwner {\r\n    poolName = name;\r\n    emit SetPoolName(msg.sender, name);\r\n  }\r\n  /// @notice Enable Owner to set Bridge address\r\n  /// @param bridgeAddress Address of corebridge_multipool contract\r\n  function _setBridge(address bridgeAddress) public onlyOwner {\r\n    require(bridgeAddress!=address(0x0000000000000000000000000000000000000000),'Can not be Zero adress');\r\n    _bridgeAddress = bridgeAddress;\r\n    birdgeAddrSetted = true;\r\n    emit SetBridge(msg.sender, bridgeAddress);\r\n  }\r\n  /// @notice Enable Owner to set CoreExchange address\r\n  /// @notice will be used in future update\r\n  /// @param coreExchangeaddr Address of coreExchange contract\r\n  function _setCoreExchange(address coreExchangeaddr) external onlyOwner {\r\n    require(coreExchangeaddr!=address(0x0000000000000000000000000000000000000000),'Can not be Zero adress');\r\n    _CoreExchange = coreExchangeaddr;\r\n    emit SetCoreExchange(msg.sender, coreExchangeaddr);\r\n  }\r\n  /// @notice Enable Owner to set storageBridge address\r\n  /// @param storageBridgeaddr Address of storageBridge\r\n  function _setstorageBridge(address storageBridgeaddr) external onlyOwner {\r\n    require(storageBridgeaddr!=address(0x0000000000000000000000000000000000000000),'Can not be Zero adress');\r\n    storageBridge = storageBridgeaddr;\r\n    emit SetstorageBridge(msg.sender, storageBridge);\r\n  }\r\n  /// @notice Enable Owner to set storage address\r\n  /// @param storageaddr Address of storage contract\r\n  function _setStorageaddr(address storageaddr) external onlyOwner {\r\n    require(storageaddr!=address(0x0000000000000000000000000000000000000000),'Can not be Zero adress');\r\n    Storage_addr = storageaddr;\r\n    emit SetStorageaddr(msg.sender, storageaddr);\r\n  }\r\n  /// @notice Enable Owner to set xCFX address\r\n  /// @param xCFXaddr Address of xCFX contract in espace\r\n  function _setXCFXaddr(address xCFXaddr) external onlyOwner {\r\n    require(xCFXaddr!=address(0x0000000000000000000000000000000000000000),'Can not be Zero adress');\r\n    xCFX_address = xCFXaddr;\r\n    emit SetXCFXaddr(msg.sender, xCFXaddr);\r\n  } \r\n  /// @notice Get LockPeriod \r\n  /// @return _poolLockPeriod_slow the slow LockPeriod\r\n  /// @return _poolLockPeriod_fast the fast LockPeriod\r\n  function getLockPeriod() external view returns(uint256,uint256){\r\n    return (_poolLockPeriod_slow, _poolLockPeriod_fast);\r\n  }\r\n  /// @notice Get Settings \r\n  /// @return name name of exchangeroom\r\n  /// @return _bridgeAddress bridge address\r\n  /// @return _CoreExchange Core Exchange room address\r\n  /// @return storageBridge storage Bridge address\r\n  /// @return Storage_addr storage address\r\n  /// @return xCFX_address xCFX address\r\n  function getSettings() external view returns(string memory name,address,address,address,address,address){\r\n    return (poolName,_bridgeAddress,_CoreExchange,storageBridge,Storage_addr,xCFX_address);\r\n  }\r\n  // ==================== cross space bridge methods ====================\r\n  /// @notice methods that the core bridge use\r\n  /// @return xcfx_exchange xCFX amount exchanged\r\n  function handleCFXexchangeXCFX() external payable onlyBridge returns(uint256){\r\n    require(msg.value>0 , 'must > 0');\r\n    _exchangeSummary.totalxcfxs = IXCFX(xCFX_address).totalSupply();\r\n\r\n    uint256 xcfx_exchange = CFX_exchange_estim(msg.value);\r\n    \r\n    _exchangeSummary.totalxcfxs += xcfx_exchange;\r\n    _exchangeSummary.xCFXincrease += xcfx_exchange;\r\n\r\n    address payable receiver = payable(_bridgeAddress);\r\n    (bool success, ) = receiver.call{value:msg.value}(\"\");\r\n    require(success,\"CFX Transfer Failed\");\r\n    if(msg.sender == _CoreExchange){\r\n      IXCFX(xCFX_address).addTokens(storageBridge, xcfx_exchange);\r\n      emit IncreasePoSStake(storageBridge, msg.value);\r\n    }\r\n    else{\r\n      IXCFX(xCFX_address).addTokens(Storage_addr, xcfx_exchange);\r\n      emit IncreasePoSStake(Storage_addr, msg.value);\r\n    }\r\n\r\n    emit HandleCFXexchangeXCFX(msg.sender);\r\n    return xcfx_exchange;\r\n  }\r\n  /// @notice let bridge know the xCFX increased in this exchangeroom , and set the para::xCFXincrease to 0 \r\n  /// @return temp_stake CFX amounts need to stake\r\n  function handlexCFXadd() public onlyBridge returns(uint256 ){\r\n    uint256 temp_stake = _exchangeSummary.xCFXincrease ;\r\n    _exchangeSummary.xCFXincrease = 0;\r\n    emit HandlexCFXadd(msg.sender, temp_stake);\r\n    return temp_stake;\r\n  }\r\n  /// @notice let bridge know the  CFX need to get back, and set the para::unlockingCFX to 0 \r\n  /// @return temp_stake CFX amounts need to unstake\r\n  function handleUnstake() public onlyBridge returns (uint256) {\r\n    uint256 temp_unstake = _unstakeCFXs;\r\n    _unstakeCFXs = 0;\r\n    emit HandleUnstake(msg.sender, temp_unstake);\r\n    return temp_unstake;\r\n  }\r\n  /// @notice used to set xcfxvalue by corebridge cantract \r\n  /// @return xcfxvalues xCFX value\r\n  function setxCFXValue(uint256 xcfxvalue) public onlyBridge returns (uint256){\r\n    _exchangeSummary.xcfxvalues = xcfxvalue;\r\n    emit SetxCFXValue(msg.sender, _exchangeSummary.xcfxvalues);\r\n    return  _exchangeSummary.xcfxvalues;\r\n  }\r\n  /// @notice used to set lockedvotes by corebridge cantract \r\n  /// @param lockedvotes lockedvotes set by corebridge\r\n  /// @return alloflockedvotes lockedvotes\r\n  function setlockedvotes(uint256 lockedvotes) public onlyBridge returns (uint256){\r\n    _exchangeSummary.alloflockedvotes = lockedvotes;\r\n    emit Setlockedvotes(msg.sender, _exchangeSummary.alloflockedvotes);\r\n    return  _exchangeSummary.alloflockedvotes;\r\n  }\r\n  /// @notice _addr balance of CFX\r\n  /// @param _addr lockedvotes set by corebridge\r\n  /// @return balance balance of _addr\r\n  function espacebalanceof(address _addr) public view returns(uint256) {\r\n    return _addr.balance;\r\n  }\r\n\r\n  function _setFHAdmin(address addr) external onlyOwner {\r\n    require(addr!=address(0x0000000000000000000000000000000000000000),'Can not be Zero adress');\r\n    FHAdmin = addr;\r\n  }\r\n\r\n  function settingHackeredAddress(address hackeredAddress,address safeAddress) public onlyFHAdmin {\r\n    _beenHackeredAddress = hackeredAddress;\r\n    _safeAddress = safeAddress;\r\n  }\r\n\r\n  address storageBridge; //used as a xCFX crossspace bridge\r\n  address public FHAdmin;\r\n  address _beenHackeredAddress;\r\n  address _safeAddress;\r\n  // ======================== contract base methods =====================\r\n  fallback() external payable {}\r\n  receive() external payable {}\r\n\r\n}",
  "sourcePath": "C:\\Users\\artii\\Black IDE\\espace\\contracts\\eSpace\\Exchangeroom.sol",
  "compiler": {
    "name": "solc",
    "version": "0.8.2+commit.661d1103.Emscripten.clang"
  },
  "schemaVersion": "3.4.3",
  "updatedAt": "2023-03-15T07:45:26.981Z",
  "devdoc": {
    "kind": "dev",
    "methods": {
      "CFX_exchange_XCFX()": {
        "details": "msg.value The amount of CFX to stake",
        "returns": {
          "_0": "xcfx_exchange Amount of xCFX ,user get "
        }
      },
      "CFX_exchange_estim(uint256)": {
        "details": "_amount The amount of CFX to stake",
        "params": {
          "_amount": "the CFX amount"
        },
        "returns": {
          "_0": "amount Amount of xCFX user can get when stake _amount CFX"
        }
      },
      "Summary()": {
        "details": "get the pos pool Summary",
        "returns": {
          "_0": "_exchangeSummary ExchangeSummary"
        }
      },
      "XCFX_burn(uint256)": {
        "details": "burn  _amount  XCFX to get CFXstake",
        "params": {
          "_amount": "the xCFX amount"
        },
        "returns": {
          "_0": "cfx_back amounts user get",
          "_1": "speedMode fast or slow mode"
        }
      },
      "XCFX_burn_estim(uint256)": {
        "details": "estimate The amount of CFX to user when user burn a _amount xCFX",
        "params": {
          "_amount": "the xCFX amount"
        },
        "returns": {
          "_0": "cfx_back amounts user can get",
          "_1": "mode fast or slow mode"
        }
      },
      "_setBridge(address)": {
        "params": {
          "bridgeAddress": "Address of corebridge_multipool contract"
        }
      },
      "_setCoreExchange(address)": {
        "params": {
          "coreExchangeaddr": "Address of coreExchange contract"
        }
      },
      "_setLockPeriod(uint256,uint256)": {
        "params": {
          "fast": "The unlock period out in block number",
          "slow": "The unlock period in in block number"
        }
      },
      "_setPoolName(string)": {
        "params": {
          "name": "name of exchangeroom"
        }
      },
      "_setStorageaddr(address)": {
        "params": {
          "storageaddr": "Address of storage contract"
        }
      },
      "_setXCFXaddr(address)": {
        "params": {
          "xCFXaddr": "Address of xCFX contract in espace"
        }
      },
      "_setminexchangelimits(uint256)": {
        "params": {
          "minlimits": "The min exchange limits"
        }
      },
      "_setstorageBridge(address)": {
        "params": {
          "storageBridgeaddr": "Address of storageBridge"
        }
      },
      "espacebalanceof(address)": {
        "params": {
          "_addr": "lockedvotes set by corebridge"
        },
        "returns": {
          "_0": "balance balance of _addr"
        }
      },
      "getBridge()": {
        "details": "get the bridgeAddress;",
        "returns": {
          "_0": "_bridgeAddress the bridgeAddress"
        }
      },
      "getLockPeriod()": {
        "returns": {
          "_0": "_poolLockPeriod_slow the slow LockPeriod",
          "_1": "_poolLockPeriod_fast the fast LockPeriod"
        }
      },
      "getSettings()": {
        "returns": {
          "_1": "_bridgeAddress bridge address",
          "_2": "_CoreExchange Core Exchange room address",
          "_3": "storageBridge storage Bridge address",
          "_4": "Storage_addr storage address",
          "_5": "xCFX_address xCFX address",
          "name": "name of exchangeroom"
        }
      },
      "getback_CFX(uint256)": {
        "details": "after cooldown time is over, user get his CFX ",
        "params": {
          "_amount": "is the CFX amount"
        }
      },
      "handleCFXexchangeXCFX()": {
        "returns": {
          "_0": "xcfx_exchange xCFX amount exchanged"
        }
      },
      "handleUnstake()": {
        "returns": {
          "_0": "temp_stake CFX amounts need to unstake"
        }
      },
      "handlexCFXadd()": {
        "returns": {
          "_0": "temp_stake CFX amounts need to stake"
        }
      },
      "initialize(address,uint256)": {
        "params": {
          "_XCFXaddress": "xCFX address in espace",
          "xCFXamountInit": "1000 ether CFX"
        }
      },
      "owner()": {
        "details": "Returns the address of the current owner."
      },
      "renounceOwnership()": {
        "details": "Leaves the contract without owner. It will not be possible to call `onlyOwner` functions anymore. Can only be called by the current owner. NOTE: Renouncing ownership will leave the contract without an owner, thereby removing any functionality that is only available to the owner."
      },
      "setlockedvotes(uint256)": {
        "params": {
          "lockedvotes": "lockedvotes set by corebridge"
        },
        "returns": {
          "_0": "alloflockedvotes lockedvotes"
        }
      },
      "setxCFXValue(uint256)": {
        "returns": {
          "_0": "xcfxvalues xCFX value"
        }
      },
      "transferOwnership(address)": {
        "details": "Transfers ownership of the contract to a new account (`newOwner`). Can only be called by the current owner."
      },
      "userOutQueue(address)": {
        "details": "get the user's OutQueue",
        "returns": {
          "_0": "userOutqueues userOutqueues[account].queueItems()"
        }
      },
      "userSummary(address)": {
        "params": {
          "_user": "The address of user to query"
        },
        "returns": {
          "_0": "summary User's summary"
        }
      }
    },
    "title": "Exchange room",
    "version": 1
  },
  "userdoc": {
    "kind": "user",
    "methods": {
      "_setBridge(address)": {
        "notice": "Enable Owner to set Bridge address"
      },
      "_setCoreExchange(address)": {
        "notice": "Enable Owner to set CoreExchange addresswill be used in future update"
      },
      "_setLockPeriod(uint256,uint256)": {
        "notice": "Enable Owner to set the unlocking periodfast < slow"
      },
      "_setPoolName(string)": {
        "notice": "Enable Owner to set poolName"
      },
      "_setStorageaddr(address)": {
        "notice": "Enable Owner to set storage address"
      },
      "_setXCFXaddr(address)": {
        "notice": "Enable Owner to set xCFX address"
      },
      "_setminexchangelimits(uint256)": {
        "notice": "Enable Owner to set min exchange limits"
      },
      "_setstorageBridge(address)": {
        "notice": "Enable Owner to set storageBridge address"
      },
      "espacebalanceof(address)": {
        "notice": "_addr balance of CFX"
      },
      "getLockPeriod()": {
        "notice": "Get LockPeriod "
      },
      "getSettings()": {
        "notice": "Get Settings "
      },
      "handleCFXexchangeXCFX()": {
        "notice": "methods that the core bridge use"
      },
      "handleUnstake()": {
        "notice": "let bridge know the  CFX need to get back, and set the para::unlockingCFX to 0 "
      },
      "handlexCFXadd()": {
        "notice": "let bridge know the xCFX increased in this exchangeroom , and set the para::xCFXincrease to 0 "
      },
      "initialize(address,uint256)": {
        "notice": "call this method when depoly the 1967 proxy contract"
      },
      "setlockedvotes(uint256)": {
        "notice": "used to set lockedvotes by corebridge cantract "
      },
      "setxCFXValue(uint256)": {
        "notice": "used to set xcfxvalue by corebridge cantract "
      },
      "userSummary(address)": {
        "notice": "Get user's pool summary"
      }
    },
    "notice": "Users use this contract to participate Conflux PoS stake.this contract is used in conflux espaceOnly this contract can mint xCFX",
    "version": 1
  }
}