{
  "contractName": "Exchangeroom",
  "abi": [
    {
      "anonymous": false,
      "inputs": [
        {
          "indexed": true,
          "internalType": "address",
          "name": "user",
          "type": "address"
        },
        {
          "indexed": false,
          "internalType": "uint256",
          "name": "votePower",
          "type": "uint256"
        }
      ],
      "name": "DecreasePoSStake",
      "type": "event"
    },
    {
      "anonymous": false,
      "inputs": [
        {
          "indexed": true,
          "internalType": "address",
          "name": "user",
          "type": "address"
        },
        {
          "indexed": false,
          "internalType": "uint256",
          "name": "votePower",
          "type": "uint256"
        }
      ],
      "name": "IncreasePoSStake",
      "type": "event"
    },
    {
      "anonymous": false,
      "inputs": [
        {
          "indexed": true,
          "internalType": "address",
          "name": "previousOwner",
          "type": "address"
        },
        {
          "indexed": true,
          "internalType": "address",
          "name": "newOwner",
          "type": "address"
        }
      ],
      "name": "OwnershipTransferred",
      "type": "event"
    },
    {
      "anonymous": false,
      "inputs": [
        {
          "indexed": true,
          "internalType": "address",
          "name": "user",
          "type": "address"
        },
        {
          "indexed": false,
          "internalType": "uint256",
          "name": "votePower",
          "type": "uint256"
        }
      ],
      "name": "WithdrawStake",
      "type": "event"
    },
    {
      "stateMutability": "payable",
      "type": "fallback"
    },
    {
      "inputs": [],
      "name": "_poolLockPeriod_fast",
      "outputs": [
        {
          "internalType": "uint256",
          "name": "",
          "type": "uint256"
        }
      ],
      "stateMutability": "view",
      "type": "function"
    },
    {
      "inputs": [],
      "name": "_poolLockPeriod_slow",
      "outputs": [
        {
          "internalType": "uint256",
          "name": "",
          "type": "uint256"
        }
      ],
      "stateMutability": "view",
      "type": "function"
    },
    {
      "inputs": [],
      "name": "birdgeAddrSetted",
      "outputs": [
        {
          "internalType": "bool",
          "name": "",
          "type": "bool"
        }
      ],
      "stateMutability": "view",
      "type": "function"
    },
    {
      "inputs": [],
      "name": "owner",
      "outputs": [
        {
          "internalType": "address",
          "name": "",
          "type": "address"
        }
      ],
      "stateMutability": "view",
      "type": "function"
    },
    {
      "inputs": [],
      "name": "poolName",
      "outputs": [
        {
          "internalType": "string",
          "name": "",
          "type": "string"
        }
      ],
      "stateMutability": "view",
      "type": "function"
    },
    {
      "inputs": [],
      "name": "renounceOwnership",
      "outputs": [],
      "stateMutability": "nonpayable",
      "type": "function"
    },
    {
      "inputs": [
        {
          "internalType": "address",
          "name": "newOwner",
          "type": "address"
        }
      ],
      "name": "transferOwnership",
      "outputs": [],
      "stateMutability": "nonpayable",
      "type": "function"
    },
    {
      "inputs": [],
      "name": "unstakeQueue",
      "outputs": [
        {
          "internalType": "uint256",
          "name": "start",
          "type": "uint256"
        },
        {
          "internalType": "uint256",
          "name": "end",
          "type": "uint256"
        }
      ],
      "stateMutability": "view",
      "type": "function"
    },
    {
      "stateMutability": "payable",
      "type": "receive"
    },
    {
      "inputs": [],
      "name": "initialize",
      "outputs": [],
      "stateMutability": "nonpayable",
      "type": "function"
    },
    {
      "inputs": [
        {
          "internalType": "address",
          "name": "_XCFX_addr",
          "type": "address"
        },
        {
          "internalType": "address",
          "name": "_S_addr",
          "type": "address"
        }
      ],
      "name": "set_Settings",
      "outputs": [],
      "stateMutability": "nonpayable",
      "type": "function"
    },
    {
      "inputs": [],
      "name": "get_Settings",
      "outputs": [
        {
          "internalType": "address",
          "name": "",
          "type": "address"
        },
        {
          "internalType": "address",
          "name": "",
          "type": "address"
        }
      ],
      "stateMutability": "view",
      "type": "function"
    },
    {
      "inputs": [
        {
          "internalType": "uint256",
          "name": "_amount",
          "type": "uint256"
        }
      ],
      "name": "CFX_exchange_estim",
      "outputs": [
        {
          "internalType": "uint256",
          "name": "",
          "type": "uint256"
        }
      ],
      "stateMutability": "view",
      "type": "function"
    },
    {
      "inputs": [],
      "name": "CFX_exchange_XCFX",
      "outputs": [],
      "stateMutability": "payable",
      "type": "function"
    },
    {
      "inputs": [
        {
          "internalType": "uint256",
          "name": "_amount",
          "type": "uint256"
        }
      ],
      "name": "XCFX_burn_estim",
      "outputs": [
        {
          "internalType": "uint256",
          "name": "",
          "type": "uint256"
        }
      ],
      "stateMutability": "view",
      "type": "function"
    },
    {
      "inputs": [
        {
          "internalType": "uint256",
          "name": "_amount",
          "type": "uint256"
        }
      ],
      "name": "XCFX_burn",
      "outputs": [
        {
          "internalType": "uint256",
          "name": "",
          "type": "uint256"
        }
      ],
      "stateMutability": "nonpayable",
      "type": "function"
    },
    {
      "inputs": [
        {
          "internalType": "uint256",
          "name": "_amount",
          "type": "uint256"
        }
      ],
      "name": "getback_CFX",
      "outputs": [],
      "stateMutability": "nonpayable",
      "type": "function"
    },
    {
      "inputs": [
        {
          "internalType": "address",
          "name": "_user",
          "type": "address"
        }
      ],
      "name": "userSummary",
      "outputs": [
        {
          "components": [
            {
              "internalType": "uint256",
              "name": "unlocking",
              "type": "uint256"
            },
            {
              "internalType": "uint256",
              "name": "unlocked",
              "type": "uint256"
            }
          ],
          "internalType": "struct Exchangeroom.UserSummary",
          "name": "",
          "type": "tuple"
        }
      ],
      "stateMutability": "view",
      "type": "function"
    },
    {
      "inputs": [],
      "name": "Summary",
      "outputs": [
        {
          "components": [
            {
              "internalType": "uint256",
              "name": "totalxcfxs",
              "type": "uint256"
            },
            {
              "internalType": "uint256",
              "name": "xcfxvalues",
              "type": "uint256"
            },
            {
              "internalType": "uint256",
              "name": "alloflockedvotes",
              "type": "uint256"
            },
            {
              "internalType": "uint256",
              "name": "xCFXincrease",
              "type": "uint256"
            },
            {
              "internalType": "uint256",
              "name": "unlockingCFX",
              "type": "uint256"
            }
          ],
          "internalType": "struct Exchangeroom.ExchangeSummary",
          "name": "",
          "type": "tuple"
        }
      ],
      "stateMutability": "view",
      "type": "function"
    },
    {
      "inputs": [
        {
          "internalType": "address",
          "name": "account",
          "type": "address"
        }
      ],
      "name": "userOutQueue",
      "outputs": [
        {
          "components": [
            {
              "internalType": "uint256",
              "name": "votePower",
              "type": "uint256"
            },
            {
              "internalType": "uint256",
              "name": "endBlock",
              "type": "uint256"
            }
          ],
          "internalType": "struct VotePowerQueue.QueueNode[]",
          "name": "",
          "type": "tuple[]"
        }
      ],
      "stateMutability": "view",
      "type": "function"
    },
    {
      "inputs": [],
      "name": "getBridge",
      "outputs": [
        {
          "internalType": "address",
          "name": "",
          "type": "address"
        }
      ],
      "stateMutability": "view",
      "type": "function"
    },
    {
      "inputs": [
        {
          "internalType": "uint64",
          "name": "_slow",
          "type": "uint64"
        },
        {
          "internalType": "uint64",
          "name": "_fast",
          "type": "uint64"
        }
      ],
      "name": "setLockPeriod",
      "outputs": [],
      "stateMutability": "nonpayable",
      "type": "function"
    },
    {
      "inputs": [
        {
          "internalType": "address",
          "name": "bridgeAddress",
          "type": "address"
        }
      ],
      "name": "setBridge",
      "outputs": [],
      "stateMutability": "nonpayable",
      "type": "function"
    },
    {
      "inputs": [
        {
          "internalType": "string",
          "name": "name",
          "type": "string"
        }
      ],
      "name": "setPoolName",
      "outputs": [],
      "stateMutability": "nonpayable",
      "type": "function"
    },
    {
      "inputs": [],
      "name": "handlexCFXadd",
      "outputs": [
        {
          "internalType": "uint256",
          "name": "",
          "type": "uint256"
        }
      ],
      "stateMutability": "nonpayable",
      "type": "function"
    },
    {
      "inputs": [],
      "name": "handleUnstake",
      "outputs": [
        {
          "internalType": "uint256",
          "name": "",
          "type": "uint256"
        }
      ],
      "stateMutability": "nonpayable",
      "type": "function"
    },
    {
      "inputs": [],
      "name": "unstakeLen",
      "outputs": [
        {
          "internalType": "uint256",
          "name": "",
          "type": "uint256"
        }
      ],
      "stateMutability": "view",
      "type": "function"
    },
    {
      "inputs": [],
      "name": "firstUnstakeVotes",
      "outputs": [
        {
          "internalType": "uint256",
          "name": "",
          "type": "uint256"
        }
      ],
      "stateMutability": "view",
      "type": "function"
    },
    {
      "inputs": [
        {
          "internalType": "uint256",
          "name": "_cfxvalue",
          "type": "uint256"
        }
      ],
      "name": "setxCFXValue",
      "outputs": [
        {
          "internalType": "uint256",
          "name": "",
          "type": "uint256"
        }
      ],
      "stateMutability": "nonpayable",
      "type": "function"
    },
    {
      "inputs": [
        {
          "internalType": "uint256",
          "name": "_lockedvotes",
          "type": "uint256"
        }
      ],
      "name": "setlockedvotes",
      "outputs": [
        {
          "internalType": "uint256",
          "name": "",
          "type": "uint256"
        }
      ],
      "stateMutability": "nonpayable",
      "type": "function"
    },
    {
      "inputs": [],
      "name": "receiveInterest",
      "outputs": [],
      "stateMutability": "payable",
      "type": "function"
    }
  ],
  "bytecode": "0x6080604052600e6201518062000016919062000170565b6002556002620151806200002b919062000170565b6003556000600760006101000a81548173ffffffffffffffffffffffffffffffffffffffff021916908373ffffffffffffffffffffffffffffffffffffffff1602179055503480156200007d57600080fd5b506200009e62000092620000a460201b60201c565b620000ac60201b60201c565b6200020a565b600033905090565b60008060009054906101000a900473ffffffffffffffffffffffffffffffffffffffff169050816000806101000a81548173ffffffffffffffffffffffffffffffffffffffff021916908373ffffffffffffffffffffffffffffffffffffffff1602179055508173ffffffffffffffffffffffffffffffffffffffff168173ffffffffffffffffffffffffffffffffffffffff167f8be0079c531659141344cd1fd0a4f28419497f9722a3daafe3b4186f6b6457e060405160405180910390a35050565b60006200017d82620001d1565b91506200018a83620001d1565b9250817fffffffffffffffffffffffffffffffffffffffffffffffffffffffffffffffff0483118215151615620001c657620001c5620001db565b5b828202905092915050565b6000819050919050565b7f4e487b7100000000000000000000000000000000000000000000000000000000600052601160045260246000fd5b613483806200021a6000396000f3fe6080604052600436106101d15760003560e01c806377c9d593116100f7578063b295ad2b11610095578063da02d10011610064578063da02d10014610632578063e3d5b2331461065d578063f2fde38b1461069a578063f3466dfa146106c3576101d8565b8063b295ad2b14610587578063c134e965146105b0578063c7ff5d6e146105db578063c805354214610606576101d8565b80638d294225116100d15780638d294225146104dd5780638d597859146105085780638da5cb5b146105335780638dd148021461055e576101d8565b806377c9d593146104605780638129fc1c1461048957806384c07b5d146104a0576101d8565b80634337e4bf1161016f57806366f355db1161013e57806366f355db146103ed57806368eca7f914610416578063715018a61461042057806372b6542414610437576101d8565b80634337e4bf1461034f57806347108abc146103595780634a990ba9146103965780636283c50b146103c2576101d8565b80630fffbaf3116101ab5780630fffbaf31461026d5780631864ec441461029857806321e2f533146102d557806324a3bbe214610312576101d8565b806309fcd230146101da5780630ddf0ef1146102055780630e08e70214610242576101d8565b366101d857005b005b3480156101e657600080fd5b506101ef6106ee565b6040516101fc9190612db5565b60405180910390f35b34801561021157600080fd5b5061022c60048036038101906102279190612750565b610730565b6040516102399190612db5565b60405180910390f35b34801561024e57600080fd5b5061025761076b565b6040516102649190612db5565b60405180910390f35b34801561027957600080fd5b5061028261085c565b60405161028f9190612b33565b60405180910390f35b3480156102a457600080fd5b506102bf60048036038101906102ba9190612750565b610886565b6040516102cc9190612db5565b60405180910390f35b3480156102e157600080fd5b506102fc60048036038101906102f79190612750565b61092f565b6040516103099190612db5565b60405180910390f35b34801561031e57600080fd5b50610339600480360381019061033491906126aa565b6109d8565b6040516103469190612ba0565b60405180910390f35b610357610a28565b005b34801561036557600080fd5b50610380600480360381019061037b9190612750565b610aba565b60405161038d9190612db5565b60405180910390f35b3480156103a257600080fd5b506103ab611176565b6040516103b9929190612dd0565b60405180910390f35b3480156103ce57600080fd5b506103d7611188565b6040516103e49190612bc2565b60405180910390f35b3480156103f957600080fd5b50610414600480360381019061040f9190612750565b61119b565b005b61041e6111f6565b005b34801561042c57600080fd5b50610435611476565b005b34801561044357600080fd5b5061045e6004803603810190610459919061270f565b6114fe565b005b34801561046c57600080fd5b50610487600480360381019061048291906127a2565b611594565b005b34801561049557600080fd5b5061049e611636565b005b3480156104ac57600080fd5b506104c760048036038101906104c29190612750565b611750565b6040516104d49190612db5565b60405180910390f35b3480156104e957600080fd5b506104f261178b565b6040516104ff9190612d7f565b60405180910390f35b34801561051457600080fd5b5061051d6117d7565b60405161052a9190612db5565b60405180910390f35b34801561053f57600080fd5b506105486117dd565b6040516105559190612b33565b60405180910390f35b34801561056a57600080fd5b50610585600480360381019061058091906126aa565b611806565b005b34801561059357600080fd5b506105ae60048036038101906105a991906126d3565b6118e1565b005b3480156105bc57600080fd5b506105c56119e3565b6040516105d29190612db5565b60405180910390f35b3480156105e757600080fd5b506105f06119e9565b6040516105fd9190612db5565b60405180910390f35b34801561061257600080fd5b5061061b611a06565b604051610629929190612b4e565b60405180910390f35b34801561063e57600080fd5b50610647611a57565b6040516106549190612db5565b60405180910390f35b34801561066957600080fd5b50610684600480360381019061067f91906126aa565b611b48565b6040516106919190612d9a565b60405180910390f35b3480156106a657600080fd5b506106c160048036038101906106bc91906126aa565b611c39565b005b3480156106cf57600080fd5b506106d8611d31565b6040516106e59190612bdd565b60405180910390f35b6000601160000154601160010154141561070b576000905061072d565b6011600201600060116000015481526020019081526020016000206000015490505b90565b6000610764600860010154610756670de0b6b3a764000085611dbf90919063ffffffff16565b611dd590919063ffffffff16565b9050919050565b6000600160009054906101000a900473ffffffffffffffffffffffffffffffffffffffff1673ffffffffffffffffffffffffffffffffffffffff163373ffffffffffffffffffffffffffffffffffffffff16146107fd576040517f08c379a00000000000000000000000000000000000000000000000000000000081526004016107f490612d5f565b60405180910390fd5b600060086003015490506000811161084a576040517f08c379a000000000000000000000000000000000000000000000000000000000815260040161084190612c9f565b60405180910390fd5b60006008600301819055508091505090565b6000600160009054906101000a900473ffffffffffffffffffffffffffffffffffffffff16905090565b6000600160009054906101000a900473ffffffffffffffffffffffffffffffffffffffff1673ffffffffffffffffffffffffffffffffffffffff163373ffffffffffffffffffffffffffffffffffffffff1614610918576040517f08c379a000000000000000000000000000000000000000000000000000000000815260040161090f90612d5f565b60405180910390fd5b816008600201819055506008600201549050919050565b6000600160009054906101000a900473ffffffffffffffffffffffffffffffffffffffff1673ffffffffffffffffffffffffffffffffffffffff163373ffffffffffffffffffffffffffffffffffffffff16146109c1576040517f08c379a00000000000000000000000000000000000000000000000000000000081526004016109b890612d5f565b60405180910390fd5b816008600101819055506008600101549050919050565b6060610a21601460008473ffffffffffffffffffffffffffffffffffffffff1673ffffffffffffffffffffffffffffffffffffffff168152602001908152602001600020611deb565b9050919050565b600160009054906101000a900473ffffffffffffffffffffffffffffffffffffffff1673ffffffffffffffffffffffffffffffffffffffff163373ffffffffffffffffffffffffffffffffffffffff1614610ab8576040517f08c379a0000000000000000000000000000000000000000000000000000000008152600401610aaf90612d5f565b60405180910390fd5b565b60008060169054906101000a900460ff16610b0a576040517f08c379a0000000000000000000000000000000000000000000000000000000008152600401610b0190612c7f565b60405180910390fd5b600560009054906101000a900473ffffffffffffffffffffffffffffffffffffffff1673ffffffffffffffffffffffffffffffffffffffff166370a08231336040518263ffffffff1660e01b8152600401610b659190612b33565b60206040518083038186803b158015610b7d57600080fd5b505afa158015610b91573d6000803e3d6000fd5b505050506040513d601f19601f82011682018060405250810190610bb59190612779565b821115610bf7576040517f08c379a0000000000000000000000000000000000000000000000000000000008152600401610bee90612c5f565b60405180910390fd5b600560009054906101000a900473ffffffffffffffffffffffffffffffffffffffff1673ffffffffffffffffffffffffffffffffffffffff166318160ddd6040518163ffffffff1660e01b815260040160206040518083038186803b158015610c5f57600080fd5b505afa158015610c73573d6000803e3d6000fd5b505050506040513d601f19601f82011682018060405250810190610c979190612779565b600860000181905550600080610cac84611750565b905060006008600401541415610d285760009150610ce1683635c9adc5dea00000600860000154611dbf90919063ffffffff16565b811115610d23576040517f08c379a0000000000000000000000000000000000000000000000000000000008152600401610d1a90612cff565b60405180910390fd5b610de0565b610d6c6008600401546002610d3d9190612f2b565b610d5e683635c9adc5dea00000600860020154611dbf90919063ffffffff16565b611dd590919063ffffffff16565b8111610d7b5760019150610ddf565b610d9c683635c9adc5dea00000600860000154611dbf90919063ffffffff16565b811115610dde576040517f08c379a0000000000000000000000000000000000000000000000000000000008152600401610dd590612cff565b60405180910390fd5b5b5b8360086000016000828254610df59190612f85565b925050819055508060086004016000828254610e119190612ea4565b92505081905550610e3a6040518060200160405280838152506011611f3890919063ffffffff16565b600560009054906101000a900473ffffffffffffffffffffffffffffffffffffffff1673ffffffffffffffffffffffffffffffffffffffff16630d1118ce33866040518363ffffffff1660e01b8152600401610e97929190612b77565b600060405180830381600087803b158015610eb157600080fd5b505af1158015610ec5573d6000803e3d6000fd5b505050506001821415610f5057610f4b6040518060400160405280838152602001600354610ef1611f77565b610efb9190612ea4565b815250601460003373ffffffffffffffffffffffffffffffffffffffff1673ffffffffffffffffffffffffffffffffffffffff168152602001908152602001600020611f7f90919063ffffffff16565b610fca565b610fc96040518060400160405280838152602001600254610f6f611f77565b610f799190612ea4565b815250601460003373ffffffffffffffffffffffffffffffffffffffff1673ffffffffffffffffffffffffffffffffffffffff168152602001908152602001600020611f7f90919063ffffffff16565b5b80600d60003373ffffffffffffffffffffffffffffffffffffffff1673ffffffffffffffffffffffffffffffffffffffff168152602001908152602001600020600001600082825461101c9190612ea4565b92505081905550600061106c601460003373ffffffffffffffffffffffffffffffffffffffff1673ffffffffffffffffffffffffffffffffffffffff168152602001908152602001600020611fc8565b905080600d60003373ffffffffffffffffffffffffffffffffffffffff1673ffffffffffffffffffffffffffffffffffffffff16815260200190815260200160002060010160008282546110c09190612ea4565b9250508190555080600d60003373ffffffffffffffffffffffffffffffffffffffff1673ffffffffffffffffffffffffffffffffffffffff16815260200190815260200160002060000160008282546111199190612f85565b925050819055503373ffffffffffffffffffffffffffffffffffffffff167fd81524ca5b038be9f98b286808a6f46f99c8700bce9ab4793dc12a2dbaa4f2d8866040516111669190612db5565b60405180910390a2505050919050565b60118060000154908060010154905082565b600060169054906101000a900460ff1681565b600060169054906101000a900460ff166111ea576040517f08c379a00000000000000000000000000000000000000000000000000000000081526004016111e190612c7f565b60405180910390fd5b6111f381612057565b50565b60003411611239576040517f08c379a000000000000000000000000000000000000000000000000000000000815260040161123090612d3f565b60405180910390fd5b600560009054906101000a900473ffffffffffffffffffffffffffffffffffffffff1673ffffffffffffffffffffffffffffffffffffffff166318160ddd6040518163ffffffff1660e01b815260040160206040518083038186803b1580156112a157600080fd5b505afa1580156112b5573d6000803e3d6000fd5b505050506040513d601f19601f820116820180604052508101906112d99190612779565b6008600001819055506000600160009054906101000a900473ffffffffffffffffffffffffffffffffffffffff1690508073ffffffffffffffffffffffffffffffffffffffff166108fc349081150290604051600060405180830381858888f1935050505015801561134f573d6000803e3d6000fd5b50600061135b34610730565b9050600560009054906101000a900473ffffffffffffffffffffffffffffffffffffffff1673ffffffffffffffffffffffffffffffffffffffff16636039fbdb33836040518363ffffffff1660e01b81526004016113ba929190612b77565b600060405180830381600087803b1580156113d457600080fd5b505af11580156113e8573d6000803e3d6000fd5b5050505080600860000160008282546114019190612ea4565b92505081905550806008600301600082825461141d9190612ea4565b925050819055503373ffffffffffffffffffffffffffffffffffffffff167ff5ebfcde71acb15a758233f0c9ab25632209399b90a9209a4f2379ec5fcee89f3460405161146a9190612db5565b60405180910390a25050565b61147e61230a565b73ffffffffffffffffffffffffffffffffffffffff1661149c6117dd565b73ffffffffffffffffffffffffffffffffffffffff16146114f2576040517f08c379a00000000000000000000000000000000000000000000000000000000081526004016114e990612cdf565b60405180910390fd5b6114fc6000612312565b565b61150661230a565b73ffffffffffffffffffffffffffffffffffffffff166115246117dd565b73ffffffffffffffffffffffffffffffffffffffff161461157a576040517f08c379a000000000000000000000000000000000000000000000000000000000815260040161157190612cdf565b60405180910390fd5b80600490805190602001906115909291906124e8565b5050565b61159c61230a565b73ffffffffffffffffffffffffffffffffffffffff166115ba6117dd565b73ffffffffffffffffffffffffffffffffffffffff1614611610576040517f08c379a000000000000000000000000000000000000000000000000000000000815260040161160790612cdf565b60405180910390fd5b8167ffffffffffffffff166002819055508067ffffffffffffffff166003819055505050565b600060159054906101000a900460ff168061165e5750600060149054906101000a900460ff16155b61169d576040517f08c379a000000000000000000000000000000000000000000000000000000000815260040161169490612cbf565b60405180910390fd5b60008060159054906101000a900460ff1615905080156116ee576001600060156101000a81548160ff0219169083151502179055506001600060146101000a81548160ff0219169083151502179055505b670de0b6b3a7640000600860010181905550600e620151806117109190612f2b565b6002819055506002620151806117269190612f2b565b600381905550801561174d5760008060156101000a81548160ff0219169083151502179055505b50565b6000611784670de0b6b3a764000061177660086001015485611dbf90919063ffffffff16565b611dd590919063ffffffff16565b9050919050565b61179361256e565b60086040518060a001604052908160008201548152602001600182015481526020016002820154815260200160038201548152602001600482015481525050905090565b60035481565b60008060009054906101000a900473ffffffffffffffffffffffffffffffffffffffff16905090565b61180e61230a565b73ffffffffffffffffffffffffffffffffffffffff1661182c6117dd565b73ffffffffffffffffffffffffffffffffffffffff1614611882576040517f08c379a000000000000000000000000000000000000000000000000000000000815260040161187990612cdf565b60405180910390fd5b80600160006101000a81548173ffffffffffffffffffffffffffffffffffffffff021916908373ffffffffffffffffffffffffffffffffffffffff1602179055506001600060166101000a81548160ff02191690831515021790555050565b6118e961230a565b73ffffffffffffffffffffffffffffffffffffffff166119076117dd565b73ffffffffffffffffffffffffffffffffffffffff161461195d576040517f08c379a000000000000000000000000000000000000000000000000000000000815260040161195490612cdf565b60405180910390fd5b81600560006101000a81548173ffffffffffffffffffffffffffffffffffffffff021916908373ffffffffffffffffffffffffffffffffffffffff16021790555080600660006101000a81548173ffffffffffffffffffffffffffffffffffffffff021916908373ffffffffffffffffffffffffffffffffffffffff1602179055505050565b60025481565b6000601160000154601160010154611a019190612f85565b905090565b600080600560009054906101000a900473ffffffffffffffffffffffffffffffffffffffff16600660009054906101000a900473ffffffffffffffffffffffffffffffffffffffff16915091509091565b6000600160009054906101000a900473ffffffffffffffffffffffffffffffffffffffff1673ffffffffffffffffffffffffffffffffffffffff163373ffffffffffffffffffffffffffffffffffffffff1614611ae9576040517f08c379a0000000000000000000000000000000000000000000000000000000008152600401611ae090612d5f565b60405180910390fd5b6000600860040154905060008111611b36576040517f08c379a0000000000000000000000000000000000000000000000000000000008152600401611b2d90612d1f565b60405180910390fd5b60006008600401819055508091505090565b611b5061259d565b6000600d60008473ffffffffffffffffffffffffffffffffffffffff1673ffffffffffffffffffffffffffffffffffffffff1681526020019081526020016000206040518060400160405290816000820154815260200160018201548152505090506000611bfb601460008673ffffffffffffffffffffffffffffffffffffffff1673ffffffffffffffffffffffffffffffffffffffff1681526020019081526020016000206123d6565b90508082602001818151611c0f9190612ea4565b915081815250508082600001818151611c289190612f85565b915081815250508192505050919050565b611c4161230a565b73ffffffffffffffffffffffffffffffffffffffff16611c5f6117dd565b73ffffffffffffffffffffffffffffffffffffffff1614611cb5576040517f08c379a0000000000000000000000000000000000000000000000000000000008152600401611cac90612cdf565b60405180910390fd5b600073ffffffffffffffffffffffffffffffffffffffff168173ffffffffffffffffffffffffffffffffffffffff161415611d25576040517f08c379a0000000000000000000000000000000000000000000000000000000008152600401611d1c90612c1f565b60405180910390fd5b611d2e81612312565b50565b60048054611d3e90613057565b80601f0160208091040260200160405190810160405280929190818152602001828054611d6a90613057565b8015611db75780601f10611d8c57610100808354040283529160200191611db7565b820191906000526020600020905b815481529060010190602001808311611d9a57829003601f168201915b505050505081565b60008183611dcd9190612f2b565b905092915050565b60008183611de39190612efa565b905092915050565b6060600082600001548360010154611e039190612f85565b67ffffffffffffffff811115611e42577f4e487b7100000000000000000000000000000000000000000000000000000000600052604160045260246000fd5b604051908082528060200260200182016040528015611e7b57816020015b611e686125b7565b815260200190600190039081611e605790505b5090506000836000015490505b8360010154811015611f2e578360020160008281526020019081526020016000206040518060400160405290816000820154815260200160018201548152505082856000015483611ed99190612f85565b81518110611f10577f4e487b7100000000000000000000000000000000000000000000000000000000600052603260045260246000fd5b60200260200101819052508080611f26906130ba565b915050611e88565b5080915050919050565b80826002016000846001016000815480929190611f54906130ba565b919050558152602001908152602001600020600082015181600001559050505050565b600043905090565b80826002016000846001016000815480929190611f9b906130ba565b91905055815260200190815260200160002060008201518160000155602082015181600101559050505050565b600080600090506000836000015490505b836001015481101561204d574384600201600083815260200190815260200160002060010154111561200a5761204d565b836002016000828152602001908152602001600020600001548261202e9190612ea4565b91506120398461245b565b508080612045906130ba565b915050611fd9565b5080915050919050565b600060169054906101000a900460ff166120a6576040517f08c379a000000000000000000000000000000000000000000000000000000000815260040161209d90612c7f565b60405180910390fd5b804710156120e9576040517f08c379a00000000000000000000000000000000000000000000000000000000081526004016120e090612c3f565b60405180910390fd5b6000612132601460003373ffffffffffffffffffffffffffffffffffffffff1673ffffffffffffffffffffffffffffffffffffffff168152602001908152602001600020611fc8565b905080600d60003373ffffffffffffffffffffffffffffffffffffffff1673ffffffffffffffffffffffffffffffffffffffff16815260200190815260200160002060010160008282546121869190612ea4565b9250508190555080600d60003373ffffffffffffffffffffffffffffffffffffffff1673ffffffffffffffffffffffffffffffffffffffff16815260200190815260200160002060000160008282546121df9190612f85565b9250508190555081600d60003373ffffffffffffffffffffffffffffffffffffffff1673ffffffffffffffffffffffffffffffffffffffff16815260200190815260200160002060010154101561226b576040517f08c379a000000000000000000000000000000000000000000000000000000000815260040161226290612bff565b60405180910390fd5b60003390508073ffffffffffffffffffffffffffffffffffffffff166108fc849081150290604051600060405180830381858888f193505050501580156122b6573d6000803e3d6000fd5b503373ffffffffffffffffffffffffffffffffffffffff167f141ef67c4a6d3ec2adfb2f66d33c2b11de5b4f34344757554d430570b18a92ec846040516122fd9190612db5565b60405180910390a2505050565b600033905090565b60008060009054906101000a900473ffffffffffffffffffffffffffffffffffffffff169050816000806101000a81548173ffffffffffffffffffffffffffffffffffffffff021916908373ffffffffffffffffffffffffffffffffffffffff1602179055508173ffffffffffffffffffffffffffffffffffffffff168173ffffffffffffffffffffffffffffffffffffffff167f8be0079c531659141344cd1fd0a4f28419497f9722a3daafe3b4186f6b6457e060405160405180910390a35050565b600080600090506000836000015490505b8360010154811015612451574384600201600083815260200190815260200160002060010154111561241857612451565b836002016000828152602001908152602001600020600001548261243c9190612ea4565b91508080612449906130ba565b9150506123e7565b5080915050919050565b6124636125b7565b6000826002016000846000015481526020019081526020016000206040518060400160405290816000820154815260200160018201548152505090508260020160008460000160008154809291906124ba906130ba565b9190505581526020019081526020016000206000808201600090556001820160009055505080915050919050565b8280546124f490613057565b90600052602060002090601f016020900481019282612516576000855561255d565b82601f1061252f57805160ff191683800117855561255d565b8280016001018555821561255d579182015b8281111561255c578251825591602001919060010190612541565b5b50905061256a91906125d1565b5090565b6040518060a0016040528060008152602001600081526020016000815260200160008152602001600081525090565b604051806040016040528060008152602001600081525090565b604051806040016040528060008152602001600081525090565b5b808211156125ea5760008160009055506001016125d2565b5090565b60006126016125fc84612e1e565b612df9565b90508281526020810184848401111561261957600080fd5b612624848285613015565b509392505050565b60008135905061263b81613408565b92915050565b600082601f83011261265257600080fd5b81356126628482602086016125ee565b91505092915050565b60008135905061267a8161341f565b92915050565b60008151905061268f8161341f565b92915050565b6000813590506126a481613436565b92915050565b6000602082840312156126bc57600080fd5b60006126ca8482850161262c565b91505092915050565b600080604083850312156126e657600080fd5b60006126f48582860161262c565b92505060206127058582860161262c565b9150509250929050565b60006020828403121561272157600080fd5b600082013567ffffffffffffffff81111561273b57600080fd5b61274784828501612641565b91505092915050565b60006020828403121561276257600080fd5b60006127708482850161266b565b91505092915050565b60006020828403121561278b57600080fd5b600061279984828501612680565b91505092915050565b600080604083850312156127b557600080fd5b60006127c385828601612695565b92505060206127d485828601612695565b9150509250929050565b60006127ea8383612ab7565b60408301905092915050565b6127ff81612fb9565b82525050565b600061281082612e5f565b61281a8185612e82565b935061282583612e4f565b8060005b8381101561285657815161283d88826127de565b975061284883612e75565b925050600181019050612829565b5085935050505092915050565b61286c81612fcb565b82525050565b600061287d82612e6a565b6128878185612e93565b9350612897818560208601613024565b6128a0816131bf565b840191505092915050565b60006128b8601f83612e93565b91506128c3826131d0565b602082019050919050565b60006128db602683612e93565b91506128e6826131f9565b604082019050919050565b60006128fe601f83612e93565b915061290982613248565b602082019050919050565b6000612921601883612e93565b915061292c82613271565b602082019050919050565b6000612944601283612e93565b915061294f8261329a565b602082019050919050565b6000612967601683612e93565b9150612972826132c3565b602082019050919050565b600061298a602e83612e93565b9150612995826132ec565b604082019050919050565b60006129ad602083612e93565b91506129b88261333b565b602082019050919050565b60006129d0601583612e93565b91506129db82613364565b602082019050919050565b60006129f3601583612e93565b91506129fe8261338d565b602082019050919050565b6000612a16600883612e93565b9150612a21826133b6565b602082019050919050565b6000612a39601683612e93565b9150612a44826133df565b602082019050919050565b60a082016000820151612a656000850182612b15565b506020820151612a786020850182612b15565b506040820151612a8b6040850182612b15565b506060820151612a9e6060850182612b15565b506080820151612ab16080850182612b15565b50505050565b604082016000820151612acd6000850182612b15565b506020820151612ae06020850182612b15565b50505050565b604082016000820151612afc6000850182612b15565b506020820151612b0f6020850182612b15565b50505050565b612b1e81612ff7565b82525050565b612b2d81612ff7565b82525050565b6000602082019050612b4860008301846127f6565b92915050565b6000604082019050612b6360008301856127f6565b612b7060208301846127f6565b9392505050565b6000604082019050612b8c60008301856127f6565b612b996020830184612b24565b9392505050565b60006020820190508181036000830152612bba8184612805565b905092915050565b6000602082019050612bd76000830184612863565b92915050565b60006020820190508181036000830152612bf78184612872565b905092915050565b60006020820190508181036000830152612c18816128ab565b9050919050565b60006020820190508181036000830152612c38816128ce565b9050919050565b60006020820190508181036000830152612c58816128f1565b9050919050565b60006020820190508181036000830152612c7881612914565b9050919050565b60006020820190508181036000830152612c9881612937565b9050919050565b60006020820190508181036000830152612cb88161295a565b9050919050565b60006020820190508181036000830152612cd88161297d565b9050919050565b60006020820190508181036000830152612cf8816129a0565b9050919050565b60006020820190508181036000830152612d18816129c3565b9050919050565b60006020820190508181036000830152612d38816129e6565b9050919050565b60006020820190508181036000830152612d5881612a09565b9050919050565b60006020820190508181036000830152612d7881612a2c565b9050919050565b600060a082019050612d946000830184612a4f565b92915050565b6000604082019050612daf6000830184612ae6565b92915050565b6000602082019050612dca6000830184612b24565b92915050565b6000604082019050612de56000830185612b24565b612df26020830184612b24565b9392505050565b6000612e03612e14565b9050612e0f8282613089565b919050565b6000604051905090565b600067ffffffffffffffff821115612e3957612e38613190565b5b612e42826131bf565b9050602081019050919050565b6000819050602082019050919050565b600081519050919050565b600081519050919050565b6000602082019050919050565b600082825260208201905092915050565b600082825260208201905092915050565b6000612eaf82612ff7565b9150612eba83612ff7565b9250827fffffffffffffffffffffffffffffffffffffffffffffffffffffffffffffffff03821115612eef57612eee613103565b5b828201905092915050565b6000612f0582612ff7565b9150612f1083612ff7565b925082612f2057612f1f613132565b5b828204905092915050565b6000612f3682612ff7565b9150612f4183612ff7565b9250817fffffffffffffffffffffffffffffffffffffffffffffffffffffffffffffffff0483118215151615612f7a57612f79613103565b5b828202905092915050565b6000612f9082612ff7565b9150612f9b83612ff7565b925082821015612fae57612fad613103565b5b828203905092915050565b6000612fc482612fd7565b9050919050565b60008115159050919050565b600073ffffffffffffffffffffffffffffffffffffffff82169050919050565b6000819050919050565b600067ffffffffffffffff82169050919050565b82818337600083830152505050565b60005b83811015613042578082015181840152602081019050613027565b83811115613051576000848401525b50505050565b6000600282049050600182168061306f57607f821691505b6020821081141561308357613082613161565b5b50919050565b613092826131bf565b810181811067ffffffffffffffff821117156130b1576130b0613190565b5b80604052505050565b60006130c582612ff7565b91507fffffffffffffffffffffffffffffffffffffffffffffffffffffffffffffffff8214156130f8576130f7613103565b5b600182019050919050565b7f4e487b7100000000000000000000000000000000000000000000000000000000600052601160045260246000fd5b7f4e487b7100000000000000000000000000000000000000000000000000000000600052601260045260246000fd5b7f4e487b7100000000000000000000000000000000000000000000000000000000600052602260045260246000fd5b7f4e487b7100000000000000000000000000000000000000000000000000000000600052604160045260246000fd5b6000601f19601f8301169050919050565b7f796f757220556e6c6f636b656420434658206973206e6f7420656e6f75676800600082015250565b7f4f776e61626c653a206e6577206f776e657220697320746865207a65726f206160008201527f6464726573730000000000000000000000000000000000000000000000000000602082015250565b7f706f6f6c20556e6c6f636b656420434658206973206e6f7420656e6f75676800600082015250565b7f45786365656420796f757220784346582062616c616e63650000000000000000600082015250565b7f506f6f6c206973206e6f74207365747465640000000000000000000000000000600082015250565b7f784346582068617665206e6f7420696e63726561736500000000000000000000600082015250565b7f496e697469616c697a61626c653a20636f6e747261637420697320616c72656160008201527f647920696e697469616c697a6564000000000000000000000000000000000000602082015250565b7f4f776e61626c653a2063616c6c6572206973206e6f7420746865206f776e6572600082015250565b7f4578636565642065786368616e6765206c696d69740000000000000000000000600082015250565b7f4346582068617665206e6f742064656372656173650000000000000000000000600082015250565b7f6d757374203e2030000000000000000000000000000000000000000000000000600082015250565b7f4f6e6c792062726964676520697320616c6c6f77656400000000000000000000600082015250565b61341181612fb9565b811461341c57600080fd5b50565b61342881612ff7565b811461343357600080fd5b50565b61343f81613001565b811461344a57600080fd5b5056fea26469706673582212200113360595db724923370eafae4baecdfc6b3c44535cb891c4b2890531e4b9de64736f6c63430008020033",
  "immutableReferences": {},
  "source": "//SPDX-License-Identifier: BUSL-1.1\n\npragma solidity ^0.8.0;\n\nimport \"@openzeppelin/contracts/token/ERC20/ERC20.sol\";\nimport \"@openzeppelin/contracts/access/Ownable.sol\";\nimport \"@openzeppelin/contracts/utils/math/SafeMath.sol\";\nimport \"@openzeppelin/contracts/utils/structs/EnumerableSet.sol\";\nimport \"@openzeppelin/contracts/proxy/utils/Initializable.sol\";\nimport \"../VotePowerQueue.sol\";\nimport \"./UnstakeQueueCFX.sol\";\ninterface IXCFX{\n    function addTokens(address _account, uint256 _value) external;\n    function burnTokens(address _account, uint256 _value) external;\n    function balanceOf(address _account) external view returns(uint256);\n    function totalSupply() external view returns(uint256);\n}\n\n///\n///  @title Exchange room\n///\ncontract Exchangeroom is Ownable,Initializable {\n  using SafeMath for uint256;\n  using EnumerableSet for EnumerableSet.AddressSet;\n  using VotePowerQueue for VotePowerQueue.InOutQueue;\n  using UnstakeQueueCFX for UnstakeQueueCFX.Queue;\n\n  uint256 private constant RATIO_BASE = 10000;\n  uint256 private constant ONE_DAY_BLOCK_COUNT = 3600 * 24;\n  \n  // ======================== Pool config ===============================\n  // wheter this poolContract registed in PoS\n  bool public birdgeAddrSetted;\n  address private _bridgeAddress;\n\n  // lock period: 14 days\n  uint256 public _poolLockPeriod_slow = ONE_DAY_BLOCK_COUNT * 14;\n  uint256 public _poolLockPeriod_fast = ONE_DAY_BLOCK_COUNT * 2;\n  string public poolName; // = \"UNCLEON HUB\";\n   // ======================== xCFX use ==================================\n  address XCFX_address;\n  address Storage_addr;\n\n  address zero_addr=address(0x0000000000000000000000000000000000000000);\n  // ======================== Struct definitions =========================\n\n  /// @title ExchangeSummary\n  /// @custom:field totalxcfxs\n  /// @custom:field totalinterests\n  /// @custom:field cfxstillinstore\n  /// @custom:field remainedcfx\n  struct ExchangeSummary {\n    uint256 totalxcfxs;\n    uint256 xcfxvalues;\n    uint256 alloflockedvotes;\n    uint256 xCFXincrease;\n    uint256 unlockingCFX;\n  }\n\n  /// @title UserSummary\n  /// @custom:field unlocking\n  /// @custom:field unlocked\n  struct UserSummary {\n    uint256 unlocking;\n    uint256 unlocked;\n  }\n\n  // ======================== Contract states ===========================\n  ExchangeSummary private _exchangeSummary;\n  mapping(address => UserSummary) private userSummaries;\n  VotePowerQueue.InOutQueue private Inqueues;\n  // Unstake votes queue\n  UnstakeQueueCFX.Queue public unstakeQueue;  //private--debug\n  mapping(address => VotePowerQueue.InOutQueue) private userOutqueues;\n\n  // ======================== Modifiers =================================\n  modifier onlyRegisted() {\n    require(birdgeAddrSetted, \"Pool is not setted\");\n    _;\n  }\n  modifier onlyBridge() {\n    //require(isContract(msg.sender),\"bridge is contracts\");\n    require(msg.sender == _bridgeAddress, \"Only bridge is allowed\");\n    _;\n  }\n  // ======================== Helpers ===================================\n  function _selfBalance() internal view virtual returns (uint256) {\n    return address(this).balance;\n  }\n\n  function _blockNumber() internal view virtual returns (uint256) {\n    return block.number;\n  }\n  // ======================== Events ====================================\n\n  event IncreasePoSStake(address indexed user, uint256 votePower);\n\n  event DecreasePoSStake(address indexed user, uint256 votePower);\n\n  event WithdrawStake(address indexed user, uint256 votePower);\n\n  // ======================== Init methods ==============================\n\n  // call this method when depoly the 1967 proxy contract\n  function initialize() public initializer {\n    _exchangeSummary.xcfxvalues = 1 ether;\n    _poolLockPeriod_slow = ONE_DAY_BLOCK_COUNT * 14;\n    _poolLockPeriod_fast = ONE_DAY_BLOCK_COUNT * 2;\n  }\n\n  // ======================== Contract methods =========================\n\n  function set_Settings(address _XCFX_addr,address _S_addr) external onlyOwner {\n        XCFX_address = _XCFX_addr;\n        Storage_addr = _S_addr;\n    }  \n\n  function get_Settings() external view returns(address,address){\n    return (XCFX_address,Storage_addr);\n    }\n  //\n  // @title CFX_exchange_estim\n  // @dev _amount The amount of CFX to stake\n  // return xCFX numbers can get\n  //\n  function CFX_exchange_estim(uint256 _amount) public view returns(uint256){\n    return _amount.mul(1 ether).div(_exchangeSummary.xcfxvalues);\n    }\n  //\n  // @title CFX_exchange_XCFX\n  // @dev msg.value The amount of CFX to stake\n  // emit IncreasePoSStake(msg.sender, msg.value);\n  //\n  function CFX_exchange_XCFX() external payable {\n    require(msg.value>0 , 'must > 0');\n    _exchangeSummary.totalxcfxs = IXCFX(XCFX_address).totalSupply();\n\n    address payable receiver = payable(_bridgeAddress);\n    receiver.transfer(msg.value);\n    uint256 xcfx_exchange = CFX_exchange_estim(msg.value);\n    IXCFX(XCFX_address).addTokens(msg.sender, xcfx_exchange);\n\n    _exchangeSummary.totalxcfxs += xcfx_exchange;\n    _exchangeSummary.xCFXincrease += xcfx_exchange;\n    emit IncreasePoSStake(msg.sender, msg.value);\n  }\n  //\n  // @title XCFX_burn_estim\n  // @dev estimate The amount of CFX to user when user burn a _amount xCFX\n  // return CFX amounts user can get\n  //\n  function XCFX_burn_estim(uint256 _amount) public view returns(uint256){\n    return _amount.mul(_exchangeSummary.xcfxvalues).div(1 ether);\n    }\n  //\n  // @title XCFX_burn\n  // @dev burn  _amount  XCFX to get CFXstake\n  // emit DecreasePoSStake(msg.sender, _amount);\n  //\n  function XCFX_burn(uint256 _amount) public virtual onlyRegisted returns(uint256){\n    require(_amount<=IXCFX(XCFX_address).balanceOf(msg.sender),\"Exceed your xCFX balance\");\n    _exchangeSummary.totalxcfxs = IXCFX(XCFX_address).totalSupply();\n    uint256 _mode = 0;\n    uint256 cfx_back = XCFX_burn_estim(_amount);\n    if(_exchangeSummary.unlockingCFX==0){\n      _mode=0;\n      require(cfx_back<=_exchangeSummary.totalxcfxs.mul(1000 ether),\"Exceed exchange limit\");\n    }\n    else if(cfx_back<=_exchangeSummary.alloflockedvotes.mul(1000 ether).div(2*_exchangeSummary.unlockingCFX)){\n      _mode=1;\n    }\n    else {\n      require(cfx_back<=_exchangeSummary.totalxcfxs.mul(1000 ether),\"Exceed exchange limit\");\n    }\n    _exchangeSummary.totalxcfxs -= _amount;\n    _exchangeSummary.unlockingCFX += cfx_back;\n    unstakeQueue.enqueue(UnstakeQueueCFX.Node(cfx_back));\n    IXCFX(XCFX_address).burnTokens(msg.sender, _amount);\n\n    if(_mode == 1){\n      userOutqueues[msg.sender].enqueue(VotePowerQueue.QueueNode(cfx_back, _blockNumber() + _poolLockPeriod_fast));\n      }\n    else{\n      userOutqueues[msg.sender].enqueue(VotePowerQueue.QueueNode(cfx_back, _blockNumber() + _poolLockPeriod_slow));\n    }\n    \n    userSummaries[msg.sender].unlocking += cfx_back;\n    \n    uint256 temp_amount = userOutqueues[msg.sender].collectEndedVotes();\n    userSummaries[msg.sender].unlocked += temp_amount;\n    userSummaries[msg.sender].unlocking -= temp_amount;\n\n    emit DecreasePoSStake(msg.sender, _amount);\n  }\n  //\n  // @title getback_CFX\n  // @dev after cooldown time is over, user get his CFX \n  //  _amount is the CFX amount\n  //\n  function getback_CFX(uint256 _amount) public virtual onlyRegisted {\n     withdraw(_amount);\n  }\n\n  //\n  // @notice Withdraw CFX\n  // @param _amount The amount of CFX to withdraw\n  //\n  function withdraw(uint256 _amount) private onlyRegisted {\n    require(address(this).balance>=_amount,\"pool Unlocked CFX is not enough\");\n    uint256 temp_amount = userOutqueues[msg.sender].collectEndedVotes();\n    userSummaries[msg.sender].unlocked += temp_amount;\n    userSummaries[msg.sender].unlocking -= temp_amount;\n\n    require(userSummaries[msg.sender].unlocked >= _amount, \"your Unlocked CFX is not enough\");\n    \n    address payable receiver = payable(msg.sender);\n    receiver.transfer(_amount);\n    emit WithdrawStake(msg.sender, _amount);\n  }\n\n  // \n  // @notice Get user's pool summary\n  // @param _user The address of user to query\n  // @return User's summary\n  //\n  function userSummary(address _user) public view returns (UserSummary memory) {\n    UserSummary memory summary = userSummaries[_user];\n    uint256 temp_amount =userOutqueues[_user].sumEndedVotes();\n    summary.unlocked += temp_amount;\n    summary.unlocking -= temp_amount;\n    return summary;\n  }\n  // @title Summary() \n  // @dev get the pos pool Summary\n  function Summary() public view returns (ExchangeSummary memory) {\n    return _exchangeSummary;\n  }\n  // @title userOutQueue(address account)\n  // @dev get the user's OutQueue\n  function userOutQueue(address account) public view returns (VotePowerQueue.QueueNode[] memory) {\n    return userOutqueues[account].queueItems();\n  }\n  // @title getBridge() \n  // @dev get the bridgeAddress;\n  function getBridge() public view returns(address){\n    return _bridgeAddress;\n  }\n  // ======================== admin methods =============================\n  // Set the exchange paramters by admin\n  // 1 LockPeriod\n  // 2 bridgeAddress\n  // 3 PoolName\n  //\n  function setLockPeriod(uint64 _slow,uint64 _fast) public onlyOwner {\n    _poolLockPeriod_slow = _slow;\n    _poolLockPeriod_fast = _fast;\n  }\n\n  function setBridge(address bridgeAddress) public onlyOwner {\n    _bridgeAddress = bridgeAddress;\n    birdgeAddrSetted = true;\n  }\n\n  function setPoolName(string memory name) public onlyOwner {\n    poolName = name;\n  }\n\n  // ==================== cross space bridge methods ====================\n  // methods that the core bridge use\n\n  //let bridge know the xCFX increased in this exchangeroom , and set the para::xCFXincrease to 0 \n  function handlexCFXadd() public onlyBridge returns(uint256 ){\n    uint256 temp_stake = _exchangeSummary.xCFXincrease ;\n    require( temp_stake > 0, \"xCFX have not increase\");\n     _exchangeSummary.xCFXincrease = 0;\n     return temp_stake;\n  }\n  //let bridge know the  CFX need to get back, and set the para::unlockingCFX to 0 \n  function handleUnstake() public onlyBridge returns (uint256) {\n    uint256 temp_unstake = _exchangeSummary.unlockingCFX;\n    require( temp_unstake > 0, \"CFX have not decrease\");\n     _exchangeSummary.unlockingCFX = 0;\n     return temp_unstake;\n  }\n\n  function unstakeLen() public view returns (uint256) {\n    return unstakeQueue.end - unstakeQueue.start;\n  }\n\n  function firstUnstakeVotes() public view returns (uint256) {\n    if (unstakeQueue.end == unstakeQueue.start) {\n      return 0;\n    }\n    return unstakeQueue.items[unstakeQueue.start].CFXs;\n  }\n\n  function setxCFXValue(uint256 _cfxvalue) public onlyBridge returns (uint256){\n    _exchangeSummary.xcfxvalues = _cfxvalue;\n    // struct ExchangeSummary {\n    // uint256 totalxcfxs;\n    // uint256 xcfxvalues;\n    // uint256 alloflockedvotes;\n    // uint256 xCFXincrease;\n    // uint256 unlockingCFX;\n    // }\n    return  _exchangeSummary.xcfxvalues;\n  }\n\n  function setlockedvotes(uint256 _lockedvotes) public onlyBridge returns (uint256){\n    _exchangeSummary.alloflockedvotes = _lockedvotes;\n    return  _exchangeSummary.alloflockedvotes;\n  }\n\n  function isContract(address account) internal view returns (bool) {\n        // This method relies on extcodesize/address.code.length, which returns 0\n        // for contracts in construction, since the code is only stored at the end\n        // of the constructor execution.\n\n        return account.code.length > 0;\n  }\n\n  // receive interest\n  function receiveInterest() public payable onlyBridge {}\n  // ======================== contract base methods =====================\n  fallback() external payable {}\n  receive() external payable {}\n\n}",
  "sourcePath": "C:\\Users\\artii\\Black IDE\\espace\\contracts\\eSpace\\Exchangeroom.sol",
  "compiler": {
    "name": "solc",
    "version": "0.8.2+commit.661d1103.Emscripten.clang"
  },
  "schemaVersion": "3.4.3",
  "updatedAt": "2022-08-14T03:45:25.930Z",
  "devdoc": {
    "kind": "dev",
    "methods": {
      "owner()": {
        "details": "Returns the address of the current owner."
      },
      "renounceOwnership()": {
        "details": "Leaves the contract without owner. It will not be possible to call `onlyOwner` functions anymore. Can only be called by the current owner. NOTE: Renouncing ownership will leave the contract without an owner, thereby removing any functionality that is only available to the owner."
      },
      "transferOwnership(address)": {
        "details": "Transfers ownership of the contract to a new account (`newOwner`). Can only be called by the current owner."
      }
    },
    "title": "Exchange room",
    "version": 1
  },
  "userdoc": {
    "kind": "user",
    "methods": {},
    "version": 1
  }
}