{
  "contractName": "Exchangeroom",
  "abi": [
    {
      "anonymous": false,
      "inputs": [
        {
          "indexed": true,
          "internalType": "address",
          "name": "user",
          "type": "address"
        },
        {
          "indexed": false,
          "internalType": "uint256",
          "name": "votePower",
          "type": "uint256"
        }
      ],
      "name": "DecreasePoSStake",
      "type": "event"
    },
    {
      "anonymous": false,
      "inputs": [
        {
          "indexed": true,
          "internalType": "address",
          "name": "user",
          "type": "address"
        },
        {
          "indexed": false,
          "internalType": "uint256",
          "name": "votePower",
          "type": "uint256"
        }
      ],
      "name": "IncreasePoSStake",
      "type": "event"
    },
    {
      "anonymous": false,
      "inputs": [
        {
          "indexed": true,
          "internalType": "address",
          "name": "previousOwner",
          "type": "address"
        },
        {
          "indexed": true,
          "internalType": "address",
          "name": "newOwner",
          "type": "address"
        }
      ],
      "name": "OwnershipTransferred",
      "type": "event"
    },
    {
      "anonymous": false,
      "inputs": [
        {
          "indexed": true,
          "internalType": "address",
          "name": "user",
          "type": "address"
        },
        {
          "indexed": false,
          "internalType": "uint256",
          "name": "votePower",
          "type": "uint256"
        }
      ],
      "name": "WithdrawStake",
      "type": "event"
    },
    {
      "stateMutability": "payable",
      "type": "fallback"
    },
    {
      "inputs": [],
      "name": "_poolLockPeriod_fast",
      "outputs": [
        {
          "internalType": "uint256",
          "name": "",
          "type": "uint256"
        }
      ],
      "stateMutability": "view",
      "type": "function"
    },
    {
      "inputs": [],
      "name": "_poolLockPeriod_slow",
      "outputs": [
        {
          "internalType": "uint256",
          "name": "",
          "type": "uint256"
        }
      ],
      "stateMutability": "view",
      "type": "function"
    },
    {
      "inputs": [],
      "name": "birdgeAddrSetted",
      "outputs": [
        {
          "internalType": "bool",
          "name": "",
          "type": "bool"
        }
      ],
      "stateMutability": "view",
      "type": "function"
    },
    {
      "inputs": [],
      "name": "owner",
      "outputs": [
        {
          "internalType": "address",
          "name": "",
          "type": "address"
        }
      ],
      "stateMutability": "view",
      "type": "function"
    },
    {
      "inputs": [],
      "name": "poolName",
      "outputs": [
        {
          "internalType": "string",
          "name": "",
          "type": "string"
        }
      ],
      "stateMutability": "view",
      "type": "function"
    },
    {
      "inputs": [],
      "name": "renounceOwnership",
      "outputs": [],
      "stateMutability": "nonpayable",
      "type": "function"
    },
    {
      "inputs": [
        {
          "internalType": "address",
          "name": "newOwner",
          "type": "address"
        }
      ],
      "name": "transferOwnership",
      "outputs": [],
      "stateMutability": "nonpayable",
      "type": "function"
    },
    {
      "inputs": [],
      "name": "unstakeQueue",
      "outputs": [
        {
          "internalType": "uint256",
          "name": "start",
          "type": "uint256"
        },
        {
          "internalType": "uint256",
          "name": "end",
          "type": "uint256"
        }
      ],
      "stateMutability": "view",
      "type": "function"
    },
    {
      "stateMutability": "payable",
      "type": "receive"
    },
    {
      "inputs": [],
      "name": "initialize",
      "outputs": [],
      "stateMutability": "nonpayable",
      "type": "function"
    },
    {
      "inputs": [
        {
          "internalType": "address",
          "name": "_XCFX_addr",
          "type": "address"
        },
        {
          "internalType": "address",
          "name": "_S_addr",
          "type": "address"
        }
      ],
      "name": "set_Settings",
      "outputs": [],
      "stateMutability": "nonpayable",
      "type": "function"
    },
    {
      "inputs": [],
      "name": "get_Settings",
      "outputs": [
        {
          "internalType": "address",
          "name": "",
          "type": "address"
        },
        {
          "internalType": "address",
          "name": "",
          "type": "address"
        }
      ],
      "stateMutability": "view",
      "type": "function"
    },
    {
      "inputs": [
        {
          "internalType": "uint256",
          "name": "_amount",
          "type": "uint256"
        }
      ],
      "name": "CFX_exchange_estim",
      "outputs": [
        {
          "internalType": "uint256",
          "name": "",
          "type": "uint256"
        }
      ],
      "stateMutability": "view",
      "type": "function"
    },
    {
      "inputs": [],
      "name": "CFX_exchange_XCFX",
      "outputs": [],
      "stateMutability": "payable",
      "type": "function"
    },
    {
      "inputs": [
        {
          "internalType": "uint256",
          "name": "_amount",
          "type": "uint256"
        }
      ],
      "name": "XCFX_burn_estim",
      "outputs": [
        {
          "internalType": "uint256",
          "name": "",
          "type": "uint256"
        }
      ],
      "stateMutability": "view",
      "type": "function"
    },
    {
      "inputs": [
        {
          "internalType": "uint256",
          "name": "_amount",
          "type": "uint256"
        }
      ],
      "name": "XCFX_burn",
      "outputs": [
        {
          "internalType": "uint256",
          "name": "",
          "type": "uint256"
        }
      ],
      "stateMutability": "nonpayable",
      "type": "function"
    },
    {
      "inputs": [
        {
          "internalType": "uint256",
          "name": "_amount",
          "type": "uint256"
        }
      ],
      "name": "getback_CFX",
      "outputs": [],
      "stateMutability": "nonpayable",
      "type": "function"
    },
    {
      "inputs": [
        {
          "internalType": "address",
          "name": "_user",
          "type": "address"
        }
      ],
      "name": "userSummary",
      "outputs": [
        {
          "components": [
            {
              "internalType": "uint256",
              "name": "unlocking",
              "type": "uint256"
            },
            {
              "internalType": "uint256",
              "name": "unlocked",
              "type": "uint256"
            }
          ],
          "internalType": "struct Exchangeroom.UserSummary",
          "name": "",
          "type": "tuple"
        }
      ],
      "stateMutability": "view",
      "type": "function"
    },
    {
      "inputs": [],
      "name": "Summary",
      "outputs": [
        {
          "components": [
            {
              "internalType": "uint256",
              "name": "totalxcfxs",
              "type": "uint256"
            },
            {
              "internalType": "uint256",
              "name": "xcfxvalues",
              "type": "uint256"
            },
            {
              "internalType": "uint256",
              "name": "alloflockedvotes",
              "type": "uint256"
            },
            {
              "internalType": "uint256",
              "name": "xCFXincrease",
              "type": "uint256"
            },
            {
              "internalType": "uint256",
              "name": "unlockingCFX",
              "type": "uint256"
            }
          ],
          "internalType": "struct Exchangeroom.ExchangeSummary",
          "name": "",
          "type": "tuple"
        }
      ],
      "stateMutability": "view",
      "type": "function"
    },
    {
      "inputs": [
        {
          "internalType": "address",
          "name": "account",
          "type": "address"
        }
      ],
      "name": "userOutQueue",
      "outputs": [
        {
          "components": [
            {
              "internalType": "uint256",
              "name": "votePower",
              "type": "uint256"
            },
            {
              "internalType": "uint256",
              "name": "endBlock",
              "type": "uint256"
            }
          ],
          "internalType": "struct VotePowerQueue.QueueNode[]",
          "name": "",
          "type": "tuple[]"
        }
      ],
      "stateMutability": "view",
      "type": "function"
    },
    {
      "inputs": [],
      "name": "getBridge",
      "outputs": [
        {
          "internalType": "address",
          "name": "",
          "type": "address"
        }
      ],
      "stateMutability": "view",
      "type": "function"
    },
    {
      "inputs": [
        {
          "internalType": "uint64",
          "name": "_slow",
          "type": "uint64"
        },
        {
          "internalType": "uint64",
          "name": "_fast",
          "type": "uint64"
        }
      ],
      "name": "setLockPeriod",
      "outputs": [],
      "stateMutability": "nonpayable",
      "type": "function"
    },
    {
      "inputs": [
        {
          "internalType": "address",
          "name": "bridgeAddress",
          "type": "address"
        }
      ],
      "name": "setBridge",
      "outputs": [],
      "stateMutability": "nonpayable",
      "type": "function"
    },
    {
      "inputs": [
        {
          "internalType": "string",
          "name": "name",
          "type": "string"
        }
      ],
      "name": "setPoolName",
      "outputs": [],
      "stateMutability": "nonpayable",
      "type": "function"
    },
    {
      "inputs": [],
      "name": "handlexCFXadd",
      "outputs": [
        {
          "internalType": "uint256",
          "name": "",
          "type": "uint256"
        }
      ],
      "stateMutability": "nonpayable",
      "type": "function"
    },
    {
      "inputs": [],
      "name": "handleUnstake",
      "outputs": [
        {
          "internalType": "uint256",
          "name": "",
          "type": "uint256"
        }
      ],
      "stateMutability": "nonpayable",
      "type": "function"
    },
    {
      "inputs": [],
      "name": "handleUnstakeTask",
      "outputs": [],
      "stateMutability": "nonpayable",
      "type": "function"
    },
    {
      "inputs": [],
      "name": "unstakeLen",
      "outputs": [
        {
          "internalType": "uint256",
          "name": "",
          "type": "uint256"
        }
      ],
      "stateMutability": "view",
      "type": "function"
    },
    {
      "inputs": [],
      "name": "firstUnstakeVotes",
      "outputs": [
        {
          "internalType": "uint256",
          "name": "",
          "type": "uint256"
        }
      ],
      "stateMutability": "view",
      "type": "function"
    },
    {
      "inputs": [
        {
          "internalType": "uint256",
          "name": "_cfxvalue",
          "type": "uint256"
        }
      ],
      "name": "setxCFXValue",
      "outputs": [
        {
          "internalType": "uint256",
          "name": "",
          "type": "uint256"
        }
      ],
      "stateMutability": "nonpayable",
      "type": "function"
    },
    {
      "inputs": [
        {
          "internalType": "uint256",
          "name": "_lockedvotes",
          "type": "uint256"
        }
      ],
      "name": "setlockedvotes",
      "outputs": [
        {
          "internalType": "uint256",
          "name": "",
          "type": "uint256"
        }
      ],
      "stateMutability": "nonpayable",
      "type": "function"
    },
    {
      "inputs": [
        {
          "internalType": "address",
          "name": "_addr",
          "type": "address"
        }
      ],
      "name": "espacebalanceof",
      "outputs": [
        {
          "internalType": "uint256",
          "name": "",
          "type": "uint256"
        }
      ],
      "stateMutability": "view",
      "type": "function"
    },
    {
      "inputs": [],
      "name": "receiveInterest",
      "outputs": [],
      "stateMutability": "payable",
      "type": "function"
    }
  ],
  "bytecode": "0x6080604052600e6201518062000016919062000170565b6002556002620151806200002b919062000170565b6003556000600760006101000a81548173ffffffffffffffffffffffffffffffffffffffff021916908373ffffffffffffffffffffffffffffffffffffffff1602179055503480156200007d57600080fd5b506200009e62000092620000a460201b60201c565b620000ac60201b60201c565b6200020a565b600033905090565b60008060009054906101000a900473ffffffffffffffffffffffffffffffffffffffff169050816000806101000a81548173ffffffffffffffffffffffffffffffffffffffff021916908373ffffffffffffffffffffffffffffffffffffffff1602179055508173ffffffffffffffffffffffffffffffffffffffff168173ffffffffffffffffffffffffffffffffffffffff167f8be0079c531659141344cd1fd0a4f28419497f9722a3daafe3b4186f6b6457e060405160405180910390a35050565b60006200017d82620001d1565b91506200018a83620001d1565b9250817fffffffffffffffffffffffffffffffffffffffffffffffffffffffffffffffff0483118215151615620001c657620001c5620001db565b5b828202905092915050565b6000819050919050565b7f4e487b7100000000000000000000000000000000000000000000000000000000600052601160045260246000fd5b61374b806200021a6000396000f3fe6080604052600436106101e75760003560e01c806377c9d59311610102578063b295ad2b11610095578063da02d10011610064578063da02d1001461069c578063e3d5b233146106c7578063f2fde38b14610704578063f3466dfa1461072d576101ee565b8063b295ad2b146105f1578063c134e9651461061a578063c7ff5d6e14610645578063c805354214610670576101ee565b80638d294225116100d15780638d294225146105475780638d597859146105725780638da5cb5b1461059d5780638dd14802146105c8576101ee565b806377c9d593146104b35780638129fc1c146104dc57806384981986146104f357806384c07b5d1461050a576101ee565b80634337e4bf1161017a57806366f355db1161014957806366f355db1461044057806368eca7f914610469578063715018a61461047357806372b654241461048a576101ee565b80634337e4bf146103a257806347108abc146103ac5780634a990ba9146103e95780636283c50b14610415576101ee565b80630fffbaf3116101b65780630fffbaf3146102c05780631864ec44146102eb57806321e2f5331461032857806324a3bbe214610365576101ee565b8063048e1dcc146101f057806309fcd2301461022d5780630ddf0ef1146102585780630e08e70214610295576101ee565b366101ee57005b005b3480156101fc57600080fd5b5061021760048036038101906102129190612906565b610758565b6040516102249190613054565b60405180910390f35b34801561023957600080fd5b50610242610779565b60405161024f9190613054565b60405180910390f35b34801561026457600080fd5b5061027f600480360381019061027a91906129ac565b6107bb565b60405161028c9190613054565b60405180910390f35b3480156102a157600080fd5b506102aa6107f6565b6040516102b79190613054565b60405180910390f35b3480156102cc57600080fd5b506102d56108e7565b6040516102e29190612db2565b60405180910390f35b3480156102f757600080fd5b50610312600480360381019061030d91906129ac565b610911565b60405161031f9190613054565b60405180910390f35b34801561033457600080fd5b5061034f600480360381019061034a91906129ac565b6109ba565b60405161035c9190613054565b60405180910390f35b34801561037157600080fd5b5061038c60048036038101906103879190612906565b610a63565b6040516103999190612e1f565b60405180910390f35b6103aa610ab3565b005b3480156103b857600080fd5b506103d360048036038101906103ce91906129ac565b610b45565b6040516103e09190613054565b60405180910390f35b3480156103f557600080fd5b506103fe611204565b60405161040c92919061306f565b60405180910390f35b34801561042157600080fd5b5061042a611216565b6040516104379190612e41565b60405180910390f35b34801561044c57600080fd5b50610467600480360381019061046291906129ac565b611229565b005b610471611284565b005b34801561047f57600080fd5b50610488611504565b005b34801561049657600080fd5b506104b160048036038101906104ac919061296b565b61158c565b005b3480156104bf57600080fd5b506104da60048036038101906104d591906129fe565b611622565b005b3480156104e857600080fd5b506104f16116c4565b005b3480156104ff57600080fd5b506105086117de565b005b34801561051657600080fd5b50610531600480360381019061052c91906129ac565b61187b565b60405161053e9190613054565b60405180910390f35b34801561055357600080fd5b5061055c6118b6565b604051610569919061301e565b60405180910390f35b34801561057e57600080fd5b50610587611902565b6040516105949190613054565b60405180910390f35b3480156105a957600080fd5b506105b2611908565b6040516105bf9190612db2565b60405180910390f35b3480156105d457600080fd5b506105ef60048036038101906105ea9190612906565b611931565b005b3480156105fd57600080fd5b506106186004803603810190610613919061292f565b611a0c565b005b34801561062657600080fd5b5061062f611b0e565b60405161063c9190613054565b60405180910390f35b34801561065157600080fd5b5061065a611b14565b6040516106679190613054565b60405180910390f35b34801561067c57600080fd5b50610685611b31565b604051610693929190612dcd565b60405180910390f35b3480156106a857600080fd5b506106b1611b82565b6040516106be9190613054565b60405180910390f35b3480156106d357600080fd5b506106ee60048036038101906106e99190612906565b611c73565b6040516106fb9190613039565b60405180910390f35b34801561071057600080fd5b5061072b60048036038101906107269190612906565b611d64565b005b34801561073957600080fd5b50610742611e5c565b60405161074f9190612e5c565b60405180910390f35b60008173ffffffffffffffffffffffffffffffffffffffff16319050919050565b6000601160000154601160010154141561079657600090506107b8565b6011600201600060116000015481526020019081526020016000206000015490505b90565b60006107ef6008600101546107e1670de0b6b3a764000085611eea90919063ffffffff16565b611f0090919063ffffffff16565b9050919050565b6000600160009054906101000a900473ffffffffffffffffffffffffffffffffffffffff1673ffffffffffffffffffffffffffffffffffffffff163373ffffffffffffffffffffffffffffffffffffffff1614610888576040517f08c379a000000000000000000000000000000000000000000000000000000000815260040161087f90612ffe565b60405180910390fd5b60006008600301549050600081116108d5576040517f08c379a00000000000000000000000000000000000000000000000000000000081526004016108cc90612f3e565b60405180910390fd5b60006008600301819055508091505090565b6000600160009054906101000a900473ffffffffffffffffffffffffffffffffffffffff16905090565b6000600160009054906101000a900473ffffffffffffffffffffffffffffffffffffffff1673ffffffffffffffffffffffffffffffffffffffff163373ffffffffffffffffffffffffffffffffffffffff16146109a3576040517f08c379a000000000000000000000000000000000000000000000000000000000815260040161099a90612ffe565b60405180910390fd5b816008600201819055506008600201549050919050565b6000600160009054906101000a900473ffffffffffffffffffffffffffffffffffffffff1673ffffffffffffffffffffffffffffffffffffffff163373ffffffffffffffffffffffffffffffffffffffff1614610a4c576040517f08c379a0000000000000000000000000000000000000000000000000000000008152600401610a4390612ffe565b60405180910390fd5b816008600101819055506008600101549050919050565b6060610aac601460008473ffffffffffffffffffffffffffffffffffffffff1673ffffffffffffffffffffffffffffffffffffffff168152602001908152602001600020611f16565b9050919050565b600160009054906101000a900473ffffffffffffffffffffffffffffffffffffffff1673ffffffffffffffffffffffffffffffffffffffff163373ffffffffffffffffffffffffffffffffffffffff1614610b43576040517f08c379a0000000000000000000000000000000000000000000000000000000008152600401610b3a90612ffe565b60405180910390fd5b565b60008060169054906101000a900460ff16610b95576040517f08c379a0000000000000000000000000000000000000000000000000000000008152600401610b8c90612f1e565b60405180910390fd5b600560009054906101000a900473ffffffffffffffffffffffffffffffffffffffff1673ffffffffffffffffffffffffffffffffffffffff166370a08231336040518263ffffffff1660e01b8152600401610bf09190612db2565b60206040518083038186803b158015610c0857600080fd5b505afa158015610c1c573d6000803e3d6000fd5b505050506040513d601f19601f82011682018060405250810190610c4091906129d5565b821115610c82576040517f08c379a0000000000000000000000000000000000000000000000000000000008152600401610c7990612efe565b60405180910390fd5b600560009054906101000a900473ffffffffffffffffffffffffffffffffffffffff1673ffffffffffffffffffffffffffffffffffffffff166318160ddd6040518163ffffffff1660e01b815260040160206040518083038186803b158015610cea57600080fd5b505afa158015610cfe573d6000803e3d6000fd5b505050506040513d601f19601f82011682018060405250810190610d2291906129d5565b600860000181905550600080610d378461187b565b905060006008600401541415610db35760009150610d6c683635c9adc5dea00000600860000154611eea90919063ffffffff16565b811115610dae576040517f08c379a0000000000000000000000000000000000000000000000000000000008152600401610da590612f9e565b60405180910390fd5b610e6b565b610df76008600401546002610dc891906131ca565b610de9683635c9adc5dea00000600860020154611eea90919063ffffffff16565b611f0090919063ffffffff16565b8111610e065760019150610e6a565b610e27683635c9adc5dea00000600860000154611eea90919063ffffffff16565b811115610e69576040517f08c379a0000000000000000000000000000000000000000000000000000000008152600401610e6090612f9e565b60405180910390fd5b5b5b8360086000016000828254610e809190613224565b925050819055508060086004016000828254610e9c9190613143565b92505081905550610ec5604051806020016040528083815250601161206390919063ffffffff16565b600560009054906101000a900473ffffffffffffffffffffffffffffffffffffffff1673ffffffffffffffffffffffffffffffffffffffff16630d1118ce33866040518363ffffffff1660e01b8152600401610f22929190612df6565b600060405180830381600087803b158015610f3c57600080fd5b505af1158015610f50573d6000803e3d6000fd5b505050506001821415610fdb57610fd66040518060400160405280838152602001600354610f7c6120a2565b610f869190613143565b815250601460003373ffffffffffffffffffffffffffffffffffffffff1673ffffffffffffffffffffffffffffffffffffffff1681526020019081526020016000206120aa90919063ffffffff16565b611055565b6110546040518060400160405280838152602001600254610ffa6120a2565b6110049190613143565b815250601460003373ffffffffffffffffffffffffffffffffffffffff1673ffffffffffffffffffffffffffffffffffffffff1681526020019081526020016000206120aa90919063ffffffff16565b5b80600d60003373ffffffffffffffffffffffffffffffffffffffff1673ffffffffffffffffffffffffffffffffffffffff16815260200190815260200160002060000160008282546110a79190613143565b9250508190555060006110f7601460003373ffffffffffffffffffffffffffffffffffffffff1673ffffffffffffffffffffffffffffffffffffffff1681526020019081526020016000206120f3565b905080600d60003373ffffffffffffffffffffffffffffffffffffffff1673ffffffffffffffffffffffffffffffffffffffff168152602001908152602001600020600101600082825461114b9190613143565b9250508190555080600d60003373ffffffffffffffffffffffffffffffffffffffff1673ffffffffffffffffffffffffffffffffffffffff16815260200190815260200160002060000160008282546111a49190613224565b925050819055503373ffffffffffffffffffffffffffffffffffffffff167fd81524ca5b038be9f98b286808a6f46f99c8700bce9ab4793dc12a2dbaa4f2d8866040516111f19190613054565b60405180910390a2849350505050919050565b60118060000154908060010154905082565b600060169054906101000a900460ff1681565b600060169054906101000a900460ff16611278576040517f08c379a000000000000000000000000000000000000000000000000000000000815260040161126f90612f1e565b60405180910390fd5b61128181612182565b50565b600034116112c7576040517f08c379a00000000000000000000000000000000000000000000000000000000081526004016112be90612fde565b60405180910390fd5b600560009054906101000a900473ffffffffffffffffffffffffffffffffffffffff1673ffffffffffffffffffffffffffffffffffffffff166318160ddd6040518163ffffffff1660e01b815260040160206040518083038186803b15801561132f57600080fd5b505afa158015611343573d6000803e3d6000fd5b505050506040513d601f19601f8201168201806040525081019061136791906129d5565b6008600001819055506000600160009054906101000a900473ffffffffffffffffffffffffffffffffffffffff1690508073ffffffffffffffffffffffffffffffffffffffff166108fc349081150290604051600060405180830381858888f193505050501580156113dd573d6000803e3d6000fd5b5060006113e9346107bb565b9050600560009054906101000a900473ffffffffffffffffffffffffffffffffffffffff1673ffffffffffffffffffffffffffffffffffffffff16636039fbdb33836040518363ffffffff1660e01b8152600401611448929190612df6565b600060405180830381600087803b15801561146257600080fd5b505af1158015611476573d6000803e3d6000fd5b50505050806008600001600082825461148f9190613143565b9250508190555080600860030160008282546114ab9190613143565b925050819055503373ffffffffffffffffffffffffffffffffffffffff167ff5ebfcde71acb15a758233f0c9ab25632209399b90a9209a4f2379ec5fcee89f346040516114f89190613054565b60405180910390a25050565b61150c61248e565b73ffffffffffffffffffffffffffffffffffffffff1661152a611908565b73ffffffffffffffffffffffffffffffffffffffff1614611580576040517f08c379a000000000000000000000000000000000000000000000000000000000815260040161157790612f7e565b60405180910390fd5b61158a6000612496565b565b61159461248e565b73ffffffffffffffffffffffffffffffffffffffff166115b2611908565b73ffffffffffffffffffffffffffffffffffffffff1614611608576040517f08c379a00000000000000000000000000000000000000000000000000000000081526004016115ff90612f7e565b60405180910390fd5b806004908051906020019061161e929190612731565b5050565b61162a61248e565b73ffffffffffffffffffffffffffffffffffffffff16611648611908565b73ffffffffffffffffffffffffffffffffffffffff161461169e576040517f08c379a000000000000000000000000000000000000000000000000000000000815260040161169590612f7e565b60405180910390fd5b8167ffffffffffffffff166002819055508067ffffffffffffffff166003819055505050565b600060159054906101000a900460ff16806116ec5750600060149054906101000a900460ff16155b61172b576040517f08c379a000000000000000000000000000000000000000000000000000000000815260040161172290612f5e565b60405180910390fd5b60008060159054906101000a900460ff16159050801561177c576001600060156101000a81548160ff0219169083151502179055506001600060146101000a81548160ff0219169083151502179055505b670de0b6b3a7640000600860010181905550600e6201518061179e91906131ca565b6002819055506002620151806117b491906131ca565b60038190555080156117db5760008060156101000a81548160ff0219169083151502179055505b50565b600160009054906101000a900473ffffffffffffffffffffffffffffffffffffffff1673ffffffffffffffffffffffffffffffffffffffff163373ffffffffffffffffffffffffffffffffffffffff161461186e576040517f08c379a000000000000000000000000000000000000000000000000000000000815260040161186590612ffe565b60405180910390fd5b611878601161255a565b50565b60006118af670de0b6b3a76400006118a160086001015485611eea90919063ffffffff16565b611f0090919063ffffffff16565b9050919050565b6118be6127b7565b60086040518060a001604052908160008201548152602001600182015481526020016002820154815260200160038201548152602001600482015481525050905090565b60035481565b60008060009054906101000a900473ffffffffffffffffffffffffffffffffffffffff16905090565b61193961248e565b73ffffffffffffffffffffffffffffffffffffffff16611957611908565b73ffffffffffffffffffffffffffffffffffffffff16146119ad576040517f08c379a00000000000000000000000000000000000000000000000000000000081526004016119a490612f7e565b60405180910390fd5b80600160006101000a81548173ffffffffffffffffffffffffffffffffffffffff021916908373ffffffffffffffffffffffffffffffffffffffff1602179055506001600060166101000a81548160ff02191690831515021790555050565b611a1461248e565b73ffffffffffffffffffffffffffffffffffffffff16611a32611908565b73ffffffffffffffffffffffffffffffffffffffff1614611a88576040517f08c379a0000000000000000000000000000000000000000000000000000000008152600401611a7f90612f7e565b60405180910390fd5b81600560006101000a81548173ffffffffffffffffffffffffffffffffffffffff021916908373ffffffffffffffffffffffffffffffffffffffff16021790555080600660006101000a81548173ffffffffffffffffffffffffffffffffffffffff021916908373ffffffffffffffffffffffffffffffffffffffff1602179055505050565b60025481565b6000601160000154601160010154611b2c9190613224565b905090565b600080600560009054906101000a900473ffffffffffffffffffffffffffffffffffffffff16600660009054906101000a900473ffffffffffffffffffffffffffffffffffffffff16915091509091565b6000600160009054906101000a900473ffffffffffffffffffffffffffffffffffffffff1673ffffffffffffffffffffffffffffffffffffffff163373ffffffffffffffffffffffffffffffffffffffff1614611c14576040517f08c379a0000000000000000000000000000000000000000000000000000000008152600401611c0b90612ffe565b60405180910390fd5b6000600860040154905060008111611c61576040517f08c379a0000000000000000000000000000000000000000000000000000000008152600401611c5890612fbe565b60405180910390fd5b60006008600401819055508091505090565b611c7b6127e6565b6000600d60008473ffffffffffffffffffffffffffffffffffffffff1673ffffffffffffffffffffffffffffffffffffffff1681526020019081526020016000206040518060400160405290816000820154815260200160018201548152505090506000611d26601460008673ffffffffffffffffffffffffffffffffffffffff1673ffffffffffffffffffffffffffffffffffffffff16815260200190815260200160002061261f565b90508082602001818151611d3a9190613143565b915081815250508082600001818151611d539190613224565b915081815250508192505050919050565b611d6c61248e565b73ffffffffffffffffffffffffffffffffffffffff16611d8a611908565b73ffffffffffffffffffffffffffffffffffffffff1614611de0576040517f08c379a0000000000000000000000000000000000000000000000000000000008152600401611dd790612f7e565b60405180910390fd5b600073ffffffffffffffffffffffffffffffffffffffff168173ffffffffffffffffffffffffffffffffffffffff161415611e50576040517f08c379a0000000000000000000000000000000000000000000000000000000008152600401611e4790612ebe565b60405180910390fd5b611e5981612496565b50565b60048054611e69906132f6565b80601f0160208091040260200160405190810160405280929190818152602001828054611e95906132f6565b8015611ee25780601f10611eb757610100808354040283529160200191611ee2565b820191906000526020600020905b815481529060010190602001808311611ec557829003601f168201915b505050505081565b60008183611ef891906131ca565b905092915050565b60008183611f0e9190613199565b905092915050565b6060600082600001548360010154611f2e9190613224565b67ffffffffffffffff811115611f6d577f4e487b7100000000000000000000000000000000000000000000000000000000600052604160045260246000fd5b604051908082528060200260200182016040528015611fa657816020015b611f93612800565b815260200190600190039081611f8b5790505b5090506000836000015490505b83600101548110156120595783600201600082815260200190815260200160002060405180604001604052908160008201548152602001600182015481525050828560000154836120049190613224565b8151811061203b577f4e487b7100000000000000000000000000000000000000000000000000000000600052603260045260246000fd5b6020026020010181905250808061205190613359565b915050611fb3565b5080915050919050565b8082600201600084600101600081548092919061207f90613359565b919050558152602001908152602001600020600082015181600001559050505050565b600043905090565b808260020160008460010160008154809291906120c690613359565b91905055815260200190815260200160002060008201518160000155602082015181600101559050505050565b600080600090506000836000015490505b8360010154811015612178574384600201600083815260200190815260200160002060010154111561213557612178565b83600201600082815260200190815260200160002060000154826121599190613143565b9150612164846126a4565b50808061217090613359565b915050612104565b5080915050919050565b600060169054906101000a900460ff166121d1576040517f08c379a00000000000000000000000000000000000000000000000000000000081526004016121c890612f1e565b60405180910390fd5b80471015612214576040517f08c379a000000000000000000000000000000000000000000000000000000000815260040161220b90612ede565b60405180910390fd5b600061225d601460003373ffffffffffffffffffffffffffffffffffffffff1673ffffffffffffffffffffffffffffffffffffffff1681526020019081526020016000206120f3565b905080600d60003373ffffffffffffffffffffffffffffffffffffffff1673ffffffffffffffffffffffffffffffffffffffff16815260200190815260200160002060010160008282546122b19190613143565b9250508190555080600d60003373ffffffffffffffffffffffffffffffffffffffff1673ffffffffffffffffffffffffffffffffffffffff168152602001908152602001600020600001600082825461230a9190613224565b9250508190555081600d60003373ffffffffffffffffffffffffffffffffffffffff1673ffffffffffffffffffffffffffffffffffffffff168152602001908152602001600020600101541015612396576040517f08c379a000000000000000000000000000000000000000000000000000000000815260040161238d90612e9e565b60405180910390fd5b81600d60003373ffffffffffffffffffffffffffffffffffffffff1673ffffffffffffffffffffffffffffffffffffffff16815260200190815260200160002060010160008282546123e89190613224565b9250508190555060003390508073ffffffffffffffffffffffffffffffffffffffff166108fc849081150290604051600060405180830381858888f1935050505015801561243a573d6000803e3d6000fd5b503373ffffffffffffffffffffffffffffffffffffffff167f141ef67c4a6d3ec2adfb2f66d33c2b11de5b4f34344757554d430570b18a92ec846040516124819190613054565b60405180910390a2505050565b600033905090565b60008060009054906101000a900473ffffffffffffffffffffffffffffffffffffffff169050816000806101000a81548173ffffffffffffffffffffffffffffffffffffffff021916908373ffffffffffffffffffffffffffffffffffffffff1602179055508173ffffffffffffffffffffffffffffffffffffffff168173ffffffffffffffffffffffffffffffffffffffff167f8be0079c531659141344cd1fd0a4f28419497f9722a3daafe3b4186f6b6457e060405160405180910390a35050565b61256261281a565b81600101548260000154106125ac576040517f08c379a00000000000000000000000000000000000000000000000000000000081526004016125a390612e7e565b60405180910390fd5b60008260020160008460000154815260200190815260200160002060405180602001604052908160008201548152505090508260020160008460000160008154809291906125f990613359565b919050558152602001908152602001600020600080820160009055505080915050919050565b600080600090506000836000015490505b836001015481101561269a57438460020160008381526020019081526020016000206001015411156126615761269a565b83600201600082815260200190815260200160002060000154826126859190613143565b9150808061269290613359565b915050612630565b5080915050919050565b6126ac612800565b60008260020160008460000154815260200190815260200160002060405180604001604052908160008201548152602001600182015481525050905082600201600084600001600081548092919061270390613359565b9190505581526020019081526020016000206000808201600090556001820160009055505080915050919050565b82805461273d906132f6565b90600052602060002090601f01602090048101928261275f57600085556127a6565b82601f1061277857805160ff19168380011785556127a6565b828001600101855582156127a6579182015b828111156127a557825182559160200191906001019061278a565b5b5090506127b3919061282d565b5090565b6040518060a0016040528060008152602001600081526020016000815260200160008152602001600081525090565b604051806040016040528060008152602001600081525090565b604051806040016040528060008152602001600081525090565b6040518060200160405280600081525090565b5b8082111561284657600081600090555060010161282e565b5090565b600061285d612858846130bd565b613098565b90508281526020810184848401111561287557600080fd5b6128808482856132b4565b509392505050565b600081359050612897816136d0565b92915050565b600082601f8301126128ae57600080fd5b81356128be84826020860161284a565b91505092915050565b6000813590506128d6816136e7565b92915050565b6000815190506128eb816136e7565b92915050565b600081359050612900816136fe565b92915050565b60006020828403121561291857600080fd5b600061292684828501612888565b91505092915050565b6000806040838503121561294257600080fd5b600061295085828601612888565b925050602061296185828601612888565b9150509250929050565b60006020828403121561297d57600080fd5b600082013567ffffffffffffffff81111561299757600080fd5b6129a38482850161289d565b91505092915050565b6000602082840312156129be57600080fd5b60006129cc848285016128c7565b91505092915050565b6000602082840312156129e757600080fd5b60006129f5848285016128dc565b91505092915050565b60008060408385031215612a1157600080fd5b6000612a1f858286016128f1565b9250506020612a30858286016128f1565b9150509250929050565b6000612a468383612d36565b60408301905092915050565b612a5b81613258565b82525050565b6000612a6c826130fe565b612a768185613121565b9350612a81836130ee565b8060005b83811015612ab2578151612a998882612a3a565b9750612aa483613114565b925050600181019050612a85565b5085935050505092915050565b612ac88161326a565b82525050565b6000612ad982613109565b612ae38185613132565b9350612af38185602086016132c3565b612afc8161345e565b840191505092915050565b6000612b14600e83613132565b9150612b1f8261346f565b602082019050919050565b6000612b37601f83613132565b9150612b4282613498565b602082019050919050565b6000612b5a602683613132565b9150612b65826134c1565b604082019050919050565b6000612b7d601f83613132565b9150612b8882613510565b602082019050919050565b6000612ba0601883613132565b9150612bab82613539565b602082019050919050565b6000612bc3601283613132565b9150612bce82613562565b602082019050919050565b6000612be6601683613132565b9150612bf18261358b565b602082019050919050565b6000612c09602e83613132565b9150612c14826135b4565b604082019050919050565b6000612c2c602083613132565b9150612c3782613603565b602082019050919050565b6000612c4f601583613132565b9150612c5a8261362c565b602082019050919050565b6000612c72601e83613132565b9150612c7d82613655565b602082019050919050565b6000612c95600883613132565b9150612ca08261367e565b602082019050919050565b6000612cb8601683613132565b9150612cc3826136a7565b602082019050919050565b60a082016000820151612ce46000850182612d94565b506020820151612cf76020850182612d94565b506040820151612d0a6040850182612d94565b506060820151612d1d6060850182612d94565b506080820151612d306080850182612d94565b50505050565b604082016000820151612d4c6000850182612d94565b506020820151612d5f6020850182612d94565b50505050565b604082016000820151612d7b6000850182612d94565b506020820151612d8e6020850182612d94565b50505050565b612d9d81613296565b82525050565b612dac81613296565b82525050565b6000602082019050612dc76000830184612a52565b92915050565b6000604082019050612de26000830185612a52565b612def6020830184612a52565b9392505050565b6000604082019050612e0b6000830185612a52565b612e186020830184612da3565b9392505050565b60006020820190508181036000830152612e398184612a61565b905092915050565b6000602082019050612e566000830184612abf565b92915050565b60006020820190508181036000830152612e768184612ace565b905092915050565b60006020820190508181036000830152612e9781612b07565b9050919050565b60006020820190508181036000830152612eb781612b2a565b9050919050565b60006020820190508181036000830152612ed781612b4d565b9050919050565b60006020820190508181036000830152612ef781612b70565b9050919050565b60006020820190508181036000830152612f1781612b93565b9050919050565b60006020820190508181036000830152612f3781612bb6565b9050919050565b60006020820190508181036000830152612f5781612bd9565b9050919050565b60006020820190508181036000830152612f7781612bfc565b9050919050565b60006020820190508181036000830152612f9781612c1f565b9050919050565b60006020820190508181036000830152612fb781612c42565b9050919050565b60006020820190508181036000830152612fd781612c65565b9050919050565b60006020820190508181036000830152612ff781612c88565b9050919050565b6000602082019050818103600083015261301781612cab565b9050919050565b600060a0820190506130336000830184612cce565b92915050565b600060408201905061304e6000830184612d65565b92915050565b60006020820190506130696000830184612da3565b92915050565b60006040820190506130846000830185612da3565b6130916020830184612da3565b9392505050565b60006130a26130b3565b90506130ae8282613328565b919050565b6000604051905090565b600067ffffffffffffffff8211156130d8576130d761342f565b5b6130e18261345e565b9050602081019050919050565b6000819050602082019050919050565b600081519050919050565b600081519050919050565b6000602082019050919050565b600082825260208201905092915050565b600082825260208201905092915050565b600061314e82613296565b915061315983613296565b9250827fffffffffffffffffffffffffffffffffffffffffffffffffffffffffffffffff0382111561318e5761318d6133a2565b5b828201905092915050565b60006131a482613296565b91506131af83613296565b9250826131bf576131be6133d1565b5b828204905092915050565b60006131d582613296565b91506131e083613296565b9250817fffffffffffffffffffffffffffffffffffffffffffffffffffffffffffffffff0483118215151615613219576132186133a2565b5b828202905092915050565b600061322f82613296565b915061323a83613296565b92508282101561324d5761324c6133a2565b5b828203905092915050565b600061326382613276565b9050919050565b60008115159050919050565b600073ffffffffffffffffffffffffffffffffffffffff82169050919050565b6000819050919050565b600067ffffffffffffffff82169050919050565b82818337600083830152505050565b60005b838110156132e15780820151818401526020810190506132c6565b838111156132f0576000848401525b50505050565b6000600282049050600182168061330e57607f821691505b6020821081141561332257613321613400565b5b50919050565b6133318261345e565b810181811067ffffffffffffffff821117156133505761334f61342f565b5b80604052505050565b600061336482613296565b91507fffffffffffffffffffffffffffffffffffffffffffffffffffffffffffffffff821415613397576133966133a2565b5b600182019050919050565b7f4e487b7100000000000000000000000000000000000000000000000000000000600052601160045260246000fd5b7f4e487b7100000000000000000000000000000000000000000000000000000000600052601260045260246000fd5b7f4e487b7100000000000000000000000000000000000000000000000000000000600052602260045260246000fd5b7f4e487b7100000000000000000000000000000000000000000000000000000000600052604160045260246000fd5b6000601f19601f8301169050919050565b7f517565756520697320656d707479000000000000000000000000000000000000600082015250565b7f796f757220556e6c6f636b656420434658206973206e6f7420656e6f75676800600082015250565b7f4f776e61626c653a206e6577206f776e657220697320746865207a65726f206160008201527f6464726573730000000000000000000000000000000000000000000000000000602082015250565b7f706f6f6c20556e6c6f636b656420434658206973206e6f7420656e6f75676800600082015250565b7f45786365656420796f757220784346582062616c616e63650000000000000000600082015250565b7f506f6f6c206973206e6f74207365747465640000000000000000000000000000600082015250565b7f784346582068617665206e6f7420696e63726561736500000000000000000000600082015250565b7f496e697469616c697a61626c653a20636f6e747261637420697320616c72656160008201527f647920696e697469616c697a6564000000000000000000000000000000000000602082015250565b7f4f776e61626c653a2063616c6c6572206973206e6f7420746865206f776e6572600082015250565b7f4578636565642065786368616e6765206c696d69740000000000000000000000600082015250565b7f756e7374616b6564204346582068617665206e6f742064656372656173650000600082015250565b7f6d757374203e2030000000000000000000000000000000000000000000000000600082015250565b7f4f6e6c792062726964676520697320616c6c6f77656400000000000000000000600082015250565b6136d981613258565b81146136e457600080fd5b50565b6136f081613296565b81146136fb57600080fd5b50565b613707816132a0565b811461371257600080fd5b5056fea2646970667358221220597d2ec45bf8bc01c1a6cae89b45db632b2d5bb5d9780d9e69353a16c29ab05c64736f6c63430008020033",
  "immutableReferences": {},
  "source": "//SPDX-License-Identifier: BUSL-1.1\n\npragma solidity ^0.8.0;\n\nimport \"@openzeppelin/contracts/token/ERC20/ERC20.sol\";\nimport \"@openzeppelin/contracts/access/Ownable.sol\";\nimport \"@openzeppelin/contracts/utils/math/SafeMath.sol\";\nimport \"@openzeppelin/contracts/utils/structs/EnumerableSet.sol\";\nimport \"@openzeppelin/contracts/proxy/utils/Initializable.sol\";\nimport \"../VotePowerQueue.sol\";\nimport \"./UnstakeQueueCFX.sol\";\ninterface IXCFX{\n    function addTokens(address _account, uint256 _value) external;\n    function burnTokens(address _account, uint256 _value) external;\n    function balanceOf(address _account) external view returns(uint256);\n    function totalSupply() external view returns(uint256);\n}\n\n///\n///  @title Exchange room\n///\ncontract Exchangeroom is Ownable,Initializable {\n  using SafeMath for uint256;\n  using EnumerableSet for EnumerableSet.AddressSet;\n  using VotePowerQueue for VotePowerQueue.InOutQueue;\n  using UnstakeQueueCFX for UnstakeQueueCFX.Queue;\n\n  uint256 private constant RATIO_BASE = 10000;\n  uint256 private constant ONE_DAY_BLOCK_COUNT = 3600 * 24;\n  \n  // ======================== Pool config ===============================\n  // wheter this poolContract registed in PoS\n  bool public birdgeAddrSetted;\n  address private _bridgeAddress;\n\n  // lock period: 14 days\n  uint256 public _poolLockPeriod_slow = ONE_DAY_BLOCK_COUNT * 14;\n  uint256 public _poolLockPeriod_fast = ONE_DAY_BLOCK_COUNT * 2;\n  string public poolName; // = \"UNCLEON HUB\";\n   // ======================== xCFX use ==================================\n  address XCFX_address;\n  address Storage_addr;\n\n  address zero_addr=address(0x0000000000000000000000000000000000000000);\n  // ======================== Struct definitions =========================\n\n  /// @title ExchangeSummary\n  /// @custom:field totalxcfxs\n  /// @custom:field totalinterests\n  /// @custom:field cfxstillinstore\n  /// @custom:field remainedcfx\n  struct ExchangeSummary {\n    uint256 totalxcfxs;\n    uint256 xcfxvalues;\n    uint256 alloflockedvotes;\n    uint256 xCFXincrease;\n    uint256 unlockingCFX;\n  }\n\n  /// @title UserSummary\n  /// @custom:field unlocking\n  /// @custom:field unlocked\n  struct UserSummary {\n    uint256 unlocking;\n    uint256 unlocked;\n  }\n\n  // ======================== Contract states ===========================\n  ExchangeSummary private _exchangeSummary;\n  mapping(address => UserSummary) private userSummaries;\n  VotePowerQueue.InOutQueue private Inqueues;\n  // Unstake votes queue\n  UnstakeQueueCFX.Queue public unstakeQueue;  //private--debug\n  mapping(address => VotePowerQueue.InOutQueue) private userOutqueues;\n\n  // ======================== Modifiers =================================\n  modifier onlyRegisted() {\n    require(birdgeAddrSetted, \"Pool is not setted\");\n    _;\n  }\n  modifier onlyBridge() {\n    //require(isContract(msg.sender),\"bridge is contracts\");\n    require(msg.sender == _bridgeAddress, \"Only bridge is allowed\");\n    _;\n  }\n  // ======================== Helpers ===================================\n  function _selfBalance() internal view virtual returns (uint256) {\n    return address(this).balance;\n  }\n\n  function _blockNumber() internal view virtual returns (uint256) {\n    return block.number;\n  }\n  // ======================== Events ====================================\n\n  event IncreasePoSStake(address indexed user, uint256 votePower);\n\n  event DecreasePoSStake(address indexed user, uint256 votePower);\n\n  event WithdrawStake(address indexed user, uint256 votePower);\n\n  // ======================== Init methods ==============================\n\n  // call this method when depoly the 1967 proxy contract\n  function initialize() public initializer {\n    _exchangeSummary.xcfxvalues = 1 ether;\n    _poolLockPeriod_slow = ONE_DAY_BLOCK_COUNT * 14;\n    _poolLockPeriod_fast = ONE_DAY_BLOCK_COUNT * 2;\n  }\n\n  // ======================== Contract methods =========================\n\n  function set_Settings(address _XCFX_addr,address _S_addr) external onlyOwner {\n        XCFX_address = _XCFX_addr;\n        Storage_addr = _S_addr;\n    }  \n\n  function get_Settings() external view returns(address,address){\n    return (XCFX_address,Storage_addr);\n    }\n  //\n  // @title CFX_exchange_estim\n  // @dev _amount The amount of CFX to stake\n  // return xCFX numbers can get\n  //\n  function CFX_exchange_estim(uint256 _amount) public view returns(uint256){\n    return _amount.mul(1 ether).div(_exchangeSummary.xcfxvalues);\n    }\n  //\n  // @title CFX_exchange_XCFX\n  // @dev msg.value The amount of CFX to stake\n  // emit IncreasePoSStake(msg.sender, msg.value);\n  //\n  function CFX_exchange_XCFX() external payable {\n    require(msg.value>0 , 'must > 0');\n    _exchangeSummary.totalxcfxs = IXCFX(XCFX_address).totalSupply();\n\n    address payable receiver = payable(_bridgeAddress);\n    receiver.transfer(msg.value);\n    uint256 xcfx_exchange = CFX_exchange_estim(msg.value);\n    IXCFX(XCFX_address).addTokens(msg.sender, xcfx_exchange);\n\n    _exchangeSummary.totalxcfxs += xcfx_exchange;\n    _exchangeSummary.xCFXincrease += xcfx_exchange;\n    emit IncreasePoSStake(msg.sender, msg.value);\n  }\n  //\n  // @title XCFX_burn_estim\n  // @dev estimate The amount of CFX to user when user burn a _amount xCFX\n  // return CFX amounts user can get\n  //\n  function XCFX_burn_estim(uint256 _amount) public view returns(uint256){\n    return _amount.mul(_exchangeSummary.xcfxvalues).div(1 ether);\n    }\n  //\n  // @title XCFX_burn\n  // @dev burn  _amount  XCFX to get CFXstake\n  // emit DecreasePoSStake(msg.sender, _amount);\n  //\n  function XCFX_burn(uint256 _amount) public virtual onlyRegisted returns(uint256){\n    require(_amount<=IXCFX(XCFX_address).balanceOf(msg.sender),\"Exceed your xCFX balance\");\n    _exchangeSummary.totalxcfxs = IXCFX(XCFX_address).totalSupply();\n    uint256 _mode = 0;\n    uint256 cfx_back = XCFX_burn_estim(_amount);\n    if(_exchangeSummary.unlockingCFX==0){\n      _mode=0;\n      require(cfx_back<=_exchangeSummary.totalxcfxs.mul(1000 ether),\"Exceed exchange limit\");\n    }\n    else if(cfx_back<=_exchangeSummary.alloflockedvotes.mul(1000 ether).div(2*_exchangeSummary.unlockingCFX)){\n      _mode=1;\n    }\n    else {\n      require(cfx_back<=_exchangeSummary.totalxcfxs.mul(1000 ether),\"Exceed exchange limit\");\n    }\n    _exchangeSummary.totalxcfxs -= _amount;\n    _exchangeSummary.unlockingCFX += cfx_back;\n    unstakeQueue.enqueue(UnstakeQueueCFX.Node(cfx_back));\n    IXCFX(XCFX_address).burnTokens(msg.sender, _amount);\n\n    if(_mode == 1){\n      userOutqueues[msg.sender].enqueue(VotePowerQueue.QueueNode(cfx_back, _blockNumber() + _poolLockPeriod_fast));\n      }\n    else{\n      userOutqueues[msg.sender].enqueue(VotePowerQueue.QueueNode(cfx_back, _blockNumber() + _poolLockPeriod_slow));\n    }\n    \n    userSummaries[msg.sender].unlocking += cfx_back;\n    \n    uint256 temp_amount = userOutqueues[msg.sender].collectEndedVotes();\n    userSummaries[msg.sender].unlocked += temp_amount;\n    userSummaries[msg.sender].unlocking -= temp_amount;\n\n    emit DecreasePoSStake(msg.sender, _amount);\n    return _amount;\n  }\n  //\n  // @title getback_CFX\n  // @dev after cooldown time is over, user get his CFX \n  //  _amount is the CFX amount\n  //\n  function getback_CFX(uint256 _amount) public virtual onlyRegisted {\n     withdraw(_amount);\n  }\n\n  //\n  // @notice Withdraw CFX\n  // @param _amount The amount of CFX to withdraw\n  //\n  function withdraw(uint256 _amount) private onlyRegisted {\n    require(address(this).balance>=_amount,\"pool Unlocked CFX is not enough\");\n    uint256 temp_amount = userOutqueues[msg.sender].collectEndedVotes();\n    userSummaries[msg.sender].unlocked += temp_amount;\n    userSummaries[msg.sender].unlocking -= temp_amount;\n\n    require(userSummaries[msg.sender].unlocked >= _amount, \"your Unlocked CFX is not enough\");\n    userSummaries[msg.sender].unlocked -= _amount;\n    address payable receiver = payable(msg.sender);\n    receiver.transfer(_amount);\n    emit WithdrawStake(msg.sender, _amount);\n  }\n\n  // \n  // @notice Get user's pool summary\n  // @param _user The address of user to query\n  // @return User's summary\n  //\n  function userSummary(address _user) public view returns (UserSummary memory) {\n    UserSummary memory summary = userSummaries[_user];\n    uint256 temp_amount =userOutqueues[_user].sumEndedVotes();\n    summary.unlocked += temp_amount;\n    summary.unlocking -= temp_amount;\n    return summary;\n  }\n  // @title Summary() \n  // @dev get the pos pool Summary\n  function Summary() public view returns (ExchangeSummary memory) {\n    return _exchangeSummary;\n  }\n  // @title userOutQueue(address account)\n  // @dev get the user's OutQueue\n  function userOutQueue(address account) public view returns (VotePowerQueue.QueueNode[] memory) {\n    return userOutqueues[account].queueItems();\n  }\n  // @title getBridge() \n  // @dev get the bridgeAddress;\n  function getBridge() public view returns(address){\n    return _bridgeAddress;\n  }\n  // ======================== admin methods =============================\n  // Set the exchange paramters by admin\n  // 1 LockPeriod\n  // 2 bridgeAddress\n  // 3 PoolName\n  //\n  function setLockPeriod(uint64 _slow,uint64 _fast) public onlyOwner {\n    _poolLockPeriod_slow = _slow;\n    _poolLockPeriod_fast = _fast;\n  }\n\n  function setBridge(address bridgeAddress) public onlyOwner {\n    _bridgeAddress = bridgeAddress;\n    birdgeAddrSetted = true;\n  }\n\n  function setPoolName(string memory name) public onlyOwner {\n    poolName = name;\n  }\n\n  // ==================== cross space bridge methods ====================\n  // methods that the core bridge use\n\n  //let bridge know the xCFX increased in this exchangeroom , and set the para::xCFXincrease to 0 \n  function handlexCFXadd() public onlyBridge returns(uint256 ){\n    uint256 temp_stake = _exchangeSummary.xCFXincrease ;\n    require( temp_stake > 0, \"xCFX have not increase\");\n     _exchangeSummary.xCFXincrease = 0;\n     return temp_stake;\n  }\n  //let bridge know the  CFX need to get back, and set the para::unlockingCFX to 0 \n  function handleUnstake() public onlyBridge returns (uint256) {\n    uint256 temp_unstake = _exchangeSummary.unlockingCFX;\n    require( temp_unstake > 0, \"unstaked CFX have not decrease\");\n     _exchangeSummary.unlockingCFX = 0;\n     return temp_unstake;\n  }\n  function handleUnstakeTask() public onlyBridge {\n    unstakeQueue.dequeue();\n  }\n\n  function unstakeLen() public view returns (uint256) {\n    return unstakeQueue.end - unstakeQueue.start;\n  }\n\n  function firstUnstakeVotes() public view returns (uint256) {\n    if (unstakeQueue.end == unstakeQueue.start) {\n      return 0;\n    }\n    return unstakeQueue.items[unstakeQueue.start].CFXs;\n  }\n\n  function setxCFXValue(uint256 _cfxvalue) public onlyBridge returns (uint256){\n    _exchangeSummary.xcfxvalues = _cfxvalue;\n    // struct ExchangeSummary {\n    // uint256 totalxcfxs;\n    // uint256 xcfxvalues;\n    // uint256 alloflockedvotes;\n    // uint256 xCFXincrease;\n    // uint256 unlockingCFX;\n    // }\n    return  _exchangeSummary.xcfxvalues;\n  }\n\n  function setlockedvotes(uint256 _lockedvotes) public onlyBridge returns (uint256){\n    _exchangeSummary.alloflockedvotes = _lockedvotes;\n    return  _exchangeSummary.alloflockedvotes;\n  }\n\n  function espacebalanceof(address _addr) public view returns(uint256) {\n        return _addr.balance;\n  }\n\n  function isContract(address account) internal view returns (bool) {\n        // This method relies on extcodesize/address.code.length, which returns 0\n        // for contracts in construction, since the code is only stored at the end\n        // of the constructor execution.\n\n        return account.code.length > 0;\n  }\n\n  // receive interest\n  function receiveInterest() public payable onlyBridge {}\n  // ======================== contract base methods =====================\n  fallback() external payable {}\n  receive() external payable {}\n\n}",
  "sourcePath": "C:\\Users\\artii\\Black IDE\\espace\\contracts\\eSpace\\Exchangeroom.sol",
  "compiler": {
    "name": "solc",
    "version": "0.8.2+commit.661d1103.Emscripten.clang"
  },
  "schemaVersion": "3.4.3",
  "updatedAt": "2022-08-25T12:09:24.814Z",
  "devdoc": {
    "kind": "dev",
    "methods": {
      "owner()": {
        "details": "Returns the address of the current owner."
      },
      "renounceOwnership()": {
        "details": "Leaves the contract without owner. It will not be possible to call `onlyOwner` functions anymore. Can only be called by the current owner. NOTE: Renouncing ownership will leave the contract without an owner, thereby removing any functionality that is only available to the owner."
      },
      "transferOwnership(address)": {
        "details": "Transfers ownership of the contract to a new account (`newOwner`). Can only be called by the current owner."
      }
    },
    "title": "Exchange room",
    "version": 1
  },
  "userdoc": {
    "kind": "user",
    "methods": {},
    "version": 1
  }
}