{
  "contractName": "GameItems",
  "abi": [
    {
      "inputs": [],
      "stateMutability": "nonpayable",
      "type": "constructor"
    },
    {
      "anonymous": false,
      "inputs": [
        {
          "indexed": true,
          "internalType": "address",
          "name": "account",
          "type": "address"
        },
        {
          "indexed": true,
          "internalType": "address",
          "name": "operator",
          "type": "address"
        },
        {
          "indexed": false,
          "internalType": "bool",
          "name": "approved",
          "type": "bool"
        }
      ],
      "name": "ApprovalForAll",
      "type": "event"
    },
    {
      "anonymous": false,
      "inputs": [
        {
          "indexed": true,
          "internalType": "address",
          "name": "operator",
          "type": "address"
        },
        {
          "indexed": true,
          "internalType": "address",
          "name": "from",
          "type": "address"
        },
        {
          "indexed": true,
          "internalType": "address",
          "name": "to",
          "type": "address"
        },
        {
          "indexed": false,
          "internalType": "uint256[]",
          "name": "ids",
          "type": "uint256[]"
        },
        {
          "indexed": false,
          "internalType": "uint256[]",
          "name": "values",
          "type": "uint256[]"
        }
      ],
      "name": "TransferBatch",
      "type": "event"
    },
    {
      "anonymous": false,
      "inputs": [
        {
          "indexed": true,
          "internalType": "address",
          "name": "operator",
          "type": "address"
        },
        {
          "indexed": true,
          "internalType": "address",
          "name": "from",
          "type": "address"
        },
        {
          "indexed": true,
          "internalType": "address",
          "name": "to",
          "type": "address"
        },
        {
          "indexed": false,
          "internalType": "uint256",
          "name": "id",
          "type": "uint256"
        },
        {
          "indexed": false,
          "internalType": "uint256",
          "name": "value",
          "type": "uint256"
        }
      ],
      "name": "TransferSingle",
      "type": "event"
    },
    {
      "anonymous": false,
      "inputs": [
        {
          "indexed": false,
          "internalType": "string",
          "name": "value",
          "type": "string"
        },
        {
          "indexed": true,
          "internalType": "uint256",
          "name": "id",
          "type": "uint256"
        }
      ],
      "name": "URI",
      "type": "event"
    },
    {
      "inputs": [],
      "name": "GOLD",
      "outputs": [
        {
          "internalType": "uint256",
          "name": "",
          "type": "uint256"
        }
      ],
      "stateMutability": "view",
      "type": "function"
    },
    {
      "inputs": [],
      "name": "SHIELD",
      "outputs": [
        {
          "internalType": "uint256",
          "name": "",
          "type": "uint256"
        }
      ],
      "stateMutability": "view",
      "type": "function"
    },
    {
      "inputs": [],
      "name": "SILVER",
      "outputs": [
        {
          "internalType": "uint256",
          "name": "",
          "type": "uint256"
        }
      ],
      "stateMutability": "view",
      "type": "function"
    },
    {
      "inputs": [],
      "name": "SWORD",
      "outputs": [
        {
          "internalType": "uint256",
          "name": "",
          "type": "uint256"
        }
      ],
      "stateMutability": "view",
      "type": "function"
    },
    {
      "inputs": [],
      "name": "THORS_HAMMER",
      "outputs": [
        {
          "internalType": "uint256",
          "name": "",
          "type": "uint256"
        }
      ],
      "stateMutability": "view",
      "type": "function"
    },
    {
      "inputs": [
        {
          "internalType": "address",
          "name": "account",
          "type": "address"
        },
        {
          "internalType": "uint256",
          "name": "id",
          "type": "uint256"
        }
      ],
      "name": "balanceOf",
      "outputs": [
        {
          "internalType": "uint256",
          "name": "",
          "type": "uint256"
        }
      ],
      "stateMutability": "view",
      "type": "function"
    },
    {
      "inputs": [
        {
          "internalType": "address[]",
          "name": "accounts",
          "type": "address[]"
        },
        {
          "internalType": "uint256[]",
          "name": "ids",
          "type": "uint256[]"
        }
      ],
      "name": "balanceOfBatch",
      "outputs": [
        {
          "internalType": "uint256[]",
          "name": "",
          "type": "uint256[]"
        }
      ],
      "stateMutability": "view",
      "type": "function"
    },
    {
      "inputs": [
        {
          "internalType": "address",
          "name": "account",
          "type": "address"
        },
        {
          "internalType": "address",
          "name": "operator",
          "type": "address"
        }
      ],
      "name": "isApprovedForAll",
      "outputs": [
        {
          "internalType": "bool",
          "name": "",
          "type": "bool"
        }
      ],
      "stateMutability": "view",
      "type": "function"
    },
    {
      "inputs": [
        {
          "internalType": "address",
          "name": "from",
          "type": "address"
        },
        {
          "internalType": "address",
          "name": "to",
          "type": "address"
        },
        {
          "internalType": "uint256[]",
          "name": "ids",
          "type": "uint256[]"
        },
        {
          "internalType": "uint256[]",
          "name": "amounts",
          "type": "uint256[]"
        },
        {
          "internalType": "bytes",
          "name": "data",
          "type": "bytes"
        }
      ],
      "name": "safeBatchTransferFrom",
      "outputs": [],
      "stateMutability": "nonpayable",
      "type": "function"
    },
    {
      "inputs": [
        {
          "internalType": "address",
          "name": "from",
          "type": "address"
        },
        {
          "internalType": "address",
          "name": "to",
          "type": "address"
        },
        {
          "internalType": "uint256",
          "name": "id",
          "type": "uint256"
        },
        {
          "internalType": "uint256",
          "name": "amount",
          "type": "uint256"
        },
        {
          "internalType": "bytes",
          "name": "data",
          "type": "bytes"
        }
      ],
      "name": "safeTransferFrom",
      "outputs": [],
      "stateMutability": "nonpayable",
      "type": "function"
    },
    {
      "inputs": [
        {
          "internalType": "address",
          "name": "operator",
          "type": "address"
        },
        {
          "internalType": "bool",
          "name": "approved",
          "type": "bool"
        }
      ],
      "name": "setApprovalForAll",
      "outputs": [],
      "stateMutability": "nonpayable",
      "type": "function"
    },
    {
      "inputs": [
        {
          "internalType": "bytes4",
          "name": "interfaceId",
          "type": "bytes4"
        }
      ],
      "name": "supportsInterface",
      "outputs": [
        {
          "internalType": "bool",
          "name": "",
          "type": "bool"
        }
      ],
      "stateMutability": "view",
      "type": "function"
    },
    {
      "inputs": [
        {
          "internalType": "uint256",
          "name": "",
          "type": "uint256"
        }
      ],
      "name": "uri",
      "outputs": [
        {
          "internalType": "string",
          "name": "",
          "type": "string"
        }
      ],
      "stateMutability": "view",
      "type": "function"
    }
  ],
  "bytecode": "0x60806040523480156200001157600080fd5b506040518060600160405280602781526020016200347d602791396200003d816200011560201b60201c565b506200006a336000670de0b6b3a7640000604051806020016040528060008152506200013160201b60201c565b6200009a3360016b033b2e3c9fd0803ce8000000604051806020016040528060008152506200013160201b60201c565b620000bf3360026001604051806020016040528060008152506200013160201b60201c565b620000e7336003633b9aca00604051806020016040528060008152506200013160201b60201c565b6200010f336004633b9aca00604051806020016040528060008152506200013160201b60201c565b62000d37565b80600290805190602001906200012d929190620005ec565b5050565b600073ffffffffffffffffffffffffffffffffffffffff168473ffffffffffffffffffffffffffffffffffffffff161415620001a4576040517f08c379a00000000000000000000000000000000000000000000000000000000081526004016200019b90620008c4565b60405180910390fd5b6000620001b6620002f660201b60201c565b9050620001ef81600087620001d188620002fe60201b60201c565b620001e288620002fe60201b60201c565b87620003c760201b60201c565b8260008086815260200190815260200160002060008773ffffffffffffffffffffffffffffffffffffffff1673ffffffffffffffffffffffffffffffffffffffff168152602001908152602001600020600082825462000250919062000955565b925050819055508473ffffffffffffffffffffffffffffffffffffffff16600073ffffffffffffffffffffffffffffffffffffffff168273ffffffffffffffffffffffffffffffffffffffff167fc3d58168c5ae7397731d063d5bbf3d657854427343f4c083240f7aacaa2d0f628787604051620002d0929190620008e6565b60405180910390a4620002ef81600087878787620003cf60201b60201c565b5050505050565b600033905090565b60606000600167ffffffffffffffff81111562000344577f4e487b7100000000000000000000000000000000000000000000000000000000600052604160045260246000fd5b604051908082528060200260200182016040528015620003735781602001602082028036833780820191505090505b5090508281600081518110620003b2577f4e487b7100000000000000000000000000000000000000000000000000000000600052603260045260246000fd5b60200260200101818152505080915050919050565b505050505050565b620003fb8473ffffffffffffffffffffffffffffffffffffffff16620005d960201b62000a0d1760201c565b15620005d1578373ffffffffffffffffffffffffffffffffffffffff1663f23a6e6187878686866040518663ffffffff1660e01b815260040162000444959493929190620007f8565b602060405180830381600087803b1580156200045f57600080fd5b505af19250505080156200049357506040513d601f19601f82011682018060405250810190620004909190620006b3565b60015b6200054557620004a262000b4b565b806308c379a01415620005065750620004ba62000c7b565b80620004c7575062000508565b806040517f08c379a0000000000000000000000000000000000000000000000000000000008152600401620004fd91906200085c565b60405180910390fd5b505b6040517f08c379a00000000000000000000000000000000000000000000000000000000081526004016200053c9062000880565b60405180910390fd5b63f23a6e6160e01b7bffffffffffffffffffffffffffffffffffffffffffffffffffffffff1916817bffffffffffffffffffffffffffffffffffffffffffffffffffffffff191614620005cf576040517f08c379a0000000000000000000000000000000000000000000000000000000008152600401620005c690620008a2565b60405180910390fd5b505b505050505050565b600080823b905060008111915050919050565b828054620005fa9062000a52565b90600052602060002090601f0160209004810192826200061e57600085556200066a565b82601f106200063957805160ff19168380011785556200066a565b828001600101855582156200066a579182015b82811115620006695782518255916020019190600101906200064c565b5b5090506200067991906200067d565b5090565b5b80821115620006985760008160009055506001016200067e565b5090565b600081519050620006ad8162000d1d565b92915050565b600060208284031215620006c657600080fd5b6000620006d6848285016200069c565b91505092915050565b620006ea81620009b2565b82525050565b6000620006fd826200091d565b62000709818562000933565b93506200071b81856020860162000a1c565b620007268162000b70565b840191505092915050565b60006200073e8262000928565b6200074a818562000944565b93506200075c81856020860162000a1c565b620007678162000b70565b840191505092915050565b60006200078160348362000944565b91506200078e8262000b8e565b604082019050919050565b6000620007a860288362000944565b9150620007b58262000bdd565b604082019050919050565b6000620007cf60218362000944565b9150620007dc8262000c2c565b604082019050919050565b620007f28162000a12565b82525050565b600060a0820190506200080f6000830188620006df565b6200081e6020830187620006df565b6200082d6040830186620007e7565b6200083c6060830185620007e7565b8181036080830152620008508184620006f0565b90509695505050505050565b6000602082019050818103600083015262000878818462000731565b905092915050565b600060208201905081810360008301526200089b8162000772565b9050919050565b60006020820190508181036000830152620008bd8162000799565b9050919050565b60006020820190508181036000830152620008df81620007c0565b9050919050565b6000604082019050620008fd6000830185620007e7565b6200090c6020830184620007e7565b9392505050565b6000604051905090565b600081519050919050565b600081519050919050565b600082825260208201905092915050565b600082825260208201905092915050565b6000620009628262000a12565b91506200096f8362000a12565b9250827fffffffffffffffffffffffffffffffffffffffffffffffffffffffffffffffff03821115620009a757620009a662000abe565b5b828201905092915050565b6000620009bf82620009f2565b9050919050565b60007fffffffff0000000000000000000000000000000000000000000000000000000082169050919050565b600073ffffffffffffffffffffffffffffffffffffffff82169050919050565b6000819050919050565b60005b8381101562000a3c57808201518184015260208101905062000a1f565b8381111562000a4c576000848401525b50505050565b6000600282049050600182168062000a6b57607f821691505b6020821081141562000a825762000a8162000aed565b5b50919050565b62000a938262000b70565b810181811067ffffffffffffffff8211171562000ab55762000ab462000b1c565b5b80604052505050565b7f4e487b7100000000000000000000000000000000000000000000000000000000600052601160045260246000fd5b7f4e487b7100000000000000000000000000000000000000000000000000000000600052602260045260246000fd5b7f4e487b7100000000000000000000000000000000000000000000000000000000600052604160045260246000fd5b600060033d111562000b6d5760046000803e62000b6a60005162000b81565b90505b90565b6000601f19601f8301169050919050565b60008160e01c9050919050565b7f455243313135353a207472616e7366657220746f206e6f6e204552433131353560008201527f526563656976657220696d706c656d656e746572000000000000000000000000602082015250565b7f455243313135353a204552433131353552656365697665722072656a6563746560008201527f6420746f6b656e73000000000000000000000000000000000000000000000000602082015250565b7f455243313135353a206d696e7420746f20746865207a65726f2061646472657360008201527f7300000000000000000000000000000000000000000000000000000000000000602082015250565b600060443d101562000c8d5762000d1a565b62000c9762000913565b60043d036004823e80513d602482011167ffffffffffffffff8211171562000cc157505062000d1a565b808201805167ffffffffffffffff81111562000ce1575050505062000d1a565b80602083010160043d03850181111562000d0057505050505062000d1a565b62000d118260200185018662000a88565b82955050505050505b90565b62000d2881620009c6565b811462000d3457600080fd5b50565b6127368062000d476000396000f3fe608060405234801561001057600080fd5b50600436106100ce5760003560e01c80634e1273f41161008c578063d562e20411610066578063d562e20414610225578063e3e55f0814610243578063e985e9c514610261578063f242432a14610291576100ce565b80634e1273f4146101bb5780635b2725ed146101eb578063a22cb46514610209576100ce565b8062fdd58e146100d357806301ffc9a7146101035780630e89341c1461013357806313dc989f146101635780632eb2c2d6146101815780633e4bee381461019d575b600080fd5b6100ed60048036038101906100e891906118d3565b6102ad565b6040516100fa9190611f10565b60405180910390f35b61011d6004803603810190610118919061197b565b610376565b60405161012a9190611d93565b60405180910390f35b61014d600480360381019061014891906119cd565b610458565b60405161015a9190611dae565b60405180910390f35b61016b6104ec565b6040516101789190611f10565b60405180910390f35b61019b60048036038101906101969190611749565b6104f1565b005b6101a5610592565b6040516101b29190611f10565b60405180910390f35b6101d560048036038101906101d0919061190f565b610597565b6040516101e29190611d3a565b60405180910390f35b6101f3610748565b6040516102009190611f10565b60405180910390f35b610223600480360381019061021e9190611897565b61074d565b005b61022d6108ce565b60405161023a9190611f10565b60405180910390f35b61024b6108d3565b6040516102589190611f10565b60405180910390f35b61027b6004803603810190610276919061170d565b6108d8565b6040516102889190611d93565b60405180910390f35b6102ab60048036038101906102a69190611808565b61096c565b005b60008073ffffffffffffffffffffffffffffffffffffffff168373ffffffffffffffffffffffffffffffffffffffff16141561031e576040517f08c379a000000000000000000000000000000000000000000000000000000000815260040161031590611e10565b60405180910390fd5b60008083815260200190815260200160002060008473ffffffffffffffffffffffffffffffffffffffff1673ffffffffffffffffffffffffffffffffffffffff16815260200190815260200160002054905092915050565b60007fd9b67a26000000000000000000000000000000000000000000000000000000007bffffffffffffffffffffffffffffffffffffffffffffffffffffffff1916827bffffffffffffffffffffffffffffffffffffffffffffffffffffffff1916148061044157507f0e89341c000000000000000000000000000000000000000000000000000000007bffffffffffffffffffffffffffffffffffffffffffffffffffffffff1916827bffffffffffffffffffffffffffffffffffffffffffffffffffffffff1916145b80610451575061045082610a20565b5b9050919050565b6060600280546104679061217f565b80601f01602080910402602001604051908101604052809291908181526020018280546104939061217f565b80156104e05780601f106104b5576101008083540402835291602001916104e0565b820191906000526020600020905b8154815290600101906020018083116104c357829003601f168201915b50505050509050919050565b600381565b6104f9610a8a565b73ffffffffffffffffffffffffffffffffffffffff168573ffffffffffffffffffffffffffffffffffffffff16148061053f575061053e85610539610a8a565b6108d8565b5b61057e576040517f08c379a000000000000000000000000000000000000000000000000000000000815260040161057590611e70565b60405180910390fd5b61058b8585858585610a92565b5050505050565b600081565b606081518351146105dd576040517f08c379a00000000000000000000000000000000000000000000000000000000081526004016105d490611ed0565b60405180910390fd5b6000835167ffffffffffffffff811115610620577f4e487b7100000000000000000000000000000000000000000000000000000000600052604160045260246000fd5b60405190808252806020026020018201604052801561064e5781602001602082028036833780820191505090505b50905060005b845181101561073d576106e7858281518110610699577f4e487b7100000000000000000000000000000000000000000000000000000000600052603260045260246000fd5b60200260200101518583815181106106da577f4e487b7100000000000000000000000000000000000000000000000000000000600052603260045260246000fd5b60200260200101516102ad565b828281518110610720577f4e487b7100000000000000000000000000000000000000000000000000000000600052603260045260246000fd5b60200260200101818152505080610736906121e2565b9050610654565b508091505092915050565b600481565b8173ffffffffffffffffffffffffffffffffffffffff1661076c610a8a565b73ffffffffffffffffffffffffffffffffffffffff1614156107c3576040517f08c379a00000000000000000000000000000000000000000000000000000000081526004016107ba90611eb0565b60405180910390fd5b80600160006107d0610a8a565b73ffffffffffffffffffffffffffffffffffffffff1673ffffffffffffffffffffffffffffffffffffffff16815260200190815260200160002060008473ffffffffffffffffffffffffffffffffffffffff1673ffffffffffffffffffffffffffffffffffffffff16815260200190815260200160002060006101000a81548160ff0219169083151502179055508173ffffffffffffffffffffffffffffffffffffffff1661087d610a8a565b73ffffffffffffffffffffffffffffffffffffffff167f17307eab39ab6107e8899845ad3d59bd9653f200f220920489ca2b5937696c31836040516108c29190611d93565b60405180910390a35050565b600281565b600181565b6000600160008473ffffffffffffffffffffffffffffffffffffffff1673ffffffffffffffffffffffffffffffffffffffff16815260200190815260200160002060008373ffffffffffffffffffffffffffffffffffffffff1673ffffffffffffffffffffffffffffffffffffffff16815260200190815260200160002060009054906101000a900460ff16905092915050565b610974610a8a565b73ffffffffffffffffffffffffffffffffffffffff168573ffffffffffffffffffffffffffffffffffffffff1614806109ba57506109b9856109b4610a8a565b6108d8565b5b6109f9576040517f08c379a00000000000000000000000000000000000000000000000000000000081526004016109f090611e30565b60405180910390fd5b610a068585858585610df2565b5050505050565b600080823b905060008111915050919050565b60007f01ffc9a7000000000000000000000000000000000000000000000000000000007bffffffffffffffffffffffffffffffffffffffffffffffffffffffff1916827bffffffffffffffffffffffffffffffffffffffffffffffffffffffff1916149050919050565b600033905090565b8151835114610ad6576040517f08c379a0000000000000000000000000000000000000000000000000000000008152600401610acd90611ef0565b60405180910390fd5b600073ffffffffffffffffffffffffffffffffffffffff168473ffffffffffffffffffffffffffffffffffffffff161415610b46576040517f08c379a0000000000000000000000000000000000000000000000000000000008152600401610b3d90611e50565b60405180910390fd5b6000610b50610a8a565b9050610b60818787878787611074565b60005b8451811015610d5d576000858281518110610ba7577f4e487b7100000000000000000000000000000000000000000000000000000000600052603260045260246000fd5b602002602001015190506000858381518110610bec577f4e487b7100000000000000000000000000000000000000000000000000000000600052603260045260246000fd5b60200260200101519050600080600084815260200190815260200160002060008b73ffffffffffffffffffffffffffffffffffffffff1673ffffffffffffffffffffffffffffffffffffffff16815260200190815260200160002054905081811015610c8d576040517f08c379a0000000000000000000000000000000000000000000000000000000008152600401610c8490611e90565b60405180910390fd5b81810360008085815260200190815260200160002060008c73ffffffffffffffffffffffffffffffffffffffff1673ffffffffffffffffffffffffffffffffffffffff168152602001908152602001600020819055508160008085815260200190815260200160002060008b73ffffffffffffffffffffffffffffffffffffffff1673ffffffffffffffffffffffffffffffffffffffff1681526020019081526020016000206000828254610d429190612073565b9250508190555050505080610d56906121e2565b9050610b63565b508473ffffffffffffffffffffffffffffffffffffffff168673ffffffffffffffffffffffffffffffffffffffff168273ffffffffffffffffffffffffffffffffffffffff167f4a39dc06d4c0dbc64b70af90fd698a233a518aa5d07e595d983b8c0526c8f7fb8787604051610dd4929190611d5c565b60405180910390a4610dea81878787878761107c565b505050505050565b600073ffffffffffffffffffffffffffffffffffffffff168473ffffffffffffffffffffffffffffffffffffffff161415610e62576040517f08c379a0000000000000000000000000000000000000000000000000000000008152600401610e5990611e50565b60405180910390fd5b6000610e6c610a8a565b9050610e8c818787610e7d88611263565b610e8688611263565b87611074565b600080600086815260200190815260200160002060008873ffffffffffffffffffffffffffffffffffffffff1673ffffffffffffffffffffffffffffffffffffffff16815260200190815260200160002054905083811015610f23576040517f08c379a0000000000000000000000000000000000000000000000000000000008152600401610f1a90611e90565b60405180910390fd5b83810360008087815260200190815260200160002060008973ffffffffffffffffffffffffffffffffffffffff1673ffffffffffffffffffffffffffffffffffffffff168152602001908152602001600020819055508360008087815260200190815260200160002060008873ffffffffffffffffffffffffffffffffffffffff1673ffffffffffffffffffffffffffffffffffffffff1681526020019081526020016000206000828254610fd89190612073565b925050819055508573ffffffffffffffffffffffffffffffffffffffff168773ffffffffffffffffffffffffffffffffffffffff168373ffffffffffffffffffffffffffffffffffffffff167fc3d58168c5ae7397731d063d5bbf3d657854427343f4c083240f7aacaa2d0f628888604051611055929190611f2b565b60405180910390a461106b828888888888611329565b50505050505050565b505050505050565b61109b8473ffffffffffffffffffffffffffffffffffffffff16610a0d565b1561125b578373ffffffffffffffffffffffffffffffffffffffff1663bc197c8187878686866040518663ffffffff1660e01b81526004016110e1959493929190611c78565b602060405180830381600087803b1580156110fb57600080fd5b505af192505050801561112c57506040513d601f19601f8201168201806040525081019061112991906119a4565b60015b6111d2576111386122b8565b806308c379a01415611195575061114d61260e565b806111585750611197565b806040517f08c379a000000000000000000000000000000000000000000000000000000000815260040161118c9190611dae565b60405180910390fd5b505b6040517f08c379a00000000000000000000000000000000000000000000000000000000081526004016111c990611dd0565b60405180910390fd5b63bc197c8160e01b7bffffffffffffffffffffffffffffffffffffffffffffffffffffffff1916817bffffffffffffffffffffffffffffffffffffffffffffffffffffffff191614611259576040517f08c379a000000000000000000000000000000000000000000000000000000000815260040161125090611df0565b60405180910390fd5b505b505050505050565b60606000600167ffffffffffffffff8111156112a8577f4e487b7100000000000000000000000000000000000000000000000000000000600052604160045260246000fd5b6040519080825280602002602001820160405280156112d65781602001602082028036833780820191505090505b5090508281600081518110611314577f4e487b7100000000000000000000000000000000000000000000000000000000600052603260045260246000fd5b60200260200101818152505080915050919050565b6113488473ffffffffffffffffffffffffffffffffffffffff16610a0d565b15611508578373ffffffffffffffffffffffffffffffffffffffff1663f23a6e6187878686866040518663ffffffff1660e01b815260040161138e959493929190611ce0565b602060405180830381600087803b1580156113a857600080fd5b505af19250505080156113d957506040513d601f19601f820116820180604052508101906113d691906119a4565b60015b61147f576113e56122b8565b806308c379a0141561144257506113fa61260e565b806114055750611444565b806040517f08c379a00000000000000000000000000000000000000000000000000000000081526004016114399190611dae565b60405180910390fd5b505b6040517f08c379a000000000000000000000000000000000000000000000000000000000815260040161147690611dd0565b60405180910390fd5b63f23a6e6160e01b7bffffffffffffffffffffffffffffffffffffffffffffffffffffffff1916817bffffffffffffffffffffffffffffffffffffffffffffffffffffffff191614611506576040517f08c379a00000000000000000000000000000000000000000000000000000000081526004016114fd90611df0565b60405180910390fd5b505b505050505050565b600061152361151e84611f79565b611f54565b9050808382526020820190508285602086028201111561154257600080fd5b60005b8581101561157257816115588882611626565b845260208401935060208301925050600181019050611545565b5050509392505050565b600061158f61158a84611fa5565b611f54565b905080838252602082019050828560208602820111156115ae57600080fd5b60005b858110156115de57816115c488826116f8565b8452602084019350602083019250506001810190506115b1565b5050509392505050565b60006115fb6115f684611fd1565b611f54565b90508281526020810184848401111561161357600080fd5b61161e84828561213d565b509392505050565b600081359050611635816126a4565b92915050565b600082601f83011261164c57600080fd5b813561165c848260208601611510565b91505092915050565b600082601f83011261167657600080fd5b813561168684826020860161157c565b91505092915050565b60008135905061169e816126bb565b92915050565b6000813590506116b3816126d2565b92915050565b6000815190506116c8816126d2565b92915050565b600082601f8301126116df57600080fd5b81356116ef8482602086016115e8565b91505092915050565b600081359050611707816126e9565b92915050565b6000806040838503121561172057600080fd5b600061172e85828601611626565b925050602061173f85828601611626565b9150509250929050565b600080600080600060a0868803121561176157600080fd5b600061176f88828901611626565b955050602061178088828901611626565b945050604086013567ffffffffffffffff81111561179d57600080fd5b6117a988828901611665565b935050606086013567ffffffffffffffff8111156117c657600080fd5b6117d288828901611665565b925050608086013567ffffffffffffffff8111156117ef57600080fd5b6117fb888289016116ce565b9150509295509295909350565b600080600080600060a0868803121561182057600080fd5b600061182e88828901611626565b955050602061183f88828901611626565b9450506040611850888289016116f8565b9350506060611861888289016116f8565b925050608086013567ffffffffffffffff81111561187e57600080fd5b61188a888289016116ce565b9150509295509295909350565b600080604083850312156118aa57600080fd5b60006118b885828601611626565b92505060206118c98582860161168f565b9150509250929050565b600080604083850312156118e657600080fd5b60006118f485828601611626565b9250506020611905858286016116f8565b9150509250929050565b6000806040838503121561192257600080fd5b600083013567ffffffffffffffff81111561193c57600080fd5b6119488582860161163b565b925050602083013567ffffffffffffffff81111561196557600080fd5b61197185828601611665565b9150509250929050565b60006020828403121561198d57600080fd5b600061199b848285016116a4565b91505092915050565b6000602082840312156119b657600080fd5b60006119c4848285016116b9565b91505092915050565b6000602082840312156119df57600080fd5b60006119ed848285016116f8565b91505092915050565b6000611a028383611c5a565b60208301905092915050565b611a17816120c9565b82525050565b6000611a2882612012565b611a328185612040565b9350611a3d83612002565b8060005b83811015611a6e578151611a5588826119f6565b9750611a6083612033565b925050600181019050611a41565b5085935050505092915050565b611a84816120db565b82525050565b6000611a958261201d565b611a9f8185612051565b9350611aaf81856020860161214c565b611ab8816122da565b840191505092915050565b6000611ace82612028565b611ad88185612062565b9350611ae881856020860161214c565b611af1816122da565b840191505092915050565b6000611b09603483612062565b9150611b14826122f8565b604082019050919050565b6000611b2c602883612062565b9150611b3782612347565b604082019050919050565b6000611b4f602b83612062565b9150611b5a82612396565b604082019050919050565b6000611b72602983612062565b9150611b7d826123e5565b604082019050919050565b6000611b95602583612062565b9150611ba082612434565b604082019050919050565b6000611bb8603283612062565b9150611bc382612483565b604082019050919050565b6000611bdb602a83612062565b9150611be6826124d2565b604082019050919050565b6000611bfe602983612062565b9150611c0982612521565b604082019050919050565b6000611c21602983612062565b9150611c2c82612570565b604082019050919050565b6000611c44602883612062565b9150611c4f826125bf565b604082019050919050565b611c6381612133565b82525050565b611c7281612133565b82525050565b600060a082019050611c8d6000830188611a0e565b611c9a6020830187611a0e565b8181036040830152611cac8186611a1d565b90508181036060830152611cc08185611a1d565b90508181036080830152611cd48184611a8a565b90509695505050505050565b600060a082019050611cf56000830188611a0e565b611d026020830187611a0e565b611d0f6040830186611c69565b611d1c6060830185611c69565b8181036080830152611d2e8184611a8a565b90509695505050505050565b60006020820190508181036000830152611d548184611a1d565b905092915050565b60006040820190508181036000830152611d768185611a1d565b90508181036020830152611d8a8184611a1d565b90509392505050565b6000602082019050611da86000830184611a7b565b92915050565b60006020820190508181036000830152611dc88184611ac3565b905092915050565b60006020820190508181036000830152611de981611afc565b9050919050565b60006020820190508181036000830152611e0981611b1f565b9050919050565b60006020820190508181036000830152611e2981611b42565b9050919050565b60006020820190508181036000830152611e4981611b65565b9050919050565b60006020820190508181036000830152611e6981611b88565b9050919050565b60006020820190508181036000830152611e8981611bab565b9050919050565b60006020820190508181036000830152611ea981611bce565b9050919050565b60006020820190508181036000830152611ec981611bf1565b9050919050565b60006020820190508181036000830152611ee981611c14565b9050919050565b60006020820190508181036000830152611f0981611c37565b9050919050565b6000602082019050611f256000830184611c69565b92915050565b6000604082019050611f406000830185611c69565b611f4d6020830184611c69565b9392505050565b6000611f5e611f6f565b9050611f6a82826121b1565b919050565b6000604051905090565b600067ffffffffffffffff821115611f9457611f93612289565b5b602082029050602081019050919050565b600067ffffffffffffffff821115611fc057611fbf612289565b5b602082029050602081019050919050565b600067ffffffffffffffff821115611fec57611feb612289565b5b611ff5826122da565b9050602081019050919050565b6000819050602082019050919050565b600081519050919050565b600081519050919050565b600081519050919050565b6000602082019050919050565b600082825260208201905092915050565b600082825260208201905092915050565b600082825260208201905092915050565b600061207e82612133565b915061208983612133565b9250827fffffffffffffffffffffffffffffffffffffffffffffffffffffffffffffffff038211156120be576120bd61222b565b5b828201905092915050565b60006120d482612113565b9050919050565b60008115159050919050565b60007fffffffff0000000000000000000000000000000000000000000000000000000082169050919050565b600073ffffffffffffffffffffffffffffffffffffffff82169050919050565b6000819050919050565b82818337600083830152505050565b60005b8381101561216a57808201518184015260208101905061214f565b83811115612179576000848401525b50505050565b6000600282049050600182168061219757607f821691505b602082108114156121ab576121aa61225a565b5b50919050565b6121ba826122da565b810181811067ffffffffffffffff821117156121d9576121d8612289565b5b80604052505050565b60006121ed82612133565b91507fffffffffffffffffffffffffffffffffffffffffffffffffffffffffffffffff8214156122205761221f61222b565b5b600182019050919050565b7f4e487b7100000000000000000000000000000000000000000000000000000000600052601160045260246000fd5b7f4e487b7100000000000000000000000000000000000000000000000000000000600052602260045260246000fd5b7f4e487b7100000000000000000000000000000000000000000000000000000000600052604160045260246000fd5b600060033d11156122d75760046000803e6122d46000516122eb565b90505b90565b6000601f19601f8301169050919050565b60008160e01c9050919050565b7f455243313135353a207472616e7366657220746f206e6f6e204552433131353560008201527f526563656976657220696d706c656d656e746572000000000000000000000000602082015250565b7f455243313135353a204552433131353552656365697665722072656a6563746560008201527f6420746f6b656e73000000000000000000000000000000000000000000000000602082015250565b7f455243313135353a2062616c616e636520717565727920666f7220746865207a60008201527f65726f2061646472657373000000000000000000000000000000000000000000602082015250565b7f455243313135353a2063616c6c6572206973206e6f74206f776e6572206e6f7260008201527f20617070726f7665640000000000000000000000000000000000000000000000602082015250565b7f455243313135353a207472616e7366657220746f20746865207a65726f20616460008201527f6472657373000000000000000000000000000000000000000000000000000000602082015250565b7f455243313135353a207472616e736665722063616c6c6572206973206e6f742060008201527f6f776e6572206e6f7220617070726f7665640000000000000000000000000000602082015250565b7f455243313135353a20696e73756666696369656e742062616c616e636520666f60008201527f72207472616e7366657200000000000000000000000000000000000000000000602082015250565b7f455243313135353a2073657474696e6720617070726f76616c2073746174757360008201527f20666f722073656c660000000000000000000000000000000000000000000000602082015250565b7f455243313135353a206163636f756e747320616e6420696473206c656e67746860008201527f206d69736d617463680000000000000000000000000000000000000000000000602082015250565b7f455243313135353a2069647320616e6420616d6f756e7473206c656e6774682060008201527f6d69736d61746368000000000000000000000000000000000000000000000000602082015250565b600060443d101561261e576126a1565b612626611f6f565b60043d036004823e80513d602482011167ffffffffffffffff8211171561264e5750506126a1565b808201805167ffffffffffffffff81111561266c57505050506126a1565b80602083010160043d0385018111156126895750505050506126a1565b612698826020018501866121b1565b82955050505050505b90565b6126ad816120c9565b81146126b857600080fd5b50565b6126c4816120db565b81146126cf57600080fd5b50565b6126db816120e7565b81146126e657600080fd5b50565b6126f281612133565b81146126fd57600080fd5b5056fea2646970667358221220e733f676cf3ee1b05abd5c7702cc343d098cb5d4b75fed67d828970636b9e39464736f6c6343000802003368747470733a2f2f67616d652e6578616d706c652f6170692f6974656d2f7b69647d2e6a736f6e",
  "immutableReferences": {},
  "source": "// contracts/GameItems.sol\r\n// SPDX-License-Identifier: MIT\r\npragma solidity ^0.8.0;\r\n\r\nimport \"@openzeppelin/contracts/token/ERC1155/ERC1155.sol\";\r\n\r\ncontract GameItems is ERC1155 {\r\n  uint256 public constant GOLD = 0;\r\n  uint256 public constant SILVER = 1;\r\n  uint256 public constant THORS_HAMMER = 2;\r\n  uint256 public constant SWORD = 3;\r\n  uint256 public constant SHIELD = 4;\r\n\r\n  constructor() ERC1155(\"https://game.example/api/item/{id}.json\") {\r\n    _mint(msg.sender, GOLD, 10**18, \"\");\r\n    _mint(msg.sender, SILVER, 10**27, \"\");\r\n    _mint(msg.sender, THORS_HAMMER, 1, \"\");\r\n    _mint(msg.sender, SWORD, 10**9, \"\");\r\n    _mint(msg.sender, SHIELD, 10**9, \"\");\r\n  }\r\n}\r\n",
  "sourcePath": "C:\\Users\\artii\\Black IDE\\espace\\contracts\\GameItems.sol",
  "compiler": {
    "name": "solc",
    "version": "0.8.2+commit.661d1103.Emscripten.clang"
  },
  "schemaVersion": "3.4.3",
  "updatedAt": "2022-07-14T16:08:11.563Z",
  "devdoc": {
    "kind": "dev",
    "methods": {
      "balanceOf(address,uint256)": {
        "details": "See {IERC1155-balanceOf}. Requirements: - `account` cannot be the zero address."
      },
      "balanceOfBatch(address[],uint256[])": {
        "details": "See {IERC1155-balanceOfBatch}. Requirements: - `accounts` and `ids` must have the same length."
      },
      "isApprovedForAll(address,address)": {
        "details": "See {IERC1155-isApprovedForAll}."
      },
      "safeBatchTransferFrom(address,address,uint256[],uint256[],bytes)": {
        "details": "See {IERC1155-safeBatchTransferFrom}."
      },
      "safeTransferFrom(address,address,uint256,uint256,bytes)": {
        "details": "See {IERC1155-safeTransferFrom}."
      },
      "setApprovalForAll(address,bool)": {
        "details": "See {IERC1155-setApprovalForAll}."
      },
      "supportsInterface(bytes4)": {
        "details": "See {IERC165-supportsInterface}."
      },
      "uri(uint256)": {
        "details": "See {IERC1155MetadataURI-uri}. This implementation returns the same URI for *all* token types. It relies on the token type ID substitution mechanism https://eips.ethereum.org/EIPS/eip-1155#metadata[defined in the EIP]. Clients calling this function must replace the `\\{id\\}` substring with the actual token type ID."
      }
    },
    "version": 1
  },
  "userdoc": {
    "kind": "user",
    "methods": {},
    "version": 1
  }
}