{
  "contractName": "lottery",
  "abi": [
    {
      "inputs": [],
      "stateMutability": "nonpayable",
      "type": "constructor"
    },
    {
      "inputs": [
        {
          "internalType": "uint256",
          "name": "_num_A",
          "type": "uint256"
        },
        {
          "internalType": "uint256",
          "name": "_num_B",
          "type": "uint256"
        },
        {
          "internalType": "uint256",
          "name": "_num_C",
          "type": "uint256"
        },
        {
          "internalType": "uint256",
          "name": "_num_D",
          "type": "uint256"
        },
        {
          "internalType": "uint256",
          "name": "_num_E",
          "type": "uint256"
        },
        {
          "internalType": "uint256",
          "name": "_num_F",
          "type": "uint256"
        },
        {
          "internalType": "uint256",
          "name": "_num_X",
          "type": "uint256"
        },
        {
          "internalType": "uint256",
          "name": "_amount",
          "type": "uint256"
        }
      ],
      "name": "user_draw",
      "outputs": [],
      "stateMutability": "nonpayable",
      "type": "function"
    },
    {
      "inputs": [
        {
          "internalType": "address",
          "name": "_admin_addr",
          "type": "address"
        }
      ],
      "name": "set_admin",
      "outputs": [],
      "stateMutability": "nonpayable",
      "type": "function"
    }
  ],
  "bytecode": "0x608060405234801561001057600080fd5b5033600160006101000a81548173ffffffffffffffffffffffffffffffffffffffff021916908373ffffffffffffffffffffffffffffffffffffffff160217905550306000806101000a81548173ffffffffffffffffffffffffffffffffffffffff021916908373ffffffffffffffffffffffffffffffffffffffff1602179055506202a300600481905550610c4b806100ab6000396000f3fe608060405234801561001057600080fd5b50600436106100365760003560e01c806395ad04781461003b578063e9333fab14610057575b600080fd5b610055600480360381019061005091906108ca565b610073565b005b610071600480360381019061006c9190610878565b610765565b005b610e106003546100839190610a68565b4210156100c5576040517f08c379a00000000000000000000000000000000000000000000000000000000081526004016100bc90610a17565b60405180910390fd5b6000600d60003373ffffffffffffffffffffffffffffffffffffffff1673ffffffffffffffffffffffffffffffffffffffff16815260200190815260200160002054141561017a5733600c6000600854815260200190815260200160002060006101000a81548173ffffffffffffffffffffffffffffffffffffffff021916908373ffffffffffffffffffffffffffffffffffffffff1602179055506008600081548092919061017490610b06565b91905055505b600960009054906101000a900473ffffffffffffffffffffffffffffffffffffffff1673ffffffffffffffffffffffffffffffffffffffff166323b872dd3360008054906101000a900473ffffffffffffffffffffffffffffffffffffffff16846040518463ffffffff1660e01b81526004016101f9939291906109e0565b602060405180830381600087803b15801561021357600080fd5b505af1158015610227573d6000803e3d6000fd5b505050506040513d601f19601f8201168201806040525081019061024b91906108a1565b5087600b60003373ffffffffffffffffffffffffffffffffffffffff1673ffffffffffffffffffffffffffffffffffffffff1681526020019081526020016000206000600d60003373ffffffffffffffffffffffffffffffffffffffff1673ffffffffffffffffffffffffffffffffffffffff1681526020019081526020016000205481526020019081526020016000206000018190555086600b60003373ffffffffffffffffffffffffffffffffffffffff1673ffffffffffffffffffffffffffffffffffffffff1681526020019081526020016000206000600d60003373ffffffffffffffffffffffffffffffffffffffff1673ffffffffffffffffffffffffffffffffffffffff1681526020019081526020016000205481526020019081526020016000206001018190555085600b60003373ffffffffffffffffffffffffffffffffffffffff1673ffffffffffffffffffffffffffffffffffffffff1681526020019081526020016000206000600d60003373ffffffffffffffffffffffffffffffffffffffff1673ffffffffffffffffffffffffffffffffffffffff1681526020019081526020016000205481526020019081526020016000206002018190555084600b60003373ffffffffffffffffffffffffffffffffffffffff1673ffffffffffffffffffffffffffffffffffffffff1681526020019081526020016000206000600d60003373ffffffffffffffffffffffffffffffffffffffff1673ffffffffffffffffffffffffffffffffffffffff1681526020019081526020016000205481526020019081526020016000206003018190555083600b60003373ffffffffffffffffffffffffffffffffffffffff1673ffffffffffffffffffffffffffffffffffffffff1681526020019081526020016000206000600d60003373ffffffffffffffffffffffffffffffffffffffff1673ffffffffffffffffffffffffffffffffffffffff1681526020019081526020016000205481526020019081526020016000206004018190555082600b60003373ffffffffffffffffffffffffffffffffffffffff1673ffffffffffffffffffffffffffffffffffffffff1681526020019081526020016000206000600d60003373ffffffffffffffffffffffffffffffffffffffff1673ffffffffffffffffffffffffffffffffffffffff1681526020019081526020016000205481526020019081526020016000206005018190555081600b60003373ffffffffffffffffffffffffffffffffffffffff1673ffffffffffffffffffffffffffffffffffffffff1681526020019081526020016000206000600d60003373ffffffffffffffffffffffffffffffffffffffff1673ffffffffffffffffffffffffffffffffffffffff1681526020019081526020016000205481526020019081526020016000206006018190555080600b60003373ffffffffffffffffffffffffffffffffffffffff1673ffffffffffffffffffffffffffffffffffffffff1681526020019081526020016000206000600d60003373ffffffffffffffffffffffffffffffffffffffff1673ffffffffffffffffffffffffffffffffffffffff168152602001908152602001600020548152602001908152602001600020600701819055506001600d60003373ffffffffffffffffffffffffffffffffffffffff1673ffffffffffffffffffffffffffffffffffffffff16815260200190815260200160002060008282546107549190610a68565b925050819055505050505050505050565b600160009054906101000a900473ffffffffffffffffffffffffffffffffffffffff1673ffffffffffffffffffffffffffffffffffffffff163373ffffffffffffffffffffffffffffffffffffffff16146107f5576040517f08c379a00000000000000000000000000000000000000000000000000000000081526004016107ec90610a37565b60405180910390fd5b80600260006101000a81548173ffffffffffffffffffffffffffffffffffffffff021916908373ffffffffffffffffffffffffffffffffffffffff16021790555050565b60008135905061084881610bd0565b92915050565b60008151905061085d81610be7565b92915050565b60008135905061087281610bfe565b92915050565b60006020828403121561088a57600080fd5b600061089884828501610839565b91505092915050565b6000602082840312156108b357600080fd5b60006108c18482850161084e565b91505092915050565b600080600080600080600080610100898b0312156108e757600080fd5b60006108f58b828c01610863565b98505060206109068b828c01610863565b97505060406109178b828c01610863565b96505060606109288b828c01610863565b95505060806109398b828c01610863565b94505060a061094a8b828c01610863565b93505060c061095b8b828c01610863565b92505060e061096c8b828c01610863565b9150509295985092959890939650565b61098581610abe565b82525050565b6000610998601183610a57565b91506109a382610b7e565b602082019050919050565b60006109bb600a83610a57565b91506109c682610ba7565b602082019050919050565b6109da81610afc565b82525050565b60006060820190506109f5600083018661097c565b610a02602083018561097c565b610a0f60408301846109d1565b949350505050565b60006020820190508181036000830152610a308161098b565b9050919050565b60006020820190508181036000830152610a50816109ae565b9050919050565b600082825260208201905092915050565b6000610a7382610afc565b9150610a7e83610afc565b9250827fffffffffffffffffffffffffffffffffffffffffffffffffffffffffffffffff03821115610ab357610ab2610b4f565b5b828201905092915050565b6000610ac982610adc565b9050919050565b60008115159050919050565b600073ffffffffffffffffffffffffffffffffffffffff82169050919050565b6000819050919050565b6000610b1182610afc565b91507fffffffffffffffffffffffffffffffffffffffffffffffffffffffffffffffff821415610b4457610b43610b4f565b5b600182019050919050565b7f4e487b7100000000000000000000000000000000000000000000000000000000600052601160045260246000fd5b7f54696d65206973206e6f74207374617274000000000000000000000000000000600082015250565b7f4d757374206f776e657200000000000000000000000000000000000000000000600082015250565b610bd981610abe565b8114610be457600080fd5b50565b610bf081610ad0565b8114610bfb57600080fd5b50565b610c0781610afc565b8114610c1257600080fd5b5056fea2646970667358221220b6a4090de9213fcdd8d90ebb3ba0c121950cf2645dfb8f9593deaf102d9ce47764736f6c63430008020033",
  "immutableReferences": {},
  "source": "\r\n/*\r\nCopyright (c) [2022] [2022 Artii. All rights reserved.]\r\n[Mixed Multipool] is licensed under the Artii BSL v1.0\r\nYou can use this software according to the terms and conditions of the Artii BSL v1.0\r\nYou may obtain a copy of Artii BSL v1.0 at:\r\n    http://\r\nTHIS SOFTWARE IS PROVIDED ON AN \"AS IS\" BASIS, WITHOUT WARRANTIES OF ANY KIND, EITHER EXPRESS OR\r\nIMPLIED, INCLUDING BUT NOT LIMITED TO NON-INFRINGEMENT, MERCHANTABILITY OR FIT FOR A PARTICULAR\r\nPURPOSE.\r\nSee the Artii BSL v1.0 for more details.\r\n*/\r\n\r\n\r\npragma solidity ^0.8.0;\r\nimport \"@openzeppelin/contracts/token/ERC20/ERC20.sol\";\r\nimport \"./seed_verif.sol\";\r\n\r\ncontract lottery {\r\n    address this_addr;\r\n    address owner_addr;\r\n    address admin_addr;\r\n    uint256 time_last;\r\n    uint256 Lottery_interval;\r\n    bool opened;\r\n    uint256 issues;\r\n    address verifyaddress;\r\n    uint256 user_amount;\r\n    address ERC20_addr;\r\n\r\n    struct UserStorage {\r\n    uint256 num_A;  \r\n    uint256 num_B; \r\n    uint256 num_C;\r\n    uint256 num_D;\r\n    uint256 num_E;\r\n    uint256 num_F;\r\n    uint256 num_X;\r\n    uint256 amount;\r\n    }\r\n\r\n    struct issuesstorage{\r\n    uint256 num_A;  \r\n    uint256 num_B; \r\n    uint256 num_C;\r\n    uint256 num_D;\r\n    uint256 num_E;\r\n    uint256 num_F;\r\n    uint256 num_X;\r\n    }\r\n    mapping(uint256 => bytes32) id_key;\r\n    mapping(address => mapping(uint256 => UserStorage)) user_lottery;\r\n    mapping(uint256 => address ) all_user_addr;\r\n    mapping(address => uint256 ) user_id;\r\n    mapping(address => uint256 ) user_id_opened;\r\n    mapping(uint256 => issuesstorage ) issue_opened;\r\n\r\n    mapping(address => mapping(uint256 => uint256) ) usermax;//addr->issue->max\r\n    mapping(address => mapping(uint256 => uint256) ) userearned;//addr->issue->earned\r\n    mapping(uint256 => uint256 ) poolmax; //issue->poolmax\r\n    mapping(uint256 => uint256 ) pooldistribute;  //issue->pooldistribute\r\n    mapping(uint256 => address[]) max_issue_user;\r\n\r\n    modifier only_owner() {\r\n        require(msg.sender == owner_addr, 'Must owner');\r\n        _;\r\n    }\r\n    modifier only_admin() {\r\n        require(msg.sender == admin_addr, 'Must admin');\r\n        _;\r\n    }\r\n    modifier only_opened() {\r\n        require(opened, 'not opened');\r\n        _;\r\n    }\r\n\r\n    constructor() {\r\n        owner_addr = msg.sender;\r\n        this_addr = address(this);\r\n        Lottery_interval=2 days;\r\n    }\r\n\r\n    function isContract(address account) internal view returns (bool) {\r\n        // This method relies on extcodesize/address.code.length, which returns 0\r\n        // for contracts in construction, since the code is only stored at the end\r\n        // of the constructor execution.\r\n\r\n        return account.code.length > 0;\r\n    }\r\n\r\n    function user_draw(uint256 _num_A, \r\n                  uint256 _num_B, \r\n                  uint256 _num_C, \r\n                  uint256 _num_D, \r\n                  uint256 _num_E, \r\n                  uint256 _num_F, \r\n                  uint256 _num_X, \r\n                  uint256 _amount) external {//if input is 10, means all num have drawed;\r\n        require(block.timestamp>=time_last+3600, 'Time is not start');\r\n        if(user_id[msg.sender]==0){\r\n            all_user_addr[user_amount]=msg.sender;\r\n            user_amount++;\r\n        }\r\n        ERC20(ERC20_addr).transferFrom(msg.sender,this_addr,_amount);\r\n        user_lottery[msg.sender][user_id[msg.sender]].num_A=_num_A;\r\n        user_lottery[msg.sender][user_id[msg.sender]].num_B=_num_B;\r\n        user_lottery[msg.sender][user_id[msg.sender]].num_C=_num_C;\r\n        user_lottery[msg.sender][user_id[msg.sender]].num_D=_num_D;\r\n        user_lottery[msg.sender][user_id[msg.sender]].num_E=_num_E;\r\n        user_lottery[msg.sender][user_id[msg.sender]].num_F=_num_F;\r\n        user_lottery[msg.sender][user_id[msg.sender]].num_X=_num_X;\r\n        user_lottery[msg.sender][user_id[msg.sender]].amount=_amount;\r\n        user_id[msg.sender]+=1;\r\n    }\r\n\r\n\r\n    function set_admin(address _admin_addr) external only_owner {\r\n        admin_addr=_admin_addr;\r\n    }\r\n\r\n    function  admin_drawing(uint256 _issue,\r\n                      uint256 seed1,\r\n                      uint256 seed2,\r\n                      uint256 seed3,\r\n                      bytes32 key_of_seed) internal only_admin returns (bool){\r\n        require(block.timestamp>=time_last+Lottery_interval, 'Time is not over');\r\n        require(issues==_issue, 'issue is not right');\r\n        require(isContract(msg.sender)==false,'Cant be a Contract');\r\n        //uint256 amount_out;\r\n        uint256 verify_account;\r\n        uint256 choised_num;\r\n        uint256 id_num;\r\n        bool true_false;\r\n\r\n        (true_false,choised_num)=seed_veri(verifyaddress).init_verify( seed1,  seed2, seed3, key_of_seed);\r\n        if(true_false){\r\n            verify_account+=1;\r\n        }\r\n        else{\r\n            return false;\r\n        }\r\n        (true_false,id_num)=seed_veri(verifyaddress).second_verify(seed1+seed2+seed3);\r\n        if(true_false){\r\n            verify_account+=1;\r\n        }\r\n        else{\r\n            return false;\r\n        }\r\n        if(choised_num==0){\r\n            issue_opened[issues].num_A=uint256(keccak256(abi.encodePacked(seed1+119)))%10;\r\n            issue_opened[issues].num_B=uint256(keccak256(abi.encodePacked(seed2+235)))%10;\r\n            issue_opened[issues].num_C=uint256(keccak256(abi.encodePacked(seed3+378)))%10;\r\n            issue_opened[issues].num_D=uint256(keccak256(abi.encodePacked(seed1+seed3%seed2)))%10;\r\n            issue_opened[issues].num_E=uint256(keccak256(abi.encodePacked(seed2+seed3%seed1)))%10;\r\n            issue_opened[issues].num_F=uint256(keccak256(abi.encodePacked(seed3+seed2%seed1)))%10;\r\n            issue_opened[issues].num_X=uint256(keccak256(abi.encodePacked(seed3%seed1+seed2+seed3)))%10;\r\n        }\r\n        else if(choised_num==1){\r\n            issue_opened[issues].num_A=uint256(keccak256(abi.encodePacked(seed2+335)))%10;\r\n            issue_opened[issues].num_B=uint256(keccak256(abi.encodePacked(seed3+112)))%10;\r\n            issue_opened[issues].num_C=uint256(keccak256(abi.encodePacked(seed1+109)))%10;\r\n            issue_opened[issues].num_D=uint256(keccak256(abi.encodePacked(seed1+seed3%seed2)))%10;\r\n            issue_opened[issues].num_E=uint256(keccak256(abi.encodePacked(seed2+seed3%seed1)))%10;\r\n            issue_opened[issues].num_F=uint256(keccak256(abi.encodePacked(seed3+seed2%seed1)))%10;\r\n            issue_opened[issues].num_X=uint256(keccak256(abi.encodePacked(seed3%seed1+seed2+seed3)))%10;\r\n        }\r\n        else if(choised_num==2){\r\n            issue_opened[issues].num_A=uint256(keccak256(abi.encodePacked(seed3+458)))%10;\r\n            issue_opened[issues].num_B=uint256(keccak256(abi.encodePacked(seed1+213)))%10;\r\n            issue_opened[issues].num_C=uint256(keccak256(abi.encodePacked(seed2+567)))%10;\r\n            issue_opened[issues].num_D=uint256(keccak256(abi.encodePacked(seed1+seed3%seed2)))%10;\r\n            issue_opened[issues].num_E=uint256(keccak256(abi.encodePacked(seed2+seed3%seed1)))%10;\r\n            issue_opened[issues].num_F=uint256(keccak256(abi.encodePacked(seed3+seed2%seed1)))%10;\r\n            issue_opened[issues].num_X=uint256(keccak256(abi.encodePacked(seed3%seed1+seed2+seed3)))%10;\r\n        }\r\n        else{\r\n            return false;\r\n        }\r\n        issues++;\r\n        time_last+=Lottery_interval;\r\n        opened==true;\r\n        return true;\r\n    }\r\n\r\n    function reward_distribute() internal only_admin only_opened returns (bool){\r\n        // this function culculate the rewards to the user\r\n        // pooldistribute \\ userearned  :: all of the getted\r\n        // poolmax \\ usermax  :: get first prize\r\n        //\r\n        uint256 samenum;\r\n        uint256 samex;\r\n        uint256 buy_amount;\r\n        for(uint i=0;i<user_amount;i++){\r\n            if(user_id[all_user_addr[i]]>user_id_opened[all_user_addr[i]]){\r\n                for(uint j=user_id_opened[all_user_addr[i]];j<user_id[all_user_addr[i]];j++){\r\n                    samenum=0;\r\n                    samex=0;\r\n                    buy_amount=user_lottery[all_user_addr[i]][j].amount;\r\n                    if(user_lottery[all_user_addr[i]][j].num_A==issue_opened[issues-1].num_A||(user_lottery[all_user_addr[i]][j].num_A==10)){samenum+=1;}\r\n                    if(user_lottery[all_user_addr[i]][j].num_B==issue_opened[issues-1].num_B||(user_lottery[all_user_addr[i]][j].num_B==10)){samenum+=1;}\r\n                    if(user_lottery[all_user_addr[i]][j].num_C==issue_opened[issues-1].num_C||(user_lottery[all_user_addr[i]][j].num_C==10)){samenum+=1;}\r\n                    if(user_lottery[all_user_addr[i]][j].num_D==issue_opened[issues-1].num_D||(user_lottery[all_user_addr[i]][j].num_D==10)){samenum+=1;}\r\n                    if(user_lottery[all_user_addr[i]][j].num_E==issue_opened[issues-1].num_E||(user_lottery[all_user_addr[i]][j].num_E==10)){samenum+=1;}\r\n                    if(user_lottery[all_user_addr[i]][j].num_F==issue_opened[issues-1].num_F||(user_lottery[all_user_addr[i]][j].num_F==10)){samenum+=1;}\r\n                    if(user_lottery[all_user_addr[i]][j].num_X==issue_opened[issues-1].num_X){samex=1;   }\r\n                    if(samenum==6){\r\n                        poolmax[issues-1]+=buy_amount;\r\n                        usermax[all_user_addr[i]][issues-1]+=buy_amount;\r\n                        if(samex==1){\r\n                            poolmax[issues-1]+=1;\r\n                            usermax[all_user_addr[i]][issues-1]+=buy_amount;\r\n                        }\r\n                    }\r\n                    else if(samenum==5){\r\n                        userearned[all_user_addr[i]][issues-1]+=100*buy_amount;\r\n                        if(samex==1){userearned[all_user_addr[i]][issues-1]+=100*buy_amount;}\r\n                    }\r\n                    else if(samenum==4){\r\n                        userearned[all_user_addr[i]][issues-1]+=10*buy_amount;\r\n                        if(samex==1){userearned[all_user_addr[i]][issues-1]+=10*buy_amount; }\r\n                    }\r\n                    else if(samenum==3){\r\n                        userearned[all_user_addr[i]][issues-1]+=2*buy_amount;\r\n                        if(samex==1){userearned[all_user_addr[i]][issues-1]+=2*buy_amount;  }\r\n                    }\r\n                    else if(samenum<3){\r\n                        if(samex==1){userearned[all_user_addr[i]][issues-1]+=2*buy_amount;  }\r\n                    }\r\n                }\r\n                pooldistribute[issues-1]+=userearned[all_user_addr[i]][issues-1];\r\n            }\r\n        }\r\n        return(true);\r\n    }\r\n\r\n    function distributing() internal only_admin only_opened returns (bool){\r\n        //uint all_user_num=alluser_storage.length;\r\n        uint256 balanceERC20=ERC20(ERC20_addr).balanceOf(this_addr);\r\n        uint256 oneMaX=balanceERC20*3/(10*poolmax[issues-1]);\r\n\r\n        for(uint i=0;i<user_amount;i++){\r\n            if(userearned[all_user_addr[i]][issues-1]>0){\r\n                ERC20(ERC20_addr).transfer(all_user_addr[i],userearned[all_user_addr[i]][issues-1]);\r\n            }\r\n            if(usermax[all_user_addr[i]][issues-1]>0){\r\n                ERC20(ERC20_addr).transfer(all_user_addr[i],oneMaX*usermax[all_user_addr[i]][issues-1]);\r\n            }\r\n        }\r\n        opened==false;\r\n        return(true);\r\n    }\r\n\r\n    function lottery_open(uint256 _issue,\r\n                      uint256 seed1,\r\n                      uint256 seed2,\r\n                      uint256 seed3,\r\n                      bytes32 key_of_seed) internal only_admin {\r\n                           require(admin_drawing(_issue,seed1,seed2,seed3,key_of_seed),'drawing err');\r\n                           require(reward_distribute(),'reward err');\r\n                           require(distributing(),'distributing err');\r\n                      }\r\n}\r\n",
  "sourcePath": "C:\\Users\\artii\\Black IDE\\espace\\contracts\\XElottery.sol",
  "compiler": {
    "name": "solc",
    "version": "0.8.2+commit.661d1103.Emscripten.clang"
  },
  "schemaVersion": "3.4.3",
  "updatedAt": "2022-06-16T16:59:41.561Z",
  "devdoc": {
    "kind": "dev",
    "methods": {},
    "version": 1
  },
  "userdoc": {
    "kind": "user",
    "methods": {},
    "version": 1
  }
}