{
  "contractName": "seed_veri",
  "abi": [
    {
      "inputs": [],
      "stateMutability": "nonpayable",
      "type": "constructor"
    },
    {
      "inputs": [
        {
          "internalType": "bytes32",
          "name": "_sum_hash",
          "type": "bytes32"
        },
        {
          "internalType": "uint256",
          "name": "_id",
          "type": "uint256"
        }
      ],
      "name": "storage_key",
      "outputs": [],
      "stateMutability": "nonpayable",
      "type": "function"
    },
    {
      "inputs": [
        {
          "internalType": "address",
          "name": "_admin_addr",
          "type": "address"
        }
      ],
      "name": "set_admin",
      "outputs": [],
      "stateMutability": "nonpayable",
      "type": "function"
    },
    {
      "inputs": [],
      "name": "id_looking",
      "outputs": [
        {
          "internalType": "uint256",
          "name": "",
          "type": "uint256"
        }
      ],
      "stateMutability": "view",
      "type": "function"
    },
    {
      "inputs": [
        {
          "internalType": "uint256",
          "name": "_seed1",
          "type": "uint256"
        },
        {
          "internalType": "uint256",
          "name": "_seed2",
          "type": "uint256"
        },
        {
          "internalType": "uint256",
          "name": "_seed3",
          "type": "uint256"
        },
        {
          "internalType": "bytes32",
          "name": "_key_of_seed",
          "type": "bytes32"
        }
      ],
      "name": "init_verify",
      "outputs": [
        {
          "internalType": "bool",
          "name": "",
          "type": "bool"
        },
        {
          "internalType": "uint256",
          "name": "",
          "type": "uint256"
        }
      ],
      "stateMutability": "pure",
      "type": "function"
    },
    {
      "inputs": [
        {
          "internalType": "uint256",
          "name": "_verify_num",
          "type": "uint256"
        }
      ],
      "name": "second_verify",
      "outputs": [
        {
          "internalType": "bool",
          "name": "",
          "type": "bool"
        },
        {
          "internalType": "uint256",
          "name": "",
          "type": "uint256"
        }
      ],
      "stateMutability": "view",
      "type": "function"
    }
  ],
  "bytecode": "0x608060405234801561001057600080fd5b50336000806101000a81548173ffffffffffffffffffffffffffffffffffffffff021916908373ffffffffffffffffffffffffffffffffffffffff160217905550610c23806100606000396000f3fe608060405234801561001057600080fd5b50600436106100575760003560e01c8063156865531461005c5780632d999abf146100785780634caa420d14610096578063b1d71982146100c7578063e9333fab146100f8575b600080fd5b610076600480360381019061007191906106dc565b610114565b005b61008061021e565b60405161008d919061092e565b60405180910390f35b6100b060048036038101906100ab9190610741565b6102b7565b6040516100be9291906108a5565b60405180910390f35b6100e160048036038101906100dc9190610718565b6104a8565b6040516100ef9291906108a5565b60405180910390f35b610112600480360381019061010d919061068a565b610564565b005b600160009054906101000a900473ffffffffffffffffffffffffffffffffffffffff1673ffffffffffffffffffffffffffffffffffffffff163373ffffffffffffffffffffffffffffffffffffffff16146101a4576040517f08c379a000000000000000000000000000000000000000000000000000000000815260040161019b906108ee565b60405180910390fd5b60025481146101e8576040517f08c379a00000000000000000000000000000000000000000000000000000000081526004016101df906108ce565b60405180910390fd5b81600360006002548152602001908152602001600020819055506002600081548092919061021590610a4b565b91905055505050565b60008060009054906101000a900473ffffffffffffffffffffffffffffffffffffffff1673ffffffffffffffffffffffffffffffffffffffff163373ffffffffffffffffffffffffffffffffffffffff16146102af576040517f08c379a00000000000000000000000000000000000000000000000000000000081526004016102a69061090e565b60405180910390fd5b600254905090565b600080600060038587896102cb9190610970565b6102d59190610970565b6102df9190610a9e565b905060008082141561036c57600286886102f99190610970565b604051602001610309919061088a565b6040516020818303038152906040526040516103259190610873565b602060405180830381855afa158015610342573d6000803e3d6000fd5b5050506040513d601f19601f8201168201806040525081019061036591906106b3565b905061047e565b60018214156103f657600286896103839190610970565b604051602001610393919061088a565b6040516020818303038152906040526040516103af9190610873565b602060405180830381855afa1580156103cc573d6000803e3d6000fd5b5050506040513d601f19601f820116820180604052508101906103ef91906106b3565b905061047d565b600282141561047c576002868961040d9190610970565b60405160200161041d919061088a565b6040516020818303038152906040526040516104399190610873565b602060405180830381855afa158015610456573d6000803e3d6000fd5b5050506040513d601f19601f8201168201806040525081019061047991906106b3565b90505b5b5b848114156104945760018293509350505061049f565b6000600a9350935050505b94509492505050565b600080600060028054856104bc9190610970565b6040516020016104cc919061088a565b6040516020818303038152906040526040516104e89190610873565b602060405180830381855afa158015610505573d6000803e3d6000fd5b5050506040513d601f19601f8201168201806040525081019061052891906106b3565b905060036000600254815260200190815260200160002054811415610556576001600254925092505061055f565b60008092509250505b915091565b60008054906101000a900473ffffffffffffffffffffffffffffffffffffffff1673ffffffffffffffffffffffffffffffffffffffff163373ffffffffffffffffffffffffffffffffffffffff16146105f2576040517f08c379a00000000000000000000000000000000000000000000000000000000081526004016105e99061090e565b60405180910390fd5b80600160006101000a81548173ffffffffffffffffffffffffffffffffffffffff021916908373ffffffffffffffffffffffffffffffffffffffff16021790555050565b60008135905061064581610ba8565b92915050565b60008135905061065a81610bbf565b92915050565b60008151905061066f81610bbf565b92915050565b60008135905061068481610bd6565b92915050565b60006020828403121561069c57600080fd5b60006106aa84828501610636565b91505092915050565b6000602082840312156106c557600080fd5b60006106d384828501610660565b91505092915050565b600080604083850312156106ef57600080fd5b60006106fd8582860161064b565b925050602061070e85828601610675565b9150509250929050565b60006020828403121561072a57600080fd5b600061073884828501610675565b91505092915050565b6000806000806080858703121561075757600080fd5b600061076587828801610675565b945050602061077687828801610675565b935050604061078787828801610675565b92505060606107988782880161064b565b91505092959194509250565b6107ad816109d8565b82525050565b60006107be82610949565b6107c88185610954565b93506107d8818560208601610a18565b80840191505092915050565b60006107f1600f8361095f565b91506107fc82610b2d565b602082019050919050565b6000610814600a8361095f565b915061081f82610b56565b602082019050919050565b6000610837600a8361095f565b915061084282610b7f565b602082019050919050565b61085681610a0e565b82525050565b61086d61086882610a0e565b610a94565b82525050565b600061087f82846107b3565b915081905092915050565b6000610896828461085c565b60208201915081905092915050565b60006040820190506108ba60008301856107a4565b6108c7602083018461084d565b9392505050565b600060208201905081810360008301526108e7816107e4565b9050919050565b6000602082019050818103600083015261090781610807565b9050919050565b600060208201905081810360008301526109278161082a565b9050919050565b6000602082019050610943600083018461084d565b92915050565b600081519050919050565b600081905092915050565b600082825260208201905092915050565b600061097b82610a0e565b915061098683610a0e565b9250827fffffffffffffffffffffffffffffffffffffffffffffffffffffffffffffffff038211156109bb576109ba610acf565b5b828201905092915050565b60006109d1826109ee565b9050919050565b60008115159050919050565b6000819050919050565b600073ffffffffffffffffffffffffffffffffffffffff82169050919050565b6000819050919050565b60005b83811015610a36578082015181840152602081019050610a1b565b83811115610a45576000848401525b50505050565b6000610a5682610a0e565b91507fffffffffffffffffffffffffffffffffffffffffffffffffffffffffffffffff821415610a8957610a88610acf565b5b600182019050919050565b6000819050919050565b6000610aa982610a0e565b9150610ab483610a0e565b925082610ac457610ac3610afe565b5b828206905092915050565b7f4e487b7100000000000000000000000000000000000000000000000000000000600052601160045260246000fd5b7f4e487b7100000000000000000000000000000000000000000000000000000000600052601260045260246000fd5b7f4944206973206e6f742072696768740000000000000000000000000000000000600082015250565b7f4d7573742061646d696e00000000000000000000000000000000000000000000600082015250565b7f4d757374206f776e657200000000000000000000000000000000000000000000600082015250565b610bb1816109c6565b8114610bbc57600080fd5b50565b610bc8816109e4565b8114610bd357600080fd5b50565b610bdf81610a0e565b8114610bea57600080fd5b5056fea2646970667358221220e4d75ab4f752ae1f36a109781cf5fe346871c6bb9b60ce437a2cf40ca20b00c264736f6c63430008020033",
  "immutableReferences": {},
  "source": "\r\n/*\r\nCopyright (c) [2022] [2022 Artii. All rights reserved.]\r\n[Mixed Multipool] is licensed under the Artii BSL v1.0\r\nYou can use this software according to the terms and conditions of the Artii BSL v1.0\r\nYou may obtain a copy of Artii BSL v1.0 at:\r\n    http://\r\nTHIS SOFTWARE IS PROVIDED ON AN \"AS IS\" BASIS, WITHOUT WARRANTIES OF ANY KIND, EITHER EXPRESS OR\r\nIMPLIED, INCLUDING BUT NOT LIMITED TO NON-INFRINGEMENT, MERCHANTABILITY OR FIT FOR A PARTICULAR\r\nPURPOSE.\r\nSee the Artii BSL v1.0 for more details.\r\n*/\r\n\r\n\r\npragma solidity ^0.8.0;\r\n\r\ncontract seed_veri {\r\n\r\n    \r\n    address owner_addr;\r\n    address admin_addr;\r\n    uint256 id;\r\n    mapping(uint256 => bytes32) id_key;\r\n\r\n    modifier only_owner() {\r\n        require(msg.sender == owner_addr, 'Must owner');\r\n        _;\r\n    }\r\n    modifier only_admin() {\r\n        require(msg.sender == admin_addr, 'Must admin');\r\n        _;\r\n    }\r\n\r\n    constructor() {\r\n        owner_addr = msg.sender;\r\n    }\r\n    function storage_key(bytes32 _sum_hash,uint256 _id) external only_admin {\r\n        require(_id==id,'ID is not right');\r\n        id_key[id]=_sum_hash;\r\n        id++;\r\n    }\r\n    function set_admin(address _admin_addr) external only_owner {\r\n        admin_addr=_admin_addr;\r\n    }\r\n    function id_looking() external view only_owner returns(uint256){\r\n        return (id);\r\n    }\r\n   \r\n    function init_verify(uint256 _seed1,uint256 _seed2,uint256 _seed3,bytes32 _key_of_seed) external pure returns (bool, uint256){\r\n        uint256 seed=(_seed1+_seed2+_seed3)%3;\r\n        bytes32 key;\r\n        if(seed==0){\r\n            key=sha256(abi.encodePacked(_seed2+_seed3));\r\n        }\r\n        else if(seed==1){\r\n            key=sha256(abi.encodePacked(_seed1+_seed3));\r\n        }\r\n        else if(seed==2){\r\n            key=sha256(abi.encodePacked(_seed1+_seed3));\r\n        }\r\n        //require(key!=0,\"wrong key 1\");\r\n        if(key==_key_of_seed){\r\n            return (true,seed);\r\n            }\r\n        else{\r\n            return (false,10);\r\n            }\r\n    }\r\n\r\n    function second_verify(uint256 _verify_num) external view returns (bool, uint256){\r\n        bytes32 veri_num=sha256(abi.encodePacked(_verify_num+id));\r\n        if(veri_num==id_key[id]){\r\n            return (true,id);\r\n            }\r\n        else{\r\n            return (false,0);\r\n            }\r\n    }\r\n\r\n}\r\n",
  "sourcePath": "C:\\Users\\artii\\Black IDE\\espace\\contracts\\seed_verif.sol",
  "compiler": {
    "name": "solc",
    "version": "0.8.2+commit.661d1103.Emscripten.clang"
  },
  "schemaVersion": "3.4.3",
  "updatedAt": "2022-08-14T03:45:26.201Z",
  "devdoc": {
    "kind": "dev",
    "methods": {},
    "version": 1
  },
  "userdoc": {
    "kind": "user",
    "methods": {},
    "version": 1
  }
}