{
  "contractName": "storagesbridge",
  "abi": [
    {
      "anonymous": false,
      "inputs": [
        {
          "indexed": true,
          "internalType": "address",
          "name": "previousOwner",
          "type": "address"
        },
        {
          "indexed": true,
          "internalType": "address",
          "name": "newOwner",
          "type": "address"
        }
      ],
      "name": "OwnershipTransferred",
      "type": "event"
    },
    {
      "stateMutability": "payable",
      "type": "fallback"
    },
    {
      "inputs": [],
      "name": "owner",
      "outputs": [
        {
          "internalType": "address",
          "name": "",
          "type": "address"
        }
      ],
      "stateMutability": "view",
      "type": "function"
    },
    {
      "inputs": [],
      "name": "renounceOwnership",
      "outputs": [],
      "stateMutability": "nonpayable",
      "type": "function"
    },
    {
      "inputs": [
        {
          "internalType": "address",
          "name": "newOwner",
          "type": "address"
        }
      ],
      "name": "transferOwnership",
      "outputs": [],
      "stateMutability": "nonpayable",
      "type": "function"
    },
    {
      "stateMutability": "payable",
      "type": "receive"
    },
    {
      "inputs": [],
      "name": "initialize",
      "outputs": [],
      "stateMutability": "nonpayable",
      "type": "function"
    },
    {
      "inputs": [
        {
          "internalType": "address",
          "name": "_xCFXaddr",
          "type": "address"
        }
      ],
      "name": "_setxCFXaddr",
      "outputs": [],
      "stateMutability": "nonpayable",
      "type": "function"
    },
    {
      "inputs": [
        {
          "internalType": "address",
          "name": "_eSpaceExchange",
          "type": "address"
        }
      ],
      "name": "_seteSpaceExchange",
      "outputs": [],
      "stateMutability": "nonpayable",
      "type": "function"
    },
    {
      "inputs": [
        {
          "internalType": "address",
          "name": "_CoreExchange",
          "type": "address"
        }
      ],
      "name": "_setCoreExchange",
      "outputs": [],
      "stateMutability": "nonpayable",
      "type": "function"
    },
    {
      "inputs": [
        {
          "internalType": "address",
          "name": "_CoreExchangeeEspace",
          "type": "address"
        }
      ],
      "name": "_setCoreExchangeEspace",
      "outputs": [],
      "stateMutability": "nonpayable",
      "type": "function"
    },
    {
      "inputs": [
        {
          "internalType": "address",
          "name": "_bridgeeSpacesideaddr",
          "type": "address"
        }
      ],
      "name": "_setbridgeeSpacesideaddr",
      "outputs": [],
      "stateMutability": "nonpayable",
      "type": "function"
    },
    {
      "inputs": [
        {
          "internalType": "uint256",
          "name": "_amount",
          "type": "uint256"
        }
      ],
      "name": "handlelock",
      "outputs": [
        {
          "internalType": "uint256",
          "name": "",
          "type": "uint256"
        }
      ],
      "stateMutability": "nonpayable",
      "type": "function"
    },
    {
      "inputs": [
        {
          "internalType": "uint256",
          "name": "_amount",
          "type": "uint256"
        }
      ],
      "name": "handlexCFXburn",
      "outputs": [
        {
          "internalType": "uint256",
          "name": "",
          "type": "uint256"
        },
        {
          "internalType": "uint256",
          "name": "",
          "type": "uint256"
        }
      ],
      "stateMutability": "nonpayable",
      "type": "function"
    },
    {
      "inputs": [
        {
          "internalType": "uint256",
          "name": "_amount",
          "type": "uint256"
        }
      ],
      "name": "handlegetbackCFX",
      "outputs": [],
      "stateMutability": "nonpayable",
      "type": "function"
    }
  ],
  "bytecode": "0x608060405234801561001057600080fd5b5061002d61002261003260201b60201c565b61003a60201b60201c565b6100fe565b600033905090565b60008060009054906101000a900473ffffffffffffffffffffffffffffffffffffffff169050816000806101000a81548173ffffffffffffffffffffffffffffffffffffffff021916908373ffffffffffffffffffffffffffffffffffffffff1602179055508173ffffffffffffffffffffffffffffffffffffffff168173ffffffffffffffffffffffffffffffffffffffff167f8be0079c531659141344cd1fd0a4f28419497f9722a3daafe3b4186f6b6457e060405160405180910390a35050565b6113888061010d6000396000f3fe6080604052600436106100ab5760003560e01c80638da5cb5b116100645780638da5cb5b1461019a578063934553b5146101c5578063b33af36a146101ee578063cfcb5fac14610217578063ecf4109814610255578063f2fde38b1461027e576100b2565b806314bcef60146100b45780631c1ab777146100dd578063715018a61461011a578063733391ba146101315780637a547a351461015a5780638129fc1c14610183576100b2565b366100b257005b005b3480156100c057600080fd5b506100db60048036038101906100d69190610f24565b6102a7565b005b3480156100e957600080fd5b5061010460048036038101906100ff9190610f76565b610367565b6040516101119190611180565b60405180910390f35b34801561012657600080fd5b5061012f6105a8565b005b34801561013d57600080fd5b5061015860048036038101906101539190610f76565b610630565b005b34801561016657600080fd5b50610181600480360381019061017c9190610f24565b6107bf565b005b34801561018f57600080fd5b5061019861087f565b005b3480156101a657600080fd5b506101af61095b565b6040516101bc9190611085565b60405180910390f35b3480156101d157600080fd5b506101ec60048036038101906101e79190610f24565b610984565b005b3480156101fa57600080fd5b5061021560048036038101906102109190610f24565b610a44565b005b34801561022357600080fd5b5061023e60048036038101906102399190610f76565b610b04565b60405161024c92919061119b565b60405180910390f35b34801561026157600080fd5b5061027c60048036038101906102779190610f24565b610c4c565b005b34801561028a57600080fd5b506102a560048036038101906102a09190610f24565b610d0c565b005b6102af610e04565b73ffffffffffffffffffffffffffffffffffffffff166102cd61095b565b73ffffffffffffffffffffffffffffffffffffffff1614610323576040517f08c379a000000000000000000000000000000000000000000000000000000000815260040161031a90611160565b60405180910390fd5b80600660006101000a81548173ffffffffffffffffffffffffffffffffffffffff021916908373ffffffffffffffffffffffffffffffffffffffff16021790555050565b6000600660009054906101000a900473ffffffffffffffffffffffffffffffffffffffff1673ffffffffffffffffffffffffffffffffffffffff163373ffffffffffffffffffffffffffffffffffffffff16146103f9576040517f08c379a00000000000000000000000000000000000000000000000000000000081526004016103f090611140565b60405180910390fd5b600760009054906101000a900473ffffffffffffffffffffffffffffffffffffffff1673ffffffffffffffffffffffffffffffffffffffff1663095ea7b3600360009054906101000a900473ffffffffffffffffffffffffffffffffffffffff16846040518363ffffffff1660e01b81526004016104789291906110d7565b602060405180830381600087803b15801561049257600080fd5b505af11580156104a6573d6000803e3d6000fd5b505050506040513d601f19601f820116820180604052508101906104ca9190610f4d565b50600360009054906101000a900473ffffffffffffffffffffffffffffffffffffffff1673ffffffffffffffffffffffffffffffffffffffff16631d4347a8600760009054906101000a900473ffffffffffffffffffffffffffffffffffffffff16600560009054906101000a900473ffffffffffffffffffffffffffffffffffffffff16856040518463ffffffff1660e01b815260040161056e939291906110a0565b600060405180830381600087803b15801561058857600080fd5b505af115801561059c573d6000803e3d6000fd5b50505050819050919050565b6105b0610e04565b73ffffffffffffffffffffffffffffffffffffffff166105ce61095b565b73ffffffffffffffffffffffffffffffffffffffff1614610624576040517f08c379a000000000000000000000000000000000000000000000000000000000815260040161061b90611160565b60405180910390fd5b61062e6000610e0c565b565b600660009054906101000a900473ffffffffffffffffffffffffffffffffffffffff1673ffffffffffffffffffffffffffffffffffffffff163373ffffffffffffffffffffffffffffffffffffffff16146106c0576040517f08c379a00000000000000000000000000000000000000000000000000000000081526004016106b790611140565b60405180910390fd5b600460009054906101000a900473ffffffffffffffffffffffffffffffffffffffff1673ffffffffffffffffffffffffffffffffffffffff166366f355db826040518263ffffffff1660e01b815260040161071b9190611180565b600060405180830381600087803b15801561073557600080fd5b505af1158015610749573d6000803e3d6000fd5b505050506000600660009054906101000a900473ffffffffffffffffffffffffffffffffffffffff1690508073ffffffffffffffffffffffffffffffffffffffff166108fc839081150290604051600060405180830381858888f193505050501580156107ba573d6000803e3d6000fd5b505050565b6107c7610e04565b73ffffffffffffffffffffffffffffffffffffffff166107e561095b565b73ffffffffffffffffffffffffffffffffffffffff161461083b576040517f08c379a000000000000000000000000000000000000000000000000000000000815260040161083290611160565b60405180910390fd5b80600760006101000a81548173ffffffffffffffffffffffffffffffffffffffff021916908373ffffffffffffffffffffffffffffffffffffffff16021790555050565b600060159054906101000a900460ff16806108a75750600060149054906101000a900460ff16155b6108e6576040517f08c379a00000000000000000000000000000000000000000000000000000000081526004016108dd90611120565b60405180910390fd5b60008060159054906101000a900460ff161590508015610937576001600060156101000a81548160ff0219169083151502179055506001600060146101000a81548160ff0219169083151502179055505b80156109585760008060156101000a81548160ff0219169083151502179055505b50565b60008060009054906101000a900473ffffffffffffffffffffffffffffffffffffffff16905090565b61098c610e04565b73ffffffffffffffffffffffffffffffffffffffff166109aa61095b565b73ffffffffffffffffffffffffffffffffffffffff1614610a00576040517f08c379a00000000000000000000000000000000000000000000000000000000081526004016109f790611160565b60405180910390fd5b80600560006101000a81548173ffffffffffffffffffffffffffffffffffffffff021916908373ffffffffffffffffffffffffffffffffffffffff16021790555050565b610a4c610e04565b73ffffffffffffffffffffffffffffffffffffffff16610a6a61095b565b73ffffffffffffffffffffffffffffffffffffffff1614610ac0576040517f08c379a0000000000000000000000000000000000000000000000000000000008152600401610ab790611160565b60405180910390fd5b80600360006101000a81548173ffffffffffffffffffffffffffffffffffffffff021916908373ffffffffffffffffffffffffffffffffffffffff16021790555050565b600080600660009054906101000a900473ffffffffffffffffffffffffffffffffffffffff1673ffffffffffffffffffffffffffffffffffffffff163373ffffffffffffffffffffffffffffffffffffffff1614610b97576040517f08c379a0000000000000000000000000000000000000000000000000000000008152600401610b8e90611140565b60405180910390fd5b600460009054906101000a900473ffffffffffffffffffffffffffffffffffffffff1673ffffffffffffffffffffffffffffffffffffffff166347108abc846040518263ffffffff1660e01b8152600401610bf29190611180565b6040805180830381600087803b158015610c0b57600080fd5b505af1158015610c1f573d6000803e3d6000fd5b505050506040513d601f19601f82011682018060405250810190610c439190610f9f565b91509150915091565b610c54610e04565b73ffffffffffffffffffffffffffffffffffffffff16610c7261095b565b73ffffffffffffffffffffffffffffffffffffffff1614610cc8576040517f08c379a0000000000000000000000000000000000000000000000000000000008152600401610cbf90611160565b60405180910390fd5b80600460006101000a81548173ffffffffffffffffffffffffffffffffffffffff021916908373ffffffffffffffffffffffffffffffffffffffff16021790555050565b610d14610e04565b73ffffffffffffffffffffffffffffffffffffffff16610d3261095b565b73ffffffffffffffffffffffffffffffffffffffff1614610d88576040517f08c379a0000000000000000000000000000000000000000000000000000000008152600401610d7f90611160565b60405180910390fd5b600073ffffffffffffffffffffffffffffffffffffffff168173ffffffffffffffffffffffffffffffffffffffff161415610df8576040517f08c379a0000000000000000000000000000000000000000000000000000000008152600401610def90611100565b60405180910390fd5b610e0181610e0c565b50565b600033905090565b60008060009054906101000a900473ffffffffffffffffffffffffffffffffffffffff169050816000806101000a81548173ffffffffffffffffffffffffffffffffffffffff021916908373ffffffffffffffffffffffffffffffffffffffff1602179055508173ffffffffffffffffffffffffffffffffffffffff168173ffffffffffffffffffffffffffffffffffffffff167f8be0079c531659141344cd1fd0a4f28419497f9722a3daafe3b4186f6b6457e060405160405180910390a35050565b600081359050610edf8161130d565b92915050565b600081519050610ef481611324565b92915050565b600081359050610f098161133b565b92915050565b600081519050610f1e8161133b565b92915050565b600060208284031215610f3657600080fd5b6000610f4484828501610ed0565b91505092915050565b600060208284031215610f5f57600080fd5b6000610f6d84828501610ee5565b91505092915050565b600060208284031215610f8857600080fd5b6000610f9684828501610efa565b91505092915050565b60008060408385031215610fb257600080fd5b6000610fc085828601610f0f565b9250506020610fd185828601610f0f565b9150509250929050565b610fe4816111d5565b82525050565b6000610ff76026836111c4565b91506110028261121d565b604082019050919050565b600061101a602e836111c4565b91506110258261126c565b604082019050919050565b600061103d601c836111c4565b9150611048826112bb565b602082019050919050565b60006110606020836111c4565b915061106b826112e4565b602082019050919050565b61107f81611213565b82525050565b600060208201905061109a6000830184610fdb565b92915050565b60006060820190506110b56000830186610fdb565b6110c26020830185610fdb565b6110cf6040830184611076565b949350505050565b60006040820190506110ec6000830185610fdb565b6110f96020830184611076565b9392505050565b6000602082019050818103600083015261111981610fea565b9050919050565b600060208201905081810360008301526111398161100d565b9050919050565b6000602082019050818103600083015261115981611030565b9050919050565b6000602082019050818103600083015261117981611053565b9050919050565b60006020820190506111956000830184611076565b92915050565b60006040820190506111b06000830185611076565b6111bd6020830184611076565b9392505050565b600082825260208201905092915050565b60006111e0826111f3565b9050919050565b60008115159050919050565b600073ffffffffffffffffffffffffffffffffffffffff82169050919050565b6000819050919050565b7f4f776e61626c653a206e6577206f776e657220697320746865207a65726f206160008201527f6464726573730000000000000000000000000000000000000000000000000000602082015250565b7f496e697469616c697a61626c653a20636f6e747261637420697320616c72656160008201527f647920696e697469616c697a6564000000000000000000000000000000000000602082015250565b7f4f6e6c7920436f726545786368616e676520697320616c6c6f77656400000000600082015250565b7f4f776e61626c653a2063616c6c6572206973206e6f7420746865206f776e6572600082015250565b611316816111d5565b811461132157600080fd5b50565b61132d816111e7565b811461133857600080fd5b50565b61134481611213565b811461134f57600080fd5b5056fea26469706673582212200bf80300e33bb38c254c17e740297d2de882bedd15543a07ebd701d3b7ce9f0464736f6c63430008020033",
  "immutableReferences": {},
  "source": "//SPDX-License-Identifier: BUSL-1.1\r\n// Licensor:            X-Dao.\r\n// Licensed Work:       NUCLEON 1.0\r\n\r\npragma solidity ^0.8.0;\r\n\r\nimport \"@openzeppelin/contracts/token/ERC20/IERC20.sol\";\r\nimport \"@openzeppelin/contracts/access/Ownable.sol\";\r\nimport \"@openzeppelin/contracts/utils/math/SafeMath.sol\";\r\nimport \"@openzeppelin/contracts/proxy/utils/Initializable.sol\";\r\ninterface IERC20crossIneSpace{\r\n   function lockToken(address _token, address _cfxAccount,uint256 _amount) external;\r\n}\r\ninterface IExchangeroom{\r\n    function XCFX_burn(uint256 _amount) external returns (uint256,uint256);\r\n    function getback_CFX(uint256 _amount) external ;\r\n}\r\n///\r\n///  @title System Storage in Conflux eSpace\r\n///\r\ncontract storagesbridge is Ownable,Initializable {\r\n  // ======================== System Definition =================================\r\n  using SafeMath for uint256;\r\n  address _balanceAddress;\r\n  uint256 _allowance;\r\n  address bridgeeSpacesideaddr; //espace address\r\n  address eSpaceExchange;\r\n  address CoreExchange;// use CoreExchange addr 0x version tansfered by conflux scan\r\n  uint256 private constant RATIO_BASE = 10000;\r\n  address CoreExchangeEspace;// use CoreExchange Espace addr\r\n  address xCFXaddr;// xCFX Espace addr\r\n  // ======================== Modifiers =================================\r\n  modifier onlyCoreExchange() {\r\n    //require(isContract(msg.sender),\"bridge is contracts\");\r\n    require(msg.sender == CoreExchangeEspace, \"Only CoreExchange is allowed\");\r\n    _;\r\n  }\r\n   // ======================== init =================================\r\n  function initialize() public initializer {\r\n  }\r\n   // ======================== onlyOwner =================================\r\n  function _setxCFXaddr(address _xCFXaddr) public onlyOwner{\r\n    xCFXaddr = _xCFXaddr;\r\n  }\r\n  function _seteSpaceExchange(address _eSpaceExchange) public onlyOwner{\r\n    eSpaceExchange = _eSpaceExchange;\r\n  }\r\n  function _setCoreExchange(address _CoreExchange) public onlyOwner{\r\n    CoreExchange = _CoreExchange;\r\n  }\r\n  function _setCoreExchangeEspace(address _CoreExchangeeEspace) public onlyOwner{\r\n    CoreExchangeEspace = _CoreExchangeeEspace;\r\n  }\r\n  function _setbridgeeSpacesideaddr(address _bridgeeSpacesideaddr) public onlyOwner{\r\n    bridgeeSpacesideaddr = _bridgeeSpacesideaddr;\r\n  }\r\n\r\n  // ======================== CoreExchange used functions =============================\r\n  function handlelock(uint256 _amount) external onlyCoreExchange returns(uint256){\r\n    IERC20(xCFXaddr).approve(bridgeeSpacesideaddr,_amount);\r\n    IERC20crossIneSpace(bridgeeSpacesideaddr).lockToken(xCFXaddr, CoreExchange, _amount) ;\r\n    return _amount;\r\n  }\r\n  function handlexCFXburn(uint256 _amount) external onlyCoreExchange returns(uint256, uint256){\r\n    return IExchangeroom(eSpaceExchange).XCFX_burn( _amount);\r\n  }\r\n  function handlegetbackCFX(uint256 _amount) external onlyCoreExchange {\r\n    IExchangeroom(eSpaceExchange).getback_CFX(_amount);\r\n    address payable receiver = payable(CoreExchangeEspace);\r\n    receiver.transfer(_amount);\r\n  }\r\n  // ======================== contract base methods =====================\r\n  fallback() external payable {}\r\n  receive() external payable {}\r\n}",
  "sourcePath": "C:\\Users\\artii\\Black IDE\\espace\\contracts\\eSpace\\storagesbridge.sol",
  "compiler": {
    "name": "solc",
    "version": "0.8.2+commit.661d1103.Emscripten.clang"
  },
  "schemaVersion": "3.4.3",
  "updatedAt": "2022-09-21T14:34:09.229Z",
  "devdoc": {
    "kind": "dev",
    "methods": {
      "owner()": {
        "details": "Returns the address of the current owner."
      },
      "renounceOwnership()": {
        "details": "Leaves the contract without owner. It will not be possible to call `onlyOwner` functions anymore. Can only be called by the current owner. NOTE: Renouncing ownership will leave the contract without an owner, thereby removing any functionality that is only available to the owner."
      },
      "transferOwnership(address)": {
        "details": "Transfers ownership of the contract to a new account (`newOwner`). Can only be called by the current owner."
      }
    },
    "title": "System Storage in Conflux eSpace",
    "version": 1
  },
  "userdoc": {
    "kind": "user",
    "methods": {},
    "version": 1
  }
}