{
  "contractName": "storagebridge",
  "abi": [
    {
      "anonymous": false,
      "inputs": [
        {
          "indexed": true,
          "internalType": "address",
          "name": "previousOwner",
          "type": "address"
        },
        {
          "indexed": true,
          "internalType": "address",
          "name": "newOwner",
          "type": "address"
        }
      ],
      "name": "OwnershipTransferred",
      "type": "event"
    },
    {
      "stateMutability": "payable",
      "type": "fallback"
    },
    {
      "inputs": [],
      "name": "owner",
      "outputs": [
        {
          "internalType": "address",
          "name": "",
          "type": "address"
        }
      ],
      "stateMutability": "view",
      "type": "function"
    },
    {
      "inputs": [],
      "name": "renounceOwnership",
      "outputs": [],
      "stateMutability": "nonpayable",
      "type": "function"
    },
    {
      "inputs": [
        {
          "internalType": "address",
          "name": "newOwner",
          "type": "address"
        }
      ],
      "name": "transferOwnership",
      "outputs": [],
      "stateMutability": "nonpayable",
      "type": "function"
    },
    {
      "stateMutability": "payable",
      "type": "receive"
    },
    {
      "inputs": [],
      "name": "initialize",
      "outputs": [],
      "stateMutability": "nonpayable",
      "type": "function"
    },
    {
      "inputs": [
        {
          "internalType": "address",
          "name": "_CoreExchange",
          "type": "address"
        }
      ],
      "name": "_setCoreExchange",
      "outputs": [],
      "stateMutability": "nonpayable",
      "type": "function"
    },
    {
      "inputs": [
        {
          "internalType": "address",
          "name": "_Spacesideaddr",
          "type": "address"
        }
      ],
      "name": "_setSpacesideaddr",
      "outputs": [],
      "stateMutability": "nonpayable",
      "type": "function"
    },
    {
      "inputs": [
        {
          "internalType": "address",
          "name": "_token",
          "type": "address"
        },
        {
          "internalType": "uint256",
          "name": "_amount",
          "type": "uint256"
        }
      ],
      "name": "handlelocktoCoreExchange",
      "outputs": [],
      "stateMutability": "nonpayable",
      "type": "function"
    }
  ],
  "bytecode": "0x608060405234801561001057600080fd5b5061002d61002261003260201b60201c565b61003a60201b60201c565b6100fe565b600033905090565b60008060009054906101000a900473ffffffffffffffffffffffffffffffffffffffff169050816000806101000a81548173ffffffffffffffffffffffffffffffffffffffff021916908373ffffffffffffffffffffffffffffffffffffffff1602179055508173ffffffffffffffffffffffffffffffffffffffff168173ffffffffffffffffffffffffffffffffffffffff167f8be0079c531659141344cd1fd0a4f28419497f9722a3daafe3b4186f6b6457e060405160405180910390a35050565b610b3e8061010d6000396000f3fe6080604052600436106100745760003560e01c80638129fc1c1161004e5780638129fc1c146100e65780638da5cb5b146100fd578063934553b514610128578063f2fde38b146101515761007b565b806302595af51461007d5780635eee983a146100a6578063715018a6146100cf5761007b565b3661007b57005b005b34801561008957600080fd5b506100a4600480360381019061009f91906107e5565b61017a565b005b3480156100b257600080fd5b506100cd60048036038101906100c891906107bc565b6102c1565b005b3480156100db57600080fd5b506100e4610381565b005b3480156100f257600080fd5b506100fb610409565b005b34801561010957600080fd5b506101126104e5565b60405161011f91906108cb565b60405180910390f35b34801561013457600080fd5b5061014f600480360381019061014a91906107bc565b61050e565b005b34801561015d57600080fd5b50610178600480360381019061017391906107bc565b6105ce565b005b600260009054906101000a900473ffffffffffffffffffffffffffffffffffffffff1673ffffffffffffffffffffffffffffffffffffffff163373ffffffffffffffffffffffffffffffffffffffff161461020a576040517f08c379a00000000000000000000000000000000000000000000000000000000081526004016102019061097d565b60405180910390fd5b600160009054906101000a900473ffffffffffffffffffffffffffffffffffffffff1673ffffffffffffffffffffffffffffffffffffffff16631d4347a883600260009054906101000a900473ffffffffffffffffffffffffffffffffffffffff16846040518463ffffffff1660e01b815260040161028b939291906108e6565b600060405180830381600087803b1580156102a557600080fd5b505af11580156102b9573d6000803e3d6000fd5b505050505050565b6102c96106c6565b73ffffffffffffffffffffffffffffffffffffffff166102e76104e5565b73ffffffffffffffffffffffffffffffffffffffff161461033d576040517f08c379a00000000000000000000000000000000000000000000000000000000081526004016103349061095d565b60405180910390fd5b80600160006101000a81548173ffffffffffffffffffffffffffffffffffffffff021916908373ffffffffffffffffffffffffffffffffffffffff16021790555050565b6103896106c6565b73ffffffffffffffffffffffffffffffffffffffff166103a76104e5565b73ffffffffffffffffffffffffffffffffffffffff16146103fd576040517f08c379a00000000000000000000000000000000000000000000000000000000081526004016103f49061095d565b60405180910390fd5b61040760006106ce565b565b600060159054906101000a900460ff16806104315750600060149054906101000a900460ff16155b610470576040517f08c379a00000000000000000000000000000000000000000000000000000000081526004016104679061093d565b60405180910390fd5b60008060159054906101000a900460ff1615905080156104c1576001600060156101000a81548160ff0219169083151502179055506001600060146101000a81548160ff0219169083151502179055505b80156104e25760008060156101000a81548160ff0219169083151502179055505b50565b60008060009054906101000a900473ffffffffffffffffffffffffffffffffffffffff16905090565b6105166106c6565b73ffffffffffffffffffffffffffffffffffffffff166105346104e5565b73ffffffffffffffffffffffffffffffffffffffff161461058a576040517f08c379a00000000000000000000000000000000000000000000000000000000081526004016105819061095d565b60405180910390fd5b80600260006101000a81548173ffffffffffffffffffffffffffffffffffffffff021916908373ffffffffffffffffffffffffffffffffffffffff16021790555050565b6105d66106c6565b73ffffffffffffffffffffffffffffffffffffffff166105f46104e5565b73ffffffffffffffffffffffffffffffffffffffff161461064a576040517f08c379a00000000000000000000000000000000000000000000000000000000081526004016106419061095d565b60405180910390fd5b600073ffffffffffffffffffffffffffffffffffffffff168173ffffffffffffffffffffffffffffffffffffffff1614156106ba576040517f08c379a00000000000000000000000000000000000000000000000000000000081526004016106b19061091d565b60405180910390fd5b6106c3816106ce565b50565b600033905090565b60008060009054906101000a900473ffffffffffffffffffffffffffffffffffffffff169050816000806101000a81548173ffffffffffffffffffffffffffffffffffffffff021916908373ffffffffffffffffffffffffffffffffffffffff1602179055508173ffffffffffffffffffffffffffffffffffffffff168173ffffffffffffffffffffffffffffffffffffffff167f8be0079c531659141344cd1fd0a4f28419497f9722a3daafe3b4186f6b6457e060405160405180910390a35050565b6000813590506107a181610ada565b92915050565b6000813590506107b681610af1565b92915050565b6000602082840312156107ce57600080fd5b60006107dc84828501610792565b91505092915050565b600080604083850312156107f857600080fd5b600061080685828601610792565b9250506020610817858286016107a7565b9150509250929050565b61082a816109ae565b82525050565b600061083d60268361099d565b9150610848826109ea565b604082019050919050565b6000610860602e8361099d565b915061086b82610a39565b604082019050919050565b600061088360208361099d565b915061088e82610a88565b602082019050919050565b60006108a660168361099d565b91506108b182610ab1565b602082019050919050565b6108c5816109e0565b82525050565b60006020820190506108e06000830184610821565b92915050565b60006060820190506108fb6000830186610821565b6109086020830185610821565b61091560408301846108bc565b949350505050565b6000602082019050818103600083015261093681610830565b9050919050565b6000602082019050818103600083015261095681610853565b9050919050565b6000602082019050818103600083015261097681610876565b9050919050565b6000602082019050818103600083015261099681610899565b9050919050565b600082825260208201905092915050565b60006109b9826109c0565b9050919050565b600073ffffffffffffffffffffffffffffffffffffffff82169050919050565b6000819050919050565b7f4f776e61626c653a206e6577206f776e657220697320746865207a65726f206160008201527f6464726573730000000000000000000000000000000000000000000000000000602082015250565b7f496e697469616c697a61626c653a20636f6e747261637420697320616c72656160008201527f647920696e697469616c697a6564000000000000000000000000000000000000602082015250565b7f4f776e61626c653a2063616c6c6572206973206e6f7420746865206f776e6572600082015250565b7f4f6e6c792062726964676520697320616c6c6f77656400000000000000000000600082015250565b610ae3816109ae565b8114610aee57600080fd5b50565b610afa816109e0565b8114610b0557600080fd5b5056fea2646970667358221220d7f491ad93edac5246f79c9fc734f1e7564640dd241d545ce91888e53c990f4764736f6c63430008020033",
  "immutableReferences": {},
  "source": "//SPDX-License-Identifier: BUSL-1.1\r\n// Licensor:            X-Dao.\r\n// Licensed Work:       NUCLEON 1.0\r\n\r\npragma solidity ^0.8.0;\r\n\r\nimport \"@openzeppelin/contracts/token/ERC20/IERC20.sol\";\r\nimport \"@openzeppelin/contracts/access/Ownable.sol\";\r\nimport \"@openzeppelin/contracts/utils/math/SafeMath.sol\";\r\nimport \"@openzeppelin/contracts/proxy/utils/Initializable.sol\";\r\ninterface IERC20crossIneSpace{\r\n   function lockToken(address _token, address _cfxAccount,uint256 _amount) external;\r\n}\r\n///\r\n///  @title System Storage in Conflux eSpace\r\n///\r\ncontract storagebridge is Ownable,Initializable {\r\n  // ======================== System Definition =================================\r\n  using SafeMath for uint256;\r\n  address bridgeeSpacesideaddr; //espace address\r\n  address CoreExchange;// use CoreExchange addr 0x version tansfered by conflux scan\r\n  // ======================== Modifiers =================================\r\n  modifier onlyCoreExchange() {\r\n    //require(isContract(msg.sender),\"bridge is contracts\");\r\n    require(msg.sender == CoreExchange, \"Only bridge is allowed\");\r\n    _;\r\n  }\r\n   // ======================== init =================================\r\n  function initialize() public initializer {\r\n    //bridgeeSpacesideaddr = address(0xe1b1457682536eb6e28be1ac215165d48354d4e1) ;\r\n  }\r\n   // ======================== onlyOwner =================================\r\n    function _setCoreExchange(address _CoreExchange) public onlyOwner{\r\n    CoreExchange = _CoreExchange;\r\n  }\r\n    function _setSpacesideaddr(address _Spacesideaddr) public onlyOwner{\r\n    bridgeeSpacesideaddr = _Spacesideaddr;\r\n  }\r\n\r\n  // ======================== private =================================\r\n  function transferERC20(address _ERC20address,address _recipient,uint256 _amount) private onlyCoreExchange {\r\n    require(IERC20(_ERC20address).balanceOf(address(this))>=_amount,\"exceed the storage ERC20 balance\");\r\n    IERC20(_ERC20address).transfer( _recipient, _amount);\r\n  }\r\n\r\n  function transferCFX(address _recipient,uint256 _amount) private onlyCoreExchange {\r\n    require(address(this).balance>=_amount,\"exceed the storage CFX balance\");\r\n    address payable receiver = payable(_recipient); // Set receiver\r\n    receiver.transfer(_amount);\r\n  }\r\n  // ======================== CoreExchange used functions =============================\r\n  function handlelocktoCoreExchange(address _token, uint256 _amount) public onlyCoreExchange {\r\n    IERC20crossIneSpace(bridgeeSpacesideaddr).lockToken(_token, CoreExchange, _amount) ;\r\n  }\r\n  // ======================== contract base functions =====================\r\n  fallback() external payable {}\r\n  receive() external payable {}\r\n}",
  "sourcePath": "C:\\Users\\artii\\Black IDE\\espace\\contracts\\eSpace\\storagesbridgeforcore.sol",
  "compiler": {
    "name": "solc",
    "version": "0.8.2+commit.661d1103.Emscripten.clang"
  },
  "schemaVersion": "3.4.3",
  "updatedAt": "2022-09-13T01:47:50.134Z",
  "devdoc": {
    "kind": "dev",
    "methods": {
      "owner()": {
        "details": "Returns the address of the current owner."
      },
      "renounceOwnership()": {
        "details": "Leaves the contract without owner. It will not be possible to call `onlyOwner` functions anymore. Can only be called by the current owner. NOTE: Renouncing ownership will leave the contract without an owner, thereby removing any functionality that is only available to the owner."
      },
      "transferOwnership(address)": {
        "details": "Transfers ownership of the contract to a new account (`newOwner`). Can only be called by the current owner."
      }
    },
    "title": "System Storage in Conflux eSpace",
    "version": 1
  },
  "userdoc": {
    "kind": "user",
    "methods": {},
    "version": 1
  }
}