{
  "contractName": "storagesbridge",
  "abi": [
    {
      "anonymous": false,
      "inputs": [
        {
          "indexed": true,
          "internalType": "address",
          "name": "previousOwner",
          "type": "address"
        },
        {
          "indexed": true,
          "internalType": "address",
          "name": "newOwner",
          "type": "address"
        }
      ],
      "name": "OwnershipTransferred",
      "type": "event"
    },
    {
      "stateMutability": "payable",
      "type": "fallback"
    },
    {
      "inputs": [],
      "name": "owner",
      "outputs": [
        {
          "internalType": "address",
          "name": "",
          "type": "address"
        }
      ],
      "stateMutability": "view",
      "type": "function"
    },
    {
      "inputs": [],
      "name": "renounceOwnership",
      "outputs": [],
      "stateMutability": "nonpayable",
      "type": "function"
    },
    {
      "inputs": [
        {
          "internalType": "address",
          "name": "newOwner",
          "type": "address"
        }
      ],
      "name": "transferOwnership",
      "outputs": [],
      "stateMutability": "nonpayable",
      "type": "function"
    },
    {
      "stateMutability": "payable",
      "type": "receive"
    },
    {
      "inputs": [],
      "name": "initialize",
      "outputs": [],
      "stateMutability": "nonpayable",
      "type": "function"
    },
    {
      "inputs": [
        {
          "internalType": "address",
          "name": "_xCFXaddr",
          "type": "address"
        }
      ],
      "name": "_setxCFXaddr",
      "outputs": [],
      "stateMutability": "nonpayable",
      "type": "function"
    },
    {
      "inputs": [
        {
          "internalType": "address",
          "name": "_eSpaceExchange",
          "type": "address"
        }
      ],
      "name": "_seteSpaceExchange",
      "outputs": [],
      "stateMutability": "nonpayable",
      "type": "function"
    },
    {
      "inputs": [
        {
          "internalType": "address",
          "name": "_CoreExchange",
          "type": "address"
        }
      ],
      "name": "_setCoreExchange",
      "outputs": [],
      "stateMutability": "nonpayable",
      "type": "function"
    },
    {
      "inputs": [
        {
          "internalType": "address",
          "name": "_CoreExchangeeEspace",
          "type": "address"
        }
      ],
      "name": "_setCoreExchangeEspace",
      "outputs": [],
      "stateMutability": "nonpayable",
      "type": "function"
    },
    {
      "inputs": [
        {
          "internalType": "address",
          "name": "_bridgeeSpacesideaddr",
          "type": "address"
        }
      ],
      "name": "_setbridgeeSpacesideaddr",
      "outputs": [],
      "stateMutability": "nonpayable",
      "type": "function"
    },
    {
      "inputs": [
        {
          "internalType": "uint256",
          "name": "_amount",
          "type": "uint256"
        }
      ],
      "name": "handlelock",
      "outputs": [
        {
          "internalType": "uint256",
          "name": "",
          "type": "uint256"
        }
      ],
      "stateMutability": "nonpayable",
      "type": "function"
    },
    {
      "inputs": [
        {
          "internalType": "uint256",
          "name": "_amount",
          "type": "uint256"
        }
      ],
      "name": "handlexCFXburn",
      "outputs": [
        {
          "internalType": "uint256",
          "name": "",
          "type": "uint256"
        },
        {
          "internalType": "uint256",
          "name": "",
          "type": "uint256"
        }
      ],
      "stateMutability": "nonpayable",
      "type": "function"
    },
    {
      "inputs": [
        {
          "internalType": "uint256",
          "name": "_amount",
          "type": "uint256"
        }
      ],
      "name": "handlegetbackCFX",
      "outputs": [
        {
          "internalType": "uint256",
          "name": "",
          "type": "uint256"
        }
      ],
      "stateMutability": "nonpayable",
      "type": "function"
    }
  ],
  "bytecode": "0x608060405234801561001057600080fd5b5061002d61002261003260201b60201c565b61003a60201b60201c565b6100fe565b600033905090565b60008060009054906101000a900473ffffffffffffffffffffffffffffffffffffffff169050816000806101000a81548173ffffffffffffffffffffffffffffffffffffffff021916908373ffffffffffffffffffffffffffffffffffffffff1602179055508173ffffffffffffffffffffffffffffffffffffffff168173ffffffffffffffffffffffffffffffffffffffff167f8be0079c531659141344cd1fd0a4f28419497f9722a3daafe3b4186f6b6457e060405160405180910390a35050565b6114c38061010d6000396000f3fe6080604052600436106100ab5760003560e01c80638da5cb5b116100645780638da5cb5b146101ae578063934553b5146101d9578063b33af36a14610202578063cfcb5fac1461022b578063ecf4109814610269578063f2fde38b14610292576100b2565b806314bcef60146100b45780631c1ab777146100dd578063715018a61461011a578063733391ba146101315780637a547a351461016e5780638129fc1c14610197576100b2565b366100b257005b005b3480156100c057600080fd5b506100db60048036038101906100d69190610fad565b6102bb565b005b3480156100e957600080fd5b5061010460048036038101906100ff9190610fff565b61037b565b6040516101119190611284565b60405180910390f35b34801561012657600080fd5b5061012f6105bc565b005b34801561013d57600080fd5b5061015860048036038101906101539190610fff565b610644565b6040516101659190611284565b60405180910390f35b34801561017a57600080fd5b5061019560048036038101906101909190610fad565b610797565b005b3480156101a357600080fd5b506101ac610857565b005b3480156101ba57600080fd5b506101c3610933565b6040516101d09190611169565b60405180910390f35b3480156101e557600080fd5b5061020060048036038101906101fb9190610fad565b61095c565b005b34801561020e57600080fd5b5061022960048036038101906102249190610fad565b610a1c565b005b34801561023757600080fd5b50610252600480360381019061024d9190610fff565b610adc565b60405161026092919061129f565b60405180910390f35b34801561027557600080fd5b50610290600480360381019061028b9190610fad565b610c24565b005b34801561029e57600080fd5b506102b960048036038101906102b49190610fad565b610ce4565b005b6102c3610ddc565b73ffffffffffffffffffffffffffffffffffffffff166102e1610933565b73ffffffffffffffffffffffffffffffffffffffff1614610337576040517f08c379a000000000000000000000000000000000000000000000000000000000815260040161032e90611264565b60405180910390fd5b80600660006101000a81548173ffffffffffffffffffffffffffffffffffffffff021916908373ffffffffffffffffffffffffffffffffffffffff16021790555050565b6000600660009054906101000a900473ffffffffffffffffffffffffffffffffffffffff1673ffffffffffffffffffffffffffffffffffffffff163373ffffffffffffffffffffffffffffffffffffffff161461040d576040517f08c379a000000000000000000000000000000000000000000000000000000000815260040161040490611244565b60405180910390fd5b600760009054906101000a900473ffffffffffffffffffffffffffffffffffffffff1673ffffffffffffffffffffffffffffffffffffffff1663095ea7b3600360009054906101000a900473ffffffffffffffffffffffffffffffffffffffff16846040518363ffffffff1660e01b815260040161048c9291906111bb565b602060405180830381600087803b1580156104a657600080fd5b505af11580156104ba573d6000803e3d6000fd5b505050506040513d601f19601f820116820180604052508101906104de9190610fd6565b50600360009054906101000a900473ffffffffffffffffffffffffffffffffffffffff1673ffffffffffffffffffffffffffffffffffffffff16631d4347a8600760009054906101000a900473ffffffffffffffffffffffffffffffffffffffff16600560009054906101000a900473ffffffffffffffffffffffffffffffffffffffff16856040518463ffffffff1660e01b815260040161058293929190611184565b600060405180830381600087803b15801561059c57600080fd5b505af11580156105b0573d6000803e3d6000fd5b50505050819050919050565b6105c4610ddc565b73ffffffffffffffffffffffffffffffffffffffff166105e2610933565b73ffffffffffffffffffffffffffffffffffffffff1614610638576040517f08c379a000000000000000000000000000000000000000000000000000000000815260040161062f90611264565b60405180910390fd5b6106426000610de4565b565b6000600660009054906101000a900473ffffffffffffffffffffffffffffffffffffffff1673ffffffffffffffffffffffffffffffffffffffff163373ffffffffffffffffffffffffffffffffffffffff16146106d6576040517f08c379a00000000000000000000000000000000000000000000000000000000081526004016106cd90611244565b60405180910390fd5b600460009054906101000a900473ffffffffffffffffffffffffffffffffffffffff1673ffffffffffffffffffffffffffffffffffffffff166366f355db836040518263ffffffff1660e01b81526004016107319190611284565b600060405180830381600087803b15801561074b57600080fd5b505af115801561075f573d6000803e3d6000fd5b5050505061078f600660009054906101000a900473ffffffffffffffffffffffffffffffffffffffff1683610ea8565b819050919050565b61079f610ddc565b73ffffffffffffffffffffffffffffffffffffffff166107bd610933565b73ffffffffffffffffffffffffffffffffffffffff1614610813576040517f08c379a000000000000000000000000000000000000000000000000000000000815260040161080a90611264565b60405180910390fd5b80600760006101000a81548173ffffffffffffffffffffffffffffffffffffffff021916908373ffffffffffffffffffffffffffffffffffffffff16021790555050565b600060159054906101000a900460ff168061087f5750600060149054906101000a900460ff16155b6108be576040517f08c379a00000000000000000000000000000000000000000000000000000000081526004016108b590611224565b60405180910390fd5b60008060159054906101000a900460ff16159050801561090f576001600060156101000a81548160ff0219169083151502179055506001600060146101000a81548160ff0219169083151502179055505b80156109305760008060156101000a81548160ff0219169083151502179055505b50565b60008060009054906101000a900473ffffffffffffffffffffffffffffffffffffffff16905090565b610964610ddc565b73ffffffffffffffffffffffffffffffffffffffff16610982610933565b73ffffffffffffffffffffffffffffffffffffffff16146109d8576040517f08c379a00000000000000000000000000000000000000000000000000000000081526004016109cf90611264565b60405180910390fd5b80600560006101000a81548173ffffffffffffffffffffffffffffffffffffffff021916908373ffffffffffffffffffffffffffffffffffffffff16021790555050565b610a24610ddc565b73ffffffffffffffffffffffffffffffffffffffff16610a42610933565b73ffffffffffffffffffffffffffffffffffffffff1614610a98576040517f08c379a0000000000000000000000000000000000000000000000000000000008152600401610a8f90611264565b60405180910390fd5b80600360006101000a81548173ffffffffffffffffffffffffffffffffffffffff021916908373ffffffffffffffffffffffffffffffffffffffff16021790555050565b600080600660009054906101000a900473ffffffffffffffffffffffffffffffffffffffff1673ffffffffffffffffffffffffffffffffffffffff163373ffffffffffffffffffffffffffffffffffffffff1614610b6f576040517f08c379a0000000000000000000000000000000000000000000000000000000008152600401610b6690611244565b60405180910390fd5b600460009054906101000a900473ffffffffffffffffffffffffffffffffffffffff1673ffffffffffffffffffffffffffffffffffffffff166347108abc846040518263ffffffff1660e01b8152600401610bca9190611284565b6040805180830381600087803b158015610be357600080fd5b505af1158015610bf7573d6000803e3d6000fd5b505050506040513d601f19601f82011682018060405250810190610c1b9190611028565b91509150915091565b610c2c610ddc565b73ffffffffffffffffffffffffffffffffffffffff16610c4a610933565b73ffffffffffffffffffffffffffffffffffffffff1614610ca0576040517f08c379a0000000000000000000000000000000000000000000000000000000008152600401610c9790611264565b60405180910390fd5b80600460006101000a81548173ffffffffffffffffffffffffffffffffffffffff021916908373ffffffffffffffffffffffffffffffffffffffff16021790555050565b610cec610ddc565b73ffffffffffffffffffffffffffffffffffffffff16610d0a610933565b73ffffffffffffffffffffffffffffffffffffffff1614610d60576040517f08c379a0000000000000000000000000000000000000000000000000000000008152600401610d5790611264565b60405180910390fd5b600073ffffffffffffffffffffffffffffffffffffffff168173ffffffffffffffffffffffffffffffffffffffff161415610dd0576040517f08c379a0000000000000000000000000000000000000000000000000000000008152600401610dc7906111e4565b60405180910390fd5b610dd981610de4565b50565b600033905090565b60008060009054906101000a900473ffffffffffffffffffffffffffffffffffffffff169050816000806101000a81548173ffffffffffffffffffffffffffffffffffffffff021916908373ffffffffffffffffffffffffffffffffffffffff1602179055508173ffffffffffffffffffffffffffffffffffffffff168173ffffffffffffffffffffffffffffffffffffffff167f8be0079c531659141344cd1fd0a4f28419497f9722a3daafe3b4186f6b6457e060405160405180910390a35050565b60008273ffffffffffffffffffffffffffffffffffffffff1682604051610ece90611154565b60006040518083038185875af1925050503d8060008114610f0b576040519150601f19603f3d011682016040523d82523d6000602084013e610f10565b606091505b5050905080610f54576040517f08c379a0000000000000000000000000000000000000000000000000000000008152600401610f4b90611204565b60405180910390fd5b505050565b600081359050610f6881611448565b92915050565b600081519050610f7d8161145f565b92915050565b600081359050610f9281611476565b92915050565b600081519050610fa781611476565b92915050565b600060208284031215610fbf57600080fd5b6000610fcd84828501610f59565b91505092915050565b600060208284031215610fe857600080fd5b6000610ff684828501610f6e565b91505092915050565b60006020828403121561101157600080fd5b600061101f84828501610f83565b91505092915050565b6000806040838503121561103b57600080fd5b600061104985828601610f98565b925050602061105a85828601610f98565b9150509250929050565b61106d816112e4565b82525050565b60006110806026836112d3565b915061108b8261132c565b604082019050919050565b60006110a36013836112d3565b91506110ae8261137b565b602082019050919050565b60006110c6602e836112d3565b91506110d1826113a4565b604082019050919050565b60006110e9601c836112d3565b91506110f4826113f3565b602082019050919050565b600061110c6020836112d3565b91506111178261141c565b602082019050919050565b600061112f6000836112c8565b915061113a82611445565b600082019050919050565b61114e81611322565b82525050565b600061115f82611122565b9150819050919050565b600060208201905061117e6000830184611064565b92915050565b60006060820190506111996000830186611064565b6111a66020830185611064565b6111b36040830184611145565b949350505050565b60006040820190506111d06000830185611064565b6111dd6020830184611145565b9392505050565b600060208201905081810360008301526111fd81611073565b9050919050565b6000602082019050818103600083015261121d81611096565b9050919050565b6000602082019050818103600083015261123d816110b9565b9050919050565b6000602082019050818103600083015261125d816110dc565b9050919050565b6000602082019050818103600083015261127d816110ff565b9050919050565b60006020820190506112996000830184611145565b92915050565b60006040820190506112b46000830185611145565b6112c16020830184611145565b9392505050565b600081905092915050565b600082825260208201905092915050565b60006112ef82611302565b9050919050565b60008115159050919050565b600073ffffffffffffffffffffffffffffffffffffffff82169050919050565b6000819050919050565b7f4f776e61626c653a206e6577206f776e657220697320746865207a65726f206160008201527f6464726573730000000000000000000000000000000000000000000000000000602082015250565b7f434658205472616e73666572204661696c656400000000000000000000000000600082015250565b7f496e697469616c697a61626c653a20636f6e747261637420697320616c72656160008201527f647920696e697469616c697a6564000000000000000000000000000000000000602082015250565b7f4f6e6c7920436f726545786368616e676520697320616c6c6f77656400000000600082015250565b7f4f776e61626c653a2063616c6c6572206973206e6f7420746865206f776e6572600082015250565b50565b611451816112e4565b811461145c57600080fd5b50565b611468816112f6565b811461147357600080fd5b50565b61147f81611322565b811461148a57600080fd5b5056fea2646970667358221220902680dc554c025abd326980d78ce9a95fc92341eebf18c94ef70ea831cc3d1764736f6c63430008020033",
  "immutableReferences": {},
  "source": "//SPDX-License-Identifier: BUSL-1.1\r\n// Licensor:            X-Dao.\r\n// Licensed Work:       NUCLEON 1.0\r\n\r\npragma solidity ^0.8.0;\r\n\r\nimport \"@openzeppelin/contracts/token/ERC20/IERC20.sol\";\r\nimport \"@openzeppelin/contracts/access/Ownable.sol\";\r\nimport \"@openzeppelin/contracts/utils/math/SafeMath.sol\";\r\nimport \"@openzeppelin/contracts/proxy/utils/Initializable.sol\";\r\ninterface IERC20crossIneSpace{\r\n   function lockToken(address _token, address _cfxAccount,uint256 _amount) external;\r\n}\r\ninterface IExchangeroom{\r\n    function XCFX_burn(uint256 _amount) external returns (uint256,uint256);\r\n    function getback_CFX(uint256 _amount) external ;\r\n}\r\n///\r\n///  @title System Storage in Conflux eSpace\r\n///\r\ncontract storagesbridge is Ownable,Initializable {\r\n  // ======================== System Definition =================================\r\n  using SafeMath for uint256;\r\n  address _balanceAddress;\r\n  uint256 _allowance;\r\n  address bridgeeSpacesideaddr; //espace address\r\n  address eSpaceExchange;\r\n  address CoreExchange;// use CoreExchange addr 0x version tansfered by conflux scan\r\n  uint256 private constant RATIO_BASE = 10000;\r\n  address CoreExchangeEspace;// use CoreExchange Espace addr\r\n  address xCFXaddr;// xCFX Espace addr\r\n  // ======================== Modifiers =================================\r\n  modifier onlyCoreExchange() {\r\n    require(msg.sender == CoreExchangeEspace, \"Only CoreExchange is allowed\");\r\n    _;\r\n  }\r\n   // ======================== init =================================\r\n  function initialize() public initializer {\r\n  }\r\n   // ======================== onlyOwner =================================\r\n  function _setxCFXaddr(address _xCFXaddr) public onlyOwner{\r\n    xCFXaddr = _xCFXaddr;\r\n  }\r\n  function _seteSpaceExchange(address _eSpaceExchange) public onlyOwner{\r\n    eSpaceExchange = _eSpaceExchange;\r\n  }\r\n  function _setCoreExchange(address _CoreExchange) public onlyOwner{\r\n    CoreExchange = _CoreExchange;\r\n  }\r\n  function _setCoreExchangeEspace(address _CoreExchangeeEspace) public onlyOwner{\r\n    CoreExchangeEspace = _CoreExchangeeEspace;\r\n  }\r\n  function _setbridgeeSpacesideaddr(address _bridgeeSpacesideaddr) public onlyOwner{\r\n    bridgeeSpacesideaddr = _bridgeeSpacesideaddr;\r\n  }\r\n\r\n  // ======================== CoreExchange used functions =============================\r\n  function handlelock(uint256 _amount) external onlyCoreExchange returns(uint256){\r\n    IERC20(xCFXaddr).approve(bridgeeSpacesideaddr,_amount);\r\n    IERC20crossIneSpace(bridgeeSpacesideaddr).lockToken(xCFXaddr, CoreExchange, _amount) ;\r\n    return _amount;\r\n  }\r\n  function handlexCFXburn(uint256 _amount) external onlyCoreExchange returns(uint256, uint256){\r\n    return IExchangeroom(eSpaceExchange).XCFX_burn( _amount);\r\n  }\r\n  function handlegetbackCFX(uint256 _amount) external onlyCoreExchange returns(uint256) {\r\n    IExchangeroom(eSpaceExchange).getback_CFX(_amount);\r\n    transferCFX(CoreExchangeEspace, _amount);\r\n    return _amount;\r\n  }\r\n  \r\n  // ======================== contract base methods =====================\r\n  function transferCFX(address _address, uint256 _value) internal{\r\n    (bool success, ) = address(uint160(_address)).call{value:_value}(\"\");\r\n    require(success,\"CFX Transfer Failed\");\r\n  }\r\n  \r\n  fallback() external payable {}\r\n  receive() external payable {}\r\n}",
  "sourcePath": "C:\\Users\\artii\\Black IDE\\espace\\contracts\\eSpace\\storagesbridge.sol",
  "compiler": {
    "name": "solc",
    "version": "0.8.2+commit.661d1103.Emscripten.clang"
  },
  "schemaVersion": "3.4.3",
  "updatedAt": "2023-03-15T07:45:27.066Z",
  "devdoc": {
    "kind": "dev",
    "methods": {
      "owner()": {
        "details": "Returns the address of the current owner."
      },
      "renounceOwnership()": {
        "details": "Leaves the contract without owner. It will not be possible to call `onlyOwner` functions anymore. Can only be called by the current owner. NOTE: Renouncing ownership will leave the contract without an owner, thereby removing any functionality that is only available to the owner."
      },
      "transferOwnership(address)": {
        "details": "Transfers ownership of the contract to a new account (`newOwner`). Can only be called by the current owner."
      }
    },
    "title": "System Storage in Conflux eSpace",
    "version": 1
  },
  "userdoc": {
    "kind": "user",
    "methods": {},
    "version": 1
  }
}