{
  "contractName": "systemstorage",
  "abi": [
    {
      "anonymous": false,
      "inputs": [
        {
          "indexed": true,
          "internalType": "address",
          "name": "previousOwner",
          "type": "address"
        },
        {
          "indexed": true,
          "internalType": "address",
          "name": "newOwner",
          "type": "address"
        }
      ],
      "name": "OwnershipTransferred",
      "type": "event"
    },
    {
      "stateMutability": "payable",
      "type": "fallback"
    },
    {
      "inputs": [],
      "name": "owner",
      "outputs": [
        {
          "internalType": "address",
          "name": "",
          "type": "address"
        }
      ],
      "stateMutability": "view",
      "type": "function"
    },
    {
      "inputs": [],
      "name": "renounceOwnership",
      "outputs": [],
      "stateMutability": "nonpayable",
      "type": "function"
    },
    {
      "inputs": [
        {
          "internalType": "address",
          "name": "newOwner",
          "type": "address"
        }
      ],
      "name": "transferOwnership",
      "outputs": [],
      "stateMutability": "nonpayable",
      "type": "function"
    },
    {
      "stateMutability": "payable",
      "type": "receive"
    },
    {
      "inputs": [],
      "name": "initialize",
      "outputs": [],
      "stateMutability": "nonpayable",
      "type": "function"
    },
    {
      "inputs": [
        {
          "internalType": "address",
          "name": "_admin",
          "type": "address"
        }
      ],
      "name": "_setAdmin",
      "outputs": [],
      "stateMutability": "nonpayable",
      "type": "function"
    },
    {
      "inputs": [
        {
          "internalType": "address",
          "name": "_balance",
          "type": "address"
        }
      ],
      "name": "_setbalanceAddress",
      "outputs": [],
      "stateMutability": "nonpayable",
      "type": "function"
    },
    {
      "inputs": [
        {
          "internalType": "uint256",
          "name": "_allow",
          "type": "uint256"
        }
      ],
      "name": "_setallow",
      "outputs": [],
      "stateMutability": "nonpayable",
      "type": "function"
    },
    {
      "inputs": [
        {
          "internalType": "uint256[]",
          "name": "_Percentage",
          "type": "uint256[]"
        },
        {
          "internalType": "address[]",
          "name": "_transferaddr",
          "type": "address[]"
        },
        {
          "internalType": "address",
          "name": "_ERC20address",
          "type": "address"
        }
      ],
      "name": "transferERC20byPercentage",
      "outputs": [],
      "stateMutability": "nonpayable",
      "type": "function"
    },
    {
      "inputs": [
        {
          "internalType": "uint256[]",
          "name": "_Percentage",
          "type": "uint256[]"
        },
        {
          "internalType": "address[]",
          "name": "_transferaddr",
          "type": "address[]"
        }
      ],
      "name": "transferCFXbyPercentage",
      "outputs": [],
      "stateMutability": "nonpayable",
      "type": "function"
    },
    {
      "inputs": [
        {
          "internalType": "uint256[]",
          "name": "_amount",
          "type": "uint256[]"
        },
        {
          "internalType": "address[]",
          "name": "_transferaddr",
          "type": "address[]"
        },
        {
          "internalType": "address",
          "name": "_ERC20address",
          "type": "address"
        }
      ],
      "name": "transferERC20byAmount",
      "outputs": [],
      "stateMutability": "nonpayable",
      "type": "function"
    },
    {
      "inputs": [
        {
          "internalType": "uint256[]",
          "name": "_amount",
          "type": "uint256[]"
        },
        {
          "internalType": "address[]",
          "name": "_transferaddr",
          "type": "address[]"
        }
      ],
      "name": "transferCFXbyAmount",
      "outputs": [],
      "stateMutability": "nonpayable",
      "type": "function"
    }
  ],
  "bytecode": "0x60806040523480156200001157600080fd5b5062000032620000266200003860201b60201c565b6200004060201b60201c565b62000104565b600033905090565b60008060009054906101000a900473ffffffffffffffffffffffffffffffffffffffff169050816000806101000a81548173ffffffffffffffffffffffffffffffffffffffff021916908373ffffffffffffffffffffffffffffffffffffffff1602179055508173ffffffffffffffffffffffffffffffffffffffff168173ffffffffffffffffffffffffffffffffffffffff167f8be0079c531659141344cd1fd0a4f28419497f9722a3daafe3b4186f6b6457e060405160405180910390a35050565b61264b80620001146000396000f3fe6080604052600436106100a05760003560e01c80638129fc1c116100645780638129fc1c1461016457806384fdcfd61461017b5780638da5cb5b146101a4578063a2966532146101cf578063adaed2a2146101f8578063f2fde38b14610221576100a7565b8063095479f2146100a95780632be0b7c7146100d25780632f4d54b8146100fb5780633a74a76714610124578063715018a61461014d576100a7565b366100a757005b005b3480156100b557600080fd5b506100d060048036038101906100cb9190611b7a565b61024a565b005b3480156100de57600080fd5b506100f960048036038101906100f49190611c0f565b61030a565b005b34801561010757600080fd5b50610122600480360381019061011d9190611ba3565b6107aa565b005b34801561013057600080fd5b5061014b60048036038101906101469190611b7a565b610bbf565b005b34801561015957600080fd5b50610162610c7f565b005b34801561017057600080fd5b50610179610d07565b005b34801561018757600080fd5b506101a2600480360381019061019d9190611cb7565b610e24565b005b3480156101b057600080fd5b506101b9610eaa565b6040516101c69190611ea8565b60405180910390f35b3480156101db57600080fd5b506101f660048036038101906101f19190611c0f565b610ed3565b005b34801561020457600080fd5b5061021f600480360381019061021a9190611ba3565b61122b565b005b34801561022d57600080fd5b5061024860048036038101906102439190611b7a565b6114f8565b005b6102526115f0565b73ffffffffffffffffffffffffffffffffffffffff16610270610eaa565b73ffffffffffffffffffffffffffffffffffffffff16146102c6576040517f08c379a00000000000000000000000000000000000000000000000000000000081526004016102bd90611fac565b60405180910390fd5b80600260006101000a81548173ffffffffffffffffffffffffffffffffffffffff021916908373ffffffffffffffffffffffffffffffffffffffff16021790555050565b600160009054906101000a900473ffffffffffffffffffffffffffffffffffffffff1673ffffffffffffffffffffffffffffffffffffffff163373ffffffffffffffffffffffffffffffffffffffff161461039a576040517f08c379a000000000000000000000000000000000000000000000000000000000815260040161039190611f2c565b60405180910390fd5b610400600354146103e0576040517f08c379a00000000000000000000000000000000000000000000000000000000081526004016103d790611f6c565b60405180910390fd5b8151835114610424576040517f08c379a000000000000000000000000000000000000000000000000000000000815260040161041b9061200c565b60405180910390fd5b600083905060008060008473ffffffffffffffffffffffffffffffffffffffff166370a08231306040518263ffffffff1660e01b81526004016104679190611ea8565b60206040518083038186803b15801561047f57600080fd5b505afa158015610493573d6000803e3d6000fd5b505050506040513d601f19601f820116820180604052508101906104b79190611ce0565b905060005b8751811015610620578781815181106104fe577f4e487b7100000000000000000000000000000000000000000000000000000000600052603260045260246000fd5b60200260200101518461051191906120da565b935061057a61271061056c848b8581518110610556577f4e487b7100000000000000000000000000000000000000000000000000000000600052603260045260246000fd5b60200260200101516115f890919063ffffffff16565b61160e90919063ffffffff16565b8582815181106105b3577f4e487b7100000000000000000000000000000000000000000000000000000000600052603260045260246000fd5b6020026020010181815250508481815181106105f8577f4e487b7100000000000000000000000000000000000000000000000000000000600052603260045260246000fd5b60200260200101518361060b91906120da565b9250808061061890612268565b9150506104bc565b50612710831115610666576040517f08c379a000000000000000000000000000000000000000000000000000000000815260040161065d90611fec565b60405180910390fd5b808211156106a9576040517f08c379a00000000000000000000000000000000000000000000000000000000081526004016106a09061202c565b60405180910390fd5b60005b875181101561075357610740868883815181106106f2577f4e487b7100000000000000000000000000000000000000000000000000000000600052603260045260246000fd5b6020026020010151878481518110610733577f4e487b7100000000000000000000000000000000000000000000000000000000600052603260045260246000fd5b6020026020010151611624565b808061074b90612268565b9150506106ac565b506000828261076291906121bb565b11156107a1576107a085600260009054906101000a900473ffffffffffffffffffffffffffffffffffffffff16848461079b91906121bb565b611624565b5b50505050505050565b600160009054906101000a900473ffffffffffffffffffffffffffffffffffffffff1673ffffffffffffffffffffffffffffffffffffffff163373ffffffffffffffffffffffffffffffffffffffff161461083a576040517f08c379a000000000000000000000000000000000000000000000000000000000815260040161083190611f2c565b60405180910390fd5b61040060035414610880576040517f08c379a000000000000000000000000000000000000000000000000000000000815260040161087790611f6c565b60405180910390fd5b80518251146108c4576040517f08c379a00000000000000000000000000000000000000000000000000000000081526004016108bb9061200c565b60405180910390fd5b6000829050600080600047905060005b8651811015610a3857868181518110610916577f4e487b7100000000000000000000000000000000000000000000000000000000600052603260045260246000fd5b60200260200101518461092991906120da565b9350610992612710610984848a858151811061096e577f4e487b7100000000000000000000000000000000000000000000000000000000600052603260045260246000fd5b60200260200101516115f890919063ffffffff16565b61160e90919063ffffffff16565b8582815181106109cb577f4e487b7100000000000000000000000000000000000000000000000000000000600052603260045260246000fd5b602002602001018181525050848181518110610a10577f4e487b7100000000000000000000000000000000000000000000000000000000600052603260045260246000fd5b602002602001015183610a2391906120da565b92508080610a3090612268565b9150506108d4565b50612710831115610a7e576040517f08c379a0000000000000000000000000000000000000000000000000000000008152600401610a7590611fec565b60405180910390fd5b80821115610ac1576040517f08c379a0000000000000000000000000000000000000000000000000000000008152600401610ab89061202c565b60405180910390fd5b60005b8651811015610b6a57610b57868281518110610b09577f4e487b7100000000000000000000000000000000000000000000000000000000600052603260045260246000fd5b6020026020010151868381518110610b4a577f4e487b7100000000000000000000000000000000000000000000000000000000600052603260045260246000fd5b6020026020010151611812565b8080610b6290612268565b915050610ac4565b5060008282610b7991906121bb565b1115610bb757610bb6600260009054906101000a900473ffffffffffffffffffffffffffffffffffffffff168383610bb191906121bb565b611812565b5b505050505050565b610bc76115f0565b73ffffffffffffffffffffffffffffffffffffffff16610be5610eaa565b73ffffffffffffffffffffffffffffffffffffffff1614610c3b576040517f08c379a0000000000000000000000000000000000000000000000000000000008152600401610c3290611fac565b60405180910390fd5b80600160006101000a81548173ffffffffffffffffffffffffffffffffffffffff021916908373ffffffffffffffffffffffffffffffffffffffff16021790555050565b610c876115f0565b73ffffffffffffffffffffffffffffffffffffffff16610ca5610eaa565b73ffffffffffffffffffffffffffffffffffffffff1614610cfb576040517f08c379a0000000000000000000000000000000000000000000000000000000008152600401610cf290611fac565b60405180910390fd5b610d056000611936565b565b600060159054906101000a900460ff1680610d2f5750600060149054906101000a900460ff16155b610d6e576040517f08c379a0000000000000000000000000000000000000000000000000000000008152600401610d6590611f4c565b60405180910390fd5b60008060159054906101000a900460ff161590508015610dbf576001600060156101000a81548160ff0219169083151502179055506001600060146101000a81548160ff0219169083151502179055505b33600160006101000a81548173ffffffffffffffffffffffffffffffffffffffff021916908373ffffffffffffffffffffffffffffffffffffffff1602179055508015610e215760008060156101000a81548160ff0219169083151502179055505b50565b610e2c6115f0565b73ffffffffffffffffffffffffffffffffffffffff16610e4a610eaa565b73ffffffffffffffffffffffffffffffffffffffff1614610ea0576040517f08c379a0000000000000000000000000000000000000000000000000000000008152600401610e9790611fac565b60405180910390fd5b8060038190555050565b60008060009054906101000a900473ffffffffffffffffffffffffffffffffffffffff16905090565b600160009054906101000a900473ffffffffffffffffffffffffffffffffffffffff1673ffffffffffffffffffffffffffffffffffffffff163373ffffffffffffffffffffffffffffffffffffffff1614610f63576040517f08c379a0000000000000000000000000000000000000000000000000000000008152600401610f5a90611f2c565b60405180910390fd5b61043860035414610fa9576040517f08c379a0000000000000000000000000000000000000000000000000000000008152600401610fa090611f6c565b60405180910390fd5b8151835114610fed576040517f08c379a0000000000000000000000000000000000000000000000000000000008152600401610fe490611fcc565b60405180910390fd5b6000808273ffffffffffffffffffffffffffffffffffffffff166370a08231306040518263ffffffff1660e01b81526004016110299190611ea8565b60206040518083038186803b15801561104157600080fd5b505afa158015611055573d6000803e3d6000fd5b505050506040513d601f19601f820116820180604052508101906110799190611ce0565b905060005b85518110156110e8578581815181106110c0577f4e487b7100000000000000000000000000000000000000000000000000000000600052603260045260246000fd5b6020026020010151836110d391906120da565b925080806110e090612268565b91505061107e565b508082111561112c576040517f08c379a00000000000000000000000000000000000000000000000000000000081526004016111239061202c565b60405180910390fd5b60005b85518110156111d6576111c384868381518110611175577f4e487b7100000000000000000000000000000000000000000000000000000000600052603260045260246000fd5b60200260200101518884815181106111b6577f4e487b7100000000000000000000000000000000000000000000000000000000600052603260045260246000fd5b6020026020010151611624565b80806111ce90612268565b91505061112f565b50600082826111e591906121bb565b11156112245761122383600260009054906101000a900473ffffffffffffffffffffffffffffffffffffffff16848461121e91906121bb565b611624565b5b5050505050565b600160009054906101000a900473ffffffffffffffffffffffffffffffffffffffff1673ffffffffffffffffffffffffffffffffffffffff163373ffffffffffffffffffffffffffffffffffffffff16146112bb576040517f08c379a00000000000000000000000000000000000000000000000000000000081526004016112b290611f2c565b60405180910390fd5b61043860035414611301576040517f08c379a00000000000000000000000000000000000000000000000000000000081526004016112f890611f6c565b60405180910390fd5b8051825114611345576040517f08c379a000000000000000000000000000000000000000000000000000000000815260040161133c90611fcc565b60405180910390fd5b60008047905060005b84518110156113b857848181518110611390577f4e487b7100000000000000000000000000000000000000000000000000000000600052603260045260246000fd5b6020026020010151836113a391906120da565b925080806113b090612268565b91505061134e565b50808211156113fc576040517f08c379a00000000000000000000000000000000000000000000000000000000081526004016113f39061202c565b60405180910390fd5b60005b84518110156114a557611492848281518110611444577f4e487b7100000000000000000000000000000000000000000000000000000000600052603260045260246000fd5b6020026020010151868381518110611485577f4e487b7100000000000000000000000000000000000000000000000000000000600052603260045260246000fd5b6020026020010151611812565b808061149d90612268565b9150506113ff565b50600082826114b491906121bb565b11156114f2576114f1600260009054906101000a900473ffffffffffffffffffffffffffffffffffffffff1683836114ec91906121bb565b611812565b5b50505050565b6115006115f0565b73ffffffffffffffffffffffffffffffffffffffff1661151e610eaa565b73ffffffffffffffffffffffffffffffffffffffff1614611574576040517f08c379a000000000000000000000000000000000000000000000000000000000815260040161156b90611fac565b60405180910390fd5b600073ffffffffffffffffffffffffffffffffffffffff168173ffffffffffffffffffffffffffffffffffffffff1614156115e4576040517f08c379a00000000000000000000000000000000000000000000000000000000081526004016115db90611eec565b60405180910390fd5b6115ed81611936565b50565b600033905090565b600081836116069190612161565b905092915050565b6000818361161c9190612130565b905092915050565b600160009054906101000a900473ffffffffffffffffffffffffffffffffffffffff1673ffffffffffffffffffffffffffffffffffffffff163373ffffffffffffffffffffffffffffffffffffffff16146116b4576040517f08c379a00000000000000000000000000000000000000000000000000000000081526004016116ab90611f2c565b60405180910390fd5b808373ffffffffffffffffffffffffffffffffffffffff166370a08231306040518263ffffffff1660e01b81526004016116ee9190611ea8565b60206040518083038186803b15801561170657600080fd5b505afa15801561171a573d6000803e3d6000fd5b505050506040513d601f19601f8201168201806040525081019061173e9190611ce0565b101561177f576040517f08c379a000000000000000000000000000000000000000000000000000000000815260040161177690611f0c565b60405180910390fd5b8273ffffffffffffffffffffffffffffffffffffffff1663a9059cbb83836040518363ffffffff1660e01b81526004016117ba929190611ec3565b602060405180830381600087803b1580156117d457600080fd5b505af11580156117e8573d6000803e3d6000fd5b505050506040513d601f19601f8201168201806040525081019061180c9190611c8e565b50505050565b600160009054906101000a900473ffffffffffffffffffffffffffffffffffffffff1673ffffffffffffffffffffffffffffffffffffffff163373ffffffffffffffffffffffffffffffffffffffff16146118a2576040517f08c379a000000000000000000000000000000000000000000000000000000000815260040161189990611f2c565b60405180910390fd5b804710156118e5576040517f08c379a00000000000000000000000000000000000000000000000000000000081526004016118dc90611f8c565b60405180910390fd5b60008290508073ffffffffffffffffffffffffffffffffffffffff166108fc839081150290604051600060405180830381858888f19350505050158015611930573d6000803e3d6000fd5b50505050565b60008060009054906101000a900473ffffffffffffffffffffffffffffffffffffffff169050816000806101000a81548173ffffffffffffffffffffffffffffffffffffffff021916908373ffffffffffffffffffffffffffffffffffffffff1602179055508173ffffffffffffffffffffffffffffffffffffffff168173ffffffffffffffffffffffffffffffffffffffff167f8be0079c531659141344cd1fd0a4f28419497f9722a3daafe3b4186f6b6457e060405160405180910390a35050565b6000611a0d611a0884612071565b61204c565b90508083825260208201905082856020860282011115611a2c57600080fd5b60005b85811015611a5c5781611a428882611ad2565b845260208401935060208301925050600181019050611a2f565b5050509392505050565b6000611a79611a748461209d565b61204c565b90508083825260208201905082856020860282011115611a9857600080fd5b60005b85811015611ac85781611aae8882611b50565b845260208401935060208301925050600181019050611a9b565b5050509392505050565b600081359050611ae1816125d0565b92915050565b600082601f830112611af857600080fd5b8135611b088482602086016119fa565b91505092915050565b600082601f830112611b2257600080fd5b8135611b32848260208601611a66565b91505092915050565b600081519050611b4a816125e7565b92915050565b600081359050611b5f816125fe565b92915050565b600081519050611b74816125fe565b92915050565b600060208284031215611b8c57600080fd5b6000611b9a84828501611ad2565b91505092915050565b60008060408385031215611bb657600080fd5b600083013567ffffffffffffffff811115611bd057600080fd5b611bdc85828601611b11565b925050602083013567ffffffffffffffff811115611bf957600080fd5b611c0585828601611ae7565b9150509250929050565b600080600060608486031215611c2457600080fd5b600084013567ffffffffffffffff811115611c3e57600080fd5b611c4a86828701611b11565b935050602084013567ffffffffffffffff811115611c6757600080fd5b611c7386828701611ae7565b9250506040611c8486828701611ad2565b9150509250925092565b600060208284031215611ca057600080fd5b6000611cae84828501611b3b565b91505092915050565b600060208284031215611cc957600080fd5b6000611cd784828501611b50565b91505092915050565b600060208284031215611cf257600080fd5b6000611d0084828501611b65565b91505092915050565b611d12816121ef565b82525050565b6000611d256026836120c9565b9150611d308261234f565b604082019050919050565b6000611d486020836120c9565b9150611d538261239e565b602082019050919050565b6000611d6b6015836120c9565b9150611d76826123c7565b602082019050919050565b6000611d8e602e836120c9565b9150611d99826123f0565b604082019050919050565b6000611db1601d836120c9565b9150611dbc8261243f565b602082019050919050565b6000611dd4601e836120c9565b9150611ddf82612468565b602082019050919050565b6000611df76020836120c9565b9150611e0282612491565b602082019050919050565b6000611e1a6036836120c9565b9150611e25826124ba565b604082019050919050565b6000611e3d6020836120c9565b9150611e4882612509565b602082019050919050565b6000611e60603b836120c9565b9150611e6b82612532565b604082019050919050565b6000611e836028836120c9565b9150611e8e82612581565b604082019050919050565b611ea28161222d565b82525050565b6000602082019050611ebd6000830184611d09565b92915050565b6000604082019050611ed86000830185611d09565b611ee56020830184611e99565b9392505050565b60006020820190508181036000830152611f0581611d18565b9050919050565b60006020820190508181036000830152611f2581611d3b565b9050919050565b60006020820190508181036000830152611f4581611d5e565b9050919050565b60006020820190508181036000830152611f6581611d81565b9050919050565b60006020820190508181036000830152611f8581611da4565b9050919050565b60006020820190508181036000830152611fa581611dc7565b9050919050565b60006020820190508181036000830152611fc581611dea565b9050919050565b60006020820190508181036000830152611fe581611e0d565b9050919050565b6000602082019050818103600083015261200581611e30565b9050919050565b6000602082019050818103600083015261202581611e53565b9050919050565b6000602082019050818103600083015261204581611e76565b9050919050565b6000612056612067565b90506120628282612237565b919050565b6000604051905090565b600067ffffffffffffffff82111561208c5761208b61230f565b5b602082029050602081019050919050565b600067ffffffffffffffff8211156120b8576120b761230f565b5b602082029050602081019050919050565b600082825260208201905092915050565b60006120e58261222d565b91506120f08361222d565b9250827fffffffffffffffffffffffffffffffffffffffffffffffffffffffffffffffff03821115612125576121246122b1565b5b828201905092915050565b600061213b8261222d565b91506121468361222d565b925082612156576121556122e0565b5b828204905092915050565b600061216c8261222d565b91506121778361222d565b9250817fffffffffffffffffffffffffffffffffffffffffffffffffffffffffffffffff04831182151516156121b0576121af6122b1565b5b828202905092915050565b60006121c68261222d565b91506121d18361222d565b9250828210156121e4576121e36122b1565b5b828203905092915050565b60006121fa8261220d565b9050919050565b60008115159050919050565b600073ffffffffffffffffffffffffffffffffffffffff82169050919050565b6000819050919050565b6122408261233e565b810181811067ffffffffffffffff8211171561225f5761225e61230f565b5b80604052505050565b60006122738261222d565b91507fffffffffffffffffffffffffffffffffffffffffffffffffffffffffffffffff8214156122a6576122a56122b1565b5b600182019050919050565b7f4e487b7100000000000000000000000000000000000000000000000000000000600052601160045260246000fd5b7f4e487b7100000000000000000000000000000000000000000000000000000000600052601260045260246000fd5b7f4e487b7100000000000000000000000000000000000000000000000000000000600052604160045260246000fd5b6000601f19601f8301169050919050565b7f4f776e61626c653a206e6577206f776e657220697320746865207a65726f206160008201527f6464726573730000000000000000000000000000000000000000000000000000602082015250565b7f657863656564207468652073746f726167652045524332302062616c616e6365600082015250565b7f4f6e6c792041646d696e20697320616c6c6f7765640000000000000000000000600082015250565b7f496e697469616c697a61626c653a20636f6e747261637420697320616c72656160008201527f647920696e697469616c697a6564000000000000000000000000000000000000602082015250565b7f5265717569726573207370656369666963207065726d697373696f6e73000000600082015250565b7f657863656564207468652073746f72616765204346582062616c616e63650000600082015250565b7f4f776e61626c653a2063616c6c6572206973206e6f7420746865206f776e6572600082015250565b7f546865206e756d626572206f662061646472657373657320616e6420616d6f7560008201527f6e74206e65656420746f206265207468652073616d6500000000000000000000602082015250565b7f4e656564733a2050657263656e7461676553756d3c3d524154494f5f42415345600082015250565b7f546865206e756d626572206f662061646472657373657320616e642070726f7060008201527f6f7274696f6e73206e65656420746f206265207468652073616d650000000000602082015250565b7f4e656564733a207472616e73666572416d6f756e7453756d3c3d53746f72616760008201527f6542616c616e6365000000000000000000000000000000000000000000000000602082015250565b6125d9816121ef565b81146125e457600080fd5b50565b6125f081612201565b81146125fb57600080fd5b50565b6126078161222d565b811461261257600080fd5b5056fea26469706673582212200c2389bd5a52759a981de25af4b188c013a091fc7da6c434659aaf23a3663aa164736f6c63430008020033",
  "immutableReferences": {},
  "source": "//SPDX-License-Identifier: BUSL-1.1\r\n// Licensor:            X-Dao.\r\n// Licensed Work:       NUCLEON 1.0\r\n\r\npragma solidity ^0.8.0;\r\nimport \"@openzeppelin/contracts/token/ERC20/IERC20.sol\";\r\nimport \"@openzeppelin/contracts/access/Ownable.sol\";\r\nimport \"@openzeppelin/contracts/utils/math/SafeMath.sol\";\r\nimport \"@openzeppelin/contracts/proxy/utils/Initializable.sol\";\r\n\r\n///\r\n///  @title System Storage in Conflux eSpace\r\n///\r\ncontract systemstorage is Ownable,Initializable {\r\n  // ======================== System Definition =================================\r\n  using SafeMath for uint256;\r\n  address _adminAddress;\r\n  address _balanceAddress;\r\n  uint256 _allowance;\r\n  uint256 private constant RATIO_BASE = 10000;\r\n  // ======================== Modifiers =================================\r\n  modifier onlyAdmin() {\r\n    require(msg.sender == _adminAddress, \"Only Admin is allowed\");\r\n    _;\r\n  }\r\n   // ======================== init =================================\r\n  function initialize() public initializer {\r\n    _adminAddress = msg.sender;\r\n  }\r\n   // ======================== onlyOwner =================================\r\n  function _setAdmin(address _admin) public onlyOwner{\r\n    _adminAddress = _admin;\r\n  }\r\n  function _setbalanceAddress(address _balance) public onlyOwner{\r\n    _balanceAddress = _balance;\r\n  }\r\n  function _setallow(uint256 _allow) public onlyOwner{\r\n    _allowance = _allow;\r\n  }\r\n  // ======================== private =================================\r\n  function transferERC20(address _ERC20address,address _recipient,uint256 _amount) private onlyAdmin {\r\n    require(IERC20(_ERC20address).balanceOf(address(this))>=_amount,\"exceed the storage ERC20 balance\");\r\n    IERC20(_ERC20address).transfer( _recipient, _amount);\r\n  }\r\n\r\n  function transferCFX(address _recipient,uint256 _amount) private onlyAdmin {\r\n    require(address(this).balance>=_amount,\"exceed the storage CFX balance\");\r\n    address payable receiver = payable(_recipient); // Set receiver\r\n    receiver.transfer(_amount);\r\n  }\r\n  // ======================== public =================================\r\n  function transferERC20byPercentage(uint256[] memory _Percentage,\r\n                                     address[] memory _transferaddr,\r\n                                     address _ERC20address) public onlyAdmin {\r\n    require(_allowance==1024,\"Requires specific permissions\"); \r\n    require(_Percentage.length==_transferaddr.length,\"The number of addresses and proportions need to be the same\");\r\n    //address payable receiver; // Set receiver\r\n    uint256[] memory amountsbyPercentage = _Percentage;\r\n    uint256 PercentageSum;\r\n    uint256 transferAmountSum;\r\n    uint256 StorageBalance = IERC20(_ERC20address).balanceOf(address(this));\r\n    for(uint i=0;i<_Percentage.length;i++){\r\n        PercentageSum += _Percentage[i];\r\n        amountsbyPercentage[i] = _Percentage[i].mul(StorageBalance).div(RATIO_BASE);\r\n        transferAmountSum += amountsbyPercentage[i];\r\n    }\r\n    require(PercentageSum<=RATIO_BASE,\"Needs: PercentageSum<=RATIO_BASE\"); \r\n    require(transferAmountSum<=StorageBalance,\"Needs: transferAmountSum<=StorageBalance\"); \r\n    for(uint i=0;i<_Percentage.length;i++){\r\n        transferERC20( _ERC20address, _transferaddr[i], amountsbyPercentage[i]);\r\n    }\r\n    if(StorageBalance-transferAmountSum>0){\r\n        transferERC20( _ERC20address, _balanceAddress, StorageBalance-transferAmountSum);\r\n    }\r\n  }\r\n  function transferCFXbyPercentage(uint256[] memory _Percentage,\r\n                                   address[] memory _transferaddr) public onlyAdmin {\r\n    require(_allowance==1024,\"Requires specific permissions\"); \r\n    require(_Percentage.length==_transferaddr.length,\"The number of addresses and proportions need to be the same\");\r\n    uint256[] memory amountsbyPercentage = _Percentage;\r\n    uint256 PercentageSum;\r\n    uint256 transferAmountSum;\r\n    uint256 StorageBalance = address(this).balance;\r\n    for(uint i=0;i<_Percentage.length;i++){\r\n        PercentageSum += _Percentage[i];\r\n        amountsbyPercentage[i] = _Percentage[i].mul(StorageBalance).div(RATIO_BASE);\r\n        transferAmountSum += amountsbyPercentage[i];\r\n    }\r\n    require(PercentageSum<=RATIO_BASE,\"Needs: PercentageSum<=RATIO_BASE\"); \r\n    require(transferAmountSum<=StorageBalance,\"Needs: transferAmountSum<=StorageBalance\"); \r\n    for(uint i=0;i<_Percentage.length;i++){\r\n        transferCFX( _transferaddr[i], amountsbyPercentage[i]);\r\n    }\r\n    if(StorageBalance-transferAmountSum>0){\r\n        transferCFX( _balanceAddress, StorageBalance-transferAmountSum);\r\n    }\r\n  }\r\n  function transferERC20byAmount(uint256[] memory _amount,\r\n                                 address[] memory _transferaddr,\r\n                                 address _ERC20address) public onlyAdmin {\r\n    require(_allowance==1080,\"Requires specific permissions\"); \r\n    require(_amount.length==_transferaddr.length,\"The number of addresses and amount need to be the same\");\r\n    uint256 transferAmountSum;\r\n    uint256 StorageBalance = IERC20(_ERC20address).balanceOf(address(this));\r\n    for(uint i=0;i<_amount.length;i++){\r\n        transferAmountSum += _amount[i];\r\n    }\r\n    require(transferAmountSum<=StorageBalance,\"Needs: transferAmountSum<=StorageBalance\"); \r\n    for(uint i=0;i<_amount.length;i++){\r\n        transferERC20( _ERC20address, _transferaddr[i], _amount[i]);\r\n    }\r\n    if(StorageBalance-transferAmountSum>0){\r\n        transferERC20( _ERC20address, _balanceAddress, StorageBalance-transferAmountSum);\r\n    }\r\n  }\r\n  function transferCFXbyAmount(uint256[] memory _amount,\r\n                               address[] memory _transferaddr) public onlyAdmin {\r\n    require(_allowance==1080,\"Requires specific permissions\"); \r\n    require(_amount.length==_transferaddr.length,\"The number of addresses and amount need to be the same\");\r\n    uint256 transferAmountSum;\r\n    uint256 StorageBalance = address(this).balance;\r\n    for(uint i=0;i<_amount.length;i++){\r\n        transferAmountSum += _amount[i];\r\n    }\r\n    require(transferAmountSum<=StorageBalance,\"Needs: transferAmountSum<=StorageBalance\"); \r\n    for(uint i=0;i<_amount.length;i++){\r\n        transferCFX( _transferaddr[i], _amount[i]);\r\n    }\r\n    if(StorageBalance-transferAmountSum>0){\r\n        transferCFX( _balanceAddress, StorageBalance-transferAmountSum);\r\n    }\r\n  }\r\n\r\n  // ======================== contract base methods =====================\r\n  fallback() external payable {}\r\n  receive() external payable {}\r\n}",
  "sourcePath": "C:\\Users\\artii\\Black IDE\\espace\\contracts\\eSpace\\systemstorages.sol",
  "compiler": {
    "name": "solc",
    "version": "0.8.2+commit.661d1103.Emscripten.clang"
  },
  "schemaVersion": "3.4.3",
  "updatedAt": "2022-09-21T14:34:09.246Z",
  "devdoc": {
    "kind": "dev",
    "methods": {
      "owner()": {
        "details": "Returns the address of the current owner."
      },
      "renounceOwnership()": {
        "details": "Leaves the contract without owner. It will not be possible to call `onlyOwner` functions anymore. Can only be called by the current owner. NOTE: Renouncing ownership will leave the contract without an owner, thereby removing any functionality that is only available to the owner."
      },
      "transferOwnership(address)": {
        "details": "Transfers ownership of the contract to a new account (`newOwner`). Can only be called by the current owner."
      }
    },
    "title": "System Storage in Conflux eSpace",
    "version": 1
  },
  "userdoc": {
    "kind": "user",
    "methods": {},
    "version": 1
  }
}