{
  "contractName": "TestX",
  "abi": [
    {
      "anonymous": false,
      "inputs": [
        {
          "indexed": true,
          "internalType": "address",
          "name": "previousOwner",
          "type": "address"
        },
        {
          "indexed": true,
          "internalType": "address",
          "name": "newOwner",
          "type": "address"
        }
      ],
      "name": "OwnershipTransferred",
      "type": "event"
    },
    {
      "inputs": [],
      "name": "owner",
      "outputs": [
        {
          "internalType": "address",
          "name": "",
          "type": "address"
        }
      ],
      "stateMutability": "view",
      "type": "function"
    },
    {
      "inputs": [],
      "name": "renounceOwnership",
      "outputs": [],
      "stateMutability": "nonpayable",
      "type": "function"
    },
    {
      "inputs": [
        {
          "internalType": "address",
          "name": "newOwner",
          "type": "address"
        }
      ],
      "name": "transferOwnership",
      "outputs": [],
      "stateMutability": "nonpayable",
      "type": "function"
    },
    {
      "inputs": [],
      "name": "initialize",
      "outputs": [],
      "stateMutability": "nonpayable",
      "type": "function"
    },
    {
      "inputs": [
        {
          "internalType": "uint256",
          "name": "_num",
          "type": "uint256"
        }
      ],
      "name": "set",
      "outputs": [],
      "stateMutability": "nonpayable",
      "type": "function"
    }
  ],
  "bytecode": "0x608060405234801561001057600080fd5b5061002d61002261003260201b60201c565b61003a60201b60201c565b6100fe565b600033905090565b60008060009054906101000a900473ffffffffffffffffffffffffffffffffffffffff169050816000806101000a81548173ffffffffffffffffffffffffffffffffffffffff021916908373ffffffffffffffffffffffffffffffffffffffff1602179055508173ffffffffffffffffffffffffffffffffffffffff168173ffffffffffffffffffffffffffffffffffffffff167f8be0079c531659141344cd1fd0a4f28419497f9722a3daafe3b4186f6b6457e060405160405180910390a35050565b6107848061010d6000396000f3fe608060405234801561001057600080fd5b50600436106100575760003560e01c806360fe47b11461005c578063715018a6146100785780638129fc1c146100825780638da5cb5b1461008c578063f2fde38b146100aa575b600080fd5b610076600480360381019061007191906104f0565b6100c6565b005b61008061014c565b005b61008a6101d4565b005b6100946102b0565b6040516100a19190610591565b60405180910390f35b6100c460048036038101906100bf91906104c7565b6102d9565b005b6100ce6103d1565b73ffffffffffffffffffffffffffffffffffffffff166100ec6102b0565b73ffffffffffffffffffffffffffffffffffffffff1614610142576040517f08c379a0000000000000000000000000000000000000000000000000000000008152600401610139906105ec565b60405180910390fd5b8060018190555050565b6101546103d1565b73ffffffffffffffffffffffffffffffffffffffff166101726102b0565b73ffffffffffffffffffffffffffffffffffffffff16146101c8576040517f08c379a00000000000000000000000000000000000000000000000000000000081526004016101bf906105ec565b60405180910390fd5b6101d260006103d9565b565b600060159054906101000a900460ff16806101fc5750600060149054906101000a900460ff16155b61023b576040517f08c379a0000000000000000000000000000000000000000000000000000000008152600401610232906105cc565b60405180910390fd5b60008060159054906101000a900460ff16159050801561028c576001600060156101000a81548160ff0219169083151502179055506001600060146101000a81548160ff0219169083151502179055505b80156102ad5760008060156101000a81548160ff0219169083151502179055505b50565b60008060009054906101000a900473ffffffffffffffffffffffffffffffffffffffff16905090565b6102e16103d1565b73ffffffffffffffffffffffffffffffffffffffff166102ff6102b0565b73ffffffffffffffffffffffffffffffffffffffff1614610355576040517f08c379a000000000000000000000000000000000000000000000000000000000815260040161034c906105ec565b60405180910390fd5b600073ffffffffffffffffffffffffffffffffffffffff168173ffffffffffffffffffffffffffffffffffffffff1614156103c5576040517f08c379a00000000000000000000000000000000000000000000000000000000081526004016103bc906105ac565b60405180910390fd5b6103ce816103d9565b50565b600033905090565b60008060009054906101000a900473ffffffffffffffffffffffffffffffffffffffff169050816000806101000a81548173ffffffffffffffffffffffffffffffffffffffff021916908373ffffffffffffffffffffffffffffffffffffffff1602179055508173ffffffffffffffffffffffffffffffffffffffff168173ffffffffffffffffffffffffffffffffffffffff167f8be0079c531659141344cd1fd0a4f28419497f9722a3daafe3b4186f6b6457e060405160405180910390a35050565b6000813590506104ac81610720565b92915050565b6000813590506104c181610737565b92915050565b6000602082840312156104d957600080fd5b60006104e78482850161049d565b91505092915050565b60006020828403121561050257600080fd5b6000610510848285016104b2565b91505092915050565b6105228161061d565b82525050565b600061053560268361060c565b915061054082610659565b604082019050919050565b6000610558602e8361060c565b9150610563826106a8565b604082019050919050565b600061057b60208361060c565b9150610586826106f7565b602082019050919050565b60006020820190506105a66000830184610519565b92915050565b600060208201905081810360008301526105c581610528565b9050919050565b600060208201905081810360008301526105e58161054b565b9050919050565b600060208201905081810360008301526106058161056e565b9050919050565b600082825260208201905092915050565b60006106288261062f565b9050919050565b600073ffffffffffffffffffffffffffffffffffffffff82169050919050565b6000819050919050565b7f4f776e61626c653a206e6577206f776e657220697320746865207a65726f206160008201527f6464726573730000000000000000000000000000000000000000000000000000602082015250565b7f496e697469616c697a61626c653a20636f6e747261637420697320616c72656160008201527f647920696e697469616c697a6564000000000000000000000000000000000000602082015250565b7f4f776e61626c653a2063616c6c6572206973206e6f7420746865206f776e6572600082015250565b6107298161061d565b811461073457600080fd5b50565b6107408161064f565b811461074b57600080fd5b5056fea264697066735822122004e210827e08600ea2f1798f7bf06fdd4c619ebd4fee92fa74da3445f15368a964736f6c63430008020033",
  "immutableReferences": {},
  "source": "// contracts/GameItem.sol\r\n// SPDX-License-Identifier: MIT\r\npragma solidity ^0.8.0;\r\nimport \"@openzeppelin/contracts/proxy/utils/Initializable.sol\";\r\nimport \"@openzeppelin/contracts/access/Ownable.sol\";\r\n\r\n\r\ncontract TestX is Ownable, Initializable {\r\n    uint256 started;\r\n\r\n    function initialize() public initializer {\r\n    }\r\n\r\n    function set(uint256 _num) public onlyOwner {\r\n        started = _num;\r\n    }\r\n}",
  "sourcePath": "C:\\Users\\artii\\Black IDE\\espace\\contracts\\Untitled1.sol",
  "compiler": {
    "name": "solc",
    "version": "0.8.2+commit.661d1103.Emscripten.clang"
  },
  "schemaVersion": "3.4.3",
  "updatedAt": "2022-07-14T16:08:11.584Z",
  "devdoc": {
    "kind": "dev",
    "methods": {
      "owner()": {
        "details": "Returns the address of the current owner."
      },
      "renounceOwnership()": {
        "details": "Leaves the contract without owner. It will not be possible to call `onlyOwner` functions anymore. Can only be called by the current owner. NOTE: Renouncing ownership will leave the contract without an owner, thereby removing any functionality that is only available to the owner."
      },
      "transferOwnership(address)": {
        "details": "Transfers ownership of the contract to a new account (`newOwner`). Can only be called by the current owner."
      }
    },
    "version": 1
  },
  "userdoc": {
    "kind": "user",
    "methods": {},
    "version": 1
  }
}