{
  "contractName": "TestX",
  "abi": [
    {
      "anonymous": false,
      "inputs": [
        {
          "indexed": true,
          "internalType": "address",
          "name": "previousOwner",
          "type": "address"
        },
        {
          "indexed": true,
          "internalType": "address",
          "name": "newOwner",
          "type": "address"
        }
      ],
      "name": "OwnershipTransferred",
      "type": "event"
    },
    {
      "inputs": [],
      "name": "owner",
      "outputs": [
        {
          "internalType": "address",
          "name": "",
          "type": "address"
        }
      ],
      "stateMutability": "view",
      "type": "function"
    },
    {
      "inputs": [],
      "name": "renounceOwnership",
      "outputs": [],
      "stateMutability": "nonpayable",
      "type": "function"
    },
    {
      "inputs": [
        {
          "internalType": "address",
          "name": "newOwner",
          "type": "address"
        }
      ],
      "name": "transferOwnership",
      "outputs": [],
      "stateMutability": "nonpayable",
      "type": "function"
    },
    {
      "inputs": [],
      "name": "initialize",
      "outputs": [],
      "stateMutability": "nonpayable",
      "type": "function"
    },
    {
      "inputs": [
        {
          "internalType": "uint256",
          "name": "_num",
          "type": "uint256"
        }
      ],
      "name": "set",
      "outputs": [],
      "stateMutability": "nonpayable",
      "type": "function"
    },
    {
      "inputs": [],
      "name": "map_test",
      "outputs": [
        {
          "internalType": "address",
          "name": "",
          "type": "address"
        }
      ],
      "stateMutability": "nonpayable",
      "type": "function"
    },
    {
      "inputs": [],
      "name": "map_test2",
      "outputs": [
        {
          "internalType": "uint256",
          "name": "",
          "type": "uint256"
        }
      ],
      "stateMutability": "nonpayable",
      "type": "function"
    }
  ],
  "bytecode": "0x60806040526000600360006101000a81548173ffffffffffffffffffffffffffffffffffffffff021916908373ffffffffffffffffffffffffffffffffffffffff16021790555034801561005257600080fd5b5061006f61006461007460201b60201c565b61007c60201b60201c565b610140565b600033905090565b60008060009054906101000a900473ffffffffffffffffffffffffffffffffffffffff169050816000806101000a81548173ffffffffffffffffffffffffffffffffffffffff021916908373ffffffffffffffffffffffffffffffffffffffff1602179055508173ffffffffffffffffffffffffffffffffffffffff168173ffffffffffffffffffffffffffffffffffffffff167f8be0079c531659141344cd1fd0a4f28419497f9722a3daafe3b4186f6b6457e060405160405180910390a35050565b610a318061014f6000396000f3fe608060405234801561001057600080fd5b506004361061007d5760003560e01c80638129fc1c1161005b5780638129fc1c146100c65780638da5cb5b146100d0578063dc670118146100ee578063f2fde38b1461010c5761007d565b806360fe47b1146100825780636f2d421d1461009e578063715018a6146100bc575b600080fd5b61009c60048036038101906100979190610773565b610128565b005b6100a66101ae565b6040516100b39190610823565b60405180910390f35b6100c4610291565b005b6100ce610319565b005b6100d86103f5565b6040516100e59190610823565b60405180910390f35b6100f661041e565b604051610103919061089e565b60405180910390f35b6101266004803603810190610121919061074a565b61055c565b005b610130610654565b73ffffffffffffffffffffffffffffffffffffffff1661014e6103f5565b73ffffffffffffffffffffffffffffffffffffffff16146101a4576040517f08c379a000000000000000000000000000000000000000000000000000000000815260040161019b9061087e565b60405180910390fd5b8060018190555050565b60006101b8610654565b73ffffffffffffffffffffffffffffffffffffffff166101d66103f5565b73ffffffffffffffffffffffffffffffffffffffff161461022c576040517f08c379a00000000000000000000000000000000000000000000000000000000081526004016102239061087e565b60405180910390fd5b600260003373ffffffffffffffffffffffffffffffffffffffff1673ffffffffffffffffffffffffffffffffffffffff16815260200190815260200160002060009054906101000a900473ffffffffffffffffffffffffffffffffffffffff16905090565b610299610654565b73ffffffffffffffffffffffffffffffffffffffff166102b76103f5565b73ffffffffffffffffffffffffffffffffffffffff161461030d576040517f08c379a00000000000000000000000000000000000000000000000000000000081526004016103049061087e565b60405180910390fd5b610317600061065c565b565b600060159054906101000a900460ff16806103415750600060149054906101000a900460ff16155b610380576040517f08c379a00000000000000000000000000000000000000000000000000000000081526004016103779061085e565b60405180910390fd5b60008060159054906101000a900460ff1615905080156103d1576001600060156101000a81548160ff0219169083151502179055506001600060146101000a81548160ff0219169083151502179055505b80156103f25760008060156101000a81548160ff0219169083151502179055505b50565b60008060009054906101000a900473ffffffffffffffffffffffffffffffffffffffff16905090565b6000610428610654565b73ffffffffffffffffffffffffffffffffffffffff166104466103f5565b73ffffffffffffffffffffffffffffffffffffffff161461049c576040517f08c379a00000000000000000000000000000000000000000000000000000000081526004016104939061087e565b60405180910390fd5b600360009054906101000a900473ffffffffffffffffffffffffffffffffffffffff1673ffffffffffffffffffffffffffffffffffffffff16600260003373ffffffffffffffffffffffffffffffffffffffff1673ffffffffffffffffffffffffffffffffffffffff16815260200190815260200160002060009054906101000a900473ffffffffffffffffffffffffffffffffffffffff1673ffffffffffffffffffffffffffffffffffffffff161461055557600080fd5b6001905090565b610564610654565b73ffffffffffffffffffffffffffffffffffffffff166105826103f5565b73ffffffffffffffffffffffffffffffffffffffff16146105d8576040517f08c379a00000000000000000000000000000000000000000000000000000000081526004016105cf9061087e565b60405180910390fd5b600073ffffffffffffffffffffffffffffffffffffffff168173ffffffffffffffffffffffffffffffffffffffff161415610648576040517f08c379a000000000000000000000000000000000000000000000000000000000815260040161063f9061083e565b60405180910390fd5b6106518161065c565b50565b600033905090565b60008060009054906101000a900473ffffffffffffffffffffffffffffffffffffffff169050816000806101000a81548173ffffffffffffffffffffffffffffffffffffffff021916908373ffffffffffffffffffffffffffffffffffffffff1602179055508173ffffffffffffffffffffffffffffffffffffffff168173ffffffffffffffffffffffffffffffffffffffff167f8be0079c531659141344cd1fd0a4f28419497f9722a3daafe3b4186f6b6457e060405160405180910390a35050565b60008135905061072f816109cd565b92915050565b600081359050610744816109e4565b92915050565b60006020828403121561075c57600080fd5b600061076a84828501610720565b91505092915050565b60006020828403121561078557600080fd5b600061079384828501610735565b91505092915050565b6107a5816108ca565b82525050565b60006107b86026836108b9565b91506107c382610906565b604082019050919050565b60006107db602e836108b9565b91506107e682610955565b604082019050919050565b60006107fe6020836108b9565b9150610809826109a4565b602082019050919050565b61081d816108fc565b82525050565b6000602082019050610838600083018461079c565b92915050565b60006020820190508181036000830152610857816107ab565b9050919050565b60006020820190508181036000830152610877816107ce565b9050919050565b60006020820190508181036000830152610897816107f1565b9050919050565b60006020820190506108b36000830184610814565b92915050565b600082825260208201905092915050565b60006108d5826108dc565b9050919050565b600073ffffffffffffffffffffffffffffffffffffffff82169050919050565b6000819050919050565b7f4f776e61626c653a206e6577206f776e657220697320746865207a65726f206160008201527f6464726573730000000000000000000000000000000000000000000000000000602082015250565b7f496e697469616c697a61626c653a20636f6e747261637420697320616c72656160008201527f647920696e697469616c697a6564000000000000000000000000000000000000602082015250565b7f4f776e61626c653a2063616c6c6572206973206e6f7420746865206f776e6572600082015250565b6109d6816108ca565b81146109e157600080fd5b50565b6109ed816108fc565b81146109f857600080fd5b5056fea26469706673582212206f692ce4f0631a00448b3733bd896c649ae8a5f25bdfa0966eb3efa64a4b9ace64736f6c63430008020033",
  "immutableReferences": {},
  "source": "// contracts/GameItem.sol\r\n// SPDX-License-Identifier: MIT\r\npragma solidity ^0.8.0;\r\nimport \"@openzeppelin/contracts/proxy/utils/Initializable.sol\";\r\nimport \"@openzeppelin/contracts/access/Ownable.sol\";\r\n\r\n\r\ncontract TestX is Ownable, Initializable {\r\n    uint256 started;\r\n    mapping(address => address) contract_erc20_addr;\r\n    address zero_addr=address(0x0000000000000000000000000000000000000000);\r\n\r\n    function initialize() public initializer {\r\n    }\r\n\r\n    function set(uint256 _num) public onlyOwner {\r\n        started = _num;\r\n    }\r\n    function map_test() public onlyOwner returns(address){\r\n        return contract_erc20_addr[msg.sender];\r\n    }\r\n    function map_test2() public onlyOwner returns(uint256){\r\n        require(contract_erc20_addr[msg.sender]==zero_addr);\r\n        return 1;\r\n    }\r\n}",
  "sourcePath": "C:\\Users\\artii\\Black IDE\\espace\\contracts\\Untitled1.sol",
  "compiler": {
    "name": "solc",
    "version": "0.8.2+commit.661d1103.Emscripten.clang"
  },
  "schemaVersion": "3.4.3",
  "updatedAt": "2022-08-14T03:45:25.603Z",
  "devdoc": {
    "kind": "dev",
    "methods": {
      "owner()": {
        "details": "Returns the address of the current owner."
      },
      "renounceOwnership()": {
        "details": "Leaves the contract without owner. It will not be possible to call `onlyOwner` functions anymore. Can only be called by the current owner. NOTE: Renouncing ownership will leave the contract without an owner, thereby removing any functionality that is only available to the owner."
      },
      "transferOwnership(address)": {
        "details": "Transfers ownership of the contract to a new account (`newOwner`). Can only be called by the current owner."
      }
    },
    "version": 1
  },
  "userdoc": {
    "kind": "user",
    "methods": {},
    "version": 1
  }
}