{
  "contractName": "XCFXupgradeable",
  "abi": [
    {
      "inputs": [],
      "stateMutability": "nonpayable",
      "type": "constructor"
    },
    {
      "anonymous": false,
      "inputs": [
        {
          "indexed": true,
          "internalType": "address",
          "name": "owner",
          "type": "address"
        },
        {
          "indexed": true,
          "internalType": "address",
          "name": "spender",
          "type": "address"
        },
        {
          "indexed": false,
          "internalType": "uint256",
          "name": "value",
          "type": "uint256"
        }
      ],
      "name": "Approval",
      "type": "event"
    },
    {
      "anonymous": false,
      "inputs": [
        {
          "indexed": true,
          "internalType": "address",
          "name": "from",
          "type": "address"
        },
        {
          "indexed": true,
          "internalType": "address",
          "name": "to",
          "type": "address"
        },
        {
          "indexed": false,
          "internalType": "uint256",
          "name": "value",
          "type": "uint256"
        }
      ],
      "name": "Transfer",
      "type": "event"
    },
    {
      "inputs": [
        {
          "internalType": "address",
          "name": "owner",
          "type": "address"
        },
        {
          "internalType": "address",
          "name": "spender",
          "type": "address"
        }
      ],
      "name": "allowance",
      "outputs": [
        {
          "internalType": "uint256",
          "name": "",
          "type": "uint256"
        }
      ],
      "stateMutability": "view",
      "type": "function"
    },
    {
      "inputs": [
        {
          "internalType": "address",
          "name": "spender",
          "type": "address"
        },
        {
          "internalType": "uint256",
          "name": "amount",
          "type": "uint256"
        }
      ],
      "name": "approve",
      "outputs": [
        {
          "internalType": "bool",
          "name": "",
          "type": "bool"
        }
      ],
      "stateMutability": "nonpayable",
      "type": "function"
    },
    {
      "inputs": [
        {
          "internalType": "address",
          "name": "account",
          "type": "address"
        }
      ],
      "name": "balanceOf",
      "outputs": [
        {
          "internalType": "uint256",
          "name": "",
          "type": "uint256"
        }
      ],
      "stateMutability": "view",
      "type": "function"
    },
    {
      "inputs": [],
      "name": "decimals",
      "outputs": [
        {
          "internalType": "uint8",
          "name": "",
          "type": "uint8"
        }
      ],
      "stateMutability": "view",
      "type": "function"
    },
    {
      "inputs": [
        {
          "internalType": "address",
          "name": "spender",
          "type": "address"
        },
        {
          "internalType": "uint256",
          "name": "subtractedValue",
          "type": "uint256"
        }
      ],
      "name": "decreaseAllowance",
      "outputs": [
        {
          "internalType": "bool",
          "name": "",
          "type": "bool"
        }
      ],
      "stateMutability": "nonpayable",
      "type": "function"
    },
    {
      "inputs": [
        {
          "internalType": "address",
          "name": "spender",
          "type": "address"
        },
        {
          "internalType": "uint256",
          "name": "addedValue",
          "type": "uint256"
        }
      ],
      "name": "increaseAllowance",
      "outputs": [
        {
          "internalType": "bool",
          "name": "",
          "type": "bool"
        }
      ],
      "stateMutability": "nonpayable",
      "type": "function"
    },
    {
      "inputs": [],
      "name": "totalSupply",
      "outputs": [
        {
          "internalType": "uint256",
          "name": "",
          "type": "uint256"
        }
      ],
      "stateMutability": "view",
      "type": "function"
    },
    {
      "inputs": [
        {
          "internalType": "address",
          "name": "recipient",
          "type": "address"
        },
        {
          "internalType": "uint256",
          "name": "amount",
          "type": "uint256"
        }
      ],
      "name": "transfer",
      "outputs": [
        {
          "internalType": "bool",
          "name": "",
          "type": "bool"
        }
      ],
      "stateMutability": "nonpayable",
      "type": "function"
    },
    {
      "inputs": [
        {
          "internalType": "address",
          "name": "sender",
          "type": "address"
        },
        {
          "internalType": "address",
          "name": "recipient",
          "type": "address"
        },
        {
          "internalType": "uint256",
          "name": "amount",
          "type": "uint256"
        }
      ],
      "name": "transferFrom",
      "outputs": [
        {
          "internalType": "bool",
          "name": "",
          "type": "bool"
        }
      ],
      "stateMutability": "nonpayable",
      "type": "function"
    },
    {
      "inputs": [
        {
          "internalType": "contract ERC20",
          "name": "_token",
          "type": "address"
        }
      ],
      "name": "initialize",
      "outputs": [],
      "stateMutability": "nonpayable",
      "type": "function"
    },
    {
      "inputs": [],
      "name": "name",
      "outputs": [
        {
          "internalType": "string",
          "name": "",
          "type": "string"
        }
      ],
      "stateMutability": "view",
      "type": "function"
    },
    {
      "inputs": [],
      "name": "symbol",
      "outputs": [
        {
          "internalType": "string",
          "name": "",
          "type": "string"
        }
      ],
      "stateMutability": "view",
      "type": "function"
    },
    {
      "inputs": [
        {
          "internalType": "address",
          "name": "_minter",
          "type": "address"
        }
      ],
      "name": "addMinter",
      "outputs": [],
      "stateMutability": "nonpayable",
      "type": "function"
    },
    {
      "inputs": [
        {
          "internalType": "address",
          "name": "_minter",
          "type": "address"
        }
      ],
      "name": "removeMinter",
      "outputs": [],
      "stateMutability": "nonpayable",
      "type": "function"
    },
    {
      "inputs": [
        {
          "internalType": "address",
          "name": "_account",
          "type": "address"
        },
        {
          "internalType": "uint256",
          "name": "_value",
          "type": "uint256"
        }
      ],
      "name": "addTokens",
      "outputs": [],
      "stateMutability": "nonpayable",
      "type": "function"
    },
    {
      "inputs": [
        {
          "internalType": "address",
          "name": "_account",
          "type": "address"
        },
        {
          "internalType": "uint256",
          "name": "_value",
          "type": "uint256"
        }
      ],
      "name": "burnTokens",
      "outputs": [],
      "stateMutability": "nonpayable",
      "type": "function"
    }
  ],
  "bytecode": "0x608060405260016008556040518060400160405280600d81526020017f58204e75636c656f6e204346580000000000000000000000000000000000000081525060099080519060200190620000569291906200019a565b506040518060400160405280600481526020017f7843465800000000000000000000000000000000000000000000000000000000815250600a9080519060200190620000a49291906200019a565b50348015620000b257600080fd5b506040518060400160405280600d81526020017f58206e75636c656f6e20434658000000000000000000000000000000000000008152506040518060400160405280600481526020017f78434658000000000000000000000000000000000000000000000000000000008152508160039080519060200190620001379291906200019a565b508060049080519060200190620001509291906200019a565b50505033600660006101000a81548173ffffffffffffffffffffffffffffffffffffffff021916908373ffffffffffffffffffffffffffffffffffffffff160217905550620002af565b828054620001a8906200024a565b90600052602060002090601f016020900481019282620001cc576000855562000218565b82601f10620001e757805160ff191683800117855562000218565b8280016001018555821562000218579182015b8281111562000217578251825591602001919060010190620001fa565b5b5090506200022791906200022b565b5090565b5b80821115620002465760008160009055506001016200022c565b5090565b600060028204905060018216806200026357607f821691505b602082108114156200027a576200027962000280565b5b50919050565b7f4e487b7100000000000000000000000000000000000000000000000000000000600052602260045260246000fd5b61246980620002bf6000396000f3fe608060405234801561001057600080fd5b50600436106101005760003560e01c80636039fbdb11610097578063a457c2d711610066578063a457c2d7146102ad578063a9059cbb146102dd578063c4d66de81461030d578063dd62ed3e1461032957610100565b80636039fbdb1461022757806370a082311461024357806395d89b4114610273578063983b2d561461029157610100565b806323b872dd116100d357806323b872dd1461018d5780633092afd5146101bd578063313ce567146101d957806339509351146101f757610100565b806306fdde0314610105578063095ea7b3146101235780630d1118ce1461015357806318160ddd1461016f575b600080fd5b61010d610359565b60405161011a9190611b14565b60405180910390f35b61013d600480360381019061013891906117db565b6103eb565b60405161014a9190611af9565b60405180910390f35b61016d600480360381019061016891906117db565b610409565b005b610177610586565b6040516101849190611d56565b60405180910390f35b6101a760048036038101906101a2919061178c565b610590565b6040516101b49190611af9565b60405180910390f35b6101d760048036038101906101d29190611727565b610688565b005b6101e1610773565b6040516101ee9190611d71565b60405180910390f35b610211600480360381019061020c91906117db565b61077c565b60405161021e9190611af9565b60405180910390f35b610241600480360381019061023c91906117db565b610828565b005b61025d60048036038101906102589190611727565b61095a565b60405161026a9190611d56565b60405180910390f35b61027b6109a2565b6040516102889190611b14565b60405180910390f35b6102ab60048036038101906102a69190611727565b610a34565b005b6102c760048036038101906102c291906117db565b610b1f565b6040516102d49190611af9565b60405180910390f35b6102f760048036038101906102f291906117db565b610c0a565b6040516103049190611af9565b60405180910390f35b61032760048036038101906103229190611817565b610c28565b005b610343600480360381019061033e9190611750565b610e29565b6040516103509190611d56565b60405180910390f35b60606009805461036890611ecc565b80601f016020809104026020016040519081016040528092919081815260200182805461039490611ecc565b80156103e15780601f106103b6576101008083540402835291602001916103e1565b820191906000526020600020905b8154815290600101906020018083116103c457829003601f168201915b5050505050905090565b60006103ff6103f8610eb0565b8484610eb8565b6001905092915050565b60016008541461044e576040517f08c379a000000000000000000000000000000000000000000000000000000000815260040161044590611b96565b60405180910390fd5b6000600881905550600760003373ffffffffffffffffffffffffffffffffffffffff1673ffffffffffffffffffffffffffffffffffffffff16815260200190815260200160002060009054906101000a900460ff166104e2576040517f08c379a00000000000000000000000000000000000000000000000000000000081526004016104d990611cd6565b60405180910390fd5b60008111610525576040517f08c379a000000000000000000000000000000000000000000000000000000000815260040161051c90611c16565b60405180910390fd5b61052e8261095a565b811115610570576040517f08c379a000000000000000000000000000000000000000000000000000000000815260040161056790611b56565b60405180910390fd5b61057a8282611083565b60016008819055505050565b6000600254905090565b600061059d84848461125a565b6000600160008673ffffffffffffffffffffffffffffffffffffffff1673ffffffffffffffffffffffffffffffffffffffff16815260200190815260200160002060006105e8610eb0565b73ffffffffffffffffffffffffffffffffffffffff1673ffffffffffffffffffffffffffffffffffffffff16815260200190815260200160002054905082811015610668576040517f08c379a000000000000000000000000000000000000000000000000000000000815260040161065f90611c76565b60405180910390fd5b61067c85610674610eb0565b858403610eb8565b60019150509392505050565b600660009054906101000a900473ffffffffffffffffffffffffffffffffffffffff1673ffffffffffffffffffffffffffffffffffffffff163373ffffffffffffffffffffffffffffffffffffffff1614610718576040517f08c379a000000000000000000000000000000000000000000000000000000000815260040161070f90611c56565b60405180910390fd5b6000600760008373ffffffffffffffffffffffffffffffffffffffff1673ffffffffffffffffffffffffffffffffffffffff16815260200190815260200160002060006101000a81548160ff02191690831515021790555050565b60006012905090565b600061081e610789610eb0565b848460016000610797610eb0565b73ffffffffffffffffffffffffffffffffffffffff1673ffffffffffffffffffffffffffffffffffffffff16815260200190815260200160002060008873ffffffffffffffffffffffffffffffffffffffff1673ffffffffffffffffffffffffffffffffffffffff168152602001908152602001600020546108199190611da8565b610eb8565b6001905092915050565b60016008541461086d576040517f08c379a000000000000000000000000000000000000000000000000000000000815260040161086490611b96565b60405180910390fd5b6000600881905550600760003373ffffffffffffffffffffffffffffffffffffffff1673ffffffffffffffffffffffffffffffffffffffff16815260200190815260200160002060009054906101000a900460ff16610901576040517f08c379a00000000000000000000000000000000000000000000000000000000081526004016108f890611cd6565b60405180910390fd5b60008111610944576040517f08c379a000000000000000000000000000000000000000000000000000000000815260040161093b90611bb6565b60405180910390fd5b61094e82826114db565b60016008819055505050565b60008060008373ffffffffffffffffffffffffffffffffffffffff1673ffffffffffffffffffffffffffffffffffffffff168152602001908152602001600020549050919050565b6060600a80546109b190611ecc565b80601f01602080910402602001604051908101604052809291908181526020018280546109dd90611ecc565b8015610a2a5780601f106109ff57610100808354040283529160200191610a2a565b820191906000526020600020905b815481529060010190602001808311610a0d57829003601f168201915b5050505050905090565b600660009054906101000a900473ffffffffffffffffffffffffffffffffffffffff1673ffffffffffffffffffffffffffffffffffffffff163373ffffffffffffffffffffffffffffffffffffffff1614610ac4576040517f08c379a0000000000000000000000000000000000000000000000000000000008152600401610abb90611c56565b60405180910390fd5b6001600760008373ffffffffffffffffffffffffffffffffffffffff1673ffffffffffffffffffffffffffffffffffffffff16815260200190815260200160002060006101000a81548160ff02191690831515021790555050565b60008060016000610b2e610eb0565b73ffffffffffffffffffffffffffffffffffffffff1673ffffffffffffffffffffffffffffffffffffffff16815260200190815260200160002060008573ffffffffffffffffffffffffffffffffffffffff1673ffffffffffffffffffffffffffffffffffffffff16815260200190815260200160002054905082811015610beb576040517f08c379a0000000000000000000000000000000000000000000000000000000008152600401610be290611d16565b60405180910390fd5b610bff610bf6610eb0565b85858403610eb8565b600191505092915050565b6000610c1e610c17610eb0565b848461125a565b6001905092915050565b600560019054906101000a900460ff1680610c505750600560009054906101000a900460ff16155b610c8f576040517f08c379a0000000000000000000000000000000000000000000000000000000008152600401610c8690611c36565b60405180910390fd5b6000600560019054906101000a900460ff161590508015610ce1576001600560016101000a81548160ff0219169083151502179055506001600560006101000a81548160ff0219169083151502179055505b81600560026101000a81548173ffffffffffffffffffffffffffffffffffffffff021916908373ffffffffffffffffffffffffffffffffffffffff16021790555033600660006101000a81548173ffffffffffffffffffffffffffffffffffffffff021916908373ffffffffffffffffffffffffffffffffffffffff16021790555060016008819055506040518060400160405280600d81526020017f58206e75636c656f6e204346580000000000000000000000000000000000000081525060099080519060200190610db6929190611645565b506040518060400160405280600481526020017f7843465800000000000000000000000000000000000000000000000000000000815250600a9080519060200190610e02929190611645565b508015610e25576000600560016101000a81548160ff0219169083151502179055505b5050565b6000600160008473ffffffffffffffffffffffffffffffffffffffff1673ffffffffffffffffffffffffffffffffffffffff16815260200190815260200160002060008373ffffffffffffffffffffffffffffffffffffffff1673ffffffffffffffffffffffffffffffffffffffff16815260200190815260200160002054905092915050565b600033905090565b600073ffffffffffffffffffffffffffffffffffffffff168373ffffffffffffffffffffffffffffffffffffffff161415610f28576040517f08c379a0000000000000000000000000000000000000000000000000000000008152600401610f1f90611cf6565b60405180910390fd5b600073ffffffffffffffffffffffffffffffffffffffff168273ffffffffffffffffffffffffffffffffffffffff161415610f98576040517f08c379a0000000000000000000000000000000000000000000000000000000008152600401610f8f90611bd6565b60405180910390fd5b80600160008573ffffffffffffffffffffffffffffffffffffffff1673ffffffffffffffffffffffffffffffffffffffff16815260200190815260200160002060008473ffffffffffffffffffffffffffffffffffffffff1673ffffffffffffffffffffffffffffffffffffffff168152602001908152602001600020819055508173ffffffffffffffffffffffffffffffffffffffff168373ffffffffffffffffffffffffffffffffffffffff167f8c5be1e5ebec7d5bd14f71427d1e84f3dd0314c0f7b2291e5b200ac8c7c3b925836040516110769190611d56565b60405180910390a3505050565b600073ffffffffffffffffffffffffffffffffffffffff168273ffffffffffffffffffffffffffffffffffffffff1614156110f3576040517f08c379a00000000000000000000000000000000000000000000000000000000081526004016110ea90611c96565b60405180910390fd5b6110ff8260008361163b565b60008060008473ffffffffffffffffffffffffffffffffffffffff1673ffffffffffffffffffffffffffffffffffffffff16815260200190815260200160002054905081811015611185576040517f08c379a000000000000000000000000000000000000000000000000000000000815260040161117c90611b76565b60405180910390fd5b8181036000808573ffffffffffffffffffffffffffffffffffffffff1673ffffffffffffffffffffffffffffffffffffffff1681526020019081526020016000208190555081600260008282546111dc9190611dfe565b92505081905550600073ffffffffffffffffffffffffffffffffffffffff168373ffffffffffffffffffffffffffffffffffffffff167fddf252ad1be2c89b69c2b068fc378daa952ba7f163c4a11628f55a4df523b3ef846040516112419190611d56565b60405180910390a361125583600084611640565b505050565b600073ffffffffffffffffffffffffffffffffffffffff168373ffffffffffffffffffffffffffffffffffffffff1614156112ca576040517f08c379a00000000000000000000000000000000000000000000000000000000081526004016112c190611cb6565b60405180910390fd5b600073ffffffffffffffffffffffffffffffffffffffff168273ffffffffffffffffffffffffffffffffffffffff16141561133a576040517f08c379a000000000000000000000000000000000000000000000000000000000815260040161133190611b36565b60405180910390fd5b61134583838361163b565b60008060008573ffffffffffffffffffffffffffffffffffffffff1673ffffffffffffffffffffffffffffffffffffffff168152602001908152602001600020549050818110156113cb576040517f08c379a00000000000000000000000000000000000000000000000000000000081526004016113c290611bf6565b60405180910390fd5b8181036000808673ffffffffffffffffffffffffffffffffffffffff1673ffffffffffffffffffffffffffffffffffffffff16815260200190815260200160002081905550816000808573ffffffffffffffffffffffffffffffffffffffff1673ffffffffffffffffffffffffffffffffffffffff168152602001908152602001600020600082825461145e9190611da8565b925050819055508273ffffffffffffffffffffffffffffffffffffffff168473ffffffffffffffffffffffffffffffffffffffff167fddf252ad1be2c89b69c2b068fc378daa952ba7f163c4a11628f55a4df523b3ef846040516114c29190611d56565b60405180910390a36114d5848484611640565b50505050565b600073ffffffffffffffffffffffffffffffffffffffff168273ffffffffffffffffffffffffffffffffffffffff16141561154b576040517f08c379a000000000000000000000000000000000000000000000000000000000815260040161154290611d36565b60405180910390fd5b6115576000838361163b565b80600260008282546115699190611da8565b92505081905550806000808473ffffffffffffffffffffffffffffffffffffffff1673ffffffffffffffffffffffffffffffffffffffff16815260200190815260200160002060008282546115be9190611da8565b925050819055508173ffffffffffffffffffffffffffffffffffffffff16600073ffffffffffffffffffffffffffffffffffffffff167fddf252ad1be2c89b69c2b068fc378daa952ba7f163c4a11628f55a4df523b3ef836040516116239190611d56565b60405180910390a361163760008383611640565b5050565b505050565b505050565b82805461165190611ecc565b90600052602060002090601f01602090048101928261167357600085556116ba565b82601f1061168c57805160ff19168380011785556116ba565b828001600101855582156116ba579182015b828111156116b957825182559160200191906001019061169e565b5b5090506116c791906116cb565b5090565b5b808211156116e45760008160009055506001016116cc565b5090565b6000813590506116f7816123ee565b92915050565b60008135905061170c81612405565b92915050565b6000813590506117218161241c565b92915050565b60006020828403121561173957600080fd5b6000611747848285016116e8565b91505092915050565b6000806040838503121561176357600080fd5b6000611771858286016116e8565b9250506020611782858286016116e8565b9150509250929050565b6000806000606084860312156117a157600080fd5b60006117af868287016116e8565b93505060206117c0868287016116e8565b92505060406117d186828701611712565b9150509250925092565b600080604083850312156117ee57600080fd5b60006117fc858286016116e8565b925050602061180d85828601611712565b9150509250929050565b60006020828403121561182957600080fd5b6000611837848285016116fd565b91505092915050565b61184981611e44565b82525050565b600061185a82611d8c565b6118648185611d97565b9350611874818560208601611e99565b61187d81611f5c565b840191505092915050565b6000611895602383611d97565b91506118a082611f6d565b604082019050919050565b60006118b8601683611d97565b91506118c382611fbc565b602082019050919050565b60006118db602283611d97565b91506118e682611fe5565b604082019050919050565b60006118fe601a83611d97565b915061190982612034565b602082019050919050565b6000611921600b83611d97565b915061192c8261205d565b602082019050919050565b6000611944602283611d97565b915061194f82612086565b604082019050919050565b6000611967602683611d97565b9150611972826120d5565b604082019050919050565b600061198a600c83611d97565b915061199582612124565b602082019050919050565b60006119ad602e83611d97565b91506119b88261214d565b604082019050919050565b60006119d0603883611d97565b91506119db8261219c565b604082019050919050565b60006119f3602883611d97565b91506119fe826121eb565b604082019050919050565b6000611a16602183611d97565b9150611a218261223a565b604082019050919050565b6000611a39602583611d97565b9150611a4482612289565b604082019050919050565b6000611a5c603983611d97565b9150611a67826122d8565b604082019050919050565b6000611a7f602483611d97565b9150611a8a82612327565b604082019050919050565b6000611aa2602583611d97565b9150611aad82612376565b604082019050919050565b6000611ac5601f83611d97565b9150611ad0826123c5565b602082019050919050565b611ae481611e82565b82525050565b611af381611e8c565b82525050565b6000602082019050611b0e6000830184611840565b92915050565b60006020820190508181036000830152611b2e818461184f565b905092915050565b60006020820190508181036000830152611b4f81611888565b9050919050565b60006020820190508181036000830152611b6f816118ab565b9050919050565b60006020820190508181036000830152611b8f816118ce565b9050919050565b60006020820190508181036000830152611baf816118f1565b9050919050565b60006020820190508181036000830152611bcf81611914565b9050919050565b60006020820190508181036000830152611bef81611937565b9050919050565b60006020820190508181036000830152611c0f8161195a565b9050919050565b60006020820190508181036000830152611c2f8161197d565b9050919050565b60006020820190508181036000830152611c4f816119a0565b9050919050565b60006020820190508181036000830152611c6f816119c3565b9050919050565b60006020820190508181036000830152611c8f816119e6565b9050919050565b60006020820190508181036000830152611caf81611a09565b9050919050565b60006020820190508181036000830152611ccf81611a2c565b9050919050565b60006020820190508181036000830152611cef81611a4f565b9050919050565b60006020820190508181036000830152611d0f81611a72565b9050919050565b60006020820190508181036000830152611d2f81611a95565b9050919050565b60006020820190508181036000830152611d4f81611ab8565b9050919050565b6000602082019050611d6b6000830184611adb565b92915050565b6000602082019050611d866000830184611aea565b92915050565b600081519050919050565b600082825260208201905092915050565b6000611db382611e82565b9150611dbe83611e82565b9250827fffffffffffffffffffffffffffffffffffffffffffffffffffffffffffffffff03821115611df357611df2611efe565b5b828201905092915050565b6000611e0982611e82565b9150611e1483611e82565b925082821015611e2757611e26611efe565b5b828203905092915050565b6000611e3d82611e62565b9050919050565b60008115159050919050565b6000611e5b82611e32565b9050919050565b600073ffffffffffffffffffffffffffffffffffffffff82169050919050565b6000819050919050565b600060ff82169050919050565b60005b83811015611eb7578082015181840152602081019050611e9c565b83811115611ec6576000848401525b50505050565b60006002820490506001821680611ee457607f821691505b60208210811415611ef857611ef7611f2d565b5b50919050565b7f4e487b7100000000000000000000000000000000000000000000000000000000600052601160045260246000fd5b7f4e487b7100000000000000000000000000000000000000000000000000000000600052602260045260246000fd5b6000601f19601f8301169050919050565b7f45524332303a207472616e7366657220746f20746865207a65726f206164647260008201527f6573730000000000000000000000000000000000000000000000000000000000602082015250565b7f4d757374203c206163636f756e742062616c616e636500000000000000000000600082015250565b7f45524332303a206275726e20616d6f756e7420657863656564732062616c616e60008201527f6365000000000000000000000000000000000000000000000000000000000000602082015250565b7f74656d70206c6f636b65642c20776169742061206d6f6d656e74000000000000600082015250565b7f436f6e2774206164642030000000000000000000000000000000000000000000600082015250565b7f45524332303a20617070726f766520746f20746865207a65726f20616464726560008201527f7373000000000000000000000000000000000000000000000000000000000000602082015250565b7f45524332303a207472616e7366657220616d6f756e742065786365656473206260008201527f616c616e63650000000000000000000000000000000000000000000000000000602082015250565b7f436f6e2774206275726e20300000000000000000000000000000000000000000600082015250565b7f496e697469616c697a61626c653a20636f6e747261637420697320616c72656160008201527f647920696e697469616c697a6564000000000000000000000000000000000000602082015250565b7f4f776e657220526f6c653a2063616c6c657220646f6573206e6f74206861766560008201527f20746865204f776e657220726f6c65206f722061626f76650000000000000000602082015250565b7f45524332303a207472616e7366657220616d6f756e742065786365656473206160008201527f6c6c6f77616e6365000000000000000000000000000000000000000000000000602082015250565b7f45524332303a206275726e2066726f6d20746865207a65726f2061646472657360008201527f7300000000000000000000000000000000000000000000000000000000000000602082015250565b7f45524332303a207472616e736665722066726f6d20746865207a65726f20616460008201527f6472657373000000000000000000000000000000000000000000000000000000602082015250565b7f4d696e746572526f6c653a2063616c6c657220646f6573206e6f74206861766560008201527f20746865204d696e74657220726f6c65206f722061626f766500000000000000602082015250565b7f45524332303a20617070726f76652066726f6d20746865207a65726f2061646460008201527f7265737300000000000000000000000000000000000000000000000000000000602082015250565b7f45524332303a2064656372656173656420616c6c6f77616e63652062656c6f7760008201527f207a65726f000000000000000000000000000000000000000000000000000000602082015250565b7f45524332303a206d696e7420746f20746865207a65726f206164647265737300600082015250565b6123f781611e32565b811461240257600080fd5b50565b61240e81611e50565b811461241957600080fd5b50565b61242581611e82565b811461243057600080fd5b5056fea26469706673582212208aa711af4793baff2a5d43353c9fa8e97e94c96734b618c2cc76286f76fd140d64736f6c63430008020033",
  "immutableReferences": {},
  "source": "//SPDX-License-Identifier: BUSL-1.1\r\n// Licensor:            X-Dao.\r\n// Licensed Work:       NUCLEON 1.0\r\n\r\npragma solidity ^0.8.0;\r\nimport \"@openzeppelin/contracts/proxy/utils/Initializable.sol\";\r\nimport \"@openzeppelin/contracts/token/ERC20/ERC20.sol\";\r\n\r\ncontract XCFXupgradeable is ERC20, Initializable {\r\n    // ======================== configs =========================\r\n    ERC20 token;\r\n    address owner;\r\n    mapping(address=>bool) mainMinter;\r\n    uint256 unlocked=1;\r\n    string  _name = \"X Nucleon CFX\";\r\n    string  _symbol = \"xCFX\";\r\n    // ======================== Methods =========================\r\n    modifier onlyMinter() {\r\n        require(mainMinter[msg.sender], \"MinterRole: caller does not have the Minter role or above\");\r\n        _;\r\n    }\r\n    modifier onlyOwner() {\r\n        require(msg.sender==owner, \"Owner Role: caller does not have the Owner role or above\");\r\n        _;\r\n    }\r\n    modifier lock() {\r\n        require(unlocked==1, \"temp locked, wait a moment\");\r\n        unlocked = 0;\r\n        _;\r\n        unlocked = 1;\r\n    }\r\n    // ======================== constructor =========================\r\n    constructor() ERC20(\"X nucleon CFX\", \"xCFX\") {\r\n        owner = msg.sender;\r\n    }\r\n    function initialize(ERC20 _token) public initializer {\r\n        token = _token;\r\n        owner = msg.sender;\r\n        unlocked = 1;\r\n        _name = \"X nucleon CFX\";\r\n        _symbol = \"xCFX\";\r\n    }\r\n    /**\r\n     * @dev Returns the name of the token.\r\n     */\r\n    function name() public view virtual override returns (string memory) {\r\n        return _name;\r\n    }\r\n\r\n    /**\r\n     * @dev Returns the symbol of the token, usually a shorter version of the\r\n     * name.\r\n     */\r\n    function symbol() public view virtual override returns (string memory) {\r\n        return _symbol;\r\n    }\r\n\r\n    // ======================== Owner function =========================\r\n    function addMinter(address _minter) public onlyOwner(){\r\n        mainMinter[_minter] = true;\r\n    }\r\n    function removeMinter(address _minter) public onlyOwner(){\r\n        mainMinter[_minter] = false;\r\n    }\r\n    // ======================== Minter function =========================\r\n    function addTokens(address _account, uint256 _value) external lock onlyMinter(){\r\n        require(_value>0,\"Con't add 0\");\r\n        //require( isContract(msg.sender) ,\"msg.sender must be a contract\");\r\n        _mint(_account, _value);\r\n    }\r\n    function burnTokens(address _account, uint256 _value) external lock onlyMinter(){\r\n        require(_value > 0,\"Con't burn 0\");\r\n        require(_value <= balanceOf(_account),\"Must < account balance\");\r\n        //require( isContract(msg.sender) ,\"msg.sender must be a contract\");\r\n        _burn(_account, _value);\r\n    }\r\n    // ======================== require need function =========================\r\n    function isContract(address account) internal view returns (bool) {\r\n        // This method relies on extcodesize/address.code.length, which returns 0\r\n        // for contracts in construction, since the code is only stored at the end\r\n        // of the constructor execution.\r\n        return account.code.length > 0;\r\n    }\r\n    \r\n\r\n}\r\n\r\n",
  "sourcePath": "C:\\Users\\artii\\Black IDE\\espace\\contracts\\XCFXupgradeable.sol",
  "compiler": {
    "name": "solc",
    "version": "0.8.2+commit.661d1103.Emscripten.clang"
  },
  "schemaVersion": "3.4.3",
  "updatedAt": "2022-09-21T14:34:09.085Z",
  "devdoc": {
    "kind": "dev",
    "methods": {
      "allowance(address,address)": {
        "details": "See {IERC20-allowance}."
      },
      "approve(address,uint256)": {
        "details": "See {IERC20-approve}. Requirements: - `spender` cannot be the zero address."
      },
      "balanceOf(address)": {
        "details": "See {IERC20-balanceOf}."
      },
      "decimals()": {
        "details": "Returns the number of decimals used to get its user representation. For example, if `decimals` equals `2`, a balance of `505` tokens should be displayed to a user as `5,05` (`505 / 10 ** 2`). Tokens usually opt for a value of 18, imitating the relationship between Ether and Wei. This is the value {ERC20} uses, unless this function is overridden; NOTE: This information is only used for _display_ purposes: it in no way affects any of the arithmetic of the contract, including {IERC20-balanceOf} and {IERC20-transfer}."
      },
      "decreaseAllowance(address,uint256)": {
        "details": "Atomically decreases the allowance granted to `spender` by the caller. This is an alternative to {approve} that can be used as a mitigation for problems described in {IERC20-approve}. Emits an {Approval} event indicating the updated allowance. Requirements: - `spender` cannot be the zero address. - `spender` must have allowance for the caller of at least `subtractedValue`."
      },
      "increaseAllowance(address,uint256)": {
        "details": "Atomically increases the allowance granted to `spender` by the caller. This is an alternative to {approve} that can be used as a mitigation for problems described in {IERC20-approve}. Emits an {Approval} event indicating the updated allowance. Requirements: - `spender` cannot be the zero address."
      },
      "name()": {
        "details": "Returns the name of the token."
      },
      "symbol()": {
        "details": "Returns the symbol of the token, usually a shorter version of the name."
      },
      "totalSupply()": {
        "details": "See {IERC20-totalSupply}."
      },
      "transfer(address,uint256)": {
        "details": "See {IERC20-transfer}. Requirements: - `recipient` cannot be the zero address. - the caller must have a balance of at least `amount`."
      },
      "transferFrom(address,address,uint256)": {
        "details": "See {IERC20-transferFrom}. Emits an {Approval} event indicating the updated allowance. This is not required by the EIP. See the note at the beginning of {ERC20}. Requirements: - `sender` and `recipient` cannot be the zero address. - `sender` must have a balance of at least `amount`. - the caller must have allowance for ``sender``'s tokens of at least `amount`."
      }
    },
    "version": 1
  },
  "userdoc": {
    "kind": "user",
    "methods": {},
    "version": 1
  }
}