{
  "contractName": "XCFX",
  "abi": [
    {
      "inputs": [
        {
          "internalType": "uint256",
          "name": "initialSupply",
          "type": "uint256"
        }
      ],
      "stateMutability": "nonpayable",
      "type": "constructor"
    },
    {
      "anonymous": false,
      "inputs": [
        {
          "indexed": true,
          "internalType": "address",
          "name": "owner",
          "type": "address"
        },
        {
          "indexed": true,
          "internalType": "address",
          "name": "spender",
          "type": "address"
        },
        {
          "indexed": false,
          "internalType": "uint256",
          "name": "value",
          "type": "uint256"
        }
      ],
      "name": "Approval",
      "type": "event"
    },
    {
      "anonymous": false,
      "inputs": [
        {
          "indexed": true,
          "internalType": "address",
          "name": "from",
          "type": "address"
        },
        {
          "indexed": true,
          "internalType": "address",
          "name": "to",
          "type": "address"
        },
        {
          "indexed": false,
          "internalType": "uint256",
          "name": "value",
          "type": "uint256"
        }
      ],
      "name": "Transfer",
      "type": "event"
    },
    {
      "inputs": [
        {
          "internalType": "address",
          "name": "owner",
          "type": "address"
        },
        {
          "internalType": "address",
          "name": "spender",
          "type": "address"
        }
      ],
      "name": "allowance",
      "outputs": [
        {
          "internalType": "uint256",
          "name": "",
          "type": "uint256"
        }
      ],
      "stateMutability": "view",
      "type": "function"
    },
    {
      "inputs": [
        {
          "internalType": "address",
          "name": "spender",
          "type": "address"
        },
        {
          "internalType": "uint256",
          "name": "amount",
          "type": "uint256"
        }
      ],
      "name": "approve",
      "outputs": [
        {
          "internalType": "bool",
          "name": "",
          "type": "bool"
        }
      ],
      "stateMutability": "nonpayable",
      "type": "function"
    },
    {
      "inputs": [
        {
          "internalType": "address",
          "name": "account",
          "type": "address"
        }
      ],
      "name": "balanceOf",
      "outputs": [
        {
          "internalType": "uint256",
          "name": "",
          "type": "uint256"
        }
      ],
      "stateMutability": "view",
      "type": "function"
    },
    {
      "inputs": [],
      "name": "decimals",
      "outputs": [
        {
          "internalType": "uint8",
          "name": "",
          "type": "uint8"
        }
      ],
      "stateMutability": "view",
      "type": "function"
    },
    {
      "inputs": [
        {
          "internalType": "address",
          "name": "spender",
          "type": "address"
        },
        {
          "internalType": "uint256",
          "name": "subtractedValue",
          "type": "uint256"
        }
      ],
      "name": "decreaseAllowance",
      "outputs": [
        {
          "internalType": "bool",
          "name": "",
          "type": "bool"
        }
      ],
      "stateMutability": "nonpayable",
      "type": "function"
    },
    {
      "inputs": [
        {
          "internalType": "address",
          "name": "spender",
          "type": "address"
        },
        {
          "internalType": "uint256",
          "name": "addedValue",
          "type": "uint256"
        }
      ],
      "name": "increaseAllowance",
      "outputs": [
        {
          "internalType": "bool",
          "name": "",
          "type": "bool"
        }
      ],
      "stateMutability": "nonpayable",
      "type": "function"
    },
    {
      "inputs": [],
      "name": "name",
      "outputs": [
        {
          "internalType": "string",
          "name": "",
          "type": "string"
        }
      ],
      "stateMutability": "view",
      "type": "function"
    },
    {
      "inputs": [],
      "name": "symbol",
      "outputs": [
        {
          "internalType": "string",
          "name": "",
          "type": "string"
        }
      ],
      "stateMutability": "view",
      "type": "function"
    },
    {
      "inputs": [],
      "name": "totalSupply",
      "outputs": [
        {
          "internalType": "uint256",
          "name": "",
          "type": "uint256"
        }
      ],
      "stateMutability": "view",
      "type": "function"
    },
    {
      "inputs": [
        {
          "internalType": "address",
          "name": "_minter",
          "type": "address"
        }
      ],
      "name": "addMinter",
      "outputs": [],
      "stateMutability": "nonpayable",
      "type": "function"
    },
    {
      "inputs": [
        {
          "internalType": "address",
          "name": "_minter",
          "type": "address"
        }
      ],
      "name": "removeMinter",
      "outputs": [],
      "stateMutability": "nonpayable",
      "type": "function"
    },
    {
      "inputs": [
        {
          "internalType": "address",
          "name": "_POSPool",
          "type": "address"
        }
      ],
      "name": "Set_POSPoolAddr",
      "outputs": [],
      "stateMutability": "nonpayable",
      "type": "function"
    },
    {
      "inputs": [
        {
          "internalType": "address",
          "name": "recipient",
          "type": "address"
        },
        {
          "internalType": "uint256",
          "name": "amount",
          "type": "uint256"
        }
      ],
      "name": "transfer",
      "outputs": [
        {
          "internalType": "bool",
          "name": "",
          "type": "bool"
        }
      ],
      "stateMutability": "nonpayable",
      "type": "function"
    },
    {
      "inputs": [
        {
          "internalType": "address",
          "name": "sender",
          "type": "address"
        },
        {
          "internalType": "address",
          "name": "recipient",
          "type": "address"
        },
        {
          "internalType": "uint256",
          "name": "amount",
          "type": "uint256"
        }
      ],
      "name": "transferFrom",
      "outputs": [
        {
          "internalType": "bool",
          "name": "",
          "type": "bool"
        }
      ],
      "stateMutability": "nonpayable",
      "type": "function"
    },
    {
      "inputs": [
        {
          "internalType": "address",
          "name": "_to",
          "type": "address"
        },
        {
          "internalType": "uint256",
          "name": "_value",
          "type": "uint256"
        }
      ],
      "name": "addTokens",
      "outputs": [],
      "stateMutability": "nonpayable",
      "type": "function"
    },
    {
      "inputs": [
        {
          "internalType": "uint256",
          "name": "_value",
          "type": "uint256"
        }
      ],
      "name": "burnTokenself",
      "outputs": [],
      "stateMutability": "nonpayable",
      "type": "function"
    },
    {
      "inputs": [
        {
          "internalType": "address",
          "name": "_account",
          "type": "address"
        },
        {
          "internalType": "uint256",
          "name": "_value",
          "type": "uint256"
        }
      ],
      "name": "burnTokens",
      "outputs": [],
      "stateMutability": "nonpayable",
      "type": "function"
    }
  ],
  "bytecode": "0x60806040526001600c553480156200001657600080fd5b50604051620029b7380380620029b783398181016040528101906200003c919062000380565b6040518060400160405280600b81526020017f586573706163652d4346580000000000000000000000000000000000000000008152506040518060400160405280600481526020017f58434658000000000000000000000000000000000000000000000000000000008152508160039080519060200190620000c0929190620002b9565b508060049080519060200190620000d9929190620002b9565b50505033600560006101000a81548173ffffffffffffffffffffffffffffffffffffffff021916908373ffffffffffffffffffffffffffffffffffffffff1602179055506200012f33826200013660201b60201c565b5062000572565b600073ffffffffffffffffffffffffffffffffffffffff168273ffffffffffffffffffffffffffffffffffffffff161415620001a9576040517f08c379a0000000000000000000000000000000000000000000000000000000008152600401620001a090620003e4565b60405180910390fd5b620001bd60008383620002af60201b60201c565b8060026000828254620001d1919062000434565b92505081905550806000808473ffffffffffffffffffffffffffffffffffffffff1673ffffffffffffffffffffffffffffffffffffffff168152602001908152602001600020600082825462000228919062000434565b925050819055508173ffffffffffffffffffffffffffffffffffffffff16600073ffffffffffffffffffffffffffffffffffffffff167fddf252ad1be2c89b69c2b068fc378daa952ba7f163c4a11628f55a4df523b3ef836040516200028f919062000406565b60405180910390a3620002ab60008383620002b460201b60201c565b5050565b505050565b505050565b828054620002c7906200049b565b90600052602060002090601f016020900481019282620002eb576000855562000337565b82601f106200030657805160ff191683800117855562000337565b8280016001018555821562000337579182015b828111156200033657825182559160200191906001019062000319565b5b5090506200034691906200034a565b5090565b5b80821115620003655760008160009055506001016200034b565b5090565b6000815190506200037a8162000558565b92915050565b6000602082840312156200039357600080fd5b6000620003a38482850162000369565b91505092915050565b6000620003bb601f8362000423565b9150620003c8826200052f565b602082019050919050565b620003de8162000491565b82525050565b60006020820190508181036000830152620003ff81620003ac565b9050919050565b60006020820190506200041d6000830184620003d3565b92915050565b600082825260208201905092915050565b6000620004418262000491565b91506200044e8362000491565b9250827fffffffffffffffffffffffffffffffffffffffffffffffffffffffffffffffff03821115620004865762000485620004d1565b5b828201905092915050565b6000819050919050565b60006002820490506001821680620004b457607f821691505b60208210811415620004cb57620004ca62000500565b5b50919050565b7f4e487b7100000000000000000000000000000000000000000000000000000000600052601160045260246000fd5b7f4e487b7100000000000000000000000000000000000000000000000000000000600052602260045260246000fd5b7f45524332303a206d696e7420746f20746865207a65726f206164647265737300600082015250565b620005638162000491565b81146200056f57600080fd5b50565b61243580620005826000396000f3fe608060405234801561001057600080fd5b506004361061010b5760003560e01c806356ca83a6116100a2578063983b2d5611610071578063983b2d56146102b8578063a457c2d7146102d4578063a9059cbb14610304578063dd22e8d514610334578063dd62ed3e146103505761010b565b806356ca83a6146102325780636039fbdb1461024e57806370a082311461026a57806395d89b411461029a5761010b565b806323b872dd116100de57806323b872dd146101985780633092afd5146101c8578063313ce567146101e457806339509351146102025761010b565b806306fdde0314610110578063095ea7b31461012e5780630d1118ce1461015e57806318160ddd1461017a575b600080fd5b610118610380565b6040516101259190611bc1565b60405180910390f35b61014860048036038101906101439190611896565b610412565b6040516101559190611ba6565b60405180910390f35b61017860048036038101906101739190611896565b610430565b005b6101826105ff565b60405161018f9190611dc3565b60405180910390f35b6101b260048036038101906101ad9190611847565b610609565b6040516101bf9190611ba6565b60405180910390f35b6101e260048036038101906101dd91906117e2565b61071d565b005b6101ec610808565b6040516101f99190611dde565b60405180910390f35b61021c60048036038101906102179190611896565b610811565b6040516102299190611ba6565b60405180910390f35b61024c600480360381019061024791906118d2565b6108bd565b005b61026860048036038101906102639190611896565b6109ff565b005b610284600480360381019061027f91906117e2565b610b6b565b6040516102919190611dc3565b60405180910390f35b6102a2610bb3565b6040516102af9190611bc1565b60405180910390f35b6102d260048036038101906102cd91906117e2565b610c45565b005b6102ee60048036038101906102e99190611896565b610d30565b6040516102fb9190611ba6565b60405180910390f35b61031e60048036038101906103199190611896565b610e1b565b60405161032b9190611ba6565b60405180910390f35b61034e600480360381019061034991906117e2565b610ec8565b005b61036a6004803603810190610365919061180b565b610f9c565b6040516103779190611dc3565b60405180910390f35b60606003805461038f90611f27565b80601f01602080910402602001604051908101604052809291908181526020018280546103bb90611f27565b80156104085780601f106103dd57610100808354040283529160200191610408565b820191906000526020600020905b8154815290600101906020018083116103eb57829003601f168201915b5050505050905090565b600061042661041f611023565b848461102b565b6001905092915050565b6001600c5414610475576040517f08c379a000000000000000000000000000000000000000000000000000000000815260040161046c90611c23565b60405180910390fd5b6000600c81905550600b60003373ffffffffffffffffffffffffffffffffffffffff1673ffffffffffffffffffffffffffffffffffffffff16815260200190815260200160002060009054906101000a900460ff16610509576040517f08c379a000000000000000000000000000000000000000000000000000000000815260040161050090611d43565b60405180910390fd5b6000811161054c576040517f08c379a000000000000000000000000000000000000000000000000000000000815260040161054390611ca3565b60405180910390fd5b600061055783610b6b565b905061056383836111f6565b600a60009054906101000a900473ffffffffffffffffffffffffffffffffffffffff1673ffffffffffffffffffffffffffffffffffffffff1663de5d8c3984856040518363ffffffff1660e01b81526004016105c0929190611b7d565b600060405180830381600087803b1580156105da57600080fd5b505af11580156105ee573d6000803e3d6000fd5b50505050506001600c819055505050565b6000600254905090565b60006106168484846113cd565b600a60009054906101000a900473ffffffffffffffffffffffffffffffffffffffff1673ffffffffffffffffffffffffffffffffffffffff1663de5d8c3985856040518363ffffffff1660e01b8152600401610673929190611b7d565b600060405180830381600087803b15801561068d57600080fd5b505af11580156106a1573d6000803e3d6000fd5b5050505060006106b8856106b3611023565b610f9c565b9050828110156106fd576040517f08c379a00000000000000000000000000000000000000000000000000000000081526004016106f490611ce3565b60405180910390fd5b61071185610709611023565b85840361102b565b60019150509392505050565b600560009054906101000a900473ffffffffffffffffffffffffffffffffffffffff1673ffffffffffffffffffffffffffffffffffffffff163373ffffffffffffffffffffffffffffffffffffffff16146107ad576040517f08c379a00000000000000000000000000000000000000000000000000000000081526004016107a490611cc3565b60405180910390fd5b6000600b60008373ffffffffffffffffffffffffffffffffffffffff1673ffffffffffffffffffffffffffffffffffffffff16815260200190815260200160002060006101000a81548160ff02191690831515021790555050565b60006012905090565b60006108b361081e611023565b84846001600061082c611023565b73ffffffffffffffffffffffffffffffffffffffff1673ffffffffffffffffffffffffffffffffffffffff16815260200190815260200160002060008873ffffffffffffffffffffffffffffffffffffffff1673ffffffffffffffffffffffffffffffffffffffff168152602001908152602001600020546108ae9190611e15565b61102b565b6001905092915050565b6001600c5414610902576040517f08c379a00000000000000000000000000000000000000000000000000000000081526004016108f990611c23565b60405180910390fd5b6000600c819055506000811161094d576040517f08c379a000000000000000000000000000000000000000000000000000000000815260040161094490611ca3565b60405180910390fd5b600061095833610b6b565b905061096433836111f6565b600a60009054906101000a900473ffffffffffffffffffffffffffffffffffffffff1673ffffffffffffffffffffffffffffffffffffffff1663de5d8c3933336040518363ffffffff1660e01b81526004016109c1929190611b7d565b600060405180830381600087803b1580156109db57600080fd5b505af11580156109ef573d6000803e3d6000fd5b50505050506001600c8190555050565b600b60003373ffffffffffffffffffffffffffffffffffffffff1673ffffffffffffffffffffffffffffffffffffffff16815260200190815260200160002060009054906101000a900460ff16610a8b576040517f08c379a0000000000000000000000000000000000000000000000000000000008152600401610a8290611d43565b60405180910390fd5b60008111610ace576040517f08c379a0000000000000000000000000000000000000000000000000000000008152600401610ac590611c43565b60405180910390fd5b610ad8828261164e565b600a60009054906101000a900473ffffffffffffffffffffffffffffffffffffffff1673ffffffffffffffffffffffffffffffffffffffff1663de5d8c3983846040518363ffffffff1660e01b8152600401610b35929190611b7d565b600060405180830381600087803b158015610b4f57600080fd5b505af1158015610b63573d6000803e3d6000fd5b505050505050565b60008060008373ffffffffffffffffffffffffffffffffffffffff1673ffffffffffffffffffffffffffffffffffffffff168152602001908152602001600020549050919050565b606060048054610bc290611f27565b80601f0160208091040260200160405190810160405280929190818152602001828054610bee90611f27565b8015610c3b5780601f10610c1057610100808354040283529160200191610c3b565b820191906000526020600020905b815481529060010190602001808311610c1e57829003601f168201915b5050505050905090565b600560009054906101000a900473ffffffffffffffffffffffffffffffffffffffff1673ffffffffffffffffffffffffffffffffffffffff163373ffffffffffffffffffffffffffffffffffffffff1614610cd5576040517f08c379a0000000000000000000000000000000000000000000000000000000008152600401610ccc90611cc3565b60405180910390fd5b6001600b60008373ffffffffffffffffffffffffffffffffffffffff1673ffffffffffffffffffffffffffffffffffffffff16815260200190815260200160002060006101000a81548160ff02191690831515021790555050565b60008060016000610d3f611023565b73ffffffffffffffffffffffffffffffffffffffff1673ffffffffffffffffffffffffffffffffffffffff16815260200190815260200160002060008573ffffffffffffffffffffffffffffffffffffffff1673ffffffffffffffffffffffffffffffffffffffff16815260200190815260200160002054905082811015610dfc576040517f08c379a0000000000000000000000000000000000000000000000000000000008152600401610df390611d83565b60405180910390fd5b610e10610e07611023565b8585840361102b565b600191505092915050565b6000610e2f610e28611023565b84846113cd565b600a60009054906101000a900473ffffffffffffffffffffffffffffffffffffffff1673ffffffffffffffffffffffffffffffffffffffff1663de5d8c3933856040518363ffffffff1660e01b8152600401610e8c929190611b7d565b600060405180830381600087803b158015610ea657600080fd5b505af1158015610eba573d6000803e3d6000fd5b505050506001905092915050565b600560009054906101000a900473ffffffffffffffffffffffffffffffffffffffff1673ffffffffffffffffffffffffffffffffffffffff163373ffffffffffffffffffffffffffffffffffffffff1614610f58576040517f08c379a0000000000000000000000000000000000000000000000000000000008152600401610f4f90611cc3565b60405180910390fd5b80600a60006101000a81548173ffffffffffffffffffffffffffffffffffffffff021916908373ffffffffffffffffffffffffffffffffffffffff16021790555050565b6000600160008473ffffffffffffffffffffffffffffffffffffffff1673ffffffffffffffffffffffffffffffffffffffff16815260200190815260200160002060008373ffffffffffffffffffffffffffffffffffffffff1673ffffffffffffffffffffffffffffffffffffffff16815260200190815260200160002054905092915050565b600033905090565b600073ffffffffffffffffffffffffffffffffffffffff168373ffffffffffffffffffffffffffffffffffffffff16141561109b576040517f08c379a000000000000000000000000000000000000000000000000000000000815260040161109290611d63565b60405180910390fd5b600073ffffffffffffffffffffffffffffffffffffffff168273ffffffffffffffffffffffffffffffffffffffff16141561110b576040517f08c379a000000000000000000000000000000000000000000000000000000000815260040161110290611c63565b60405180910390fd5b80600160008573ffffffffffffffffffffffffffffffffffffffff1673ffffffffffffffffffffffffffffffffffffffff16815260200190815260200160002060008473ffffffffffffffffffffffffffffffffffffffff1673ffffffffffffffffffffffffffffffffffffffff168152602001908152602001600020819055508173ffffffffffffffffffffffffffffffffffffffff168373ffffffffffffffffffffffffffffffffffffffff167f8c5be1e5ebec7d5bd14f71427d1e84f3dd0314c0f7b2291e5b200ac8c7c3b925836040516111e99190611dc3565b60405180910390a3505050565b600073ffffffffffffffffffffffffffffffffffffffff168273ffffffffffffffffffffffffffffffffffffffff161415611266576040517f08c379a000000000000000000000000000000000000000000000000000000000815260040161125d90611d03565b60405180910390fd5b611272826000836117ae565b60008060008473ffffffffffffffffffffffffffffffffffffffff1673ffffffffffffffffffffffffffffffffffffffff168152602001908152602001600020549050818110156112f8576040517f08c379a00000000000000000000000000000000000000000000000000000000081526004016112ef90611c03565b60405180910390fd5b8181036000808573ffffffffffffffffffffffffffffffffffffffff1673ffffffffffffffffffffffffffffffffffffffff16815260200190815260200160002081905550816002600082825461134f9190611e6b565b92505081905550600073ffffffffffffffffffffffffffffffffffffffff168373ffffffffffffffffffffffffffffffffffffffff167fddf252ad1be2c89b69c2b068fc378daa952ba7f163c4a11628f55a4df523b3ef846040516113b49190611dc3565b60405180910390a36113c8836000846117b3565b505050565b600073ffffffffffffffffffffffffffffffffffffffff168373ffffffffffffffffffffffffffffffffffffffff16141561143d576040517f08c379a000000000000000000000000000000000000000000000000000000000815260040161143490611d23565b60405180910390fd5b600073ffffffffffffffffffffffffffffffffffffffff168273ffffffffffffffffffffffffffffffffffffffff1614156114ad576040517f08c379a00000000000000000000000000000000000000000000000000000000081526004016114a490611be3565b60405180910390fd5b6114b88383836117ae565b60008060008573ffffffffffffffffffffffffffffffffffffffff1673ffffffffffffffffffffffffffffffffffffffff1681526020019081526020016000205490508181101561153e576040517f08c379a000000000000000000000000000000000000000000000000000000000815260040161153590611c83565b60405180910390fd5b8181036000808673ffffffffffffffffffffffffffffffffffffffff1673ffffffffffffffffffffffffffffffffffffffff16815260200190815260200160002081905550816000808573ffffffffffffffffffffffffffffffffffffffff1673ffffffffffffffffffffffffffffffffffffffff16815260200190815260200160002060008282546115d19190611e15565b925050819055508273ffffffffffffffffffffffffffffffffffffffff168473ffffffffffffffffffffffffffffffffffffffff167fddf252ad1be2c89b69c2b068fc378daa952ba7f163c4a11628f55a4df523b3ef846040516116359190611dc3565b60405180910390a36116488484846117b3565b50505050565b600073ffffffffffffffffffffffffffffffffffffffff168273ffffffffffffffffffffffffffffffffffffffff1614156116be576040517f08c379a00000000000000000000000000000000000000000000000000000000081526004016116b590611da3565b60405180910390fd5b6116ca600083836117ae565b80600260008282546116dc9190611e15565b92505081905550806000808473ffffffffffffffffffffffffffffffffffffffff1673ffffffffffffffffffffffffffffffffffffffff16815260200190815260200160002060008282546117319190611e15565b925050819055508173ffffffffffffffffffffffffffffffffffffffff16600073ffffffffffffffffffffffffffffffffffffffff167fddf252ad1be2c89b69c2b068fc378daa952ba7f163c4a11628f55a4df523b3ef836040516117969190611dc3565b60405180910390a36117aa600083836117b3565b5050565b505050565b505050565b6000813590506117c7816123d1565b92915050565b6000813590506117dc816123e8565b92915050565b6000602082840312156117f457600080fd5b6000611802848285016117b8565b91505092915050565b6000806040838503121561181e57600080fd5b600061182c858286016117b8565b925050602061183d858286016117b8565b9150509250929050565b60008060006060848603121561185c57600080fd5b600061186a868287016117b8565b935050602061187b868287016117b8565b925050604061188c868287016117cd565b9150509250925092565b600080604083850312156118a957600080fd5b60006118b7858286016117b8565b92505060206118c8858286016117cd565b9150509250929050565b6000602082840312156118e457600080fd5b60006118f2848285016117cd565b91505092915050565b61190481611e9f565b82525050565b61191381611eb1565b82525050565b600061192482611df9565b61192e8185611e04565b935061193e818560208601611ef4565b61194781611fb7565b840191505092915050565b600061195f602383611e04565b915061196a82611fc8565b604082019050919050565b6000611982602283611e04565b915061198d82612017565b604082019050919050565b60006119a5601a83611e04565b91506119b082612066565b602082019050919050565b60006119c8600b83611e04565b91506119d38261208f565b602082019050919050565b60006119eb602283611e04565b91506119f6826120b8565b604082019050919050565b6000611a0e602683611e04565b9150611a1982612107565b604082019050919050565b6000611a31600c83611e04565b9150611a3c82612156565b602082019050919050565b6000611a54603883611e04565b9150611a5f8261217f565b604082019050919050565b6000611a77602883611e04565b9150611a82826121ce565b604082019050919050565b6000611a9a602183611e04565b9150611aa58261221d565b604082019050919050565b6000611abd602583611e04565b9150611ac88261226c565b604082019050919050565b6000611ae0603983611e04565b9150611aeb826122bb565b604082019050919050565b6000611b03602483611e04565b9150611b0e8261230a565b604082019050919050565b6000611b26602583611e04565b9150611b3182612359565b604082019050919050565b6000611b49601f83611e04565b9150611b54826123a8565b602082019050919050565b611b6881611edd565b82525050565b611b7781611ee7565b82525050565b6000604082019050611b9260008301856118fb565b611b9f60208301846118fb565b9392505050565b6000602082019050611bbb600083018461190a565b92915050565b60006020820190508181036000830152611bdb8184611919565b905092915050565b60006020820190508181036000830152611bfc81611952565b9050919050565b60006020820190508181036000830152611c1c81611975565b9050919050565b60006020820190508181036000830152611c3c81611998565b9050919050565b60006020820190508181036000830152611c5c816119bb565b9050919050565b60006020820190508181036000830152611c7c816119de565b9050919050565b60006020820190508181036000830152611c9c81611a01565b9050919050565b60006020820190508181036000830152611cbc81611a24565b9050919050565b60006020820190508181036000830152611cdc81611a47565b9050919050565b60006020820190508181036000830152611cfc81611a6a565b9050919050565b60006020820190508181036000830152611d1c81611a8d565b9050919050565b60006020820190508181036000830152611d3c81611ab0565b9050919050565b60006020820190508181036000830152611d5c81611ad3565b9050919050565b60006020820190508181036000830152611d7c81611af6565b9050919050565b60006020820190508181036000830152611d9c81611b19565b9050919050565b60006020820190508181036000830152611dbc81611b3c565b9050919050565b6000602082019050611dd86000830184611b5f565b92915050565b6000602082019050611df36000830184611b6e565b92915050565b600081519050919050565b600082825260208201905092915050565b6000611e2082611edd565b9150611e2b83611edd565b9250827fffffffffffffffffffffffffffffffffffffffffffffffffffffffffffffffff03821115611e6057611e5f611f59565b5b828201905092915050565b6000611e7682611edd565b9150611e8183611edd565b925082821015611e9457611e93611f59565b5b828203905092915050565b6000611eaa82611ebd565b9050919050565b60008115159050919050565b600073ffffffffffffffffffffffffffffffffffffffff82169050919050565b6000819050919050565b600060ff82169050919050565b60005b83811015611f12578082015181840152602081019050611ef7565b83811115611f21576000848401525b50505050565b60006002820490506001821680611f3f57607f821691505b60208210811415611f5357611f52611f88565b5b50919050565b7f4e487b7100000000000000000000000000000000000000000000000000000000600052601160045260246000fd5b7f4e487b7100000000000000000000000000000000000000000000000000000000600052602260045260246000fd5b6000601f19601f8301169050919050565b7f45524332303a207472616e7366657220746f20746865207a65726f206164647260008201527f6573730000000000000000000000000000000000000000000000000000000000602082015250565b7f45524332303a206275726e20616d6f756e7420657863656564732062616c616e60008201527f6365000000000000000000000000000000000000000000000000000000000000602082015250565b7f74656d70206c6f636b65642c20776169742061206d6f6d656e74000000000000600082015250565b7f436f6e2774206164642030000000000000000000000000000000000000000000600082015250565b7f45524332303a20617070726f766520746f20746865207a65726f20616464726560008201527f7373000000000000000000000000000000000000000000000000000000000000602082015250565b7f45524332303a207472616e7366657220616d6f756e742065786365656473206260008201527f616c616e63650000000000000000000000000000000000000000000000000000602082015250565b7f436f6e2774206275726e20300000000000000000000000000000000000000000600082015250565b7f4f776e657220526f6c653a2063616c6c657220646f6573206e6f74206861766560008201527f20746865204f776e657220726f6c65206f722061626f76650000000000000000602082015250565b7f45524332303a207472616e7366657220616d6f756e742065786365656473206160008201527f6c6c6f77616e6365000000000000000000000000000000000000000000000000602082015250565b7f45524332303a206275726e2066726f6d20746865207a65726f2061646472657360008201527f7300000000000000000000000000000000000000000000000000000000000000602082015250565b7f45524332303a207472616e736665722066726f6d20746865207a65726f20616460008201527f6472657373000000000000000000000000000000000000000000000000000000602082015250565b7f4d696e746572526f6c653a2063616c6c657220646f6573206e6f74206861766560008201527f20746865204d696e74657220726f6c65206f722061626f766500000000000000602082015250565b7f45524332303a20617070726f76652066726f6d20746865207a65726f2061646460008201527f7265737300000000000000000000000000000000000000000000000000000000602082015250565b7f45524332303a2064656372656173656420616c6c6f77616e63652062656c6f7760008201527f207a65726f000000000000000000000000000000000000000000000000000000602082015250565b7f45524332303a206d696e7420746f20746865207a65726f206164647265737300600082015250565b6123da81611e9f565b81146123e557600080fd5b50565b6123f181611edd565b81146123fc57600080fd5b5056fea2646970667358221220aec55c5419ab8426b7f654b25828a97a2ff4fdb0869352acb2d7ec291b135cb764736f6c63430008020033",
  "immutableReferences": {},
  "source": "// contracts/GLDToken.sol\r\n// SPDX-License-Identifier: MIT\r\npragma solidity ^0.8.0;\r\nimport \"@openzeppelin/contracts/proxy/utils/Initializable.sol\";\r\nimport \"@openzeppelin/contracts/token/ERC20/ERC20.sol\";\r\n\r\ninterface POSPoolExchange{\r\n    function update_after_trans_by_outer_func(address _from,address _to) external;\r\n}\r\n\r\ncontract XCFX is ERC20 {\r\n    address owner;\r\n    address[]  _account_list ;    //  \r\n\r\n    mapping(address=>uint256) _account_set;   //  \r\n    uint256  private del_nums;\r\n    uint256  private all_addr_nums;\r\n    //address public minter;\r\n    address POSPoolAddr;\r\n\r\n    mapping(address=>bool) mainMinter;\r\n    uint256 unlocked=1;\r\n\r\n    modifier onlyMinter() {\r\n        require(mainMinter[msg.sender], \"MinterRole: caller does not have the Minter role or above\");\r\n        _;\r\n    }\r\n\r\n    modifier onlyOwner() {\r\n        require(msg.sender==owner, \"Owner Role: caller does not have the Owner role or above\");\r\n        _;\r\n    }\r\n    \r\n    modifier lock() {\r\n        require(unlocked==1, \"temp locked, wait a moment\");\r\n        unlocked= 0;\r\n        _;\r\n        unlocked= 1;\r\n    }\r\n    constructor(uint256 initialSupply) ERC20(\"Xespace-CFX\", \"XCFX\") {\r\n        owner = msg.sender;\r\n        _mint(msg.sender, initialSupply);\r\n    }\r\n\r\n    function addMinter(address _minter) public onlyOwner(){\r\n        mainMinter[_minter]=true;\r\n    }\r\n    function removeMinter(address _minter) public onlyOwner(){\r\n        mainMinter[_minter]=false;\r\n    }\r\n\r\n    function Set_POSPoolAddr(address _POSPool) public onlyOwner() {\r\n        POSPoolAddr=_POSPool;\r\n    }\r\n\r\n    function transfer(address recipient, uint256 amount) public virtual override returns (bool) {\r\n        _transfer(_msgSender(), recipient, amount);\r\n        POSPoolExchange(POSPoolAddr).update_after_trans_by_outer_func(msg.sender,recipient);\r\n        return true;\r\n    }\r\n\r\n    function transferFrom(\r\n        address sender,\r\n        address recipient,\r\n        uint256 amount\r\n    ) public override returns (bool) {\r\n        _transfer(sender, recipient, amount);\r\n        POSPoolExchange(POSPoolAddr).update_after_trans_by_outer_func(sender,recipient);\r\n\r\n        uint256 currentAllowance = allowance(sender, _msgSender());\r\n        require(currentAllowance >= amount, \"ERC20: transfer amount exceeds allowance\");\r\n        unchecked {\r\n            _approve(sender, _msgSender(), currentAllowance - amount);\r\n        }\r\n\r\n        return true;\r\n    }\r\n\r\n    function addTokens(address _to, uint256 _value) external onlyMinter(){\r\n        require(_value>0,\"Con't add 0\");\r\n        //if (_account_set[_to]==0)  { addAccount(_to); }\r\n        _mint(_to, _value);\r\n        POSPoolExchange(POSPoolAddr).update_after_trans_by_outer_func(_to,_to);\r\n        \r\n    }\r\n    function burnTokenself(uint256 _value) external lock{\r\n        require(_value>0,\"Con't burn 0\");\r\n        uint balance = balanceOf(msg.sender);\r\n        _burn(msg.sender, _value);\r\n        POSPoolExchange(POSPoolAddr).update_after_trans_by_outer_func(msg.sender,msg.sender);\r\n        //if (balance==_value)  { delAccount(msg.sender); }\r\n    }\r\n    function burnTokens(address _account, uint256 _value) external lock onlyMinter(){\r\n        require(_value>0,\"Con't burn 0\");\r\n        uint balance = balanceOf(_account);\r\n        _burn(_account, _value);\r\n        POSPoolExchange(POSPoolAddr).update_after_trans_by_outer_func(_account,_account);\r\n        //if (balance==_value)  { delAccount(_account); }\r\n    }\r\n\r\n}\r\n\r\n",
  "sourcePath": "C:\\Users\\artii\\Black IDE\\espace\\contracts\\XCFX.sol",
  "compiler": {
    "name": "solc",
    "version": "0.8.2+commit.661d1103.Emscripten.clang"
  },
  "schemaVersion": "3.4.3",
  "updatedAt": "2022-06-16T16:59:41.490Z",
  "devdoc": {
    "kind": "dev",
    "methods": {
      "allowance(address,address)": {
        "details": "See {IERC20-allowance}."
      },
      "approve(address,uint256)": {
        "details": "See {IERC20-approve}. Requirements: - `spender` cannot be the zero address."
      },
      "balanceOf(address)": {
        "details": "See {IERC20-balanceOf}."
      },
      "decimals()": {
        "details": "Returns the number of decimals used to get its user representation. For example, if `decimals` equals `2`, a balance of `505` tokens should be displayed to a user as `5,05` (`505 / 10 ** 2`). Tokens usually opt for a value of 18, imitating the relationship between Ether and Wei. This is the value {ERC20} uses, unless this function is overridden; NOTE: This information is only used for _display_ purposes: it in no way affects any of the arithmetic of the contract, including {IERC20-balanceOf} and {IERC20-transfer}."
      },
      "decreaseAllowance(address,uint256)": {
        "details": "Atomically decreases the allowance granted to `spender` by the caller. This is an alternative to {approve} that can be used as a mitigation for problems described in {IERC20-approve}. Emits an {Approval} event indicating the updated allowance. Requirements: - `spender` cannot be the zero address. - `spender` must have allowance for the caller of at least `subtractedValue`."
      },
      "increaseAllowance(address,uint256)": {
        "details": "Atomically increases the allowance granted to `spender` by the caller. This is an alternative to {approve} that can be used as a mitigation for problems described in {IERC20-approve}. Emits an {Approval} event indicating the updated allowance. Requirements: - `spender` cannot be the zero address."
      },
      "name()": {
        "details": "Returns the name of the token."
      },
      "symbol()": {
        "details": "Returns the symbol of the token, usually a shorter version of the name."
      },
      "totalSupply()": {
        "details": "See {IERC20-totalSupply}."
      },
      "transfer(address,uint256)": {
        "details": "See {IERC20-transfer}. Requirements: - `recipient` cannot be the zero address. - the caller must have a balance of at least `amount`."
      },
      "transferFrom(address,address,uint256)": {
        "details": "See {IERC20-transferFrom}. Emits an {Approval} event indicating the updated allowance. This is not required by the EIP. See the note at the beginning of {ERC20}. Requirements: - `sender` and `recipient` cannot be the zero address. - `sender` must have a balance of at least `amount`. - the caller must have allowance for ``sender``'s tokens of at least `amount`."
      }
    },
    "version": 1
  },
  "userdoc": {
    "kind": "user",
    "methods": {},
    "version": 1
  }
}