{
  "contractName": "XCFX",
  "abi": [
    {
      "inputs": [],
      "stateMutability": "nonpayable",
      "type": "constructor"
    },
    {
      "anonymous": false,
      "inputs": [
        {
          "indexed": true,
          "internalType": "address",
          "name": "owner",
          "type": "address"
        },
        {
          "indexed": true,
          "internalType": "address",
          "name": "spender",
          "type": "address"
        },
        {
          "indexed": false,
          "internalType": "uint256",
          "name": "value",
          "type": "uint256"
        }
      ],
      "name": "Approval",
      "type": "event"
    },
    {
      "anonymous": false,
      "inputs": [
        {
          "indexed": true,
          "internalType": "address",
          "name": "from",
          "type": "address"
        },
        {
          "indexed": true,
          "internalType": "address",
          "name": "to",
          "type": "address"
        },
        {
          "indexed": false,
          "internalType": "uint256",
          "name": "value",
          "type": "uint256"
        }
      ],
      "name": "Transfer",
      "type": "event"
    },
    {
      "inputs": [
        {
          "internalType": "address",
          "name": "owner",
          "type": "address"
        },
        {
          "internalType": "address",
          "name": "spender",
          "type": "address"
        }
      ],
      "name": "allowance",
      "outputs": [
        {
          "internalType": "uint256",
          "name": "",
          "type": "uint256"
        }
      ],
      "stateMutability": "view",
      "type": "function"
    },
    {
      "inputs": [
        {
          "internalType": "address",
          "name": "spender",
          "type": "address"
        },
        {
          "internalType": "uint256",
          "name": "amount",
          "type": "uint256"
        }
      ],
      "name": "approve",
      "outputs": [
        {
          "internalType": "bool",
          "name": "",
          "type": "bool"
        }
      ],
      "stateMutability": "nonpayable",
      "type": "function"
    },
    {
      "inputs": [
        {
          "internalType": "address",
          "name": "account",
          "type": "address"
        }
      ],
      "name": "balanceOf",
      "outputs": [
        {
          "internalType": "uint256",
          "name": "",
          "type": "uint256"
        }
      ],
      "stateMutability": "view",
      "type": "function"
    },
    {
      "inputs": [],
      "name": "decimals",
      "outputs": [
        {
          "internalType": "uint8",
          "name": "",
          "type": "uint8"
        }
      ],
      "stateMutability": "view",
      "type": "function"
    },
    {
      "inputs": [
        {
          "internalType": "address",
          "name": "spender",
          "type": "address"
        },
        {
          "internalType": "uint256",
          "name": "subtractedValue",
          "type": "uint256"
        }
      ],
      "name": "decreaseAllowance",
      "outputs": [
        {
          "internalType": "bool",
          "name": "",
          "type": "bool"
        }
      ],
      "stateMutability": "nonpayable",
      "type": "function"
    },
    {
      "inputs": [
        {
          "internalType": "address",
          "name": "spender",
          "type": "address"
        },
        {
          "internalType": "uint256",
          "name": "addedValue",
          "type": "uint256"
        }
      ],
      "name": "increaseAllowance",
      "outputs": [
        {
          "internalType": "bool",
          "name": "",
          "type": "bool"
        }
      ],
      "stateMutability": "nonpayable",
      "type": "function"
    },
    {
      "inputs": [],
      "name": "name",
      "outputs": [
        {
          "internalType": "string",
          "name": "",
          "type": "string"
        }
      ],
      "stateMutability": "view",
      "type": "function"
    },
    {
      "inputs": [],
      "name": "symbol",
      "outputs": [
        {
          "internalType": "string",
          "name": "",
          "type": "string"
        }
      ],
      "stateMutability": "view",
      "type": "function"
    },
    {
      "inputs": [],
      "name": "totalSupply",
      "outputs": [
        {
          "internalType": "uint256",
          "name": "",
          "type": "uint256"
        }
      ],
      "stateMutability": "view",
      "type": "function"
    },
    {
      "inputs": [
        {
          "internalType": "address",
          "name": "recipient",
          "type": "address"
        },
        {
          "internalType": "uint256",
          "name": "amount",
          "type": "uint256"
        }
      ],
      "name": "transfer",
      "outputs": [
        {
          "internalType": "bool",
          "name": "",
          "type": "bool"
        }
      ],
      "stateMutability": "nonpayable",
      "type": "function"
    },
    {
      "inputs": [
        {
          "internalType": "address",
          "name": "sender",
          "type": "address"
        },
        {
          "internalType": "address",
          "name": "recipient",
          "type": "address"
        },
        {
          "internalType": "uint256",
          "name": "amount",
          "type": "uint256"
        }
      ],
      "name": "transferFrom",
      "outputs": [
        {
          "internalType": "bool",
          "name": "",
          "type": "bool"
        }
      ],
      "stateMutability": "nonpayable",
      "type": "function"
    },
    {
      "inputs": [
        {
          "internalType": "address",
          "name": "_minter",
          "type": "address"
        }
      ],
      "name": "addMinter",
      "outputs": [],
      "stateMutability": "nonpayable",
      "type": "function"
    },
    {
      "inputs": [
        {
          "internalType": "address",
          "name": "_minter",
          "type": "address"
        }
      ],
      "name": "removeMinter",
      "outputs": [],
      "stateMutability": "nonpayable",
      "type": "function"
    },
    {
      "inputs": [
        {
          "internalType": "address",
          "name": "_account",
          "type": "address"
        },
        {
          "internalType": "uint256",
          "name": "_value",
          "type": "uint256"
        }
      ],
      "name": "addTokens",
      "outputs": [],
      "stateMutability": "nonpayable",
      "type": "function"
    },
    {
      "inputs": [
        {
          "internalType": "address",
          "name": "_account",
          "type": "address"
        },
        {
          "internalType": "uint256",
          "name": "_value",
          "type": "uint256"
        }
      ],
      "name": "burnTokens",
      "outputs": [],
      "stateMutability": "nonpayable",
      "type": "function"
    }
  ],
  "bytecode": "0x608060405260016008553480156200001657600080fd5b506040518060400160405280600d81526020017f582d6e75636c656f6e2d434658000000000000000000000000000000000000008152506040518060400160405280600481526020017f784346580000000000000000000000000000000000000000000000000000000081525081600390805190602001906200009b929190620000fe565b508060049080519060200190620000b4929190620000fe565b50505033600660006101000a81548173ffffffffffffffffffffffffffffffffffffffff021916908373ffffffffffffffffffffffffffffffffffffffff16021790555062000213565b8280546200010c90620001ae565b90600052602060002090601f0160209004810192826200013057600085556200017c565b82601f106200014b57805160ff19168380011785556200017c565b828001600101855582156200017c579182015b828111156200017b5782518255916020019190600101906200015e565b5b5090506200018b91906200018f565b5090565b5b80821115620001aa57600081600090555060010162000190565b5090565b60006002820490506001821680620001c757607f821691505b60208210811415620001de57620001dd620001e4565b5b50919050565b7f4e487b7100000000000000000000000000000000000000000000000000000000600052602260045260246000fd5b6120a580620002236000396000f3fe608060405234801561001057600080fd5b50600436106100f55760003560e01c80633950935111610097578063983b2d5611610066578063983b2d5614610286578063a457c2d7146102a2578063a9059cbb146102d2578063dd62ed3e14610302576100f5565b806339509351146101ec5780636039fbdb1461021c57806370a082311461023857806395d89b4114610268576100f5565b806318160ddd116100d357806318160ddd1461016457806323b872dd146101825780633092afd5146101b2578063313ce567146101ce576100f5565b806306fdde03146100fa578063095ea7b3146101185780630d1118ce14610148575b600080fd5b610102610332565b60405161010f91906117e8565b60405180910390f35b610132600480360381019061012d91906114fb565b6103c4565b60405161013f91906117cd565b60405180910390f35b610162600480360381019061015d91906114fb565b6103e2565b005b61016c61055f565b6040516101799190611a0a565b60405180910390f35b61019c600480360381019061019791906114ac565b610569565b6040516101a991906117cd565b60405180910390f35b6101cc60048036038101906101c79190611447565b610661565b005b6101d661074c565b6040516101e39190611a25565b60405180910390f35b610206600480360381019061020191906114fb565b610755565b60405161021391906117cd565b60405180910390f35b610236600480360381019061023191906114fb565b610801565b005b610252600480360381019061024d9190611447565b610933565b60405161025f9190611a0a565b60405180910390f35b61027061097b565b60405161027d91906117e8565b60405180910390f35b6102a0600480360381019061029b9190611447565b610a0d565b005b6102bc60048036038101906102b791906114fb565b610af8565b6040516102c991906117cd565b60405180910390f35b6102ec60048036038101906102e791906114fb565b610be3565b6040516102f991906117cd565b60405180910390f35b61031c60048036038101906103179190611470565b610c01565b6040516103299190611a0a565b60405180910390f35b60606003805461034190611b6e565b80601f016020809104026020016040519081016040528092919081815260200182805461036d90611b6e565b80156103ba5780601f1061038f576101008083540402835291602001916103ba565b820191906000526020600020905b81548152906001019060200180831161039d57829003601f168201915b5050505050905090565b60006103d86103d1610c88565b8484610c90565b6001905092915050565b600160085414610427576040517f08c379a000000000000000000000000000000000000000000000000000000000815260040161041e9061186a565b60405180910390fd5b6000600881905550600760003373ffffffffffffffffffffffffffffffffffffffff1673ffffffffffffffffffffffffffffffffffffffff16815260200190815260200160002060009054906101000a900460ff166104bb576040517f08c379a00000000000000000000000000000000000000000000000000000000081526004016104b29061198a565b60405180910390fd5b600081116104fe576040517f08c379a00000000000000000000000000000000000000000000000000000000081526004016104f5906118ea565b60405180910390fd5b61050782610933565b811115610549576040517f08c379a00000000000000000000000000000000000000000000000000000000081526004016105409061182a565b60405180910390fd5b6105538282610e5b565b60016008819055505050565b6000600254905090565b6000610576848484611032565b6000600160008673ffffffffffffffffffffffffffffffffffffffff1673ffffffffffffffffffffffffffffffffffffffff16815260200190815260200160002060006105c1610c88565b73ffffffffffffffffffffffffffffffffffffffff1673ffffffffffffffffffffffffffffffffffffffff16815260200190815260200160002054905082811015610641576040517f08c379a00000000000000000000000000000000000000000000000000000000081526004016106389061192a565b60405180910390fd5b6106558561064d610c88565b858403610c90565b60019150509392505050565b600660009054906101000a900473ffffffffffffffffffffffffffffffffffffffff1673ffffffffffffffffffffffffffffffffffffffff163373ffffffffffffffffffffffffffffffffffffffff16146106f1576040517f08c379a00000000000000000000000000000000000000000000000000000000081526004016106e89061190a565b60405180910390fd5b6000600760008373ffffffffffffffffffffffffffffffffffffffff1673ffffffffffffffffffffffffffffffffffffffff16815260200190815260200160002060006101000a81548160ff02191690831515021790555050565b60006012905090565b60006107f7610762610c88565b848460016000610770610c88565b73ffffffffffffffffffffffffffffffffffffffff1673ffffffffffffffffffffffffffffffffffffffff16815260200190815260200160002060008873ffffffffffffffffffffffffffffffffffffffff1673ffffffffffffffffffffffffffffffffffffffff168152602001908152602001600020546107f29190611a5c565b610c90565b6001905092915050565b600160085414610846576040517f08c379a000000000000000000000000000000000000000000000000000000000815260040161083d9061186a565b60405180910390fd5b6000600881905550600760003373ffffffffffffffffffffffffffffffffffffffff1673ffffffffffffffffffffffffffffffffffffffff16815260200190815260200160002060009054906101000a900460ff166108da576040517f08c379a00000000000000000000000000000000000000000000000000000000081526004016108d19061198a565b60405180910390fd5b6000811161091d576040517f08c379a00000000000000000000000000000000000000000000000000000000081526004016109149061188a565b60405180910390fd5b61092782826112b3565b60016008819055505050565b60008060008373ffffffffffffffffffffffffffffffffffffffff1673ffffffffffffffffffffffffffffffffffffffff168152602001908152602001600020549050919050565b60606004805461098a90611b6e565b80601f01602080910402602001604051908101604052809291908181526020018280546109b690611b6e565b8015610a035780601f106109d857610100808354040283529160200191610a03565b820191906000526020600020905b8154815290600101906020018083116109e657829003601f168201915b5050505050905090565b600660009054906101000a900473ffffffffffffffffffffffffffffffffffffffff1673ffffffffffffffffffffffffffffffffffffffff163373ffffffffffffffffffffffffffffffffffffffff1614610a9d576040517f08c379a0000000000000000000000000000000000000000000000000000000008152600401610a949061190a565b60405180910390fd5b6001600760008373ffffffffffffffffffffffffffffffffffffffff1673ffffffffffffffffffffffffffffffffffffffff16815260200190815260200160002060006101000a81548160ff02191690831515021790555050565b60008060016000610b07610c88565b73ffffffffffffffffffffffffffffffffffffffff1673ffffffffffffffffffffffffffffffffffffffff16815260200190815260200160002060008573ffffffffffffffffffffffffffffffffffffffff1673ffffffffffffffffffffffffffffffffffffffff16815260200190815260200160002054905082811015610bc4576040517f08c379a0000000000000000000000000000000000000000000000000000000008152600401610bbb906119ca565b60405180910390fd5b610bd8610bcf610c88565b85858403610c90565b600191505092915050565b6000610bf7610bf0610c88565b8484611032565b6001905092915050565b6000600160008473ffffffffffffffffffffffffffffffffffffffff1673ffffffffffffffffffffffffffffffffffffffff16815260200190815260200160002060008373ffffffffffffffffffffffffffffffffffffffff1673ffffffffffffffffffffffffffffffffffffffff16815260200190815260200160002054905092915050565b600033905090565b600073ffffffffffffffffffffffffffffffffffffffff168373ffffffffffffffffffffffffffffffffffffffff161415610d00576040517f08c379a0000000000000000000000000000000000000000000000000000000008152600401610cf7906119aa565b60405180910390fd5b600073ffffffffffffffffffffffffffffffffffffffff168273ffffffffffffffffffffffffffffffffffffffff161415610d70576040517f08c379a0000000000000000000000000000000000000000000000000000000008152600401610d67906118aa565b60405180910390fd5b80600160008573ffffffffffffffffffffffffffffffffffffffff1673ffffffffffffffffffffffffffffffffffffffff16815260200190815260200160002060008473ffffffffffffffffffffffffffffffffffffffff1673ffffffffffffffffffffffffffffffffffffffff168152602001908152602001600020819055508173ffffffffffffffffffffffffffffffffffffffff168373ffffffffffffffffffffffffffffffffffffffff167f8c5be1e5ebec7d5bd14f71427d1e84f3dd0314c0f7b2291e5b200ac8c7c3b92583604051610e4e9190611a0a565b60405180910390a3505050565b600073ffffffffffffffffffffffffffffffffffffffff168273ffffffffffffffffffffffffffffffffffffffff161415610ecb576040517f08c379a0000000000000000000000000000000000000000000000000000000008152600401610ec29061194a565b60405180910390fd5b610ed782600083611413565b60008060008473ffffffffffffffffffffffffffffffffffffffff1673ffffffffffffffffffffffffffffffffffffffff16815260200190815260200160002054905081811015610f5d576040517f08c379a0000000000000000000000000000000000000000000000000000000008152600401610f549061184a565b60405180910390fd5b8181036000808573ffffffffffffffffffffffffffffffffffffffff1673ffffffffffffffffffffffffffffffffffffffff168152602001908152602001600020819055508160026000828254610fb49190611ab2565b92505081905550600073ffffffffffffffffffffffffffffffffffffffff168373ffffffffffffffffffffffffffffffffffffffff167fddf252ad1be2c89b69c2b068fc378daa952ba7f163c4a11628f55a4df523b3ef846040516110199190611a0a565b60405180910390a361102d83600084611418565b505050565b600073ffffffffffffffffffffffffffffffffffffffff168373ffffffffffffffffffffffffffffffffffffffff1614156110a2576040517f08c379a00000000000000000000000000000000000000000000000000000000081526004016110999061196a565b60405180910390fd5b600073ffffffffffffffffffffffffffffffffffffffff168273ffffffffffffffffffffffffffffffffffffffff161415611112576040517f08c379a00000000000000000000000000000000000000000000000000000000081526004016111099061180a565b60405180910390fd5b61111d838383611413565b60008060008573ffffffffffffffffffffffffffffffffffffffff1673ffffffffffffffffffffffffffffffffffffffff168152602001908152602001600020549050818110156111a3576040517f08c379a000000000000000000000000000000000000000000000000000000000815260040161119a906118ca565b60405180910390fd5b8181036000808673ffffffffffffffffffffffffffffffffffffffff1673ffffffffffffffffffffffffffffffffffffffff16815260200190815260200160002081905550816000808573ffffffffffffffffffffffffffffffffffffffff1673ffffffffffffffffffffffffffffffffffffffff16815260200190815260200160002060008282546112369190611a5c565b925050819055508273ffffffffffffffffffffffffffffffffffffffff168473ffffffffffffffffffffffffffffffffffffffff167fddf252ad1be2c89b69c2b068fc378daa952ba7f163c4a11628f55a4df523b3ef8460405161129a9190611a0a565b60405180910390a36112ad848484611418565b50505050565b600073ffffffffffffffffffffffffffffffffffffffff168273ffffffffffffffffffffffffffffffffffffffff161415611323576040517f08c379a000000000000000000000000000000000000000000000000000000000815260040161131a906119ea565b60405180910390fd5b61132f60008383611413565b80600260008282546113419190611a5c565b92505081905550806000808473ffffffffffffffffffffffffffffffffffffffff1673ffffffffffffffffffffffffffffffffffffffff16815260200190815260200160002060008282546113969190611a5c565b925050819055508173ffffffffffffffffffffffffffffffffffffffff16600073ffffffffffffffffffffffffffffffffffffffff167fddf252ad1be2c89b69c2b068fc378daa952ba7f163c4a11628f55a4df523b3ef836040516113fb9190611a0a565b60405180910390a361140f60008383611418565b5050565b505050565b505050565b60008135905061142c81612041565b92915050565b60008135905061144181612058565b92915050565b60006020828403121561145957600080fd5b60006114678482850161141d565b91505092915050565b6000806040838503121561148357600080fd5b60006114918582860161141d565b92505060206114a28582860161141d565b9150509250929050565b6000806000606084860312156114c157600080fd5b60006114cf8682870161141d565b93505060206114e08682870161141d565b92505060406114f186828701611432565b9150509250925092565b6000806040838503121561150e57600080fd5b600061151c8582860161141d565b925050602061152d85828601611432565b9150509250929050565b61154081611af8565b82525050565b600061155182611a40565b61155b8185611a4b565b935061156b818560208601611b3b565b61157481611bfe565b840191505092915050565b600061158c602383611a4b565b915061159782611c0f565b604082019050919050565b60006115af601683611a4b565b91506115ba82611c5e565b602082019050919050565b60006115d2602283611a4b565b91506115dd82611c87565b604082019050919050565b60006115f5601a83611a4b565b915061160082611cd6565b602082019050919050565b6000611618600b83611a4b565b915061162382611cff565b602082019050919050565b600061163b602283611a4b565b915061164682611d28565b604082019050919050565b600061165e602683611a4b565b915061166982611d77565b604082019050919050565b6000611681600c83611a4b565b915061168c82611dc6565b602082019050919050565b60006116a4603883611a4b565b91506116af82611def565b604082019050919050565b60006116c7602883611a4b565b91506116d282611e3e565b604082019050919050565b60006116ea602183611a4b565b91506116f582611e8d565b604082019050919050565b600061170d602583611a4b565b915061171882611edc565b604082019050919050565b6000611730603983611a4b565b915061173b82611f2b565b604082019050919050565b6000611753602483611a4b565b915061175e82611f7a565b604082019050919050565b6000611776602583611a4b565b915061178182611fc9565b604082019050919050565b6000611799601f83611a4b565b91506117a482612018565b602082019050919050565b6117b881611b24565b82525050565b6117c781611b2e565b82525050565b60006020820190506117e26000830184611537565b92915050565b600060208201905081810360008301526118028184611546565b905092915050565b600060208201905081810360008301526118238161157f565b9050919050565b60006020820190508181036000830152611843816115a2565b9050919050565b60006020820190508181036000830152611863816115c5565b9050919050565b60006020820190508181036000830152611883816115e8565b9050919050565b600060208201905081810360008301526118a38161160b565b9050919050565b600060208201905081810360008301526118c38161162e565b9050919050565b600060208201905081810360008301526118e381611651565b9050919050565b6000602082019050818103600083015261190381611674565b9050919050565b6000602082019050818103600083015261192381611697565b9050919050565b60006020820190508181036000830152611943816116ba565b9050919050565b60006020820190508181036000830152611963816116dd565b9050919050565b6000602082019050818103600083015261198381611700565b9050919050565b600060208201905081810360008301526119a381611723565b9050919050565b600060208201905081810360008301526119c381611746565b9050919050565b600060208201905081810360008301526119e381611769565b9050919050565b60006020820190508181036000830152611a038161178c565b9050919050565b6000602082019050611a1f60008301846117af565b92915050565b6000602082019050611a3a60008301846117be565b92915050565b600081519050919050565b600082825260208201905092915050565b6000611a6782611b24565b9150611a7283611b24565b9250827fffffffffffffffffffffffffffffffffffffffffffffffffffffffffffffffff03821115611aa757611aa6611ba0565b5b828201905092915050565b6000611abd82611b24565b9150611ac883611b24565b925082821015611adb57611ada611ba0565b5b828203905092915050565b6000611af182611b04565b9050919050565b60008115159050919050565b600073ffffffffffffffffffffffffffffffffffffffff82169050919050565b6000819050919050565b600060ff82169050919050565b60005b83811015611b59578082015181840152602081019050611b3e565b83811115611b68576000848401525b50505050565b60006002820490506001821680611b8657607f821691505b60208210811415611b9a57611b99611bcf565b5b50919050565b7f4e487b7100000000000000000000000000000000000000000000000000000000600052601160045260246000fd5b7f4e487b7100000000000000000000000000000000000000000000000000000000600052602260045260246000fd5b6000601f19601f8301169050919050565b7f45524332303a207472616e7366657220746f20746865207a65726f206164647260008201527f6573730000000000000000000000000000000000000000000000000000000000602082015250565b7f4d757374203c206163636f756e742062616c616e636500000000000000000000600082015250565b7f45524332303a206275726e20616d6f756e7420657863656564732062616c616e60008201527f6365000000000000000000000000000000000000000000000000000000000000602082015250565b7f74656d70206c6f636b65642c20776169742061206d6f6d656e74000000000000600082015250565b7f436f6e2774206164642030000000000000000000000000000000000000000000600082015250565b7f45524332303a20617070726f766520746f20746865207a65726f20616464726560008201527f7373000000000000000000000000000000000000000000000000000000000000602082015250565b7f45524332303a207472616e7366657220616d6f756e742065786365656473206260008201527f616c616e63650000000000000000000000000000000000000000000000000000602082015250565b7f436f6e2774206275726e20300000000000000000000000000000000000000000600082015250565b7f4f776e657220526f6c653a2063616c6c657220646f6573206e6f74206861766560008201527f20746865204f776e657220726f6c65206f722061626f76650000000000000000602082015250565b7f45524332303a207472616e7366657220616d6f756e742065786365656473206160008201527f6c6c6f77616e6365000000000000000000000000000000000000000000000000602082015250565b7f45524332303a206275726e2066726f6d20746865207a65726f2061646472657360008201527f7300000000000000000000000000000000000000000000000000000000000000602082015250565b7f45524332303a207472616e736665722066726f6d20746865207a65726f20616460008201527f6472657373000000000000000000000000000000000000000000000000000000602082015250565b7f4d696e746572526f6c653a2063616c6c657220646f6573206e6f74206861766560008201527f20746865204d696e74657220726f6c65206f722061626f766500000000000000602082015250565b7f45524332303a20617070726f76652066726f6d20746865207a65726f2061646460008201527f7265737300000000000000000000000000000000000000000000000000000000602082015250565b7f45524332303a2064656372656173656420616c6c6f77616e63652062656c6f7760008201527f207a65726f000000000000000000000000000000000000000000000000000000602082015250565b7f45524332303a206d696e7420746f20746865207a65726f206164647265737300600082015250565b61204a81611ae6565b811461205557600080fd5b50565b61206181611b24565b811461206c57600080fd5b5056fea26469706673582212200ce42fd25f9ddc92c572d2be032897a796a842a96ec4323053733917c10fab9664736f6c63430008020033",
  "immutableReferences": {},
  "source": "//SPDX-License-Identifier: BUSL-1.1\r\npragma solidity ^0.8.0;\r\nimport \"@openzeppelin/contracts/proxy/utils/Initializable.sol\";\r\nimport \"@openzeppelin/contracts/token/ERC20/ERC20.sol\";\r\n\r\ncontract XCFX is ERC20{\r\n    // ======================== configs =========================\r\n    ERC20 token;\r\n    address owner;\r\n    mapping(address=>bool) mainMinter;\r\n    uint256 unlocked=1;\r\n\r\n    // ======================== Methods =========================\r\n    modifier onlyMinter() {\r\n        require(mainMinter[msg.sender], \"MinterRole: caller does not have the Minter role or above\");\r\n        _;\r\n    }\r\n    modifier onlyOwner() {\r\n        require(msg.sender==owner, \"Owner Role: caller does not have the Owner role or above\");\r\n        _;\r\n    }\r\n    modifier lock() {\r\n        require(unlocked==1, \"temp locked, wait a moment\");\r\n        unlocked = 0;\r\n        _;\r\n        unlocked = 1;\r\n    }\r\n    // ======================== constructor =========================\r\n    constructor() ERC20(\"X-nucleon-CFX\", \"xCFX\") {\r\n        owner = msg.sender;\r\n    }\r\n\r\n    // ======================== Owner function =========================\r\n    function addMinter(address _minter) public onlyOwner(){\r\n        mainMinter[_minter] = true;\r\n    }\r\n    function removeMinter(address _minter) public onlyOwner(){\r\n        mainMinter[_minter] = false;\r\n    }\r\n    // ======================== Minter function =========================\r\n    function addTokens(address _account, uint256 _value) external lock onlyMinter(){\r\n        require(_value>0,\"Con't add 0\");\r\n        //require( isContract(msg.sender) ,\"msg.sender must be a contract\");\r\n        _mint(_account, _value);\r\n    }\r\n    function burnTokens(address _account, uint256 _value) external lock onlyMinter(){\r\n        require(_value > 0,\"Con't burn 0\");\r\n        require(_value <= balanceOf(_account),\"Must < account balance\");\r\n        //require( isContract(msg.sender) ,\"msg.sender must be a contract\");\r\n        _burn(_account, _value);\r\n    }\r\n    // ======================== require need function =========================\r\n    function isContract(address account) internal view returns (bool) {\r\n        // This method relies on extcodesize/address.code.length, which returns 0\r\n        // for contracts in construction, since the code is only stored at the end\r\n        // of the constructor execution.\r\n        return account.code.length > 0;\r\n    }\r\n\r\n}\r\n\r\n",
  "sourcePath": "C:\\Users\\artii\\Black IDE\\espace\\contracts\\XCFX.sol",
  "compiler": {
    "name": "solc",
    "version": "0.8.2+commit.661d1103.Emscripten.clang"
  },
  "schemaVersion": "3.4.3",
  "updatedAt": "2023-03-15T07:45:26.919Z",
  "devdoc": {
    "kind": "dev",
    "methods": {
      "allowance(address,address)": {
        "details": "See {IERC20-allowance}."
      },
      "approve(address,uint256)": {
        "details": "See {IERC20-approve}. Requirements: - `spender` cannot be the zero address."
      },
      "balanceOf(address)": {
        "details": "See {IERC20-balanceOf}."
      },
      "decimals()": {
        "details": "Returns the number of decimals used to get its user representation. For example, if `decimals` equals `2`, a balance of `505` tokens should be displayed to a user as `5,05` (`505 / 10 ** 2`). Tokens usually opt for a value of 18, imitating the relationship between Ether and Wei. This is the value {ERC20} uses, unless this function is overridden; NOTE: This information is only used for _display_ purposes: it in no way affects any of the arithmetic of the contract, including {IERC20-balanceOf} and {IERC20-transfer}."
      },
      "decreaseAllowance(address,uint256)": {
        "details": "Atomically decreases the allowance granted to `spender` by the caller. This is an alternative to {approve} that can be used as a mitigation for problems described in {IERC20-approve}. Emits an {Approval} event indicating the updated allowance. Requirements: - `spender` cannot be the zero address. - `spender` must have allowance for the caller of at least `subtractedValue`."
      },
      "increaseAllowance(address,uint256)": {
        "details": "Atomically increases the allowance granted to `spender` by the caller. This is an alternative to {approve} that can be used as a mitigation for problems described in {IERC20-approve}. Emits an {Approval} event indicating the updated allowance. Requirements: - `spender` cannot be the zero address."
      },
      "name()": {
        "details": "Returns the name of the token."
      },
      "symbol()": {
        "details": "Returns the symbol of the token, usually a shorter version of the name."
      },
      "totalSupply()": {
        "details": "See {IERC20-totalSupply}."
      },
      "transfer(address,uint256)": {
        "details": "See {IERC20-transfer}. Requirements: - `recipient` cannot be the zero address. - the caller must have a balance of at least `amount`."
      },
      "transferFrom(address,address,uint256)": {
        "details": "See {IERC20-transferFrom}. Emits an {Approval} event indicating the updated allowance. This is not required by the EIP. See the note at the beginning of {ERC20}. Requirements: - `sender` and `recipient` cannot be the zero address. - `sender` must have a balance of at least `amount`. - the caller must have allowance for ``sender``'s tokens of at least `amount`."
      }
    },
    "version": 1
  },
  "userdoc": {
    "kind": "user",
    "methods": {},
    "version": 1
  }
}