{
  "contractName": "XCFX",
  "abi": [
    {
      "inputs": [],
      "stateMutability": "nonpayable",
      "type": "constructor"
    },
    {
      "anonymous": false,
      "inputs": [
        {
          "indexed": true,
          "internalType": "address",
          "name": "owner",
          "type": "address"
        },
        {
          "indexed": true,
          "internalType": "address",
          "name": "spender",
          "type": "address"
        },
        {
          "indexed": false,
          "internalType": "uint256",
          "name": "value",
          "type": "uint256"
        }
      ],
      "name": "Approval",
      "type": "event"
    },
    {
      "anonymous": false,
      "inputs": [
        {
          "indexed": true,
          "internalType": "address",
          "name": "from",
          "type": "address"
        },
        {
          "indexed": true,
          "internalType": "address",
          "name": "to",
          "type": "address"
        },
        {
          "indexed": false,
          "internalType": "uint256",
          "name": "value",
          "type": "uint256"
        }
      ],
      "name": "Transfer",
      "type": "event"
    },
    {
      "inputs": [
        {
          "internalType": "address",
          "name": "owner",
          "type": "address"
        },
        {
          "internalType": "address",
          "name": "spender",
          "type": "address"
        }
      ],
      "name": "allowance",
      "outputs": [
        {
          "internalType": "uint256",
          "name": "",
          "type": "uint256"
        }
      ],
      "stateMutability": "view",
      "type": "function"
    },
    {
      "inputs": [
        {
          "internalType": "address",
          "name": "spender",
          "type": "address"
        },
        {
          "internalType": "uint256",
          "name": "amount",
          "type": "uint256"
        }
      ],
      "name": "approve",
      "outputs": [
        {
          "internalType": "bool",
          "name": "",
          "type": "bool"
        }
      ],
      "stateMutability": "nonpayable",
      "type": "function"
    },
    {
      "inputs": [
        {
          "internalType": "address",
          "name": "account",
          "type": "address"
        }
      ],
      "name": "balanceOf",
      "outputs": [
        {
          "internalType": "uint256",
          "name": "",
          "type": "uint256"
        }
      ],
      "stateMutability": "view",
      "type": "function"
    },
    {
      "inputs": [],
      "name": "decimals",
      "outputs": [
        {
          "internalType": "uint8",
          "name": "",
          "type": "uint8"
        }
      ],
      "stateMutability": "view",
      "type": "function"
    },
    {
      "inputs": [
        {
          "internalType": "address",
          "name": "spender",
          "type": "address"
        },
        {
          "internalType": "uint256",
          "name": "subtractedValue",
          "type": "uint256"
        }
      ],
      "name": "decreaseAllowance",
      "outputs": [
        {
          "internalType": "bool",
          "name": "",
          "type": "bool"
        }
      ],
      "stateMutability": "nonpayable",
      "type": "function"
    },
    {
      "inputs": [
        {
          "internalType": "address",
          "name": "spender",
          "type": "address"
        },
        {
          "internalType": "uint256",
          "name": "addedValue",
          "type": "uint256"
        }
      ],
      "name": "increaseAllowance",
      "outputs": [
        {
          "internalType": "bool",
          "name": "",
          "type": "bool"
        }
      ],
      "stateMutability": "nonpayable",
      "type": "function"
    },
    {
      "inputs": [],
      "name": "name",
      "outputs": [
        {
          "internalType": "string",
          "name": "",
          "type": "string"
        }
      ],
      "stateMutability": "view",
      "type": "function"
    },
    {
      "inputs": [],
      "name": "symbol",
      "outputs": [
        {
          "internalType": "string",
          "name": "",
          "type": "string"
        }
      ],
      "stateMutability": "view",
      "type": "function"
    },
    {
      "inputs": [],
      "name": "totalSupply",
      "outputs": [
        {
          "internalType": "uint256",
          "name": "",
          "type": "uint256"
        }
      ],
      "stateMutability": "view",
      "type": "function"
    },
    {
      "inputs": [
        {
          "internalType": "address",
          "name": "recipient",
          "type": "address"
        },
        {
          "internalType": "uint256",
          "name": "amount",
          "type": "uint256"
        }
      ],
      "name": "transfer",
      "outputs": [
        {
          "internalType": "bool",
          "name": "",
          "type": "bool"
        }
      ],
      "stateMutability": "nonpayable",
      "type": "function"
    },
    {
      "inputs": [
        {
          "internalType": "address",
          "name": "sender",
          "type": "address"
        },
        {
          "internalType": "address",
          "name": "recipient",
          "type": "address"
        },
        {
          "internalType": "uint256",
          "name": "amount",
          "type": "uint256"
        }
      ],
      "name": "transferFrom",
      "outputs": [
        {
          "internalType": "bool",
          "name": "",
          "type": "bool"
        }
      ],
      "stateMutability": "nonpayable",
      "type": "function"
    },
    {
      "inputs": [],
      "name": "initialize",
      "outputs": [],
      "stateMutability": "nonpayable",
      "type": "function"
    },
    {
      "inputs": [
        {
          "internalType": "address",
          "name": "_minter",
          "type": "address"
        }
      ],
      "name": "addMinter",
      "outputs": [],
      "stateMutability": "nonpayable",
      "type": "function"
    },
    {
      "inputs": [
        {
          "internalType": "address",
          "name": "_minter",
          "type": "address"
        }
      ],
      "name": "removeMinter",
      "outputs": [],
      "stateMutability": "nonpayable",
      "type": "function"
    },
    {
      "inputs": [
        {
          "internalType": "address",
          "name": "_account",
          "type": "address"
        },
        {
          "internalType": "uint256",
          "name": "_value",
          "type": "uint256"
        }
      ],
      "name": "addTokens",
      "outputs": [],
      "stateMutability": "nonpayable",
      "type": "function"
    },
    {
      "inputs": [
        {
          "internalType": "address",
          "name": "_account",
          "type": "address"
        },
        {
          "internalType": "uint256",
          "name": "_value",
          "type": "uint256"
        }
      ],
      "name": "burnTokens",
      "outputs": [],
      "stateMutability": "nonpayable",
      "type": "function"
    }
  ],
  "bytecode": "0x608060405260016007553480156200001657600080fd5b506040518060400160405280600d81526020017f582d6e75636c656f6e2d434658000000000000000000000000000000000000008152506040518060400160405280600481526020017f784346580000000000000000000000000000000000000000000000000000000081525081600390805190602001906200009b929190620000fe565b508060049080519060200190620000b4929190620000fe565b50505033600560006101000a81548173ffffffffffffffffffffffffffffffffffffffff021916908373ffffffffffffffffffffffffffffffffffffffff16021790555062000213565b8280546200010c90620001ae565b90600052602060002090601f0160209004810192826200013057600085556200017c565b82601f106200014b57805160ff19168380011785556200017c565b828001600101855582156200017c579182015b828111156200017b5782518255916020019190600101906200015e565b5b5090506200018b91906200018f565b5090565b5b80821115620001aa57600081600090555060010162000190565b5090565b60006002820490506001821680620001c757607f821691505b60208210811415620001de57620001dd620001e4565b5b50919050565b7f4e487b7100000000000000000000000000000000000000000000000000000000600052602260045260246000fd5b6120fd80620002236000396000f3fe608060405234801561001057600080fd5b50600436106101005760003560e01c80636039fbdb11610097578063983b2d5611610066578063983b2d561461029b578063a457c2d7146102b7578063a9059cbb146102e7578063dd62ed3e1461031757610100565b80636039fbdb1461022757806370a08231146102435780638129fc1c1461027357806395d89b411461027d57610100565b806323b872dd116100d357806323b872dd1461018d5780633092afd5146101bd578063313ce567146101d957806339509351146101f757610100565b806306fdde0314610105578063095ea7b3146101235780630d1118ce1461015357806318160ddd1461016f575b600080fd5b61010d610347565b60405161011a9190611840565b60405180910390f35b61013d60048036038101906101389190611553565b6103d9565b60405161014a9190611825565b60405180910390f35b61016d60048036038101906101689190611553565b6103f7565b005b610177610574565b6040516101849190611a62565b60405180910390f35b6101a760048036038101906101a29190611504565b61057e565b6040516101b49190611825565b60405180910390f35b6101d760048036038101906101d2919061149f565b610676565b005b6101e1610761565b6040516101ee9190611a7d565b60405180910390f35b610211600480360381019061020c9190611553565b61076a565b60405161021e9190611825565b60405180910390f35b610241600480360381019061023c9190611553565b610816565b005b61025d6004803603810190610258919061149f565b610948565b60405161026a9190611a62565b60405180910390f35b61027b610990565b005b6102856109d3565b6040516102929190611840565b60405180910390f35b6102b560048036038101906102b0919061149f565b610a65565b005b6102d160048036038101906102cc9190611553565b610b50565b6040516102de9190611825565b60405180910390f35b61030160048036038101906102fc9190611553565b610c3b565b60405161030e9190611825565b60405180910390f35b610331600480360381019061032c91906114c8565b610c59565b60405161033e9190611a62565b60405180910390f35b60606003805461035690611bc6565b80601f016020809104026020016040519081016040528092919081815260200182805461038290611bc6565b80156103cf5780601f106103a4576101008083540402835291602001916103cf565b820191906000526020600020905b8154815290600101906020018083116103b257829003601f168201915b5050505050905090565b60006103ed6103e6610ce0565b8484610ce8565b6001905092915050565b60016007541461043c576040517f08c379a0000000000000000000000000000000000000000000000000000000008152600401610433906118c2565b60405180910390fd5b6000600781905550600660003373ffffffffffffffffffffffffffffffffffffffff1673ffffffffffffffffffffffffffffffffffffffff16815260200190815260200160002060009054906101000a900460ff166104d0576040517f08c379a00000000000000000000000000000000000000000000000000000000081526004016104c7906119e2565b60405180910390fd5b60008111610513576040517f08c379a000000000000000000000000000000000000000000000000000000000815260040161050a90611942565b60405180910390fd5b61051c33610948565b81111561055e576040517f08c379a000000000000000000000000000000000000000000000000000000000815260040161055590611882565b60405180910390fd5b6105688282610eb3565b60016007819055505050565b6000600254905090565b600061058b84848461108a565b6000600160008673ffffffffffffffffffffffffffffffffffffffff1673ffffffffffffffffffffffffffffffffffffffff16815260200190815260200160002060006105d6610ce0565b73ffffffffffffffffffffffffffffffffffffffff1673ffffffffffffffffffffffffffffffffffffffff16815260200190815260200160002054905082811015610656576040517f08c379a000000000000000000000000000000000000000000000000000000000815260040161064d90611982565b60405180910390fd5b61066a85610662610ce0565b858403610ce8565b60019150509392505050565b600560009054906101000a900473ffffffffffffffffffffffffffffffffffffffff1673ffffffffffffffffffffffffffffffffffffffff163373ffffffffffffffffffffffffffffffffffffffff1614610706576040517f08c379a00000000000000000000000000000000000000000000000000000000081526004016106fd90611962565b60405180910390fd5b6000600660008373ffffffffffffffffffffffffffffffffffffffff1673ffffffffffffffffffffffffffffffffffffffff16815260200190815260200160002060006101000a81548160ff02191690831515021790555050565b60006012905090565b600061080c610777610ce0565b848460016000610785610ce0565b73ffffffffffffffffffffffffffffffffffffffff1673ffffffffffffffffffffffffffffffffffffffff16815260200190815260200160002060008873ffffffffffffffffffffffffffffffffffffffff1673ffffffffffffffffffffffffffffffffffffffff168152602001908152602001600020546108079190611ab4565b610ce8565b6001905092915050565b60016007541461085b576040517f08c379a0000000000000000000000000000000000000000000000000000000008152600401610852906118c2565b60405180910390fd5b6000600781905550600660003373ffffffffffffffffffffffffffffffffffffffff1673ffffffffffffffffffffffffffffffffffffffff16815260200190815260200160002060009054906101000a900460ff166108ef576040517f08c379a00000000000000000000000000000000000000000000000000000000081526004016108e6906119e2565b60405180910390fd5b60008111610932576040517f08c379a0000000000000000000000000000000000000000000000000000000008152600401610929906118e2565b60405180910390fd5b61093c828261130b565b60016007819055505050565b60008060008373ffffffffffffffffffffffffffffffffffffffff1673ffffffffffffffffffffffffffffffffffffffff168152602001908152602001600020549050919050565b33600560006101000a81548173ffffffffffffffffffffffffffffffffffffffff021916908373ffffffffffffffffffffffffffffffffffffffff160217905550565b6060600480546109e290611bc6565b80601f0160208091040260200160405190810160405280929190818152602001828054610a0e90611bc6565b8015610a5b5780601f10610a3057610100808354040283529160200191610a5b565b820191906000526020600020905b815481529060010190602001808311610a3e57829003601f168201915b5050505050905090565b600560009054906101000a900473ffffffffffffffffffffffffffffffffffffffff1673ffffffffffffffffffffffffffffffffffffffff163373ffffffffffffffffffffffffffffffffffffffff1614610af5576040517f08c379a0000000000000000000000000000000000000000000000000000000008152600401610aec90611962565b60405180910390fd5b6001600660008373ffffffffffffffffffffffffffffffffffffffff1673ffffffffffffffffffffffffffffffffffffffff16815260200190815260200160002060006101000a81548160ff02191690831515021790555050565b60008060016000610b5f610ce0565b73ffffffffffffffffffffffffffffffffffffffff1673ffffffffffffffffffffffffffffffffffffffff16815260200190815260200160002060008573ffffffffffffffffffffffffffffffffffffffff1673ffffffffffffffffffffffffffffffffffffffff16815260200190815260200160002054905082811015610c1c576040517f08c379a0000000000000000000000000000000000000000000000000000000008152600401610c1390611a22565b60405180910390fd5b610c30610c27610ce0565b85858403610ce8565b600191505092915050565b6000610c4f610c48610ce0565b848461108a565b6001905092915050565b6000600160008473ffffffffffffffffffffffffffffffffffffffff1673ffffffffffffffffffffffffffffffffffffffff16815260200190815260200160002060008373ffffffffffffffffffffffffffffffffffffffff1673ffffffffffffffffffffffffffffffffffffffff16815260200190815260200160002054905092915050565b600033905090565b600073ffffffffffffffffffffffffffffffffffffffff168373ffffffffffffffffffffffffffffffffffffffff161415610d58576040517f08c379a0000000000000000000000000000000000000000000000000000000008152600401610d4f90611a02565b60405180910390fd5b600073ffffffffffffffffffffffffffffffffffffffff168273ffffffffffffffffffffffffffffffffffffffff161415610dc8576040517f08c379a0000000000000000000000000000000000000000000000000000000008152600401610dbf90611902565b60405180910390fd5b80600160008573ffffffffffffffffffffffffffffffffffffffff1673ffffffffffffffffffffffffffffffffffffffff16815260200190815260200160002060008473ffffffffffffffffffffffffffffffffffffffff1673ffffffffffffffffffffffffffffffffffffffff168152602001908152602001600020819055508173ffffffffffffffffffffffffffffffffffffffff168373ffffffffffffffffffffffffffffffffffffffff167f8c5be1e5ebec7d5bd14f71427d1e84f3dd0314c0f7b2291e5b200ac8c7c3b92583604051610ea69190611a62565b60405180910390a3505050565b600073ffffffffffffffffffffffffffffffffffffffff168273ffffffffffffffffffffffffffffffffffffffff161415610f23576040517f08c379a0000000000000000000000000000000000000000000000000000000008152600401610f1a906119a2565b60405180910390fd5b610f2f8260008361146b565b60008060008473ffffffffffffffffffffffffffffffffffffffff1673ffffffffffffffffffffffffffffffffffffffff16815260200190815260200160002054905081811015610fb5576040517f08c379a0000000000000000000000000000000000000000000000000000000008152600401610fac906118a2565b60405180910390fd5b8181036000808573ffffffffffffffffffffffffffffffffffffffff1673ffffffffffffffffffffffffffffffffffffffff16815260200190815260200160002081905550816002600082825461100c9190611b0a565b92505081905550600073ffffffffffffffffffffffffffffffffffffffff168373ffffffffffffffffffffffffffffffffffffffff167fddf252ad1be2c89b69c2b068fc378daa952ba7f163c4a11628f55a4df523b3ef846040516110719190611a62565b60405180910390a361108583600084611470565b505050565b600073ffffffffffffffffffffffffffffffffffffffff168373ffffffffffffffffffffffffffffffffffffffff1614156110fa576040517f08c379a00000000000000000000000000000000000000000000000000000000081526004016110f1906119c2565b60405180910390fd5b600073ffffffffffffffffffffffffffffffffffffffff168273ffffffffffffffffffffffffffffffffffffffff16141561116a576040517f08c379a000000000000000000000000000000000000000000000000000000000815260040161116190611862565b60405180910390fd5b61117583838361146b565b60008060008573ffffffffffffffffffffffffffffffffffffffff1673ffffffffffffffffffffffffffffffffffffffff168152602001908152602001600020549050818110156111fb576040517f08c379a00000000000000000000000000000000000000000000000000000000081526004016111f290611922565b60405180910390fd5b8181036000808673ffffffffffffffffffffffffffffffffffffffff1673ffffffffffffffffffffffffffffffffffffffff16815260200190815260200160002081905550816000808573ffffffffffffffffffffffffffffffffffffffff1673ffffffffffffffffffffffffffffffffffffffff168152602001908152602001600020600082825461128e9190611ab4565b925050819055508273ffffffffffffffffffffffffffffffffffffffff168473ffffffffffffffffffffffffffffffffffffffff167fddf252ad1be2c89b69c2b068fc378daa952ba7f163c4a11628f55a4df523b3ef846040516112f29190611a62565b60405180910390a3611305848484611470565b50505050565b600073ffffffffffffffffffffffffffffffffffffffff168273ffffffffffffffffffffffffffffffffffffffff16141561137b576040517f08c379a000000000000000000000000000000000000000000000000000000000815260040161137290611a42565b60405180910390fd5b6113876000838361146b565b80600260008282546113999190611ab4565b92505081905550806000808473ffffffffffffffffffffffffffffffffffffffff1673ffffffffffffffffffffffffffffffffffffffff16815260200190815260200160002060008282546113ee9190611ab4565b925050819055508173ffffffffffffffffffffffffffffffffffffffff16600073ffffffffffffffffffffffffffffffffffffffff167fddf252ad1be2c89b69c2b068fc378daa952ba7f163c4a11628f55a4df523b3ef836040516114539190611a62565b60405180910390a361146760008383611470565b5050565b505050565b505050565b60008135905061148481612099565b92915050565b600081359050611499816120b0565b92915050565b6000602082840312156114b157600080fd5b60006114bf84828501611475565b91505092915050565b600080604083850312156114db57600080fd5b60006114e985828601611475565b92505060206114fa85828601611475565b9150509250929050565b60008060006060848603121561151957600080fd5b600061152786828701611475565b935050602061153886828701611475565b92505060406115498682870161148a565b9150509250925092565b6000806040838503121561156657600080fd5b600061157485828601611475565b92505060206115858582860161148a565b9150509250929050565b61159881611b50565b82525050565b60006115a982611a98565b6115b38185611aa3565b93506115c3818560208601611b93565b6115cc81611c56565b840191505092915050565b60006115e4602383611aa3565b91506115ef82611c67565b604082019050919050565b6000611607601683611aa3565b915061161282611cb6565b602082019050919050565b600061162a602283611aa3565b915061163582611cdf565b604082019050919050565b600061164d601a83611aa3565b915061165882611d2e565b602082019050919050565b6000611670600b83611aa3565b915061167b82611d57565b602082019050919050565b6000611693602283611aa3565b915061169e82611d80565b604082019050919050565b60006116b6602683611aa3565b91506116c182611dcf565b604082019050919050565b60006116d9600c83611aa3565b91506116e482611e1e565b602082019050919050565b60006116fc603883611aa3565b915061170782611e47565b604082019050919050565b600061171f602883611aa3565b915061172a82611e96565b604082019050919050565b6000611742602183611aa3565b915061174d82611ee5565b604082019050919050565b6000611765602583611aa3565b915061177082611f34565b604082019050919050565b6000611788603983611aa3565b915061179382611f83565b604082019050919050565b60006117ab602483611aa3565b91506117b682611fd2565b604082019050919050565b60006117ce602583611aa3565b91506117d982612021565b604082019050919050565b60006117f1601f83611aa3565b91506117fc82612070565b602082019050919050565b61181081611b7c565b82525050565b61181f81611b86565b82525050565b600060208201905061183a600083018461158f565b92915050565b6000602082019050818103600083015261185a818461159e565b905092915050565b6000602082019050818103600083015261187b816115d7565b9050919050565b6000602082019050818103600083015261189b816115fa565b9050919050565b600060208201905081810360008301526118bb8161161d565b9050919050565b600060208201905081810360008301526118db81611640565b9050919050565b600060208201905081810360008301526118fb81611663565b9050919050565b6000602082019050818103600083015261191b81611686565b9050919050565b6000602082019050818103600083015261193b816116a9565b9050919050565b6000602082019050818103600083015261195b816116cc565b9050919050565b6000602082019050818103600083015261197b816116ef565b9050919050565b6000602082019050818103600083015261199b81611712565b9050919050565b600060208201905081810360008301526119bb81611735565b9050919050565b600060208201905081810360008301526119db81611758565b9050919050565b600060208201905081810360008301526119fb8161177b565b9050919050565b60006020820190508181036000830152611a1b8161179e565b9050919050565b60006020820190508181036000830152611a3b816117c1565b9050919050565b60006020820190508181036000830152611a5b816117e4565b9050919050565b6000602082019050611a776000830184611807565b92915050565b6000602082019050611a926000830184611816565b92915050565b600081519050919050565b600082825260208201905092915050565b6000611abf82611b7c565b9150611aca83611b7c565b9250827fffffffffffffffffffffffffffffffffffffffffffffffffffffffffffffffff03821115611aff57611afe611bf8565b5b828201905092915050565b6000611b1582611b7c565b9150611b2083611b7c565b925082821015611b3357611b32611bf8565b5b828203905092915050565b6000611b4982611b5c565b9050919050565b60008115159050919050565b600073ffffffffffffffffffffffffffffffffffffffff82169050919050565b6000819050919050565b600060ff82169050919050565b60005b83811015611bb1578082015181840152602081019050611b96565b83811115611bc0576000848401525b50505050565b60006002820490506001821680611bde57607f821691505b60208210811415611bf257611bf1611c27565b5b50919050565b7f4e487b7100000000000000000000000000000000000000000000000000000000600052601160045260246000fd5b7f4e487b7100000000000000000000000000000000000000000000000000000000600052602260045260246000fd5b6000601f19601f8301169050919050565b7f45524332303a207472616e7366657220746f20746865207a65726f206164647260008201527f6573730000000000000000000000000000000000000000000000000000000000602082015250565b7f4d757374203c206163636f756e742062616c616e636500000000000000000000600082015250565b7f45524332303a206275726e20616d6f756e7420657863656564732062616c616e60008201527f6365000000000000000000000000000000000000000000000000000000000000602082015250565b7f74656d70206c6f636b65642c20776169742061206d6f6d656e74000000000000600082015250565b7f436f6e2774206164642030000000000000000000000000000000000000000000600082015250565b7f45524332303a20617070726f766520746f20746865207a65726f20616464726560008201527f7373000000000000000000000000000000000000000000000000000000000000602082015250565b7f45524332303a207472616e7366657220616d6f756e742065786365656473206260008201527f616c616e63650000000000000000000000000000000000000000000000000000602082015250565b7f436f6e2774206275726e20300000000000000000000000000000000000000000600082015250565b7f4f776e657220526f6c653a2063616c6c657220646f6573206e6f74206861766560008201527f20746865204f776e657220726f6c65206f722061626f76650000000000000000602082015250565b7f45524332303a207472616e7366657220616d6f756e742065786365656473206160008201527f6c6c6f77616e6365000000000000000000000000000000000000000000000000602082015250565b7f45524332303a206275726e2066726f6d20746865207a65726f2061646472657360008201527f7300000000000000000000000000000000000000000000000000000000000000602082015250565b7f45524332303a207472616e736665722066726f6d20746865207a65726f20616460008201527f6472657373000000000000000000000000000000000000000000000000000000602082015250565b7f4d696e746572526f6c653a2063616c6c657220646f6573206e6f74206861766560008201527f20746865204d696e74657220726f6c65206f722061626f766500000000000000602082015250565b7f45524332303a20617070726f76652066726f6d20746865207a65726f2061646460008201527f7265737300000000000000000000000000000000000000000000000000000000602082015250565b7f45524332303a2064656372656173656420616c6c6f77616e63652062656c6f7760008201527f207a65726f000000000000000000000000000000000000000000000000000000602082015250565b7f45524332303a206d696e7420746f20746865207a65726f206164647265737300600082015250565b6120a281611b3e565b81146120ad57600080fd5b50565b6120b981611b7c565b81146120c457600080fd5b5056fea26469706673582212202fcba26aaa52db4a2fbc66c793c39354239f8316fbdecf00c51ef99f1c8f402f64736f6c63430008020033",
  "immutableReferences": {},
  "source": "//SPDX-License-Identifier: BUSL-1.1\r\npragma solidity ^0.8.0;\r\nimport \"@openzeppelin/contracts/proxy/utils/Initializable.sol\";\r\nimport \"@openzeppelin/contracts/token/ERC20/ERC20.sol\";\r\n\r\ncontract XCFX is ERC20 {\r\n    // ======================== configs =========================\r\n    address owner;\r\n    mapping(address=>bool) mainMinter;\r\n    uint256 unlocked=1;\r\n    // ======================== Methods =========================\r\n    modifier onlyMinter() {\r\n        require(mainMinter[msg.sender], \"MinterRole: caller does not have the Minter role or above\");\r\n        _;\r\n    }\r\n    modifier onlyOwner() {\r\n        require(msg.sender==owner, \"Owner Role: caller does not have the Owner role or above\");\r\n        _;\r\n    }\r\n    modifier lock() {\r\n        require(unlocked==1, \"temp locked, wait a moment\");\r\n        unlocked = 0;\r\n        _;\r\n        unlocked = 1;\r\n    }\r\n    // ======================== constructor =========================\r\n    constructor() ERC20(\"X-nucleon-CFX\", \"xCFX\") {\r\n        owner = msg.sender;\r\n    }\r\n    function initialize() public {\r\n        owner = msg.sender;\r\n    }\r\n    // ======================== Owner function =========================\r\n    function addMinter(address _minter) public onlyOwner(){\r\n        mainMinter[_minter] = true;\r\n    }\r\n    function removeMinter(address _minter) public onlyOwner(){\r\n        mainMinter[_minter] = false;\r\n    }\r\n    // ======================== Minter function =========================\r\n    function addTokens(address _account, uint256 _value) external lock onlyMinter(){\r\n        require(_value>0,\"Con't add 0\");\r\n        //require( isContract(msg.sender) ,\"msg.sender must be a contract\");\r\n        _mint(_account, _value);\r\n    }\r\n    function burnTokens(address _account, uint256 _value) external lock onlyMinter(){\r\n        require(_value > 0,\"Con't burn 0\");\r\n        require(_value <= balanceOf(msg.sender),\"Must < account balance\");\r\n        //require( isContract(msg.sender) ,\"msg.sender must be a contract\");\r\n        _burn(_account, _value);\r\n    }\r\n    // ======================== require need function =========================\r\n    function isContract(address account) internal view returns (bool) {\r\n        // This method relies on extcodesize/address.code.length, which returns 0\r\n        // for contracts in construction, since the code is only stored at the end\r\n        // of the constructor execution.\r\n        return account.code.length > 0;\r\n    }\r\n\r\n}\r\n\r\n",
  "sourcePath": "C:\\Users\\artii\\Black IDE\\espace\\contracts\\XCFX.sol",
  "compiler": {
    "name": "solc",
    "version": "0.8.2+commit.661d1103.Emscripten.clang"
  },
  "schemaVersion": "3.4.3",
  "updatedAt": "2022-08-14T03:45:25.634Z",
  "devdoc": {
    "kind": "dev",
    "methods": {
      "allowance(address,address)": {
        "details": "See {IERC20-allowance}."
      },
      "approve(address,uint256)": {
        "details": "See {IERC20-approve}. Requirements: - `spender` cannot be the zero address."
      },
      "balanceOf(address)": {
        "details": "See {IERC20-balanceOf}."
      },
      "decimals()": {
        "details": "Returns the number of decimals used to get its user representation. For example, if `decimals` equals `2`, a balance of `505` tokens should be displayed to a user as `5,05` (`505 / 10 ** 2`). Tokens usually opt for a value of 18, imitating the relationship between Ether and Wei. This is the value {ERC20} uses, unless this function is overridden; NOTE: This information is only used for _display_ purposes: it in no way affects any of the arithmetic of the contract, including {IERC20-balanceOf} and {IERC20-transfer}."
      },
      "decreaseAllowance(address,uint256)": {
        "details": "Atomically decreases the allowance granted to `spender` by the caller. This is an alternative to {approve} that can be used as a mitigation for problems described in {IERC20-approve}. Emits an {Approval} event indicating the updated allowance. Requirements: - `spender` cannot be the zero address. - `spender` must have allowance for the caller of at least `subtractedValue`."
      },
      "increaseAllowance(address,uint256)": {
        "details": "Atomically increases the allowance granted to `spender` by the caller. This is an alternative to {approve} that can be used as a mitigation for problems described in {IERC20-approve}. Emits an {Approval} event indicating the updated allowance. Requirements: - `spender` cannot be the zero address."
      },
      "name()": {
        "details": "Returns the name of the token."
      },
      "symbol()": {
        "details": "Returns the symbol of the token, usually a shorter version of the name."
      },
      "totalSupply()": {
        "details": "See {IERC20-totalSupply}."
      },
      "transfer(address,uint256)": {
        "details": "See {IERC20-transfer}. Requirements: - `recipient` cannot be the zero address. - the caller must have a balance of at least `amount`."
      },
      "transferFrom(address,address,uint256)": {
        "details": "See {IERC20-transferFrom}. Emits an {Approval} event indicating the updated allowance. This is not required by the EIP. See the note at the beginning of {ERC20}. Requirements: - `sender` and `recipient` cannot be the zero address. - `sender` must have a balance of at least `amount`. - the caller must have allowance for ``sender``'s tokens of at least `amount`."
      }
    },
    "version": 1
  },
  "userdoc": {
    "kind": "user",
    "methods": {},
    "version": 1
  }
}