{
  "contractName": "XE_space_dice",
  "abi": [
    {
      "anonymous": false,
      "inputs": [
        {
          "indexed": true,
          "internalType": "address",
          "name": "previousOwner",
          "type": "address"
        },
        {
          "indexed": true,
          "internalType": "address",
          "name": "newOwner",
          "type": "address"
        }
      ],
      "name": "OwnershipTransferred",
      "type": "event"
    },
    {
      "inputs": [],
      "name": "owner",
      "outputs": [
        {
          "internalType": "address",
          "name": "",
          "type": "address"
        }
      ],
      "stateMutability": "view",
      "type": "function"
    },
    {
      "inputs": [],
      "name": "renounceOwnership",
      "outputs": [],
      "stateMutability": "nonpayable",
      "type": "function"
    },
    {
      "inputs": [
        {
          "internalType": "address",
          "name": "newOwner",
          "type": "address"
        }
      ],
      "name": "transferOwnership",
      "outputs": [],
      "stateMutability": "nonpayable",
      "type": "function"
    },
    {
      "inputs": [],
      "name": "initialize",
      "outputs": [],
      "stateMutability": "nonpayable",
      "type": "function"
    },
    {
      "inputs": [
        {
          "internalType": "bool",
          "name": "_state",
          "type": "bool"
        }
      ],
      "name": "Locking_by_Owner",
      "outputs": [],
      "stateMutability": "nonpayable",
      "type": "function"
    },
    {
      "inputs": [
        {
          "internalType": "uint256",
          "name": "_amount_in",
          "type": "uint256"
        },
        {
          "internalType": "uint256",
          "name": "_user_num",
          "type": "uint256"
        },
        {
          "internalType": "uint256",
          "name": "seed1",
          "type": "uint256"
        },
        {
          "internalType": "uint256",
          "name": "seed2",
          "type": "uint256"
        },
        {
          "internalType": "uint256",
          "name": "seed3",
          "type": "uint256"
        },
        {
          "internalType": "bytes32",
          "name": "key_of_seed",
          "type": "bytes32"
        }
      ],
      "name": "Start",
      "outputs": [
        {
          "internalType": "uint256",
          "name": "",
          "type": "uint256"
        }
      ],
      "stateMutability": "payable",
      "type": "function"
    },
    {
      "inputs": [
        {
          "internalType": "address",
          "name": "operator",
          "type": "address"
        },
        {
          "internalType": "address",
          "name": "from",
          "type": "address"
        },
        {
          "internalType": "address",
          "name": "to",
          "type": "address"
        },
        {
          "internalType": "uint256",
          "name": "amount",
          "type": "uint256"
        },
        {
          "internalType": "bytes",
          "name": "userData",
          "type": "bytes"
        },
        {
          "internalType": "bytes",
          "name": "operatorData",
          "type": "bytes"
        }
      ],
      "name": "tokensReceived",
      "outputs": [],
      "stateMutability": "nonpayable",
      "type": "function"
    }
  ],
  "bytecode": "0x60806040527388887ed889e776bcbe2f0f9932ecfabcdfcd1820600560016101000a81548173ffffffffffffffffffffffffffffffffffffffff021916908373ffffffffffffffffffffffffffffffffffffffff16021790555034801561006557600080fd5b5061008261007761008760201b60201c565b61008f60201b60201c565b610153565b600033905090565b60008060009054906101000a900473ffffffffffffffffffffffffffffffffffffffff169050816000806101000a81548173ffffffffffffffffffffffffffffffffffffffff021916908373ffffffffffffffffffffffffffffffffffffffff1602179055508173ffffffffffffffffffffffffffffffffffffffff168173ffffffffffffffffffffffffffffffffffffffff167f8be0079c531659141344cd1fd0a4f28419497f9722a3daafe3b4186f6b6457e060405160405180910390a35050565b6116b7806101626000396000f3fe60806040526004361061006f5760003560e01c8063715018a61161004e578063715018a6146100f65780638129fc1c1461010d5780638da5cb5b14610124578063f2fde38b1461014f5761006f565b806223de291461007457806344e29da91461009d5780635a9bc771146100cd575b600080fd5b34801561008057600080fd5b5061009b60048036038101906100969190610ed4565b610178565b005b6100b760048036038101906100b29190611025565b610182565b6040516100c49190611360565b60405180910390f35b3480156100d957600080fd5b506100f460048036038101906100ef9190610f97565b61088f565b005b34801561010257600080fd5b5061010b610928565b005b34801561011957600080fd5b506101226109b0565b005b34801561013057600080fd5b50610139610bd3565b60405161014691906111ee565b60405180910390f35b34801561015b57600080fd5b5061017660048036038101906101719190610eab565b610bfc565b005b5050505050505050565b6000801515600560009054906101000a900460ff161515146101d9576040517f08c379a00000000000000000000000000000000000000000000000000000000081526004016101d090611320565b60405180910390fd5b60016004541461021e576040517f08c379a000000000000000000000000000000000000000000000000000000000815260040161021590611340565b60405180910390fd5b60006004819055506000151561023333610cf4565b151514610275576040517f08c379a000000000000000000000000000000000000000000000000000000000815260040161026c906112c0565b60405180910390fd5b6000806000806000600160009054906101000a900473ffffffffffffffffffffffffffffffffffffffff1673ffffffffffffffffffffffffffffffffffffffff16634caa420d8b8b8b8b6040518563ffffffff1660e01b81526004016102de949392919061137b565b604080518083038186803b1580156102f557600080fd5b505afa158015610309573d6000803e3d6000fd5b505050506040513d601f19601f8201168201806040525081019061032d9190610fe9565b8094508192505050801561034f5760018561034891906113d1565b9450610431565b600360009054906101000a900473ffffffffffffffffffffffffffffffffffffffff1673ffffffffffffffffffffffffffffffffffffffff166323b872dd33600260009054906101000a900473ffffffffffffffffffffffffffffffffffffffff168f6040518463ffffffff1660e01b81526004016103d093929190611209565b602060405180830381600087803b1580156103ea57600080fd5b505af11580156103fe573d6000803e3d6000fd5b505050506040513d601f19601f820116820180604052508101906104229190610fc0565b5060009550505050505061087d565b600160009054906101000a900473ffffffffffffffffffffffffffffffffffffffff1673ffffffffffffffffffffffffffffffffffffffff1663b1d71982898b8d61047c91906113d1565b61048691906113d1565b6040518263ffffffff1660e01b81526004016104a29190611360565b604080518083038186803b1580156104b957600080fd5b505afa1580156104cd573d6000803e3d6000fd5b505050506040513d601f19601f820116820180604052508101906104f19190610fe9565b809350819250505080156105135760018561050c91906113d1565b94506105f5565b600360009054906101000a900473ffffffffffffffffffffffffffffffffffffffff1673ffffffffffffffffffffffffffffffffffffffff166323b872dd33600260009054906101000a900473ffffffffffffffffffffffffffffffffffffffff168f6040518463ffffffff1660e01b815260040161059493929190611209565b602060405180830381600087803b1580156105ae57600080fd5b505af11580156105c2573d6000803e3d6000fd5b505050506040513d601f19601f820116820180604052508101906105e69190610fc0565b5060009550505050505061087d565b600083141561063b5760778a61060b91906113d1565b60405160200161061b91906111d3565b6040516020818303038152906040528051906020012060001c93506106d8565b60018314156106815760ea8961065191906113d1565b60405160200161066191906111d3565b6040516020818303038152906040528051906020012060001c93506106d7565b60028314156106c8576101388861069891906113d1565b6040516020016106a891906111d3565b6040516020818303038152906040528051906020012060001c93506106d6565b60009550505050505061087d565b5b5b6002851415610874578a84141561079e57600360009054906101000a900473ffffffffffffffffffffffffffffffffffffffff1673ffffffffffffffffffffffffffffffffffffffff1663a9059cbb338e6040518363ffffffff1660e01b8152600401610746929190611277565b602060405180830381600087803b15801561076057600080fd5b505af1158015610774573d6000803e3d6000fd5b505050506040513d601f19601f820116820180604052508101906107989190610fc0565b50610873565b600360009054906101000a900473ffffffffffffffffffffffffffffffffffffffff1673ffffffffffffffffffffffffffffffffffffffff166323b872dd33600260009054906101000a900473ffffffffffffffffffffffffffffffffffffffff168f6040518463ffffffff1660e01b815260040161081f93929190611209565b602060405180830381600087803b15801561083957600080fd5b505af115801561084d573d6000803e3d6000fd5b505050506040513d601f19601f820116820180604052508101906108719190610fc0565b505b5b8b955050505050505b60016004819055509695505050505050565b610897610d17565b73ffffffffffffffffffffffffffffffffffffffff166108b5610bd3565b73ffffffffffffffffffffffffffffffffffffffff161461090b576040517f08c379a000000000000000000000000000000000000000000000000000000000815260040161090290611300565b60405180910390fd5b80600560006101000a81548160ff02191690831515021790555050565b610930610d17565b73ffffffffffffffffffffffffffffffffffffffff1661094e610bd3565b73ffffffffffffffffffffffffffffffffffffffff16146109a4576040517f08c379a000000000000000000000000000000000000000000000000000000000815260040161099b90611300565b60405180910390fd5b6109ae6000610d1f565b565b600060159054906101000a900460ff16806109d85750600060149054906101000a900460ff16155b610a17576040517f08c379a0000000000000000000000000000000000000000000000000000000008152600401610a0e906112e0565b60405180910390fd5b60008060159054906101000a900460ff161590508015610a68576001600060156101000a81548160ff0219169083151502179055506001600060146101000a81548160ff0219169083151502179055505b7388887ed889e776bcbe2f0f9932ecfabcdfcd1820600560016101000a81548173ffffffffffffffffffffffffffffffffffffffff021916908373ffffffffffffffffffffffffffffffffffffffff160217905550600560019054906101000a900473ffffffffffffffffffffffffffffffffffffffff1673ffffffffffffffffffffffffffffffffffffffff166329965a1d307fb281fc8c12954d22544db45de3159a39272895b169a852b314f9cc762e44c53b306040518463ffffffff1660e01b8152600401610b3c93929190611240565b600060405180830381600087803b158015610b5657600080fd5b505af1158015610b6a573d6000803e3d6000fd5b5050505030600260006101000a81548173ffffffffffffffffffffffffffffffffffffffff021916908373ffffffffffffffffffffffffffffffffffffffff1602179055508015610bd05760008060156101000a81548160ff0219169083151502179055505b50565b60008060009054906101000a900473ffffffffffffffffffffffffffffffffffffffff16905090565b610c04610d17565b73ffffffffffffffffffffffffffffffffffffffff16610c22610bd3565b73ffffffffffffffffffffffffffffffffffffffff1614610c78576040517f08c379a0000000000000000000000000000000000000000000000000000000008152600401610c6f90611300565b60405180910390fd5b600073ffffffffffffffffffffffffffffffffffffffff168173ffffffffffffffffffffffffffffffffffffffff161415610ce8576040517f08c379a0000000000000000000000000000000000000000000000000000000008152600401610cdf906112a0565b60405180910390fd5b610cf181610d1f565b50565b6000808273ffffffffffffffffffffffffffffffffffffffff163b119050919050565b600033905090565b60008060009054906101000a900473ffffffffffffffffffffffffffffffffffffffff169050816000806101000a81548173ffffffffffffffffffffffffffffffffffffffff021916908373ffffffffffffffffffffffffffffffffffffffff1602179055508173ffffffffffffffffffffffffffffffffffffffff168173ffffffffffffffffffffffffffffffffffffffff167f8be0079c531659141344cd1fd0a4f28419497f9722a3daafe3b4186f6b6457e060405160405180910390a35050565b600081359050610df281611625565b92915050565b600081359050610e078161163c565b92915050565b600081519050610e1c8161163c565b92915050565b600081359050610e3181611653565b92915050565b60008083601f840112610e4957600080fd5b8235905067ffffffffffffffff811115610e6257600080fd5b602083019150836001820283011115610e7a57600080fd5b9250929050565b600081359050610e908161166a565b92915050565b600081519050610ea58161166a565b92915050565b600060208284031215610ebd57600080fd5b6000610ecb84828501610de3565b91505092915050565b60008060008060008060008060c0898b031215610ef057600080fd5b6000610efe8b828c01610de3565b9850506020610f0f8b828c01610de3565b9750506040610f208b828c01610de3565b9650506060610f318b828c01610e81565b955050608089013567ffffffffffffffff811115610f4e57600080fd5b610f5a8b828c01610e37565b945094505060a089013567ffffffffffffffff811115610f7957600080fd5b610f858b828c01610e37565b92509250509295985092959890939650565b600060208284031215610fa957600080fd5b6000610fb784828501610df8565b91505092915050565b600060208284031215610fd257600080fd5b6000610fe084828501610e0d565b91505092915050565b60008060408385031215610ffc57600080fd5b600061100a85828601610e0d565b925050602061101b85828601610e96565b9150509250929050565b60008060008060008060c0878903121561103e57600080fd5b600061104c89828a01610e81565b965050602061105d89828a01610e81565b955050604061106e89828a01610e81565b945050606061107f89828a01610e81565b935050608061109089828a01610e81565b92505060a06110a189828a01610e22565b9150509295509295509295565b6110b781611427565b82525050565b6110c681611445565b82525050565b6110d581611483565b82525050565b60006110e86026836113c0565b91506110f3826114e3565b604082019050919050565b600061110b6012836113c0565b915061111682611532565b602082019050919050565b600061112e602e836113c0565b91506111398261155b565b604082019050919050565b60006111516020836113c0565b915061115c826115aa565b602082019050919050565b60006111746013836113c0565b915061117f826115d3565b602082019050919050565b6000611197600c836113c0565b91506111a2826115fc565b602082019050919050565b6111b681611479565b82525050565b6111cd6111c882611479565b61149d565b82525050565b60006111df82846111bc565b60208201915081905092915050565b600060208201905061120360008301846110ae565b92915050565b600060608201905061121e60008301866110ae565b61122b60208301856110ae565b61123860408301846111ad565b949350505050565b600060608201905061125560008301866110ae565b61126260208301856110cc565b61126f60408301846110ae565b949350505050565b600060408201905061128c60008301856110ae565b61129960208301846111ad565b9392505050565b600060208201905081810360008301526112b9816110db565b9050919050565b600060208201905081810360008301526112d9816110fe565b9050919050565b600060208201905081810360008301526112f981611121565b9050919050565b6000602082019050818103600083015261131981611144565b9050919050565b6000602082019050818103600083015261133981611167565b9050919050565b600060208201905081810360008301526113598161118a565b9050919050565b600060208201905061137560008301846111ad565b92915050565b600060808201905061139060008301876111ad565b61139d60208301866111ad565b6113aa60408301856111ad565b6113b760608301846110bd565b95945050505050565b600082825260208201905092915050565b60006113dc82611479565b91506113e783611479565b9250827fffffffffffffffffffffffffffffffffffffffffffffffffffffffffffffffff0382111561141c5761141b6114a7565b5b828201905092915050565b600061143282611459565b9050919050565b60008115159050919050565b6000819050919050565b6000819050919050565b600073ffffffffffffffffffffffffffffffffffffffff82169050919050565b6000819050919050565b60006114966114918361144f565b6114d6565b9050919050565b6000819050919050565b7f4e487b7100000000000000000000000000000000000000000000000000000000600052601160045260246000fd5b60008160001b9050919050565b7f4f776e61626c653a206e6577206f776e657220697320746865207a65726f206160008201527f6464726573730000000000000000000000000000000000000000000000000000602082015250565b7f43616e74206265206120436f6e74726163740000000000000000000000000000600082015250565b7f496e697469616c697a61626c653a20636f6e747261637420697320616c72656160008201527f647920696e697469616c697a6564000000000000000000000000000000000000602082015250565b7f4f776e61626c653a2063616c6c6572206973206e6f7420746865206f776e6572600082015250565b7f4c4f434b454420627920456d657267656e637900000000000000000000000000600082015250565b7f4c4f434b45442c20776169740000000000000000000000000000000000000000600082015250565b61162e81611427565b811461163957600080fd5b50565b61164581611439565b811461165057600080fd5b50565b61165c81611445565b811461166757600080fd5b50565b61167381611479565b811461167e57600080fd5b5056fea2646970667358221220ef1512007c0d67ad35edbf6327bf0881bafe5537d65a4e224e5f5191bf964a8664736f6c63430008020033",
  "immutableReferences": {},
  "source": "\r\n/*\r\nCopyright (c) [2022] [2022 Artii. All rights reserved.]\r\n[Mixed Multipool] is licensed under the Artii BSL v1.0\r\nYou can use this software according to the terms and conditions of the Artii BSL v1.0\r\nYou may obtain a copy of Artii BSL v1.0 at:\r\n    http://\r\nTHIS SOFTWARE IS PROVIDED ON AN \"AS IS\" BASIS, WITHOUT WARRANTIES OF ANY KIND, EITHER EXPRESS OR\r\nIMPLIED, INCLUDING BUT NOT LIMITED TO NON-INFRINGEMENT, MERCHANTABILITY OR FIT FOR A PARTICULAR\r\nPURPOSE.\r\nSee the Artii BSL v1.0 for more details.\r\n*/\r\n\r\n\r\npragma solidity ^0.8.0;\r\nimport \"@openzeppelin/contracts/utils/math/SafeMath.sol\";\r\nimport \"@openzeppelin/contracts/access/Ownable.sol\";\r\nimport \"@openzeppelin/contracts/token/ERC20/ERC20.sol\";\r\nimport \"@openzeppelin/contracts/token/ERC777/IERC777Recipient.sol\";\r\nimport \"@openzeppelin/contracts/utils/introspection/IERC1820Registry.sol\";\r\nimport \"@openzeppelin/contracts/proxy/utils/Initializable.sol\";\r\n//import \"@openzeppelin/contracts/utils/Address.sol\";\r\nimport \"./seed_verif.sol\";\r\n// interface seed_verification{\r\n//     function init_verify(uint256 seed1,uint256 seed2,uint256 seed3,bytes32 key_of_seed) external view returns (bool, uint256);\r\n//     function second_verify(uint256 verify_num) external view returns (bool, uint256);\r\n// }\r\n\r\ncontract XE_space_dice is IERC777Recipient, Ownable, Initializable{\r\n    using SafeMath for uint256;\r\n    address verifyaddress;\r\n    address this_addr;\r\n    address ERC20_addr;\r\n    uint256 unlocked;\r\n    bool owner_locking;\r\n\r\n    modifier lock() {\r\n        require(unlocked == 1, 'LOCKED, wait');\r\n        unlocked = 0;\r\n        _;\r\n        unlocked = 1;\r\n    }\r\n\r\n    modifier lockinglocking() {\r\n        require(owner_locking == false, 'LOCKED by Emergency');\r\n        _;\r\n    }\r\n\r\n    function isContract(address account) internal view returns (bool) {\r\n        // This method relies on extcodesize/address.code.length, which returns 0\r\n        // for contracts in construction, since the code is only stored at the end\r\n        // of the constructor execution.\r\n\r\n        return account.code.length > 0;\r\n    }\r\n\r\n    // keccak256(\"ERC777TokensRecipient\")\r\n    IERC1820Registry private _erc1820 = IERC1820Registry(0x88887eD889e776bCBe2f0f9932EcFaBcDfCd1820);\r\n    bytes32 constant private TOKENS_RECIPIENT_INTERFACE_HASH =\r\n        0xb281fc8c12954d22544db45de3159a39272895b169a852b314f9cc762e44c53b;\r\n    // constructor() ERC777(\"Artii Swap core\", \"ASWAP\", new address[](0)){\r\n    //     _erc1820.setInterfaceImplementer(address(this), TOKENS_RECIPIENT_INTERFACE_HASH, address(this));\r\n    //     this_addr = address(this);\r\n    // }\r\n\r\n    function initialize() public initializer {\r\n        _erc1820 = IERC1820Registry(0x88887eD889e776bCBe2f0f9932EcFaBcDfCd1820);\r\n        _erc1820.setInterfaceImplementer(address(this), \r\n                                     0xb281fc8c12954d22544db45de3159a39272895b169a852b314f9cc762e44c53b, \r\n                                     address(this));\r\n        this_addr = address(this);\r\n\r\n    }\r\n \r\n    function Locking_by_Owner(bool _state) public onlyOwner{\r\n        owner_locking = _state;\r\n    }\r\n    \r\n    function Start( uint256 _amount_in,\r\n                    uint256 _user_num,\r\n                    uint256 seed1,\r\n                    uint256 seed2,\r\n                    uint256 seed3,\r\n                    bytes32 key_of_seed) public payable lockinglocking lock returns(uint256){\r\n        require(isContract(msg.sender)==false,'Cant be a Contract');\r\n        //uint256 amount_out;\r\n        uint256 verify_account;\r\n        uint256 random_num;\r\n        uint256 choised_num;\r\n        uint256 id_num;\r\n        bool true_false;\r\n\r\n        (true_false,choised_num)=seed_veri(verifyaddress).init_verify( seed1,  seed2, seed3, key_of_seed);\r\n        if(true_false){\r\n            verify_account+=1;\r\n        }\r\n        else{\r\n            ERC20(ERC20_addr).transferFrom(msg.sender,this_addr,_amount_in);\r\n            return 0;\r\n        }\r\n        (true_false,id_num)=seed_veri(verifyaddress).second_verify(seed1+seed2+seed3);\r\n        if(true_false){\r\n            verify_account+=1;\r\n        }\r\n        else{\r\n            ERC20(ERC20_addr).transferFrom(msg.sender,this_addr,_amount_in);\r\n            return 0;\r\n        }\r\n        if(choised_num==0){\r\n            random_num=uint256(keccak256(abi.encodePacked(seed1+119)));\r\n        }\r\n        else if(choised_num==1){\r\n            random_num=uint256(keccak256(abi.encodePacked(seed2+234)));\r\n        }\r\n        else if(choised_num==2){\r\n            random_num=uint256(keccak256(abi.encodePacked(seed3+312)));\r\n        }\r\n        else{\r\n            return 0;\r\n        }\r\n        if(verify_account==2){\r\n            if(random_num==_user_num){\r\n                ERC20(ERC20_addr).transfer(msg.sender,_amount_in);\r\n            }\r\n            else{\r\n                ERC20(ERC20_addr).transferFrom(msg.sender,this_addr,_amount_in);\r\n            }\r\n        }\r\n        return _amount_in;\r\n    }\r\n\r\n    // ERC 777 ADD\r\n    function tokensReceived(\r\n      address operator,\r\n      address from,\r\n      address to,\r\n      uint amount,\r\n      bytes calldata userData,\r\n      bytes calldata operatorData\r\n    ) external override{\r\n    \r\n    }\r\n\r\n}\r\n",
  "sourcePath": "C:\\Users\\artii\\Black IDE\\espace\\contracts\\XEdice.sol",
  "compiler": {
    "name": "solc",
    "version": "0.8.2+commit.661d1103.Emscripten.clang"
  },
  "schemaVersion": "3.4.3",
  "updatedAt": "2022-06-16T16:59:41.532Z",
  "devdoc": {
    "kind": "dev",
    "methods": {
      "owner()": {
        "details": "Returns the address of the current owner."
      },
      "renounceOwnership()": {
        "details": "Leaves the contract without owner. It will not be possible to call `onlyOwner` functions anymore. Can only be called by the current owner. NOTE: Renouncing ownership will leave the contract without an owner, thereby removing any functionality that is only available to the owner."
      },
      "tokensReceived(address,address,address,uint256,bytes,bytes)": {
        "details": "Called by an {IERC777} token contract whenever tokens are being moved or created into a registered account (`to`). The type of operation is conveyed by `from` being the zero address or not. This call occurs _after_ the token contract's state is updated, so {IERC777-balanceOf}, etc., can be used to query the post-operation state. This function may revert to prevent the operation from being executed."
      },
      "transferOwnership(address)": {
        "details": "Transfers ownership of the contract to a new account (`newOwner`). Can only be called by the current owner."
      }
    },
    "version": 1
  },
  "userdoc": {
    "kind": "user",
    "methods": {},
    "version": 1
  }
}