{
  "contractName": "XVIP",
  "abi": [
    {
      "inputs": [],
      "stateMutability": "nonpayable",
      "type": "constructor"
    },
    {
      "anonymous": false,
      "inputs": [
        {
          "indexed": true,
          "internalType": "address",
          "name": "owner",
          "type": "address"
        },
        {
          "indexed": true,
          "internalType": "address",
          "name": "approved",
          "type": "address"
        },
        {
          "indexed": true,
          "internalType": "uint256",
          "name": "tokenId",
          "type": "uint256"
        }
      ],
      "name": "Approval",
      "type": "event"
    },
    {
      "anonymous": false,
      "inputs": [
        {
          "indexed": true,
          "internalType": "address",
          "name": "owner",
          "type": "address"
        },
        {
          "indexed": true,
          "internalType": "address",
          "name": "operator",
          "type": "address"
        },
        {
          "indexed": false,
          "internalType": "bool",
          "name": "approved",
          "type": "bool"
        }
      ],
      "name": "ApprovalForAll",
      "type": "event"
    },
    {
      "anonymous": false,
      "inputs": [
        {
          "indexed": false,
          "internalType": "address",
          "name": "_onwer",
          "type": "address"
        },
        {
          "indexed": false,
          "internalType": "uint256",
          "name": "_tokenId",
          "type": "uint256"
        }
      ],
      "name": "BurnXVip",
      "type": "event"
    },
    {
      "anonymous": false,
      "inputs": [
        {
          "indexed": false,
          "internalType": "address",
          "name": "_onwer",
          "type": "address"
        },
        {
          "indexed": false,
          "internalType": "uint256",
          "name": "_tokenId",
          "type": "uint256"
        },
        {
          "indexed": false,
          "internalType": "string",
          "name": "metedate",
          "type": "string"
        }
      ],
      "name": "MintXVip",
      "type": "event"
    },
    {
      "anonymous": false,
      "inputs": [
        {
          "indexed": true,
          "internalType": "address",
          "name": "previousOwner",
          "type": "address"
        },
        {
          "indexed": true,
          "internalType": "address",
          "name": "newOwner",
          "type": "address"
        }
      ],
      "name": "OwnershipTransferred",
      "type": "event"
    },
    {
      "anonymous": false,
      "inputs": [
        {
          "indexed": true,
          "internalType": "address",
          "name": "from",
          "type": "address"
        },
        {
          "indexed": true,
          "internalType": "address",
          "name": "to",
          "type": "address"
        },
        {
          "indexed": true,
          "internalType": "uint256",
          "name": "tokenId",
          "type": "uint256"
        }
      ],
      "name": "Transfer",
      "type": "event"
    },
    {
      "inputs": [
        {
          "internalType": "address",
          "name": "to",
          "type": "address"
        },
        {
          "internalType": "uint256",
          "name": "tokenId",
          "type": "uint256"
        }
      ],
      "name": "approve",
      "outputs": [],
      "stateMutability": "nonpayable",
      "type": "function"
    },
    {
      "inputs": [
        {
          "internalType": "address",
          "name": "owner",
          "type": "address"
        }
      ],
      "name": "balanceOf",
      "outputs": [
        {
          "internalType": "uint256",
          "name": "",
          "type": "uint256"
        }
      ],
      "stateMutability": "view",
      "type": "function"
    },
    {
      "inputs": [
        {
          "internalType": "uint256",
          "name": "tokenId",
          "type": "uint256"
        }
      ],
      "name": "getApproved",
      "outputs": [
        {
          "internalType": "address",
          "name": "",
          "type": "address"
        }
      ],
      "stateMutability": "view",
      "type": "function"
    },
    {
      "inputs": [
        {
          "internalType": "address",
          "name": "owner",
          "type": "address"
        },
        {
          "internalType": "address",
          "name": "operator",
          "type": "address"
        }
      ],
      "name": "isApprovedForAll",
      "outputs": [
        {
          "internalType": "bool",
          "name": "",
          "type": "bool"
        }
      ],
      "stateMutability": "view",
      "type": "function"
    },
    {
      "inputs": [],
      "name": "name",
      "outputs": [
        {
          "internalType": "string",
          "name": "",
          "type": "string"
        }
      ],
      "stateMutability": "view",
      "type": "function"
    },
    {
      "inputs": [],
      "name": "owner",
      "outputs": [
        {
          "internalType": "address",
          "name": "",
          "type": "address"
        }
      ],
      "stateMutability": "view",
      "type": "function"
    },
    {
      "inputs": [
        {
          "internalType": "uint256",
          "name": "tokenId",
          "type": "uint256"
        }
      ],
      "name": "ownerOf",
      "outputs": [
        {
          "internalType": "address",
          "name": "",
          "type": "address"
        }
      ],
      "stateMutability": "view",
      "type": "function"
    },
    {
      "inputs": [
        {
          "internalType": "uint256",
          "name": "",
          "type": "uint256"
        },
        {
          "internalType": "uint256",
          "name": "",
          "type": "uint256"
        }
      ],
      "name": "ownerOfAddress",
      "outputs": [
        {
          "internalType": "address",
          "name": "",
          "type": "address"
        }
      ],
      "stateMutability": "view",
      "type": "function"
    },
    {
      "inputs": [],
      "name": "renounceOwnership",
      "outputs": [],
      "stateMutability": "nonpayable",
      "type": "function"
    },
    {
      "inputs": [
        {
          "internalType": "address",
          "name": "from",
          "type": "address"
        },
        {
          "internalType": "address",
          "name": "to",
          "type": "address"
        },
        {
          "internalType": "uint256",
          "name": "tokenId",
          "type": "uint256"
        }
      ],
      "name": "safeTransferFrom",
      "outputs": [],
      "stateMutability": "nonpayable",
      "type": "function"
    },
    {
      "inputs": [
        {
          "internalType": "address",
          "name": "from",
          "type": "address"
        },
        {
          "internalType": "address",
          "name": "to",
          "type": "address"
        },
        {
          "internalType": "uint256",
          "name": "tokenId",
          "type": "uint256"
        },
        {
          "internalType": "bytes",
          "name": "_data",
          "type": "bytes"
        }
      ],
      "name": "safeTransferFrom",
      "outputs": [],
      "stateMutability": "nonpayable",
      "type": "function"
    },
    {
      "inputs": [
        {
          "internalType": "address",
          "name": "operator",
          "type": "address"
        },
        {
          "internalType": "bool",
          "name": "approved",
          "type": "bool"
        }
      ],
      "name": "setApprovalForAll",
      "outputs": [],
      "stateMutability": "nonpayable",
      "type": "function"
    },
    {
      "inputs": [
        {
          "internalType": "bytes4",
          "name": "interfaceId",
          "type": "bytes4"
        }
      ],
      "name": "supportsInterface",
      "outputs": [
        {
          "internalType": "bool",
          "name": "",
          "type": "bool"
        }
      ],
      "stateMutability": "view",
      "type": "function"
    },
    {
      "inputs": [],
      "name": "symbol",
      "outputs": [
        {
          "internalType": "string",
          "name": "",
          "type": "string"
        }
      ],
      "stateMutability": "view",
      "type": "function"
    },
    {
      "inputs": [
        {
          "internalType": "uint256",
          "name": "tokenId",
          "type": "uint256"
        }
      ],
      "name": "tokenURI",
      "outputs": [
        {
          "internalType": "string",
          "name": "",
          "type": "string"
        }
      ],
      "stateMutability": "view",
      "type": "function"
    },
    {
      "inputs": [
        {
          "internalType": "address",
          "name": "from",
          "type": "address"
        },
        {
          "internalType": "address",
          "name": "to",
          "type": "address"
        },
        {
          "internalType": "uint256",
          "name": "tokenId",
          "type": "uint256"
        }
      ],
      "name": "transferFrom",
      "outputs": [],
      "stateMutability": "nonpayable",
      "type": "function"
    },
    {
      "inputs": [
        {
          "internalType": "address",
          "name": "newOwner",
          "type": "address"
        }
      ],
      "name": "transferOwnership",
      "outputs": [],
      "stateMutability": "nonpayable",
      "type": "function"
    },
    {
      "inputs": [],
      "name": "initialize",
      "outputs": [],
      "stateMutability": "nonpayable",
      "type": "function"
    },
    {
      "inputs": [
        {
          "internalType": "uint256",
          "name": "_num",
          "type": "uint256"
        }
      ],
      "name": "set_start",
      "outputs": [],
      "stateMutability": "nonpayable",
      "type": "function"
    },
    {
      "inputs": [
        {
          "internalType": "address",
          "name": "_addr",
          "type": "address"
        }
      ],
      "name": "set_XETaddr",
      "outputs": [],
      "stateMutability": "nonpayable",
      "type": "function"
    },
    {
      "inputs": [],
      "name": "get_setting",
      "outputs": [
        {
          "internalType": "address",
          "name": "_addr",
          "type": "address"
        },
        {
          "internalType": "uint256",
          "name": "_num",
          "type": "uint256"
        }
      ],
      "stateMutability": "view",
      "type": "function"
    },
    {
      "inputs": [
        {
          "internalType": "string",
          "name": "tokenURI",
          "type": "string"
        }
      ],
      "name": "mint_xvip_1",
      "outputs": [
        {
          "internalType": "uint256",
          "name": "",
          "type": "uint256"
        }
      ],
      "stateMutability": "nonpayable",
      "type": "function"
    },
    {
      "inputs": [
        {
          "internalType": "string",
          "name": "tokenURI",
          "type": "string"
        }
      ],
      "name": "mint_xvip_2",
      "outputs": [
        {
          "internalType": "uint256",
          "name": "",
          "type": "uint256"
        }
      ],
      "stateMutability": "nonpayable",
      "type": "function"
    },
    {
      "inputs": [
        {
          "internalType": "string",
          "name": "tokenURI",
          "type": "string"
        }
      ],
      "name": "mint_xvip_3",
      "outputs": [
        {
          "internalType": "uint256",
          "name": "",
          "type": "uint256"
        }
      ],
      "stateMutability": "nonpayable",
      "type": "function"
    },
    {
      "inputs": [
        {
          "internalType": "uint256[]",
          "name": "_ids",
          "type": "uint256[]"
        },
        {
          "internalType": "string",
          "name": "tokenURI",
          "type": "string"
        }
      ],
      "name": "level_up_mint",
      "outputs": [
        {
          "internalType": "uint256",
          "name": "",
          "type": "uint256"
        }
      ],
      "stateMutability": "nonpayable",
      "type": "function"
    },
    {
      "inputs": [
        {
          "internalType": "address",
          "name": "owner",
          "type": "address"
        }
      ],
      "name": "tokenOf",
      "outputs": [
        {
          "internalType": "uint256[]",
          "name": "",
          "type": "uint256[]"
        }
      ],
      "stateMutability": "view",
      "type": "function"
    },
    {
      "inputs": [
        {
          "internalType": "string",
          "name": "_uri",
          "type": "string"
        }
      ],
      "name": "set_baseURI",
      "outputs": [],
      "stateMutability": "nonpayable",
      "type": "function"
    },
    {
      "inputs": [
        {
          "internalType": "address",
          "name": "_owner",
          "type": "address"
        }
      ],
      "name": "Maxlevelof",
      "outputs": [
        {
          "internalType": "uint256",
          "name": "",
          "type": "uint256"
        }
      ],
      "stateMutability": "view",
      "type": "function"
    }
  ],
  "bytecode": "0x60806040523480156200001157600080fd5b506040518060400160405280601281526020017f582d4520737061636520564950204361726400000000000000000000000000008152506040518060400160405280600481526020017f5856495000000000000000000000000000000000000000000000000000000000815250816000908051906020019062000096929190620001c0565b508060019080519060200190620000af929190620001c0565b505050620000d2620000c6620000f260201b60201c565b620000fa60201b60201c565b60006008819055506103e8600981905550612710600a81905550620002d5565b600033905090565b6000600760009054906101000a900473ffffffffffffffffffffffffffffffffffffffff16905081600760006101000a81548173ffffffffffffffffffffffffffffffffffffffff021916908373ffffffffffffffffffffffffffffffffffffffff1602179055508173ffffffffffffffffffffffffffffffffffffffff168173ffffffffffffffffffffffffffffffffffffffff167f8be0079c531659141344cd1fd0a4f28419497f9722a3daafe3b4186f6b6457e060405160405180910390a35050565b828054620001ce9062000270565b90600052602060002090601f016020900481019282620001f257600085556200023e565b82601f106200020d57805160ff19168380011785556200023e565b828001600101855582156200023e579182015b828111156200023d57825182559160200191906001019062000220565b5b5090506200024d919062000251565b5090565b5b808211156200026c57600081600090555060010162000252565b5090565b600060028204905060018216806200028957607f821691505b60208210811415620002a0576200029f620002a6565b5b50919050565b7f4e487b7100000000000000000000000000000000000000000000000000000000600052602260045260246000fd5b61502080620002e56000396000f3fe608060405234801561001057600080fd5b50600436106101c45760003560e01c8063715018a6116100f9578063a01a095311610097578063b88d4fde11610071578063b88d4fde1461052a578063c87b56dd14610546578063e985e9c514610576578063f2fde38b146105a6576101c4565b8063a01a0953146104c2578063a22cb465146104f2578063afa570401461050e576101c4565b80638bffd1db116100d35780638bffd1db146104265780638da5cb5b14610456578063940b01551461047457806395d89b41146104a4576101c4565b8063715018a6146103e25780637ea0abe7146103ec5780638129fc1c1461041c576101c4565b806330d67cb51161016657806354f79dbc1161014057806354f79dbc146103335780635a7d188a146103525780636352211e1461038257806370a08231146103b2576101c4565b806330d67cb5146102cb57806342842e0e146102e757806342ec38e214610303576101c4565b8063095ea7b3116101a2578063095ea7b31461024757806323b872dd1461026357806327250d541461027f5780632f759999146102af576101c4565b806301ffc9a7146101c957806306fdde03146101f9578063081812fc14610217575b600080fd5b6101e360048036038101906101de91906138e5565b6105c2565b6040516101f091906140c9565b60405180910390f35b6102016106a4565b60405161020e91906140e4565b60405180910390f35b610231600480360381019061022c9190613978565b610736565b60405161023e9190613f34565b60405180910390f35b610261600480360381019061025c9190613814565b6107bb565b005b61027d6004803603810190610278919061370e565b6108d3565b005b61029960048036038101906102949190613850565b610933565b6040516102a69190614466565b60405180910390f35b6102c960048036038101906102c491906136a9565b611008565b005b6102e560048036038101906102e09190613978565b6110c8565b005b61030160048036038101906102fc919061370e565b61114e565b005b61031d600480360381019061031891906136a9565b61116e565b60405161032a91906140a7565b60405180910390f35b61033b611205565b604051610349929190614040565b60405180910390f35b61036c600480360381019061036791906139a1565b611236565b6040516103799190613f34565b60405180910390f35b61039c60048036038101906103979190613978565b611284565b6040516103a99190613f34565b60405180910390f35b6103cc60048036038101906103c791906136a9565b611336565b6040516103d99190614466565b60405180910390f35b6103ea6113ee565b005b610406600480360381019061040191906136a9565b611476565b6040516104139190614466565b60405180910390f35b6104246114bf565b005b610440600480360381019061043b9190613937565b61159d565b60405161044d9190614466565b60405180910390f35b61045e611849565b60405161046b9190613f34565b60405180910390f35b61048e60048036038101906104899190613937565b611873565b60405161049b9190614466565b60405180910390f35b6104ac611b1f565b6040516104b991906140e4565b60405180910390f35b6104dc60048036038101906104d79190613937565b611bb1565b6040516104e99190614466565b60405180910390f35b61050c600480360381019061050791906137d8565b611e5c565b005b61052860048036038101906105239190613937565b611fdd565b005b610544600480360381019061053f919061375d565b612073565b005b610560600480360381019061055b9190613978565b6120d5565b60405161056d91906140e4565b60405180910390f35b610590600480360381019061058b91906136d2565b612227565b60405161059d91906140c9565b60405180910390f35b6105c060048036038101906105bb91906136a9565b6122bb565b005b60007f80ac58cd000000000000000000000000000000000000000000000000000000007bffffffffffffffffffffffffffffffffffffffffffffffffffffffff1916827bffffffffffffffffffffffffffffffffffffffffffffffffffffffff1916148061068d57507f5b5e139f000000000000000000000000000000000000000000000000000000007bffffffffffffffffffffffffffffffffffffffffffffffffffffffff1916827bffffffffffffffffffffffffffffffffffffffffffffffffffffffff1916145b8061069d575061069c826123b3565b5b9050919050565b6060600080546106b390614757565b80601f01602080910402602001604051908101604052809291908181526020018280546106df90614757565b801561072c5780601f106107015761010080835404028352916020019161072c565b820191906000526020600020905b81548152906001019060200180831161070f57829003601f168201915b5050505050905090565b60006107418261241d565b610780576040517f08c379a0000000000000000000000000000000000000000000000000000000008152600401610777906142c6565b60405180910390fd5b6004600083815260200190815260200160002060009054906101000a900473ffffffffffffffffffffffffffffffffffffffff169050919050565b60006107c682611284565b90508073ffffffffffffffffffffffffffffffffffffffff168373ffffffffffffffffffffffffffffffffffffffff161415610837576040517f08c379a000000000000000000000000000000000000000000000000000000000815260040161082e90614386565b60405180910390fd5b8073ffffffffffffffffffffffffffffffffffffffff16610856612489565b73ffffffffffffffffffffffffffffffffffffffff16148061088557506108848161087f612489565b612227565b5b6108c4576040517f08c379a00000000000000000000000000000000000000000000000000000000081526004016108bb906141e6565b60405180910390fd5b6108ce8383612491565b505050565b6108e46108de612489565b8261254a565b610923576040517f08c379a000000000000000000000000000000000000000000000000000000000815260040161091a906143c6565b60405180910390fd5b61092e838383612628565b505050565b60006003600b541461097a576040517f08c379a0000000000000000000000000000000000000000000000000000000008152600401610971906143a6565b60405180910390fd5b600c8351146109be576040517f08c379a00000000000000000000000000000000000000000000000000000000081526004016109b590614426565b60405180910390fd5b60006103e8846000815181106109fd577f4e487b7100000000000000000000000000000000000000000000000000000000600052603260045260246000fd5b6020026020010151118015610a54575061271084600081518110610a4a577f4e487b7100000000000000000000000000000000000000000000000000000000600052603260045260246000fd5b6020026020010151105b15610d07576103e760085410610a9f576040517f08c379a0000000000000000000000000000000000000000000000000000000008152600401610a9690614366565b60405180910390fd5b6000600190505b600c811015610b93576103e8858281518110610aeb577f4e487b7100000000000000000000000000000000000000000000000000000000600052603260045260246000fd5b6020026020010151118015610b415750612710858281518110610b37577f4e487b7100000000000000000000000000000000000000000000000000000000600052603260045260246000fd5b6020026020010151105b610b80576040517f08c379a0000000000000000000000000000000000000000000000000000000008152600401610b77906141a6565b60405180910390fd5b8080610b8b906147ba565b915050610aa6565b506000600190505b600c811015610c0057610bed858281518110610be0577f4e487b7100000000000000000000000000000000000000000000000000000000600052603260045260246000fd5b6020026020010151612884565b8080610bf8906147ba565b915050610b9b565b50600160086000828254610c1491906145b0565b925050819055506008549050610c2a33826128d7565b6001600f60003373ffffffffffffffffffffffffffffffffffffffff1673ffffffffffffffffffffffffffffffffffffffff168152602001908152602001600020541080610cb757506001600f60003373ffffffffffffffffffffffffffffffffffffffff1673ffffffffffffffffffffffffffffffffffffffff16815260200190815260200160002054115b15610d02576001600f60003373ffffffffffffffffffffffffffffffffffffffff1673ffffffffffffffffffffffffffffffffffffffff168152602001908152602001600020819055505b610fb0565b61271084600081518110610d44577f4e487b7100000000000000000000000000000000000000000000000000000000600052603260045260246000fd5b60200260200101511115610faf5761270f60095410610d98576040517f08c379a0000000000000000000000000000000000000000000000000000000008152600401610d8f90614366565b60405180910390fd5b6000600190505b600c811015610e3f57612710858281518110610de4577f4e487b7100000000000000000000000000000000000000000000000000000000600052603260045260246000fd5b602002602001015111610e2c576040517f08c379a0000000000000000000000000000000000000000000000000000000008152600401610e23906141a6565b60405180910390fd5b8080610e37906147ba565b915050610d9f565b506000600190505b600c811015610eac57610e99858281518110610e8c577f4e487b7100000000000000000000000000000000000000000000000000000000600052603260045260246000fd5b6020026020010151612884565b8080610ea4906147ba565b915050610e47565b50600160096000828254610ec091906145b0565b925050819055506009549050610ed633826128d7565b6001600f60003373ffffffffffffffffffffffffffffffffffffffff1673ffffffffffffffffffffffffffffffffffffffff168152602001908152602001600020541080610f6357506002600f60003373ffffffffffffffffffffffffffffffffffffffff1673ffffffffffffffffffffffffffffffffffffffff16815260200190815260200160002054115b15610fae576002600f60003373ffffffffffffffffffffffffffffffffffffffff1673ffffffffffffffffffffffffffffffffffffffff168152602001908152602001600020819055505b5b5b610fb981612aa5565b610fc33382612aee565b7f0e4816f68e3177f806c4f4ce520a4b63db7e8ff778b423ad12f90e8d9b7d5756338285604051610ff693929190614069565b60405180910390a18091505092915050565b611010612489565b73ffffffffffffffffffffffffffffffffffffffff1661102e611849565b73ffffffffffffffffffffffffffffffffffffffff1614611084576040517f08c379a000000000000000000000000000000000000000000000000000000000815260040161107b906142e6565b60405180910390fd5b80600d60006101000a81548173ffffffffffffffffffffffffffffffffffffffff021916908373ffffffffffffffffffffffffffffffffffffffff16021790555050565b6110d0612489565b73ffffffffffffffffffffffffffffffffffffffff166110ee611849565b73ffffffffffffffffffffffffffffffffffffffff1614611144576040517f08c379a000000000000000000000000000000000000000000000000000000000815260040161113b906142e6565b60405180910390fd5b80600b8190555050565b61116983838360405180602001604052806000815250612073565b505050565b6060601060008373ffffffffffffffffffffffffffffffffffffffff1673ffffffffffffffffffffffffffffffffffffffff1681526020019081526020016000208054806020026020016040519081016040528092919081815260200182805480156111f957602002820191906000526020600020905b8154815260200190600101908083116111e5575b50505050509050919050565b600080600d60009054906101000a900473ffffffffffffffffffffffffffffffffffffffff16600b54915091509091565b6014602052816000526040600020818154811061125257600080fd5b906000526020600020016000915091509054906101000a900473ffffffffffffffffffffffffffffffffffffffff1681565b6000806002600084815260200190815260200160002060009054906101000a900473ffffffffffffffffffffffffffffffffffffffff169050600073ffffffffffffffffffffffffffffffffffffffff168173ffffffffffffffffffffffffffffffffffffffff16141561132d576040517f08c379a000000000000000000000000000000000000000000000000000000000815260040161132490614226565b60405180910390fd5b80915050919050565b60008073ffffffffffffffffffffffffffffffffffffffff168273ffffffffffffffffffffffffffffffffffffffff1614156113a7576040517f08c379a000000000000000000000000000000000000000000000000000000000815260040161139e90614206565b60405180910390fd5b600360008373ffffffffffffffffffffffffffffffffffffffff1673ffffffffffffffffffffffffffffffffffffffff168152602001908152602001600020549050919050565b6113f6612489565b73ffffffffffffffffffffffffffffffffffffffff16611414611849565b73ffffffffffffffffffffffffffffffffffffffff161461146a576040517f08c379a0000000000000000000000000000000000000000000000000000000008152600401611461906142e6565b60405180910390fd5b6114746000612ca6565b565b6000600f60008373ffffffffffffffffffffffffffffffffffffffff1673ffffffffffffffffffffffffffffffffffffffff168152602001908152602001600020549050919050565b600760159054906101000a900460ff16806114e75750600760149054906101000a900460ff16155b611526576040517f08c379a000000000000000000000000000000000000000000000000000000000815260040161151d90614266565b60405180910390fd5b6000600760159054906101000a900460ff161590508015611578576001600760156101000a81548160ff0219169083151502179055506001600760146101000a81548160ff0219169083151502179055505b801561159a576000600760156101000a81548160ff0219169083151502179055505b50565b60006003600b54146115e4576040517f08c379a00000000000000000000000000000000000000000000000000000000081526004016115db906143a6565b60405180910390fd5b620186a0600a541061162b576040517f08c379a000000000000000000000000000000000000000000000000000000000815260040161162290614346565b60405180910390fd5b6001600a600082825461163e91906145b0565b92505081905550600d60009054906101000a900473ffffffffffffffffffffffffffffffffffffffff1673ffffffffffffffffffffffffffffffffffffffff166323b872dd3330671bc16d674ec800006040518463ffffffff1660e01b81526004016116ac93929190613fbd565b602060405180830381600087803b1580156116c657600080fd5b505af11580156116da573d6000803e3d6000fd5b505050506040513d601f19601f820116820180604052508101906116fe91906138bc565b506000600a54905061170f81612aa5565b6117193382612aee565b61172333826128d7565b61172d8184612d6c565b6001600f60003373ffffffffffffffffffffffffffffffffffffffff1673ffffffffffffffffffffffffffffffffffffffff1681526020019081526020016000205410806117ba57506003600f60003373ffffffffffffffffffffffffffffffffffffffff1673ffffffffffffffffffffffffffffffffffffffff16815260200190815260200160002054115b15611805576003600f60003373ffffffffffffffffffffffffffffffffffffffff1673ffffffffffffffffffffffffffffffffffffffff168152602001908152602001600020819055505b7f0e4816f68e3177f806c4f4ce520a4b63db7e8ff778b423ad12f90e8d9b7d575633828560405161183893929190614069565b60405180910390a180915050919050565b6000600760009054906101000a900473ffffffffffffffffffffffffffffffffffffffff16905090565b60006002600b54146118ba576040517f08c379a00000000000000000000000000000000000000000000000000000000081526004016118b190614446565b60405180910390fd5b6105dc60095410611900576040517f08c379a00000000000000000000000000000000000000000000000000000000081526004016118f790614346565b60405180910390fd5b60016009600082825461191391906145b0565b92505081905550600d60009054906101000a900473ffffffffffffffffffffffffffffffffffffffff1673ffffffffffffffffffffffffffffffffffffffff166323b872dd33306801158e460913d000006040518463ffffffff1660e01b815260040161198293929190613f86565b602060405180830381600087803b15801561199c57600080fd5b505af11580156119b0573d6000803e3d6000fd5b505050506040513d601f19601f820116820180604052508101906119d491906138bc565b50600060095490506119e581612aa5565b6119ef3382612aee565b6119f933826128d7565b611a038184612d6c565b6001600f60003373ffffffffffffffffffffffffffffffffffffffff1673ffffffffffffffffffffffffffffffffffffffff168152602001908152602001600020541080611a9057506002600f60003373ffffffffffffffffffffffffffffffffffffffff1673ffffffffffffffffffffffffffffffffffffffff16815260200190815260200160002054115b15611adb576002600f60003373ffffffffffffffffffffffffffffffffffffffff1673ffffffffffffffffffffffffffffffffffffffff168152602001908152602001600020819055505b7f0e4816f68e3177f806c4f4ce520a4b63db7e8ff778b423ad12f90e8d9b7d5756338285604051611b0e93929190614069565b60405180910390a180915050919050565b606060018054611b2e90614757565b80601f0160208091040260200160405190810160405280929190818152602001828054611b5a90614757565b8015611ba75780601f10611b7c57610100808354040283529160200191611ba7565b820191906000526020600020905b815481529060010190602001808311611b8a57829003601f168201915b5050505050905090565b60006001600b5414611bf8576040517f08c379a0000000000000000000000000000000000000000000000000000000008152600401611bef906143e6565b60405180910390fd5b603260085410611c3d576040517f08c379a0000000000000000000000000000000000000000000000000000000008152600401611c3490614406565b60405180910390fd5b600160086000828254611c5091906145b0565b92505081905550600d60009054906101000a900473ffffffffffffffffffffffffffffffffffffffff1673ffffffffffffffffffffffffffffffffffffffff166323b872dd3330680ad78ebc5ac62000006040518463ffffffff1660e01b8152600401611cbf93929190613f4f565b602060405180830381600087803b158015611cd957600080fd5b505af1158015611ced573d6000803e3d6000fd5b505050506040513d601f19601f82011682018060405250810190611d1191906138bc565b5060006008549050611d2281612aa5565b611d2c3382612aee565b611d3633826128d7565b611d408184612d6c565b6001600f60003373ffffffffffffffffffffffffffffffffffffffff1673ffffffffffffffffffffffffffffffffffffffff168152602001908152602001600020541080611dcd57506001600f60003373ffffffffffffffffffffffffffffffffffffffff1673ffffffffffffffffffffffffffffffffffffffff16815260200190815260200160002054115b15611e18576001600f60003373ffffffffffffffffffffffffffffffffffffffff1673ffffffffffffffffffffffffffffffffffffffff168152602001908152602001600020819055505b7f0e4816f68e3177f806c4f4ce520a4b63db7e8ff778b423ad12f90e8d9b7d5756338285604051611e4b93929190614069565b60405180910390a180915050919050565b611e64612489565b73ffffffffffffffffffffffffffffffffffffffff168273ffffffffffffffffffffffffffffffffffffffff161415611ed2576040517f08c379a0000000000000000000000000000000000000000000000000000000008152600401611ec990614186565b60405180910390fd5b8060056000611edf612489565b73ffffffffffffffffffffffffffffffffffffffff1673ffffffffffffffffffffffffffffffffffffffff16815260200190815260200160002060008473ffffffffffffffffffffffffffffffffffffffff1673ffffffffffffffffffffffffffffffffffffffff16815260200190815260200160002060006101000a81548160ff0219169083151502179055508173ffffffffffffffffffffffffffffffffffffffff16611f8c612489565b73ffffffffffffffffffffffffffffffffffffffff167f17307eab39ab6107e8899845ad3d59bd9653f200f220920489ca2b5937696c3183604051611fd191906140c9565b60405180910390a35050565b611fe5612489565b73ffffffffffffffffffffffffffffffffffffffff16612003611849565b73ffffffffffffffffffffffffffffffffffffffff1614612059576040517f08c379a0000000000000000000000000000000000000000000000000000000008152600401612050906142e6565b60405180910390fd5b80600c908051906020019061206f9291906133e2565b5050565b61208461207e612489565b8361254a565b6120c3576040517f08c379a00000000000000000000000000000000000000000000000000000000081526004016120ba906143c6565b60405180910390fd5b6120cf84848484612de0565b50505050565b60606120e08261241d565b61211f576040517f08c379a0000000000000000000000000000000000000000000000000000000008152600401612116906142a6565b60405180910390fd5b600060066000848152602001908152602001600020805461213f90614757565b80601f016020809104026020016040519081016040528092919081815260200182805461216b90614757565b80156121b85780601f1061218d576101008083540402835291602001916121b8565b820191906000526020600020905b81548152906001019060200180831161219b57829003601f168201915b5050505050905060006121c9612e3c565b90506000815114156121df578192505050612222565b6000825111156122145780826040516020016121fc929190613f10565b60405160208183030381529060405292505050612222565b61221d84612ece565b925050505b919050565b6000600560008473ffffffffffffffffffffffffffffffffffffffff1673ffffffffffffffffffffffffffffffffffffffff16815260200190815260200160002060008373ffffffffffffffffffffffffffffffffffffffff1673ffffffffffffffffffffffffffffffffffffffff16815260200190815260200160002060009054906101000a900460ff16905092915050565b6122c3612489565b73ffffffffffffffffffffffffffffffffffffffff166122e1611849565b73ffffffffffffffffffffffffffffffffffffffff1614612337576040517f08c379a000000000000000000000000000000000000000000000000000000000815260040161232e906142e6565b60405180910390fd5b600073ffffffffffffffffffffffffffffffffffffffff168173ffffffffffffffffffffffffffffffffffffffff1614156123a7576040517f08c379a000000000000000000000000000000000000000000000000000000000815260040161239e90614126565b60405180910390fd5b6123b081612ca6565b50565b60007f01ffc9a7000000000000000000000000000000000000000000000000000000007bffffffffffffffffffffffffffffffffffffffffffffffffffffffff1916827bffffffffffffffffffffffffffffffffffffffffffffffffffffffff1916149050919050565b60008073ffffffffffffffffffffffffffffffffffffffff166002600084815260200190815260200160002060009054906101000a900473ffffffffffffffffffffffffffffffffffffffff1673ffffffffffffffffffffffffffffffffffffffff1614159050919050565b600033905090565b816004600083815260200190815260200160002060006101000a81548173ffffffffffffffffffffffffffffffffffffffff021916908373ffffffffffffffffffffffffffffffffffffffff160217905550808273ffffffffffffffffffffffffffffffffffffffff1661250483611284565b73ffffffffffffffffffffffffffffffffffffffff167f8c5be1e5ebec7d5bd14f71427d1e84f3dd0314c0f7b2291e5b200ac8c7c3b92560405160405180910390a45050565b60006125558261241d565b612594576040517f08c379a000000000000000000000000000000000000000000000000000000000815260040161258b906141c6565b60405180910390fd5b600061259f83611284565b90508073ffffffffffffffffffffffffffffffffffffffff168473ffffffffffffffffffffffffffffffffffffffff16148061260e57508373ffffffffffffffffffffffffffffffffffffffff166125f684610736565b73ffffffffffffffffffffffffffffffffffffffff16145b8061261f575061261e8185612227565b5b91505092915050565b8273ffffffffffffffffffffffffffffffffffffffff1661264882611284565b73ffffffffffffffffffffffffffffffffffffffff161461269e576040517f08c379a000000000000000000000000000000000000000000000000000000000815260040161269590614306565b60405180910390fd5b600073ffffffffffffffffffffffffffffffffffffffff168273ffffffffffffffffffffffffffffffffffffffff16141561270e576040517f08c379a000000000000000000000000000000000000000000000000000000000815260040161270590614166565b60405180910390fd5b612719838383612f75565b612724600082612491565b6001600360008573ffffffffffffffffffffffffffffffffffffffff1673ffffffffffffffffffffffffffffffffffffffff16815260200190815260200160002060008282546127749190614637565b925050819055506001600360008473ffffffffffffffffffffffffffffffffffffffff1673ffffffffffffffffffffffffffffffffffffffff16815260200190815260200160002060008282546127cb91906145b0565b92505081905550816002600083815260200190815260200160002060006101000a81548173ffffffffffffffffffffffffffffffffffffffff021916908373ffffffffffffffffffffffffffffffffffffffff160217905550808273ffffffffffffffffffffffffffffffffffffffff168473ffffffffffffffffffffffffffffffffffffffff167fddf252ad1be2c89b69c2b068fc378daa952ba7f163c4a11628f55a4df523b3ef60405160405180910390a4505050565b61288d81612f7a565b60006006600083815260200190815260200160002080546128ad90614757565b9050146128d4576006600082815260200190815260200160002060006128d39190613468565b5b50565b600073ffffffffffffffffffffffffffffffffffffffff168273ffffffffffffffffffffffffffffffffffffffff161415612947576040517f08c379a000000000000000000000000000000000000000000000000000000000815260040161293e90614286565b60405180910390fd5b6129508161241d565b15612990576040517f08c379a000000000000000000000000000000000000000000000000000000000815260040161298790614146565b60405180910390fd5b61299c60008383612f75565b6001600360008473ffffffffffffffffffffffffffffffffffffffff1673ffffffffffffffffffffffffffffffffffffffff16815260200190815260200160002060008282546129ec91906145b0565b92505081905550816002600083815260200190815260200160002060006101000a81548173ffffffffffffffffffffffffffffffffffffffff021916908373ffffffffffffffffffffffffffffffffffffffff160217905550808273ffffffffffffffffffffffffffffffffffffffff16600073ffffffffffffffffffffffffffffffffffffffff167fddf252ad1be2c89b69c2b068fc378daa952ba7f163c4a11628f55a4df523b3ef60405160405180910390a45050565b6012805490506013600083815260200190815260200160002081905550601281908060018154018082558091505060019003906000526020600020016000909190919091505550565b601060008373ffffffffffffffffffffffffffffffffffffffff1673ffffffffffffffffffffffffffffffffffffffff168152602001908152602001600020805490506011600083815260200190815260200160002081905550601060008373ffffffffffffffffffffffffffffffffffffffff1673ffffffffffffffffffffffffffffffffffffffff1681526020019081526020016000208190806001815401808255809150506001900390600052602060002001600090919091909150556000601460008381526020019081526020016000209050600081805490501115612c3f5780805480612c09577f4e487b7100000000000000000000000000000000000000000000000000000000600052603160045260246000fd5b6001900381819060005260206000200160006101000a81549073ffffffffffffffffffffffffffffffffffffffff021916905590555b80839080600181540180825580915050600190039060005260206000200160009091909190916101000a81548173ffffffffffffffffffffffffffffffffffffffff021916908373ffffffffffffffffffffffffffffffffffffffff160217905550505050565b6000600760009054906101000a900473ffffffffffffffffffffffffffffffffffffffff16905081600760006101000a81548173ffffffffffffffffffffffffffffffffffffffff021916908373ffffffffffffffffffffffffffffffffffffffff1602179055508173ffffffffffffffffffffffffffffffffffffffff168173ffffffffffffffffffffffffffffffffffffffff167f8be0079c531659141344cd1fd0a4f28419497f9722a3daafe3b4186f6b6457e060405160405180910390a35050565b612d758261241d565b612db4576040517f08c379a0000000000000000000000000000000000000000000000000000000008152600401612dab90614246565b60405180910390fd5b80600660008481526020019081526020016000209080519060200190612ddb9291906133e2565b505050565b612deb848484612628565b612df78484848461308b565b612e36576040517f08c379a0000000000000000000000000000000000000000000000000000000008152600401612e2d90614106565b60405180910390fd5b50505050565b6060600c8054612e4b90614757565b80601f0160208091040260200160405190810160405280929190818152602001828054612e7790614757565b8015612ec45780601f10612e9957610100808354040283529160200191612ec4565b820191906000526020600020905b815481529060010190602001808311612ea757829003601f168201915b5050505050905090565b6060612ed98261241d565b612f18576040517f08c379a0000000000000000000000000000000000000000000000000000000008152600401612f0f90614326565b60405180910390fd5b6000612f22612e3c565b90506000815111612f425760405180602001604052806000815250612f6d565b80612f4c84613222565b604051602001612f5d929190613f10565b6040516020818303038152906040525b915050919050565b505050565b6000612f8582611284565b9050612f9381600084612f75565b612f9e600083612491565b6001600360008373ffffffffffffffffffffffffffffffffffffffff1673ffffffffffffffffffffffffffffffffffffffff1681526020019081526020016000206000828254612fee9190614637565b925050819055506002600083815260200190815260200160002060006101000a81549073ffffffffffffffffffffffffffffffffffffffff021916905581600073ffffffffffffffffffffffffffffffffffffffff168273ffffffffffffffffffffffffffffffffffffffff167fddf252ad1be2c89b69c2b068fc378daa952ba7f163c4a11628f55a4df523b3ef60405160405180910390a45050565b60006130ac8473ffffffffffffffffffffffffffffffffffffffff166133cf565b15613215578373ffffffffffffffffffffffffffffffffffffffff1663150b7a026130d5612489565b8786866040518563ffffffff1660e01b81526004016130f79493929190613ff4565b602060405180830381600087803b15801561311157600080fd5b505af192505050801561314257506040513d601f19601f8201168201806040525081019061313f919061390e565b60015b6131c5573d8060008114613172576040519150601f19603f3d011682016040523d82523d6000602084013e613177565b606091505b506000815114156131bd576040517f08c379a00000000000000000000000000000000000000000000000000000000081526004016131b490614106565b60405180910390fd5b805181602001fd5b63150b7a0260e01b7bffffffffffffffffffffffffffffffffffffffffffffffffffffffff1916817bffffffffffffffffffffffffffffffffffffffffffffffffffffffff19161491505061321a565b600190505b949350505050565b6060600082141561326a576040518060400160405280600181526020017f300000000000000000000000000000000000000000000000000000000000000081525090506133ca565b600082905060005b6000821461329c578080613285906147ba565b915050600a826132959190614606565b9150613272565b60008167ffffffffffffffff8111156132de577f4e487b7100000000000000000000000000000000000000000000000000000000600052604160045260246000fd5b6040519080825280601f01601f1916602001820160405280156133105781602001600182028036833780820191505090505b5090505b600085146133c3576001826133299190614637565b9150600a856133389190614803565b603061334491906145b0565b60f81b818381518110613380577f4e487b7100000000000000000000000000000000000000000000000000000000600052603260045260246000fd5b60200101907effffffffffffffffffffffffffffffffffffffffffffffffffffffffffffff1916908160001a905350600a856133bc9190614606565b9450613314565b8093505050505b919050565b600080823b905060008111915050919050565b8280546133ee90614757565b90600052602060002090601f0160209004810192826134105760008555613457565b82601f1061342957805160ff1916838001178555613457565b82800160010185558215613457579182015b8281111561345657825182559160200191906001019061343b565b5b50905061346491906134a8565b5090565b50805461347490614757565b6000825580601f1061348657506134a5565b601f0160209004906000526020600020908101906134a491906134a8565b5b50565b5b808211156134c15760008160009055506001016134a9565b5090565b60006134d86134d3846144a6565b614481565b905080838252602082019050828560208602820111156134f757600080fd5b60005b85811015613527578161350d8882613694565b8452602084019350602083019250506001810190506134fa565b5050509392505050565b600061354461353f846144d2565b614481565b90508281526020810184848401111561355c57600080fd5b613567848285614715565b509392505050565b600061358261357d84614503565b614481565b90508281526020810184848401111561359a57600080fd5b6135a5848285614715565b509392505050565b6000813590506135bc81614f8e565b92915050565b600082601f8301126135d357600080fd5b81356135e38482602086016134c5565b91505092915050565b6000813590506135fb81614fa5565b92915050565b60008151905061361081614fa5565b92915050565b60008135905061362581614fbc565b92915050565b60008151905061363a81614fbc565b92915050565b600082601f83011261365157600080fd5b8135613661848260208601613531565b91505092915050565b600082601f83011261367b57600080fd5b813561368b84826020860161356f565b91505092915050565b6000813590506136a381614fd3565b92915050565b6000602082840312156136bb57600080fd5b60006136c9848285016135ad565b91505092915050565b600080604083850312156136e557600080fd5b60006136f3858286016135ad565b9250506020613704858286016135ad565b9150509250929050565b60008060006060848603121561372357600080fd5b6000613731868287016135ad565b9350506020613742868287016135ad565b925050604061375386828701613694565b9150509250925092565b6000806000806080858703121561377357600080fd5b6000613781878288016135ad565b9450506020613792878288016135ad565b93505060406137a387828801613694565b925050606085013567ffffffffffffffff8111156137c057600080fd5b6137cc87828801613640565b91505092959194509250565b600080604083850312156137eb57600080fd5b60006137f9858286016135ad565b925050602061380a858286016135ec565b9150509250929050565b6000806040838503121561382757600080fd5b6000613835858286016135ad565b925050602061384685828601613694565b9150509250929050565b6000806040838503121561386357600080fd5b600083013567ffffffffffffffff81111561387d57600080fd5b613889858286016135c2565b925050602083013567ffffffffffffffff8111156138a657600080fd5b6138b28582860161366a565b9150509250929050565b6000602082840312156138ce57600080fd5b60006138dc84828501613601565b91505092915050565b6000602082840312156138f757600080fd5b600061390584828501613616565b91505092915050565b60006020828403121561392057600080fd5b600061392e8482850161362b565b91505092915050565b60006020828403121561394957600080fd5b600082013567ffffffffffffffff81111561396357600080fd5b61396f8482850161366a565b91505092915050565b60006020828403121561398a57600080fd5b600061399884828501613694565b91505092915050565b600080604083850312156139b457600080fd5b60006139c285828601613694565b92505060206139d385828601613694565b9150509250929050565b60006139e98383613ef2565b60208301905092915050565b6139fe8161466b565b82525050565b6000613a0f82614544565b613a198185614572565b9350613a2483614534565b8060005b83811015613a55578151613a3c88826139dd565b9750613a4783614565565b925050600181019050613a28565b5085935050505092915050565b613a6b8161467d565b82525050565b6000613a7c8261454f565b613a868185614583565b9350613a96818560208601614724565b613a9f816148f0565b840191505092915050565b613ab3816146df565b82525050565b613ac2816146f1565b82525050565b613ad181614703565b82525050565b6000613ae28261455a565b613aec8185614594565b9350613afc818560208601614724565b613b05816148f0565b840191505092915050565b6000613b1b8261455a565b613b2581856145a5565b9350613b35818560208601614724565b80840191505092915050565b6000613b4e603283614594565b9150613b5982614901565b604082019050919050565b6000613b71602683614594565b9150613b7c82614950565b604082019050919050565b6000613b94601c83614594565b9150613b9f8261499f565b602082019050919050565b6000613bb7602483614594565b9150613bc2826149c8565b604082019050919050565b6000613bda601983614594565b9150613be582614a17565b602082019050919050565b6000613bfd600e83614594565b9150613c0882614a40565b602082019050919050565b6000613c20602c83614594565b9150613c2b82614a69565b604082019050919050565b6000613c43603883614594565b9150613c4e82614ab8565b604082019050919050565b6000613c66602a83614594565b9150613c7182614b07565b604082019050919050565b6000613c89602983614594565b9150613c9482614b56565b604082019050919050565b6000613cac602e83614594565b9150613cb782614ba5565b604082019050919050565b6000613ccf602e83614594565b9150613cda82614bf4565b604082019050919050565b6000613cf2602083614594565b9150613cfd82614c43565b602082019050919050565b6000613d15603183614594565b9150613d2082614c6c565b604082019050919050565b6000613d38602c83614594565b9150613d4382614cbb565b604082019050919050565b6000613d5b602083614594565b9150613d6682614d0a565b602082019050919050565b6000613d7e602983614594565b9150613d8982614d33565b604082019050919050565b6000613da1602f83614594565b9150613dac82614d82565b604082019050919050565b6000613dc4601783614594565b9150613dcf82614dd1565b602082019050919050565b6000613de7601a83614594565b9150613df282614dfa565b602082019050919050565b6000613e0a602183614594565b9150613e1582614e23565b604082019050919050565b6000613e2d600c83614594565b9150613e3882614e72565b602082019050919050565b6000613e50603183614594565b9150613e5b82614e9b565b604082019050919050565b6000613e73600c83614594565b9150613e7e82614eea565b602082019050919050565b6000613e96601783614594565b9150613ea182614f13565b602082019050919050565b6000613eb9600a83614594565b9150613ec482614f3c565b602082019050919050565b6000613edc600c83614594565b9150613ee782614f65565b602082019050919050565b613efb816146d5565b82525050565b613f0a816146d5565b82525050565b6000613f1c8285613b10565b9150613f288284613b10565b91508190509392505050565b6000602082019050613f4960008301846139f5565b92915050565b6000606082019050613f6460008301866139f5565b613f7160208301856139f5565b613f7e6040830184613aaa565b949350505050565b6000606082019050613f9b60008301866139f5565b613fa860208301856139f5565b613fb56040830184613ab9565b949350505050565b6000606082019050613fd260008301866139f5565b613fdf60208301856139f5565b613fec6040830184613ac8565b949350505050565b600060808201905061400960008301876139f5565b61401660208301866139f5565b6140236040830185613f01565b81810360608301526140358184613a71565b905095945050505050565b600060408201905061405560008301856139f5565b6140626020830184613f01565b9392505050565b600060608201905061407e60008301866139f5565b61408b6020830185613f01565b818103604083015261409d8184613ad7565b9050949350505050565b600060208201905081810360008301526140c18184613a04565b905092915050565b60006020820190506140de6000830184613a62565b92915050565b600060208201905081810360008301526140fe8184613ad7565b905092915050565b6000602082019050818103600083015261411f81613b41565b9050919050565b6000602082019050818103600083015261413f81613b64565b9050919050565b6000602082019050818103600083015261415f81613b87565b9050919050565b6000602082019050818103600083015261417f81613baa565b9050919050565b6000602082019050818103600083015261419f81613bcd565b9050919050565b600060208201905081810360008301526141bf81613bf0565b9050919050565b600060208201905081810360008301526141df81613c13565b9050919050565b600060208201905081810360008301526141ff81613c36565b9050919050565b6000602082019050818103600083015261421f81613c59565b9050919050565b6000602082019050818103600083015261423f81613c7c565b9050919050565b6000602082019050818103600083015261425f81613c9f565b9050919050565b6000602082019050818103600083015261427f81613cc2565b9050919050565b6000602082019050818103600083015261429f81613ce5565b9050919050565b600060208201905081810360008301526142bf81613d08565b9050919050565b600060208201905081810360008301526142df81613d2b565b9050919050565b600060208201905081810360008301526142ff81613d4e565b9050919050565b6000602082019050818103600083015261431f81613d71565b9050919050565b6000602082019050818103600083015261433f81613d94565b9050919050565b6000602082019050818103600083015261435f81613db7565b9050919050565b6000602082019050818103600083015261437f81613dda565b9050919050565b6000602082019050818103600083015261439f81613dfd565b9050919050565b600060208201905081810360008301526143bf81613e20565b9050919050565b600060208201905081810360008301526143df81613e43565b9050919050565b600060208201905081810360008301526143ff81613e66565b9050919050565b6000602082019050818103600083015261441f81613e89565b9050919050565b6000602082019050818103600083015261443f81613eac565b9050919050565b6000602082019050818103600083015261445f81613ecf565b9050919050565b600060208201905061447b6000830184613f01565b92915050565b600061448b61449c565b90506144978282614789565b919050565b6000604051905090565b600067ffffffffffffffff8211156144c1576144c06148c1565b5b602082029050602081019050919050565b600067ffffffffffffffff8211156144ed576144ec6148c1565b5b6144f6826148f0565b9050602081019050919050565b600067ffffffffffffffff82111561451e5761451d6148c1565b5b614527826148f0565b9050602081019050919050565b6000819050602082019050919050565b600081519050919050565b600081519050919050565b600081519050919050565b6000602082019050919050565b600082825260208201905092915050565b600082825260208201905092915050565b600082825260208201905092915050565b600081905092915050565b60006145bb826146d5565b91506145c6836146d5565b9250827fffffffffffffffffffffffffffffffffffffffffffffffffffffffffffffffff038211156145fb576145fa614834565b5b828201905092915050565b6000614611826146d5565b915061461c836146d5565b92508261462c5761462b614863565b5b828204905092915050565b6000614642826146d5565b915061464d836146d5565b9250828210156146605761465f614834565b5b828203905092915050565b6000614676826146b5565b9050919050565b60008115159050919050565b60007fffffffff0000000000000000000000000000000000000000000000000000000082169050919050565b600073ffffffffffffffffffffffffffffffffffffffff82169050919050565b6000819050919050565b60006146ea826146d5565b9050919050565b60006146fc826146d5565b9050919050565b600061470e826146d5565b9050919050565b82818337600083830152505050565b60005b83811015614742578082015181840152602081019050614727565b83811115614751576000848401525b50505050565b6000600282049050600182168061476f57607f821691505b6020821081141561478357614782614892565b5b50919050565b614792826148f0565b810181811067ffffffffffffffff821117156147b1576147b06148c1565b5b80604052505050565b60006147c5826146d5565b91507fffffffffffffffffffffffffffffffffffffffffffffffffffffffffffffffff8214156147f8576147f7614834565b5b600182019050919050565b600061480e826146d5565b9150614819836146d5565b92508261482957614828614863565b5b828206905092915050565b7f4e487b7100000000000000000000000000000000000000000000000000000000600052601160045260246000fd5b7f4e487b7100000000000000000000000000000000000000000000000000000000600052601260045260246000fd5b7f4e487b7100000000000000000000000000000000000000000000000000000000600052602260045260246000fd5b7f4e487b7100000000000000000000000000000000000000000000000000000000600052604160045260246000fd5b6000601f19601f8301169050919050565b7f4552433732313a207472616e7366657220746f206e6f6e20455243373231526560008201527f63656976657220696d706c656d656e7465720000000000000000000000000000602082015250565b7f4f776e61626c653a206e6577206f776e657220697320746865207a65726f206160008201527f6464726573730000000000000000000000000000000000000000000000000000602082015250565b7f4552433732313a20746f6b656e20616c7265616479206d696e74656400000000600082015250565b7f4552433732313a207472616e7366657220746f20746865207a65726f2061646460008201527f7265737300000000000000000000000000000000000000000000000000000000602082015250565b7f4552433732313a20617070726f766520746f2063616c6c657200000000000000600082015250565b7f6e6565642073616d652072616e6b000000000000000000000000000000000000600082015250565b7f4552433732313a206f70657261746f7220717565727920666f72206e6f6e657860008201527f697374656e7420746f6b656e0000000000000000000000000000000000000000602082015250565b7f4552433732313a20617070726f76652063616c6c6572206973206e6f74206f7760008201527f6e6572206e6f7220617070726f76656420666f7220616c6c0000000000000000602082015250565b7f4552433732313a2062616c616e636520717565727920666f7220746865207a6560008201527f726f206164647265737300000000000000000000000000000000000000000000602082015250565b7f4552433732313a206f776e657220717565727920666f72206e6f6e657869737460008201527f656e7420746f6b656e0000000000000000000000000000000000000000000000602082015250565b7f45524337323155524953746f726167653a2055524920736574206f66206e6f6e60008201527f6578697374656e7420746f6b656e000000000000000000000000000000000000602082015250565b7f496e697469616c697a61626c653a20636f6e747261637420697320616c72656160008201527f647920696e697469616c697a6564000000000000000000000000000000000000602082015250565b7f4552433732313a206d696e7420746f20746865207a65726f2061646472657373600082015250565b7f45524337323155524953746f726167653a2055524920717565727920666f722060008201527f6e6f6e6578697374656e7420746f6b656e000000000000000000000000000000602082015250565b7f4552433732313a20617070726f76656420717565727920666f72206e6f6e657860008201527f697374656e7420746f6b656e0000000000000000000000000000000000000000602082015250565b7f4f776e61626c653a2063616c6c6572206973206e6f7420746865206f776e6572600082015250565b7f4552433732313a207472616e73666572206f6620746f6b656e2074686174206960008201527f73206e6f74206f776e0000000000000000000000000000000000000000000000602082015250565b7f4552433732314d657461646174613a2055524920717565727920666f72206e6f60008201527f6e6578697374656e7420746f6b656e0000000000000000000000000000000000602082015250565b7f65786365656420746865206d696e7420616d6f756e7421000000000000000000600082015250565b7f65786365656420746865207570677261646520616d6f756e7421000000000000600082015250565b7f4552433732313a20617070726f76616c20746f2063757272656e74206f776e6560008201527f7200000000000000000000000000000000000000000000000000000000000000602082015250565b7f204e6f7420737461727420330000000000000000000000000000000000000000600082015250565b7f4552433732313a207472616e736665722063616c6c6572206973206e6f74206f60008201527f776e6572206e6f7220617070726f766564000000000000000000000000000000602082015250565b7f204e6f7420737461727420310000000000000000000000000000000000000000600082015250565b7f65787365656420746865206d696e7420616d6f756e7421000000000000000000600082015250565b7f65727220616d6f756e7400000000000000000000000000000000000000000000600082015250565b7f204e6f7420737461727420320000000000000000000000000000000000000000600082015250565b614f978161466b565b8114614fa257600080fd5b50565b614fae8161467d565b8114614fb957600080fd5b50565b614fc581614689565b8114614fd057600080fd5b50565b614fdc816146d5565b8114614fe757600080fd5b5056fea264697066735822122042aeaee0475ed9158a3bdf01fbfebaa80eafe79555c071a97b8c860bdd9bdcea64736f6c63430008020033",
  "immutableReferences": {},
  "source": "// contracts/GameItem.sol\n// SPDX-License-Identifier: MIT\npragma solidity ^0.8.0;\n\nimport \"@openzeppelin/contracts/utils/math/SafeMath.sol\";\nimport \"@openzeppelin/contracts/token/ERC721/ERC721.sol\";\nimport \"@openzeppelin/contracts/token/ERC20/IERC20.sol\";\nimport \"@openzeppelin/contracts/token/ERC721/extensions/ERC721URIStorage.sol\";\nimport \"@openzeppelin/contracts/token/ERC721/extensions/ERC721Enumerable.sol\";\nimport \"@openzeppelin/contracts/proxy/utils/Initializable.sol\";\n//import \"@openzeppelin/contracts/utils/Counters.sol\";\nimport \"@openzeppelin/contracts/access/Ownable.sol\";\n\ncontract XVIP is ERC721URIStorage, Ownable, Initializable {\n    using SafeMath for uint256;\n    event MintXVip(address _onwer, uint256 _tokenId, string metedate);\n    event BurnXVip(address _onwer, uint256 _tokenId);\n    //using Counters for Counters.Counter;\n    uint256 private _tokenIds1;\n    uint256 private _tokenIds2;\n    uint256 private _tokenIds3;\n    uint256 private started;\n    string base_URI;\n    address XET_address;\n    mapping(uint256 => uint256) private userVIPlevel_count; //------------------\n    mapping(address => uint256) private Max_vip_level;\n\n    // Mapping from owner to list of owned token IDs\n    mapping(address => uint256[]) private _ownedTokens;\n\n    // Mapping from token ID to index of the owner tokens list\n    mapping(uint256 => uint256) private _ownedTokensIndex;\n\n    // Array with all token ids, used for enumeration\n    uint256[] private _allTokens;\n\n    // Mapping from token id to position in the allTokens array\n    mapping(uint256 => uint256) private _allTokensIndex;\n\n    mapping(uint256 => address[]) public ownerOfAddress;\n\n    constructor() ERC721(\"X-E space VIP Card\", \"XVIP\") {\n        _tokenIds1 = 0;\n        _tokenIds2 = 1000;\n        _tokenIds3 = 10000;\n    }\n\n    function initialize() public initializer {\n        //ERC721(\"X-E space VIP Card\", \"XVIP\");\n    }\n\n    modifier onlystarted1() {\n        require(started == 1, \" Not start 1\");\n        _;\n    }\n    modifier onlystarted2() {\n        require(started == 2, \" Not start 2\");\n        _;\n    }\n    modifier onlystarted3() {\n        require(started == 3, \" Not start 3\");\n        _;\n    }\n\n    function set_start(uint256 _num) external onlyOwner {\n        started = _num;\n    }\n    function set_XETaddr(address _addr) external onlyOwner {\n        XET_address = _addr;\n    }\n    function get_setting() external view returns(address _addr, uint256 _num) {\n        return (XET_address, started);\n    }\n\n    function mint_xvip_1(string memory tokenURI)\n        public\n        onlystarted1\n        returns (uint256)\n    {\n        require(_tokenIds1 < 50, \"exseed the mint amount!\");\n        _tokenIds1 += 1;\n        IERC20(XET_address).transferFrom(msg.sender, address(this), 200 ether);\n        uint256 newItemId = _tokenIds1;\n        _addTokenToAllTokensEnumeration(newItemId);\n        _addTokenToOwnerEnumeration(msg.sender, newItemId);\n\n        _mint(msg.sender, newItemId);\n        _setTokenURI(newItemId, tokenURI);\n        if (Max_vip_level[msg.sender] < 1 || Max_vip_level[msg.sender] > 1) {\n            Max_vip_level[msg.sender] = 1;\n        }\n        emit MintXVip(msg.sender, newItemId, tokenURI);\n        return newItemId;\n    }\n\n    function mint_xvip_2(string memory tokenURI)\n        public\n        onlystarted2\n        returns (uint256)\n    {\n        require(_tokenIds2 < 1500, \"exceed the mint amount!\");\n        _tokenIds2 += 1;\n        IERC20(XET_address).transferFrom(msg.sender, address(this), 20 ether);\n        uint256 newItemId = _tokenIds2;\n        _addTokenToAllTokensEnumeration(newItemId);\n        _addTokenToOwnerEnumeration(msg.sender, newItemId);\n\n        _mint(msg.sender, newItemId);\n        _setTokenURI(newItemId, tokenURI);\n        if (Max_vip_level[msg.sender] < 1 || Max_vip_level[msg.sender] > 2) {\n            Max_vip_level[msg.sender] = 2;\n        }\n        emit MintXVip(msg.sender, newItemId, tokenURI);\n        return newItemId;\n    }\n\n    function mint_xvip_3(string memory tokenURI)\n        public\n        onlystarted3\n        returns (uint256)\n    {\n        require(_tokenIds3 < 100000, \"exceed the mint amount!\");\n        _tokenIds3 += 1;\n        IERC20(XET_address).transferFrom(msg.sender, address(this), 2 ether);\n        uint256 newItemId = _tokenIds3;\n        _addTokenToAllTokensEnumeration(newItemId);\n        _addTokenToOwnerEnumeration(msg.sender, newItemId);\n        \n        _mint(msg.sender, newItemId);\n        _setTokenURI(newItemId, tokenURI);\n        if (Max_vip_level[msg.sender] < 1 || Max_vip_level[msg.sender] > 3) {\n            Max_vip_level[msg.sender] = 3;\n        }\n        emit MintXVip(msg.sender, newItemId, tokenURI);\n        return newItemId;\n    }\n\n    function level_up_mint(uint256[] memory _ids, string memory tokenURI)\n        public\n        onlystarted3\n        returns (uint256)\n    {\n        require(_ids.length == 12, \"err amount\");\n        uint256 newItemId;\n        if (_ids[0] > 1000 && _ids[0] < 10000) {\n            require(_tokenIds1 < 999, \"exceed the upgrade amount!\");\n            for (uint256 i = 1; i < 12; i++) {\n                require(_ids[i] > 1000 && _ids[i] < 10000, \"need same rank\");\n            }\n            for (uint256 i = 1; i < 12; i++) {\n                _burn(_ids[i]);\n            }\n            _tokenIds1 += 1;\n            newItemId = _tokenIds1;\n            _mint(msg.sender, newItemId);\n            if (Max_vip_level[msg.sender] < 1 || Max_vip_level[msg.sender] > 1) {\n                Max_vip_level[msg.sender] = 1;\n            }\n        } else if (_ids[0] > 10000) {\n            require(_tokenIds2 < 9999, \"exceed the upgrade amount!\");\n            for (uint256 i = 1; i < 12; i++) {\n                require(_ids[i] > 10000, \"need same rank\");\n            }\n            for (uint256 i = 1; i < 12; i++) {\n                _burn(_ids[i]);\n            }\n            _tokenIds2 += 1;\n            newItemId = _tokenIds2;\n            _mint(msg.sender, newItemId);\n            if (Max_vip_level[msg.sender] < 1 || Max_vip_level[msg.sender] > 2) {\n                Max_vip_level[msg.sender] = 2;\n            }\n        }\n        _addTokenToAllTokensEnumeration(newItemId);\n        _addTokenToOwnerEnumeration(msg.sender, newItemId);\n        emit MintXVip(msg.sender, newItemId, tokenURI);\n        return (newItemId);\n    }\n\n    function tokenOf(address owner) public view returns (uint256[] memory) {\n        //require(index < ERC721.balanceOf(owner), \"ERC721Enumerable: owner index out of bounds\");\n        return _ownedTokens[owner];\n    }\n\n    function _baseURI() internal view virtual override returns (string memory) {\n        return base_URI;\n    }\n\n    function set_baseURI(string memory _uri) public virtual onlyOwner {\n        base_URI = _uri;\n    }\n\n    // function tokenURI(uint256 tokenId) public view virtual override returns (string memory) {\n    //       require(_exists(tokenId), \"ERC721Metadata: URI query for nonexistent token\");\n    //       string memory baseURI = _baseURI();\n    //       return bytes(baseURI).length > 0 ? string(abi.encodePacked(baseURI, tokenId.toString())) : \"\";\n    // }\n    function Maxlevelof(address _owner) public view returns (uint256) {\n        return Max_vip_level[_owner];\n    }\n\n    /**\n     * @dev Private function to add a token to this extension's ownership-tracking data structures.\n     * @param to address representing the new owner of the given token ID\n     * @param tokenId uint256 ID of the token to be added to the tokens list of the given address\n     */\n    function _addTokenToOwnerEnumeration(address to, uint256 tokenId) private {\n        _ownedTokensIndex[tokenId] = _ownedTokens[to].length;\n        _ownedTokens[to].push(tokenId);\n        address[] storage addr = ownerOfAddress[tokenId];\n        if (addr.length > 0) {\n            addr.pop();\n        }\n        addr.push(to);\n    }\n\n    /**\n     * @dev Private function to add a token to this extension's token tracking data structures.\n     * @param tokenId uint256 ID of the token to be added to the tokens list\n     */\n    function _addTokenToAllTokensEnumeration(uint256 tokenId) private {\n        _allTokensIndex[tokenId] = _allTokens.length;\n        _allTokens.push(tokenId);\n    }\n\n    function _removeTokenFromOwnerEnumeration(address from, uint256 tokenId)\n        private\n    {\n        // To prevent a gap in from's tokens array, we store the last token in the index of the token to delete, and\n        // then delete the last slot (swap and pop).\n\n        uint256 lastTokenIndex = _ownedTokens[from].length.sub(1);\n        uint256 tokenIndex = _ownedTokensIndex[tokenId];\n\n        // When the token to delete is the last token, the swap operation is unnecessary\n        if (tokenIndex != lastTokenIndex) {\n            uint256 lastTokenId = _ownedTokens[from][lastTokenIndex];\n\n            _ownedTokens[from][tokenIndex] = lastTokenId; // Move the last token to the slot of the to-delete token\n            _ownedTokensIndex[lastTokenId] = tokenIndex; // Update the moved token's index\n        }\n\n        // This also deletes the contents at the last position of the array\n        _ownedTokens[from].pop();\n\n        // Note that _ownedTokensIndex[tokenId] hasn't been cleared: it still points to the old slot (now occupied by\n        // lastTokenId, or just over the end of the array if the token was the last one).\n        // delete _ownedTokensIndex[tokenIndex];\n    }\n\n    /**\n     * @dev Private function to remove a token from this extension's token tracking data structures.\n     * This has O(1) time complexity, but alters the order of the _allTokens array.\n     * @param tokenId uint256 ID of the token to be removed from the tokens list\n     */\n    function _removeTokenFromAllTokensEnumeration(uint256 tokenId) private {\n        // To prevent a gap in the tokens array, we store the last token in the index of the token to delete, and\n        // then delete the last slot (swap and pop).\n\n        uint256 lastTokenIndex = _allTokens.length.sub(1);\n        uint256 tokenIndex = _allTokensIndex[tokenId];\n\n        // When the token to delete is the last token, the swap operation is unnecessary. However, since this occurs so\n        // rarely (when the last minted token is burnt) that we still do the swap here to avoid the gas cost of adding\n        // an 'if' statement (like in _removeTokenFromOwnerEnumeration)\n        uint256 lastTokenId = _allTokens[lastTokenIndex];\n\n        _allTokens[tokenIndex] = lastTokenId; // Move the last token to the slot of the to-delete token\n        _allTokensIndex[lastTokenId] = tokenIndex; // Update the moved token's index\n\n        // This also deletes the contents at the last position of the array\n        _allTokens.pop();\n        _allTokensIndex[tokenId] = 0;\n    }\n}\n",
  "sourcePath": "C:\\Users\\artii\\Black IDE\\espace\\contracts\\XVIPnft.sol",
  "compiler": {
    "name": "solc",
    "version": "0.8.2+commit.661d1103.Emscripten.clang"
  },
  "schemaVersion": "3.4.3",
  "updatedAt": "2022-06-16T16:59:41.615Z",
  "devdoc": {
    "kind": "dev",
    "methods": {
      "approve(address,uint256)": {
        "details": "See {IERC721-approve}."
      },
      "balanceOf(address)": {
        "details": "See {IERC721-balanceOf}."
      },
      "getApproved(uint256)": {
        "details": "See {IERC721-getApproved}."
      },
      "isApprovedForAll(address,address)": {
        "details": "See {IERC721-isApprovedForAll}."
      },
      "name()": {
        "details": "See {IERC721Metadata-name}."
      },
      "owner()": {
        "details": "Returns the address of the current owner."
      },
      "ownerOf(uint256)": {
        "details": "See {IERC721-ownerOf}."
      },
      "renounceOwnership()": {
        "details": "Leaves the contract without owner. It will not be possible to call `onlyOwner` functions anymore. Can only be called by the current owner. NOTE: Renouncing ownership will leave the contract without an owner, thereby removing any functionality that is only available to the owner."
      },
      "safeTransferFrom(address,address,uint256)": {
        "details": "See {IERC721-safeTransferFrom}."
      },
      "safeTransferFrom(address,address,uint256,bytes)": {
        "details": "See {IERC721-safeTransferFrom}."
      },
      "setApprovalForAll(address,bool)": {
        "details": "See {IERC721-setApprovalForAll}."
      },
      "supportsInterface(bytes4)": {
        "details": "See {IERC165-supportsInterface}."
      },
      "symbol()": {
        "details": "See {IERC721Metadata-symbol}."
      },
      "tokenURI(uint256)": {
        "details": "See {IERC721Metadata-tokenURI}."
      },
      "transferFrom(address,address,uint256)": {
        "details": "See {IERC721-transferFrom}."
      },
      "transferOwnership(address)": {
        "details": "Transfers ownership of the contract to a new account (`newOwner`). Can only be called by the current owner."
      }
    },
    "version": 1
  },
  "userdoc": {
    "kind": "user",
    "methods": {},
    "version": 1
  }
}