{
  "contractName": "XVIP",
  "abi": [
    {
      "inputs": [],
      "stateMutability": "nonpayable",
      "type": "constructor"
    },
    {
      "anonymous": false,
      "inputs": [
        {
          "indexed": true,
          "internalType": "address",
          "name": "owner",
          "type": "address"
        },
        {
          "indexed": true,
          "internalType": "address",
          "name": "approved",
          "type": "address"
        },
        {
          "indexed": true,
          "internalType": "uint256",
          "name": "tokenId",
          "type": "uint256"
        }
      ],
      "name": "Approval",
      "type": "event"
    },
    {
      "anonymous": false,
      "inputs": [
        {
          "indexed": true,
          "internalType": "address",
          "name": "owner",
          "type": "address"
        },
        {
          "indexed": true,
          "internalType": "address",
          "name": "operator",
          "type": "address"
        },
        {
          "indexed": false,
          "internalType": "bool",
          "name": "approved",
          "type": "bool"
        }
      ],
      "name": "ApprovalForAll",
      "type": "event"
    },
    {
      "anonymous": false,
      "inputs": [
        {
          "indexed": false,
          "internalType": "address",
          "name": "_onwer",
          "type": "address"
        },
        {
          "indexed": false,
          "internalType": "uint256",
          "name": "_tokenId",
          "type": "uint256"
        }
      ],
      "name": "BurnXVip",
      "type": "event"
    },
    {
      "anonymous": false,
      "inputs": [
        {
          "indexed": false,
          "internalType": "address",
          "name": "_onwer",
          "type": "address"
        },
        {
          "indexed": false,
          "internalType": "uint256",
          "name": "_tokenId",
          "type": "uint256"
        },
        {
          "indexed": false,
          "internalType": "string",
          "name": "metedate",
          "type": "string"
        }
      ],
      "name": "MintXVip",
      "type": "event"
    },
    {
      "anonymous": false,
      "inputs": [
        {
          "indexed": true,
          "internalType": "address",
          "name": "previousOwner",
          "type": "address"
        },
        {
          "indexed": true,
          "internalType": "address",
          "name": "newOwner",
          "type": "address"
        }
      ],
      "name": "OwnershipTransferred",
      "type": "event"
    },
    {
      "anonymous": false,
      "inputs": [
        {
          "indexed": true,
          "internalType": "address",
          "name": "from",
          "type": "address"
        },
        {
          "indexed": true,
          "internalType": "address",
          "name": "to",
          "type": "address"
        },
        {
          "indexed": true,
          "internalType": "uint256",
          "name": "tokenId",
          "type": "uint256"
        }
      ],
      "name": "Transfer",
      "type": "event"
    },
    {
      "inputs": [
        {
          "internalType": "address",
          "name": "to",
          "type": "address"
        },
        {
          "internalType": "uint256",
          "name": "tokenId",
          "type": "uint256"
        }
      ],
      "name": "approve",
      "outputs": [],
      "stateMutability": "nonpayable",
      "type": "function"
    },
    {
      "inputs": [
        {
          "internalType": "address",
          "name": "owner",
          "type": "address"
        }
      ],
      "name": "balanceOf",
      "outputs": [
        {
          "internalType": "uint256",
          "name": "",
          "type": "uint256"
        }
      ],
      "stateMutability": "view",
      "type": "function"
    },
    {
      "inputs": [
        {
          "internalType": "uint256",
          "name": "tokenId",
          "type": "uint256"
        }
      ],
      "name": "getApproved",
      "outputs": [
        {
          "internalType": "address",
          "name": "",
          "type": "address"
        }
      ],
      "stateMutability": "view",
      "type": "function"
    },
    {
      "inputs": [
        {
          "internalType": "address",
          "name": "owner",
          "type": "address"
        },
        {
          "internalType": "address",
          "name": "operator",
          "type": "address"
        }
      ],
      "name": "isApprovedForAll",
      "outputs": [
        {
          "internalType": "bool",
          "name": "",
          "type": "bool"
        }
      ],
      "stateMutability": "view",
      "type": "function"
    },
    {
      "inputs": [],
      "name": "name",
      "outputs": [
        {
          "internalType": "string",
          "name": "",
          "type": "string"
        }
      ],
      "stateMutability": "view",
      "type": "function"
    },
    {
      "inputs": [],
      "name": "owner",
      "outputs": [
        {
          "internalType": "address",
          "name": "",
          "type": "address"
        }
      ],
      "stateMutability": "view",
      "type": "function"
    },
    {
      "inputs": [
        {
          "internalType": "uint256",
          "name": "tokenId",
          "type": "uint256"
        }
      ],
      "name": "ownerOf",
      "outputs": [
        {
          "internalType": "address",
          "name": "",
          "type": "address"
        }
      ],
      "stateMutability": "view",
      "type": "function"
    },
    {
      "inputs": [
        {
          "internalType": "uint256",
          "name": "",
          "type": "uint256"
        },
        {
          "internalType": "uint256",
          "name": "",
          "type": "uint256"
        }
      ],
      "name": "ownerOfAddress",
      "outputs": [
        {
          "internalType": "address",
          "name": "",
          "type": "address"
        }
      ],
      "stateMutability": "view",
      "type": "function"
    },
    {
      "inputs": [],
      "name": "renounceOwnership",
      "outputs": [],
      "stateMutability": "nonpayable",
      "type": "function"
    },
    {
      "inputs": [
        {
          "internalType": "address",
          "name": "from",
          "type": "address"
        },
        {
          "internalType": "address",
          "name": "to",
          "type": "address"
        },
        {
          "internalType": "uint256",
          "name": "tokenId",
          "type": "uint256"
        }
      ],
      "name": "safeTransferFrom",
      "outputs": [],
      "stateMutability": "nonpayable",
      "type": "function"
    },
    {
      "inputs": [
        {
          "internalType": "address",
          "name": "from",
          "type": "address"
        },
        {
          "internalType": "address",
          "name": "to",
          "type": "address"
        },
        {
          "internalType": "uint256",
          "name": "tokenId",
          "type": "uint256"
        },
        {
          "internalType": "bytes",
          "name": "_data",
          "type": "bytes"
        }
      ],
      "name": "safeTransferFrom",
      "outputs": [],
      "stateMutability": "nonpayable",
      "type": "function"
    },
    {
      "inputs": [
        {
          "internalType": "address",
          "name": "operator",
          "type": "address"
        },
        {
          "internalType": "bool",
          "name": "approved",
          "type": "bool"
        }
      ],
      "name": "setApprovalForAll",
      "outputs": [],
      "stateMutability": "nonpayable",
      "type": "function"
    },
    {
      "inputs": [
        {
          "internalType": "bytes4",
          "name": "interfaceId",
          "type": "bytes4"
        }
      ],
      "name": "supportsInterface",
      "outputs": [
        {
          "internalType": "bool",
          "name": "",
          "type": "bool"
        }
      ],
      "stateMutability": "view",
      "type": "function"
    },
    {
      "inputs": [],
      "name": "symbol",
      "outputs": [
        {
          "internalType": "string",
          "name": "",
          "type": "string"
        }
      ],
      "stateMutability": "view",
      "type": "function"
    },
    {
      "inputs": [
        {
          "internalType": "uint256",
          "name": "tokenId",
          "type": "uint256"
        }
      ],
      "name": "tokenURI",
      "outputs": [
        {
          "internalType": "string",
          "name": "",
          "type": "string"
        }
      ],
      "stateMutability": "view",
      "type": "function"
    },
    {
      "inputs": [
        {
          "internalType": "address",
          "name": "from",
          "type": "address"
        },
        {
          "internalType": "address",
          "name": "to",
          "type": "address"
        },
        {
          "internalType": "uint256",
          "name": "tokenId",
          "type": "uint256"
        }
      ],
      "name": "transferFrom",
      "outputs": [],
      "stateMutability": "nonpayable",
      "type": "function"
    },
    {
      "inputs": [
        {
          "internalType": "address",
          "name": "newOwner",
          "type": "address"
        }
      ],
      "name": "transferOwnership",
      "outputs": [],
      "stateMutability": "nonpayable",
      "type": "function"
    },
    {
      "inputs": [],
      "name": "initialize",
      "outputs": [],
      "stateMutability": "nonpayable",
      "type": "function"
    },
    {
      "inputs": [
        {
          "internalType": "uint256",
          "name": "_num",
          "type": "uint256"
        }
      ],
      "name": "set_start",
      "outputs": [],
      "stateMutability": "nonpayable",
      "type": "function"
    },
    {
      "inputs": [
        {
          "internalType": "address",
          "name": "_addr",
          "type": "address"
        }
      ],
      "name": "set_XETaddr",
      "outputs": [],
      "stateMutability": "nonpayable",
      "type": "function"
    },
    {
      "inputs": [],
      "name": "get_setting",
      "outputs": [
        {
          "internalType": "address",
          "name": "_addr",
          "type": "address"
        },
        {
          "internalType": "uint256",
          "name": "_num",
          "type": "uint256"
        }
      ],
      "stateMutability": "view",
      "type": "function"
    },
    {
      "inputs": [
        {
          "internalType": "uint256",
          "name": "_num",
          "type": "uint256"
        }
      ],
      "name": "get_current_ids",
      "outputs": [
        {
          "internalType": "uint256",
          "name": "",
          "type": "uint256"
        }
      ],
      "stateMutability": "view",
      "type": "function"
    },
    {
      "inputs": [
        {
          "internalType": "string",
          "name": "tokenURI",
          "type": "string"
        },
        {
          "internalType": "uint256",
          "name": "_id",
          "type": "uint256"
        },
        {
          "internalType": "uint256",
          "name": "_id_type",
          "type": "uint256"
        }
      ],
      "name": "mint_xvip",
      "outputs": [
        {
          "internalType": "uint256",
          "name": "",
          "type": "uint256"
        }
      ],
      "stateMutability": "nonpayable",
      "type": "function"
    },
    {
      "inputs": [
        {
          "internalType": "uint256[]",
          "name": "_ids",
          "type": "uint256[]"
        },
        {
          "internalType": "string",
          "name": "tokenURI",
          "type": "string"
        },
        {
          "internalType": "uint256",
          "name": "_id",
          "type": "uint256"
        }
      ],
      "name": "level_up_mint",
      "outputs": [
        {
          "internalType": "uint256",
          "name": "",
          "type": "uint256"
        }
      ],
      "stateMutability": "nonpayable",
      "type": "function"
    },
    {
      "inputs": [
        {
          "internalType": "address",
          "name": "owner",
          "type": "address"
        }
      ],
      "name": "tokenOf",
      "outputs": [
        {
          "internalType": "uint256[]",
          "name": "",
          "type": "uint256[]"
        }
      ],
      "stateMutability": "view",
      "type": "function"
    },
    {
      "inputs": [
        {
          "internalType": "string",
          "name": "_uri",
          "type": "string"
        }
      ],
      "name": "set_baseURI",
      "outputs": [],
      "stateMutability": "nonpayable",
      "type": "function"
    },
    {
      "inputs": [
        {
          "internalType": "address",
          "name": "_owner",
          "type": "address"
        }
      ],
      "name": "Maxlevelof",
      "outputs": [
        {
          "internalType": "uint256",
          "name": "",
          "type": "uint256"
        }
      ],
      "stateMutability": "view",
      "type": "function"
    }
  ],
  "bytecode": "0x60806040523480156200001157600080fd5b506040518060400160405280601281526020017f582d4520537061636520564950204361726400000000000000000000000000008152506040518060400160405280600481526020017f5856495000000000000000000000000000000000000000000000000000000000815250816000908051906020019062000096929190620001c0565b508060019080519060200190620000af929190620001c0565b505050620000d2620000c6620000f260201b60201c565b620000fa60201b60201c565b60006008819055506103e8600981905550612710600a81905550620002d5565b600033905090565b6000600760009054906101000a900473ffffffffffffffffffffffffffffffffffffffff16905081600760006101000a81548173ffffffffffffffffffffffffffffffffffffffff021916908373ffffffffffffffffffffffffffffffffffffffff1602179055508173ffffffffffffffffffffffffffffffffffffffff168173ffffffffffffffffffffffffffffffffffffffff167f8be0079c531659141344cd1fd0a4f28419497f9722a3daafe3b4186f6b6457e060405160405180910390a35050565b828054620001ce9062000270565b90600052602060002090601f016020900481019282620001f257600085556200023e565b82601f106200020d57805160ff19168380011785556200023e565b828001600101855582156200023e579182015b828111156200023d57825182559160200191906001019062000220565b5b5090506200024d919062000251565b5090565b5b808211156200026c57600081600090555060010162000252565b5090565b600060028204905060018216806200028957607f821691505b60208210811415620002a0576200029f620002a6565b5b50919050565b7f4e487b7100000000000000000000000000000000000000000000000000000000600052602260045260246000fd5b6153aa80620002e56000396000f3fe608060405234801561001057600080fd5b50600436106101a95760003560e01c806370a08231116100f9578063a22cb46511610097578063c87b56dd11610071578063c87b56dd146104cb578063d8ed01e2146104fb578063e985e9c51461052b578063f2fde38b1461055b576101a9565b8063a22cb46514610477578063afa5704014610493578063b88d4fde146104af576101a9565b80637f1c948f116100d35780637f1c948f146104015780638129fc1c146104315780638da5cb5b1461043b57806395d89b4114610459576101a9565b806370a0823114610397578063715018a6146103c75780637ea0abe7146103d1576101a9565b806330d67cb51161016657806342ec38e21161014057806342ec38e2146102e857806354f79dbc146103185780635a7d188a146103375780636352211e14610367576101a9565b806330d67cb514610280578063392edaa81461029c57806342842e0e146102cc576101a9565b806301ffc9a7146101ae57806306fdde03146101de578063081812fc146101fc578063095ea7b31461022c57806323b872dd146102485780632f75999914610264575b600080fd5b6101c860048036038101906101c39190613c08565b610577565b6040516101d59190614453565b60405180910390f35b6101e6610659565b6040516101f3919061446e565b60405180910390f35b61021660048036038101906102119190613d02565b6106eb565b60405161022391906142be565b60405180910390f35b61024660048036038101906102419190613b24565b610770565b005b610262600480360381019061025d9190613a1e565b610888565b005b61027e600480360381019061027991906139b9565b6108e8565b005b61029a60048036038101906102959190613d02565b6109a8565b005b6102b660048036038101906102b19190613c9b565b610a2e565b6040516102c391906147f0565b60405180910390f35b6102e660048036038101906102e19190613a1e565b61100e565b005b61030260048036038101906102fd91906139b9565b61102e565b60405161030f9190614431565b60405180910390f35b6103206110c5565b60405161032e9291906143ca565b60405180910390f35b610351600480360381019061034c9190613d2b565b6110f6565b60405161035e91906142be565b60405180910390f35b610381600480360381019061037c9190613d02565b611144565b60405161038e91906142be565b60405180910390f35b6103b160048036038101906103ac91906139b9565b6111f6565b6040516103be91906147f0565b60405180910390f35b6103cf6112ae565b005b6103eb60048036038101906103e691906139b9565b611336565b6040516103f891906147f0565b60405180910390f35b61041b60048036038101906104169190613b60565b61137f565b60405161042891906147f0565b60405180910390f35b610439611bfb565b005b610443611cd9565b60405161045091906142be565b60405180910390f35b610461611d03565b60405161046e919061446e565b60405180910390f35b610491600480360381019061048c9190613ae8565b611d95565b005b6104ad60048036038101906104a89190613c5a565b611f16565b005b6104c960048036038101906104c49190613a6d565b611fac565b005b6104e560048036038101906104e09190613d02565b61200e565b6040516104f2919061446e565b60405180910390f35b61051560048036038101906105109190613d02565b612160565b60405161052291906147f0565b60405180910390f35b610545600480360381019061054091906139e2565b6121a5565b6040516105529190614453565b60405180910390f35b610575600480360381019061057091906139b9565b612239565b005b60007f80ac58cd000000000000000000000000000000000000000000000000000000007bffffffffffffffffffffffffffffffffffffffffffffffffffffffff1916827bffffffffffffffffffffffffffffffffffffffffffffffffffffffff1916148061064257507f5b5e139f000000000000000000000000000000000000000000000000000000007bffffffffffffffffffffffffffffffffffffffffffffffffffffffff1916827bffffffffffffffffffffffffffffffffffffffffffffffffffffffff1916145b80610652575061065182612331565b5b9050919050565b60606000805461066890614ae1565b80601f016020809104026020016040519081016040528092919081815260200182805461069490614ae1565b80156106e15780601f106106b6576101008083540402835291602001916106e1565b820191906000526020600020905b8154815290600101906020018083116106c457829003601f168201915b5050505050905090565b60006106f68261239b565b610735576040517f08c379a000000000000000000000000000000000000000000000000000000000815260040161072c90614670565b60405180910390fd5b6004600083815260200190815260200160002060009054906101000a900473ffffffffffffffffffffffffffffffffffffffff169050919050565b600061077b82611144565b90508073ffffffffffffffffffffffffffffffffffffffff168373ffffffffffffffffffffffffffffffffffffffff1614156107ec576040517f08c379a00000000000000000000000000000000000000000000000000000000081526004016107e390614730565b60405180910390fd5b8073ffffffffffffffffffffffffffffffffffffffff1661080b612407565b73ffffffffffffffffffffffffffffffffffffffff16148061083a575061083981610834612407565b6121a5565b5b610879576040517f08c379a000000000000000000000000000000000000000000000000000000000815260040161087090614590565b60405180910390fd5b610883838361240f565b505050565b610899610893612407565b826124c8565b6108d8576040517f08c379a00000000000000000000000000000000000000000000000000000000081526004016108cf90614770565b60405180910390fd5b6108e38383836125a6565b505050565b6108f0612407565b73ffffffffffffffffffffffffffffffffffffffff1661090e611cd9565b73ffffffffffffffffffffffffffffffffffffffff1614610964576040517f08c379a000000000000000000000000000000000000000000000000000000000815260040161095b90614690565b60405180910390fd5b80600d60006101000a81548173ffffffffffffffffffffffffffffffffffffffff021916908373ffffffffffffffffffffffffffffffffffffffff16021790555050565b6109b0612407565b73ffffffffffffffffffffffffffffffffffffffff166109ce611cd9565b73ffffffffffffffffffffffffffffffffffffffff1614610a24576040517f08c379a0000000000000000000000000000000000000000000000000000000008152600401610a1b90614690565b60405180910390fd5b80600b8190555050565b60006001600b5414610a75576040517f08c379a0000000000000000000000000000000000000000000000000000000008152600401610a6c90614790565b60405180910390fd5b60006001831415610be857606460085410610ac5576040517f08c379a0000000000000000000000000000000000000000000000000000000008152600401610abc906147b0565b60405180910390fd5b600160086000828254610ad8919061493a565b925050819055508360085414610b23576040517f08c379a0000000000000000000000000000000000000000000000000000000008152600401610b1a90614550565b60405180910390fd5b6008549050600d60009054906101000a900473ffffffffffffffffffffffffffffffffffffffff1673ffffffffffffffffffffffffffffffffffffffff166323b872dd3330680ad78ebc5ac62000006040518463ffffffff1660e01b8152600401610b90939291906142d9565b602060405180830381600087803b158015610baa57600080fd5b505af1158015610bbe573d6000803e3d6000fd5b505050506040513d601f19601f82011682018060405250810190610be29190613bdf565b50610eca565b6002831415610d5a576107d060095410610c37576040517f08c379a0000000000000000000000000000000000000000000000000000000008152600401610c2e906146f0565b60405180910390fd5b600160096000828254610c4a919061493a565b925050819055508360095414610c95576040517f08c379a0000000000000000000000000000000000000000000000000000000008152600401610c8c90614550565b60405180910390fd5b6009549050600d60009054906101000a900473ffffffffffffffffffffffffffffffffffffffff1673ffffffffffffffffffffffffffffffffffffffff166323b872dd33306801158e460913d000006040518463ffffffff1660e01b8152600401610d0293929190614310565b602060405180830381600087803b158015610d1c57600080fd5b505af1158015610d30573d6000803e3d6000fd5b505050506040513d601f19601f82011682018060405250810190610d549190613bdf565b50610ec9565b6003831415610ec857620186a0600a5410610daa576040517f08c379a0000000000000000000000000000000000000000000000000000000008152600401610da1906146f0565b60405180910390fd5b6001600a6000828254610dbd919061493a565b9250508190555083600a5414610e08576040517f08c379a0000000000000000000000000000000000000000000000000000000008152600401610dff90614550565b60405180910390fd5b600a549050600d60009054906101000a900473ffffffffffffffffffffffffffffffffffffffff1673ffffffffffffffffffffffffffffffffffffffff166323b872dd3330671bc16d674ec800006040518463ffffffff1660e01b8152600401610e7493929190614347565b602060405180830381600087803b158015610e8e57600080fd5b505af1158015610ea2573d6000803e3d6000fd5b505050506040513d601f19601f82011682018060405250810190610ec69190613bdf565b505b5b5b610ed381612802565b610edd338261284b565b610ee73382612a03565b610ef18186612bd1565b6001600f60003373ffffffffffffffffffffffffffffffffffffffff1673ffffffffffffffffffffffffffffffffffffffff168152602001908152602001600020541080610f7d575082600f60003373ffffffffffffffffffffffffffffffffffffffff1673ffffffffffffffffffffffffffffffffffffffff16815260200190815260200160002054115b15610fc8576001600f60003373ffffffffffffffffffffffffffffffffffffffff1673ffffffffffffffffffffffffffffffffffffffff168152602001908152602001600020819055505b7f0e4816f68e3177f806c4f4ce520a4b63db7e8ff778b423ad12f90e8d9b7d5756338287604051610ffb939291906143f3565b60405180910390a1809150509392505050565b61102983838360405180602001604052806000815250611fac565b505050565b6060601060008373ffffffffffffffffffffffffffffffffffffffff1673ffffffffffffffffffffffffffffffffffffffff1681526020019081526020016000208054806020026020016040519081016040528092919081815260200182805480156110b957602002820191906000526020600020905b8154815260200190600101908083116110a5575b50505050509050919050565b600080600d60009054906101000a900473ffffffffffffffffffffffffffffffffffffffff16600b54915091509091565b6014602052816000526040600020818154811061111257600080fd5b906000526020600020016000915091509054906101000a900473ffffffffffffffffffffffffffffffffffffffff1681565b6000806002600084815260200190815260200160002060009054906101000a900473ffffffffffffffffffffffffffffffffffffffff169050600073ffffffffffffffffffffffffffffffffffffffff168173ffffffffffffffffffffffffffffffffffffffff1614156111ed576040517f08c379a00000000000000000000000000000000000000000000000000000000081526004016111e4906145d0565b60405180910390fd5b80915050919050565b60008073ffffffffffffffffffffffffffffffffffffffff168273ffffffffffffffffffffffffffffffffffffffff161415611267576040517f08c379a000000000000000000000000000000000000000000000000000000000815260040161125e906145b0565b60405180910390fd5b600360008373ffffffffffffffffffffffffffffffffffffffff1673ffffffffffffffffffffffffffffffffffffffff168152602001908152602001600020549050919050565b6112b6612407565b73ffffffffffffffffffffffffffffffffffffffff166112d4611cd9565b73ffffffffffffffffffffffffffffffffffffffff161461132a576040517f08c379a000000000000000000000000000000000000000000000000000000000815260040161132190614690565b60405180910390fd5b6113346000612c45565b565b6000600f60008373ffffffffffffffffffffffffffffffffffffffff1673ffffffffffffffffffffffffffffffffffffffff168152602001908152602001600020549050919050565b60006003600b54146113c6576040517f08c379a00000000000000000000000000000000000000000000000000000000081526004016113bd90614750565b60405180910390fd5b600c84511461140a576040517f08c379a0000000000000000000000000000000000000000000000000000000008152600401611401906147d0565b60405180910390fd5b60006103e885600081518110611449577f4e487b7100000000000000000000000000000000000000000000000000000000600052603260045260246000fd5b60200260200101511180156114a0575061271085600081518110611496577f4e487b7100000000000000000000000000000000000000000000000000000000600052603260045260246000fd5b6020026020010151105b15611826576001600860008282546114b8919061493a565b925050819055508260085414611503576040517f08c379a00000000000000000000000000000000000000000000000000000000081526004016114fa90614550565b60405180910390fd5b6103e760085410611549576040517f08c379a000000000000000000000000000000000000000000000000000000000815260040161154090614710565b60405180910390fd5b6000600190505b600c81101561163d576103e8868281518110611595577f4e487b7100000000000000000000000000000000000000000000000000000000600052603260045260246000fd5b60200260200101511180156115eb57506127108682815181106115e1577f4e487b7100000000000000000000000000000000000000000000000000000000600052603260045260246000fd5b6020026020010151105b61162a576040517f08c379a000000000000000000000000000000000000000000000000000000000815260040161162190614530565b60405180910390fd5b808061163590614b44565b915050611550565b5060005b600c8110156117395761169433878381518110611687577f4e487b7100000000000000000000000000000000000000000000000000000000600052603260045260246000fd5b6020026020010151612d0b565b6116dd8682815181106116d0577f4e487b7100000000000000000000000000000000000000000000000000000000600052603260045260246000fd5b6020026020010151612f3b565b611726868281518110611719577f4e487b7100000000000000000000000000000000000000000000000000000000600052603260045260246000fd5b6020026020010151613087565b808061173190614b44565b915050611641565b5060085490506117493382612a03565b6001600f60003373ffffffffffffffffffffffffffffffffffffffff1673ffffffffffffffffffffffffffffffffffffffff1681526020019081526020016000205410806117d657506001600f60003373ffffffffffffffffffffffffffffffffffffffff1673ffffffffffffffffffffffffffffffffffffffff16815260200190815260200160002054115b15611821576001600f60003373ffffffffffffffffffffffffffffffffffffffff1673ffffffffffffffffffffffffffffffffffffffff168152602001908152602001600020819055505b611ba2565b61271085600081518110611863577f4e487b7100000000000000000000000000000000000000000000000000000000600052603260045260246000fd5b60200260200101511115611ba157600160096000828254611884919061493a565b9250508190555082600954146118cf576040517f08c379a00000000000000000000000000000000000000000000000000000000081526004016118c690614550565b60405180910390fd5b61270f60095410611915576040517f08c379a000000000000000000000000000000000000000000000000000000000815260040161190c90614710565b60405180910390fd5b6000600190505b600c8110156119bc57612710868281518110611961577f4e487b7100000000000000000000000000000000000000000000000000000000600052603260045260246000fd5b6020026020010151116119a9576040517f08c379a00000000000000000000000000000000000000000000000000000000081526004016119a090614530565b60405180910390fd5b80806119b490614b44565b91505061191c565b5060005b600c811015611ab857611a1333878381518110611a06577f4e487b7100000000000000000000000000000000000000000000000000000000600052603260045260246000fd5b6020026020010151612d0b565b611a5c868281518110611a4f577f4e487b7100000000000000000000000000000000000000000000000000000000600052603260045260246000fd5b6020026020010151612f3b565b611aa5868281518110611a98577f4e487b7100000000000000000000000000000000000000000000000000000000600052603260045260246000fd5b6020026020010151613087565b8080611ab090614b44565b9150506119c0565b506009549050611ac83382612a03565b6001600f60003373ffffffffffffffffffffffffffffffffffffffff1673ffffffffffffffffffffffffffffffffffffffff168152602001908152602001600020541080611b5557506002600f60003373ffffffffffffffffffffffffffffffffffffffff1673ffffffffffffffffffffffffffffffffffffffff16815260200190815260200160002054115b15611ba0576002600f60003373ffffffffffffffffffffffffffffffffffffffff1673ffffffffffffffffffffffffffffffffffffffff168152602001908152602001600020819055505b5b5b611bab81612802565b611bb5338261284b565b7f0e4816f68e3177f806c4f4ce520a4b63db7e8ff778b423ad12f90e8d9b7d5756338286604051611be8939291906143f3565b60405180910390a1809150509392505050565b600760159054906101000a900460ff1680611c235750600760149054906101000a900460ff16155b611c62576040517f08c379a0000000000000000000000000000000000000000000000000000000008152600401611c5990614610565b60405180910390fd5b6000600760159054906101000a900460ff161590508015611cb4576001600760156101000a81548160ff0219169083151502179055506001600760146101000a81548160ff0219169083151502179055505b8015611cd6576000600760156101000a81548160ff0219169083151502179055505b50565b6000600760009054906101000a900473ffffffffffffffffffffffffffffffffffffffff16905090565b606060018054611d1290614ae1565b80601f0160208091040260200160405190810160405280929190818152602001828054611d3e90614ae1565b8015611d8b5780601f10611d6057610100808354040283529160200191611d8b565b820191906000526020600020905b815481529060010190602001808311611d6e57829003601f168201915b5050505050905090565b611d9d612407565b73ffffffffffffffffffffffffffffffffffffffff168273ffffffffffffffffffffffffffffffffffffffff161415611e0b576040517f08c379a0000000000000000000000000000000000000000000000000000000008152600401611e0290614510565b60405180910390fd5b8060056000611e18612407565b73ffffffffffffffffffffffffffffffffffffffff1673ffffffffffffffffffffffffffffffffffffffff16815260200190815260200160002060008473ffffffffffffffffffffffffffffffffffffffff1673ffffffffffffffffffffffffffffffffffffffff16815260200190815260200160002060006101000a81548160ff0219169083151502179055508173ffffffffffffffffffffffffffffffffffffffff16611ec5612407565b73ffffffffffffffffffffffffffffffffffffffff167f17307eab39ab6107e8899845ad3d59bd9653f200f220920489ca2b5937696c3183604051611f0a9190614453565b60405180910390a35050565b611f1e612407565b73ffffffffffffffffffffffffffffffffffffffff16611f3c611cd9565b73ffffffffffffffffffffffffffffffffffffffff1614611f92576040517f08c379a0000000000000000000000000000000000000000000000000000000008152600401611f8990614690565b60405180910390fd5b80600c9080519060200190611fa89291906136f2565b5050565b611fbd611fb7612407565b836124c8565b611ffc576040517f08c379a0000000000000000000000000000000000000000000000000000000008152600401611ff390614770565b60405180910390fd5b612008848484846130da565b50505050565b60606120198261239b565b612058576040517f08c379a000000000000000000000000000000000000000000000000000000000815260040161204f90614650565b60405180910390fd5b600060066000848152602001908152602001600020805461207890614ae1565b80601f01602080910402602001604051908101604052809291908181526020018280546120a490614ae1565b80156120f15780601f106120c6576101008083540402835291602001916120f1565b820191906000526020600020905b8154815290600101906020018083116120d457829003601f168201915b505050505090506000612102613136565b905060008151141561211857819250505061215b565b60008251111561214d57808260405160200161213592919061429a565b6040516020818303038152906040529250505061215b565b612156846131c8565b925050505b919050565b600060018214156121755760085490506121a0565b60028214156121885760095490506121a0565b600382141561219b57600a5490506121a0565b600090505b919050565b6000600560008473ffffffffffffffffffffffffffffffffffffffff1673ffffffffffffffffffffffffffffffffffffffff16815260200190815260200160002060008373ffffffffffffffffffffffffffffffffffffffff1673ffffffffffffffffffffffffffffffffffffffff16815260200190815260200160002060009054906101000a900460ff16905092915050565b612241612407565b73ffffffffffffffffffffffffffffffffffffffff1661225f611cd9565b73ffffffffffffffffffffffffffffffffffffffff16146122b5576040517f08c379a00000000000000000000000000000000000000000000000000000000081526004016122ac90614690565b60405180910390fd5b600073ffffffffffffffffffffffffffffffffffffffff168173ffffffffffffffffffffffffffffffffffffffff161415612325576040517f08c379a000000000000000000000000000000000000000000000000000000000815260040161231c906144b0565b60405180910390fd5b61232e81612c45565b50565b60007f01ffc9a7000000000000000000000000000000000000000000000000000000007bffffffffffffffffffffffffffffffffffffffffffffffffffffffff1916827bffffffffffffffffffffffffffffffffffffffffffffffffffffffff1916149050919050565b60008073ffffffffffffffffffffffffffffffffffffffff166002600084815260200190815260200160002060009054906101000a900473ffffffffffffffffffffffffffffffffffffffff1673ffffffffffffffffffffffffffffffffffffffff1614159050919050565b600033905090565b816004600083815260200190815260200160002060006101000a81548173ffffffffffffffffffffffffffffffffffffffff021916908373ffffffffffffffffffffffffffffffffffffffff160217905550808273ffffffffffffffffffffffffffffffffffffffff1661248283611144565b73ffffffffffffffffffffffffffffffffffffffff167f8c5be1e5ebec7d5bd14f71427d1e84f3dd0314c0f7b2291e5b200ac8c7c3b92560405160405180910390a45050565b60006124d38261239b565b612512576040517f08c379a000000000000000000000000000000000000000000000000000000000815260040161250990614570565b60405180910390fd5b600061251d83611144565b90508073ffffffffffffffffffffffffffffffffffffffff168473ffffffffffffffffffffffffffffffffffffffff16148061258c57508373ffffffffffffffffffffffffffffffffffffffff16612574846106eb565b73ffffffffffffffffffffffffffffffffffffffff16145b8061259d575061259c81856121a5565b5b91505092915050565b8273ffffffffffffffffffffffffffffffffffffffff166125c682611144565b73ffffffffffffffffffffffffffffffffffffffff161461261c576040517f08c379a0000000000000000000000000000000000000000000000000000000008152600401612613906146b0565b60405180910390fd5b600073ffffffffffffffffffffffffffffffffffffffff168273ffffffffffffffffffffffffffffffffffffffff16141561268c576040517f08c379a0000000000000000000000000000000000000000000000000000000008152600401612683906144f0565b60405180910390fd5b61269783838361326f565b6126a260008261240f565b6001600360008573ffffffffffffffffffffffffffffffffffffffff1673ffffffffffffffffffffffffffffffffffffffff16815260200190815260200160002060008282546126f291906149c1565b925050819055506001600360008473ffffffffffffffffffffffffffffffffffffffff1673ffffffffffffffffffffffffffffffffffffffff1681526020019081526020016000206000828254612749919061493a565b92505081905550816002600083815260200190815260200160002060006101000a81548173ffffffffffffffffffffffffffffffffffffffff021916908373ffffffffffffffffffffffffffffffffffffffff160217905550808273ffffffffffffffffffffffffffffffffffffffff168473ffffffffffffffffffffffffffffffffffffffff167fddf252ad1be2c89b69c2b068fc378daa952ba7f163c4a11628f55a4df523b3ef60405160405180910390a4505050565b6012805490506013600083815260200190815260200160002081905550601281908060018154018082558091505060019003906000526020600020016000909190919091505550565b601060008373ffffffffffffffffffffffffffffffffffffffff1673ffffffffffffffffffffffffffffffffffffffff168152602001908152602001600020805490506011600083815260200190815260200160002081905550601060008373ffffffffffffffffffffffffffffffffffffffff1673ffffffffffffffffffffffffffffffffffffffff168152602001908152602001600020819080600181540180825580915050600190039060005260206000200160009091909190915055600060146000838152602001908152602001600020905060008180549050111561299c5780805480612966577f4e487b7100000000000000000000000000000000000000000000000000000000600052603160045260246000fd5b6001900381819060005260206000200160006101000a81549073ffffffffffffffffffffffffffffffffffffffff021916905590555b80839080600181540180825580915050600190039060005260206000200160009091909190916101000a81548173ffffffffffffffffffffffffffffffffffffffff021916908373ffffffffffffffffffffffffffffffffffffffff160217905550505050565b600073ffffffffffffffffffffffffffffffffffffffff168273ffffffffffffffffffffffffffffffffffffffff161415612a73576040517f08c379a0000000000000000000000000000000000000000000000000000000008152600401612a6a90614630565b60405180910390fd5b612a7c8161239b565b15612abc576040517f08c379a0000000000000000000000000000000000000000000000000000000008152600401612ab3906144d0565b60405180910390fd5b612ac86000838361326f565b6001600360008473ffffffffffffffffffffffffffffffffffffffff1673ffffffffffffffffffffffffffffffffffffffff1681526020019081526020016000206000828254612b18919061493a565b92505081905550816002600083815260200190815260200160002060006101000a81548173ffffffffffffffffffffffffffffffffffffffff021916908373ffffffffffffffffffffffffffffffffffffffff160217905550808273ffffffffffffffffffffffffffffffffffffffff16600073ffffffffffffffffffffffffffffffffffffffff167fddf252ad1be2c89b69c2b068fc378daa952ba7f163c4a11628f55a4df523b3ef60405160405180910390a45050565b612bda8261239b565b612c19576040517f08c379a0000000000000000000000000000000000000000000000000000000008152600401612c10906145f0565b60405180910390fd5b80600660008481526020019081526020016000209080519060200190612c409291906136f2565b505050565b6000600760009054906101000a900473ffffffffffffffffffffffffffffffffffffffff16905081600760006101000a81548173ffffffffffffffffffffffffffffffffffffffff021916908373ffffffffffffffffffffffffffffffffffffffff1602179055508173ffffffffffffffffffffffffffffffffffffffff168173ffffffffffffffffffffffffffffffffffffffff167f8be0079c531659141344cd1fd0a4f28419497f9722a3daafe3b4186f6b6457e060405160405180910390a35050565b6000612d636001601060008673ffffffffffffffffffffffffffffffffffffffff1673ffffffffffffffffffffffffffffffffffffffff1681526020019081526020016000208054905061327490919063ffffffff16565b9050600060116000848152602001908152602001600020549050818114612eaa576000601060008673ffffffffffffffffffffffffffffffffffffffff1673ffffffffffffffffffffffffffffffffffffffff1681526020019081526020016000208381548110612dfd577f4e487b7100000000000000000000000000000000000000000000000000000000600052603260045260246000fd5b9060005260206000200154905080601060008773ffffffffffffffffffffffffffffffffffffffff1673ffffffffffffffffffffffffffffffffffffffff1681526020019081526020016000208381548110612e82577f4e487b7100000000000000000000000000000000000000000000000000000000600052603260045260246000fd5b9060005260206000200181905550816011600083815260200190815260200160002081905550505b601060008573ffffffffffffffffffffffffffffffffffffffff1673ffffffffffffffffffffffffffffffffffffffff168152602001908152602001600020805480612f1f577f4e487b7100000000000000000000000000000000000000000000000000000000600052603160045260246000fd5b6001900381819060005260206000200160009055905550505050565b6000612f56600160128054905061327490919063ffffffff16565b9050600060136000848152602001908152602001600020549050600060128381548110612fac577f4e487b7100000000000000000000000000000000000000000000000000000000600052603260045260246000fd5b906000526020600020015490508060128381548110612ff4577f4e487b7100000000000000000000000000000000000000000000000000000000600052603260045260246000fd5b90600052602060002001819055508160136000838152602001908152602001600020819055506012805480613052577f4e487b7100000000000000000000000000000000000000000000000000000000600052603160045260246000fd5b600190038181906000526020600020016000905590556000601360008681526020019081526020016000208190555050505050565b6130908161328a565b60006006600083815260200190815260200160002080546130b090614ae1565b9050146130d7576006600082815260200190815260200160002060006130d69190613778565b5b50565b6130e58484846125a6565b6130f18484848461339b565b613130576040517f08c379a000000000000000000000000000000000000000000000000000000000815260040161312790614490565b60405180910390fd5b50505050565b6060600c805461314590614ae1565b80601f016020809104026020016040519081016040528092919081815260200182805461317190614ae1565b80156131be5780601f10613193576101008083540402835291602001916131be565b820191906000526020600020905b8154815290600101906020018083116131a157829003601f168201915b5050505050905090565b60606131d38261239b565b613212576040517f08c379a0000000000000000000000000000000000000000000000000000000008152600401613209906146d0565b60405180910390fd5b600061321c613136565b9050600081511161323c5760405180602001604052806000815250613267565b8061324684613532565b60405160200161325792919061429a565b6040516020818303038152906040525b915050919050565b505050565b6000818361328291906149c1565b905092915050565b600061329582611144565b90506132a38160008461326f565b6132ae60008361240f565b6001600360008373ffffffffffffffffffffffffffffffffffffffff1673ffffffffffffffffffffffffffffffffffffffff16815260200190815260200160002060008282546132fe91906149c1565b925050819055506002600083815260200190815260200160002060006101000a81549073ffffffffffffffffffffffffffffffffffffffff021916905581600073ffffffffffffffffffffffffffffffffffffffff168273ffffffffffffffffffffffffffffffffffffffff167fddf252ad1be2c89b69c2b068fc378daa952ba7f163c4a11628f55a4df523b3ef60405160405180910390a45050565b60006133bc8473ffffffffffffffffffffffffffffffffffffffff166136df565b15613525578373ffffffffffffffffffffffffffffffffffffffff1663150b7a026133e5612407565b8786866040518563ffffffff1660e01b8152600401613407949392919061437e565b602060405180830381600087803b15801561342157600080fd5b505af192505050801561345257506040513d601f19601f8201168201806040525081019061344f9190613c31565b60015b6134d5573d8060008114613482576040519150601f19603f3d011682016040523d82523d6000602084013e613487565b606091505b506000815114156134cd576040517f08c379a00000000000000000000000000000000000000000000000000000000081526004016134c490614490565b60405180910390fd5b805181602001fd5b63150b7a0260e01b7bffffffffffffffffffffffffffffffffffffffffffffffffffffffff1916817bffffffffffffffffffffffffffffffffffffffffffffffffffffffff19161491505061352a565b600190505b949350505050565b6060600082141561357a576040518060400160405280600181526020017f300000000000000000000000000000000000000000000000000000000000000081525090506136da565b600082905060005b600082146135ac57808061359590614b44565b915050600a826135a59190614990565b9150613582565b60008167ffffffffffffffff8111156135ee577f4e487b7100000000000000000000000000000000000000000000000000000000600052604160045260246000fd5b6040519080825280601f01601f1916602001820160405280156136205781602001600182028036833780820191505090505b5090505b600085146136d35760018261363991906149c1565b9150600a856136489190614b8d565b6030613654919061493a565b60f81b818381518110613690577f4e487b7100000000000000000000000000000000000000000000000000000000600052603260045260246000fd5b60200101907effffffffffffffffffffffffffffffffffffffffffffffffffffffffffffff1916908160001a905350600a856136cc9190614990565b9450613624565b8093505050505b919050565b600080823b905060008111915050919050565b8280546136fe90614ae1565b90600052602060002090601f0160209004810192826137205760008555613767565b82601f1061373957805160ff1916838001178555613767565b82800160010185558215613767579182015b8281111561376657825182559160200191906001019061374b565b5b50905061377491906137b8565b5090565b50805461378490614ae1565b6000825580601f1061379657506137b5565b601f0160209004906000526020600020908101906137b491906137b8565b5b50565b5b808211156137d15760008160009055506001016137b9565b5090565b60006137e86137e384614830565b61480b565b9050808382526020820190508285602086028201111561380757600080fd5b60005b85811015613837578161381d88826139a4565b84526020840193506020830192505060018101905061380a565b5050509392505050565b600061385461384f8461485c565b61480b565b90508281526020810184848401111561386c57600080fd5b613877848285614a9f565b509392505050565b600061389261388d8461488d565b61480b565b9050828152602081018484840111156138aa57600080fd5b6138b5848285614a9f565b509392505050565b6000813590506138cc81615318565b92915050565b600082601f8301126138e357600080fd5b81356138f38482602086016137d5565b91505092915050565b60008135905061390b8161532f565b92915050565b6000815190506139208161532f565b92915050565b60008135905061393581615346565b92915050565b60008151905061394a81615346565b92915050565b600082601f83011261396157600080fd5b8135613971848260208601613841565b91505092915050565b600082601f83011261398b57600080fd5b813561399b84826020860161387f565b91505092915050565b6000813590506139b38161535d565b92915050565b6000602082840312156139cb57600080fd5b60006139d9848285016138bd565b91505092915050565b600080604083850312156139f557600080fd5b6000613a03858286016138bd565b9250506020613a14858286016138bd565b9150509250929050565b600080600060608486031215613a3357600080fd5b6000613a41868287016138bd565b9350506020613a52868287016138bd565b9250506040613a63868287016139a4565b9150509250925092565b60008060008060808587031215613a8357600080fd5b6000613a91878288016138bd565b9450506020613aa2878288016138bd565b9350506040613ab3878288016139a4565b925050606085013567ffffffffffffffff811115613ad057600080fd5b613adc87828801613950565b91505092959194509250565b60008060408385031215613afb57600080fd5b6000613b09858286016138bd565b9250506020613b1a858286016138fc565b9150509250929050565b60008060408385031215613b3757600080fd5b6000613b45858286016138bd565b9250506020613b56858286016139a4565b9150509250929050565b600080600060608486031215613b7557600080fd5b600084013567ffffffffffffffff811115613b8f57600080fd5b613b9b868287016138d2565b935050602084013567ffffffffffffffff811115613bb857600080fd5b613bc48682870161397a565b9250506040613bd5868287016139a4565b9150509250925092565b600060208284031215613bf157600080fd5b6000613bff84828501613911565b91505092915050565b600060208284031215613c1a57600080fd5b6000613c2884828501613926565b91505092915050565b600060208284031215613c4357600080fd5b6000613c518482850161393b565b91505092915050565b600060208284031215613c6c57600080fd5b600082013567ffffffffffffffff811115613c8657600080fd5b613c928482850161397a565b91505092915050565b600080600060608486031215613cb057600080fd5b600084013567ffffffffffffffff811115613cca57600080fd5b613cd68682870161397a565b9350506020613ce7868287016139a4565b9250506040613cf8868287016139a4565b9150509250925092565b600060208284031215613d1457600080fd5b6000613d22848285016139a4565b91505092915050565b60008060408385031215613d3e57600080fd5b6000613d4c858286016139a4565b9250506020613d5d858286016139a4565b9150509250929050565b6000613d73838361427c565b60208301905092915050565b613d88816149f5565b82525050565b6000613d99826148ce565b613da381856148fc565b9350613dae836148be565b8060005b83811015613ddf578151613dc68882613d67565b9750613dd1836148ef565b925050600181019050613db2565b5085935050505092915050565b613df581614a07565b82525050565b6000613e06826148d9565b613e10818561490d565b9350613e20818560208601614aae565b613e2981614c7a565b840191505092915050565b613e3d81614a69565b82525050565b613e4c81614a7b565b82525050565b613e5b81614a8d565b82525050565b6000613e6c826148e4565b613e76818561491e565b9350613e86818560208601614aae565b613e8f81614c7a565b840191505092915050565b6000613ea5826148e4565b613eaf818561492f565b9350613ebf818560208601614aae565b80840191505092915050565b6000613ed860328361491e565b9150613ee382614c8b565b604082019050919050565b6000613efb60268361491e565b9150613f0682614cda565b604082019050919050565b6000613f1e601c8361491e565b9150613f2982614d29565b602082019050919050565b6000613f4160248361491e565b9150613f4c82614d52565b604082019050919050565b6000613f6460198361491e565b9150613f6f82614da1565b602082019050919050565b6000613f87600e8361491e565b9150613f9282614dca565b602082019050919050565b6000613faa600a8361491e565b9150613fb582614df3565b602082019050919050565b6000613fcd602c8361491e565b9150613fd882614e1c565b604082019050919050565b6000613ff060388361491e565b9150613ffb82614e6b565b604082019050919050565b6000614013602a8361491e565b915061401e82614eba565b604082019050919050565b600061403660298361491e565b915061404182614f09565b604082019050919050565b6000614059602e8361491e565b915061406482614f58565b604082019050919050565b600061407c602e8361491e565b915061408782614fa7565b604082019050919050565b600061409f60208361491e565b91506140aa82614ff6565b602082019050919050565b60006140c260318361491e565b91506140cd8261501f565b604082019050919050565b60006140e5602c8361491e565b91506140f08261506e565b604082019050919050565b600061410860208361491e565b9150614113826150bd565b602082019050919050565b600061412b60298361491e565b9150614136826150e6565b604082019050919050565b600061414e602f8361491e565b915061415982615135565b604082019050919050565b600061417160178361491e565b915061417c82615184565b602082019050919050565b6000614194601a8361491e565b915061419f826151ad565b602082019050919050565b60006141b760218361491e565b91506141c2826151d6565b604082019050919050565b60006141da600c8361491e565b91506141e582615225565b602082019050919050565b60006141fd60318361491e565b91506142088261524e565b604082019050919050565b6000614220600c8361491e565b915061422b8261529d565b602082019050919050565b600061424360178361491e565b915061424e826152c6565b602082019050919050565b6000614266600a8361491e565b9150614271826152ef565b602082019050919050565b61428581614a5f565b82525050565b61429481614a5f565b82525050565b60006142a68285613e9a565b91506142b28284613e9a565b91508190509392505050565b60006020820190506142d36000830184613d7f565b92915050565b60006060820190506142ee6000830186613d7f565b6142fb6020830185613d7f565b6143086040830184613e34565b949350505050565b60006060820190506143256000830186613d7f565b6143326020830185613d7f565b61433f6040830184613e43565b949350505050565b600060608201905061435c6000830186613d7f565b6143696020830185613d7f565b6143766040830184613e52565b949350505050565b60006080820190506143936000830187613d7f565b6143a06020830186613d7f565b6143ad604083018561428b565b81810360608301526143bf8184613dfb565b905095945050505050565b60006040820190506143df6000830185613d7f565b6143ec602083018461428b565b9392505050565b60006060820190506144086000830186613d7f565b614415602083018561428b565b81810360408301526144278184613e61565b9050949350505050565b6000602082019050818103600083015261444b8184613d8e565b905092915050565b60006020820190506144686000830184613dec565b92915050565b600060208201905081810360008301526144888184613e61565b905092915050565b600060208201905081810360008301526144a981613ecb565b9050919050565b600060208201905081810360008301526144c981613eee565b9050919050565b600060208201905081810360008301526144e981613f11565b9050919050565b6000602082019050818103600083015261450981613f34565b9050919050565b6000602082019050818103600083015261452981613f57565b9050919050565b6000602082019050818103600083015261454981613f7a565b9050919050565b6000602082019050818103600083015261456981613f9d565b9050919050565b6000602082019050818103600083015261458981613fc0565b9050919050565b600060208201905081810360008301526145a981613fe3565b9050919050565b600060208201905081810360008301526145c981614006565b9050919050565b600060208201905081810360008301526145e981614029565b9050919050565b600060208201905081810360008301526146098161404c565b9050919050565b600060208201905081810360008301526146298161406f565b9050919050565b6000602082019050818103600083015261464981614092565b9050919050565b60006020820190508181036000830152614669816140b5565b9050919050565b60006020820190508181036000830152614689816140d8565b9050919050565b600060208201905081810360008301526146a9816140fb565b9050919050565b600060208201905081810360008301526146c98161411e565b9050919050565b600060208201905081810360008301526146e981614141565b9050919050565b6000602082019050818103600083015261470981614164565b9050919050565b6000602082019050818103600083015261472981614187565b9050919050565b60006020820190508181036000830152614749816141aa565b9050919050565b60006020820190508181036000830152614769816141cd565b9050919050565b60006020820190508181036000830152614789816141f0565b9050919050565b600060208201905081810360008301526147a981614213565b9050919050565b600060208201905081810360008301526147c981614236565b9050919050565b600060208201905081810360008301526147e981614259565b9050919050565b6000602082019050614805600083018461428b565b92915050565b6000614815614826565b90506148218282614b13565b919050565b6000604051905090565b600067ffffffffffffffff82111561484b5761484a614c4b565b5b602082029050602081019050919050565b600067ffffffffffffffff82111561487757614876614c4b565b5b61488082614c7a565b9050602081019050919050565b600067ffffffffffffffff8211156148a8576148a7614c4b565b5b6148b182614c7a565b9050602081019050919050565b6000819050602082019050919050565b600081519050919050565b600081519050919050565b600081519050919050565b6000602082019050919050565b600082825260208201905092915050565b600082825260208201905092915050565b600082825260208201905092915050565b600081905092915050565b600061494582614a5f565b915061495083614a5f565b9250827fffffffffffffffffffffffffffffffffffffffffffffffffffffffffffffffff0382111561498557614984614bbe565b5b828201905092915050565b600061499b82614a5f565b91506149a683614a5f565b9250826149b6576149b5614bed565b5b828204905092915050565b60006149cc82614a5f565b91506149d783614a5f565b9250828210156149ea576149e9614bbe565b5b828203905092915050565b6000614a0082614a3f565b9050919050565b60008115159050919050565b60007fffffffff0000000000000000000000000000000000000000000000000000000082169050919050565b600073ffffffffffffffffffffffffffffffffffffffff82169050919050565b6000819050919050565b6000614a7482614a5f565b9050919050565b6000614a8682614a5f565b9050919050565b6000614a9882614a5f565b9050919050565b82818337600083830152505050565b60005b83811015614acc578082015181840152602081019050614ab1565b83811115614adb576000848401525b50505050565b60006002820490506001821680614af957607f821691505b60208210811415614b0d57614b0c614c1c565b5b50919050565b614b1c82614c7a565b810181811067ffffffffffffffff82111715614b3b57614b3a614c4b565b5b80604052505050565b6000614b4f82614a5f565b91507fffffffffffffffffffffffffffffffffffffffffffffffffffffffffffffffff821415614b8257614b81614bbe565b5b600182019050919050565b6000614b9882614a5f565b9150614ba383614a5f565b925082614bb357614bb2614bed565b5b828206905092915050565b7f4e487b7100000000000000000000000000000000000000000000000000000000600052601160045260246000fd5b7f4e487b7100000000000000000000000000000000000000000000000000000000600052601260045260246000fd5b7f4e487b7100000000000000000000000000000000000000000000000000000000600052602260045260246000fd5b7f4e487b7100000000000000000000000000000000000000000000000000000000600052604160045260246000fd5b6000601f19601f8301169050919050565b7f4552433732313a207472616e7366657220746f206e6f6e20455243373231526560008201527f63656976657220696d706c656d656e7465720000000000000000000000000000602082015250565b7f4f776e61626c653a206e6577206f776e657220697320746865207a65726f206160008201527f6464726573730000000000000000000000000000000000000000000000000000602082015250565b7f4552433732313a20746f6b656e20616c7265616479206d696e74656400000000600082015250565b7f4552433732313a207472616e7366657220746f20746865207a65726f2061646460008201527f7265737300000000000000000000000000000000000000000000000000000000602082015250565b7f4552433732313a20617070726f766520746f2063616c6c657200000000000000600082015250565b7f6e6565642073616d652072616e6b000000000000000000000000000000000000600082015250565b7f2049442077726f6e672100000000000000000000000000000000000000000000600082015250565b7f4552433732313a206f70657261746f7220717565727920666f72206e6f6e657860008201527f697374656e7420746f6b656e0000000000000000000000000000000000000000602082015250565b7f4552433732313a20617070726f76652063616c6c6572206973206e6f74206f7760008201527f6e6572206e6f7220617070726f76656420666f7220616c6c0000000000000000602082015250565b7f4552433732313a2062616c616e636520717565727920666f7220746865207a6560008201527f726f206164647265737300000000000000000000000000000000000000000000602082015250565b7f4552433732313a206f776e657220717565727920666f72206e6f6e657869737460008201527f656e7420746f6b656e0000000000000000000000000000000000000000000000602082015250565b7f45524337323155524953746f726167653a2055524920736574206f66206e6f6e60008201527f6578697374656e7420746f6b656e000000000000000000000000000000000000602082015250565b7f496e697469616c697a61626c653a20636f6e747261637420697320616c72656160008201527f647920696e697469616c697a6564000000000000000000000000000000000000602082015250565b7f4552433732313a206d696e7420746f20746865207a65726f2061646472657373600082015250565b7f45524337323155524953746f726167653a2055524920717565727920666f722060008201527f6e6f6e6578697374656e7420746f6b656e000000000000000000000000000000602082015250565b7f4552433732313a20617070726f76656420717565727920666f72206e6f6e657860008201527f697374656e7420746f6b656e0000000000000000000000000000000000000000602082015250565b7f4f776e61626c653a2063616c6c6572206973206e6f7420746865206f776e6572600082015250565b7f4552433732313a207472616e73666572206f6620746f6b656e2074686174206960008201527f73206e6f74206f776e0000000000000000000000000000000000000000000000602082015250565b7f4552433732314d657461646174613a2055524920717565727920666f72206e6f60008201527f6e6578697374656e7420746f6b656e0000000000000000000000000000000000602082015250565b7f65786365656420746865206d696e7420616d6f756e7421000000000000000000600082015250565b7f65786365656420746865207570677261646520616d6f756e7421000000000000600082015250565b7f4552433732313a20617070726f76616c20746f2063757272656e74206f776e6560008201527f7200000000000000000000000000000000000000000000000000000000000000602082015250565b7f204e6f7420737461727420330000000000000000000000000000000000000000600082015250565b7f4552433732313a207472616e736665722063616c6c6572206973206e6f74206f60008201527f776e6572206e6f7220617070726f766564000000000000000000000000000000602082015250565b7f204e6f7420737461727420310000000000000000000000000000000000000000600082015250565b7f65787365656420746865206d696e7420616d6f756e7421000000000000000000600082015250565b7f65727220616d6f756e7400000000000000000000000000000000000000000000600082015250565b615321816149f5565b811461532c57600080fd5b50565b61533881614a07565b811461534357600080fd5b50565b61534f81614a13565b811461535a57600080fd5b50565b61536681614a5f565b811461537157600080fd5b5056fea2646970667358221220f8020ccbf140440467db257c079481f3f145c156b8c38d38ef8ec62a6eaea0c864736f6c63430008020033",
  "immutableReferences": {},
  "source": "// contracts/GameItem.sol\n// SPDX-License-Identifier: MIT\npragma solidity ^0.8.0;\n\nimport \"@openzeppelin/contracts/utils/math/SafeMath.sol\";\nimport \"@openzeppelin/contracts/token/ERC721/ERC721.sol\";\nimport \"@openzeppelin/contracts/token/ERC20/IERC20.sol\";\nimport \"@openzeppelin/contracts/token/ERC721/extensions/ERC721URIStorage.sol\";\nimport \"@openzeppelin/contracts/token/ERC721/extensions/ERC721Enumerable.sol\";\nimport \"@openzeppelin/contracts/proxy/utils/Initializable.sol\";\n//import \"@openzeppelin/contracts/utils/Counters.sol\";\nimport \"@openzeppelin/contracts/access/Ownable.sol\";\n\ncontract XVIP is ERC721URIStorage, Ownable, Initializable {\n    using SafeMath for uint256;\n    event MintXVip(address _onwer, uint256 _tokenId, string metedate);\n    event BurnXVip(address _onwer, uint256 _tokenId);\n    //using Counters for Counters.Counter;\n    uint256 private _tokenIds1;\n    uint256 private _tokenIds2;\n    uint256 private _tokenIds3;\n    uint256 private started;\n    string base_URI;\n    address XET_address;\n    mapping(uint256 => uint256) private userVIPlevel_count; //------------------\n    mapping(address => uint256) private Max_vip_level;\n\n    // Mapping from owner to list of owned token IDs\n    mapping(address => uint256[]) private _ownedTokens;\n\n    // Mapping from token ID to index of the owner tokens list\n    mapping(uint256 => uint256) private _ownedTokensIndex;\n\n    // Array with all token ids, used for enumeration\n    uint256[] private _allTokens;\n\n    // Mapping from token id to position in the allTokens array\n    mapping(uint256 => uint256) private _allTokensIndex;\n\n    mapping(uint256 => address[]) public ownerOfAddress;\n\n    constructor() ERC721(\"X-E Space VIP Card\", \"XVIP\") {\n        _tokenIds1 = 0;\n        _tokenIds2 = 1000;\n        _tokenIds3 = 10000;\n    }\n\n    function initialize() public initializer {\n        //transferOwnership(owner());\n        //ERC721(\"X-E space VIP Card\", \"XVIP\");\n    }\n\n    modifier onlystarted1() {\n        require(started == 1, \" Not start 1\");\n        _;\n    }\n    modifier onlystarted2() {\n        require(started == 2, \" Not start 2\");\n        _;\n    }\n    modifier onlystarted3() {\n        require(started == 3, \" Not start 3\");\n        _;\n    }\n\n    function set_start(uint256 _num) external onlyOwner {\n        started = _num;\n    }\n    function set_XETaddr(address _addr) external onlyOwner {\n        XET_address = _addr;\n    }\n    function get_setting() external view returns(address _addr, uint256 _num) {\n        return (XET_address, started);\n    }\n    function get_current_ids(uint256 _num) external view returns(uint256) {\n        if(_num==1){return _tokenIds1;}\n        if(_num==2){return _tokenIds2;}\n        if(_num==3){return _tokenIds3;}\n        return 0;\n    }\n\n    function mint_xvip(string memory tokenURI, uint256 _id, uint256 _id_type)\n        public\n        onlystarted1\n        returns (uint256)\n    {\n        uint256 newItemId;\n        if(_id_type == 1) {\n            require(_tokenIds1 < 100, \"exseed the mint amount!\");\n            _tokenIds1 += 1;\n            require(_tokenIds1 == _id, \" ID wrong!\");\n            newItemId = _tokenIds1;\n            IERC20(XET_address).transferFrom(msg.sender, address(this), 200 ether);\n        }\n        else if(_id_type == 2) {\n            require(_tokenIds2 < 2000, \"exceed the mint amount!\");\n            _tokenIds2 += 1;\n            require(_tokenIds2 == _id, \" ID wrong!\");\n            newItemId = _tokenIds2;\n            IERC20(XET_address).transferFrom(msg.sender, address(this), 20 ether);\n        }\n        else if(_id_type == 3) {\n            require(_tokenIds3 < 100000, \"exceed the mint amount!\");\n            _tokenIds3 += 1;\n            require(_tokenIds3 == _id, \" ID wrong!\");\n            newItemId = _tokenIds3;\n            IERC20(XET_address).transferFrom(msg.sender, address(this), 2 ether);\n        }\n\n        _addTokenToAllTokensEnumeration(newItemId);\n        _addTokenToOwnerEnumeration(msg.sender, newItemId);\n\n        _mint(msg.sender, newItemId);\n        _setTokenURI(newItemId, tokenURI);\n        if (Max_vip_level[msg.sender] < 1 || Max_vip_level[msg.sender] > _id_type) {\n            Max_vip_level[msg.sender] = 1;\n        }\n        emit MintXVip(msg.sender, newItemId, tokenURI);\n        return newItemId;\n    }\n\n    // function mint_xvip_1(string memory tokenURI, uint256 _id)\n    //     public\n    //     onlystarted1\n    //     returns (uint256)\n    // {\n    //     require(_tokenIds1 < 100, \"exseed the mint amount!\");\n    //     _tokenIds1 += 1;\n    //     require(_tokenIds1 == _id, \" ID wrong!\");\n    //     IERC20(XET_address).transferFrom(msg.sender, address(this), 200 ether);\n    //     uint256 newItemId = _tokenIds1;\n    //     _addTokenToAllTokensEnumeration(newItemId);\n    //     _addTokenToOwnerEnumeration(msg.sender, newItemId);\n\n    //     _mint(msg.sender, newItemId);\n    //     _setTokenURI(newItemId, tokenURI);\n    //     if (Max_vip_level[msg.sender] < 1 || Max_vip_level[msg.sender] > 1) {\n    //         Max_vip_level[msg.sender] = 1;\n    //     }\n    //     emit MintXVip(msg.sender, newItemId, tokenURI);\n    //     return newItemId;\n    // }\n\n    // function mint_xvip_2(string memory tokenURI, uint256 _id)\n    //     public\n    //     onlystarted2\n    //     returns (uint256)\n    // {\n    //     require(_tokenIds2 < 2000, \"exceed the mint amount!\");\n    //     _tokenIds2 += 1;\n    //     require(_tokenIds2 == _id, \" ID wrong!\");\n        \n    //     IERC20(XET_address).transferFrom(msg.sender, address(this), 20 ether);\n    //     uint256 newItemId = _tokenIds2;\n    //     _addTokenToAllTokensEnumeration(newItemId);\n    //     _addTokenToOwnerEnumeration(msg.sender, newItemId);\n\n    //     _mint(msg.sender, newItemId);\n    //     _setTokenURI(newItemId, tokenURI);\n    //     if (Max_vip_level[msg.sender] < 1 || Max_vip_level[msg.sender] > 2) {\n    //         Max_vip_level[msg.sender] = 2;\n    //     }\n    //     emit MintXVip(msg.sender, newItemId, tokenURI);\n    //     return newItemId;\n    // }\n\n    // function mint_xvip_3(string memory tokenURI, uint256 _id)\n    //     public\n    //     onlystarted3\n    //     returns (uint256)\n    // {\n    //     require(_tokenIds3 < 100000, \"exceed the mint amount!\");\n    //     _tokenIds3 += 1;\n    //     require(_tokenIds3 == _id, \" ID wrong!\");\n\n    //     IERC20(XET_address).transferFrom(msg.sender, address(this), 2 ether);\n    //     uint256 newItemId = _tokenIds3;\n    //     _addTokenToAllTokensEnumeration(newItemId);\n    //     _addTokenToOwnerEnumeration(msg.sender, newItemId);\n        \n    //     _mint(msg.sender, newItemId);\n    //     _setTokenURI(newItemId, tokenURI);\n    //     if (Max_vip_level[msg.sender] < 1 || Max_vip_level[msg.sender] > 3) {\n    //         Max_vip_level[msg.sender] = 3;\n    //     }\n    //     emit MintXVip(msg.sender, newItemId, tokenURI);\n    //     return newItemId;\n    // }\n\n    function level_up_mint(uint256[] memory _ids, string memory tokenURI, uint256 _id)\n        public\n        onlystarted3\n        returns (uint256)\n    {\n        require(_ids.length == 12, \"err amount\");\n        uint256 newItemId;\n        if (_ids[0] > 1000 && _ids[0] < 10000) {\n            _tokenIds1 += 1;\n            require(_tokenIds1 == _id, \" ID wrong!\");\n            require(_tokenIds1 < 999, \"exceed the upgrade amount!\");\n            for (uint256 i = 1; i < 12; i++) {\n                require(_ids[i] > 1000 && _ids[i] < 10000, \"need same rank\");\n            }\n            for (uint256 i = 0; i < 12; i++) {\n                _removeTokenFromOwnerEnumeration(msg.sender, _ids[i]);\n                _removeTokenFromAllTokensEnumeration(_ids[i]);\n                _burn(_ids[i]);\n            }\n            newItemId = _tokenIds1;\n            _mint(msg.sender, newItemId);\n            if (Max_vip_level[msg.sender] < 1 || Max_vip_level[msg.sender] > 1) {\n                Max_vip_level[msg.sender] = 1;\n            }\n        } else if (_ids[0] > 10000) {\n            _tokenIds2 += 1;\n            require(_tokenIds2 == _id, \" ID wrong!\");\n            require(_tokenIds2 < 9999, \"exceed the upgrade amount!\");\n            for (uint256 i = 1; i < 12; i++) {\n                require(_ids[i] > 10000, \"need same rank\");\n            }\n            for (uint256 i = 0; i < 12; i++) {\n                _removeTokenFromOwnerEnumeration(msg.sender, _ids[i]);\n                _removeTokenFromAllTokensEnumeration(_ids[i]);\n                _burn(_ids[i]);\n            }\n            newItemId = _tokenIds2;\n            _mint(msg.sender, newItemId);\n            if (Max_vip_level[msg.sender] < 1 || Max_vip_level[msg.sender] > 2) {\n                Max_vip_level[msg.sender] = 2;\n            }\n        }\n        _addTokenToAllTokensEnumeration(newItemId);\n        _addTokenToOwnerEnumeration(msg.sender, newItemId);\n        emit MintXVip(msg.sender, newItemId, tokenURI);\n        return (newItemId);\n    }\n\n    function tokenOf(address owner) public view returns (uint256[] memory) {\n        //require(index < ERC721.balanceOf(owner), \"ERC721Enumerable: owner index out of bounds\");\n        return _ownedTokens[owner];\n    }\n\n    function _baseURI() internal view virtual override returns (string memory) {\n        return base_URI;\n    }\n\n    function set_baseURI(string memory _uri) public  onlyOwner {\n        base_URI = _uri;\n    }\n\n    // function tokenURI(uint256 tokenId) public view virtual override returns (string memory) {\n    //       require(_exists(tokenId), \"ERC721Metadata: URI query for nonexistent token\");\n    //       string memory baseURI = _baseURI();\n    //       return bytes(baseURI).length > 0 ? string(abi.encodePacked(baseURI, tokenId.toString())) : \"\";\n    // }\n    function Maxlevelof(address _owner) public view returns (uint256) {\n        return Max_vip_level[_owner];\n    }\n\n    /**\n     * @dev Private function to add a token to this extension's ownership-tracking data structures.\n     * @param to address representing the new owner of the given token ID\n     * @param tokenId uint256 ID of the token to be added to the tokens list of the given address\n     */\n    function _addTokenToOwnerEnumeration(address to, uint256 tokenId) private {\n        _ownedTokensIndex[tokenId] = _ownedTokens[to].length;\n        _ownedTokens[to].push(tokenId);\n        address[] storage addr = ownerOfAddress[tokenId];\n        if (addr.length > 0) {\n            addr.pop();\n        }\n        addr.push(to);\n    }\n\n    /**\n     * @dev Private function to add a token to this extension's token tracking data structures.\n     * @param tokenId uint256 ID of the token to be added to the tokens list\n     */\n    function _addTokenToAllTokensEnumeration(uint256 tokenId) private {\n        _allTokensIndex[tokenId] = _allTokens.length;\n        _allTokens.push(tokenId);\n    }\n\n    function _removeTokenFromOwnerEnumeration(address from, uint256 tokenId)\n        private\n    {\n        // To prevent a gap in from's tokens array, we store the last token in the index of the token to delete, and\n        // then delete the last slot (swap and pop).\n\n        uint256 lastTokenIndex = _ownedTokens[from].length.sub(1);\n        uint256 tokenIndex = _ownedTokensIndex[tokenId];\n\n        // When the token to delete is the last token, the swap operation is unnecessary\n        if (tokenIndex != lastTokenIndex) {\n            uint256 lastTokenId = _ownedTokens[from][lastTokenIndex];\n\n            _ownedTokens[from][tokenIndex] = lastTokenId; // Move the last token to the slot of the to-delete token\n            _ownedTokensIndex[lastTokenId] = tokenIndex; // Update the moved token's index\n        }\n\n        // This also deletes the contents at the last position of the array\n        _ownedTokens[from].pop();\n\n        // Note that _ownedTokensIndex[tokenId] hasn't been cleared: it still points to the old slot (now occupied by\n        // lastTokenId, or just over the end of the array if the token was the last one).\n        // delete _ownedTokensIndex[tokenIndex];\n    }\n\n    /**\n     * @dev Private function to remove a token from this extension's token tracking data structures.\n     * This has O(1) time complexity, but alters the order of the _allTokens array.\n     * @param tokenId uint256 ID of the token to be removed from the tokens list\n     */\n    function _removeTokenFromAllTokensEnumeration(uint256 tokenId) private {\n        // To prevent a gap in the tokens array, we store the last token in the index of the token to delete, and\n        // then delete the last slot (swap and pop).\n\n        uint256 lastTokenIndex = _allTokens.length.sub(1);\n        uint256 tokenIndex = _allTokensIndex[tokenId];\n\n        // When the token to delete is the last token, the swap operation is unnecessary. However, since this occurs so\n        // rarely (when the last minted token is burnt) that we still do the swap here to avoid the gas cost of adding\n        // an 'if' statement (like in _removeTokenFromOwnerEnumeration)\n        uint256 lastTokenId = _allTokens[lastTokenIndex];\n\n        _allTokens[tokenIndex] = lastTokenId; // Move the last token to the slot of the to-delete token\n        _allTokensIndex[lastTokenId] = tokenIndex; // Update the moved token's index\n\n        // This also deletes the contents at the last position of the array\n        _allTokens.pop();\n        _allTokensIndex[tokenId] = 0;\n    }\n}\n",
  "sourcePath": "C:\\Users\\artii\\Black IDE\\espace\\contracts\\XVIPnft.sol",
  "compiler": {
    "name": "solc",
    "version": "0.8.2+commit.661d1103.Emscripten.clang"
  },
  "schemaVersion": "3.4.3",
  "updatedAt": "2022-07-14T16:08:11.690Z",
  "devdoc": {
    "kind": "dev",
    "methods": {
      "approve(address,uint256)": {
        "details": "See {IERC721-approve}."
      },
      "balanceOf(address)": {
        "details": "See {IERC721-balanceOf}."
      },
      "getApproved(uint256)": {
        "details": "See {IERC721-getApproved}."
      },
      "isApprovedForAll(address,address)": {
        "details": "See {IERC721-isApprovedForAll}."
      },
      "name()": {
        "details": "See {IERC721Metadata-name}."
      },
      "owner()": {
        "details": "Returns the address of the current owner."
      },
      "ownerOf(uint256)": {
        "details": "See {IERC721-ownerOf}."
      },
      "renounceOwnership()": {
        "details": "Leaves the contract without owner. It will not be possible to call `onlyOwner` functions anymore. Can only be called by the current owner. NOTE: Renouncing ownership will leave the contract without an owner, thereby removing any functionality that is only available to the owner."
      },
      "safeTransferFrom(address,address,uint256)": {
        "details": "See {IERC721-safeTransferFrom}."
      },
      "safeTransferFrom(address,address,uint256,bytes)": {
        "details": "See {IERC721-safeTransferFrom}."
      },
      "setApprovalForAll(address,bool)": {
        "details": "See {IERC721-setApprovalForAll}."
      },
      "supportsInterface(bytes4)": {
        "details": "See {IERC165-supportsInterface}."
      },
      "symbol()": {
        "details": "See {IERC721Metadata-symbol}."
      },
      "tokenURI(uint256)": {
        "details": "See {IERC721Metadata-tokenURI}."
      },
      "transferFrom(address,address,uint256)": {
        "details": "See {IERC721-transferFrom}."
      },
      "transferOwnership(address)": {
        "details": "Transfers ownership of the contract to a new account (`newOwner`). Can only be called by the current owner."
      }
    },
    "version": 1
  },
  "userdoc": {
    "kind": "user",
    "methods": {},
    "version": 1
  }
}